{
  "transactions": [
    {
      "hash": "0x0d1eec585a6603f69de46fafb5e5283d0b47186db161bebd4994e9ff1745579f",
      "transactionType": "CALL",
      "contractName": null,
      "contractAddress": "0x194a8964d2624b67a13894fa77b5204bf2010e77",
      "function": "setMintStatus(uint256,bool)",
      "arguments": [
        "3",
        "true"
      ],
      "transaction": {
        "from": "0x8f088eca0009ad61fb94a6d7e9a5d7a087c08564",
        "to": "0x194a8964d2624b67a13894fa77b5204bf2010e77",
        "gas": "0xf917",
        "value": "0x0",
        "input": "0xc4dcb8d700000000000000000000000000000000000000000000000000000000000000030000000000000000000000000000000000000000000000000000000000000001",
        "nonce": "0xd18",
        "chainId": "0x14a34"
      },
      "additionalContracts": [],
      "isFixedGasLimit": false
    }
  ],
  "receipts": [
    {
      "status": "0x1",
      "cumulativeGasUsed": "0xbdf9e",
      "logs": [],
      "logsBloom": "0x00000000000000000000000000000000000000000000000000000000000000000000000000000000000000000000000000000000000000000000000000000000000000000000000000000000000000000000000000000000000000000000000000000000000000000000000000000000000000000000000000000000000000000000000000000000000000000000000000000000000000000000000000000000000000000000000000000000000000000000000000000000000000000000000000000000000000000000000000000000000000000000000000000000000000000000000000000000000000000000000000000000000000000000000000000000",
      "type": "0x2",
      "transactionHash": "0x0d1eec585a6603f69de46fafb5e5283d0b47186db161bebd4994e9ff1745579f",
      "transactionIndex": "0x9",
      "blockHash": "0xdb1747aa135202c8e0d312f661ec822173fff39d42cee54c753ff651435bb31b",
      "blockNumber": "0xad4b19",
      "gasUsed": "0xb457",
      "effectiveGasPrice": "0xf4345",
      "from": "0x8f088eca0009ad61fb94a6d7e9a5d7a087c08564",
      "to": "0x194a8964d2624b67a13894fa77b5204bf2010e77",
      "contractAddress": null,
      "l1BaseFeeScalar": "0x44d",
      "l1BlobBaseFee": "0x1",
      "l1BlobBaseFeeScalar": "0xa118b",
      "l1Fee": "0x68",
      "l1GasPrice": "0x16",
      "l1GasUsed": "0x640"
    }
  ],
  "libraries": [],
  "pending": [],
  "returns": {},
  "timestamp": 1718482200,
  "chain": 84532,
  "commit": "3e641a5"
}