{
  "transactions": [
    {
      "hash": "0x6e30946f87beb069190f2402e0c2a211ea12bc7e432cd7c2819cad329fa62fbe",
      "transactionType": "CALL",
      "contractName": null,
      "contractAddress": "0x3b1930860a0a109a3e66276332991081d9f3bc40",
      "function": "mint(uint256)",
      "arguments": [
        "1"
      ],
      "transaction": {
        "from": "0x8f088eca0009ad61fb94a6d7e9a5d7a087c08564",
        "to": "0x3b1930860a0a109a3e66276332991081d9f3bc40",
        "gas": "0x265fd",
        "value": "0x0",
        "input": "0xa0712d680000000000000000000000000000000000000000000000000000000000000001",
        "nonce": "0xa81",
        "chainId": "0x14a34"
      },
      "additionalContracts": [],
      "isFixedGasLimit": false
    },
    {
      "hash": "0x29c44c170f4f1836ffb2dffb58740c17800df779ae71fc7d723fac59cc8636bc",
      "transactionType": "CALL",
      "contractName": null,
      "contractAddress": "0x3b1930860a0a109a3e66276332991081d9f3bc40",
      "function": "mint(uint256)",
      "arguments": [
        "1"
      ],
      "transaction": {
        "from": "0x8f088eca0009ad61fb94a6d7e9a5d7a087c08564",
        "to": "0x3b1930860a0a109a3e66276332991081d9f3bc40",
        "gas": "0x265fd",
        "value": "0x0",
        "input": "0xa0712d680000000000000000000000000000000000000000000000000000000000000001",
        "nonce": "0xa82",
        "chainId": "0x14a34"
      },
      "additionalContracts": [],
      "isFixedGasLimit": false
    },
    {
      "hash": "0x9d3371b5af2b2edea5e5ec8462e717ad89a694b3d934cdeb3ee107f0e56499c1",
      "transactionType": "CALL",
      "contractName": null,
      "contractAddress": "0x3b1930860a0a109a3e66276332991081d9f3bc40",
      "function": "mint(uint256)",
      "arguments": [
        "1"
      ],
      "transaction": {
        "from": "0x8f088eca0009ad61fb94a6d7e9a5d7a087c08564",
        "to": "0x3b1930860a0a109a3e66276332991081d9f3bc40",
        "gas": "0x265fd",
        "value": "0x0",
        "input": "0xa0712d680000000000000000000000000000000000000000000000000000000000000001",
        "nonce": "0xa83",
        "chainId": "0x14a34"
      },
      "additionalContracts": [],
      "isFixedGasLimit": false
    },
    {
      "hash": "0x8eb55e7877bc8bae23c5099474c3dd6f03aee6020cd999666ed375f88184af56",
      "transactionType": "CALL",
      "contractName": null,
      "contractAddress": "0x3b1930860a0a109a3e66276332991081d9f3bc40",
      "function": "mint(uint256)",
      "arguments": [
        "1"
      ],
      "transaction": {
        "from": "0x8f088eca0009ad61fb94a6d7e9a5d7a087c08564",
        "to": "0x3b1930860a0a109a3e66276332991081d9f3bc40",
        "gas": "0x265fd",
        "value": "0x0",
        "input": "0xa0712d680000000000000000000000000000000000000000000000000000000000000001",
        "nonce": "0xa84",
        "chainId": "0x14a34"
      },
      "additionalContracts": [],
      "isFixedGasLimit": false
    },
    {
      "hash": "0x4b4dd6970452223c15a7df565d6b4c37df7ba11d32acb7bbc8234eb72977399e",
      "transactionType": "CALL",
      "contractName": null,
      "contractAddress": "0x3b1930860a0a109a3e66276332991081d9f3bc40",
      "function": "mint(uint256)",
      "arguments": [
        "1"
      ],
      "transaction": {
        "from": "0x8f088eca0009ad61fb94a6d7e9a5d7a087c08564",
        "to": "0x3b1930860a0a109a3e66276332991081d9f3bc40",
        "gas": "0x265fd",
        "value": "0x0",
        "input": "0xa0712d680000000000000000000000000000000000000000000000000000000000000001",
        "nonce": "0xa85",
        "chainId": "0x14a34"
      },
      "additionalContracts": [],
      "isFixedGasLimit": false
    },
    {
      "hash": "0xc1f65d0e76bb478d452cdacd69915039baf0414d1fa5a4e8e64d9ed4b3a64c98",
      "transactionType": "CALL",
      "contractName": null,
      "contractAddress": "0x3b1930860a0a109a3e66276332991081d9f3bc40",
      "function": "mint(uint256)",
      "arguments": [
        "1"
      ],
      "transaction": {
        "from": "0x8f088eca0009ad61fb94a6d7e9a5d7a087c08564",
        "to": "0x3b1930860a0a109a3e66276332991081d9f3bc40",
        "gas": "0x265fd",
        "value": "0x0",
        "input": "0xa0712d680000000000000000000000000000000000000000000000000000000000000001",
        "nonce": "0xa86",
        "chainId": "0x14a34"
      },
      "additionalContracts": [],
      "isFixedGasLimit": false
    },
    {
      "hash": "0x40c517c792faaad17287bc9f52f51aa5839c980283d89d1a6d1f5993814b038e",
      "transactionType": "CALL",
      "contractName": null,
      "contractAddress": "0x3b1930860a0a109a3e66276332991081d9f3bc40",
      "function": "mint(uint256)",
      "arguments": [
        "1"
      ],
      "transaction": {
        "from": "0x8f088eca0009ad61fb94a6d7e9a5d7a087c08564",
        "to": "0x3b1930860a0a109a3e66276332991081d9f3bc40",
        "gas": "0x265fd",
        "value": "0x0",
        "input": "0xa0712d680000000000000000000000000000000000000000000000000000000000000001",
        "nonce": "0xa87",
        "chainId": "0x14a34"
      },
      "additionalContracts": [],
      "isFixedGasLimit": false
    },
    {
      "hash": "0xeaeb365f0baad2b14b0903257076b8accc1e37e246cec0cf68d02b8cad693aef",
      "transactionType": "CALL",
      "contractName": null,
      "contractAddress": "0x3b1930860a0a109a3e66276332991081d9f3bc40",
      "function": "mint(uint256)",
      "arguments": [
        "1"
      ],
      "transaction": {
        "from": "0x8f088eca0009ad61fb94a6d7e9a5d7a087c08564",
        "to": "0x3b1930860a0a109a3e66276332991081d9f3bc40",
        "gas": "0x265fd",
        "value": "0x0",
        "input": "0xa0712d680000000000000000000000000000000000000000000000000000000000000001",
        "nonce": "0xa88",
        "chainId": "0x14a34"
      },
      "additionalContracts": [],
      "isFixedGasLimit": false
    },
    {
      "hash": "0x1c496142b00954720192fe7068090c773775c7f32673a91fea10e143b5c9c751",
      "transactionType": "CALL",
      "contractName": null,
      "contractAddress": "0x3b1930860a0a109a3e66276332991081d9f3bc40",
      "function": "mint(uint256)",
      "arguments": [
        "1"
      ],
      "transaction": {
        "from": "0x8f088eca0009ad61fb94a6d7e9a5d7a087c08564",
        "to": "0x3b1930860a0a109a3e66276332991081d9f3bc40",
        "gas": "0x265fd",
        "value": "0x0",
        "input": "0xa0712d680000000000000000000000000000000000000000000000000000000000000001",
        "nonce": "0xa89",
        "chainId": "0x14a34"
      },
      "additionalContracts": [],
      "isFixedGasLimit": false
    },
    {
      "hash": "0xf8b77a419cefc0eff8b2e438371a4d08f9096a232f7a2546ed1f927c6aab1830",
      "transactionType": "CALL",
      "contractName": null,
      "contractAddress": "0x3b1930860a0a109a3e66276332991081d9f3bc40",
      "function": "mint(uint256)",
      "arguments": [
        "1"
      ],
      "transaction": {
        "from": "0x8f088eca0009ad61fb94a6d7e9a5d7a087c08564",
        "to": "0x3b1930860a0a109a3e66276332991081d9f3bc40",
        "gas": "0x265fd",
        "value": "0x0",
        "input": "0xa0712d680000000000000000000000000000000000000000000000000000000000000001",
        "nonce": "0xa8a",
        "chainId": "0x14a34"
      },
      "additionalContracts": [],
      "isFixedGasLimit": false
    },
    {
      "hash": "0xa3d459c277f70cbf0312bbeb18e0d4879c72fc9d1e3c1ca73e15305a7dee6f13",
      "transactionType": "CALL",
      "contractName": null,
      "contractAddress": "0x3b1930860a0a109a3e66276332991081d9f3bc40",
      "function": "mint(uint256)",
      "arguments": [
        "1"
      ],
      "transaction": {
        "from": "0x8f088eca0009ad61fb94a6d7e9a5d7a087c08564",
        "to": "0x3b1930860a0a109a3e66276332991081d9f3bc40",
        "gas": "0x265fd",
        "value": "0x0",
        "input": "0xa0712d680000000000000000000000000000000000000000000000000000000000000001",
        "nonce": "0xa8b",
        "chainId": "0x14a34"
      },
      "additionalContracts": [],
      "isFixedGasLimit": false
    },
    {
      "hash": "0x098cce630f3e885b59cadc927aeb39bf98c8eecab023f0dd5d9696d05fade2f9",
      "transactionType": "CALL",
      "contractName": null,
      "contractAddress": "0x3b1930860a0a109a3e66276332991081d9f3bc40",
      "function": "mint(uint256)",
      "arguments": [
        "1"
      ],
      "transaction": {
        "from": "0x8f088eca0009ad61fb94a6d7e9a5d7a087c08564",
        "to": "0x3b1930860a0a109a3e66276332991081d9f3bc40",
        "gas": "0x265fd",
        "value": "0x0",
        "input": "0xa0712d680000000000000000000000000000000000000000000000000000000000000001",
        "nonce": "0xa8c",
        "chainId": "0x14a34"
      },
      "additionalContracts": [],
      "isFixedGasLimit": false
    },
    {
      "hash": "0xf497624660e18a848e4eeaeb0ebf0dc556dc21630c80e06bcfe611890e249003",
      "transactionType": "CALL",
      "contractName": null,
      "contractAddress": "0x3b1930860a0a109a3e66276332991081d9f3bc40",
      "function": "mint(uint256)",
      "arguments": [
        "1"
      ],
      "transaction": {
        "from": "0x8f088eca0009ad61fb94a6d7e9a5d7a087c08564",
        "to": "0x3b1930860a0a109a3e66276332991081d9f3bc40",
        "gas": "0x265fd",
        "value": "0x0",
        "input": "0xa0712d680000000000000000000000000000000000000000000000000000000000000001",
        "nonce": "0xa8d",
        "chainId": "0x14a34"
      },
      "additionalContracts": [],
      "isFixedGasLimit": false
    },
    {
      "hash": "0x68860070b160b6335f12d751f09e045aa2ee8d7c81000dfc628c1f106d0b9eb0",
      "transactionType": "CALL",
      "contractName": null,
      "contractAddress": "0x3b1930860a0a109a3e66276332991081d9f3bc40",
      "function": "mint(uint256)",
      "arguments": [
        "1"
      ],
      "transaction": {
        "from": "0x8f088eca0009ad61fb94a6d7e9a5d7a087c08564",
        "to": "0x3b1930860a0a109a3e66276332991081d9f3bc40",
        "gas": "0x265fd",
        "value": "0x0",
        "input": "0xa0712d680000000000000000000000000000000000000000000000000000000000000001",
        "nonce": "0xa8e",
        "chainId": "0x14a34"
      },
      "additionalContracts": [],
      "isFixedGasLimit": false
    },
    {
      "hash": "0x2dbbb00f7d69ed250df961df1e027e9606061bb1ee17383cbf856965a7dd41b0",
      "transactionType": "CALL",
      "contractName": null,
      "contractAddress": "0x3b1930860a0a109a3e66276332991081d9f3bc40",
      "function": "mint(uint256)",
      "arguments": [
        "1"
      ],
      "transaction": {
        "from": "0x8f088eca0009ad61fb94a6d7e9a5d7a087c08564",
        "to": "0x3b1930860a0a109a3e66276332991081d9f3bc40",
        "gas": "0x265fd",
        "value": "0x0",
        "input": "0xa0712d680000000000000000000000000000000000000000000000000000000000000001",
        "nonce": "0xa8f",
        "chainId": "0x14a34"
      },
      "additionalContracts": [],
      "isFixedGasLimit": false
    },
    {
      "hash": "0xb0a6188ff4887a39e1896225e51d152e5d0a9510b6571133bc70aa0d474f61d2",
      "transactionType": "CALL",
      "contractName": null,
      "contractAddress": "0x3b1930860a0a109a3e66276332991081d9f3bc40",
      "function": "mint(uint256)",
      "arguments": [
        "1"
      ],
      "transaction": {
        "from": "0x8f088eca0009ad61fb94a6d7e9a5d7a087c08564",
        "to": "0x3b1930860a0a109a3e66276332991081d9f3bc40",
        "gas": "0x265fd",
        "value": "0x0",
        "input": "0xa0712d680000000000000000000000000000000000000000000000000000000000000001",
        "nonce": "0xa90",
        "chainId": "0x14a34"
      },
      "additionalContracts": [],
      "isFixedGasLimit": false
    },
    {
      "hash": "0x04ff7eef0bd2879437ef4255e5be03069ad5f454193f106aad5e43adc9555539",
      "transactionType": "CALL",
      "contractName": null,
      "contractAddress": "0x3b1930860a0a109a3e66276332991081d9f3bc40",
      "function": "mint(uint256)",
      "arguments": [
        "1"
      ],
      "transaction": {
        "from": "0x8f088eca0009ad61fb94a6d7e9a5d7a087c08564",
        "to": "0x3b1930860a0a109a3e66276332991081d9f3bc40",
        "gas": "0x265fd",
        "value": "0x0",
        "input": "0xa0712d680000000000000000000000000000000000000000000000000000000000000001",
        "nonce": "0xa91",
        "chainId": "0x14a34"
      },
      "additionalContracts": [],
      "isFixedGasLimit": false
    },
    {
      "hash": "0x1a91b55a76522add17edcf758179f88b9127c163536d1aa644925ad8df80a918",
      "transactionType": "CALL",
      "contractName": null,
      "contractAddress": "0x3b1930860a0a109a3e66276332991081d9f3bc40",
      "function": "mint(uint256)",
      "arguments": [
        "1"
      ],
      "transaction": {
        "from": "0x8f088eca0009ad61fb94a6d7e9a5d7a087c08564",
        "to": "0x3b1930860a0a109a3e66276332991081d9f3bc40",
        "gas": "0x265fd",
        "value": "0x0",
        "input": "0xa0712d680000000000000000000000000000000000000000000000000000000000000001",
        "nonce": "0xa92",
        "chainId": "0x14a34"
      },
      "additionalContracts": [],
      "isFixedGasLimit": false
    },
    {
      "hash": "0x77785dd82f727c5272809ef69be44276fa0791b3ff4e063658e8b08a68db372d",
      "transactionType": "CALL",
      "contractName": null,
      "contractAddress": "0x3b1930860a0a109a3e66276332991081d9f3bc40",
      "function": "mint(uint256)",
      "arguments": [
        "1"
      ],
      "transaction": {
        "from": "0x8f088eca0009ad61fb94a6d7e9a5d7a087c08564",
        "to": "0x3b1930860a0a109a3e66276332991081d9f3bc40",
        "gas": "0x265fd",
        "value": "0x0",
        "input": "0xa0712d680000000000000000000000000000000000000000000000000000000000000001",
        "nonce": "0xa93",
        "chainId": "0x14a34"
      },
      "additionalContracts": [],
      "isFixedGasLimit": false
    },
    {
      "hash": "0x9373c6ba4a99d4aabea989697208f77e87c5566a508b85ea663070fefbda3bb0",
      "transactionType": "CALL",
      "contractName": null,
      "contractAddress": "0x3b1930860a0a109a3e66276332991081d9f3bc40",
      "function": "mint(uint256)",
      "arguments": [
        "1"
      ],
      "transaction": {
        "from": "0x8f088eca0009ad61fb94a6d7e9a5d7a087c08564",
        "to": "0x3b1930860a0a109a3e66276332991081d9f3bc40",
        "gas": "0x265fd",
        "value": "0x0",
        "input": "0xa0712d680000000000000000000000000000000000000000000000000000000000000001",
        "nonce": "0xa94",
        "chainId": "0x14a34"
      },
      "additionalContracts": [],
      "isFixedGasLimit": false
    },
    {
      "hash": "0xbfeedec44ef6a9cd3d71053cad47fe44492913b21e4187f2f541f4aee44eec3a",
      "transactionType": "CALL",
      "contractName": null,
      "contractAddress": "0x3b1930860a0a109a3e66276332991081d9f3bc40",
      "function": "mint(uint256)",
      "arguments": [
        "1"
      ],
      "transaction": {
        "from": "0x8f088eca0009ad61fb94a6d7e9a5d7a087c08564",
        "to": "0x3b1930860a0a109a3e66276332991081d9f3bc40",
        "gas": "0x265fd",
        "value": "0x0",
        "input": "0xa0712d680000000000000000000000000000000000000000000000000000000000000001",
        "nonce": "0xa95",
        "chainId": "0x14a34"
      },
      "additionalContracts": [],
      "isFixedGasLimit": false
    },
    {
      "hash": "0x49e498d9c6ef08ee09d85dd72095b5c8344b3dcc753243d8f7a7f41d0e7ec783",
      "transactionType": "CALL",
      "contractName": null,
      "contractAddress": "0x3b1930860a0a109a3e66276332991081d9f3bc40",
      "function": "mint(uint256)",
      "arguments": [
        "1"
      ],
      "transaction": {
        "from": "0x8f088eca0009ad61fb94a6d7e9a5d7a087c08564",
        "to": "0x3b1930860a0a109a3e66276332991081d9f3bc40",
        "gas": "0x265fd",
        "value": "0x0",
        "input": "0xa0712d680000000000000000000000000000000000000000000000000000000000000001",
        "nonce": "0xa96",
        "chainId": "0x14a34"
      },
      "additionalContracts": [],
      "isFixedGasLimit": false
    },
    {
      "hash": "0x05025281299fada07ba1ca918e3dd14f957794813930e3a2db093f806b48ef51",
      "transactionType": "CALL",
      "contractName": null,
      "contractAddress": "0x3b1930860a0a109a3e66276332991081d9f3bc40",
      "function": "mint(uint256)",
      "arguments": [
        "1"
      ],
      "transaction": {
        "from": "0x8f088eca0009ad61fb94a6d7e9a5d7a087c08564",
        "to": "0x3b1930860a0a109a3e66276332991081d9f3bc40",
        "gas": "0x265fd",
        "value": "0x0",
        "input": "0xa0712d680000000000000000000000000000000000000000000000000000000000000001",
        "nonce": "0xa97",
        "chainId": "0x14a34"
      },
      "additionalContracts": [],
      "isFixedGasLimit": false
    },
    {
      "hash": "0x6310d028c35a2ff909db4863f490557139eacb357295a826575be26c8def918e",
      "transactionType": "CALL",
      "contractName": null,
      "contractAddress": "0x3b1930860a0a109a3e66276332991081d9f3bc40",
      "function": "mint(uint256)",
      "arguments": [
        "1"
      ],
      "transaction": {
        "from": "0x8f088eca0009ad61fb94a6d7e9a5d7a087c08564",
        "to": "0x3b1930860a0a109a3e66276332991081d9f3bc40",
        "gas": "0x265fd",
        "value": "0x0",
        "input": "0xa0712d680000000000000000000000000000000000000000000000000000000000000001",
        "nonce": "0xa98",
        "chainId": "0x14a34"
      },
      "additionalContracts": [],
      "isFixedGasLimit": false
    },
    {
      "hash": "0x3d189d47ef494767a2c15eb3f1384f0cef74dd97682d557d5a3d8634f614041c",
      "transactionType": "CALL",
      "contractName": null,
      "contractAddress": "0x3b1930860a0a109a3e66276332991081d9f3bc40",
      "function": "mint(uint256)",
      "arguments": [
        "1"
      ],
      "transaction": {
        "from": "0x8f088eca0009ad61fb94a6d7e9a5d7a087c08564",
        "to": "0x3b1930860a0a109a3e66276332991081d9f3bc40",
        "gas": "0x265fd",
        "value": "0x0",
        "input": "0xa0712d680000000000000000000000000000000000000000000000000000000000000001",
        "nonce": "0xa99",
        "chainId": "0x14a34"
      },
      "additionalContracts": [],
      "isFixedGasLimit": false
    },
    {
      "hash": "0xce2b72375eb6b401c3799a1c1459798ca500da41cf0ded99da6ea32a7b22ecd7",
      "transactionType": "CALL",
      "contractName": null,
      "contractAddress": "0x3b1930860a0a109a3e66276332991081d9f3bc40",
      "function": "mint(uint256)",
      "arguments": [
        "1"
      ],
      "transaction": {
        "from": "0x8f088eca0009ad61fb94a6d7e9a5d7a087c08564",
        "to": "0x3b1930860a0a109a3e66276332991081d9f3bc40",
        "gas": "0x265fd",
        "value": "0x0",
        "input": "0xa0712d680000000000000000000000000000000000000000000000000000000000000001",
        "nonce": "0xa9a",
        "chainId": "0x14a34"
      },
      "additionalContracts": [],
      "isFixedGasLimit": false
    },
    {
      "hash": "0xe5ffb25ac77dc3001f7ca956dac77dccdef2a871ad080af528a6487da3234f30",
      "transactionType": "CALL",
      "contractName": null,
      "contractAddress": "0x3b1930860a0a109a3e66276332991081d9f3bc40",
      "function": "mint(uint256)",
      "arguments": [
        "1"
      ],
      "transaction": {
        "from": "0x8f088eca0009ad61fb94a6d7e9a5d7a087c08564",
        "to": "0x3b1930860a0a109a3e66276332991081d9f3bc40",
        "gas": "0x265fd",
        "value": "0x0",
        "input": "0xa0712d680000000000000000000000000000000000000000000000000000000000000001",
        "nonce": "0xa9b",
        "chainId": "0x14a34"
      },
      "additionalContracts": [],
      "isFixedGasLimit": false
    },
    {
      "hash": "0x20acad51493b74a738cc10246c8a31e15bb3b7e1bc72f4e871487ac671942d15",
      "transactionType": "CALL",
      "contractName": null,
      "contractAddress": "0x3b1930860a0a109a3e66276332991081d9f3bc40",
      "function": "mint(uint256)",
      "arguments": [
        "1"
      ],
      "transaction": {
        "from": "0x8f088eca0009ad61fb94a6d7e9a5d7a087c08564",
        "to": "0x3b1930860a0a109a3e66276332991081d9f3bc40",
        "gas": "0x265fd",
        "value": "0x0",
        "input": "0xa0712d680000000000000000000000000000000000000000000000000000000000000001",
        "nonce": "0xa9c",
        "chainId": "0x14a34"
      },
      "additionalContracts": [],
      "isFixedGasLimit": false
    },
    {
      "hash": "0x923aa60feee61213746788a11742eb224b5940c75e44699405b605e274deffc4",
      "transactionType": "CALL",
      "contractName": null,
      "contractAddress": "0x3b1930860a0a109a3e66276332991081d9f3bc40",
      "function": "mint(uint256)",
      "arguments": [
        "1"
      ],
      "transaction": {
        "from": "0x8f088eca0009ad61fb94a6d7e9a5d7a087c08564",
        "to": "0x3b1930860a0a109a3e66276332991081d9f3bc40",
        "gas": "0x265fd",
        "value": "0x0",
        "input": "0xa0712d680000000000000000000000000000000000000000000000000000000000000001",
        "nonce": "0xa9d",
        "chainId": "0x14a34"
      },
      "additionalContracts": [],
      "isFixedGasLimit": false
    },
    {
      "hash": "0xccf32153ffb0ab95dbb1a48210c77b234cf7e24332e1cb41e2f25c444292c3fe",
      "transactionType": "CALL",
      "contractName": null,
      "contractAddress": "0x3b1930860a0a109a3e66276332991081d9f3bc40",
      "function": "mint(uint256)",
      "arguments": [
        "1"
      ],
      "transaction": {
        "from": "0x8f088eca0009ad61fb94a6d7e9a5d7a087c08564",
        "to": "0x3b1930860a0a109a3e66276332991081d9f3bc40",
        "gas": "0x265fd",
        "value": "0x0",
        "input": "0xa0712d680000000000000000000000000000000000000000000000000000000000000001",
        "nonce": "0xa9e",
        "chainId": "0x14a34"
      },
      "additionalContracts": [],
      "isFixedGasLimit": false
    }
  ],
  "receipts": [
    {
      "status": "0x1",
      "cumulativeGasUsed": "0x419c01",
      "logs": [
        {
          "address": "0x3b1930860a0a109a3e66276332991081d9f3bc40",
          "topics": [
            "0xddf252ad1be2c89b69c2b068fc378daa952ba7f163c4a11628f55a4df523b3ef",
            "0x0000000000000000000000000000000000000000000000000000000000000000",
            "0x0000000000000000000000008f088eca0009ad61fb94a6d7e9a5d7a087c08564",
            "0x00000000000000000000000000000000000000000000000000000000000f4255"
          ],
          "data": "0x",
          "blockHash": "0xb08c39541611e4320a93f0a87d8ff308f6b515417b292a7af0063ee220a5cb17",
          "blockNumber": "0x951cf0",
          "transactionHash": "0x6e30946f87beb069190f2402e0c2a211ea12bc7e432cd7c2819cad329fa62fbe",
          "transactionIndex": "0xb",
          "logIndex": "0x12",
          "removed": false
        }
      ],
      "logsBloom": "0x00000000000000000000000000000000000000000000000000000200000000000000000000100000000001000000000000000000000000000000000000000200000000000000000000000008000080000000000000000000000000000000000080000000020000000100000000000800000000000000000000000010000000000000000000000000000000000000000000000000000000000000000000000000000000000000000000000000000000000000000000000000000000400000000000800002000000000000000000000000000000000000000000000000000020000000000000000000000000000000000000000000000000000000000000000000",
      "type": "0x2",
      "transactionHash": "0x6e30946f87beb069190f2402e0c2a211ea12bc7e432cd7c2819cad329fa62fbe",
      "transactionIndex": "0xb",
      "blockHash": "0xb08c39541611e4320a93f0a87d8ff308f6b515417b292a7af0063ee220a5cb17",
      "blockNumber": "0x951cf0",
      "gasUsed": "0x1a3d3",
      "effectiveGasPrice": "0x1879d",
      "from": "0x8f088eca0009ad61fb94a6d7e9a5d7a087c08564",
      "to": "0x3b1930860a0a109a3e66276332991081d9f3bc40",
      "contractAddress": null,
      "l1Fee": "0x12ca9d",
      "l1GasPrice": "0x87b7b",
      "l1GasUsed": "0x7dc"
    },
    {
      "status": "0x1",
      "cumulativeGasUsed": "0x433fd4",
      "logs": [
        {
          "address": "0x3b1930860a0a109a3e66276332991081d9f3bc40",
          "topics": [
            "0xddf252ad1be2c89b69c2b068fc378daa952ba7f163c4a11628f55a4df523b3ef",
            "0x0000000000000000000000000000000000000000000000000000000000000000",
            "0x0000000000000000000000008f088eca0009ad61fb94a6d7e9a5d7a087c08564",
            "0x00000000000000000000000000000000000000000000000000000000000f4256"
          ],
          "data": "0x",
          "blockHash": "0xb08c39541611e4320a93f0a87d8ff308f6b515417b292a7af0063ee220a5cb17",
          "blockNumber": "0x951cf0",
          "transactionHash": "0x29c44c170f4f1836ffb2dffb58740c17800df779ae71fc7d723fac59cc8636bc",
          "transactionIndex": "0xc",
          "logIndex": "0x13",
          "removed": false
        }
      ],
      "logsBloom": "0x00000000000000000000000000000000000000000000000000000000000000000000000000100040000001000000000000000000000000000000000000000200000000000000000000000008000080000000000000000000000000000000000080000000020000000000000000000800000000000000000000000010000000000000000000000020000000000000000000000000000000000000000000000000000000000000000000000000000000000000000000000000000000400000000000000002000000000000000000000000000000000000010000000000000020000000000000000000000000000000000000000000000000000000000000000000",
      "type": "0x2",
      "transactionHash": "0x29c44c170f4f1836ffb2dffb58740c17800df779ae71fc7d723fac59cc8636bc",
      "transactionIndex": "0xc",
      "blockHash": "0xb08c39541611e4320a93f0a87d8ff308f6b515417b292a7af0063ee220a5cb17",
      "blockNumber": "0x951cf0",
      "gasUsed": "0x1a3d3",
      "effectiveGasPrice": "0x1879d",
      "from": "0x8f088eca0009ad61fb94a6d7e9a5d7a087c08564",
      "to": "0x3b1930860a0a109a3e66276332991081d9f3bc40",
      "contractAddress": null,
      "l1Fee": "0x12ca9d",
      "l1GasPrice": "0x87b7b",
      "l1GasUsed": "0x7dc"
    },
    {
      "status": "0x1",
      "cumulativeGasUsed": "0x44e3a7",
      "logs": [
        {
          "address": "0x3b1930860a0a109a3e66276332991081d9f3bc40",
          "topics": [
            "0xddf252ad1be2c89b69c2b068fc378daa952ba7f163c4a11628f55a4df523b3ef",
            "0x0000000000000000000000000000000000000000000000000000000000000000",
            "0x0000000000000000000000008f088eca0009ad61fb94a6d7e9a5d7a087c08564",
            "0x00000000000000000000000000000000000000000000000000000000000f4257"
          ],
          "data": "0x",
          "blockHash": "0xb08c39541611e4320a93f0a87d8ff308f6b515417b292a7af0063ee220a5cb17",
          "blockNumber": "0x951cf0",
          "transactionHash": "0x9d3371b5af2b2edea5e5ec8462e717ad89a694b3d934cdeb3ee107f0e56499c1",
          "transactionIndex": "0xd",
          "logIndex": "0x14",
          "removed": false
        }
      ],
      "logsBloom": "0x00000000000000000000000000000000000000000000000000000000000000000000000000100000000001000000000000000000000000004000000000000200000000000000000000000008000080000000000000000000000000000000000080000000020000000000000000000800008000000000000000000010000000000000000000000000000000000000000000000000000000000000000000000000000000000000000000000000000000000000000000000000000000400000001000000002000000000000000000000000000000000000000000000000000020000000000000000000000000000000000000000000000000000000000000000000",
      "type": "0x2",
      "transactionHash": "0x9d3371b5af2b2edea5e5ec8462e717ad89a694b3d934cdeb3ee107f0e56499c1",
      "transactionIndex": "0xd",
      "blockHash": "0xb08c39541611e4320a93f0a87d8ff308f6b515417b292a7af0063ee220a5cb17",
      "blockNumber": "0x951cf0",
      "gasUsed": "0x1a3d3",
      "effectiveGasPrice": "0x1879d",
      "from": "0x8f088eca0009ad61fb94a6d7e9a5d7a087c08564",
      "to": "0x3b1930860a0a109a3e66276332991081d9f3bc40",
      "contractAddress": null,
      "l1Fee": "0x12ca9d",
      "l1GasPrice": "0x87b7b",
      "l1GasUsed": "0x7dc"
    },
    {
      "status": "0x1",
      "cumulativeGasUsed": "0x46877a",
      "logs": [
        {
          "address": "0x3b1930860a0a109a3e66276332991081d9f3bc40",
          "topics": [
            "0xddf252ad1be2c89b69c2b068fc378daa952ba7f163c4a11628f55a4df523b3ef",
            "0x0000000000000000000000000000000000000000000000000000000000000000",
            "0x0000000000000000000000008f088eca0009ad61fb94a6d7e9a5d7a087c08564",
            "0x00000000000000000000000000000000000000000000000000000000000f4258"
          ],
          "data": "0x",
          "blockHash": "0xb08c39541611e4320a93f0a87d8ff308f6b515417b292a7af0063ee220a5cb17",
          "blockNumber": "0x951cf0",
          "transactionHash": "0x8eb55e7877bc8bae23c5099474c3dd6f03aee6020cd999666ed375f88184af56",
          "transactionIndex": "0xe",
          "logIndex": "0x15",
          "removed": false
        }
      ],
      "logsBloom": "0x00000000000000000000000000000000000000000000000000000000000000000000000000100000000001000000000000000000004000000000000000000200000000000000000000000008000080000000000000000000000000000000000080000000020000000000000000000800000000000000080000000010000000000000000000000000000000000000000000000000000000000000000000000000000000000000000000000000000000000000000000000000000000400000000000000002000000000000000000000004000000000000000000000000000020000000000000000000000000000000000000000000000000000000000000000000",
      "type": "0x2",
      "transactionHash": "0x8eb55e7877bc8bae23c5099474c3dd6f03aee6020cd999666ed375f88184af56",
      "transactionIndex": "0xe",
      "blockHash": "0xb08c39541611e4320a93f0a87d8ff308f6b515417b292a7af0063ee220a5cb17",
      "blockNumber": "0x951cf0",
      "gasUsed": "0x1a3d3",
      "effectiveGasPrice": "0x1879d",
      "from": "0x8f088eca0009ad61fb94a6d7e9a5d7a087c08564",
      "to": "0x3b1930860a0a109a3e66276332991081d9f3bc40",
      "contractAddress": null,
      "l1Fee": "0x12ca9d",
      "l1GasPrice": "0x87b7b",
      "l1GasUsed": "0x7dc"
    },
    {
      "status": "0x1",
      "cumulativeGasUsed": "0x482b4d",
      "logs": [
        {
          "address": "0x3b1930860a0a109a3e66276332991081d9f3bc40",
          "topics": [
            "0xddf252ad1be2c89b69c2b068fc378daa952ba7f163c4a11628f55a4df523b3ef",
            "0x0000000000000000000000000000000000000000000000000000000000000000",
            "0x0000000000000000000000008f088eca0009ad61fb94a6d7e9a5d7a087c08564",
            "0x00000000000000000000000000000000000000000000000000000000000f4259"
          ],
          "data": "0x",
          "blockHash": "0xb08c39541611e4320a93f0a87d8ff308f6b515417b292a7af0063ee220a5cb17",
          "blockNumber": "0x951cf0",
          "transactionHash": "0x4b4dd6970452223c15a7df565d6b4c37df7ba11d32acb7bbc8234eb72977399e",
          "transactionIndex": "0xf",
          "logIndex": "0x16",
          "removed": false
        }
      ],
      "logsBloom": "0x00000000000000000000000000000000000000000000000000000000000000000000000000100000000001000000000000000000000000000000000000000200000000000000000000000008000080000000000000000000000000000000000080000000020000000000000000000800000000000000000000000010000000000000000000000000000000080000000000000000000000000000000000000000000000000000000000000000000000000080000000000000000000400000000000000002000000000000000000000000000000000000000000000000000020040000000000000000000000000000000000000000000000000000000000000000",
      "type": "0x2",
      "transactionHash": "0x4b4dd6970452223c15a7df565d6b4c37df7ba11d32acb7bbc8234eb72977399e",
      "transactionIndex": "0xf",
      "blockHash": "0xb08c39541611e4320a93f0a87d8ff308f6b515417b292a7af0063ee220a5cb17",
      "blockNumber": "0x951cf0",
      "gasUsed": "0x1a3d3",
      "effectiveGasPrice": "0x1879d",
      "from": "0x8f088eca0009ad61fb94a6d7e9a5d7a087c08564",
      "to": "0x3b1930860a0a109a3e66276332991081d9f3bc40",
      "contractAddress": null,
      "l1Fee": "0x12ca9d",
      "l1GasPrice": "0x87b7b",
      "l1GasUsed": "0x7dc"
    },
    {
      "status": "0x1",
      "cumulativeGasUsed": "0x49cf20",
      "logs": [
        {
          "address": "0x3b1930860a0a109a3e66276332991081d9f3bc40",
          "topics": [
            "0xddf252ad1be2c89b69c2b068fc378daa952ba7f163c4a11628f55a4df523b3ef",
            "0x0000000000000000000000000000000000000000000000000000000000000000",
            "0x0000000000000000000000008f088eca0009ad61fb94a6d7e9a5d7a087c08564",
            "0x00000000000000000000000000000000000000000000000000000000000f425a"
          ],
          "data": "0x",
          "blockHash": "0xb08c39541611e4320a93f0a87d8ff308f6b515417b292a7af0063ee220a5cb17",
          "blockNumber": "0x951cf0",
          "transactionHash": "0xc1f65d0e76bb478d452cdacd69915039baf0414d1fa5a4e8e64d9ed4b3a64c98",
          "transactionIndex": "0x10",
          "logIndex": "0x17",
          "removed": false
        }
      ],
      "logsBloom": "0x02000000000000000000000000000000000000000000000004000000000000000000100000100000000001000000000000000000000000000000000000000200000000000000000000000008000080000000000000000000000000000000000080000000020000000000000000000800000000000000000000000010000000000000000000000000000000000000000000000000000000000000000000000000000000000000000000000000000000000000000000000000000000400000000000000002000000000000000000000000000000000000000000000000000020000000000000000000000000000000000000000000000000000000000000000000",
      "type": "0x2",
      "transactionHash": "0xc1f65d0e76bb478d452cdacd69915039baf0414d1fa5a4e8e64d9ed4b3a64c98",
      "transactionIndex": "0x10",
      "blockHash": "0xb08c39541611e4320a93f0a87d8ff308f6b515417b292a7af0063ee220a5cb17",
      "blockNumber": "0x951cf0",
      "gasUsed": "0x1a3d3",
      "effectiveGasPrice": "0x1879d",
      "from": "0x8f088eca0009ad61fb94a6d7e9a5d7a087c08564",
      "to": "0x3b1930860a0a109a3e66276332991081d9f3bc40",
      "contractAddress": null,
      "l1Fee": "0x12ca9d",
      "l1GasPrice": "0x87b7b",
      "l1GasUsed": "0x7dc"
    },
    {
      "status": "0x1",
      "cumulativeGasUsed": "0x4b72f3",
      "logs": [
        {
          "address": "0x3b1930860a0a109a3e66276332991081d9f3bc40",
          "topics": [
            "0xddf252ad1be2c89b69c2b068fc378daa952ba7f163c4a11628f55a4df523b3ef",
            "0x0000000000000000000000000000000000000000000000000000000000000000",
            "0x0000000000000000000000008f088eca0009ad61fb94a6d7e9a5d7a087c08564",
            "0x00000000000000000000000000000000000000000000000000000000000f425b"
          ],
          "data": "0x",
          "blockHash": "0xb08c39541611e4320a93f0a87d8ff308f6b515417b292a7af0063ee220a5cb17",
          "blockNumber": "0x951cf0",
          "transactionHash": "0x40c517c792faaad17287bc9f52f51aa5839c980283d89d1a6d1f5993814b038e",
          "transactionIndex": "0x11",
          "logIndex": "0x18",
          "removed": false
        }
      ],
      "logsBloom": "0x00000000000000000000000000000000000000000000000000000000000000000000000000100000000001000000000000000000000000000000000000000200000000000000000000000008000080000000000000000000000000000000000080000000020000000000000000000800000000000000000000000010000000000000000000000000000000000000000000000000000200000000000000000000000000000000000000000000000000000000000000000000000008400000000000000002000000000000000000000000000000000000000000000000000020000000000000000000000000000000000000000000000000000000002000000000",
      "type": "0x2",
      "transactionHash": "0x40c517c792faaad17287bc9f52f51aa5839c980283d89d1a6d1f5993814b038e",
      "transactionIndex": "0x11",
      "blockHash": "0xb08c39541611e4320a93f0a87d8ff308f6b515417b292a7af0063ee220a5cb17",
      "blockNumber": "0x951cf0",
      "gasUsed": "0x1a3d3",
      "effectiveGasPrice": "0x1879d",
      "from": "0x8f088eca0009ad61fb94a6d7e9a5d7a087c08564",
      "to": "0x3b1930860a0a109a3e66276332991081d9f3bc40",
      "contractAddress": null,
      "l1Fee": "0x12ca9d",
      "l1GasPrice": "0x87b7b",
      "l1GasUsed": "0x7dc"
    },
    {
      "status": "0x1",
      "cumulativeGasUsed": "0x4d16c6",
      "logs": [
        {
          "address": "0x3b1930860a0a109a3e66276332991081d9f3bc40",
          "topics": [
            "0xddf252ad1be2c89b69c2b068fc378daa952ba7f163c4a11628f55a4df523b3ef",
            "0x0000000000000000000000000000000000000000000000000000000000000000",
            "0x0000000000000000000000008f088eca0009ad61fb94a6d7e9a5d7a087c08564",
            "0x00000000000000000000000000000000000000000000000000000000000f425c"
          ],
          "data": "0x",
          "blockHash": "0xb08c39541611e4320a93f0a87d8ff308f6b515417b292a7af0063ee220a5cb17",
          "blockNumber": "0x951cf0",
          "transactionHash": "0xeaeb365f0baad2b14b0903257076b8accc1e37e246cec0cf68d02b8cad693aef",
          "transactionIndex": "0x12",
          "logIndex": "0x19",
          "removed": false
        }
      ],
      "logsBloom": "0x00000000000000000000000000000000000000000000000000000000000800000000000000100000000001000000000000000000000000000000000000000200000000000000000000000008000080000000000000000000000000000000000080000000020000000000000000000800000100000000000000000010000000000000000000000000000000000000000000000000000000000000000000000000000000000000000000000000000000000000000000000000000000400000000000000002000000000000000000000000000000000000000000000000200020000000000000000000000000000000000000000000000000000000000000000000",
      "type": "0x2",
      "transactionHash": "0xeaeb365f0baad2b14b0903257076b8accc1e37e246cec0cf68d02b8cad693aef",
      "transactionIndex": "0x12",
      "blockHash": "0xb08c39541611e4320a93f0a87d8ff308f6b515417b292a7af0063ee220a5cb17",
      "blockNumber": "0x951cf0",
      "gasUsed": "0x1a3d3",
      "effectiveGasPrice": "0x1879d",
      "from": "0x8f088eca0009ad61fb94a6d7e9a5d7a087c08564",
      "to": "0x3b1930860a0a109a3e66276332991081d9f3bc40",
      "contractAddress": null,
      "l1Fee": "0x12ca9d",
      "l1GasPrice": "0x87b7b",
      "l1GasUsed": "0x7dc"
    },
    {
      "status": "0x1",
      "cumulativeGasUsed": "0x4eba99",
      "logs": [
        {
          "address": "0x3b1930860a0a109a3e66276332991081d9f3bc40",
          "topics": [
            "0xddf252ad1be2c89b69c2b068fc378daa952ba7f163c4a11628f55a4df523b3ef",
            "0x0000000000000000000000000000000000000000000000000000000000000000",
            "0x0000000000000000000000008f088eca0009ad61fb94a6d7e9a5d7a087c08564",
            "0x00000000000000000000000000000000000000000000000000000000000f425d"
          ],
          "data": "0x",
          "blockHash": "0xb08c39541611e4320a93f0a87d8ff308f6b515417b292a7af0063ee220a5cb17",
          "blockNumber": "0x951cf0",
          "transactionHash": "0x1c496142b00954720192fe7068090c773775c7f32673a91fea10e143b5c9c751",
          "transactionIndex": "0x13",
          "logIndex": "0x1a",
          "removed": false
        }
      ],
      "logsBloom": "0x00000000000000000000000000000000000000000000000000000000000000000000000000100000000001000000000000000000000000000000000000000200000000000000000000000008000080000000000000000000000000000000000080000000020000000000000000000800000000000000000000000010000000000000000000000000000000000000040000000000000000000000000000000000000000000000000000000000004000000000000000000000000000400000000000000002000000000000000004000000000000000000000000000000000020000000000000000000000000000000000000000000000000000000000000000000",
      "type": "0x2",
      "transactionHash": "0x1c496142b00954720192fe7068090c773775c7f32673a91fea10e143b5c9c751",
      "transactionIndex": "0x13",
      "blockHash": "0xb08c39541611e4320a93f0a87d8ff308f6b515417b292a7af0063ee220a5cb17",
      "blockNumber": "0x951cf0",
      "gasUsed": "0x1a3d3",
      "effectiveGasPrice": "0x1879d",
      "from": "0x8f088eca0009ad61fb94a6d7e9a5d7a087c08564",
      "to": "0x3b1930860a0a109a3e66276332991081d9f3bc40",
      "contractAddress": null,
      "l1Fee": "0x12ca9d",
      "l1GasPrice": "0x87b7b",
      "l1GasUsed": "0x7dc"
    },
    {
      "status": "0x1",
      "cumulativeGasUsed": "0x505e6c",
      "logs": [
        {
          "address": "0x3b1930860a0a109a3e66276332991081d9f3bc40",
          "topics": [
            "0xddf252ad1be2c89b69c2b068fc378daa952ba7f163c4a11628f55a4df523b3ef",
            "0x0000000000000000000000000000000000000000000000000000000000000000",
            "0x0000000000000000000000008f088eca0009ad61fb94a6d7e9a5d7a087c08564",
            "0x00000000000000000000000000000000000000000000000000000000000f425e"
          ],
          "data": "0x",
          "blockHash": "0xb08c39541611e4320a93f0a87d8ff308f6b515417b292a7af0063ee220a5cb17",
          "blockNumber": "0x951cf0",
          "transactionHash": "0xf8b77a419cefc0eff8b2e438371a4d08f9096a232f7a2546ed1f927c6aab1830",
          "transactionIndex": "0x14",
          "logIndex": "0x1b",
          "removed": false
        }
      ],
      "logsBloom": "0x00000000000000000000000000000000000000000000000000000000000000000000000000900000000001000000000000000000000000000000000000000200000000000000000000000008000080000000000000000000000000000000000080000000020000000000000000000800000000000000000000000010000000000000000000000000000000000000000000000000000000000000000000000000000000000040000000000000000000000000000000000000000000400000000000000002000000000000000000000000000000000000000000000000000030000000000000000000000000000000000000000000000000000000000000000000",
      "type": "0x2",
      "transactionHash": "0xf8b77a419cefc0eff8b2e438371a4d08f9096a232f7a2546ed1f927c6aab1830",
      "transactionIndex": "0x14",
      "blockHash": "0xb08c39541611e4320a93f0a87d8ff308f6b515417b292a7af0063ee220a5cb17",
      "blockNumber": "0x951cf0",
      "gasUsed": "0x1a3d3",
      "effectiveGasPrice": "0x1879d",
      "from": "0x8f088eca0009ad61fb94a6d7e9a5d7a087c08564",
      "to": "0x3b1930860a0a109a3e66276332991081d9f3bc40",
      "contractAddress": null,
      "l1Fee": "0x12adec",
      "l1GasPrice": "0x87b7b",
      "l1GasUsed": "0x7d0"
    },
    {
      "status": "0x1",
      "cumulativeGasUsed": "0x52023f",
      "logs": [
        {
          "address": "0x3b1930860a0a109a3e66276332991081d9f3bc40",
          "topics": [
            "0xddf252ad1be2c89b69c2b068fc378daa952ba7f163c4a11628f55a4df523b3ef",
            "0x0000000000000000000000000000000000000000000000000000000000000000",
            "0x0000000000000000000000008f088eca0009ad61fb94a6d7e9a5d7a087c08564",
            "0x00000000000000000000000000000000000000000000000000000000000f425f"
          ],
          "data": "0x",
          "blockHash": "0xb08c39541611e4320a93f0a87d8ff308f6b515417b292a7af0063ee220a5cb17",
          "blockNumber": "0x951cf0",
          "transactionHash": "0xa3d459c277f70cbf0312bbeb18e0d4879c72fc9d1e3c1ca73e15305a7dee6f13",
          "transactionIndex": "0x15",
          "logIndex": "0x1c",
          "removed": false
        }
      ],
      "logsBloom": "0x00000000000000000000000000000000000000000000000000000000000000000000000000100800000001000000000000000000000000000000000000000200000000000000000000000008000080000000000000000000000000000000000080000000020000000000000000000800000000000000000000000010000000000000000000000000000000000000000000000000000100000000000000000000000000000000000000000000000000000000000000000000000000400000000000000102000000000000000000000000000000000000000000000000000020000000000000000000000000000000000000000000000000000000000000000000",
      "type": "0x2",
      "transactionHash": "0xa3d459c277f70cbf0312bbeb18e0d4879c72fc9d1e3c1ca73e15305a7dee6f13",
      "transactionIndex": "0x15",
      "blockHash": "0xb08c39541611e4320a93f0a87d8ff308f6b515417b292a7af0063ee220a5cb17",
      "blockNumber": "0x951cf0",
      "gasUsed": "0x1a3d3",
      "effectiveGasPrice": "0x1879d",
      "from": "0x8f088eca0009ad61fb94a6d7e9a5d7a087c08564",
      "to": "0x3b1930860a0a109a3e66276332991081d9f3bc40",
      "contractAddress": null,
      "l1Fee": "0x12ca9d",
      "l1GasPrice": "0x87b7b",
      "l1GasUsed": "0x7dc"
    },
    {
      "status": "0x1",
      "cumulativeGasUsed": "0x53a612",
      "logs": [
        {
          "address": "0x3b1930860a0a109a3e66276332991081d9f3bc40",
          "topics": [
            "0xddf252ad1be2c89b69c2b068fc378daa952ba7f163c4a11628f55a4df523b3ef",
            "0x0000000000000000000000000000000000000000000000000000000000000000",
            "0x0000000000000000000000008f088eca0009ad61fb94a6d7e9a5d7a087c08564",
            "0x00000000000000000000000000000000000000000000000000000000000f4260"
          ],
          "data": "0x",
          "blockHash": "0xb08c39541611e4320a93f0a87d8ff308f6b515417b292a7af0063ee220a5cb17",
          "blockNumber": "0x951cf0",
          "transactionHash": "0x098cce630f3e885b59cadc927aeb39bf98c8eecab023f0dd5d9696d05fade2f9",
          "transactionIndex": "0x16",
          "logIndex": "0x1d",
          "removed": false
        }
      ],
      "logsBloom": "0x00000000000000000000000000000000000000000000000000000000000000000000000000100000000001000000000000000000000000000000000000000200000000000000000000000008000080000000000000000000000000000000010080000000020000000000080000000800000000000000000000000010000000000000000000000000000000000000000000000000000000000080000000000000000000000000000000000000000000000000000000000000000000400000000000000002000000000000000000000000000000000000000000000000000020000000000000000000000000000000000000000000000000000000000000000000",
      "type": "0x2",
      "transactionHash": "0x098cce630f3e885b59cadc927aeb39bf98c8eecab023f0dd5d9696d05fade2f9",
      "transactionIndex": "0x16",
      "blockHash": "0xb08c39541611e4320a93f0a87d8ff308f6b515417b292a7af0063ee220a5cb17",
      "blockNumber": "0x951cf0",
      "gasUsed": "0x1a3d3",
      "effectiveGasPrice": "0x1879d",
      "from": "0x8f088eca0009ad61fb94a6d7e9a5d7a087c08564",
      "to": "0x3b1930860a0a109a3e66276332991081d9f3bc40",
      "contractAddress": null,
      "l1Fee": "0x12ca9d",
      "l1GasPrice": "0x87b7b",
      "l1GasUsed": "0x7dc"
    },
    {
      "status": "0x1",
      "cumulativeGasUsed": "0x5549e5",
      "logs": [
        {
          "address": "0x3b1930860a0a109a3e66276332991081d9f3bc40",
          "topics": [
            "0xddf252ad1be2c89b69c2b068fc378daa952ba7f163c4a11628f55a4df523b3ef",
            "0x0000000000000000000000000000000000000000000000000000000000000000",
            "0x0000000000000000000000008f088eca0009ad61fb94a6d7e9a5d7a087c08564",
            "0x00000000000000000000000000000000000000000000000000000000000f4261"
          ],
          "data": "0x",
          "blockHash": "0xb08c39541611e4320a93f0a87d8ff308f6b515417b292a7af0063ee220a5cb17",
          "blockNumber": "0x951cf0",
          "transactionHash": "0xf497624660e18a848e4eeaeb0ebf0dc556dc21630c80e06bcfe611890e249003",
          "transactionIndex": "0x17",
          "logIndex": "0x1e",
          "removed": false
        }
      ],
      "logsBloom": "0x00000000000000000000000040000000000000000000000000000000000000000000000000100000000001000000000000000000000000000000000000000200000000000000000000000008000080000000000000000000000000000000000080000000020000000000000000000800000000000000000000000010000000000000000000000000000200000000000000000000000000000000000000000000000000000000000000000000000000000000000000000000000000400000000000000002000000000000000000000000000000000000000000000000000020000000000000000000000000000000000000000000000000000000000100000000",
      "type": "0x2",
      "transactionHash": "0xf497624660e18a848e4eeaeb0ebf0dc556dc21630c80e06bcfe611890e249003",
      "transactionIndex": "0x17",
      "blockHash": "0xb08c39541611e4320a93f0a87d8ff308f6b515417b292a7af0063ee220a5cb17",
      "blockNumber": "0x951cf0",
      "gasUsed": "0x1a3d3",
      "effectiveGasPrice": "0x1879d",
      "from": "0x8f088eca0009ad61fb94a6d7e9a5d7a087c08564",
      "to": "0x3b1930860a0a109a3e66276332991081d9f3bc40",
      "contractAddress": null,
      "l1Fee": "0x12ca9d",
      "l1GasPrice": "0x87b7b",
      "l1GasUsed": "0x7dc"
    },
    {
      "status": "0x1",
      "cumulativeGasUsed": "0x56edb8",
      "logs": [
        {
          "address": "0x3b1930860a0a109a3e66276332991081d9f3bc40",
          "topics": [
            "0xddf252ad1be2c89b69c2b068fc378daa952ba7f163c4a11628f55a4df523b3ef",
            "0x0000000000000000000000000000000000000000000000000000000000000000",
            "0x0000000000000000000000008f088eca0009ad61fb94a6d7e9a5d7a087c08564",
            "0x00000000000000000000000000000000000000000000000000000000000f4262"
          ],
          "data": "0x",
          "blockHash": "0xb08c39541611e4320a93f0a87d8ff308f6b515417b292a7af0063ee220a5cb17",
          "blockNumber": "0x951cf0",
          "transactionHash": "0x68860070b160b6335f12d751f09e045aa2ee8d7c81000dfc628c1f106d0b9eb0",
          "transactionIndex": "0x18",
          "logIndex": "0x1f",
          "removed": false
        }
      ],
      "logsBloom": "0x00000000000000000000000000000000000000000000000000000000000000000000000000100000000001000040000000000000000000000000000000000200000000000000000000000008000080000000000000000001000000000000000080000000020000000000000000000800000000000000000000000010000000000000000000000000000000000000000000000000000000000000000000000000000000020000000000000000000000000000000000000000000000400000000000000002000000000000000000000000000000000000000000000000000020000000000000000000000000000000000000000000000000000000000000000000",
      "type": "0x2",
      "transactionHash": "0x68860070b160b6335f12d751f09e045aa2ee8d7c81000dfc628c1f106d0b9eb0",
      "transactionIndex": "0x18",
      "blockHash": "0xb08c39541611e4320a93f0a87d8ff308f6b515417b292a7af0063ee220a5cb17",
      "blockNumber": "0x951cf0",
      "gasUsed": "0x1a3d3",
      "effectiveGasPrice": "0x1879d",
      "from": "0x8f088eca0009ad61fb94a6d7e9a5d7a087c08564",
      "to": "0x3b1930860a0a109a3e66276332991081d9f3bc40",
      "contractAddress": null,
      "l1Fee": "0x12ca9d",
      "l1GasPrice": "0x87b7b",
      "l1GasUsed": "0x7dc"
    },
    {
      "status": "0x1",
      "cumulativeGasUsed": "0x58918b",
      "logs": [
        {
          "address": "0x3b1930860a0a109a3e66276332991081d9f3bc40",
          "topics": [
            "0xddf252ad1be2c89b69c2b068fc378daa952ba7f163c4a11628f55a4df523b3ef",
            "0x0000000000000000000000000000000000000000000000000000000000000000",
            "0x0000000000000000000000008f088eca0009ad61fb94a6d7e9a5d7a087c08564",
            "0x00000000000000000000000000000000000000000000000000000000000f4263"
          ],
          "data": "0x",
          "blockHash": "0xb08c39541611e4320a93f0a87d8ff308f6b515417b292a7af0063ee220a5cb17",
          "blockNumber": "0x951cf0",
          "transactionHash": "0x2dbbb00f7d69ed250df961df1e027e9606061bb1ee17383cbf856965a7dd41b0",
          "transactionIndex": "0x19",
          "logIndex": "0x20",
          "removed": false
        }
      ],
      "logsBloom": "0x00000000000000000000000000000000000000000000000000000000000000000000000000100000000001000000000000000000000000000000000000000200000000000000000000000008000080000000100000000000000000000000000080000000020000000000000000000800000000000000000000000010000000000000000000000000000000000000200000000000000000000000000000000000000000000000000000800000000000000000000000000000000000400000000000000002000000000000000000000000000000000000000000000000000020000000000000000000000000000000000000000000000000000000000000000000",
      "type": "0x2",
      "transactionHash": "0x2dbbb00f7d69ed250df961df1e027e9606061bb1ee17383cbf856965a7dd41b0",
      "transactionIndex": "0x19",
      "blockHash": "0xb08c39541611e4320a93f0a87d8ff308f6b515417b292a7af0063ee220a5cb17",
      "blockNumber": "0x951cf0",
      "gasUsed": "0x1a3d3",
      "effectiveGasPrice": "0x1879d",
      "from": "0x8f088eca0009ad61fb94a6d7e9a5d7a087c08564",
      "to": "0x3b1930860a0a109a3e66276332991081d9f3bc40",
      "contractAddress": null,
      "l1Fee": "0x12ca9d",
      "l1GasPrice": "0x87b7b",
      "l1GasUsed": "0x7dc"
    },
    {
      "status": "0x1",
      "cumulativeGasUsed": "0x5a355e",
      "logs": [
        {
          "address": "0x3b1930860a0a109a3e66276332991081d9f3bc40",
          "topics": [
            "0xddf252ad1be2c89b69c2b068fc378daa952ba7f163c4a11628f55a4df523b3ef",
            "0x0000000000000000000000000000000000000000000000000000000000000000",
            "0x0000000000000000000000008f088eca0009ad61fb94a6d7e9a5d7a087c08564",
            "0x00000000000000000000000000000000000000000000000000000000000f4264"
          ],
          "data": "0x",
          "blockHash": "0xb08c39541611e4320a93f0a87d8ff308f6b515417b292a7af0063ee220a5cb17",
          "blockNumber": "0x951cf0",
          "transactionHash": "0xb0a6188ff4887a39e1896225e51d152e5d0a9510b6571133bc70aa0d474f61d2",
          "transactionIndex": "0x1a",
          "logIndex": "0x21",
          "removed": false
        }
      ],
      "logsBloom": "0x00000004000000000000000000000000000000000000000000000000000000000000000000100000000001000000000000000000000000000000000000000200000000000000000000000008000080000000000000000000000000000000000080000000020000000000000000000800000000000000000000000010000000000000000000000000000000000000000000000000000000000000000000000000000000000000200000000000000010000000000000000000000000400000000000000002000000000000000000000000000000000000000000000000000020000000000000000000000000000000000000000000000000000000000000000000",
      "type": "0x2",
      "transactionHash": "0xb0a6188ff4887a39e1896225e51d152e5d0a9510b6571133bc70aa0d474f61d2",
      "transactionIndex": "0x1a",
      "blockHash": "0xb08c39541611e4320a93f0a87d8ff308f6b515417b292a7af0063ee220a5cb17",
      "blockNumber": "0x951cf0",
      "gasUsed": "0x1a3d3",
      "effectiveGasPrice": "0x1879d",
      "from": "0x8f088eca0009ad61fb94a6d7e9a5d7a087c08564",
      "to": "0x3b1930860a0a109a3e66276332991081d9f3bc40",
      "contractAddress": null,
      "l1Fee": "0x12ca9d",
      "l1GasPrice": "0x87b7b",
      "l1GasUsed": "0x7dc"
    },
    {
      "status": "0x1",
      "cumulativeGasUsed": "0x5bd931",
      "logs": [
        {
          "address": "0x3b1930860a0a109a3e66276332991081d9f3bc40",
          "topics": [
            "0xddf252ad1be2c89b69c2b068fc378daa952ba7f163c4a11628f55a4df523b3ef",
            "0x0000000000000000000000000000000000000000000000000000000000000000",
            "0x0000000000000000000000008f088eca0009ad61fb94a6d7e9a5d7a087c08564",
            "0x00000000000000000000000000000000000000000000000000000000000f4265"
          ],
          "data": "0x",
          "blockHash": "0xb08c39541611e4320a93f0a87d8ff308f6b515417b292a7af0063ee220a5cb17",
          "blockNumber": "0x951cf0",
          "transactionHash": "0x04ff7eef0bd2879437ef4255e5be03069ad5f454193f106aad5e43adc9555539",
          "transactionIndex": "0x1b",
          "logIndex": "0x22",
          "removed": false
        }
      ],
      "logsBloom": "0x00000000000000000000000000000000000000000000000000000000000000000000000000100000000001000000000000000000000000000000000000000200000000000000000000000008000080000000000000000000000000000000000080000200020000000000000000000800000000000000000000000010000000000000000000000000000000000000000000000000000000000000000000000000000000000000000000000000000000000008000000000000000000400000000000000002000000000000000000000000000000000000000000000000000020008000000000000000000000000000000000000000000000000000000000000000",
      "type": "0x2",
      "transactionHash": "0x04ff7eef0bd2879437ef4255e5be03069ad5f454193f106aad5e43adc9555539",
      "transactionIndex": "0x1b",
      "blockHash": "0xb08c39541611e4320a93f0a87d8ff308f6b515417b292a7af0063ee220a5cb17",
      "blockNumber": "0x951cf0",
      "gasUsed": "0x1a3d3",
      "effectiveGasPrice": "0x1879d",
      "from": "0x8f088eca0009ad61fb94a6d7e9a5d7a087c08564",
      "to": "0x3b1930860a0a109a3e66276332991081d9f3bc40",
      "contractAddress": null,
      "l1Fee": "0x12913b",
      "l1GasPrice": "0x87b7b",
      "l1GasUsed": "0x7c4"
    },
    {
      "status": "0x1",
      "cumulativeGasUsed": "0x5d7d04",
      "logs": [
        {
          "address": "0x3b1930860a0a109a3e66276332991081d9f3bc40",
          "topics": [
            "0xddf252ad1be2c89b69c2b068fc378daa952ba7f163c4a11628f55a4df523b3ef",
            "0x0000000000000000000000000000000000000000000000000000000000000000",
            "0x0000000000000000000000008f088eca0009ad61fb94a6d7e9a5d7a087c08564",
            "0x00000000000000000000000000000000000000000000000000000000000f4266"
          ],
          "data": "0x",
          "blockHash": "0xb08c39541611e4320a93f0a87d8ff308f6b515417b292a7af0063ee220a5cb17",
          "blockNumber": "0x951cf0",
          "transactionHash": "0x1a91b55a76522add17edcf758179f88b9127c163536d1aa644925ad8df80a918",
          "transactionIndex": "0x1c",
          "logIndex": "0x23",
          "removed": false
        }
      ],
      "logsBloom": "0x10000000000000000000000000000000000000000000000000000000000000000000000000100000000001000000000000000000000000000000000000000200000000000000000000000008000080000000000000000000000000000000000080000000020000000000000000000800010000000000000000000010000000000000000000000000000000000000000000000000000000000000000000000000000000000000000000000000000000000000000000000000000000400000000000000002000000000000000000000000000000000000000000000000000020000000000000000000000000000000400000000000000000000000000000000000",
      "type": "0x2",
      "transactionHash": "0x1a91b55a76522add17edcf758179f88b9127c163536d1aa644925ad8df80a918",
      "transactionIndex": "0x1c",
      "blockHash": "0xb08c39541611e4320a93f0a87d8ff308f6b515417b292a7af0063ee220a5cb17",
      "blockNumber": "0x951cf0",
      "gasUsed": "0x1a3d3",
      "effectiveGasPrice": "0x1879d",
      "from": "0x8f088eca0009ad61fb94a6d7e9a5d7a087c08564",
      "to": "0x3b1930860a0a109a3e66276332991081d9f3bc40",
      "contractAddress": null,
      "l1Fee": "0x12ca9d",
      "l1GasPrice": "0x87b7b",
      "l1GasUsed": "0x7dc"
    },
    {
      "status": "0x1",
      "cumulativeGasUsed": "0x5f20d7",
      "logs": [
        {
          "address": "0x3b1930860a0a109a3e66276332991081d9f3bc40",
          "topics": [
            "0xddf252ad1be2c89b69c2b068fc378daa952ba7f163c4a11628f55a4df523b3ef",
            "0x0000000000000000000000000000000000000000000000000000000000000000",
            "0x0000000000000000000000008f088eca0009ad61fb94a6d7e9a5d7a087c08564",
            "0x00000000000000000000000000000000000000000000000000000000000f4267"
          ],
          "data": "0x",
          "blockHash": "0xb08c39541611e4320a93f0a87d8ff308f6b515417b292a7af0063ee220a5cb17",
          "blockNumber": "0x951cf0",
          "transactionHash": "0x77785dd82f727c5272809ef69be44276fa0791b3ff4e063658e8b08a68db372d",
          "transactionIndex": "0x1d",
          "logIndex": "0x24",
          "removed": false
        }
      ],
      "logsBloom": "0x00000800000000000000000000000000000000000000000000000000000000000000000000100000000001000000000000000000000000000000000000000200400000000000000000000008000080000000000000000000000000000000000080000000020000000000000000000800000000000000000000000010000000000000000000000000000000000000000000000000000000000000000000000000000000000010000000000000000000000000000000000000000000400000000000000002000000000000000000000000000000000000000000000000000020000000000000000000000000000000000000000000000000000000000000000000",
      "type": "0x2",
      "transactionHash": "0x77785dd82f727c5272809ef69be44276fa0791b3ff4e063658e8b08a68db372d",
      "transactionIndex": "0x1d",
      "blockHash": "0xb08c39541611e4320a93f0a87d8ff308f6b515417b292a7af0063ee220a5cb17",
      "blockNumber": "0x951cf0",
      "gasUsed": "0x1a3d3",
      "effectiveGasPrice": "0x1879d",
      "from": "0x8f088eca0009ad61fb94a6d7e9a5d7a087c08564",
      "to": "0x3b1930860a0a109a3e66276332991081d9f3bc40",
      "contractAddress": null,
      "l1Fee": "0x12ca9d",
      "l1GasPrice": "0x87b7b",
      "l1GasUsed": "0x7dc"
    },
    {
      "status": "0x1",
      "cumulativeGasUsed": "0x60c4aa",
      "logs": [
        {
          "address": "0x3b1930860a0a109a3e66276332991081d9f3bc40",
          "topics": [
            "0xddf252ad1be2c89b69c2b068fc378daa952ba7f163c4a11628f55a4df523b3ef",
            "0x0000000000000000000000000000000000000000000000000000000000000000",
            "0x0000000000000000000000008f088eca0009ad61fb94a6d7e9a5d7a087c08564",
            "0x00000000000000000000000000000000000000000000000000000000000f4268"
          ],
          "data": "0x",
          "blockHash": "0xb08c39541611e4320a93f0a87d8ff308f6b515417b292a7af0063ee220a5cb17",
          "blockNumber": "0x951cf0",
          "transactionHash": "0x9373c6ba4a99d4aabea989697208f77e87c5566a508b85ea663070fefbda3bb0",
          "transactionIndex": "0x1e",
          "logIndex": "0x25",
          "removed": false
        }
      ],
      "logsBloom": "0x00000000000000000000000000000000000000000000000000000000000000000000000040100000000001000000000000000000000000000000000000000200000000000000000000000008000080000000000000000000000000000000000080000000020000000000000000000800000000000000000000000010000000000000000000000000000000000000000000000000000000000000000000040000000000000000000000000000000000000000000000000000000000400000000000000002000000000000000000000000000000000000000000000000000020000000000000000000000000000000000000000000000000080000000000000000",
      "type": "0x2",
      "transactionHash": "0x9373c6ba4a99d4aabea989697208f77e87c5566a508b85ea663070fefbda3bb0",
      "transactionIndex": "0x1e",
      "blockHash": "0xb08c39541611e4320a93f0a87d8ff308f6b515417b292a7af0063ee220a5cb17",
      "blockNumber": "0x951cf0",
      "gasUsed": "0x1a3d3",
      "effectiveGasPrice": "0x1879d",
      "from": "0x8f088eca0009ad61fb94a6d7e9a5d7a087c08564",
      "to": "0x3b1930860a0a109a3e66276332991081d9f3bc40",
      "contractAddress": null,
      "l1Fee": "0x12ca9d",
      "l1GasPrice": "0x87b7b",
      "l1GasUsed": "0x7dc"
    },
    {
      "status": "0x1",
      "cumulativeGasUsed": "0x62687d",
      "logs": [
        {
          "address": "0x3b1930860a0a109a3e66276332991081d9f3bc40",
          "topics": [
            "0xddf252ad1be2c89b69c2b068fc378daa952ba7f163c4a11628f55a4df523b3ef",
            "0x0000000000000000000000000000000000000000000000000000000000000000",
            "0x0000000000000000000000008f088eca0009ad61fb94a6d7e9a5d7a087c08564",
            "0x00000000000000000000000000000000000000000000000000000000000f4269"
          ],
          "data": "0x",
          "blockHash": "0xb08c39541611e4320a93f0a87d8ff308f6b515417b292a7af0063ee220a5cb17",
          "blockNumber": "0x951cf0",
          "transactionHash": "0xbfeedec44ef6a9cd3d71053cad47fe44492913b21e4187f2f541f4aee44eec3a",
          "transactionIndex": "0x1f",
          "logIndex": "0x26",
          "removed": false
        }
      ],
      "logsBloom": "0x00000000000000000000000000000000000000000000000000000000000000000000000000100000000001000000000000000000000000000000000000000200000000000000000000000008000080000000000000000000000000000000000080000000020000000000000000000800008000000000000000000010000000000000000000000000000000000000000000000000000000000000000000000000000000000000000000000002000000000000000000000000000000400000000000000002000000000000000000000000000000000000000000400000000020000000000000000000000000000000000000000000000000000000000000000000",
      "type": "0x2",
      "transactionHash": "0xbfeedec44ef6a9cd3d71053cad47fe44492913b21e4187f2f541f4aee44eec3a",
      "transactionIndex": "0x1f",
      "blockHash": "0xb08c39541611e4320a93f0a87d8ff308f6b515417b292a7af0063ee220a5cb17",
      "blockNumber": "0x951cf0",
      "gasUsed": "0x1a3d3",
      "effectiveGasPrice": "0x1879d",
      "from": "0x8f088eca0009ad61fb94a6d7e9a5d7a087c08564",
      "to": "0x3b1930860a0a109a3e66276332991081d9f3bc40",
      "contractAddress": null,
      "l1Fee": "0x12ca9d",
      "l1GasPrice": "0x87b7b",
      "l1GasUsed": "0x7dc"
    },
    {
      "status": "0x1",
      "cumulativeGasUsed": "0x640c50",
      "logs": [
        {
          "address": "0x3b1930860a0a109a3e66276332991081d9f3bc40",
          "topics": [
            "0xddf252ad1be2c89b69c2b068fc378daa952ba7f163c4a11628f55a4df523b3ef",
            "0x0000000000000000000000000000000000000000000000000000000000000000",
            "0x0000000000000000000000008f088eca0009ad61fb94a6d7e9a5d7a087c08564",
            "0x00000000000000000000000000000000000000000000000000000000000f426a"
          ],
          "data": "0x",
          "blockHash": "0xb08c39541611e4320a93f0a87d8ff308f6b515417b292a7af0063ee220a5cb17",
          "blockNumber": "0x951cf0",
          "transactionHash": "0x49e498d9c6ef08ee09d85dd72095b5c8344b3dcc753243d8f7a7f41d0e7ec783",
          "transactionIndex": "0x20",
          "logIndex": "0x27",
          "removed": false
        }
      ],
      "logsBloom": "0x00000000000000001000000000000000000000000000000000000000000000000000000000100000000001000000000000000000000000000000000000000200000000000000000000000008000080000000000000000000000000000000000080000000020000000000000000000800000000000000000000000010000000000000000000000000000000000000000000000000000000000000000000000000000000000000000000000000000000000000000000000000000000400000000000000002000000000000000000000000000000000000000000000000000020000000000000000000004000000000000000000000001000000000000000000000",
      "type": "0x2",
      "transactionHash": "0x49e498d9c6ef08ee09d85dd72095b5c8344b3dcc753243d8f7a7f41d0e7ec783",
      "transactionIndex": "0x20",
      "blockHash": "0xb08c39541611e4320a93f0a87d8ff308f6b515417b292a7af0063ee220a5cb17",
      "blockNumber": "0x951cf0",
      "gasUsed": "0x1a3d3",
      "effectiveGasPrice": "0x1879d",
      "from": "0x8f088eca0009ad61fb94a6d7e9a5d7a087c08564",
      "to": "0x3b1930860a0a109a3e66276332991081d9f3bc40",
      "contractAddress": null,
      "l1Fee": "0x12ca9d",
      "l1GasPrice": "0x87b7b",
      "l1GasUsed": "0x7dc"
    },
    {
      "status": "0x1",
      "cumulativeGasUsed": "0x65b023",
      "logs": [
        {
          "address": "0x3b1930860a0a109a3e66276332991081d9f3bc40",
          "topics": [
            "0xddf252ad1be2c89b69c2b068fc378daa952ba7f163c4a11628f55a4df523b3ef",
            "0x0000000000000000000000000000000000000000000000000000000000000000",
            "0x0000000000000000000000008f088eca0009ad61fb94a6d7e9a5d7a087c08564",
            "0x00000000000000000000000000000000000000000000000000000000000f426b"
          ],
          "data": "0x",
          "blockHash": "0xb08c39541611e4320a93f0a87d8ff308f6b515417b292a7af0063ee220a5cb17",
          "blockNumber": "0x951cf0",
          "transactionHash": "0x05025281299fada07ba1ca918e3dd14f957794813930e3a2db093f806b48ef51",
          "transactionIndex": "0x21",
          "logIndex": "0x28",
          "removed": false
        }
      ],
      "logsBloom": "0x00000000000000000000000000000000000000000000000010000000000000000000000000100000000001000000000000000000000000000000000000000200000000000000000000000008000080000000000000000000000000000000800080040000020000000000000000000800000000000000000000000010000000000000000000000000000000000000000000000000000000000000000000000000000000000000000000000000000000000000000000000000000000400000000000000002000000000000000000000000000000000000000000000000000020000000000000000000000000000000000000000000000000000000000000000000",
      "type": "0x2",
      "transactionHash": "0x05025281299fada07ba1ca918e3dd14f957794813930e3a2db093f806b48ef51",
      "transactionIndex": "0x21",
      "blockHash": "0xb08c39541611e4320a93f0a87d8ff308f6b515417b292a7af0063ee220a5cb17",
      "blockNumber": "0x951cf0",
      "gasUsed": "0x1a3d3",
      "effectiveGasPrice": "0x1879d",
      "from": "0x8f088eca0009ad61fb94a6d7e9a5d7a087c08564",
      "to": "0x3b1930860a0a109a3e66276332991081d9f3bc40",
      "contractAddress": null,
      "l1Fee": "0x12ca9d",
      "l1GasPrice": "0x87b7b",
      "l1GasUsed": "0x7dc"
    },
    {
      "status": "0x1",
      "cumulativeGasUsed": "0x6753f6",
      "logs": [
        {
          "address": "0x3b1930860a0a109a3e66276332991081d9f3bc40",
          "topics": [
            "0xddf252ad1be2c89b69c2b068fc378daa952ba7f163c4a11628f55a4df523b3ef",
            "0x0000000000000000000000000000000000000000000000000000000000000000",
            "0x0000000000000000000000008f088eca0009ad61fb94a6d7e9a5d7a087c08564",
            "0x00000000000000000000000000000000000000000000000000000000000f426c"
          ],
          "data": "0x",
          "blockHash": "0xb08c39541611e4320a93f0a87d8ff308f6b515417b292a7af0063ee220a5cb17",
          "blockNumber": "0x951cf0",
          "transactionHash": "0x6310d028c35a2ff909db4863f490557139eacb357295a826575be26c8def918e",
          "transactionIndex": "0x22",
          "logIndex": "0x29",
          "removed": false
        }
      ],
      "logsBloom": "0x00000000000000000000000000000000000000000000000000000000000000000000000000100000000001000000000000000010000000000000000000000200000000000000000000000008000080000000000000000000000000000000000080000000020000000000000000000800000000000000000000000010000000000040000000000000000000000000000000000000000000000000000000000000000000000000000000000000000000000000000000000000000000400000000000000002000000000000000000000000008000000000000000000000000020000000000000000000000000000000000000000000000000000000000000000000",
      "type": "0x2",
      "transactionHash": "0x6310d028c35a2ff909db4863f490557139eacb357295a826575be26c8def918e",
      "transactionIndex": "0x22",
      "blockHash": "0xb08c39541611e4320a93f0a87d8ff308f6b515417b292a7af0063ee220a5cb17",
      "blockNumber": "0x951cf0",
      "gasUsed": "0x1a3d3",
      "effectiveGasPrice": "0x1879d",
      "from": "0x8f088eca0009ad61fb94a6d7e9a5d7a087c08564",
      "to": "0x3b1930860a0a109a3e66276332991081d9f3bc40",
      "contractAddress": null,
      "l1Fee": "0x12ca9d",
      "l1GasPrice": "0x87b7b",
      "l1GasUsed": "0x7dc"
    },
    {
      "status": "0x1",
      "cumulativeGasUsed": "0x68f7c9",
      "logs": [
        {
          "address": "0x3b1930860a0a109a3e66276332991081d9f3bc40",
          "topics": [
            "0xddf252ad1be2c89b69c2b068fc378daa952ba7f163c4a11628f55a4df523b3ef",
            "0x0000000000000000000000000000000000000000000000000000000000000000",
            "0x0000000000000000000000008f088eca0009ad61fb94a6d7e9a5d7a087c08564",
            "0x00000000000000000000000000000000000000000000000000000000000f426d"
          ],
          "data": "0x",
          "blockHash": "0xb08c39541611e4320a93f0a87d8ff308f6b515417b292a7af0063ee220a5cb17",
          "blockNumber": "0x951cf0",
          "transactionHash": "0x3d189d47ef494767a2c15eb3f1384f0cef74dd97682d557d5a3d8634f614041c",
          "transactionIndex": "0x23",
          "logIndex": "0x2a",
          "removed": false
        }
      ],
      "logsBloom": "0x00000000000000000000000000000000000000000000000000000000000000000000000000100000000001000000000000000000000000000000020000000240000000000000000000000008000080000000000000000000000000000000000080000000020000000000000000000800000000000000000000000010000000000000000000000000000000000000000000000000000000000000000000000000000000000000000000000000000000000000000000000000000000400000000000000002000000000000000000000000000000000000000002000000000020000000000000000000000000000000000000000000000000000000000000000000",
      "type": "0x2",
      "transactionHash": "0x3d189d47ef494767a2c15eb3f1384f0cef74dd97682d557d5a3d8634f614041c",
      "transactionIndex": "0x23",
      "blockHash": "0xb08c39541611e4320a93f0a87d8ff308f6b515417b292a7af0063ee220a5cb17",
      "blockNumber": "0x951cf0",
      "gasUsed": "0x1a3d3",
      "effectiveGasPrice": "0x1879d",
      "from": "0x8f088eca0009ad61fb94a6d7e9a5d7a087c08564",
      "to": "0x3b1930860a0a109a3e66276332991081d9f3bc40",
      "contractAddress": null,
      "l1Fee": "0x12ca9d",
      "l1GasPrice": "0x87b7b",
      "l1GasUsed": "0x7dc"
    },
    {
      "status": "0x1",
      "cumulativeGasUsed": "0x6a9b9c",
      "logs": [
        {
          "address": "0x3b1930860a0a109a3e66276332991081d9f3bc40",
          "topics": [
            "0xddf252ad1be2c89b69c2b068fc378daa952ba7f163c4a11628f55a4df523b3ef",
            "0x0000000000000000000000000000000000000000000000000000000000000000",
            "0x0000000000000000000000008f088eca0009ad61fb94a6d7e9a5d7a087c08564",
            "0x00000000000000000000000000000000000000000000000000000000000f426e"
          ],
          "data": "0x",
          "blockHash": "0xb08c39541611e4320a93f0a87d8ff308f6b515417b292a7af0063ee220a5cb17",
          "blockNumber": "0x951cf0",
          "transactionHash": "0xce2b72375eb6b401c3799a1c1459798ca500da41cf0ded99da6ea32a7b22ecd7",
          "transactionIndex": "0x24",
          "logIndex": "0x2b",
          "removed": false
        }
      ],
      "logsBloom": "0x00000000000000000000000000000000000000000000000000000000000000000000000000100000000001000000000000000000000000000000000000000200000000010000000000000008000080000000000000000000000000000000000080000000020000000080000000000800000000000000000000000010000000000000000000000000000000000000000000000000000000000000000000000000000000000000000000000000000000000000000000000000000000400000000000000002000000000000000000000000000000000000000000000000000020000000000000000000000000000000000000000000000000000000001000000000",
      "type": "0x2",
      "transactionHash": "0xce2b72375eb6b401c3799a1c1459798ca500da41cf0ded99da6ea32a7b22ecd7",
      "transactionIndex": "0x24",
      "blockHash": "0xb08c39541611e4320a93f0a87d8ff308f6b515417b292a7af0063ee220a5cb17",
      "blockNumber": "0x951cf0",
      "gasUsed": "0x1a3d3",
      "effectiveGasPrice": "0x1879d",
      "from": "0x8f088eca0009ad61fb94a6d7e9a5d7a087c08564",
      "to": "0x3b1930860a0a109a3e66276332991081d9f3bc40",
      "contractAddress": null,
      "l1Fee": "0x12ca9d",
      "l1GasPrice": "0x87b7b",
      "l1GasUsed": "0x7dc"
    },
    {
      "status": "0x1",
      "cumulativeGasUsed": "0x6c3f6f",
      "logs": [
        {
          "address": "0x3b1930860a0a109a3e66276332991081d9f3bc40",
          "topics": [
            "0xddf252ad1be2c89b69c2b068fc378daa952ba7f163c4a11628f55a4df523b3ef",
            "0x0000000000000000000000000000000000000000000000000000000000000000",
            "0x0000000000000000000000008f088eca0009ad61fb94a6d7e9a5d7a087c08564",
            "0x00000000000000000000000000000000000000000000000000000000000f426f"
          ],
          "data": "0x",
          "blockHash": "0xb08c39541611e4320a93f0a87d8ff308f6b515417b292a7af0063ee220a5cb17",
          "blockNumber": "0x951cf0",
          "transactionHash": "0xe5ffb25ac77dc3001f7ca956dac77dccdef2a871ad080af528a6487da3234f30",
          "transactionIndex": "0x25",
          "logIndex": "0x2c",
          "removed": false
        }
      ],
      "logsBloom": "0x00000000000000000000000000000000000000000000000000000000000000000000000000100000000001000000000000000000000000000000000000000200000000000000000000000008000080000000000000000000000000000000000080000000020000000000000000000800000000000000000000000010000000000000000000000000000000000000000000000000000000000000000000000000001000000000000000800000000000000000000000000000000000400000000000000002000000000000000000000000000000000000000000000000000020000000000000000000000000000000000000001000000000000000000000000000",
      "type": "0x2",
      "transactionHash": "0xe5ffb25ac77dc3001f7ca956dac77dccdef2a871ad080af528a6487da3234f30",
      "transactionIndex": "0x25",
      "blockHash": "0xb08c39541611e4320a93f0a87d8ff308f6b515417b292a7af0063ee220a5cb17",
      "blockNumber": "0x951cf0",
      "gasUsed": "0x1a3d3",
      "effectiveGasPrice": "0x1879d",
      "from": "0x8f088eca0009ad61fb94a6d7e9a5d7a087c08564",
      "to": "0x3b1930860a0a109a3e66276332991081d9f3bc40",
      "contractAddress": null,
      "l1Fee": "0x12adec",
      "l1GasPrice": "0x87b7b",
      "l1GasUsed": "0x7d0"
    },
    {
      "status": "0x1",
      "cumulativeGasUsed": "0x6de342",
      "logs": [
        {
          "address": "0x3b1930860a0a109a3e66276332991081d9f3bc40",
          "topics": [
            "0xddf252ad1be2c89b69c2b068fc378daa952ba7f163c4a11628f55a4df523b3ef",
            "0x0000000000000000000000000000000000000000000000000000000000000000",
            "0x0000000000000000000000008f088eca0009ad61fb94a6d7e9a5d7a087c08564",
            "0x00000000000000000000000000000000000000000000000000000000000f4270"
          ],
          "data": "0x",
          "blockHash": "0xb08c39541611e4320a93f0a87d8ff308f6b515417b292a7af0063ee220a5cb17",
          "blockNumber": "0x951cf0",
          "transactionHash": "0x20acad51493b74a738cc10246c8a31e15bb3b7e1bc72f4e871487ac671942d15",
          "transactionIndex": "0x26",
          "logIndex": "0x2d",
          "removed": false
        }
      ],
      "logsBloom": "0x00002000000000000000000000000000000000000000000000000000000000000000000000100000000001000000000000000000000000000000000000000200000000000000000000000008000080000000000000000000080000000000000080000000020000000000000000000800000000000000000000000010000000000000000000000000000000200000000000000000000000000000000000000000000000000000000000000000000000000000000000000000000000400000000000000002000000000000000000000000000000000000000000000000000020000000000000000000000000000000000000000000000000000000000000000000",
      "type": "0x2",
      "transactionHash": "0x20acad51493b74a738cc10246c8a31e15bb3b7e1bc72f4e871487ac671942d15",
      "transactionIndex": "0x26",
      "blockHash": "0xb08c39541611e4320a93f0a87d8ff308f6b515417b292a7af0063ee220a5cb17",
      "blockNumber": "0x951cf0",
      "gasUsed": "0x1a3d3",
      "effectiveGasPrice": "0x1879d",
      "from": "0x8f088eca0009ad61fb94a6d7e9a5d7a087c08564",
      "to": "0x3b1930860a0a109a3e66276332991081d9f3bc40",
      "contractAddress": null,
      "l1Fee": "0x12adec",
      "l1GasPrice": "0x87b7b",
      "l1GasUsed": "0x7d0"
    },
    {
      "status": "0x1",
      "cumulativeGasUsed": "0x6f8715",
      "logs": [
        {
          "address": "0x3b1930860a0a109a3e66276332991081d9f3bc40",
          "topics": [
            "0xddf252ad1be2c89b69c2b068fc378daa952ba7f163c4a11628f55a4df523b3ef",
            "0x0000000000000000000000000000000000000000000000000000000000000000",
            "0x0000000000000000000000008f088eca0009ad61fb94a6d7e9a5d7a087c08564",
            "0x00000000000000000000000000000000000000000000000000000000000f4271"
          ],
          "data": "0x",
          "blockHash": "0xb08c39541611e4320a93f0a87d8ff308f6b515417b292a7af0063ee220a5cb17",
          "blockNumber": "0x951cf0",
          "transactionHash": "0x923aa60feee61213746788a11742eb224b5940c75e44699405b605e274deffc4",
          "transactionIndex": "0x27",
          "logIndex": "0x2e",
          "removed": false
        }
      ],
      "logsBloom": "0x00000000000000000000000000000000000020000000000000000000000000000000000000100000000001000000000000000000000000000000000000000200000000000000000000000008000080000000000000000000000000000000000080000000020000000000000000000800010000000000000000000010000000000000000000000000000000000000000000000000000000000000000000000000000000000000000000000000000000000000000000000000000000400000000000000002000000000000000000000000000000000000000000000000000020000000000000000000000000000000000000000000000001000000000000000000",
      "type": "0x2",
      "transactionHash": "0x923aa60feee61213746788a11742eb224b5940c75e44699405b605e274deffc4",
      "transactionIndex": "0x27",
      "blockHash": "0xb08c39541611e4320a93f0a87d8ff308f6b515417b292a7af0063ee220a5cb17",
      "blockNumber": "0x951cf0",
      "gasUsed": "0x1a3d3",
      "effectiveGasPrice": "0x1879d",
      "from": "0x8f088eca0009ad61fb94a6d7e9a5d7a087c08564",
      "to": "0x3b1930860a0a109a3e66276332991081d9f3bc40",
      "contractAddress": null,
      "l1Fee": "0x12ca9d",
      "l1GasPrice": "0x87b7b",
      "l1GasUsed": "0x7dc"
    },
    {
      "status": "0x1",
      "cumulativeGasUsed": "0x712ae8",
      "logs": [
        {
          "address": "0x3b1930860a0a109a3e66276332991081d9f3bc40",
          "topics": [
            "0xddf252ad1be2c89b69c2b068fc378daa952ba7f163c4a11628f55a4df523b3ef",
            "0x0000000000000000000000000000000000000000000000000000000000000000",
            "0x0000000000000000000000008f088eca0009ad61fb94a6d7e9a5d7a087c08564",
            "0x00000000000000000000000000000000000000000000000000000000000f4272"
          ],
          "data": "0x",
          "blockHash": "0xb08c39541611e4320a93f0a87d8ff308f6b515417b292a7af0063ee220a5cb17",
          "blockNumber": "0x951cf0",
          "transactionHash": "0xccf32153ffb0ab95dbb1a48210c77b234cf7e24332e1cb41e2f25c444292c3fe",
          "transactionIndex": "0x28",
          "logIndex": "0x2f",
          "removed": false
        }
      ],
      "logsBloom": "0x00000000000000000000000000000000000000000000000000000000000000000000000000100000000001000000000000000000000000000000000000000200000000000000000000000008000080010000000000000010000000000000000080000000020000000000000000000800000000000000000000000010000000000000000000000000000000000000000000000000000000000000000000000000000000000000000000000000000000000000000000000000000000400000000000000002000000000000000000000000000000000000000000000000000020000000000000000002000000000000000000000000000000000000000000000000",
      "type": "0x2",
      "transactionHash": "0xccf32153ffb0ab95dbb1a48210c77b234cf7e24332e1cb41e2f25c444292c3fe",
      "transactionIndex": "0x28",
      "blockHash": "0xb08c39541611e4320a93f0a87d8ff308f6b515417b292a7af0063ee220a5cb17",
      "blockNumber": "0x951cf0",
      "gasUsed": "0x1a3d3",
      "effectiveGasPrice": "0x1879d",
      "from": "0x8f088eca0009ad61fb94a6d7e9a5d7a087c08564",
      "to": "0x3b1930860a0a109a3e66276332991081d9f3bc40",
      "contractAddress": null,
      "l1Fee": "0x12ca9d",
      "l1GasPrice": "0x87b7b",
      "l1GasUsed": "0x7dc"
    }
  ],
  "libraries": [],
  "pending": [],
  "returns": {},
  "timestamp": 1715312661,
  "chain": 84532,
  "commit": "3e641a5"
}