{
  "transactions": [
    {
      "hash": "0xcf5a04733dcd88c6c27936cd2cc5415850ba66a924d0921a94a95c807d6ac885",
      "transactionType": "CALL",
      "contractName": null,
      "contractAddress": "0xe2b6353511c5374b77aa67a1b1a9f2ede7dc1ea7",
      "function": "mint(uint256)",
      "arguments": [
        "2"
      ],
      "transaction": {
        "from": "0x8f088eca0009ad61fb94a6d7e9a5d7a087c08564",
        "to": "0xe2b6353511c5374b77aa67a1b1a9f2ede7dc1ea7",
        "gas": "0x25a03",
        "value": "0x0",
        "input": "0xa0712d680000000000000000000000000000000000000000000000000000000000000002",
        "nonce": "0xcc1",
        "chainId": "0x14a34"
      },
      "additionalContracts": [],
      "isFixedGasLimit": false
    },
    {
      "hash": "0xa0c8843b160631c6c676e319b11d74b068d6f030557d5b0e21833338efbd71a2",
      "transactionType": "CALL",
      "contractName": null,
      "contractAddress": "0xe2b6353511c5374b77aa67a1b1a9f2ede7dc1ea7",
      "function": "mint(uint256)",
      "arguments": [
        "2"
      ],
      "transaction": {
        "from": "0x8f088eca0009ad61fb94a6d7e9a5d7a087c08564",
        "to": "0xe2b6353511c5374b77aa67a1b1a9f2ede7dc1ea7",
        "gas": "0x25a03",
        "value": "0x0",
        "input": "0xa0712d680000000000000000000000000000000000000000000000000000000000000002",
        "nonce": "0xcc2",
        "chainId": "0x14a34"
      },
      "additionalContracts": [],
      "isFixedGasLimit": false
    },
    {
      "hash": "0x054b4030402707402fff34e192a02db856a69f3497058a5c572ab484a7bd5466",
      "transactionType": "CALL",
      "contractName": null,
      "contractAddress": "0xe2b6353511c5374b77aa67a1b1a9f2ede7dc1ea7",
      "function": "mint(uint256)",
      "arguments": [
        "2"
      ],
      "transaction": {
        "from": "0x8f088eca0009ad61fb94a6d7e9a5d7a087c08564",
        "to": "0xe2b6353511c5374b77aa67a1b1a9f2ede7dc1ea7",
        "gas": "0x25a03",
        "value": "0x0",
        "input": "0xa0712d680000000000000000000000000000000000000000000000000000000000000002",
        "nonce": "0xcc3",
        "chainId": "0x14a34"
      },
      "additionalContracts": [],
      "isFixedGasLimit": false
    },
    {
      "hash": "0xd102fddd8ca8b095970cf420b1b551c52b8d1846aba434981d615f8e6c0cee94",
      "transactionType": "CALL",
      "contractName": null,
      "contractAddress": "0xe2b6353511c5374b77aa67a1b1a9f2ede7dc1ea7",
      "function": "mint(uint256)",
      "arguments": [
        "2"
      ],
      "transaction": {
        "from": "0x8f088eca0009ad61fb94a6d7e9a5d7a087c08564",
        "to": "0xe2b6353511c5374b77aa67a1b1a9f2ede7dc1ea7",
        "gas": "0x25a03",
        "value": "0x0",
        "input": "0xa0712d680000000000000000000000000000000000000000000000000000000000000002",
        "nonce": "0xcc4",
        "chainId": "0x14a34"
      },
      "additionalContracts": [],
      "isFixedGasLimit": false
    },
    {
      "hash": "0xc70212e2fcc48c44cba18b4ce2f159a2152df55844d5860bc18b23f54916f780",
      "transactionType": "CALL",
      "contractName": null,
      "contractAddress": "0xe2b6353511c5374b77aa67a1b1a9f2ede7dc1ea7",
      "function": "mint(uint256)",
      "arguments": [
        "2"
      ],
      "transaction": {
        "from": "0x8f088eca0009ad61fb94a6d7e9a5d7a087c08564",
        "to": "0xe2b6353511c5374b77aa67a1b1a9f2ede7dc1ea7",
        "gas": "0x25a03",
        "value": "0x0",
        "input": "0xa0712d680000000000000000000000000000000000000000000000000000000000000002",
        "nonce": "0xcc5",
        "chainId": "0x14a34"
      },
      "additionalContracts": [],
      "isFixedGasLimit": false
    },
    {
      "hash": "0x0f3077e42c587166e7771e88f97356f1ba9c06d096306d15ae5617862b4614c3",
      "transactionType": "CALL",
      "contractName": null,
      "contractAddress": "0xe2b6353511c5374b77aa67a1b1a9f2ede7dc1ea7",
      "function": "mint(uint256)",
      "arguments": [
        "2"
      ],
      "transaction": {
        "from": "0x8f088eca0009ad61fb94a6d7e9a5d7a087c08564",
        "to": "0xe2b6353511c5374b77aa67a1b1a9f2ede7dc1ea7",
        "gas": "0x25a03",
        "value": "0x0",
        "input": "0xa0712d680000000000000000000000000000000000000000000000000000000000000002",
        "nonce": "0xcc6",
        "chainId": "0x14a34"
      },
      "additionalContracts": [],
      "isFixedGasLimit": false
    },
    {
      "hash": "0x08825ffc32fa91dd3e314db998eaa496d62feaa4d84d1f9763d151c70a6521b3",
      "transactionType": "CALL",
      "contractName": null,
      "contractAddress": "0xe2b6353511c5374b77aa67a1b1a9f2ede7dc1ea7",
      "function": "mint(uint256)",
      "arguments": [
        "2"
      ],
      "transaction": {
        "from": "0x8f088eca0009ad61fb94a6d7e9a5d7a087c08564",
        "to": "0xe2b6353511c5374b77aa67a1b1a9f2ede7dc1ea7",
        "gas": "0x25a03",
        "value": "0x0",
        "input": "0xa0712d680000000000000000000000000000000000000000000000000000000000000002",
        "nonce": "0xcc7",
        "chainId": "0x14a34"
      },
      "additionalContracts": [],
      "isFixedGasLimit": false
    },
    {
      "hash": "0x87df103caf85650d06b9bed39d2b24cfaabc90901e82c6d057456089bb93d757",
      "transactionType": "CALL",
      "contractName": null,
      "contractAddress": "0xe2b6353511c5374b77aa67a1b1a9f2ede7dc1ea7",
      "function": "mint(uint256)",
      "arguments": [
        "2"
      ],
      "transaction": {
        "from": "0x8f088eca0009ad61fb94a6d7e9a5d7a087c08564",
        "to": "0xe2b6353511c5374b77aa67a1b1a9f2ede7dc1ea7",
        "gas": "0x25a03",
        "value": "0x0",
        "input": "0xa0712d680000000000000000000000000000000000000000000000000000000000000002",
        "nonce": "0xcc8",
        "chainId": "0x14a34"
      },
      "additionalContracts": [],
      "isFixedGasLimit": false
    },
    {
      "hash": "0xedd402e6377910c2dcba498002ae88006f4cf1ea271d3b513765b80d480416c6",
      "transactionType": "CALL",
      "contractName": null,
      "contractAddress": "0xe2b6353511c5374b77aa67a1b1a9f2ede7dc1ea7",
      "function": "mint(uint256)",
      "arguments": [
        "2"
      ],
      "transaction": {
        "from": "0x8f088eca0009ad61fb94a6d7e9a5d7a087c08564",
        "to": "0xe2b6353511c5374b77aa67a1b1a9f2ede7dc1ea7",
        "gas": "0x25a03",
        "value": "0x0",
        "input": "0xa0712d680000000000000000000000000000000000000000000000000000000000000002",
        "nonce": "0xcc9",
        "chainId": "0x14a34"
      },
      "additionalContracts": [],
      "isFixedGasLimit": false
    },
    {
      "hash": "0xaac6a842126bf72f11d66d4d3fd2df9d38b7bb514ff5ce8a5f2a7704141d793c",
      "transactionType": "CALL",
      "contractName": null,
      "contractAddress": "0xe2b6353511c5374b77aa67a1b1a9f2ede7dc1ea7",
      "function": "mint(uint256)",
      "arguments": [
        "2"
      ],
      "transaction": {
        "from": "0x8f088eca0009ad61fb94a6d7e9a5d7a087c08564",
        "to": "0xe2b6353511c5374b77aa67a1b1a9f2ede7dc1ea7",
        "gas": "0x25a03",
        "value": "0x0",
        "input": "0xa0712d680000000000000000000000000000000000000000000000000000000000000002",
        "nonce": "0xcca",
        "chainId": "0x14a34"
      },
      "additionalContracts": [],
      "isFixedGasLimit": false
    },
    {
      "hash": "0x8db1d7fe44e26912cebfea2118d26022015d299e8bd4e13c2bf16107d247f846",
      "transactionType": "CALL",
      "contractName": null,
      "contractAddress": "0xe2b6353511c5374b77aa67a1b1a9f2ede7dc1ea7",
      "function": "mint(uint256)",
      "arguments": [
        "2"
      ],
      "transaction": {
        "from": "0x8f088eca0009ad61fb94a6d7e9a5d7a087c08564",
        "to": "0xe2b6353511c5374b77aa67a1b1a9f2ede7dc1ea7",
        "gas": "0x25a03",
        "value": "0x0",
        "input": "0xa0712d680000000000000000000000000000000000000000000000000000000000000002",
        "nonce": "0xccb",
        "chainId": "0x14a34"
      },
      "additionalContracts": [],
      "isFixedGasLimit": false
    },
    {
      "hash": "0xbac21924fc3549cf91c365763627752259039e57bd4c0dd1a2dabf8b1ced30be",
      "transactionType": "CALL",
      "contractName": null,
      "contractAddress": "0xe2b6353511c5374b77aa67a1b1a9f2ede7dc1ea7",
      "function": "mint(uint256)",
      "arguments": [
        "2"
      ],
      "transaction": {
        "from": "0x8f088eca0009ad61fb94a6d7e9a5d7a087c08564",
        "to": "0xe2b6353511c5374b77aa67a1b1a9f2ede7dc1ea7",
        "gas": "0x25a03",
        "value": "0x0",
        "input": "0xa0712d680000000000000000000000000000000000000000000000000000000000000002",
        "nonce": "0xccc",
        "chainId": "0x14a34"
      },
      "additionalContracts": [],
      "isFixedGasLimit": false
    },
    {
      "hash": "0x7d85d6e164e0f43a346a094cf623125798d89be12d2f7ed4759458a34de9aca4",
      "transactionType": "CALL",
      "contractName": null,
      "contractAddress": "0xe2b6353511c5374b77aa67a1b1a9f2ede7dc1ea7",
      "function": "mint(uint256)",
      "arguments": [
        "2"
      ],
      "transaction": {
        "from": "0x8f088eca0009ad61fb94a6d7e9a5d7a087c08564",
        "to": "0xe2b6353511c5374b77aa67a1b1a9f2ede7dc1ea7",
        "gas": "0x25a03",
        "value": "0x0",
        "input": "0xa0712d680000000000000000000000000000000000000000000000000000000000000002",
        "nonce": "0xccd",
        "chainId": "0x14a34"
      },
      "additionalContracts": [],
      "isFixedGasLimit": false
    },
    {
      "hash": "0xff738a483e654fcdad1ce33323f859acc5cd3170a3e930cf13828ca66eba0b62",
      "transactionType": "CALL",
      "contractName": null,
      "contractAddress": "0xe2b6353511c5374b77aa67a1b1a9f2ede7dc1ea7",
      "function": "mint(uint256)",
      "arguments": [
        "2"
      ],
      "transaction": {
        "from": "0x8f088eca0009ad61fb94a6d7e9a5d7a087c08564",
        "to": "0xe2b6353511c5374b77aa67a1b1a9f2ede7dc1ea7",
        "gas": "0x25a03",
        "value": "0x0",
        "input": "0xa0712d680000000000000000000000000000000000000000000000000000000000000002",
        "nonce": "0xcce",
        "chainId": "0x14a34"
      },
      "additionalContracts": [],
      "isFixedGasLimit": false
    },
    {
      "hash": "0xe3a4e0871ee3276e806ef78f811151ef559f88350481ee3a29fcdd47dd442d39",
      "transactionType": "CALL",
      "contractName": null,
      "contractAddress": "0xe2b6353511c5374b77aa67a1b1a9f2ede7dc1ea7",
      "function": "mint(uint256)",
      "arguments": [
        "2"
      ],
      "transaction": {
        "from": "0x8f088eca0009ad61fb94a6d7e9a5d7a087c08564",
        "to": "0xe2b6353511c5374b77aa67a1b1a9f2ede7dc1ea7",
        "gas": "0x25a03",
        "value": "0x0",
        "input": "0xa0712d680000000000000000000000000000000000000000000000000000000000000002",
        "nonce": "0xccf",
        "chainId": "0x14a34"
      },
      "additionalContracts": [],
      "isFixedGasLimit": false
    },
    {
      "hash": "0xccf8f8fd3b5ad7b9f774a13ca56f554b34d2e11a43008a736dd947743f551363",
      "transactionType": "CALL",
      "contractName": null,
      "contractAddress": "0xe2b6353511c5374b77aa67a1b1a9f2ede7dc1ea7",
      "function": "mint(uint256)",
      "arguments": [
        "2"
      ],
      "transaction": {
        "from": "0x8f088eca0009ad61fb94a6d7e9a5d7a087c08564",
        "to": "0xe2b6353511c5374b77aa67a1b1a9f2ede7dc1ea7",
        "gas": "0x25a03",
        "value": "0x0",
        "input": "0xa0712d680000000000000000000000000000000000000000000000000000000000000002",
        "nonce": "0xcd0",
        "chainId": "0x14a34"
      },
      "additionalContracts": [],
      "isFixedGasLimit": false
    },
    {
      "hash": "0x3fb7fb4affd8e8a80756ceb705effb2ca3e3e05a767714e3bec710c828f3cf1f",
      "transactionType": "CALL",
      "contractName": null,
      "contractAddress": "0xe2b6353511c5374b77aa67a1b1a9f2ede7dc1ea7",
      "function": "mint(uint256)",
      "arguments": [
        "2"
      ],
      "transaction": {
        "from": "0x8f088eca0009ad61fb94a6d7e9a5d7a087c08564",
        "to": "0xe2b6353511c5374b77aa67a1b1a9f2ede7dc1ea7",
        "gas": "0x25a03",
        "value": "0x0",
        "input": "0xa0712d680000000000000000000000000000000000000000000000000000000000000002",
        "nonce": "0xcd1",
        "chainId": "0x14a34"
      },
      "additionalContracts": [],
      "isFixedGasLimit": false
    },
    {
      "hash": "0x6bccb9dc5285686988adee4bf5e06e1d47d18e30d399aed0b8a5d71798f2f08d",
      "transactionType": "CALL",
      "contractName": null,
      "contractAddress": "0xe2b6353511c5374b77aa67a1b1a9f2ede7dc1ea7",
      "function": "mint(uint256)",
      "arguments": [
        "2"
      ],
      "transaction": {
        "from": "0x8f088eca0009ad61fb94a6d7e9a5d7a087c08564",
        "to": "0xe2b6353511c5374b77aa67a1b1a9f2ede7dc1ea7",
        "gas": "0x25a03",
        "value": "0x0",
        "input": "0xa0712d680000000000000000000000000000000000000000000000000000000000000002",
        "nonce": "0xcd2",
        "chainId": "0x14a34"
      },
      "additionalContracts": [],
      "isFixedGasLimit": false
    },
    {
      "hash": "0x75ebb13c8ebfdd522f0377e494a56d646791a1d6b955a7a5ca744df14d83c2d0",
      "transactionType": "CALL",
      "contractName": null,
      "contractAddress": "0xe2b6353511c5374b77aa67a1b1a9f2ede7dc1ea7",
      "function": "mint(uint256)",
      "arguments": [
        "2"
      ],
      "transaction": {
        "from": "0x8f088eca0009ad61fb94a6d7e9a5d7a087c08564",
        "to": "0xe2b6353511c5374b77aa67a1b1a9f2ede7dc1ea7",
        "gas": "0x25a03",
        "value": "0x0",
        "input": "0xa0712d680000000000000000000000000000000000000000000000000000000000000002",
        "nonce": "0xcd3",
        "chainId": "0x14a34"
      },
      "additionalContracts": [],
      "isFixedGasLimit": false
    },
    {
      "hash": "0x785a58edd2b349b80c6b638d8649c642ebc88c2caa6dcae2a8d36f6741bae287",
      "transactionType": "CALL",
      "contractName": null,
      "contractAddress": "0xe2b6353511c5374b77aa67a1b1a9f2ede7dc1ea7",
      "function": "mint(uint256)",
      "arguments": [
        "2"
      ],
      "transaction": {
        "from": "0x8f088eca0009ad61fb94a6d7e9a5d7a087c08564",
        "to": "0xe2b6353511c5374b77aa67a1b1a9f2ede7dc1ea7",
        "gas": "0x25a03",
        "value": "0x0",
        "input": "0xa0712d680000000000000000000000000000000000000000000000000000000000000002",
        "nonce": "0xcd4",
        "chainId": "0x14a34"
      },
      "additionalContracts": [],
      "isFixedGasLimit": false
    }
  ],
  "receipts": [
    {
      "status": "0x1",
      "cumulativeGasUsed": "0x6d887",
      "logs": [
        {
          "address": "0xe2b6353511c5374b77aa67a1b1a9f2ede7dc1ea7",
          "topics": [
            "0xddf252ad1be2c89b69c2b068fc378daa952ba7f163c4a11628f55a4df523b3ef",
            "0x0000000000000000000000000000000000000000000000000000000000000000",
            "0x0000000000000000000000008f088eca0009ad61fb94a6d7e9a5d7a087c08564",
            "0x00000000000000000000000000000000000000000000000000000000001e84a3"
          ],
          "data": "0x",
          "blockHash": "0x99c9554ed8aeea3c51f742ef422ba86e2f32a0998963a2d934c556cf2b088e62",
          "blockNumber": "0xa15b32",
          "transactionHash": "0xcf5a04733dcd88c6c27936cd2cc5415850ba66a924d0921a94a95c807d6ac885",
          "transactionIndex": "0x4",
          "logIndex": "0x6",
          "removed": false
        }
      ],
      "logsBloom": "0x00000000000000000000000000000000000000000000000000000000000000000000000000100000000001000000000000000000000000000000020000000200000000000000000000000008000000000000000000000000000000000000000000000000020000000000000000000800000000008000000000000210000000000000000000000000000000000000000000000000000000000000000000000000000000000000000010000000000000000000000000000000000000000000000020000002000000000000000000000000000000000000000000000000000020000400000000000000000000000000000000000000000000000000000000000000",
      "type": "0x2",
      "transactionHash": "0xcf5a04733dcd88c6c27936cd2cc5415850ba66a924d0921a94a95c807d6ac885",
      "transactionIndex": "0x4",
      "blockHash": "0x99c9554ed8aeea3c51f742ef422ba86e2f32a0998963a2d934c556cf2b088e62",
      "blockNumber": "0xa15b32",
      "gasUsed": "0x19ba2",
      "effectiveGasPrice": "0x1879f",
      "from": "0x8f088eca0009ad61fb94a6d7e9a5d7a087c08564",
      "to": "0xe2b6353511c5374b77aa67a1b1a9f2ede7dc1ea7",
      "contractAddress": null,
      "l1BaseFeeScalar": "0x44d",
      "l1BlobBaseFee": "0x71129411d08",
      "l1BlobBaseFeeScalar": "0xa118b",
      "l1Fee": "0x24a6a04c75918",
      "l1GasPrice": "0x212137833",
      "l1GasUsed": "0x7dc"
    },
    {
      "status": "0x1",
      "cumulativeGasUsed": "0x87429",
      "logs": [
        {
          "address": "0xe2b6353511c5374b77aa67a1b1a9f2ede7dc1ea7",
          "topics": [
            "0xddf252ad1be2c89b69c2b068fc378daa952ba7f163c4a11628f55a4df523b3ef",
            "0x0000000000000000000000000000000000000000000000000000000000000000",
            "0x0000000000000000000000008f088eca0009ad61fb94a6d7e9a5d7a087c08564",
            "0x00000000000000000000000000000000000000000000000000000000001e84a4"
          ],
          "data": "0x",
          "blockHash": "0x99c9554ed8aeea3c51f742ef422ba86e2f32a0998963a2d934c556cf2b088e62",
          "blockNumber": "0xa15b32",
          "transactionHash": "0xa0c8843b160631c6c676e319b11d74b068d6f030557d5b0e21833338efbd71a2",
          "transactionIndex": "0x5",
          "logIndex": "0x7",
          "removed": false
        }
      ],
      "logsBloom": "0x00000000000000200000000000000000000000000000000000000000000000000000000000100000000001000000000000000000000000000000020000000200000000000000000000000008000000000000000000000000000000000000000000000000020000000000000000000800000000008000000000000010000000000000000000000000000000000000002000000000000000000000000000004000000000000000000010000000000000000000000000000000000000000000000000000002000000000000000000000000000000000000000000000000000020000000000000000000000000000000000000000000000000000000000000000000",
      "type": "0x2",
      "transactionHash": "0xa0c8843b160631c6c676e319b11d74b068d6f030557d5b0e21833338efbd71a2",
      "transactionIndex": "0x5",
      "blockHash": "0x99c9554ed8aeea3c51f742ef422ba86e2f32a0998963a2d934c556cf2b088e62",
      "blockNumber": "0xa15b32",
      "gasUsed": "0x19ba2",
      "effectiveGasPrice": "0x1879f",
      "from": "0x8f088eca0009ad61fb94a6d7e9a5d7a087c08564",
      "to": "0xe2b6353511c5374b77aa67a1b1a9f2ede7dc1ea7",
      "contractAddress": null,
      "l1BaseFeeScalar": "0x44d",
      "l1BlobBaseFee": "0x71129411d08",
      "l1BlobBaseFeeScalar": "0xa118b",
      "l1Fee": "0x24a6a04c75918",
      "l1GasPrice": "0x212137833",
      "l1GasUsed": "0x7dc"
    },
    {
      "status": "0x1",
      "cumulativeGasUsed": "0xa0fcb",
      "logs": [
        {
          "address": "0xe2b6353511c5374b77aa67a1b1a9f2ede7dc1ea7",
          "topics": [
            "0xddf252ad1be2c89b69c2b068fc378daa952ba7f163c4a11628f55a4df523b3ef",
            "0x0000000000000000000000000000000000000000000000000000000000000000",
            "0x0000000000000000000000008f088eca0009ad61fb94a6d7e9a5d7a087c08564",
            "0x00000000000000000000000000000000000000000000000000000000001e84a5"
          ],
          "data": "0x",
          "blockHash": "0x99c9554ed8aeea3c51f742ef422ba86e2f32a0998963a2d934c556cf2b088e62",
          "blockNumber": "0xa15b32",
          "transactionHash": "0x054b4030402707402fff34e192a02db856a69f3497058a5c572ab484a7bd5466",
          "transactionIndex": "0x6",
          "logIndex": "0x8",
          "removed": false
        }
      ],
      "logsBloom": "0x00000000000000000000000000000000000200000000000000000200000000000000000000100000000001000000000000000000000000000000020000000200000000000000000000000008000000000000000000000000000000000000000000000000020000000000000000000800000000008000000000000010000000000000000000000000000000000000000000000000000000000000000200000000000000000000000010000000000000000000000000000000000000000000000000000002000000000000000000000000000000000000000000000000000020000000000000000000000000000000000000000000000000000000000000000000",
      "type": "0x2",
      "transactionHash": "0x054b4030402707402fff34e192a02db856a69f3497058a5c572ab484a7bd5466",
      "transactionIndex": "0x6",
      "blockHash": "0x99c9554ed8aeea3c51f742ef422ba86e2f32a0998963a2d934c556cf2b088e62",
      "blockNumber": "0xa15b32",
      "gasUsed": "0x19ba2",
      "effectiveGasPrice": "0x1879f",
      "from": "0x8f088eca0009ad61fb94a6d7e9a5d7a087c08564",
      "to": "0xe2b6353511c5374b77aa67a1b1a9f2ede7dc1ea7",
      "contractAddress": null,
      "l1BaseFeeScalar": "0x44d",
      "l1BlobBaseFee": "0x71129411d08",
      "l1BlobBaseFeeScalar": "0xa118b",
      "l1Fee": "0x24a6a04c75918",
      "l1GasPrice": "0x212137833",
      "l1GasUsed": "0x7dc"
    },
    {
      "status": "0x1",
      "cumulativeGasUsed": "0x5caf7",
      "logs": [
        {
          "address": "0xe2b6353511c5374b77aa67a1b1a9f2ede7dc1ea7",
          "topics": [
            "0xddf252ad1be2c89b69c2b068fc378daa952ba7f163c4a11628f55a4df523b3ef",
            "0x0000000000000000000000000000000000000000000000000000000000000000",
            "0x0000000000000000000000008f088eca0009ad61fb94a6d7e9a5d7a087c08564",
            "0x00000000000000000000000000000000000000000000000000000000001e84a6"
          ],
          "data": "0x",
          "blockHash": "0xf065e721eea4652898893b5bcbf159d74a6b1dfa4a69b71b25a7e3db1a206a25",
          "blockNumber": "0xa15b33",
          "transactionHash": "0xd102fddd8ca8b095970cf420b1b551c52b8d1846aba434981d615f8e6c0cee94",
          "transactionIndex": "0x4",
          "logIndex": "0x3",
          "removed": false
        }
      ],
      "logsBloom": "0x00000000000200000000000000000000000000000000800000000000000000000000000000100000000001000000000000000000000000000000020000000200000000000000000000000008000000000000000000000000000000000000000000000000020000000000000000000800000000008000000000000010000000000000000000000000000000000000000000000000000000000000000000000000000000000000000010000000000000000000000000000000000000000000000000000002000000000000000000000000000000000000000000000000000020000000000000000000000200000000000000000000000000000000000000000000",
      "type": "0x2",
      "transactionHash": "0xd102fddd8ca8b095970cf420b1b551c52b8d1846aba434981d615f8e6c0cee94",
      "transactionIndex": "0x4",
      "blockHash": "0xf065e721eea4652898893b5bcbf159d74a6b1dfa4a69b71b25a7e3db1a206a25",
      "blockNumber": "0xa15b33",
      "gasUsed": "0x19ba2",
      "effectiveGasPrice": "0x1879f",
      "from": "0x8f088eca0009ad61fb94a6d7e9a5d7a087c08564",
      "to": "0xe2b6353511c5374b77aa67a1b1a9f2ede7dc1ea7",
      "contractAddress": null,
      "l1BaseFeeScalar": "0x44d",
      "l1BlobBaseFee": "0x71129411d08",
      "l1BlobBaseFeeScalar": "0xa118b",
      "l1Fee": "0x24a6a04c75918",
      "l1GasPrice": "0x212137833",
      "l1GasUsed": "0x7dc"
    },
    {
      "status": "0x1",
      "cumulativeGasUsed": "0x76699",
      "logs": [
        {
          "address": "0xe2b6353511c5374b77aa67a1b1a9f2ede7dc1ea7",
          "topics": [
            "0xddf252ad1be2c89b69c2b068fc378daa952ba7f163c4a11628f55a4df523b3ef",
            "0x0000000000000000000000000000000000000000000000000000000000000000",
            "0x0000000000000000000000008f088eca0009ad61fb94a6d7e9a5d7a087c08564",
            "0x00000000000000000000000000000000000000000000000000000000001e84a7"
          ],
          "data": "0x",
          "blockHash": "0xf065e721eea4652898893b5bcbf159d74a6b1dfa4a69b71b25a7e3db1a206a25",
          "blockNumber": "0xa15b33",
          "transactionHash": "0xc70212e2fcc48c44cba18b4ce2f159a2152df55844d5860bc18b23f54916f780",
          "transactionIndex": "0x5",
          "logIndex": "0x4",
          "removed": false
        }
      ],
      "logsBloom": "0x00000000000000000000000000000000000000000000000000000000000000000000000000100000000001000000800000000000000000000000020000000200000002000000000000000008000000000000000000000000000000000000000000000000020000000000000000000800000000008000000000000010000000000000000000000000000000000000000000000000000000000000000000000000040000000000000010000000000000000000000000000000000000000000000000000002000000000000000000000000000000000000000000000000000020000000000000000000000000000000000000000000000000000000000000000000",
      "type": "0x2",
      "transactionHash": "0xc70212e2fcc48c44cba18b4ce2f159a2152df55844d5860bc18b23f54916f780",
      "transactionIndex": "0x5",
      "blockHash": "0xf065e721eea4652898893b5bcbf159d74a6b1dfa4a69b71b25a7e3db1a206a25",
      "blockNumber": "0xa15b33",
      "gasUsed": "0x19ba2",
      "effectiveGasPrice": "0x1879f",
      "from": "0x8f088eca0009ad61fb94a6d7e9a5d7a087c08564",
      "to": "0xe2b6353511c5374b77aa67a1b1a9f2ede7dc1ea7",
      "contractAddress": null,
      "l1BaseFeeScalar": "0x44d",
      "l1BlobBaseFee": "0x71129411d08",
      "l1BlobBaseFeeScalar": "0xa118b",
      "l1Fee": "0x24a6a04c75918",
      "l1GasPrice": "0x212137833",
      "l1GasUsed": "0x7dc"
    },
    {
      "status": "0x1",
      "cumulativeGasUsed": "0x9023b",
      "logs": [
        {
          "address": "0xe2b6353511c5374b77aa67a1b1a9f2ede7dc1ea7",
          "topics": [
            "0xddf252ad1be2c89b69c2b068fc378daa952ba7f163c4a11628f55a4df523b3ef",
            "0x0000000000000000000000000000000000000000000000000000000000000000",
            "0x0000000000000000000000008f088eca0009ad61fb94a6d7e9a5d7a087c08564",
            "0x00000000000000000000000000000000000000000000000000000000001e84a8"
          ],
          "data": "0x",
          "blockHash": "0xf065e721eea4652898893b5bcbf159d74a6b1dfa4a69b71b25a7e3db1a206a25",
          "blockNumber": "0xa15b33",
          "transactionHash": "0x0f3077e42c587166e7771e88f97356f1ba9c06d096306d15ae5617862b4614c3",
          "transactionIndex": "0x6",
          "logIndex": "0x5",
          "removed": false
        }
      ],
      "logsBloom": "0x00000000000000000000000000000000000000000000000000000000000000000000000000100000000001000000000000000000000000000000020000000200000000000000000000000008000000000000000000000000000000000000000000000000020000000000000000000800000000008000000000000010000000000000000000000000000020000000000000000000000000000000000000000000000000000000000010000000000000000000000000004000000000000000000000000002000000008000000000000000000000000000000000000000000020000000000000000000000000000000000000000000000000000000000000000000",
      "type": "0x2",
      "transactionHash": "0x0f3077e42c587166e7771e88f97356f1ba9c06d096306d15ae5617862b4614c3",
      "transactionIndex": "0x6",
      "blockHash": "0xf065e721eea4652898893b5bcbf159d74a6b1dfa4a69b71b25a7e3db1a206a25",
      "blockNumber": "0xa15b33",
      "gasUsed": "0x19ba2",
      "effectiveGasPrice": "0x1879f",
      "from": "0x8f088eca0009ad61fb94a6d7e9a5d7a087c08564",
      "to": "0xe2b6353511c5374b77aa67a1b1a9f2ede7dc1ea7",
      "contractAddress": null,
      "l1BaseFeeScalar": "0x44d",
      "l1BlobBaseFee": "0x71129411d08",
      "l1BlobBaseFeeScalar": "0xa118b",
      "l1Fee": "0x24a6a04c75918",
      "l1GasPrice": "0x212137833",
      "l1GasUsed": "0x7dc"
    },
    {
      "status": "0x1",
      "cumulativeGasUsed": "0xa9ddd",
      "logs": [
        {
          "address": "0xe2b6353511c5374b77aa67a1b1a9f2ede7dc1ea7",
          "topics": [
            "0xddf252ad1be2c89b69c2b068fc378daa952ba7f163c4a11628f55a4df523b3ef",
            "0x0000000000000000000000000000000000000000000000000000000000000000",
            "0x0000000000000000000000008f088eca0009ad61fb94a6d7e9a5d7a087c08564",
            "0x00000000000000000000000000000000000000000000000000000000001e84a9"
          ],
          "data": "0x",
          "blockHash": "0xf065e721eea4652898893b5bcbf159d74a6b1dfa4a69b71b25a7e3db1a206a25",
          "blockNumber": "0xa15b33",
          "transactionHash": "0x08825ffc32fa91dd3e314db998eaa496d62feaa4d84d1f9763d151c70a6521b3",
          "transactionIndex": "0x7",
          "logIndex": "0x6",
          "removed": false
        }
      ],
      "logsBloom": "0x00000100000000000000000000000000000000000000000000000000000000000000000000100000000001000000000000000000000000000000020000000200000000000000000000000008000000000000000000000000000000000000000000000000020000000000000000000800000000008000000000000010000000000000000000000000000000000000000000000000000000000000000000000000000000000000000010000000000000000000000000000000000000000000000000000002000000000000000000000004000000000000000000000000000020000000000000000000000000000000000000008000000000000000000000000000",
      "type": "0x2",
      "transactionHash": "0x08825ffc32fa91dd3e314db998eaa496d62feaa4d84d1f9763d151c70a6521b3",
      "transactionIndex": "0x7",
      "blockHash": "0xf065e721eea4652898893b5bcbf159d74a6b1dfa4a69b71b25a7e3db1a206a25",
      "blockNumber": "0xa15b33",
      "gasUsed": "0x19ba2",
      "effectiveGasPrice": "0x1879f",
      "from": "0x8f088eca0009ad61fb94a6d7e9a5d7a087c08564",
      "to": "0xe2b6353511c5374b77aa67a1b1a9f2ede7dc1ea7",
      "contractAddress": null,
      "l1BaseFeeScalar": "0x44d",
      "l1BlobBaseFee": "0x71129411d08",
      "l1BlobBaseFeeScalar": "0xa118b",
      "l1Fee": "0x24a6a04c75918",
      "l1GasPrice": "0x212137833",
      "l1GasUsed": "0x7dc"
    },
    {
      "status": "0x1",
      "cumulativeGasUsed": "0xc397f",
      "logs": [
        {
          "address": "0xe2b6353511c5374b77aa67a1b1a9f2ede7dc1ea7",
          "topics": [
            "0xddf252ad1be2c89b69c2b068fc378daa952ba7f163c4a11628f55a4df523b3ef",
            "0x0000000000000000000000000000000000000000000000000000000000000000",
            "0x0000000000000000000000008f088eca0009ad61fb94a6d7e9a5d7a087c08564",
            "0x00000000000000000000000000000000000000000000000000000000001e84aa"
          ],
          "data": "0x",
          "blockHash": "0xf065e721eea4652898893b5bcbf159d74a6b1dfa4a69b71b25a7e3db1a206a25",
          "blockNumber": "0xa15b33",
          "transactionHash": "0x87df103caf85650d06b9bed39d2b24cfaabc90901e82c6d057456089bb93d757",
          "transactionIndex": "0x8",
          "logIndex": "0x7",
          "removed": false
        }
      ],
      "logsBloom": "0x00000000000000000000000000000008000000000000000000000000000000000000000000100000000001000000000000000000000000000000020000000200000000000000000000000008000000000000000000000000000000000000000000000040020000000000000000000800000000008000000000000010000000000000000000000000000000000000000000000000000000000000000000000000000000000000000010000000000000000000000000000000000000000000000000000002000000000000000000000000000000000000000000000000000020000000000000000000000000000000000000400000000000000000000000000000",
      "type": "0x2",
      "transactionHash": "0x87df103caf85650d06b9bed39d2b24cfaabc90901e82c6d057456089bb93d757",
      "transactionIndex": "0x8",
      "blockHash": "0xf065e721eea4652898893b5bcbf159d74a6b1dfa4a69b71b25a7e3db1a206a25",
      "blockNumber": "0xa15b33",
      "gasUsed": "0x19ba2",
      "effectiveGasPrice": "0x1879f",
      "from": "0x8f088eca0009ad61fb94a6d7e9a5d7a087c08564",
      "to": "0xe2b6353511c5374b77aa67a1b1a9f2ede7dc1ea7",
      "contractAddress": null,
      "l1BaseFeeScalar": "0x44d",
      "l1BlobBaseFee": "0x71129411d08",
      "l1BlobBaseFeeScalar": "0xa118b",
      "l1Fee": "0x24a6a04c75918",
      "l1GasPrice": "0x212137833",
      "l1GasUsed": "0x7dc"
    },
    {
      "status": "0x1",
      "cumulativeGasUsed": "0xdd521",
      "logs": [
        {
          "address": "0xe2b6353511c5374b77aa67a1b1a9f2ede7dc1ea7",
          "topics": [
            "0xddf252ad1be2c89b69c2b068fc378daa952ba7f163c4a11628f55a4df523b3ef",
            "0x0000000000000000000000000000000000000000000000000000000000000000",
            "0x0000000000000000000000008f088eca0009ad61fb94a6d7e9a5d7a087c08564",
            "0x00000000000000000000000000000000000000000000000000000000001e84ab"
          ],
          "data": "0x",
          "blockHash": "0xf065e721eea4652898893b5bcbf159d74a6b1dfa4a69b71b25a7e3db1a206a25",
          "blockNumber": "0xa15b33",
          "transactionHash": "0xedd402e6377910c2dcba498002ae88006f4cf1ea271d3b513765b80d480416c6",
          "transactionIndex": "0x9",
          "logIndex": "0x8",
          "removed": false
        }
      ],
      "logsBloom": "0x00000000000000000000000000000000000000000000000000000000000004000000000000100000000001000000000000000000000000000000020000000200008000000000000000000008000000000000000000000000000000000000000000000000020000000000000000000800000000008000000000000010000000000000000000000000000000000000000000000000000000000000000000000020000000000000000010000000000000000000000000000000000000000000000000000002000000000000000000000000000000000000000000000000000020000000000000000000000000000000000000000000000000000000000000000000",
      "type": "0x2",
      "transactionHash": "0xedd402e6377910c2dcba498002ae88006f4cf1ea271d3b513765b80d480416c6",
      "transactionIndex": "0x9",
      "blockHash": "0xf065e721eea4652898893b5bcbf159d74a6b1dfa4a69b71b25a7e3db1a206a25",
      "blockNumber": "0xa15b33",
      "gasUsed": "0x19ba2",
      "effectiveGasPrice": "0x1879f",
      "from": "0x8f088eca0009ad61fb94a6d7e9a5d7a087c08564",
      "to": "0xe2b6353511c5374b77aa67a1b1a9f2ede7dc1ea7",
      "contractAddress": null,
      "l1BaseFeeScalar": "0x44d",
      "l1BlobBaseFee": "0x71129411d08",
      "l1BlobBaseFeeScalar": "0xa118b",
      "l1Fee": "0x24a6a04c75918",
      "l1GasPrice": "0x212137833",
      "l1GasUsed": "0x7dc"
    },
    {
      "status": "0x1",
      "cumulativeGasUsed": "0xf70c3",
      "logs": [
        {
          "address": "0xe2b6353511c5374b77aa67a1b1a9f2ede7dc1ea7",
          "topics": [
            "0xddf252ad1be2c89b69c2b068fc378daa952ba7f163c4a11628f55a4df523b3ef",
            "0x0000000000000000000000000000000000000000000000000000000000000000",
            "0x0000000000000000000000008f088eca0009ad61fb94a6d7e9a5d7a087c08564",
            "0x00000000000000000000000000000000000000000000000000000000001e84ac"
          ],
          "data": "0x",
          "blockHash": "0xf065e721eea4652898893b5bcbf159d74a6b1dfa4a69b71b25a7e3db1a206a25",
          "blockNumber": "0xa15b33",
          "transactionHash": "0xaac6a842126bf72f11d66d4d3fd2df9d38b7bb514ff5ce8a5f2a7704141d793c",
          "transactionIndex": "0xa",
          "logIndex": "0x9",
          "removed": false
        }
      ],
      "logsBloom": "0x00000000000000000000000000000000000000000000000000000000000000000000000000100000000001000000000000000000000000000000020000000200000000000000000000000008000000000000000000000000000000000000000000000000020000000000000000000800000000008000000000000010000000000000000000000000400000000000000000000000000000002000000000000000000000000000000010000000000000000000000000000000000000000000000000000002000000000000000000000000000000000000000000000000000020000000000000000000000000000000000800000000000000000000000000000000",
      "type": "0x2",
      "transactionHash": "0xaac6a842126bf72f11d66d4d3fd2df9d38b7bb514ff5ce8a5f2a7704141d793c",
      "transactionIndex": "0xa",
      "blockHash": "0xf065e721eea4652898893b5bcbf159d74a6b1dfa4a69b71b25a7e3db1a206a25",
      "blockNumber": "0xa15b33",
      "gasUsed": "0x19ba2",
      "effectiveGasPrice": "0x1879f",
      "from": "0x8f088eca0009ad61fb94a6d7e9a5d7a087c08564",
      "to": "0xe2b6353511c5374b77aa67a1b1a9f2ede7dc1ea7",
      "contractAddress": null,
      "l1BaseFeeScalar": "0x44d",
      "l1BlobBaseFee": "0x71129411d08",
      "l1BlobBaseFeeScalar": "0xa118b",
      "l1Fee": "0x24a6a04c75918",
      "l1GasPrice": "0x212137833",
      "l1GasUsed": "0x7dc"
    },
    {
      "status": "0x1",
      "cumulativeGasUsed": "0x110c65",
      "logs": [
        {
          "address": "0xe2b6353511c5374b77aa67a1b1a9f2ede7dc1ea7",
          "topics": [
            "0xddf252ad1be2c89b69c2b068fc378daa952ba7f163c4a11628f55a4df523b3ef",
            "0x0000000000000000000000000000000000000000000000000000000000000000",
            "0x0000000000000000000000008f088eca0009ad61fb94a6d7e9a5d7a087c08564",
            "0x00000000000000000000000000000000000000000000000000000000001e84ad"
          ],
          "data": "0x",
          "blockHash": "0xf065e721eea4652898893b5bcbf159d74a6b1dfa4a69b71b25a7e3db1a206a25",
          "blockNumber": "0xa15b33",
          "transactionHash": "0x8db1d7fe44e26912cebfea2118d26022015d299e8bd4e13c2bf16107d247f846",
          "transactionIndex": "0xb",
          "logIndex": "0xa",
          "removed": false
        }
      ],
      "logsBloom": "0x00000000000000000000000000000000000000000000000000000000000000000000000000100000000001000000000000000000000000000000020000000200000000000000000000000008000000000000000000000000000000000000000000000000020000000000000010000800000000008000000000000010000000000000000000000000100000000000000000000000002000000000000000000000000000000000000010000000000000000000000000000000000000000000000000000002000000000000000000000000000000000000000000000000000020000000000000000000000000000000000000000000000000000000000000000000",
      "type": "0x2",
      "transactionHash": "0x8db1d7fe44e26912cebfea2118d26022015d299e8bd4e13c2bf16107d247f846",
      "transactionIndex": "0xb",
      "blockHash": "0xf065e721eea4652898893b5bcbf159d74a6b1dfa4a69b71b25a7e3db1a206a25",
      "blockNumber": "0xa15b33",
      "gasUsed": "0x19ba2",
      "effectiveGasPrice": "0x1879f",
      "from": "0x8f088eca0009ad61fb94a6d7e9a5d7a087c08564",
      "to": "0xe2b6353511c5374b77aa67a1b1a9f2ede7dc1ea7",
      "contractAddress": null,
      "l1BaseFeeScalar": "0x44d",
      "l1BlobBaseFee": "0x71129411d08",
      "l1BlobBaseFeeScalar": "0xa118b",
      "l1Fee": "0x24a6a04c75918",
      "l1GasPrice": "0x212137833",
      "l1GasUsed": "0x7dc"
    },
    {
      "status": "0x1",
      "cumulativeGasUsed": "0x12a807",
      "logs": [
        {
          "address": "0xe2b6353511c5374b77aa67a1b1a9f2ede7dc1ea7",
          "topics": [
            "0xddf252ad1be2c89b69c2b068fc378daa952ba7f163c4a11628f55a4df523b3ef",
            "0x0000000000000000000000000000000000000000000000000000000000000000",
            "0x0000000000000000000000008f088eca0009ad61fb94a6d7e9a5d7a087c08564",
            "0x00000000000000000000000000000000000000000000000000000000001e84ae"
          ],
          "data": "0x",
          "blockHash": "0xf065e721eea4652898893b5bcbf159d74a6b1dfa4a69b71b25a7e3db1a206a25",
          "blockNumber": "0xa15b33",
          "transactionHash": "0xbac21924fc3549cf91c365763627752259039e57bd4c0dd1a2dabf8b1ced30be",
          "transactionIndex": "0xc",
          "logIndex": "0xb",
          "removed": false
        }
      ],
      "logsBloom": "0x00000000000000000000000000000000000000000000000000000000000000000000000000100000000001000000000000000000000000000000020000000200000002000000000000000008000000000000000000000000000000000000000000000000020000000000000000000800000000008000000000000010000000000000000000000000000000000000000000000000000000000000000000000000000000000000000010000000000000000000000000000000000000000000000000000002000000000000000000000080000000000000000000000000000020000000000000000000000000000000000000000000000000000000000000000002",
      "type": "0x2",
      "transactionHash": "0xbac21924fc3549cf91c365763627752259039e57bd4c0dd1a2dabf8b1ced30be",
      "transactionIndex": "0xc",
      "blockHash": "0xf065e721eea4652898893b5bcbf159d74a6b1dfa4a69b71b25a7e3db1a206a25",
      "blockNumber": "0xa15b33",
      "gasUsed": "0x19ba2",
      "effectiveGasPrice": "0x1879f",
      "from": "0x8f088eca0009ad61fb94a6d7e9a5d7a087c08564",
      "to": "0xe2b6353511c5374b77aa67a1b1a9f2ede7dc1ea7",
      "contractAddress": null,
      "l1BaseFeeScalar": "0x44d",
      "l1BlobBaseFee": "0x71129411d08",
      "l1BlobBaseFeeScalar": "0xa118b",
      "l1Fee": "0x24a6a04c75918",
      "l1GasPrice": "0x212137833",
      "l1GasUsed": "0x7dc"
    },
    {
      "status": "0x1",
      "cumulativeGasUsed": "0x1443a9",
      "logs": [
        {
          "address": "0xe2b6353511c5374b77aa67a1b1a9f2ede7dc1ea7",
          "topics": [
            "0xddf252ad1be2c89b69c2b068fc378daa952ba7f163c4a11628f55a4df523b3ef",
            "0x0000000000000000000000000000000000000000000000000000000000000000",
            "0x0000000000000000000000008f088eca0009ad61fb94a6d7e9a5d7a087c08564",
            "0x00000000000000000000000000000000000000000000000000000000001e84af"
          ],
          "data": "0x",
          "blockHash": "0xf065e721eea4652898893b5bcbf159d74a6b1dfa4a69b71b25a7e3db1a206a25",
          "blockNumber": "0xa15b33",
          "transactionHash": "0x7d85d6e164e0f43a346a094cf623125798d89be12d2f7ed4759458a34de9aca4",
          "transactionIndex": "0xd",
          "logIndex": "0xc",
          "removed": false
        }
      ],
      "logsBloom": "0x00000000000000000000000000000000000000000000000000000000000000000000000000100000000001000000000000000000000000000000020000000200000000000000000000000008000000000000000000000000000000000000000000000000020000000000000000000800000000008000000000000010000000000000000000000000000000000000000000000000000000000000000000000000000000000000000010000000000000000000008000000000000000000000000000000002000000000000000000000000200000000000000000000000000020000000000000000000000000000000000000000000000040000000000000000000",
      "type": "0x2",
      "transactionHash": "0x7d85d6e164e0f43a346a094cf623125798d89be12d2f7ed4759458a34de9aca4",
      "transactionIndex": "0xd",
      "blockHash": "0xf065e721eea4652898893b5bcbf159d74a6b1dfa4a69b71b25a7e3db1a206a25",
      "blockNumber": "0xa15b33",
      "gasUsed": "0x19ba2",
      "effectiveGasPrice": "0x1879f",
      "from": "0x8f088eca0009ad61fb94a6d7e9a5d7a087c08564",
      "to": "0xe2b6353511c5374b77aa67a1b1a9f2ede7dc1ea7",
      "contractAddress": null,
      "l1BaseFeeScalar": "0x44d",
      "l1BlobBaseFee": "0x71129411d08",
      "l1BlobBaseFeeScalar": "0xa118b",
      "l1Fee": "0x24a6a04c75918",
      "l1GasPrice": "0x212137833",
      "l1GasUsed": "0x7dc"
    },
    {
      "status": "0x1",
      "cumulativeGasUsed": "0x15df4b",
      "logs": [
        {
          "address": "0xe2b6353511c5374b77aa67a1b1a9f2ede7dc1ea7",
          "topics": [
            "0xddf252ad1be2c89b69c2b068fc378daa952ba7f163c4a11628f55a4df523b3ef",
            "0x0000000000000000000000000000000000000000000000000000000000000000",
            "0x0000000000000000000000008f088eca0009ad61fb94a6d7e9a5d7a087c08564",
            "0x00000000000000000000000000000000000000000000000000000000001e84b0"
          ],
          "data": "0x",
          "blockHash": "0xf065e721eea4652898893b5bcbf159d74a6b1dfa4a69b71b25a7e3db1a206a25",
          "blockNumber": "0xa15b33",
          "transactionHash": "0xff738a483e654fcdad1ce33323f859acc5cd3170a3e930cf13828ca66eba0b62",
          "transactionIndex": "0xe",
          "logIndex": "0xd",
          "removed": false
        }
      ],
      "logsBloom": "0x00000000000000000000000000000000000000000000000000000000000000000000000000100000040001000000000000000000000000000000020000000200000000000010000000000008000000000000000000000000000000000000000000000000020000000000000000000800000000008000000000000010000000000000000000000000000000000000000000000000000000000000000000000000000000000000000010000000000000000000000000000000000000000000000000000002000000000000000000000000000000000000000004000000000020000000000000000000000000000000000000000000000000000000000000000000",
      "type": "0x2",
      "transactionHash": "0xff738a483e654fcdad1ce33323f859acc5cd3170a3e930cf13828ca66eba0b62",
      "transactionIndex": "0xe",
      "blockHash": "0xf065e721eea4652898893b5bcbf159d74a6b1dfa4a69b71b25a7e3db1a206a25",
      "blockNumber": "0xa15b33",
      "gasUsed": "0x19ba2",
      "effectiveGasPrice": "0x1879f",
      "from": "0x8f088eca0009ad61fb94a6d7e9a5d7a087c08564",
      "to": "0xe2b6353511c5374b77aa67a1b1a9f2ede7dc1ea7",
      "contractAddress": null,
      "l1BaseFeeScalar": "0x44d",
      "l1BlobBaseFee": "0x71129411d08",
      "l1BlobBaseFeeScalar": "0xa118b",
      "l1Fee": "0x245c03494e766",
      "l1GasPrice": "0x212137833",
      "l1GasUsed": "0x7cc"
    },
    {
      "status": "0x1",
      "cumulativeGasUsed": "0x177aed",
      "logs": [
        {
          "address": "0xe2b6353511c5374b77aa67a1b1a9f2ede7dc1ea7",
          "topics": [
            "0xddf252ad1be2c89b69c2b068fc378daa952ba7f163c4a11628f55a4df523b3ef",
            "0x0000000000000000000000000000000000000000000000000000000000000000",
            "0x0000000000000000000000008f088eca0009ad61fb94a6d7e9a5d7a087c08564",
            "0x00000000000000000000000000000000000000000000000000000000001e84b1"
          ],
          "data": "0x",
          "blockHash": "0xf065e721eea4652898893b5bcbf159d74a6b1dfa4a69b71b25a7e3db1a206a25",
          "blockNumber": "0xa15b33",
          "transactionHash": "0xe3a4e0871ee3276e806ef78f811151ef559f88350481ee3a29fcdd47dd442d39",
          "transactionIndex": "0xf",
          "logIndex": "0xe",
          "removed": false
        }
      ],
      "logsBloom": "0x00000000000000000000000000000000000000000000000000000000000000000000000000100000000001000010000000000000000000000000020000000200000000000000000000000008000000000000000000000000000000000000000000000000020000000000000000000c00000000008000000000000010000000000000000000000000000000000000000000000000000000000000000000000000000000000000000010000000000000000000000000000000000000000000000000000002000000008000000000000000000000000000000000000000000020000000000000000000000000000000000000000000000000000000000000000000",
      "type": "0x2",
      "transactionHash": "0xe3a4e0871ee3276e806ef78f811151ef559f88350481ee3a29fcdd47dd442d39",
      "transactionIndex": "0xf",
      "blockHash": "0xf065e721eea4652898893b5bcbf159d74a6b1dfa4a69b71b25a7e3db1a206a25",
      "blockNumber": "0xa15b33",
      "gasUsed": "0x19ba2",
      "effectiveGasPrice": "0x1879f",
      "from": "0x8f088eca0009ad61fb94a6d7e9a5d7a087c08564",
      "to": "0xe2b6353511c5374b77aa67a1b1a9f2ede7dc1ea7",
      "contractAddress": null,
      "l1BaseFeeScalar": "0x44d",
      "l1BlobBaseFee": "0x71129411d08",
      "l1BlobBaseFeeScalar": "0xa118b",
      "l1Fee": "0x246eaa8a183d2",
      "l1GasPrice": "0x212137833",
      "l1GasUsed": "0x7d0"
    },
    {
      "status": "0x1",
      "cumulativeGasUsed": "0x19168f",
      "logs": [
        {
          "address": "0xe2b6353511c5374b77aa67a1b1a9f2ede7dc1ea7",
          "topics": [
            "0xddf252ad1be2c89b69c2b068fc378daa952ba7f163c4a11628f55a4df523b3ef",
            "0x0000000000000000000000000000000000000000000000000000000000000000",
            "0x0000000000000000000000008f088eca0009ad61fb94a6d7e9a5d7a087c08564",
            "0x00000000000000000000000000000000000000000000000000000000001e84b2"
          ],
          "data": "0x",
          "blockHash": "0xf065e721eea4652898893b5bcbf159d74a6b1dfa4a69b71b25a7e3db1a206a25",
          "blockNumber": "0xa15b33",
          "transactionHash": "0xccf8f8fd3b5ad7b9f774a13ca56f554b34d2e11a43008a736dd947743f551363",
          "transactionIndex": "0x10",
          "logIndex": "0xf",
          "removed": false
        }
      ],
      "logsBloom": "0x00000000000000000000000000000000000000000000000000000000000000000000000000100000000001000000000000000100000000000000020000000200000000000000000000000008000000000000000000000000000000000000000000000000020000000000000000000800000000008000000000000010000000000000000000000000000000000000000000000000000000000000000000000000000000000000000010000000000000004000000000000000000000000000000000000002000000000000000000000000000000000000000800000000000020000000000000000000000000000000000000000000000000000000000000000000",
      "type": "0x2",
      "transactionHash": "0xccf8f8fd3b5ad7b9f774a13ca56f554b34d2e11a43008a736dd947743f551363",
      "transactionIndex": "0x10",
      "blockHash": "0xf065e721eea4652898893b5bcbf159d74a6b1dfa4a69b71b25a7e3db1a206a25",
      "blockNumber": "0xa15b33",
      "gasUsed": "0x19ba2",
      "effectiveGasPrice": "0x1879f",
      "from": "0x8f088eca0009ad61fb94a6d7e9a5d7a087c08564",
      "to": "0xe2b6353511c5374b77aa67a1b1a9f2ede7dc1ea7",
      "contractAddress": null,
      "l1BaseFeeScalar": "0x44d",
      "l1BlobBaseFee": "0x71129411d08",
      "l1BlobBaseFeeScalar": "0xa118b",
      "l1Fee": "0x24a6a04c75918",
      "l1GasPrice": "0x212137833",
      "l1GasUsed": "0x7dc"
    },
    {
      "status": "0x1",
      "cumulativeGasUsed": "0x1ab231",
      "logs": [
        {
          "address": "0xe2b6353511c5374b77aa67a1b1a9f2ede7dc1ea7",
          "topics": [
            "0xddf252ad1be2c89b69c2b068fc378daa952ba7f163c4a11628f55a4df523b3ef",
            "0x0000000000000000000000000000000000000000000000000000000000000000",
            "0x0000000000000000000000008f088eca0009ad61fb94a6d7e9a5d7a087c08564",
            "0x00000000000000000000000000000000000000000000000000000000001e84b3"
          ],
          "data": "0x",
          "blockHash": "0xf065e721eea4652898893b5bcbf159d74a6b1dfa4a69b71b25a7e3db1a206a25",
          "blockNumber": "0xa15b33",
          "transactionHash": "0x3fb7fb4affd8e8a80756ceb705effb2ca3e3e05a767714e3bec710c828f3cf1f",
          "transactionIndex": "0x11",
          "logIndex": "0x10",
          "removed": false
        }
      ],
      "logsBloom": "0x00000000000000000000000000000000000000000004000000000000000000000000000000100000000001000000000000000000000000000010020000000200000000000000000000000008000000000000000000000000000000000000000000000000020000000000000000000800000000008000000000000010000000000000000000000000000000000000000000000000000000000000000000000000000000000000000010000000000000000008000000000000000000000000000000000002000000000000000000000000000000000000000000000000000020000000000000000000000000000000000000000000000000000000000000000000",
      "type": "0x2",
      "transactionHash": "0x3fb7fb4affd8e8a80756ceb705effb2ca3e3e05a767714e3bec710c828f3cf1f",
      "transactionIndex": "0x11",
      "blockHash": "0xf065e721eea4652898893b5bcbf159d74a6b1dfa4a69b71b25a7e3db1a206a25",
      "blockNumber": "0xa15b33",
      "gasUsed": "0x19ba2",
      "effectiveGasPrice": "0x1879f",
      "from": "0x8f088eca0009ad61fb94a6d7e9a5d7a087c08564",
      "to": "0xe2b6353511c5374b77aa67a1b1a9f2ede7dc1ea7",
      "contractAddress": null,
      "l1BaseFeeScalar": "0x44d",
      "l1BlobBaseFee": "0x71129411d08",
      "l1BlobBaseFeeScalar": "0xa118b",
      "l1Fee": "0x24a6a04c75918",
      "l1GasPrice": "0x212137833",
      "l1GasUsed": "0x7dc"
    },
    {
      "status": "0x1",
      "cumulativeGasUsed": "0x1c4dd3",
      "logs": [
        {
          "address": "0xe2b6353511c5374b77aa67a1b1a9f2ede7dc1ea7",
          "topics": [
            "0xddf252ad1be2c89b69c2b068fc378daa952ba7f163c4a11628f55a4df523b3ef",
            "0x0000000000000000000000000000000000000000000000000000000000000000",
            "0x0000000000000000000000008f088eca0009ad61fb94a6d7e9a5d7a087c08564",
            "0x00000000000000000000000000000000000000000000000000000000001e84b4"
          ],
          "data": "0x",
          "blockHash": "0xf065e721eea4652898893b5bcbf159d74a6b1dfa4a69b71b25a7e3db1a206a25",
          "blockNumber": "0xa15b33",
          "transactionHash": "0x6bccb9dc5285686988adee4bf5e06e1d47d18e30d399aed0b8a5d71798f2f08d",
          "transactionIndex": "0x12",
          "logIndex": "0x11",
          "removed": false
        }
      ],
      "logsBloom": "0x00000000000000000000000000000000000000000000000000000000000000000000000000100000000001000000000800000000000000000000020000000200000000000000000000000008000000000000000000000000000000000000100000000000020000000000000000000800000000008000000000000010000000000000000000000000000000000000000000000000000000000000000000000000000000000000000010000000000000000000000000000000000000000000000000000002000000000000000000000000000000000000000000000000000020000000000000000000000000000000000000000000000000000000000008000000",
      "type": "0x2",
      "transactionHash": "0x6bccb9dc5285686988adee4bf5e06e1d47d18e30d399aed0b8a5d71798f2f08d",
      "transactionIndex": "0x12",
      "blockHash": "0xf065e721eea4652898893b5bcbf159d74a6b1dfa4a69b71b25a7e3db1a206a25",
      "blockNumber": "0xa15b33",
      "gasUsed": "0x19ba2",
      "effectiveGasPrice": "0x1879f",
      "from": "0x8f088eca0009ad61fb94a6d7e9a5d7a087c08564",
      "to": "0xe2b6353511c5374b77aa67a1b1a9f2ede7dc1ea7",
      "contractAddress": null,
      "l1BaseFeeScalar": "0x44d",
      "l1BlobBaseFee": "0x71129411d08",
      "l1BlobBaseFeeScalar": "0xa118b",
      "l1Fee": "0x23febf055d948",
      "l1GasPrice": "0x212137833",
      "l1GasUsed": "0x7b8"
    },
    {
      "status": "0x1",
      "cumulativeGasUsed": "0x1de975",
      "logs": [
        {
          "address": "0xe2b6353511c5374b77aa67a1b1a9f2ede7dc1ea7",
          "topics": [
            "0xddf252ad1be2c89b69c2b068fc378daa952ba7f163c4a11628f55a4df523b3ef",
            "0x0000000000000000000000000000000000000000000000000000000000000000",
            "0x0000000000000000000000008f088eca0009ad61fb94a6d7e9a5d7a087c08564",
            "0x00000000000000000000000000000000000000000000000000000000001e84b5"
          ],
          "data": "0x",
          "blockHash": "0xf065e721eea4652898893b5bcbf159d74a6b1dfa4a69b71b25a7e3db1a206a25",
          "blockNumber": "0xa15b33",
          "transactionHash": "0x75ebb13c8ebfdd522f0377e494a56d646791a1d6b955a7a5ca744df14d83c2d0",
          "transactionIndex": "0x13",
          "logIndex": "0x12",
          "removed": false
        }
      ],
      "logsBloom": "0x00000000000000000000000000000000000000000000000000000000000000000000000000100000000001000000000000000000000000000000020000000200000000000000000000000008000000000000000000000000000000000000000040000000020000000000000000000802000000008000000000000030000000000000000000000000000000000000000000000000000000000000000000000000000000000000000010000000000000000000000000000000000000000000000000000002000000000000000000000000000000000000000000000000000020000000000000000000000000000000000000000000000000000000000000000000",
      "type": "0x2",
      "transactionHash": "0x75ebb13c8ebfdd522f0377e494a56d646791a1d6b955a7a5ca744df14d83c2d0",
      "transactionIndex": "0x13",
      "blockHash": "0xf065e721eea4652898893b5bcbf159d74a6b1dfa4a69b71b25a7e3db1a206a25",
      "blockNumber": "0xa15b33",
      "gasUsed": "0x19ba2",
      "effectiveGasPrice": "0x1879f",
      "from": "0x8f088eca0009ad61fb94a6d7e9a5d7a087c08564",
      "to": "0xe2b6353511c5374b77aa67a1b1a9f2ede7dc1ea7",
      "contractAddress": null,
      "l1BaseFeeScalar": "0x44d",
      "l1BlobBaseFee": "0x71129411d08",
      "l1BlobBaseFeeScalar": "0xa118b",
      "l1Fee": "0x24a6a04c75918",
      "l1GasPrice": "0x212137833",
      "l1GasUsed": "0x7dc"
    },
    {
      "status": "0x1",
      "cumulativeGasUsed": "0x1f8517",
      "logs": [
        {
          "address": "0xe2b6353511c5374b77aa67a1b1a9f2ede7dc1ea7",
          "topics": [
            "0xddf252ad1be2c89b69c2b068fc378daa952ba7f163c4a11628f55a4df523b3ef",
            "0x0000000000000000000000000000000000000000000000000000000000000000",
            "0x0000000000000000000000008f088eca0009ad61fb94a6d7e9a5d7a087c08564",
            "0x00000000000000000000000000000000000000000000000000000000001e84b6"
          ],
          "data": "0x",
          "blockHash": "0xf065e721eea4652898893b5bcbf159d74a6b1dfa4a69b71b25a7e3db1a206a25",
          "blockNumber": "0xa15b33",
          "transactionHash": "0x785a58edd2b349b80c6b638d8649c642ebc88c2caa6dcae2a8d36f6741bae287",
          "transactionIndex": "0x14",
          "logIndex": "0x13",
          "removed": false
        }
      ],
      "logsBloom": "0x00000000000000000000000000000000000000000000000000000000000000000000000000100000000001000000000000000000000000000000020000000200000000000000000000000088000000000000000000000000000000000000000000000000020000000000000000000800000000008000000000000010000000000100000000000000000000000000000000400000000000000000000000000000000000000000000010000000000000000000000000000000000000000000000000000002000000000000000000000000000000000000000000000000000020000000000000000000000000000000000000000000000000000000000000000000",
      "type": "0x2",
      "transactionHash": "0x785a58edd2b349b80c6b638d8649c642ebc88c2caa6dcae2a8d36f6741bae287",
      "transactionIndex": "0x14",
      "blockHash": "0xf065e721eea4652898893b5bcbf159d74a6b1dfa4a69b71b25a7e3db1a206a25",
      "blockNumber": "0xa15b33",
      "gasUsed": "0x19ba2",
      "effectiveGasPrice": "0x1879f",
      "from": "0x8f088eca0009ad61fb94a6d7e9a5d7a087c08564",
      "to": "0xe2b6353511c5374b77aa67a1b1a9f2ede7dc1ea7",
      "contractAddress": null,
      "l1BaseFeeScalar": "0x44d",
      "l1BlobBaseFee": "0x71129411d08",
      "l1BlobBaseFeeScalar": "0xa118b",
      "l1Fee": "0x24a6a04c75918",
      "l1GasPrice": "0x212137833",
      "l1GasUsed": "0x7dc"
    }
  ],
  "libraries": [],
  "pending": [],
  "returns": {},
  "timestamp": 1716917382,
  "chain": 84532,
  "commit": "3e641a5"
}