{
  "transactions": [
    {
      "hash": "0xfeff583a648f391ccf0f4e33e8cd5c42cc79cd07ef0ca71000fdf6712381a96d",
      "transactionType": "CALL",
      "contractName": null,
      "contractAddress": "0x0bd94fda87d78d4da8c5068f677975f9cecdffe0",
      "function": "mint(uint256)",
      "arguments": [
        "4"
      ],
      "transaction": {
        "from": "0x8f088eca0009ad61fb94a6d7e9a5d7a087c08564",
        "to": "0x0bd94fda87d78d4da8c5068f677975f9cecdffe0",
        "gas": "0x294ab",
        "value": "0x0",
        "input": "0xa0712d680000000000000000000000000000000000000000000000000000000000000004",
        "nonce": "0xd93",
        "chainId": "0x14a34"
      },
      "additionalContracts": [],
      "isFixedGasLimit": false
    },
    {
      "hash": "0xbaf2386a80b6dc7e0cd9729b48d1863abbb35b301149241ade9b259c76c948e8",
      "transactionType": "CALL",
      "contractName": null,
      "contractAddress": "0x0bd94fda87d78d4da8c5068f677975f9cecdffe0",
      "function": "mint(uint256)",
      "arguments": [
        "4"
      ],
      "transaction": {
        "from": "0x8f088eca0009ad61fb94a6d7e9a5d7a087c08564",
        "to": "0x0bd94fda87d78d4da8c5068f677975f9cecdffe0",
        "gas": "0x23867",
        "value": "0x0",
        "input": "0xa0712d680000000000000000000000000000000000000000000000000000000000000004",
        "nonce": "0xd94",
        "chainId": "0x14a34"
      },
      "additionalContracts": [],
      "isFixedGasLimit": false
    },
    {
      "hash": "0x5efcd3326b2f239d2148aafc85f5d0ac04a529dadfbebecf8b0140ced96a5830",
      "transactionType": "CALL",
      "contractName": null,
      "contractAddress": "0x0bd94fda87d78d4da8c5068f677975f9cecdffe0",
      "function": "mint(uint256)",
      "arguments": [
        "4"
      ],
      "transaction": {
        "from": "0x8f088eca0009ad61fb94a6d7e9a5d7a087c08564",
        "to": "0x0bd94fda87d78d4da8c5068f677975f9cecdffe0",
        "gas": "0x23867",
        "value": "0x0",
        "input": "0xa0712d680000000000000000000000000000000000000000000000000000000000000004",
        "nonce": "0xd95",
        "chainId": "0x14a34"
      },
      "additionalContracts": [],
      "isFixedGasLimit": false
    },
    {
      "hash": "0xd3b05e38a648cfb33c588d1b9e3348a5da836eec9cef3ac6fbc14a262ba4b52c",
      "transactionType": "CALL",
      "contractName": null,
      "contractAddress": "0x0bd94fda87d78d4da8c5068f677975f9cecdffe0",
      "function": "mint(uint256)",
      "arguments": [
        "4"
      ],
      "transaction": {
        "from": "0x8f088eca0009ad61fb94a6d7e9a5d7a087c08564",
        "to": "0x0bd94fda87d78d4da8c5068f677975f9cecdffe0",
        "gas": "0x23867",
        "value": "0x0",
        "input": "0xa0712d680000000000000000000000000000000000000000000000000000000000000004",
        "nonce": "0xd96",
        "chainId": "0x14a34"
      },
      "additionalContracts": [],
      "isFixedGasLimit": false
    },
    {
      "hash": "0xba9feecc69dcf113725465342b894b087f9256b32dd53da487a3df8580404ac4",
      "transactionType": "CALL",
      "contractName": null,
      "contractAddress": "0x0bd94fda87d78d4da8c5068f677975f9cecdffe0",
      "function": "mint(uint256)",
      "arguments": [
        "4"
      ],
      "transaction": {
        "from": "0x8f088eca0009ad61fb94a6d7e9a5d7a087c08564",
        "to": "0x0bd94fda87d78d4da8c5068f677975f9cecdffe0",
        "gas": "0x23867",
        "value": "0x0",
        "input": "0xa0712d680000000000000000000000000000000000000000000000000000000000000004",
        "nonce": "0xd97",
        "chainId": "0x14a34"
      },
      "additionalContracts": [],
      "isFixedGasLimit": false
    }
  ],
  "receipts": [
    {
      "status": "0x1",
      "cumulativeGasUsed": "0x4a6fa",
      "logs": [
        {
          "address": "0x0bd94fda87d78d4da8c5068f677975f9cecdffe0",
          "topics": [
            "0xddf252ad1be2c89b69c2b068fc378daa952ba7f163c4a11628f55a4df523b3ef",
            "0x0000000000000000000000000000000000000000000000000000000000000000",
            "0x0000000000000000000000008f088eca0009ad61fb94a6d7e9a5d7a087c08564",
            "0x00000000000000000000000000000000000000000000000000000000003d0901"
          ],
          "data": "0x",
          "blockHash": "0x1e3642ffa845689e02da4ddf575d72e10495c7644b165acf3a2e23699eb9b269",
          "blockNumber": "0xad7aec",
          "transactionHash": "0xfeff583a648f391ccf0f4e33e8cd5c42cc79cd07ef0ca71000fdf6712381a96d",
          "transactionIndex": "0x3",
          "logIndex": "0x2",
          "removed": false
        }
      ],
      "logsBloom": "0x00000000000000000000000000000000000000000000000000000000000000000000000000100000000001000000000000000000000000000000000000000200000000000000000000000008000000000000000000000000000000000000000020000000020000008400000000000800000000000000000400000010000000000000000000000000000000000000000000000000000000000000000000000000000000000000000000000000000000000000000000000000000000000000000000000003000000000000000000000000000000000000000000000000000020400000000000000000000000000000000000000000000000000000000000000000",
      "type": "0x2",
      "transactionHash": "0xfeff583a648f391ccf0f4e33e8cd5c42cc79cd07ef0ca71000fdf6712381a96d",
      "transactionIndex": "0x3",
      "blockHash": "0x1e3642ffa845689e02da4ddf575d72e10495c7644b165acf3a2e23699eb9b269",
      "blockNumber": "0xad7aec",
      "gasUsed": "0x1de50",
      "effectiveGasPrice": "0xfcc0f",
      "from": "0x8f088eca0009ad61fb94a6d7e9a5d7a087c08564",
      "to": "0x0bd94fda87d78d4da8c5068f677975f9cecdffe0",
      "contractAddress": null,
      "l1BaseFeeScalar": "0x44d",
      "l1BlobBaseFee": "0x1",
      "l1BlobBaseFeeScalar": "0xa118b",
      "l1Fee": "0x63",
      "l1GasPrice": "0x13",
      "l1GasUsed": "0x640"
    },
    {
      "status": "0x1",
      "cumulativeGasUsed": "0x6427e",
      "logs": [
        {
          "address": "0x0bd94fda87d78d4da8c5068f677975f9cecdffe0",
          "topics": [
            "0xddf252ad1be2c89b69c2b068fc378daa952ba7f163c4a11628f55a4df523b3ef",
            "0x0000000000000000000000000000000000000000000000000000000000000000",
            "0x0000000000000000000000008f088eca0009ad61fb94a6d7e9a5d7a087c08564",
            "0x00000000000000000000000000000000000000000000000000000000003d0902"
          ],
          "data": "0x",
          "blockHash": "0x1e3642ffa845689e02da4ddf575d72e10495c7644b165acf3a2e23699eb9b269",
          "blockNumber": "0xad7aec",
          "transactionHash": "0xbaf2386a80b6dc7e0cd9729b48d1863abbb35b301149241ade9b259c76c948e8",
          "transactionIndex": "0x4",
          "logIndex": "0x3",
          "removed": false
        }
      ],
      "logsBloom": "0x00000000000000000000000000000000000000000000000000000000000000000000000000100000000001000000000000000000000000000000000000000200000000000000000000000008000000000000000000000000000000000000000020000000020000008000000000000800000000000000000000000010000000000000000000000000000000000100000000000000000000000000000000000000000000000000000000000000000000000000000000000000000000000000000000000002000000000000000000000000000000000000000000000000000020400000000000000040000000000020000000000000000000000000000000000000",
      "type": "0x2",
      "transactionHash": "0xbaf2386a80b6dc7e0cd9729b48d1863abbb35b301149241ade9b259c76c948e8",
      "transactionIndex": "0x4",
      "blockHash": "0x1e3642ffa845689e02da4ddf575d72e10495c7644b165acf3a2e23699eb9b269",
      "blockNumber": "0xad7aec",
      "gasUsed": "0x19b84",
      "effectiveGasPrice": "0xfcc0f",
      "from": "0x8f088eca0009ad61fb94a6d7e9a5d7a087c08564",
      "to": "0x0bd94fda87d78d4da8c5068f677975f9cecdffe0",
      "contractAddress": null,
      "l1BaseFeeScalar": "0x44d",
      "l1BlobBaseFee": "0x1",
      "l1BlobBaseFeeScalar": "0xa118b",
      "l1Fee": "0x63",
      "l1GasPrice": "0x13",
      "l1GasUsed": "0x640"
    },
    {
      "status": "0x1",
      "cumulativeGasUsed": "0x7de02",
      "logs": [
        {
          "address": "0x0bd94fda87d78d4da8c5068f677975f9cecdffe0",
          "topics": [
            "0xddf252ad1be2c89b69c2b068fc378daa952ba7f163c4a11628f55a4df523b3ef",
            "0x0000000000000000000000000000000000000000000000000000000000000000",
            "0x0000000000000000000000008f088eca0009ad61fb94a6d7e9a5d7a087c08564",
            "0x00000000000000000000000000000000000000000000000000000000003d0903"
          ],
          "data": "0x",
          "blockHash": "0x1e3642ffa845689e02da4ddf575d72e10495c7644b165acf3a2e23699eb9b269",
          "blockNumber": "0xad7aec",
          "transactionHash": "0x5efcd3326b2f239d2148aafc85f5d0ac04a529dadfbebecf8b0140ced96a5830",
          "transactionIndex": "0x5",
          "logIndex": "0x4",
          "removed": false
        }
      ],
      "logsBloom": "0x00000000000000000000000000000000000000000000000000000000000000000000000000100000000001000004000000000000000000000000000000000200000000000000000000000008000000000000000000000000000000000000001020000000020000008000000000000800000000000000000000000010000000000000000000000000000000000000000000000000000000000000000000000000000000000000000000000000000000000000000000000000000000000000000000000002000000000000001000000000000000000000000000000000000020400000000000000000000000000000000000000000000000000000000000000000",
      "type": "0x2",
      "transactionHash": "0x5efcd3326b2f239d2148aafc85f5d0ac04a529dadfbebecf8b0140ced96a5830",
      "transactionIndex": "0x5",
      "blockHash": "0x1e3642ffa845689e02da4ddf575d72e10495c7644b165acf3a2e23699eb9b269",
      "blockNumber": "0xad7aec",
      "gasUsed": "0x19b84",
      "effectiveGasPrice": "0xfcc0f",
      "from": "0x8f088eca0009ad61fb94a6d7e9a5d7a087c08564",
      "to": "0x0bd94fda87d78d4da8c5068f677975f9cecdffe0",
      "contractAddress": null,
      "l1BaseFeeScalar": "0x44d",
      "l1BlobBaseFee": "0x1",
      "l1BlobBaseFeeScalar": "0xa118b",
      "l1Fee": "0x63",
      "l1GasPrice": "0x13",
      "l1GasUsed": "0x640"
    },
    {
      "status": "0x1",
      "cumulativeGasUsed": "0x97986",
      "logs": [
        {
          "address": "0x0bd94fda87d78d4da8c5068f677975f9cecdffe0",
          "topics": [
            "0xddf252ad1be2c89b69c2b068fc378daa952ba7f163c4a11628f55a4df523b3ef",
            "0x0000000000000000000000000000000000000000000000000000000000000000",
            "0x0000000000000000000000008f088eca0009ad61fb94a6d7e9a5d7a087c08564",
            "0x00000000000000000000000000000000000000000000000000000000003d0904"
          ],
          "data": "0x",
          "blockHash": "0x1e3642ffa845689e02da4ddf575d72e10495c7644b165acf3a2e23699eb9b269",
          "blockNumber": "0xad7aec",
          "transactionHash": "0xd3b05e38a648cfb33c588d1b9e3348a5da836eec9cef3ac6fbc14a262ba4b52c",
          "transactionIndex": "0x6",
          "logIndex": "0x5",
          "removed": false
        }
      ],
      "logsBloom": "0x00000000000000000000000000000000000000000000000000000000000000000000000000100000000001000000000000000000000000001000000000000200000000000000000000000008000000000000000000000000000000000000000020000000020000008000000000000800000000000000000000000010000000000000004000000000000000000000000000000000000000000000000000000000000000000000000000000000000000000000000000000000000000000000000000000002000000000000000000000000000000000000000000000000000020400000000000000000000000000000000000000000000000000000000040000000",
      "type": "0x2",
      "transactionHash": "0xd3b05e38a648cfb33c588d1b9e3348a5da836eec9cef3ac6fbc14a262ba4b52c",
      "transactionIndex": "0x6",
      "blockHash": "0x1e3642ffa845689e02da4ddf575d72e10495c7644b165acf3a2e23699eb9b269",
      "blockNumber": "0xad7aec",
      "gasUsed": "0x19b84",
      "effectiveGasPrice": "0xfcc0f",
      "from": "0x8f088eca0009ad61fb94a6d7e9a5d7a087c08564",
      "to": "0x0bd94fda87d78d4da8c5068f677975f9cecdffe0",
      "contractAddress": null,
      "l1BaseFeeScalar": "0x44d",
      "l1BlobBaseFee": "0x1",
      "l1BlobBaseFeeScalar": "0xa118b",
      "l1Fee": "0x63",
      "l1GasPrice": "0x13",
      "l1GasUsed": "0x640"
    },
    {
      "status": "0x1",
      "cumulativeGasUsed": "0xbe98c",
      "logs": [
        {
          "address": "0x0bd94fda87d78d4da8c5068f677975f9cecdffe0",
          "topics": [
            "0xddf252ad1be2c89b69c2b068fc378daa952ba7f163c4a11628f55a4df523b3ef",
            "0x0000000000000000000000000000000000000000000000000000000000000000",
            "0x0000000000000000000000008f088eca0009ad61fb94a6d7e9a5d7a087c08564",
            "0x00000000000000000000000000000000000000000000000000000000003d0905"
          ],
          "data": "0x",
          "blockHash": "0x8d4e6287cb06d0d1fec74fed1dde3c56598b04f0a0fc58639c707579e3139633",
          "blockNumber": "0xad7aed",
          "transactionHash": "0xba9feecc69dcf113725465342b894b087f9256b32dd53da487a3df8580404ac4",
          "transactionIndex": "0x4",
          "logIndex": "0xa",
          "removed": false
        }
      ],
      "logsBloom": "0x00000000000000000000000000000000000000000000000000000000000000000000000000100000000001000000000000000000000000000000000000000200000000000000000000000008000000000000000000000000000000000000000020000000020000008000000000000800000000000000000000000010000000000000000000000000000000000000200000000000000000000000000000000000000000000000000000000000000000000000000001000000000000000000000000000002000000000000000000000000001000000000000000000000000020400000000000000000000000000000000000000000000000000000000000000000",
      "type": "0x2",
      "transactionHash": "0xba9feecc69dcf113725465342b894b087f9256b32dd53da487a3df8580404ac4",
      "transactionIndex": "0x4",
      "blockHash": "0x8d4e6287cb06d0d1fec74fed1dde3c56598b04f0a0fc58639c707579e3139633",
      "blockNumber": "0xad7aed",
      "gasUsed": "0x19b84",
      "effectiveGasPrice": "0xfcc0f",
      "from": "0x8f088eca0009ad61fb94a6d7e9a5d7a087c08564",
      "to": "0x0bd94fda87d78d4da8c5068f677975f9cecdffe0",
      "contractAddress": null,
      "l1BaseFeeScalar": "0x44d",
      "l1BlobBaseFee": "0x1",
      "l1BlobBaseFeeScalar": "0xa118b",
      "l1Fee": "0x63",
      "l1GasPrice": "0x13",
      "l1GasUsed": "0x640"
    }
  ],
  "libraries": [],
  "pending": [],
  "returns": {},
  "timestamp": 1718506687,
  "chain": 84532,
  "commit": "3e641a5"
}