{
  "transactions": [
    {
      "hash": "0x9dd8b091ee002662ad655fe22bfa568b561c42efa5079a7f042153db4d031919",
      "transactionType": "CALL",
      "contractName": null,
      "contractAddress": "0xb88d359a7a53458487b300dba46f7da1cf22ec5f",
      "function": "mint(uint256)",
      "arguments": [
        "4"
      ],
      "transaction": {
        "from": "0x8f088eca0009ad61fb94a6d7e9a5d7a087c08564",
        "to": "0xb88d359a7a53458487b300dba46f7da1cf22ec5f",
        "gas": "0x294ab",
        "value": "0x0",
        "input": "0xa0712d680000000000000000000000000000000000000000000000000000000000000004",
        "nonce": "0xd4e",
        "chainId": "0x14a34"
      },
      "additionalContracts": [],
      "isFixedGasLimit": false
    },
    {
      "hash": "0x4aa5c6ad71e3603c5fa167172c8a30a27d86ef615ecb92758fe15ffc42acc6fa",
      "transactionType": "CALL",
      "contractName": null,
      "contractAddress": "0xb88d359a7a53458487b300dba46f7da1cf22ec5f",
      "function": "mint(uint256)",
      "arguments": [
        "4"
      ],
      "transaction": {
        "from": "0x8f088eca0009ad61fb94a6d7e9a5d7a087c08564",
        "to": "0xb88d359a7a53458487b300dba46f7da1cf22ec5f",
        "gas": "0x23867",
        "value": "0x0",
        "input": "0xa0712d680000000000000000000000000000000000000000000000000000000000000004",
        "nonce": "0xd4f",
        "chainId": "0x14a34"
      },
      "additionalContracts": [],
      "isFixedGasLimit": false
    },
    {
      "hash": "0x0c04c3fe51eadde557e4199fd6735538156dcaecaf3e47a28d88c495ca3a3cd2",
      "transactionType": "CALL",
      "contractName": null,
      "contractAddress": "0xb88d359a7a53458487b300dba46f7da1cf22ec5f",
      "function": "mint(uint256)",
      "arguments": [
        "4"
      ],
      "transaction": {
        "from": "0x8f088eca0009ad61fb94a6d7e9a5d7a087c08564",
        "to": "0xb88d359a7a53458487b300dba46f7da1cf22ec5f",
        "gas": "0x23867",
        "value": "0x0",
        "input": "0xa0712d680000000000000000000000000000000000000000000000000000000000000004",
        "nonce": "0xd50",
        "chainId": "0x14a34"
      },
      "additionalContracts": [],
      "isFixedGasLimit": false
    },
    {
      "hash": "0x67dae5e160d00d1d317c85a4433b49965e64b325a52b7b2498d1f066930ee99b",
      "transactionType": "CALL",
      "contractName": null,
      "contractAddress": "0xb88d359a7a53458487b300dba46f7da1cf22ec5f",
      "function": "mint(uint256)",
      "arguments": [
        "4"
      ],
      "transaction": {
        "from": "0x8f088eca0009ad61fb94a6d7e9a5d7a087c08564",
        "to": "0xb88d359a7a53458487b300dba46f7da1cf22ec5f",
        "gas": "0x23867",
        "value": "0x0",
        "input": "0xa0712d680000000000000000000000000000000000000000000000000000000000000004",
        "nonce": "0xd51",
        "chainId": "0x14a34"
      },
      "additionalContracts": [],
      "isFixedGasLimit": false
    },
    {
      "hash": "0x0ab0c84c1c3d2883ddc940b229df9502c96fbc5bacf4b2cc29ea8ba6bd16c1f4",
      "transactionType": "CALL",
      "contractName": null,
      "contractAddress": "0xb88d359a7a53458487b300dba46f7da1cf22ec5f",
      "function": "mint(uint256)",
      "arguments": [
        "4"
      ],
      "transaction": {
        "from": "0x8f088eca0009ad61fb94a6d7e9a5d7a087c08564",
        "to": "0xb88d359a7a53458487b300dba46f7da1cf22ec5f",
        "gas": "0x23867",
        "value": "0x0",
        "input": "0xa0712d680000000000000000000000000000000000000000000000000000000000000004",
        "nonce": "0xd52",
        "chainId": "0x14a34"
      },
      "additionalContracts": [],
      "isFixedGasLimit": false
    },
    {
      "hash": "0x11864c4635b2f5db5e0e8b35e42077eb855303eafb5d9c64733fd65cabb99866",
      "transactionType": "CALL",
      "contractName": null,
      "contractAddress": "0xb88d359a7a53458487b300dba46f7da1cf22ec5f",
      "function": "mint(uint256)",
      "arguments": [
        "4"
      ],
      "transaction": {
        "from": "0x8f088eca0009ad61fb94a6d7e9a5d7a087c08564",
        "to": "0xb88d359a7a53458487b300dba46f7da1cf22ec5f",
        "gas": "0x23867",
        "value": "0x0",
        "input": "0xa0712d680000000000000000000000000000000000000000000000000000000000000004",
        "nonce": "0xd53",
        "chainId": "0x14a34"
      },
      "additionalContracts": [],
      "isFixedGasLimit": false
    },
    {
      "hash": "0xa644a18f9a7509da592e1b314605a918966913189f7762d0c7cdfd077ac649f6",
      "transactionType": "CALL",
      "contractName": null,
      "contractAddress": "0xb88d359a7a53458487b300dba46f7da1cf22ec5f",
      "function": "mint(uint256)",
      "arguments": [
        "4"
      ],
      "transaction": {
        "from": "0x8f088eca0009ad61fb94a6d7e9a5d7a087c08564",
        "to": "0xb88d359a7a53458487b300dba46f7da1cf22ec5f",
        "gas": "0x23867",
        "value": "0x0",
        "input": "0xa0712d680000000000000000000000000000000000000000000000000000000000000004",
        "nonce": "0xd54",
        "chainId": "0x14a34"
      },
      "additionalContracts": [],
      "isFixedGasLimit": false
    },
    {
      "hash": "0x9187519d3db20c80d87d7932ffdaf330b7af3754fdc423b43f192a1d42bb2834",
      "transactionType": "CALL",
      "contractName": null,
      "contractAddress": "0xb88d359a7a53458487b300dba46f7da1cf22ec5f",
      "function": "mint(uint256)",
      "arguments": [
        "4"
      ],
      "transaction": {
        "from": "0x8f088eca0009ad61fb94a6d7e9a5d7a087c08564",
        "to": "0xb88d359a7a53458487b300dba46f7da1cf22ec5f",
        "gas": "0x23867",
        "value": "0x0",
        "input": "0xa0712d680000000000000000000000000000000000000000000000000000000000000004",
        "nonce": "0xd55",
        "chainId": "0x14a34"
      },
      "additionalContracts": [],
      "isFixedGasLimit": false
    },
    {
      "hash": "0x7d003fbcc2baf1b45eb13cf3a87175f694a864ce14c64654514764eb0d002235",
      "transactionType": "CALL",
      "contractName": null,
      "contractAddress": "0xb88d359a7a53458487b300dba46f7da1cf22ec5f",
      "function": "mint(uint256)",
      "arguments": [
        "4"
      ],
      "transaction": {
        "from": "0x8f088eca0009ad61fb94a6d7e9a5d7a087c08564",
        "to": "0xb88d359a7a53458487b300dba46f7da1cf22ec5f",
        "gas": "0x23867",
        "value": "0x0",
        "input": "0xa0712d680000000000000000000000000000000000000000000000000000000000000004",
        "nonce": "0xd56",
        "chainId": "0x14a34"
      },
      "additionalContracts": [],
      "isFixedGasLimit": false
    },
    {
      "hash": "0xf8bff7ddccb930fb033c6335f5e76b5f6bc65e110bf9206711850fc49acbced7",
      "transactionType": "CALL",
      "contractName": null,
      "contractAddress": "0xb88d359a7a53458487b300dba46f7da1cf22ec5f",
      "function": "mint(uint256)",
      "arguments": [
        "4"
      ],
      "transaction": {
        "from": "0x8f088eca0009ad61fb94a6d7e9a5d7a087c08564",
        "to": "0xb88d359a7a53458487b300dba46f7da1cf22ec5f",
        "gas": "0x23867",
        "value": "0x0",
        "input": "0xa0712d680000000000000000000000000000000000000000000000000000000000000004",
        "nonce": "0xd57",
        "chainId": "0x14a34"
      },
      "additionalContracts": [],
      "isFixedGasLimit": false
    }
  ],
  "receipts": [
    {
      "status": "0x1",
      "cumulativeGasUsed": "0x9d5f9",
      "logs": [
        {
          "address": "0xb88d359a7a53458487b300dba46f7da1cf22ec5f",
          "topics": [
            "0xddf252ad1be2c89b69c2b068fc378daa952ba7f163c4a11628f55a4df523b3ef",
            "0x0000000000000000000000000000000000000000000000000000000000000000",
            "0x0000000000000000000000008f088eca0009ad61fb94a6d7e9a5d7a087c08564",
            "0x00000000000000000000000000000000000000000000000000000000003d0901"
          ],
          "data": "0x",
          "blockHash": "0xaf845aa8f73120c18215ec0a98ac0e8fe1845735f3ddbb19bae8bbc77c95ea26",
          "blockNumber": "0xad5a3c",
          "transactionHash": "0x9dd8b091ee002662ad655fe22bfa568b561c42efa5079a7f042153db4d031919",
          "transactionIndex": "0x8",
          "logIndex": "0x5",
          "removed": false
        }
      ],
      "logsBloom": "0x00000000000000000000000000000000000000000000000000000000000000000000000000100000000001000000000000000000000000000000000000000200000000000000000000000008000000000000000000000000000000000000000000000000020000000400000000000800000000000000000400000010000000000000000000000000000000000000000000000000000000000000000000000000000000000000000000000000000000000000000000000000000000000000000008000003004000000000000000000000000000000000000000000000000020000000000000000000000000000000000000000000000000000000000000000000",
      "type": "0x2",
      "transactionHash": "0x9dd8b091ee002662ad655fe22bfa568b561c42efa5079a7f042153db4d031919",
      "transactionIndex": "0x8",
      "blockHash": "0xaf845aa8f73120c18215ec0a98ac0e8fe1845735f3ddbb19bae8bbc77c95ea26",
      "blockNumber": "0xad5a3c",
      "gasUsed": "0x1de50",
      "effectiveGasPrice": "0x86573",
      "from": "0x8f088eca0009ad61fb94a6d7e9a5d7a087c08564",
      "to": "0xb88d359a7a53458487b300dba46f7da1cf22ec5f",
      "contractAddress": null,
      "l1BaseFeeScalar": "0x44d",
      "l1BlobBaseFee": "0x1626466",
      "l1BlobBaseFeeScalar": "0xa118b",
      "l1Fee": "0x5b589a95",
      "l1GasPrice": "0xc",
      "l1GasUsed": "0x640"
    },
    {
      "status": "0x1",
      "cumulativeGasUsed": "0xb717d",
      "logs": [
        {
          "address": "0xb88d359a7a53458487b300dba46f7da1cf22ec5f",
          "topics": [
            "0xddf252ad1be2c89b69c2b068fc378daa952ba7f163c4a11628f55a4df523b3ef",
            "0x0000000000000000000000000000000000000000000000000000000000000000",
            "0x0000000000000000000000008f088eca0009ad61fb94a6d7e9a5d7a087c08564",
            "0x00000000000000000000000000000000000000000000000000000000003d0902"
          ],
          "data": "0x",
          "blockHash": "0xaf845aa8f73120c18215ec0a98ac0e8fe1845735f3ddbb19bae8bbc77c95ea26",
          "blockNumber": "0xad5a3c",
          "transactionHash": "0x4aa5c6ad71e3603c5fa167172c8a30a27d86ef615ecb92758fe15ffc42acc6fa",
          "transactionIndex": "0x9",
          "logIndex": "0x6",
          "removed": false
        }
      ],
      "logsBloom": "0x00000000000000000000000000000000000000000000000000000000000000000000000000100000000001000000000000000000000000000000000000000200000000000000000000000008000000000000000000000000000000000000000000000000020000000400000000000800000000000000000000000010000000000000000000000000000000000100000000000000000000000000000000000000000000000000000000000000000000000000000000000000000000000000000008000002004000000000000000000000000000000000000000000000000020000000000000000040000000000020000000000000000000000000000000000000",
      "type": "0x2",
      "transactionHash": "0x4aa5c6ad71e3603c5fa167172c8a30a27d86ef615ecb92758fe15ffc42acc6fa",
      "transactionIndex": "0x9",
      "blockHash": "0xaf845aa8f73120c18215ec0a98ac0e8fe1845735f3ddbb19bae8bbc77c95ea26",
      "blockNumber": "0xad5a3c",
      "gasUsed": "0x19b84",
      "effectiveGasPrice": "0x86573",
      "from": "0x8f088eca0009ad61fb94a6d7e9a5d7a087c08564",
      "to": "0xb88d359a7a53458487b300dba46f7da1cf22ec5f",
      "contractAddress": null,
      "l1BaseFeeScalar": "0x44d",
      "l1BlobBaseFee": "0x1626466",
      "l1BlobBaseFeeScalar": "0xa118b",
      "l1Fee": "0x5b589a95",
      "l1GasPrice": "0xc",
      "l1GasUsed": "0x640"
    },
    {
      "status": "0x1",
      "cumulativeGasUsed": "0xd0d01",
      "logs": [
        {
          "address": "0xb88d359a7a53458487b300dba46f7da1cf22ec5f",
          "topics": [
            "0xddf252ad1be2c89b69c2b068fc378daa952ba7f163c4a11628f55a4df523b3ef",
            "0x0000000000000000000000000000000000000000000000000000000000000000",
            "0x0000000000000000000000008f088eca0009ad61fb94a6d7e9a5d7a087c08564",
            "0x00000000000000000000000000000000000000000000000000000000003d0903"
          ],
          "data": "0x",
          "blockHash": "0xaf845aa8f73120c18215ec0a98ac0e8fe1845735f3ddbb19bae8bbc77c95ea26",
          "blockNumber": "0xad5a3c",
          "transactionHash": "0x0c04c3fe51eadde557e4199fd6735538156dcaecaf3e47a28d88c495ca3a3cd2",
          "transactionIndex": "0xa",
          "logIndex": "0x7",
          "removed": false
        }
      ],
      "logsBloom": "0x00000000000000000000000000000000000000000000000000000000000000000000000000100000000001000004000000000000000000000000000000000200000000000000000000000008000000000000000000000000000000000000001000000000020000000400000000000800000000000000000000000010000000000000000000000000000000000000000000000000000000000000000000000000000000000000000000000000000000000000000000000000000000000000000008000002004000000000001000000000000000000000000000000000000020000000000000000000000000000000000000000000000000000000000000000000",
      "type": "0x2",
      "transactionHash": "0x0c04c3fe51eadde557e4199fd6735538156dcaecaf3e47a28d88c495ca3a3cd2",
      "transactionIndex": "0xa",
      "blockHash": "0xaf845aa8f73120c18215ec0a98ac0e8fe1845735f3ddbb19bae8bbc77c95ea26",
      "blockNumber": "0xad5a3c",
      "gasUsed": "0x19b84",
      "effectiveGasPrice": "0x86573",
      "from": "0x8f088eca0009ad61fb94a6d7e9a5d7a087c08564",
      "to": "0xb88d359a7a53458487b300dba46f7da1cf22ec5f",
      "contractAddress": null,
      "l1BaseFeeScalar": "0x44d",
      "l1BlobBaseFee": "0x1626466",
      "l1BlobBaseFeeScalar": "0xa118b",
      "l1Fee": "0x5b589a95",
      "l1GasPrice": "0xc",
      "l1GasUsed": "0x640"
    },
    {
      "status": "0x1",
      "cumulativeGasUsed": "0xea885",
      "logs": [
        {
          "address": "0xb88d359a7a53458487b300dba46f7da1cf22ec5f",
          "topics": [
            "0xddf252ad1be2c89b69c2b068fc378daa952ba7f163c4a11628f55a4df523b3ef",
            "0x0000000000000000000000000000000000000000000000000000000000000000",
            "0x0000000000000000000000008f088eca0009ad61fb94a6d7e9a5d7a087c08564",
            "0x00000000000000000000000000000000000000000000000000000000003d0904"
          ],
          "data": "0x",
          "blockHash": "0xaf845aa8f73120c18215ec0a98ac0e8fe1845735f3ddbb19bae8bbc77c95ea26",
          "blockNumber": "0xad5a3c",
          "transactionHash": "0x67dae5e160d00d1d317c85a4433b49965e64b325a52b7b2498d1f066930ee99b",
          "transactionIndex": "0xb",
          "logIndex": "0x8",
          "removed": false
        }
      ],
      "logsBloom": "0x00000000000000000000000000000000000000000000000000000000000000000000000000100000000001000000000000000000000000001000000000000200000000000000000000000008000000000000000000000000000000000000000000000000020000000400000000000800000000000000000000000010000000000000004000000000000000000000000000000000000000000000000000000000000000000000000000000000000000000000000000000000000000000000000008000002004000000000000000000000000000000000000000000000000020000000000000000000000000000000000000000000000000000000000040000000",
      "type": "0x2",
      "transactionHash": "0x67dae5e160d00d1d317c85a4433b49965e64b325a52b7b2498d1f066930ee99b",
      "transactionIndex": "0xb",
      "blockHash": "0xaf845aa8f73120c18215ec0a98ac0e8fe1845735f3ddbb19bae8bbc77c95ea26",
      "blockNumber": "0xad5a3c",
      "gasUsed": "0x19b84",
      "effectiveGasPrice": "0x86573",
      "from": "0x8f088eca0009ad61fb94a6d7e9a5d7a087c08564",
      "to": "0xb88d359a7a53458487b300dba46f7da1cf22ec5f",
      "contractAddress": null,
      "l1BaseFeeScalar": "0x44d",
      "l1BlobBaseFee": "0x1626466",
      "l1BlobBaseFeeScalar": "0xa118b",
      "l1Fee": "0x5b589a95",
      "l1GasPrice": "0xc",
      "l1GasUsed": "0x640"
    },
    {
      "status": "0x1",
      "cumulativeGasUsed": "0x104409",
      "logs": [
        {
          "address": "0xb88d359a7a53458487b300dba46f7da1cf22ec5f",
          "topics": [
            "0xddf252ad1be2c89b69c2b068fc378daa952ba7f163c4a11628f55a4df523b3ef",
            "0x0000000000000000000000000000000000000000000000000000000000000000",
            "0x0000000000000000000000008f088eca0009ad61fb94a6d7e9a5d7a087c08564",
            "0x00000000000000000000000000000000000000000000000000000000003d0905"
          ],
          "data": "0x",
          "blockHash": "0xaf845aa8f73120c18215ec0a98ac0e8fe1845735f3ddbb19bae8bbc77c95ea26",
          "blockNumber": "0xad5a3c",
          "transactionHash": "0x0ab0c84c1c3d2883ddc940b229df9502c96fbc5bacf4b2cc29ea8ba6bd16c1f4",
          "transactionIndex": "0xc",
          "logIndex": "0x9",
          "removed": false
        }
      ],
      "logsBloom": "0x00000000000000000000000000000000000000000000000000000000000000000000000000100000000001000000000000000000000000000000000000000200000000000000000000000008000000000000000000000000000000000000000000000000020000000400000000000800000000000000000000000010000000000000000000000000000000000000200000000000000000000000000000000000000000000000000000000000000000000000000001000000000000000000000008000002004000000000000000000000001000000000000000000000000020000000000000000000000000000000000000000000000000000000000000000000",
      "type": "0x2",
      "transactionHash": "0x0ab0c84c1c3d2883ddc940b229df9502c96fbc5bacf4b2cc29ea8ba6bd16c1f4",
      "transactionIndex": "0xc",
      "blockHash": "0xaf845aa8f73120c18215ec0a98ac0e8fe1845735f3ddbb19bae8bbc77c95ea26",
      "blockNumber": "0xad5a3c",
      "gasUsed": "0x19b84",
      "effectiveGasPrice": "0x86573",
      "from": "0x8f088eca0009ad61fb94a6d7e9a5d7a087c08564",
      "to": "0xb88d359a7a53458487b300dba46f7da1cf22ec5f",
      "contractAddress": null,
      "l1BaseFeeScalar": "0x44d",
      "l1BlobBaseFee": "0x1626466",
      "l1BlobBaseFeeScalar": "0xa118b",
      "l1Fee": "0x5b589a95",
      "l1GasPrice": "0xc",
      "l1GasUsed": "0x640"
    },
    {
      "status": "0x1",
      "cumulativeGasUsed": "0x11df8d",
      "logs": [
        {
          "address": "0xb88d359a7a53458487b300dba46f7da1cf22ec5f",
          "topics": [
            "0xddf252ad1be2c89b69c2b068fc378daa952ba7f163c4a11628f55a4df523b3ef",
            "0x0000000000000000000000000000000000000000000000000000000000000000",
            "0x0000000000000000000000008f088eca0009ad61fb94a6d7e9a5d7a087c08564",
            "0x00000000000000000000000000000000000000000000000000000000003d0906"
          ],
          "data": "0x",
          "blockHash": "0xaf845aa8f73120c18215ec0a98ac0e8fe1845735f3ddbb19bae8bbc77c95ea26",
          "blockNumber": "0xad5a3c",
          "transactionHash": "0x11864c4635b2f5db5e0e8b35e42077eb855303eafb5d9c64733fd65cabb99866",
          "transactionIndex": "0xd",
          "logIndex": "0xa",
          "removed": false
        }
      ],
      "logsBloom": "0x00000000000000000000000000000000000000000000000000000000000000000000000000100000000001000000000000000000000000000000000000000200000000000002000000000008000000000000000000000000000000000000000000000000020000000400000000000c00000000000000000000000010000000000000000000000000000000000000000000000000000000000000000000000000000000000000000000000000000000000000000000000000000000000000000008000002004000000000000000000000000000000000000000000000000020000000000000000000000000100000000000000000000000000000000000000000",
      "type": "0x2",
      "transactionHash": "0x11864c4635b2f5db5e0e8b35e42077eb855303eafb5d9c64733fd65cabb99866",
      "transactionIndex": "0xd",
      "blockHash": "0xaf845aa8f73120c18215ec0a98ac0e8fe1845735f3ddbb19bae8bbc77c95ea26",
      "blockNumber": "0xad5a3c",
      "gasUsed": "0x19b84",
      "effectiveGasPrice": "0x86573",
      "from": "0x8f088eca0009ad61fb94a6d7e9a5d7a087c08564",
      "to": "0xb88d359a7a53458487b300dba46f7da1cf22ec5f",
      "contractAddress": null,
      "l1BaseFeeScalar": "0x44d",
      "l1BlobBaseFee": "0x1626466",
      "l1BlobBaseFeeScalar": "0xa118b",
      "l1Fee": "0x5b589a95",
      "l1GasPrice": "0xc",
      "l1GasUsed": "0x640"
    },
    {
      "status": "0x1",
      "cumulativeGasUsed": "0x137b11",
      "logs": [
        {
          "address": "0xb88d359a7a53458487b300dba46f7da1cf22ec5f",
          "topics": [
            "0xddf252ad1be2c89b69c2b068fc378daa952ba7f163c4a11628f55a4df523b3ef",
            "0x0000000000000000000000000000000000000000000000000000000000000000",
            "0x0000000000000000000000008f088eca0009ad61fb94a6d7e9a5d7a087c08564",
            "0x00000000000000000000000000000000000000000000000000000000003d0907"
          ],
          "data": "0x",
          "blockHash": "0xaf845aa8f73120c18215ec0a98ac0e8fe1845735f3ddbb19bae8bbc77c95ea26",
          "blockNumber": "0xad5a3c",
          "transactionHash": "0xa644a18f9a7509da592e1b314605a918966913189f7762d0c7cdfd077ac649f6",
          "transactionIndex": "0xe",
          "logIndex": "0xb",
          "removed": false
        }
      ],
      "logsBloom": "0x00000000000000000000000000000000000000000000000000000000000000000000000000100000000001000000000000000000000000000000000000000200000000000000000000000008000000000000000000000000000000000000000000000000020000000400000000000800000000000000000000000010000000000000000000000000000000000010000000000000000000000000000000000000000000000000000000000000000000000000000000000000000000000000000008000002004000000000000000000000000000800000000000000000000020000000000000000000000000001000000000000000000000000000000000000000",
      "type": "0x2",
      "transactionHash": "0xa644a18f9a7509da592e1b314605a918966913189f7762d0c7cdfd077ac649f6",
      "transactionIndex": "0xe",
      "blockHash": "0xaf845aa8f73120c18215ec0a98ac0e8fe1845735f3ddbb19bae8bbc77c95ea26",
      "blockNumber": "0xad5a3c",
      "gasUsed": "0x19b84",
      "effectiveGasPrice": "0x86573",
      "from": "0x8f088eca0009ad61fb94a6d7e9a5d7a087c08564",
      "to": "0xb88d359a7a53458487b300dba46f7da1cf22ec5f",
      "contractAddress": null,
      "l1BaseFeeScalar": "0x44d",
      "l1BlobBaseFee": "0x1626466",
      "l1BlobBaseFeeScalar": "0xa118b",
      "l1Fee": "0x5b589a95",
      "l1GasPrice": "0xc",
      "l1GasUsed": "0x640"
    },
    {
      "status": "0x1",
      "cumulativeGasUsed": "0x151695",
      "logs": [
        {
          "address": "0xb88d359a7a53458487b300dba46f7da1cf22ec5f",
          "topics": [
            "0xddf252ad1be2c89b69c2b068fc378daa952ba7f163c4a11628f55a4df523b3ef",
            "0x0000000000000000000000000000000000000000000000000000000000000000",
            "0x0000000000000000000000008f088eca0009ad61fb94a6d7e9a5d7a087c08564",
            "0x00000000000000000000000000000000000000000000000000000000003d0908"
          ],
          "data": "0x",
          "blockHash": "0xaf845aa8f73120c18215ec0a98ac0e8fe1845735f3ddbb19bae8bbc77c95ea26",
          "blockNumber": "0xad5a3c",
          "transactionHash": "0x9187519d3db20c80d87d7932ffdaf330b7af3754fdc423b43f192a1d42bb2834",
          "transactionIndex": "0xf",
          "logIndex": "0xc",
          "removed": false
        }
      ],
      "logsBloom": "0x00000000000000000000000000000000000000000000000000000000000000000000000000100000000001000000001000000000000000000000000000000200000000000000000000000008000000000000000000000040000000000000000000000000020000000400000000000800000000000000000000000010000000000000000000000000000000000000000000000000000000000040000000000000000000000000000000000000000000000000000000000000000000000000000008000002004000000000000000000000000000000000000000000000000020000000000000000000000000000000000000000000000000000000000000000000",
      "type": "0x2",
      "transactionHash": "0x9187519d3db20c80d87d7932ffdaf330b7af3754fdc423b43f192a1d42bb2834",
      "transactionIndex": "0xf",
      "blockHash": "0xaf845aa8f73120c18215ec0a98ac0e8fe1845735f3ddbb19bae8bbc77c95ea26",
      "blockNumber": "0xad5a3c",
      "gasUsed": "0x19b84",
      "effectiveGasPrice": "0x86573",
      "from": "0x8f088eca0009ad61fb94a6d7e9a5d7a087c08564",
      "to": "0xb88d359a7a53458487b300dba46f7da1cf22ec5f",
      "contractAddress": null,
      "l1BaseFeeScalar": "0x44d",
      "l1BlobBaseFee": "0x1626466",
      "l1BlobBaseFeeScalar": "0xa118b",
      "l1Fee": "0x5b589a95",
      "l1GasPrice": "0xc",
      "l1GasUsed": "0x640"
    },
    {
      "status": "0x1",
      "cumulativeGasUsed": "0x16b219",
      "logs": [
        {
          "address": "0xb88d359a7a53458487b300dba46f7da1cf22ec5f",
          "topics": [
            "0xddf252ad1be2c89b69c2b068fc378daa952ba7f163c4a11628f55a4df523b3ef",
            "0x0000000000000000000000000000000000000000000000000000000000000000",
            "0x0000000000000000000000008f088eca0009ad61fb94a6d7e9a5d7a087c08564",
            "0x00000000000000000000000000000000000000000000000000000000003d0909"
          ],
          "data": "0x",
          "blockHash": "0xaf845aa8f73120c18215ec0a98ac0e8fe1845735f3ddbb19bae8bbc77c95ea26",
          "blockNumber": "0xad5a3c",
          "transactionHash": "0x7d003fbcc2baf1b45eb13cf3a87175f694a864ce14c64654514764eb0d002235",
          "transactionIndex": "0x10",
          "logIndex": "0xd",
          "removed": false
        }
      ],
      "logsBloom": "0x00000020000000000000000000000000000000800000000000000000000000000000000000100400000001000000000000000000000000000000000000000200000000000000000000000008000000000000000000000000000000000000000000000000020000000400000000000800000000000000000000000010000000000000000000000000000000000000000000000000000000000000000000000000000000000000000000000000000000000000000000000000000000000000000008000002004000000000000000000000000000000000000000000000000020000000000000000000000000000000000000000000000000000000000000000000",
      "type": "0x2",
      "transactionHash": "0x7d003fbcc2baf1b45eb13cf3a87175f694a864ce14c64654514764eb0d002235",
      "transactionIndex": "0x10",
      "blockHash": "0xaf845aa8f73120c18215ec0a98ac0e8fe1845735f3ddbb19bae8bbc77c95ea26",
      "blockNumber": "0xad5a3c",
      "gasUsed": "0x19b84",
      "effectiveGasPrice": "0x86573",
      "from": "0x8f088eca0009ad61fb94a6d7e9a5d7a087c08564",
      "to": "0xb88d359a7a53458487b300dba46f7da1cf22ec5f",
      "contractAddress": null,
      "l1BaseFeeScalar": "0x44d",
      "l1BlobBaseFee": "0x1626466",
      "l1BlobBaseFeeScalar": "0xa118b",
      "l1Fee": "0x5b589a95",
      "l1GasPrice": "0xc",
      "l1GasUsed": "0x640"
    },
    {
      "status": "0x1",
      "cumulativeGasUsed": "0x184d9d",
      "logs": [
        {
          "address": "0xb88d359a7a53458487b300dba46f7da1cf22ec5f",
          "topics": [
            "0xddf252ad1be2c89b69c2b068fc378daa952ba7f163c4a11628f55a4df523b3ef",
            "0x0000000000000000000000000000000000000000000000000000000000000000",
            "0x0000000000000000000000008f088eca0009ad61fb94a6d7e9a5d7a087c08564",
            "0x00000000000000000000000000000000000000000000000000000000003d090a"
          ],
          "data": "0x",
          "blockHash": "0xaf845aa8f73120c18215ec0a98ac0e8fe1845735f3ddbb19bae8bbc77c95ea26",
          "blockNumber": "0xad5a3c",
          "transactionHash": "0xf8bff7ddccb930fb033c6335f5e76b5f6bc65e110bf9206711850fc49acbced7",
          "transactionIndex": "0x11",
          "logIndex": "0xe",
          "removed": false
        }
      ],
      "logsBloom": "0x00000000000000000000080000000000000000000000000000000000000000000000000000100000000001000000000000000000000000010000000000000200000000000000000000000008000000000000000000000000000000000000000000000000020000000400000000000800000000000000000000000010000000000000000000000400000000000000000000000000000000000000000000000000000000000000000000000000000000000000000000000000000000000000000008000002004000000000000000000000000000000000000000000000000020000000000000000000000000000000000000000000000000000000000000000000",
      "type": "0x2",
      "transactionHash": "0xf8bff7ddccb930fb033c6335f5e76b5f6bc65e110bf9206711850fc49acbced7",
      "transactionIndex": "0x11",
      "blockHash": "0xaf845aa8f73120c18215ec0a98ac0e8fe1845735f3ddbb19bae8bbc77c95ea26",
      "blockNumber": "0xad5a3c",
      "gasUsed": "0x19b84",
      "effectiveGasPrice": "0x86573",
      "from": "0x8f088eca0009ad61fb94a6d7e9a5d7a087c08564",
      "to": "0xb88d359a7a53458487b300dba46f7da1cf22ec5f",
      "contractAddress": null,
      "l1BaseFeeScalar": "0x44d",
      "l1BlobBaseFee": "0x1626466",
      "l1BlobBaseFeeScalar": "0xa118b",
      "l1Fee": "0x5b589a95",
      "l1GasPrice": "0xc",
      "l1GasUsed": "0x640"
    }
  ],
  "libraries": [],
  "pending": [],
  "returns": {},
  "timestamp": 1718489950,
  "chain": 84532,
  "commit": "3e641a5"
}