{
  "transactions": [
    {
      "hash": "0xf76439d31a084d8df21ad59fc900ee26741e8e69b797c2ba140a44626ff582dd",
      "transactionType": "CALL",
      "contractName": null,
      "contractAddress": "0xe2b6353511c5374b77aa67a1b1a9f2ede7dc1ea7",
      "function": "mint(uint256)",
      "arguments": [
        "1"
      ],
      "transaction": {
        "from": "0x8f088eca0009ad61fb94a6d7e9a5d7a087c08564",
        "to": "0xe2b6353511c5374b77aa67a1b1a9f2ede7dc1ea7",
        "gas": "0x24410",
        "value": "0x0",
        "input": "0xa0712d680000000000000000000000000000000000000000000000000000000000000001",
        "nonce": "0xc51",
        "chainId": "0x14a34"
      },
      "additionalContracts": [],
      "isFixedGasLimit": false
    },
    {
      "hash": "0x0c85334da3c704aab5dd2762f4ae938f4044a780e9173f5bb74a136631e0fa78",
      "transactionType": "CALL",
      "contractName": null,
      "contractAddress": "0xe2b6353511c5374b77aa67a1b1a9f2ede7dc1ea7",
      "function": "mint(uint256)",
      "arguments": [
        "1"
      ],
      "transaction": {
        "from": "0x8f088eca0009ad61fb94a6d7e9a5d7a087c08564",
        "to": "0xe2b6353511c5374b77aa67a1b1a9f2ede7dc1ea7",
        "gas": "0x24410",
        "value": "0x0",
        "input": "0xa0712d680000000000000000000000000000000000000000000000000000000000000001",
        "nonce": "0xc52",
        "chainId": "0x14a34"
      },
      "additionalContracts": [],
      "isFixedGasLimit": false
    },
    {
      "hash": "0x851528290bdb68a6b51e14714bd8fe8a5a3ebc5d0bc61632ad3f565f303b95d8",
      "transactionType": "CALL",
      "contractName": null,
      "contractAddress": "0xe2b6353511c5374b77aa67a1b1a9f2ede7dc1ea7",
      "function": "mint(uint256)",
      "arguments": [
        "1"
      ],
      "transaction": {
        "from": "0x8f088eca0009ad61fb94a6d7e9a5d7a087c08564",
        "to": "0xe2b6353511c5374b77aa67a1b1a9f2ede7dc1ea7",
        "gas": "0x24410",
        "value": "0x0",
        "input": "0xa0712d680000000000000000000000000000000000000000000000000000000000000001",
        "nonce": "0xc53",
        "chainId": "0x14a34"
      },
      "additionalContracts": [],
      "isFixedGasLimit": false
    },
    {
      "hash": "0xab55f5d442c7d4df4f650af1296db7d2b621ecf7bb28b9e5c5c30f970109a345",
      "transactionType": "CALL",
      "contractName": null,
      "contractAddress": "0xe2b6353511c5374b77aa67a1b1a9f2ede7dc1ea7",
      "function": "mint(uint256)",
      "arguments": [
        "1"
      ],
      "transaction": {
        "from": "0x8f088eca0009ad61fb94a6d7e9a5d7a087c08564",
        "to": "0xe2b6353511c5374b77aa67a1b1a9f2ede7dc1ea7",
        "gas": "0x24410",
        "value": "0x0",
        "input": "0xa0712d680000000000000000000000000000000000000000000000000000000000000001",
        "nonce": "0xc54",
        "chainId": "0x14a34"
      },
      "additionalContracts": [],
      "isFixedGasLimit": false
    },
    {
      "hash": "0x33a41e40361b5d56662618e857bd285356eb80f2cc7f06ac62774e6962c594bb",
      "transactionType": "CALL",
      "contractName": null,
      "contractAddress": "0xe2b6353511c5374b77aa67a1b1a9f2ede7dc1ea7",
      "function": "mint(uint256)",
      "arguments": [
        "1"
      ],
      "transaction": {
        "from": "0x8f088eca0009ad61fb94a6d7e9a5d7a087c08564",
        "to": "0xe2b6353511c5374b77aa67a1b1a9f2ede7dc1ea7",
        "gas": "0x24410",
        "value": "0x0",
        "input": "0xa0712d680000000000000000000000000000000000000000000000000000000000000001",
        "nonce": "0xc55",
        "chainId": "0x14a34"
      },
      "additionalContracts": [],
      "isFixedGasLimit": false
    },
    {
      "hash": "0x67f67d23953bdabe0195e26addfd13e18d2f771aceb1279ab555708e642f7306",
      "transactionType": "CALL",
      "contractName": null,
      "contractAddress": "0xe2b6353511c5374b77aa67a1b1a9f2ede7dc1ea7",
      "function": "mint(uint256)",
      "arguments": [
        "1"
      ],
      "transaction": {
        "from": "0x8f088eca0009ad61fb94a6d7e9a5d7a087c08564",
        "to": "0xe2b6353511c5374b77aa67a1b1a9f2ede7dc1ea7",
        "gas": "0x24410",
        "value": "0x0",
        "input": "0xa0712d680000000000000000000000000000000000000000000000000000000000000001",
        "nonce": "0xc56",
        "chainId": "0x14a34"
      },
      "additionalContracts": [],
      "isFixedGasLimit": false
    },
    {
      "hash": "0xd70a99ed0644588393b75062127f39ea39348fdd754f51aa72923b2b32114940",
      "transactionType": "CALL",
      "contractName": null,
      "contractAddress": "0xe2b6353511c5374b77aa67a1b1a9f2ede7dc1ea7",
      "function": "mint(uint256)",
      "arguments": [
        "1"
      ],
      "transaction": {
        "from": "0x8f088eca0009ad61fb94a6d7e9a5d7a087c08564",
        "to": "0xe2b6353511c5374b77aa67a1b1a9f2ede7dc1ea7",
        "gas": "0x24410",
        "value": "0x0",
        "input": "0xa0712d680000000000000000000000000000000000000000000000000000000000000001",
        "nonce": "0xc57",
        "chainId": "0x14a34"
      },
      "additionalContracts": [],
      "isFixedGasLimit": false
    },
    {
      "hash": "0x92ef9ac0aeffb41e8c02c76783312da9d2aa9d048d3c1cbde5a390a3f9205ba9",
      "transactionType": "CALL",
      "contractName": null,
      "contractAddress": "0xe2b6353511c5374b77aa67a1b1a9f2ede7dc1ea7",
      "function": "mint(uint256)",
      "arguments": [
        "1"
      ],
      "transaction": {
        "from": "0x8f088eca0009ad61fb94a6d7e9a5d7a087c08564",
        "to": "0xe2b6353511c5374b77aa67a1b1a9f2ede7dc1ea7",
        "gas": "0x24410",
        "value": "0x0",
        "input": "0xa0712d680000000000000000000000000000000000000000000000000000000000000001",
        "nonce": "0xc58",
        "chainId": "0x14a34"
      },
      "additionalContracts": [],
      "isFixedGasLimit": false
    },
    {
      "hash": "0x507c6b9e4cdc92d4f37da8f2aacda56186627f8b38a28a5ae1d6a4c18576926e",
      "transactionType": "CALL",
      "contractName": null,
      "contractAddress": "0xe2b6353511c5374b77aa67a1b1a9f2ede7dc1ea7",
      "function": "mint(uint256)",
      "arguments": [
        "1"
      ],
      "transaction": {
        "from": "0x8f088eca0009ad61fb94a6d7e9a5d7a087c08564",
        "to": "0xe2b6353511c5374b77aa67a1b1a9f2ede7dc1ea7",
        "gas": "0x24410",
        "value": "0x0",
        "input": "0xa0712d680000000000000000000000000000000000000000000000000000000000000001",
        "nonce": "0xc59",
        "chainId": "0x14a34"
      },
      "additionalContracts": [],
      "isFixedGasLimit": false
    },
    {
      "hash": "0x2a3521508e33897a306a10d971f22fa9d829dd28ebb90ee137505a438e91bf3c",
      "transactionType": "CALL",
      "contractName": null,
      "contractAddress": "0xe2b6353511c5374b77aa67a1b1a9f2ede7dc1ea7",
      "function": "mint(uint256)",
      "arguments": [
        "1"
      ],
      "transaction": {
        "from": "0x8f088eca0009ad61fb94a6d7e9a5d7a087c08564",
        "to": "0xe2b6353511c5374b77aa67a1b1a9f2ede7dc1ea7",
        "gas": "0x24410",
        "value": "0x0",
        "input": "0xa0712d680000000000000000000000000000000000000000000000000000000000000001",
        "nonce": "0xc5a",
        "chainId": "0x14a34"
      },
      "additionalContracts": [],
      "isFixedGasLimit": false
    },
    {
      "hash": "0x9f510b5909c738febd170a0c33258d6730fd0d5334fd41f8fc3de9d04056608a",
      "transactionType": "CALL",
      "contractName": null,
      "contractAddress": "0xe2b6353511c5374b77aa67a1b1a9f2ede7dc1ea7",
      "function": "mint(uint256)",
      "arguments": [
        "1"
      ],
      "transaction": {
        "from": "0x8f088eca0009ad61fb94a6d7e9a5d7a087c08564",
        "to": "0xe2b6353511c5374b77aa67a1b1a9f2ede7dc1ea7",
        "gas": "0x24410",
        "value": "0x0",
        "input": "0xa0712d680000000000000000000000000000000000000000000000000000000000000001",
        "nonce": "0xc5b",
        "chainId": "0x14a34"
      },
      "additionalContracts": [],
      "isFixedGasLimit": false
    },
    {
      "hash": "0x361f447245a233ed2d97efe7563baa868fce489404440cf0a6488d36d6aaaeaa",
      "transactionType": "CALL",
      "contractName": null,
      "contractAddress": "0xe2b6353511c5374b77aa67a1b1a9f2ede7dc1ea7",
      "function": "mint(uint256)",
      "arguments": [
        "1"
      ],
      "transaction": {
        "from": "0x8f088eca0009ad61fb94a6d7e9a5d7a087c08564",
        "to": "0xe2b6353511c5374b77aa67a1b1a9f2ede7dc1ea7",
        "gas": "0x24410",
        "value": "0x0",
        "input": "0xa0712d680000000000000000000000000000000000000000000000000000000000000001",
        "nonce": "0xc5c",
        "chainId": "0x14a34"
      },
      "additionalContracts": [],
      "isFixedGasLimit": false
    },
    {
      "hash": "0x15defb9645694aeda7d0a24372b4fe7feb9cf59d297c8a4b429b9f06bf2f216d",
      "transactionType": "CALL",
      "contractName": null,
      "contractAddress": "0xe2b6353511c5374b77aa67a1b1a9f2ede7dc1ea7",
      "function": "mint(uint256)",
      "arguments": [
        "1"
      ],
      "transaction": {
        "from": "0x8f088eca0009ad61fb94a6d7e9a5d7a087c08564",
        "to": "0xe2b6353511c5374b77aa67a1b1a9f2ede7dc1ea7",
        "gas": "0x24410",
        "value": "0x0",
        "input": "0xa0712d680000000000000000000000000000000000000000000000000000000000000001",
        "nonce": "0xc5d",
        "chainId": "0x14a34"
      },
      "additionalContracts": [],
      "isFixedGasLimit": false
    },
    {
      "hash": "0x797af16524342c27d56adfb074683450fd3137f9e8a17de42b776ede680e5a2f",
      "transactionType": "CALL",
      "contractName": null,
      "contractAddress": "0xe2b6353511c5374b77aa67a1b1a9f2ede7dc1ea7",
      "function": "mint(uint256)",
      "arguments": [
        "1"
      ],
      "transaction": {
        "from": "0x8f088eca0009ad61fb94a6d7e9a5d7a087c08564",
        "to": "0xe2b6353511c5374b77aa67a1b1a9f2ede7dc1ea7",
        "gas": "0x24410",
        "value": "0x0",
        "input": "0xa0712d680000000000000000000000000000000000000000000000000000000000000001",
        "nonce": "0xc5e",
        "chainId": "0x14a34"
      },
      "additionalContracts": [],
      "isFixedGasLimit": false
    },
    {
      "hash": "0xd8fb53ac55ab605c1e9fd1d5b001e54877358294d6ed1f1a6b28f7e94262e618",
      "transactionType": "CALL",
      "contractName": null,
      "contractAddress": "0xe2b6353511c5374b77aa67a1b1a9f2ede7dc1ea7",
      "function": "mint(uint256)",
      "arguments": [
        "1"
      ],
      "transaction": {
        "from": "0x8f088eca0009ad61fb94a6d7e9a5d7a087c08564",
        "to": "0xe2b6353511c5374b77aa67a1b1a9f2ede7dc1ea7",
        "gas": "0x24410",
        "value": "0x0",
        "input": "0xa0712d680000000000000000000000000000000000000000000000000000000000000001",
        "nonce": "0xc5f",
        "chainId": "0x14a34"
      },
      "additionalContracts": [],
      "isFixedGasLimit": false
    },
    {
      "hash": "0x1ddda9373e1b965a313feefa9443cd507feff205962a79c8803bb0471ed5e642",
      "transactionType": "CALL",
      "contractName": null,
      "contractAddress": "0xe2b6353511c5374b77aa67a1b1a9f2ede7dc1ea7",
      "function": "mint(uint256)",
      "arguments": [
        "1"
      ],
      "transaction": {
        "from": "0x8f088eca0009ad61fb94a6d7e9a5d7a087c08564",
        "to": "0xe2b6353511c5374b77aa67a1b1a9f2ede7dc1ea7",
        "gas": "0x24410",
        "value": "0x0",
        "input": "0xa0712d680000000000000000000000000000000000000000000000000000000000000001",
        "nonce": "0xc60",
        "chainId": "0x14a34"
      },
      "additionalContracts": [],
      "isFixedGasLimit": false
    },
    {
      "hash": "0xea6b8c5bff2824575c2ed5a5901870aca50dfa28fdd9b698e12112244e7cc8bf",
      "transactionType": "CALL",
      "contractName": null,
      "contractAddress": "0xe2b6353511c5374b77aa67a1b1a9f2ede7dc1ea7",
      "function": "mint(uint256)",
      "arguments": [
        "1"
      ],
      "transaction": {
        "from": "0x8f088eca0009ad61fb94a6d7e9a5d7a087c08564",
        "to": "0xe2b6353511c5374b77aa67a1b1a9f2ede7dc1ea7",
        "gas": "0x24410",
        "value": "0x0",
        "input": "0xa0712d680000000000000000000000000000000000000000000000000000000000000001",
        "nonce": "0xc61",
        "chainId": "0x14a34"
      },
      "additionalContracts": [],
      "isFixedGasLimit": false
    },
    {
      "hash": "0x5016309f68b79b13eff7e4b50dd3755636bfb2a0063d61cc5ccc0adb141b17df",
      "transactionType": "CALL",
      "contractName": null,
      "contractAddress": "0xe2b6353511c5374b77aa67a1b1a9f2ede7dc1ea7",
      "function": "mint(uint256)",
      "arguments": [
        "1"
      ],
      "transaction": {
        "from": "0x8f088eca0009ad61fb94a6d7e9a5d7a087c08564",
        "to": "0xe2b6353511c5374b77aa67a1b1a9f2ede7dc1ea7",
        "gas": "0x24410",
        "value": "0x0",
        "input": "0xa0712d680000000000000000000000000000000000000000000000000000000000000001",
        "nonce": "0xc62",
        "chainId": "0x14a34"
      },
      "additionalContracts": [],
      "isFixedGasLimit": false
    },
    {
      "hash": "0x2474e0ec16e03e194e686265cf3134460dfc6806bf628ed1f0a3d4b0534f0b73",
      "transactionType": "CALL",
      "contractName": null,
      "contractAddress": "0xe2b6353511c5374b77aa67a1b1a9f2ede7dc1ea7",
      "function": "mint(uint256)",
      "arguments": [
        "1"
      ],
      "transaction": {
        "from": "0x8f088eca0009ad61fb94a6d7e9a5d7a087c08564",
        "to": "0xe2b6353511c5374b77aa67a1b1a9f2ede7dc1ea7",
        "gas": "0x24410",
        "value": "0x0",
        "input": "0xa0712d680000000000000000000000000000000000000000000000000000000000000001",
        "nonce": "0xc63",
        "chainId": "0x14a34"
      },
      "additionalContracts": [],
      "isFixedGasLimit": false
    },
    {
      "hash": "0xd1183f60c9459bd69ddb698084b2c010f3b731ae735d8d18aaa2c327eedfff8f",
      "transactionType": "CALL",
      "contractName": null,
      "contractAddress": "0xe2b6353511c5374b77aa67a1b1a9f2ede7dc1ea7",
      "function": "mint(uint256)",
      "arguments": [
        "1"
      ],
      "transaction": {
        "from": "0x8f088eca0009ad61fb94a6d7e9a5d7a087c08564",
        "to": "0xe2b6353511c5374b77aa67a1b1a9f2ede7dc1ea7",
        "gas": "0x24410",
        "value": "0x0",
        "input": "0xa0712d680000000000000000000000000000000000000000000000000000000000000001",
        "nonce": "0xc64",
        "chainId": "0x14a34"
      },
      "additionalContracts": [],
      "isFixedGasLimit": false
    },
    {
      "hash": "0x54fb59413a6585ba734ea4b79d596853309cae0f48aa7d34601b4046916684b3",
      "transactionType": "CALL",
      "contractName": null,
      "contractAddress": "0xe2b6353511c5374b77aa67a1b1a9f2ede7dc1ea7",
      "function": "mint(uint256)",
      "arguments": [
        "1"
      ],
      "transaction": {
        "from": "0x8f088eca0009ad61fb94a6d7e9a5d7a087c08564",
        "to": "0xe2b6353511c5374b77aa67a1b1a9f2ede7dc1ea7",
        "gas": "0x24410",
        "value": "0x0",
        "input": "0xa0712d680000000000000000000000000000000000000000000000000000000000000001",
        "nonce": "0xc65",
        "chainId": "0x14a34"
      },
      "additionalContracts": [],
      "isFixedGasLimit": false
    },
    {
      "hash": "0x7467da748db23f120a456c0ca5eb39214f2299e24dc3cb7bf8aa3cd4c5b3d474",
      "transactionType": "CALL",
      "contractName": null,
      "contractAddress": "0xe2b6353511c5374b77aa67a1b1a9f2ede7dc1ea7",
      "function": "mint(uint256)",
      "arguments": [
        "1"
      ],
      "transaction": {
        "from": "0x8f088eca0009ad61fb94a6d7e9a5d7a087c08564",
        "to": "0xe2b6353511c5374b77aa67a1b1a9f2ede7dc1ea7",
        "gas": "0x24410",
        "value": "0x0",
        "input": "0xa0712d680000000000000000000000000000000000000000000000000000000000000001",
        "nonce": "0xc66",
        "chainId": "0x14a34"
      },
      "additionalContracts": [],
      "isFixedGasLimit": false
    },
    {
      "hash": "0xd33577078e0bdf74fe43f9abf6230bcd38fd6354b8af2018975f9d6eeafd1f38",
      "transactionType": "CALL",
      "contractName": null,
      "contractAddress": "0xe2b6353511c5374b77aa67a1b1a9f2ede7dc1ea7",
      "function": "mint(uint256)",
      "arguments": [
        "1"
      ],
      "transaction": {
        "from": "0x8f088eca0009ad61fb94a6d7e9a5d7a087c08564",
        "to": "0xe2b6353511c5374b77aa67a1b1a9f2ede7dc1ea7",
        "gas": "0x24410",
        "value": "0x0",
        "input": "0xa0712d680000000000000000000000000000000000000000000000000000000000000001",
        "nonce": "0xc67",
        "chainId": "0x14a34"
      },
      "additionalContracts": [],
      "isFixedGasLimit": false
    },
    {
      "hash": "0xf832ac7384216fd389c15f9f6d2cf10463e7c7f1ae3f589c7158d48ffcef58b2",
      "transactionType": "CALL",
      "contractName": null,
      "contractAddress": "0xe2b6353511c5374b77aa67a1b1a9f2ede7dc1ea7",
      "function": "mint(uint256)",
      "arguments": [
        "1"
      ],
      "transaction": {
        "from": "0x8f088eca0009ad61fb94a6d7e9a5d7a087c08564",
        "to": "0xe2b6353511c5374b77aa67a1b1a9f2ede7dc1ea7",
        "gas": "0x24410",
        "value": "0x0",
        "input": "0xa0712d680000000000000000000000000000000000000000000000000000000000000001",
        "nonce": "0xc68",
        "chainId": "0x14a34"
      },
      "additionalContracts": [],
      "isFixedGasLimit": false
    },
    {
      "hash": "0xc077b3d6e353d1e2da58e82e5e9296aaff003135046c1d7a1615c860eda58ace",
      "transactionType": "CALL",
      "contractName": null,
      "contractAddress": "0xe2b6353511c5374b77aa67a1b1a9f2ede7dc1ea7",
      "function": "mint(uint256)",
      "arguments": [
        "1"
      ],
      "transaction": {
        "from": "0x8f088eca0009ad61fb94a6d7e9a5d7a087c08564",
        "to": "0xe2b6353511c5374b77aa67a1b1a9f2ede7dc1ea7",
        "gas": "0x24410",
        "value": "0x0",
        "input": "0xa0712d680000000000000000000000000000000000000000000000000000000000000001",
        "nonce": "0xc69",
        "chainId": "0x14a34"
      },
      "additionalContracts": [],
      "isFixedGasLimit": false
    },
    {
      "hash": "0x5aa33d18f53c1db988a4cb53990314c16fd2163f0d631f88f00e9ae14af9ea57",
      "transactionType": "CALL",
      "contractName": null,
      "contractAddress": "0xe2b6353511c5374b77aa67a1b1a9f2ede7dc1ea7",
      "function": "mint(uint256)",
      "arguments": [
        "1"
      ],
      "transaction": {
        "from": "0x8f088eca0009ad61fb94a6d7e9a5d7a087c08564",
        "to": "0xe2b6353511c5374b77aa67a1b1a9f2ede7dc1ea7",
        "gas": "0x24410",
        "value": "0x0",
        "input": "0xa0712d680000000000000000000000000000000000000000000000000000000000000001",
        "nonce": "0xc6a",
        "chainId": "0x14a34"
      },
      "additionalContracts": [],
      "isFixedGasLimit": false
    },
    {
      "hash": "0x08e21cd269d5bfb8801b8e7647e16298b07a7fd9da3ce568d98d943770893593",
      "transactionType": "CALL",
      "contractName": null,
      "contractAddress": "0xe2b6353511c5374b77aa67a1b1a9f2ede7dc1ea7",
      "function": "mint(uint256)",
      "arguments": [
        "1"
      ],
      "transaction": {
        "from": "0x8f088eca0009ad61fb94a6d7e9a5d7a087c08564",
        "to": "0xe2b6353511c5374b77aa67a1b1a9f2ede7dc1ea7",
        "gas": "0x24410",
        "value": "0x0",
        "input": "0xa0712d680000000000000000000000000000000000000000000000000000000000000001",
        "nonce": "0xc6b",
        "chainId": "0x14a34"
      },
      "additionalContracts": [],
      "isFixedGasLimit": false
    },
    {
      "hash": "0x871c4090d1c78e5c9d2faf90c60d4c232e43aae8bdfa1ef5d8454f0c2eda80f5",
      "transactionType": "CALL",
      "contractName": null,
      "contractAddress": "0xe2b6353511c5374b77aa67a1b1a9f2ede7dc1ea7",
      "function": "mint(uint256)",
      "arguments": [
        "1"
      ],
      "transaction": {
        "from": "0x8f088eca0009ad61fb94a6d7e9a5d7a087c08564",
        "to": "0xe2b6353511c5374b77aa67a1b1a9f2ede7dc1ea7",
        "gas": "0x24410",
        "value": "0x0",
        "input": "0xa0712d680000000000000000000000000000000000000000000000000000000000000001",
        "nonce": "0xc6c",
        "chainId": "0x14a34"
      },
      "additionalContracts": [],
      "isFixedGasLimit": false
    },
    {
      "hash": "0x466cde2a09dfdfd0086142fc3bbab69d255a770c4bedfccd07794a1d232a3eda",
      "transactionType": "CALL",
      "contractName": null,
      "contractAddress": "0xe2b6353511c5374b77aa67a1b1a9f2ede7dc1ea7",
      "function": "mint(uint256)",
      "arguments": [
        "1"
      ],
      "transaction": {
        "from": "0x8f088eca0009ad61fb94a6d7e9a5d7a087c08564",
        "to": "0xe2b6353511c5374b77aa67a1b1a9f2ede7dc1ea7",
        "gas": "0x24410",
        "value": "0x0",
        "input": "0xa0712d680000000000000000000000000000000000000000000000000000000000000001",
        "nonce": "0xc6d",
        "chainId": "0x14a34"
      },
      "additionalContracts": [],
      "isFixedGasLimit": false
    },
    {
      "hash": "0xa9dbc1b3a6e5d15ce930d60d0b28877de3f28a4e90f5ac2a88b95f0286191e13",
      "transactionType": "CALL",
      "contractName": null,
      "contractAddress": "0xe2b6353511c5374b77aa67a1b1a9f2ede7dc1ea7",
      "function": "mint(uint256)",
      "arguments": [
        "1"
      ],
      "transaction": {
        "from": "0x8f088eca0009ad61fb94a6d7e9a5d7a087c08564",
        "to": "0xe2b6353511c5374b77aa67a1b1a9f2ede7dc1ea7",
        "gas": "0x24410",
        "value": "0x0",
        "input": "0xa0712d680000000000000000000000000000000000000000000000000000000000000001",
        "nonce": "0xc6e",
        "chainId": "0x14a34"
      },
      "additionalContracts": [],
      "isFixedGasLimit": false
    },
    {
      "hash": "0xadfe5c78f5b25f0b494da7c07e933632d2b9c4be9824c065f7b69a394976b25f",
      "transactionType": "CALL",
      "contractName": null,
      "contractAddress": "0xe2b6353511c5374b77aa67a1b1a9f2ede7dc1ea7",
      "function": "mint(uint256)",
      "arguments": [
        "1"
      ],
      "transaction": {
        "from": "0x8f088eca0009ad61fb94a6d7e9a5d7a087c08564",
        "to": "0xe2b6353511c5374b77aa67a1b1a9f2ede7dc1ea7",
        "gas": "0x24410",
        "value": "0x0",
        "input": "0xa0712d680000000000000000000000000000000000000000000000000000000000000001",
        "nonce": "0xc6f",
        "chainId": "0x14a34"
      },
      "additionalContracts": [],
      "isFixedGasLimit": false
    },
    {
      "hash": "0x3dfb8a87c5661603a9320dcfa58fa441e547208ea41098dfda3fff6cd66bcfc0",
      "transactionType": "CALL",
      "contractName": null,
      "contractAddress": "0xe2b6353511c5374b77aa67a1b1a9f2ede7dc1ea7",
      "function": "mint(uint256)",
      "arguments": [
        "1"
      ],
      "transaction": {
        "from": "0x8f088eca0009ad61fb94a6d7e9a5d7a087c08564",
        "to": "0xe2b6353511c5374b77aa67a1b1a9f2ede7dc1ea7",
        "gas": "0x24410",
        "value": "0x0",
        "input": "0xa0712d680000000000000000000000000000000000000000000000000000000000000001",
        "nonce": "0xc70",
        "chainId": "0x14a34"
      },
      "additionalContracts": [],
      "isFixedGasLimit": false
    },
    {
      "hash": "0x2450735ab0ce71286918e17a854cad9106d419297467be9e479ed09cdb395c41",
      "transactionType": "CALL",
      "contractName": null,
      "contractAddress": "0xe2b6353511c5374b77aa67a1b1a9f2ede7dc1ea7",
      "function": "mint(uint256)",
      "arguments": [
        "1"
      ],
      "transaction": {
        "from": "0x8f088eca0009ad61fb94a6d7e9a5d7a087c08564",
        "to": "0xe2b6353511c5374b77aa67a1b1a9f2ede7dc1ea7",
        "gas": "0x24410",
        "value": "0x0",
        "input": "0xa0712d680000000000000000000000000000000000000000000000000000000000000001",
        "nonce": "0xc71",
        "chainId": "0x14a34"
      },
      "additionalContracts": [],
      "isFixedGasLimit": false
    },
    {
      "hash": "0xc11e84fede5e4aee090e59d8590bd5d6f5b594a110f21cc6b3408eb5b76a0ce3",
      "transactionType": "CALL",
      "contractName": null,
      "contractAddress": "0xe2b6353511c5374b77aa67a1b1a9f2ede7dc1ea7",
      "function": "mint(uint256)",
      "arguments": [
        "1"
      ],
      "transaction": {
        "from": "0x8f088eca0009ad61fb94a6d7e9a5d7a087c08564",
        "to": "0xe2b6353511c5374b77aa67a1b1a9f2ede7dc1ea7",
        "gas": "0x24410",
        "value": "0x0",
        "input": "0xa0712d680000000000000000000000000000000000000000000000000000000000000001",
        "nonce": "0xc72",
        "chainId": "0x14a34"
      },
      "additionalContracts": [],
      "isFixedGasLimit": false
    },
    {
      "hash": "0xfa24798dbc44f2338d7beb83161cd153ea8839329941773d7de5a1d6b7e6ef76",
      "transactionType": "CALL",
      "contractName": null,
      "contractAddress": "0xe2b6353511c5374b77aa67a1b1a9f2ede7dc1ea7",
      "function": "mint(uint256)",
      "arguments": [
        "1"
      ],
      "transaction": {
        "from": "0x8f088eca0009ad61fb94a6d7e9a5d7a087c08564",
        "to": "0xe2b6353511c5374b77aa67a1b1a9f2ede7dc1ea7",
        "gas": "0x24410",
        "value": "0x0",
        "input": "0xa0712d680000000000000000000000000000000000000000000000000000000000000001",
        "nonce": "0xc73",
        "chainId": "0x14a34"
      },
      "additionalContracts": [],
      "isFixedGasLimit": false
    },
    {
      "hash": "0x6a0bb3a46a3a42e42257d6bc9f0eb2c750625ee1fa396c642975aaca0a147298",
      "transactionType": "CALL",
      "contractName": null,
      "contractAddress": "0xe2b6353511c5374b77aa67a1b1a9f2ede7dc1ea7",
      "function": "mint(uint256)",
      "arguments": [
        "1"
      ],
      "transaction": {
        "from": "0x8f088eca0009ad61fb94a6d7e9a5d7a087c08564",
        "to": "0xe2b6353511c5374b77aa67a1b1a9f2ede7dc1ea7",
        "gas": "0x24410",
        "value": "0x0",
        "input": "0xa0712d680000000000000000000000000000000000000000000000000000000000000001",
        "nonce": "0xc74",
        "chainId": "0x14a34"
      },
      "additionalContracts": [],
      "isFixedGasLimit": false
    },
    {
      "hash": "0x534bfda18cebb314e2998c581e440163cb2e80d51e5a07ecf56dbb6f2bbf7f74",
      "transactionType": "CALL",
      "contractName": null,
      "contractAddress": "0xe2b6353511c5374b77aa67a1b1a9f2ede7dc1ea7",
      "function": "mint(uint256)",
      "arguments": [
        "1"
      ],
      "transaction": {
        "from": "0x8f088eca0009ad61fb94a6d7e9a5d7a087c08564",
        "to": "0xe2b6353511c5374b77aa67a1b1a9f2ede7dc1ea7",
        "gas": "0x24410",
        "value": "0x0",
        "input": "0xa0712d680000000000000000000000000000000000000000000000000000000000000001",
        "nonce": "0xc75",
        "chainId": "0x14a34"
      },
      "additionalContracts": [],
      "isFixedGasLimit": false
    },
    {
      "hash": "0xb86471a4ac50dee440a39d9cdc26af0490a2a569586cc57c53818660bbf7e2e4",
      "transactionType": "CALL",
      "contractName": null,
      "contractAddress": "0xe2b6353511c5374b77aa67a1b1a9f2ede7dc1ea7",
      "function": "mint(uint256)",
      "arguments": [
        "1"
      ],
      "transaction": {
        "from": "0x8f088eca0009ad61fb94a6d7e9a5d7a087c08564",
        "to": "0xe2b6353511c5374b77aa67a1b1a9f2ede7dc1ea7",
        "gas": "0x24410",
        "value": "0x0",
        "input": "0xa0712d680000000000000000000000000000000000000000000000000000000000000001",
        "nonce": "0xc76",
        "chainId": "0x14a34"
      },
      "additionalContracts": [],
      "isFixedGasLimit": false
    },
    {
      "hash": "0xbbbfc377f621fa2140266ed4d3097856b6939f3790f3c924a111f57a8aeb377b",
      "transactionType": "CALL",
      "contractName": null,
      "contractAddress": "0xe2b6353511c5374b77aa67a1b1a9f2ede7dc1ea7",
      "function": "mint(uint256)",
      "arguments": [
        "1"
      ],
      "transaction": {
        "from": "0x8f088eca0009ad61fb94a6d7e9a5d7a087c08564",
        "to": "0xe2b6353511c5374b77aa67a1b1a9f2ede7dc1ea7",
        "gas": "0x24410",
        "value": "0x0",
        "input": "0xa0712d680000000000000000000000000000000000000000000000000000000000000001",
        "nonce": "0xc77",
        "chainId": "0x14a34"
      },
      "additionalContracts": [],
      "isFixedGasLimit": false
    },
    {
      "hash": "0xbeaafe41452839c8f9a3c50d92b490f42c3d0adbcd7f7743b0b199bb999c8ddf",
      "transactionType": "CALL",
      "contractName": null,
      "contractAddress": "0xe2b6353511c5374b77aa67a1b1a9f2ede7dc1ea7",
      "function": "mint(uint256)",
      "arguments": [
        "1"
      ],
      "transaction": {
        "from": "0x8f088eca0009ad61fb94a6d7e9a5d7a087c08564",
        "to": "0xe2b6353511c5374b77aa67a1b1a9f2ede7dc1ea7",
        "gas": "0x24410",
        "value": "0x0",
        "input": "0xa0712d680000000000000000000000000000000000000000000000000000000000000001",
        "nonce": "0xc78",
        "chainId": "0x14a34"
      },
      "additionalContracts": [],
      "isFixedGasLimit": false
    },
    {
      "hash": "0x73b48a5507ef25a20a55186f73e4b2288da160d50b91696cecfd90e7cf6690d3",
      "transactionType": "CALL",
      "contractName": null,
      "contractAddress": "0xe2b6353511c5374b77aa67a1b1a9f2ede7dc1ea7",
      "function": "mint(uint256)",
      "arguments": [
        "1"
      ],
      "transaction": {
        "from": "0x8f088eca0009ad61fb94a6d7e9a5d7a087c08564",
        "to": "0xe2b6353511c5374b77aa67a1b1a9f2ede7dc1ea7",
        "gas": "0x24410",
        "value": "0x0",
        "input": "0xa0712d680000000000000000000000000000000000000000000000000000000000000001",
        "nonce": "0xc79",
        "chainId": "0x14a34"
      },
      "additionalContracts": [],
      "isFixedGasLimit": false
    },
    {
      "hash": "0x9871e4faecb9ad40416b5ca9013b3de1ab9fb20b8a0717bc581f0b0a397cc775",
      "transactionType": "CALL",
      "contractName": null,
      "contractAddress": "0xe2b6353511c5374b77aa67a1b1a9f2ede7dc1ea7",
      "function": "mint(uint256)",
      "arguments": [
        "1"
      ],
      "transaction": {
        "from": "0x8f088eca0009ad61fb94a6d7e9a5d7a087c08564",
        "to": "0xe2b6353511c5374b77aa67a1b1a9f2ede7dc1ea7",
        "gas": "0x24410",
        "value": "0x0",
        "input": "0xa0712d680000000000000000000000000000000000000000000000000000000000000001",
        "nonce": "0xc7a",
        "chainId": "0x14a34"
      },
      "additionalContracts": [],
      "isFixedGasLimit": false
    },
    {
      "hash": "0x86cb3656bc5a183935f10facb7f696bf40eb3783da7d970b8c6aa13ded69c0a2",
      "transactionType": "CALL",
      "contractName": null,
      "contractAddress": "0xe2b6353511c5374b77aa67a1b1a9f2ede7dc1ea7",
      "function": "mint(uint256)",
      "arguments": [
        "1"
      ],
      "transaction": {
        "from": "0x8f088eca0009ad61fb94a6d7e9a5d7a087c08564",
        "to": "0xe2b6353511c5374b77aa67a1b1a9f2ede7dc1ea7",
        "gas": "0x24410",
        "value": "0x0",
        "input": "0xa0712d680000000000000000000000000000000000000000000000000000000000000001",
        "nonce": "0xc7b",
        "chainId": "0x14a34"
      },
      "additionalContracts": [],
      "isFixedGasLimit": false
    },
    {
      "hash": "0x8aa375d3299009c57c3329c5e80afe3c6abdcea988cef1b96f955cb82e14fb91",
      "transactionType": "CALL",
      "contractName": null,
      "contractAddress": "0xe2b6353511c5374b77aa67a1b1a9f2ede7dc1ea7",
      "function": "mint(uint256)",
      "arguments": [
        "1"
      ],
      "transaction": {
        "from": "0x8f088eca0009ad61fb94a6d7e9a5d7a087c08564",
        "to": "0xe2b6353511c5374b77aa67a1b1a9f2ede7dc1ea7",
        "gas": "0x24410",
        "value": "0x0",
        "input": "0xa0712d680000000000000000000000000000000000000000000000000000000000000001",
        "nonce": "0xc7c",
        "chainId": "0x14a34"
      },
      "additionalContracts": [],
      "isFixedGasLimit": false
    },
    {
      "hash": "0x7b4d8518cd157f57c0475dda5a1aed86b5db153440b059bc6533669332f57efe",
      "transactionType": "CALL",
      "contractName": null,
      "contractAddress": "0xe2b6353511c5374b77aa67a1b1a9f2ede7dc1ea7",
      "function": "mint(uint256)",
      "arguments": [
        "1"
      ],
      "transaction": {
        "from": "0x8f088eca0009ad61fb94a6d7e9a5d7a087c08564",
        "to": "0xe2b6353511c5374b77aa67a1b1a9f2ede7dc1ea7",
        "gas": "0x24410",
        "value": "0x0",
        "input": "0xa0712d680000000000000000000000000000000000000000000000000000000000000001",
        "nonce": "0xc7d",
        "chainId": "0x14a34"
      },
      "additionalContracts": [],
      "isFixedGasLimit": false
    },
    {
      "hash": "0x8685bcc4c57ef50c8e44e2a90444e43838585a4e7aee1d1e3afeb0e3f944cad1",
      "transactionType": "CALL",
      "contractName": null,
      "contractAddress": "0xe2b6353511c5374b77aa67a1b1a9f2ede7dc1ea7",
      "function": "mint(uint256)",
      "arguments": [
        "1"
      ],
      "transaction": {
        "from": "0x8f088eca0009ad61fb94a6d7e9a5d7a087c08564",
        "to": "0xe2b6353511c5374b77aa67a1b1a9f2ede7dc1ea7",
        "gas": "0x24410",
        "value": "0x0",
        "input": "0xa0712d680000000000000000000000000000000000000000000000000000000000000001",
        "nonce": "0xc7e",
        "chainId": "0x14a34"
      },
      "additionalContracts": [],
      "isFixedGasLimit": false
    },
    {
      "hash": "0xcd22e671f4d2de5d5f2ada60e4cf4d9ef865be31874fb2ca1bfe44259ee4fd32",
      "transactionType": "CALL",
      "contractName": null,
      "contractAddress": "0xe2b6353511c5374b77aa67a1b1a9f2ede7dc1ea7",
      "function": "mint(uint256)",
      "arguments": [
        "1"
      ],
      "transaction": {
        "from": "0x8f088eca0009ad61fb94a6d7e9a5d7a087c08564",
        "to": "0xe2b6353511c5374b77aa67a1b1a9f2ede7dc1ea7",
        "gas": "0x24410",
        "value": "0x0",
        "input": "0xa0712d680000000000000000000000000000000000000000000000000000000000000001",
        "nonce": "0xc7f",
        "chainId": "0x14a34"
      },
      "additionalContracts": [],
      "isFixedGasLimit": false
    },
    {
      "hash": "0xf26fa7e5a6ac911b37f301065ac845d8dafdb0045b6f9f0b87c0141b10af616a",
      "transactionType": "CALL",
      "contractName": null,
      "contractAddress": "0xe2b6353511c5374b77aa67a1b1a9f2ede7dc1ea7",
      "function": "mint(uint256)",
      "arguments": [
        "1"
      ],
      "transaction": {
        "from": "0x8f088eca0009ad61fb94a6d7e9a5d7a087c08564",
        "to": "0xe2b6353511c5374b77aa67a1b1a9f2ede7dc1ea7",
        "gas": "0x24410",
        "value": "0x0",
        "input": "0xa0712d680000000000000000000000000000000000000000000000000000000000000001",
        "nonce": "0xc80",
        "chainId": "0x14a34"
      },
      "additionalContracts": [],
      "isFixedGasLimit": false
    },
    {
      "hash": "0xae6ab26feedf6d94dbb318f1a4f6d483d4437345f70f670c7b8ab86ed5be4c49",
      "transactionType": "CALL",
      "contractName": null,
      "contractAddress": "0xe2b6353511c5374b77aa67a1b1a9f2ede7dc1ea7",
      "function": "mint(uint256)",
      "arguments": [
        "1"
      ],
      "transaction": {
        "from": "0x8f088eca0009ad61fb94a6d7e9a5d7a087c08564",
        "to": "0xe2b6353511c5374b77aa67a1b1a9f2ede7dc1ea7",
        "gas": "0x24410",
        "value": "0x0",
        "input": "0xa0712d680000000000000000000000000000000000000000000000000000000000000001",
        "nonce": "0xc81",
        "chainId": "0x14a34"
      },
      "additionalContracts": [],
      "isFixedGasLimit": false
    },
    {
      "hash": "0x810cefed261d042cfc4cf0f542a66eaa09133c592fe3a26bf8a2b67c44a0bc63",
      "transactionType": "CALL",
      "contractName": null,
      "contractAddress": "0xe2b6353511c5374b77aa67a1b1a9f2ede7dc1ea7",
      "function": "mint(uint256)",
      "arguments": [
        "1"
      ],
      "transaction": {
        "from": "0x8f088eca0009ad61fb94a6d7e9a5d7a087c08564",
        "to": "0xe2b6353511c5374b77aa67a1b1a9f2ede7dc1ea7",
        "gas": "0x24410",
        "value": "0x0",
        "input": "0xa0712d680000000000000000000000000000000000000000000000000000000000000001",
        "nonce": "0xc82",
        "chainId": "0x14a34"
      },
      "additionalContracts": [],
      "isFixedGasLimit": false
    },
    {
      "hash": "0x049929c24387d82b4a1de21a07d9adb68d7353bd84c6cb68a06fa09a60f22104",
      "transactionType": "CALL",
      "contractName": null,
      "contractAddress": "0xe2b6353511c5374b77aa67a1b1a9f2ede7dc1ea7",
      "function": "mint(uint256)",
      "arguments": [
        "1"
      ],
      "transaction": {
        "from": "0x8f088eca0009ad61fb94a6d7e9a5d7a087c08564",
        "to": "0xe2b6353511c5374b77aa67a1b1a9f2ede7dc1ea7",
        "gas": "0x24410",
        "value": "0x0",
        "input": "0xa0712d680000000000000000000000000000000000000000000000000000000000000001",
        "nonce": "0xc83",
        "chainId": "0x14a34"
      },
      "additionalContracts": [],
      "isFixedGasLimit": false
    },
    {
      "hash": "0x79c7827b3336194aec4111eb806d60220534908376093c755ced41d3590865b0",
      "transactionType": "CALL",
      "contractName": null,
      "contractAddress": "0xe2b6353511c5374b77aa67a1b1a9f2ede7dc1ea7",
      "function": "mint(uint256)",
      "arguments": [
        "1"
      ],
      "transaction": {
        "from": "0x8f088eca0009ad61fb94a6d7e9a5d7a087c08564",
        "to": "0xe2b6353511c5374b77aa67a1b1a9f2ede7dc1ea7",
        "gas": "0x24410",
        "value": "0x0",
        "input": "0xa0712d680000000000000000000000000000000000000000000000000000000000000001",
        "nonce": "0xc84",
        "chainId": "0x14a34"
      },
      "additionalContracts": [],
      "isFixedGasLimit": false
    },
    {
      "hash": "0x67b0a0ff76935d6b2a640942059d89196a4c0d130920f1a25cb4207b307e507a",
      "transactionType": "CALL",
      "contractName": null,
      "contractAddress": "0xe2b6353511c5374b77aa67a1b1a9f2ede7dc1ea7",
      "function": "mint(uint256)",
      "arguments": [
        "1"
      ],
      "transaction": {
        "from": "0x8f088eca0009ad61fb94a6d7e9a5d7a087c08564",
        "to": "0xe2b6353511c5374b77aa67a1b1a9f2ede7dc1ea7",
        "gas": "0x24410",
        "value": "0x0",
        "input": "0xa0712d680000000000000000000000000000000000000000000000000000000000000001",
        "nonce": "0xc85",
        "chainId": "0x14a34"
      },
      "additionalContracts": [],
      "isFixedGasLimit": false
    },
    {
      "hash": "0x3826798cca6083043dd0e91aced11b485043cae3b8de5325f390025e720b44f7",
      "transactionType": "CALL",
      "contractName": null,
      "contractAddress": "0xe2b6353511c5374b77aa67a1b1a9f2ede7dc1ea7",
      "function": "mint(uint256)",
      "arguments": [
        "1"
      ],
      "transaction": {
        "from": "0x8f088eca0009ad61fb94a6d7e9a5d7a087c08564",
        "to": "0xe2b6353511c5374b77aa67a1b1a9f2ede7dc1ea7",
        "gas": "0x24410",
        "value": "0x0",
        "input": "0xa0712d680000000000000000000000000000000000000000000000000000000000000001",
        "nonce": "0xc86",
        "chainId": "0x14a34"
      },
      "additionalContracts": [],
      "isFixedGasLimit": false
    },
    {
      "hash": "0x9e250dc748a7f9da12078a73c8dd7de977a84cab4ba5d582effb8367c970e7c7",
      "transactionType": "CALL",
      "contractName": null,
      "contractAddress": "0xe2b6353511c5374b77aa67a1b1a9f2ede7dc1ea7",
      "function": "mint(uint256)",
      "arguments": [
        "1"
      ],
      "transaction": {
        "from": "0x8f088eca0009ad61fb94a6d7e9a5d7a087c08564",
        "to": "0xe2b6353511c5374b77aa67a1b1a9f2ede7dc1ea7",
        "gas": "0x24410",
        "value": "0x0",
        "input": "0xa0712d680000000000000000000000000000000000000000000000000000000000000001",
        "nonce": "0xc87",
        "chainId": "0x14a34"
      },
      "additionalContracts": [],
      "isFixedGasLimit": false
    },
    {
      "hash": "0xdb10c7a0aad55079e6334ba438e4973b542dbbe016544de42b554e32132f3e0e",
      "transactionType": "CALL",
      "contractName": null,
      "contractAddress": "0xe2b6353511c5374b77aa67a1b1a9f2ede7dc1ea7",
      "function": "mint(uint256)",
      "arguments": [
        "1"
      ],
      "transaction": {
        "from": "0x8f088eca0009ad61fb94a6d7e9a5d7a087c08564",
        "to": "0xe2b6353511c5374b77aa67a1b1a9f2ede7dc1ea7",
        "gas": "0x24410",
        "value": "0x0",
        "input": "0xa0712d680000000000000000000000000000000000000000000000000000000000000001",
        "nonce": "0xc88",
        "chainId": "0x14a34"
      },
      "additionalContracts": [],
      "isFixedGasLimit": false
    }
  ],
  "receipts": [
    {
      "status": "0x1",
      "cumulativeGasUsed": "0x4a2d0",
      "logs": [
        {
          "address": "0xe2b6353511c5374b77aa67a1b1a9f2ede7dc1ea7",
          "topics": [
            "0xddf252ad1be2c89b69c2b068fc378daa952ba7f163c4a11628f55a4df523b3ef",
            "0x0000000000000000000000000000000000000000000000000000000000000000",
            "0x0000000000000000000000008f088eca0009ad61fb94a6d7e9a5d7a087c08564",
            "0x00000000000000000000000000000000000000000000000000000000000f42cf"
          ],
          "data": "0x",
          "blockHash": "0x93b81b96f41a9cd52102e2fbd6fcb920df66f684870f98bd0fb15c9ac0f0f2ba",
          "blockNumber": "0xa04624",
          "transactionHash": "0xf76439d31a084d8df21ad59fc900ee26741e8e69b797c2ba140a44626ff582dd",
          "transactionIndex": "0x3",
          "logIndex": "0x0",
          "removed": false
        }
      ],
      "logsBloom": "0x00000000000000000000000000000000000000000000000000000000000000000000000000100000000001000000000000000000000000000000020000000200000800000000000000000008000000000000000000000000000000000000000000000000020000000000000000000800000000008000000000000010000000000000000000000000000000000000000000000000000000000000000000000000000000000000000010000000000000000000000000000000000000000000000000000002000000000000000000000000000000000000000000000000000020000000000010000000000000000000000000000000040000000000000000000000",
      "type": "0x2",
      "transactionHash": "0xf76439d31a084d8df21ad59fc900ee26741e8e69b797c2ba140a44626ff582dd",
      "transactionIndex": "0x3",
      "blockHash": "0x93b81b96f41a9cd52102e2fbd6fcb920df66f684870f98bd0fb15c9ac0f0f2ba",
      "blockNumber": "0xa04624",
      "gasUsed": "0x1a3f5",
      "effectiveGasPrice": "0x187d0",
      "from": "0x8f088eca0009ad61fb94a6d7e9a5d7a087c08564",
      "to": "0xe2b6353511c5374b77aa67a1b1a9f2ede7dc1ea7",
      "contractAddress": null,
      "l1Fee": "0x185fd4",
      "l1GasPrice": "0xb116b",
      "l1GasUsed": "0x7d0"
    },
    {
      "status": "0x1",
      "cumulativeGasUsed": "0x646c5",
      "logs": [
        {
          "address": "0xe2b6353511c5374b77aa67a1b1a9f2ede7dc1ea7",
          "topics": [
            "0xddf252ad1be2c89b69c2b068fc378daa952ba7f163c4a11628f55a4df523b3ef",
            "0x0000000000000000000000000000000000000000000000000000000000000000",
            "0x0000000000000000000000008f088eca0009ad61fb94a6d7e9a5d7a087c08564",
            "0x00000000000000000000000000000000000000000000000000000000000f42d0"
          ],
          "data": "0x",
          "blockHash": "0x93b81b96f41a9cd52102e2fbd6fcb920df66f684870f98bd0fb15c9ac0f0f2ba",
          "blockNumber": "0xa04624",
          "transactionHash": "0x0c85334da3c704aab5dd2762f4ae938f4044a780e9173f5bb74a136631e0fa78",
          "transactionIndex": "0x4",
          "logIndex": "0x1",
          "removed": false
        }
      ],
      "logsBloom": "0x00000000000000000000000000000000000000020000000000000000000000000000000000100000000001000000000000000000000000000000020000000200000000000000000000000008000000000000000000000000000000000000000000000000020000000000000000000800000000008000000000000010000000000000000000000000000000000000000000000000000000000000000000000000000000000000000010000000000000000000000000000000000000000000000000000002000000000000800000000000000000000000100000000000000020000000000000000000000000000000000000000000000000000000000000000000",
      "type": "0x2",
      "transactionHash": "0x0c85334da3c704aab5dd2762f4ae938f4044a780e9173f5bb74a136631e0fa78",
      "transactionIndex": "0x4",
      "blockHash": "0x93b81b96f41a9cd52102e2fbd6fcb920df66f684870f98bd0fb15c9ac0f0f2ba",
      "blockNumber": "0xa04624",
      "gasUsed": "0x1a3f5",
      "effectiveGasPrice": "0x187d0",
      "from": "0x8f088eca0009ad61fb94a6d7e9a5d7a087c08564",
      "to": "0xe2b6353511c5374b77aa67a1b1a9f2ede7dc1ea7",
      "contractAddress": null,
      "l1Fee": "0x188545",
      "l1GasPrice": "0xb116b",
      "l1GasUsed": "0x7dc"
    },
    {
      "status": "0x1",
      "cumulativeGasUsed": "0x7eaba",
      "logs": [
        {
          "address": "0xe2b6353511c5374b77aa67a1b1a9f2ede7dc1ea7",
          "topics": [
            "0xddf252ad1be2c89b69c2b068fc378daa952ba7f163c4a11628f55a4df523b3ef",
            "0x0000000000000000000000000000000000000000000000000000000000000000",
            "0x0000000000000000000000008f088eca0009ad61fb94a6d7e9a5d7a087c08564",
            "0x00000000000000000000000000000000000000000000000000000000000f42d1"
          ],
          "data": "0x",
          "blockHash": "0x93b81b96f41a9cd52102e2fbd6fcb920df66f684870f98bd0fb15c9ac0f0f2ba",
          "blockNumber": "0xa04624",
          "transactionHash": "0x851528290bdb68a6b51e14714bd8fe8a5a3ebc5d0bc61632ad3f565f303b95d8",
          "transactionIndex": "0x5",
          "logIndex": "0x2",
          "removed": false
        }
      ],
      "logsBloom": "0x00000000000000000000000000000000000000000000000000000000000000000000000000100000000001000000000020000000000000000000020000000200000000000000000000000008000000000000000000000000000000000000000000000000020000000000000000000800000000008000000000000010000000000000000000000000000000000000000000000000000000000000000000000000000000000000000010000000000000000000000000000000000000080000000000000002000000000000000000000000000000000000000000000000000020000000000000000000000000000000000100000000000000000000000000000000",
      "type": "0x2",
      "transactionHash": "0x851528290bdb68a6b51e14714bd8fe8a5a3ebc5d0bc61632ad3f565f303b95d8",
      "transactionIndex": "0x5",
      "blockHash": "0x93b81b96f41a9cd52102e2fbd6fcb920df66f684870f98bd0fb15c9ac0f0f2ba",
      "blockNumber": "0xa04624",
      "gasUsed": "0x1a3f5",
      "effectiveGasPrice": "0x187d0",
      "from": "0x8f088eca0009ad61fb94a6d7e9a5d7a087c08564",
      "to": "0xe2b6353511c5374b77aa67a1b1a9f2ede7dc1ea7",
      "contractAddress": null,
      "l1Fee": "0x188545",
      "l1GasPrice": "0xb116b",
      "l1GasUsed": "0x7dc"
    },
    {
      "status": "0x1",
      "cumulativeGasUsed": "0x98eaf",
      "logs": [
        {
          "address": "0xe2b6353511c5374b77aa67a1b1a9f2ede7dc1ea7",
          "topics": [
            "0xddf252ad1be2c89b69c2b068fc378daa952ba7f163c4a11628f55a4df523b3ef",
            "0x0000000000000000000000000000000000000000000000000000000000000000",
            "0x0000000000000000000000008f088eca0009ad61fb94a6d7e9a5d7a087c08564",
            "0x00000000000000000000000000000000000000000000000000000000000f42d2"
          ],
          "data": "0x",
          "blockHash": "0x93b81b96f41a9cd52102e2fbd6fcb920df66f684870f98bd0fb15c9ac0f0f2ba",
          "blockNumber": "0xa04624",
          "transactionHash": "0xab55f5d442c7d4df4f650af1296db7d2b621ecf7bb28b9e5c5c30f970109a345",
          "transactionIndex": "0x6",
          "logIndex": "0x3",
          "removed": false
        }
      ],
      "logsBloom": "0x00000000000000000002000000000000000000000000000000000000000000000000000000100000000001000000000000000000000000000000020000000200000000000000000000000008000000000000000000000000000000000000004000000000020000000000000000000800000000008000000000000010000000000000000000000000000000000000000000000000000000000000000000000000000000000000000010000000000000000000000000000000000000000000000000000002000000000000000000000000000000000000000000000000000020000000000000800000000000000000000000000000000000000000000000000000",
      "type": "0x2",
      "transactionHash": "0xab55f5d442c7d4df4f650af1296db7d2b621ecf7bb28b9e5c5c30f970109a345",
      "transactionIndex": "0x6",
      "blockHash": "0x93b81b96f41a9cd52102e2fbd6fcb920df66f684870f98bd0fb15c9ac0f0f2ba",
      "blockNumber": "0xa04624",
      "gasUsed": "0x1a3f5",
      "effectiveGasPrice": "0x187d0",
      "from": "0x8f088eca0009ad61fb94a6d7e9a5d7a087c08564",
      "to": "0xe2b6353511c5374b77aa67a1b1a9f2ede7dc1ea7",
      "contractAddress": null,
      "l1Fee": "0x188545",
      "l1GasPrice": "0xb116b",
      "l1GasUsed": "0x7dc"
    },
    {
      "status": "0x1",
      "cumulativeGasUsed": "0xb32a4",
      "logs": [
        {
          "address": "0xe2b6353511c5374b77aa67a1b1a9f2ede7dc1ea7",
          "topics": [
            "0xddf252ad1be2c89b69c2b068fc378daa952ba7f163c4a11628f55a4df523b3ef",
            "0x0000000000000000000000000000000000000000000000000000000000000000",
            "0x0000000000000000000000008f088eca0009ad61fb94a6d7e9a5d7a087c08564",
            "0x00000000000000000000000000000000000000000000000000000000000f42d3"
          ],
          "data": "0x",
          "blockHash": "0x93b81b96f41a9cd52102e2fbd6fcb920df66f684870f98bd0fb15c9ac0f0f2ba",
          "blockNumber": "0xa04624",
          "transactionHash": "0x33a41e40361b5d56662618e857bd285356eb80f2cc7f06ac62774e6962c594bb",
          "transactionIndex": "0x7",
          "logIndex": "0x4",
          "removed": false
        }
      ],
      "logsBloom": "0x00000000000000000000000000000000000000000000000000000000000000400000000000100000000001000000000000000000000000000000020000000200000000000000000000000008000000000000000000000000000000000000000000000000020000000000000000000800000000008000000000000010000008000000000000000000000000000000000000000000000000000000000000000000000000000000000010000000000000000000000000000000000000000000000000000002000000000000000000000000000000000000000000000000000030000000000000000000000000000000000000000000000000000000000000000000",
      "type": "0x2",
      "transactionHash": "0x33a41e40361b5d56662618e857bd285356eb80f2cc7f06ac62774e6962c594bb",
      "transactionIndex": "0x7",
      "blockHash": "0x93b81b96f41a9cd52102e2fbd6fcb920df66f684870f98bd0fb15c9ac0f0f2ba",
      "blockNumber": "0xa04624",
      "gasUsed": "0x1a3f5",
      "effectiveGasPrice": "0x187d0",
      "from": "0x8f088eca0009ad61fb94a6d7e9a5d7a087c08564",
      "to": "0xe2b6353511c5374b77aa67a1b1a9f2ede7dc1ea7",
      "contractAddress": null,
      "l1Fee": "0x185fd4",
      "l1GasPrice": "0xb116b",
      "l1GasUsed": "0x7d0"
    },
    {
      "status": "0x1",
      "cumulativeGasUsed": "0xcd699",
      "logs": [
        {
          "address": "0xe2b6353511c5374b77aa67a1b1a9f2ede7dc1ea7",
          "topics": [
            "0xddf252ad1be2c89b69c2b068fc378daa952ba7f163c4a11628f55a4df523b3ef",
            "0x0000000000000000000000000000000000000000000000000000000000000000",
            "0x0000000000000000000000008f088eca0009ad61fb94a6d7e9a5d7a087c08564",
            "0x00000000000000000000000000000000000000000000000000000000000f42d4"
          ],
          "data": "0x",
          "blockHash": "0x93b81b96f41a9cd52102e2fbd6fcb920df66f684870f98bd0fb15c9ac0f0f2ba",
          "blockNumber": "0xa04624",
          "transactionHash": "0x67f67d23953bdabe0195e26addfd13e18d2f771aceb1279ab555708e642f7306",
          "transactionIndex": "0x8",
          "logIndex": "0x5",
          "removed": false
        }
      ],
      "logsBloom": "0x00000000000000000000000000000000000000000000000000000000000000000000000000100000000001000000000000000000000000000000020000000200000000000000000000000008000000000000000000000000000000000000000000000000020000000000000000000800000000008000000000000010000000000000000000000000000000000000000000000004000000000000000000000000000000000000000010000000000000000000000002000000000000000000000000000002000000000000000000000000000000000000000000000000000020000000000000000000000008000000000000000000000000000000000000000000",
      "type": "0x2",
      "transactionHash": "0x67f67d23953bdabe0195e26addfd13e18d2f771aceb1279ab555708e642f7306",
      "transactionIndex": "0x8",
      "blockHash": "0x93b81b96f41a9cd52102e2fbd6fcb920df66f684870f98bd0fb15c9ac0f0f2ba",
      "blockNumber": "0xa04624",
      "gasUsed": "0x1a3f5",
      "effectiveGasPrice": "0x187d0",
      "from": "0x8f088eca0009ad61fb94a6d7e9a5d7a087c08564",
      "to": "0xe2b6353511c5374b77aa67a1b1a9f2ede7dc1ea7",
      "contractAddress": null,
      "l1Fee": "0x185fd4",
      "l1GasPrice": "0xb116b",
      "l1GasUsed": "0x7d0"
    },
    {
      "status": "0x1",
      "cumulativeGasUsed": "0xe7a8e",
      "logs": [
        {
          "address": "0xe2b6353511c5374b77aa67a1b1a9f2ede7dc1ea7",
          "topics": [
            "0xddf252ad1be2c89b69c2b068fc378daa952ba7f163c4a11628f55a4df523b3ef",
            "0x0000000000000000000000000000000000000000000000000000000000000000",
            "0x0000000000000000000000008f088eca0009ad61fb94a6d7e9a5d7a087c08564",
            "0x00000000000000000000000000000000000000000000000000000000000f42d5"
          ],
          "data": "0x",
          "blockHash": "0x93b81b96f41a9cd52102e2fbd6fcb920df66f684870f98bd0fb15c9ac0f0f2ba",
          "blockNumber": "0xa04624",
          "transactionHash": "0xd70a99ed0644588393b75062127f39ea39348fdd754f51aa72923b2b32114940",
          "transactionIndex": "0x9",
          "logIndex": "0x6",
          "removed": false
        }
      ],
      "logsBloom": "0x00000000000000000000000000000000000000000000000000000000000000000000000000100000000001000000000200000000000000000000020000000200000000000000000000000008000000000000000000000000000000000000000000000000020000000000000000000800000000008000000000000010000000000000000000000000000000000000000000000000000000000000000000000000000000000000000010000000000000000000000000000000000000000000000800000002800000000000000000000000000000000000000000000000000020000000000000000000000000000000000000000000000000000000000000000000",
      "type": "0x2",
      "transactionHash": "0xd70a99ed0644588393b75062127f39ea39348fdd754f51aa72923b2b32114940",
      "transactionIndex": "0x9",
      "blockHash": "0x93b81b96f41a9cd52102e2fbd6fcb920df66f684870f98bd0fb15c9ac0f0f2ba",
      "blockNumber": "0xa04624",
      "gasUsed": "0x1a3f5",
      "effectiveGasPrice": "0x187d0",
      "from": "0x8f088eca0009ad61fb94a6d7e9a5d7a087c08564",
      "to": "0xe2b6353511c5374b77aa67a1b1a9f2ede7dc1ea7",
      "contractAddress": null,
      "l1Fee": "0x185359",
      "l1GasPrice": "0xb116b",
      "l1GasUsed": "0x7cc"
    },
    {
      "status": "0x1",
      "cumulativeGasUsed": "0x101e83",
      "logs": [
        {
          "address": "0xe2b6353511c5374b77aa67a1b1a9f2ede7dc1ea7",
          "topics": [
            "0xddf252ad1be2c89b69c2b068fc378daa952ba7f163c4a11628f55a4df523b3ef",
            "0x0000000000000000000000000000000000000000000000000000000000000000",
            "0x0000000000000000000000008f088eca0009ad61fb94a6d7e9a5d7a087c08564",
            "0x00000000000000000000000000000000000000000000000000000000000f42d6"
          ],
          "data": "0x",
          "blockHash": "0x93b81b96f41a9cd52102e2fbd6fcb920df66f684870f98bd0fb15c9ac0f0f2ba",
          "blockNumber": "0xa04624",
          "transactionHash": "0x92ef9ac0aeffb41e8c02c76783312da9d2aa9d048d3c1cbde5a390a3f9205ba9",
          "transactionIndex": "0xa",
          "logIndex": "0x7",
          "removed": false
        }
      ],
      "logsBloom": "0x00000000000000000000000000000000000000000000000000000000000000000000000000100000000001000000000000000000000000000000020000000200000000000000000000000008000000000000000000000000000000000000000000000000020000000000000000000800000000008000000000000110000000000000008000000000000000000000000000000000000000000000000000000000000000000000000010000100000000000000000000000000000000000000000000000002000000000000000000000000000000000000000000000000000020000000000000000000000000000000000000000000000000000000000000000000",
      "type": "0x2",
      "transactionHash": "0x92ef9ac0aeffb41e8c02c76783312da9d2aa9d048d3c1cbde5a390a3f9205ba9",
      "transactionIndex": "0xa",
      "blockHash": "0x93b81b96f41a9cd52102e2fbd6fcb920df66f684870f98bd0fb15c9ac0f0f2ba",
      "blockNumber": "0xa04624",
      "gasUsed": "0x1a3f5",
      "effectiveGasPrice": "0x187d0",
      "from": "0x8f088eca0009ad61fb94a6d7e9a5d7a087c08564",
      "to": "0xe2b6353511c5374b77aa67a1b1a9f2ede7dc1ea7",
      "contractAddress": null,
      "l1Fee": "0x188545",
      "l1GasPrice": "0xb116b",
      "l1GasUsed": "0x7dc"
    },
    {
      "status": "0x1",
      "cumulativeGasUsed": "0x11c278",
      "logs": [
        {
          "address": "0xe2b6353511c5374b77aa67a1b1a9f2ede7dc1ea7",
          "topics": [
            "0xddf252ad1be2c89b69c2b068fc378daa952ba7f163c4a11628f55a4df523b3ef",
            "0x0000000000000000000000000000000000000000000000000000000000000000",
            "0x0000000000000000000000008f088eca0009ad61fb94a6d7e9a5d7a087c08564",
            "0x00000000000000000000000000000000000000000000000000000000000f42d7"
          ],
          "data": "0x",
          "blockHash": "0x93b81b96f41a9cd52102e2fbd6fcb920df66f684870f98bd0fb15c9ac0f0f2ba",
          "blockNumber": "0xa04624",
          "transactionHash": "0x507c6b9e4cdc92d4f37da8f2aacda56186627f8b38a28a5ae1d6a4c18576926e",
          "transactionIndex": "0xb",
          "logIndex": "0x8",
          "removed": false
        }
      ],
      "logsBloom": "0x00000000000000000000000000000000000000000000000000000000000000002000000000100000000001000000000000000000000000000000020000000200000000000000000000000008000000000000000000000000000000000000000000000000020000000000000000000800000000008000000000000010000000000000000000000000000000000000800000000000000000000000000000000000000000000000000010000000000000000000000004000000000000000000000000000002000000000000000000000000000000000000000000000000000020000000000000000000000000000000000000000000000000000000000000000000",
      "type": "0x2",
      "transactionHash": "0x507c6b9e4cdc92d4f37da8f2aacda56186627f8b38a28a5ae1d6a4c18576926e",
      "transactionIndex": "0xb",
      "blockHash": "0x93b81b96f41a9cd52102e2fbd6fcb920df66f684870f98bd0fb15c9ac0f0f2ba",
      "blockNumber": "0xa04624",
      "gasUsed": "0x1a3f5",
      "effectiveGasPrice": "0x187d0",
      "from": "0x8f088eca0009ad61fb94a6d7e9a5d7a087c08564",
      "to": "0xe2b6353511c5374b77aa67a1b1a9f2ede7dc1ea7",
      "contractAddress": null,
      "l1Fee": "0x185fd4",
      "l1GasPrice": "0xb116b",
      "l1GasUsed": "0x7d0"
    },
    {
      "status": "0x1",
      "cumulativeGasUsed": "0x13666d",
      "logs": [
        {
          "address": "0xe2b6353511c5374b77aa67a1b1a9f2ede7dc1ea7",
          "topics": [
            "0xddf252ad1be2c89b69c2b068fc378daa952ba7f163c4a11628f55a4df523b3ef",
            "0x0000000000000000000000000000000000000000000000000000000000000000",
            "0x0000000000000000000000008f088eca0009ad61fb94a6d7e9a5d7a087c08564",
            "0x00000000000000000000000000000000000000000000000000000000000f42d8"
          ],
          "data": "0x",
          "blockHash": "0x93b81b96f41a9cd52102e2fbd6fcb920df66f684870f98bd0fb15c9ac0f0f2ba",
          "blockNumber": "0xa04624",
          "transactionHash": "0x2a3521508e33897a306a10d971f22fa9d829dd28ebb90ee137505a438e91bf3c",
          "transactionIndex": "0xc",
          "logIndex": "0x9",
          "removed": false
        }
      ],
      "logsBloom": "0x00000000000000000000000000000000000000000000000000000000000000000000000000100000000001000000000000000000000000000000020000000200000000000000000000000008000000000000000000000000000000000000000000000000020000000000000000000800000000008000000000000010000000000000000000000008000000000000000000000000000000000000000000000000000000000000000010000000000000000000000000000000000000000000000000000002000000000000000000000000000000001000000000000000000020000000000000000000000000000000000000000000000000000000000000020000",
      "type": "0x2",
      "transactionHash": "0x2a3521508e33897a306a10d971f22fa9d829dd28ebb90ee137505a438e91bf3c",
      "transactionIndex": "0xc",
      "blockHash": "0x93b81b96f41a9cd52102e2fbd6fcb920df66f684870f98bd0fb15c9ac0f0f2ba",
      "blockNumber": "0xa04624",
      "gasUsed": "0x1a3f5",
      "effectiveGasPrice": "0x187d0",
      "from": "0x8f088eca0009ad61fb94a6d7e9a5d7a087c08564",
      "to": "0xe2b6353511c5374b77aa67a1b1a9f2ede7dc1ea7",
      "contractAddress": null,
      "l1Fee": "0x188545",
      "l1GasPrice": "0xb116b",
      "l1GasUsed": "0x7dc"
    },
    {
      "status": "0x1",
      "cumulativeGasUsed": "0x150a62",
      "logs": [
        {
          "address": "0xe2b6353511c5374b77aa67a1b1a9f2ede7dc1ea7",
          "topics": [
            "0xddf252ad1be2c89b69c2b068fc378daa952ba7f163c4a11628f55a4df523b3ef",
            "0x0000000000000000000000000000000000000000000000000000000000000000",
            "0x0000000000000000000000008f088eca0009ad61fb94a6d7e9a5d7a087c08564",
            "0x00000000000000000000000000000000000000000000000000000000000f42d9"
          ],
          "data": "0x",
          "blockHash": "0x93b81b96f41a9cd52102e2fbd6fcb920df66f684870f98bd0fb15c9ac0f0f2ba",
          "blockNumber": "0xa04624",
          "transactionHash": "0x9f510b5909c738febd170a0c33258d6730fd0d5334fd41f8fc3de9d04056608a",
          "transactionIndex": "0xd",
          "logIndex": "0xa",
          "removed": false
        }
      ],
      "logsBloom": "0x00000000000000000000000000000000000000000000000000000000000000000000000000100000000001000000000000000000000000000000020000000200000000000000000000000008000000100000000000000000000000000000000000000000020000000000000000000800000000008000000000000010000000000000000000000000000000000000000000000000000000000000000000000000000000000000000010000000000000000000000000000000000000000000000000000002000000000000000000004000000000000000000000000000000020000000000000000000000000000000000000000000000040000000000000000000",
      "type": "0x2",
      "transactionHash": "0x9f510b5909c738febd170a0c33258d6730fd0d5334fd41f8fc3de9d04056608a",
      "transactionIndex": "0xd",
      "blockHash": "0x93b81b96f41a9cd52102e2fbd6fcb920df66f684870f98bd0fb15c9ac0f0f2ba",
      "blockNumber": "0xa04624",
      "gasUsed": "0x1a3f5",
      "effectiveGasPrice": "0x187d0",
      "from": "0x8f088eca0009ad61fb94a6d7e9a5d7a087c08564",
      "to": "0xe2b6353511c5374b77aa67a1b1a9f2ede7dc1ea7",
      "contractAddress": null,
      "l1Fee": "0x188545",
      "l1GasPrice": "0xb116b",
      "l1GasUsed": "0x7dc"
    },
    {
      "status": "0x1",
      "cumulativeGasUsed": "0x16ae57",
      "logs": [
        {
          "address": "0xe2b6353511c5374b77aa67a1b1a9f2ede7dc1ea7",
          "topics": [
            "0xddf252ad1be2c89b69c2b068fc378daa952ba7f163c4a11628f55a4df523b3ef",
            "0x0000000000000000000000000000000000000000000000000000000000000000",
            "0x0000000000000000000000008f088eca0009ad61fb94a6d7e9a5d7a087c08564",
            "0x00000000000000000000000000000000000000000000000000000000000f42da"
          ],
          "data": "0x",
          "blockHash": "0x93b81b96f41a9cd52102e2fbd6fcb920df66f684870f98bd0fb15c9ac0f0f2ba",
          "blockNumber": "0xa04624",
          "transactionHash": "0x361f447245a233ed2d97efe7563baa868fce489404440cf0a6488d36d6aaaeaa",
          "transactionIndex": "0xe",
          "logIndex": "0xb",
          "removed": false
        }
      ],
      "logsBloom": "0x00000000000000000000000000000000000000000000000000000000000000000000000000100000000001000000000000000000000000000000020000000200000000000000000000000008000000000000000000000000000000000000000000000000020000000000000000000800000000008000000000400010400000000000000000000000000000000000000000000000000000000000000000000000000000000000000010000000000000000000000000000000000000000000000000000002000000000000000002000000000000000000000000000000000020000000000000000000000000000000000000000000000000000000000000000000",
      "type": "0x2",
      "transactionHash": "0x361f447245a233ed2d97efe7563baa868fce489404440cf0a6488d36d6aaaeaa",
      "transactionIndex": "0xe",
      "blockHash": "0x93b81b96f41a9cd52102e2fbd6fcb920df66f684870f98bd0fb15c9ac0f0f2ba",
      "blockNumber": "0xa04624",
      "gasUsed": "0x1a3f5",
      "effectiveGasPrice": "0x187d0",
      "from": "0x8f088eca0009ad61fb94a6d7e9a5d7a087c08564",
      "to": "0xe2b6353511c5374b77aa67a1b1a9f2ede7dc1ea7",
      "contractAddress": null,
      "l1Fee": "0x188545",
      "l1GasPrice": "0xb116b",
      "l1GasUsed": "0x7dc"
    },
    {
      "status": "0x1",
      "cumulativeGasUsed": "0x18524c",
      "logs": [
        {
          "address": "0xe2b6353511c5374b77aa67a1b1a9f2ede7dc1ea7",
          "topics": [
            "0xddf252ad1be2c89b69c2b068fc378daa952ba7f163c4a11628f55a4df523b3ef",
            "0x0000000000000000000000000000000000000000000000000000000000000000",
            "0x0000000000000000000000008f088eca0009ad61fb94a6d7e9a5d7a087c08564",
            "0x00000000000000000000000000000000000000000000000000000000000f42db"
          ],
          "data": "0x",
          "blockHash": "0x93b81b96f41a9cd52102e2fbd6fcb920df66f684870f98bd0fb15c9ac0f0f2ba",
          "blockNumber": "0xa04624",
          "transactionHash": "0x15defb9645694aeda7d0a24372b4fe7feb9cf59d297c8a4b429b9f06bf2f216d",
          "transactionIndex": "0xf",
          "logIndex": "0xc",
          "removed": false
        }
      ],
      "logsBloom": "0x00000000000000000000000000000000000000000000000000002000000000000000000000100000000001000000000000000000000000000000020000004200000000000000000000000008000000000000000000000000000000000000000000000000020000000000000000000800000000008000000000000010000000000000000000000000000000000000000000000000000000000000000000000000000000000000000010000000000000000000000000000000000000000000000000000002000002000000000000000000000000000000000000000000000020000000000000000000000000000000000000000000000000000000000000000000",
      "type": "0x2",
      "transactionHash": "0x15defb9645694aeda7d0a24372b4fe7feb9cf59d297c8a4b429b9f06bf2f216d",
      "transactionIndex": "0xf",
      "blockHash": "0x93b81b96f41a9cd52102e2fbd6fcb920df66f684870f98bd0fb15c9ac0f0f2ba",
      "blockNumber": "0xa04624",
      "gasUsed": "0x1a3f5",
      "effectiveGasPrice": "0x187d0",
      "from": "0x8f088eca0009ad61fb94a6d7e9a5d7a087c08564",
      "to": "0xe2b6353511c5374b77aa67a1b1a9f2ede7dc1ea7",
      "contractAddress": null,
      "l1Fee": "0x188545",
      "l1GasPrice": "0xb116b",
      "l1GasUsed": "0x7dc"
    },
    {
      "status": "0x1",
      "cumulativeGasUsed": "0x19f641",
      "logs": [
        {
          "address": "0xe2b6353511c5374b77aa67a1b1a9f2ede7dc1ea7",
          "topics": [
            "0xddf252ad1be2c89b69c2b068fc378daa952ba7f163c4a11628f55a4df523b3ef",
            "0x0000000000000000000000000000000000000000000000000000000000000000",
            "0x0000000000000000000000008f088eca0009ad61fb94a6d7e9a5d7a087c08564",
            "0x00000000000000000000000000000000000000000000000000000000000f42dc"
          ],
          "data": "0x",
          "blockHash": "0x93b81b96f41a9cd52102e2fbd6fcb920df66f684870f98bd0fb15c9ac0f0f2ba",
          "blockNumber": "0xa04624",
          "transactionHash": "0x797af16524342c27d56adfb074683450fd3137f9e8a17de42b776ede680e5a2f",
          "transactionIndex": "0x10",
          "logIndex": "0xd",
          "removed": false
        }
      ],
      "logsBloom": "0x00000000000000000000000000000000000000000000000000000000000000000000000010100000000001000000000000000000000000000000020000000200000000000000000000000008000000000000000000000000000000000000000000000000020000000000000000000800000000008000000000000010000000000000000000200000000000000000000000000000000000000000000000000000000000000000000010000000010000000000000000000000000000000000000000000002000000000000000000000000000000000000000000000000000020000000000000000000000000000000000000000000000000000000000000000000",
      "type": "0x2",
      "transactionHash": "0x797af16524342c27d56adfb074683450fd3137f9e8a17de42b776ede680e5a2f",
      "transactionIndex": "0x10",
      "blockHash": "0x93b81b96f41a9cd52102e2fbd6fcb920df66f684870f98bd0fb15c9ac0f0f2ba",
      "blockNumber": "0xa04624",
      "gasUsed": "0x1a3f5",
      "effectiveGasPrice": "0x187d0",
      "from": "0x8f088eca0009ad61fb94a6d7e9a5d7a087c08564",
      "to": "0xe2b6353511c5374b77aa67a1b1a9f2ede7dc1ea7",
      "contractAddress": null,
      "l1Fee": "0x188545",
      "l1GasPrice": "0xb116b",
      "l1GasUsed": "0x7dc"
    },
    {
      "status": "0x1",
      "cumulativeGasUsed": "0x1b9a36",
      "logs": [
        {
          "address": "0xe2b6353511c5374b77aa67a1b1a9f2ede7dc1ea7",
          "topics": [
            "0xddf252ad1be2c89b69c2b068fc378daa952ba7f163c4a11628f55a4df523b3ef",
            "0x0000000000000000000000000000000000000000000000000000000000000000",
            "0x0000000000000000000000008f088eca0009ad61fb94a6d7e9a5d7a087c08564",
            "0x00000000000000000000000000000000000000000000000000000000000f42dd"
          ],
          "data": "0x",
          "blockHash": "0x93b81b96f41a9cd52102e2fbd6fcb920df66f684870f98bd0fb15c9ac0f0f2ba",
          "blockNumber": "0xa04624",
          "transactionHash": "0xd8fb53ac55ab605c1e9fd1d5b001e54877358294d6ed1f1a6b28f7e94262e618",
          "transactionIndex": "0x11",
          "logIndex": "0xe",
          "removed": false
        }
      ],
      "logsBloom": "0x00000000000000000000000000000000000000000000000000000000000000000000000000100000000001000000000000000000000000000000020000000200000000000008000000000008000000002000000000000000000000000000000000000000020000000000000000000800000000008000000000000010000000000000000000000000000000000400000000000000000000000000000000000000000000000000000010000000000000000000000000000000000000000000000000000002000000000000000000000000000000000000000000000000000020000000000000000000000000000000000000000000000000000000000000000000",
      "type": "0x2",
      "transactionHash": "0xd8fb53ac55ab605c1e9fd1d5b001e54877358294d6ed1f1a6b28f7e94262e618",
      "transactionIndex": "0x11",
      "blockHash": "0x93b81b96f41a9cd52102e2fbd6fcb920df66f684870f98bd0fb15c9ac0f0f2ba",
      "blockNumber": "0xa04624",
      "gasUsed": "0x1a3f5",
      "effectiveGasPrice": "0x187d0",
      "from": "0x8f088eca0009ad61fb94a6d7e9a5d7a087c08564",
      "to": "0xe2b6353511c5374b77aa67a1b1a9f2ede7dc1ea7",
      "contractAddress": null,
      "l1Fee": "0x188545",
      "l1GasPrice": "0xb116b",
      "l1GasUsed": "0x7dc"
    },
    {
      "status": "0x1",
      "cumulativeGasUsed": "0x1d3e2b",
      "logs": [
        {
          "address": "0xe2b6353511c5374b77aa67a1b1a9f2ede7dc1ea7",
          "topics": [
            "0xddf252ad1be2c89b69c2b068fc378daa952ba7f163c4a11628f55a4df523b3ef",
            "0x0000000000000000000000000000000000000000000000000000000000000000",
            "0x0000000000000000000000008f088eca0009ad61fb94a6d7e9a5d7a087c08564",
            "0x00000000000000000000000000000000000000000000000000000000000f42de"
          ],
          "data": "0x",
          "blockHash": "0x93b81b96f41a9cd52102e2fbd6fcb920df66f684870f98bd0fb15c9ac0f0f2ba",
          "blockNumber": "0xa04624",
          "transactionHash": "0x1ddda9373e1b965a313feefa9443cd507feff205962a79c8803bb0471ed5e642",
          "transactionIndex": "0x12",
          "logIndex": "0xf",
          "removed": false
        }
      ],
      "logsBloom": "0x00000000100000000000000000000000000000000000000000000000000000000000000000100000000001000000000000000000000000000000020000000200000000000000000000000008000000000000000000000000000000000000000000000000020000000000000000000800000000008000000000000010000000000000080000000000000000000000000000000000000000000000000000000000000000000000000010000000000000000000000000000000000000000000000000000002000000000000000000000000000000100000000000000000000020000000000000000000000000000000000000000000000000000000000000000000",
      "type": "0x2",
      "transactionHash": "0x1ddda9373e1b965a313feefa9443cd507feff205962a79c8803bb0471ed5e642",
      "transactionIndex": "0x12",
      "blockHash": "0x93b81b96f41a9cd52102e2fbd6fcb920df66f684870f98bd0fb15c9ac0f0f2ba",
      "blockNumber": "0xa04624",
      "gasUsed": "0x1a3f5",
      "effectiveGasPrice": "0x187d0",
      "from": "0x8f088eca0009ad61fb94a6d7e9a5d7a087c08564",
      "to": "0xe2b6353511c5374b77aa67a1b1a9f2ede7dc1ea7",
      "contractAddress": null,
      "l1Fee": "0x188545",
      "l1GasPrice": "0xb116b",
      "l1GasUsed": "0x7dc"
    },
    {
      "status": "0x1",
      "cumulativeGasUsed": "0x1ee220",
      "logs": [
        {
          "address": "0xe2b6353511c5374b77aa67a1b1a9f2ede7dc1ea7",
          "topics": [
            "0xddf252ad1be2c89b69c2b068fc378daa952ba7f163c4a11628f55a4df523b3ef",
            "0x0000000000000000000000000000000000000000000000000000000000000000",
            "0x0000000000000000000000008f088eca0009ad61fb94a6d7e9a5d7a087c08564",
            "0x00000000000000000000000000000000000000000000000000000000000f42df"
          ],
          "data": "0x",
          "blockHash": "0x93b81b96f41a9cd52102e2fbd6fcb920df66f684870f98bd0fb15c9ac0f0f2ba",
          "blockNumber": "0xa04624",
          "transactionHash": "0xea6b8c5bff2824575c2ed5a5901870aca50dfa28fdd9b698e12112244e7cc8bf",
          "transactionIndex": "0x13",
          "logIndex": "0x10",
          "removed": false
        }
      ],
      "logsBloom": "0x00000000000000000000000000000000000000000000000000000000000000000000000000100000000001000000000000000000000000000000020000000200000000000000000000000008000000000000000000000000000000000000000000000000020000000000000000000800000000008000000000000010000000000000000000000000000000000000000000000000000000000000000000000000000000080000000010000000000000000000000000000000000000000000000000000002000000000000000000000000000000000000000000000040000020000000000000000000000000000000000000000000100000000000000000000000",
      "type": "0x2",
      "transactionHash": "0xea6b8c5bff2824575c2ed5a5901870aca50dfa28fdd9b698e12112244e7cc8bf",
      "transactionIndex": "0x13",
      "blockHash": "0x93b81b96f41a9cd52102e2fbd6fcb920df66f684870f98bd0fb15c9ac0f0f2ba",
      "blockNumber": "0xa04624",
      "gasUsed": "0x1a3f5",
      "effectiveGasPrice": "0x187d0",
      "from": "0x8f088eca0009ad61fb94a6d7e9a5d7a087c08564",
      "to": "0xe2b6353511c5374b77aa67a1b1a9f2ede7dc1ea7",
      "contractAddress": null,
      "l1Fee": "0x188545",
      "l1GasPrice": "0xb116b",
      "l1GasUsed": "0x7dc"
    },
    {
      "status": "0x1",
      "cumulativeGasUsed": "0x208615",
      "logs": [
        {
          "address": "0xe2b6353511c5374b77aa67a1b1a9f2ede7dc1ea7",
          "topics": [
            "0xddf252ad1be2c89b69c2b068fc378daa952ba7f163c4a11628f55a4df523b3ef",
            "0x0000000000000000000000000000000000000000000000000000000000000000",
            "0x0000000000000000000000008f088eca0009ad61fb94a6d7e9a5d7a087c08564",
            "0x00000000000000000000000000000000000000000000000000000000000f42e0"
          ],
          "data": "0x",
          "blockHash": "0x93b81b96f41a9cd52102e2fbd6fcb920df66f684870f98bd0fb15c9ac0f0f2ba",
          "blockNumber": "0xa04624",
          "transactionHash": "0x5016309f68b79b13eff7e4b50dd3755636bfb2a0063d61cc5ccc0adb141b17df",
          "transactionIndex": "0x14",
          "logIndex": "0x11",
          "removed": false
        }
      ],
      "logsBloom": "0x00000000000000000000000000000000000000000000000000000000000000000000000000100000000001000000000000000000000000000000020000000200000000000000000000000008000000000000000000000000000000000000000000000000020000000000000000000800000000008000000000000010000000000000000000000000000000000000000000000000000000000100000000000000000000000000000010000000000000000000000000010000000000000000000000000002000000000000000000000000000000000000000000000000000020000000010000000000000000000000000000000000000000000000000000000000",
      "type": "0x2",
      "transactionHash": "0x5016309f68b79b13eff7e4b50dd3755636bfb2a0063d61cc5ccc0adb141b17df",
      "transactionIndex": "0x14",
      "blockHash": "0x93b81b96f41a9cd52102e2fbd6fcb920df66f684870f98bd0fb15c9ac0f0f2ba",
      "blockNumber": "0xa04624",
      "gasUsed": "0x1a3f5",
      "effectiveGasPrice": "0x187d0",
      "from": "0x8f088eca0009ad61fb94a6d7e9a5d7a087c08564",
      "to": "0xe2b6353511c5374b77aa67a1b1a9f2ede7dc1ea7",
      "contractAddress": null,
      "l1Fee": "0x185fd4",
      "l1GasPrice": "0xb116b",
      "l1GasUsed": "0x7d0"
    },
    {
      "status": "0x1",
      "cumulativeGasUsed": "0x222a0a",
      "logs": [
        {
          "address": "0xe2b6353511c5374b77aa67a1b1a9f2ede7dc1ea7",
          "topics": [
            "0xddf252ad1be2c89b69c2b068fc378daa952ba7f163c4a11628f55a4df523b3ef",
            "0x0000000000000000000000000000000000000000000000000000000000000000",
            "0x0000000000000000000000008f088eca0009ad61fb94a6d7e9a5d7a087c08564",
            "0x00000000000000000000000000000000000000000000000000000000000f42e1"
          ],
          "data": "0x",
          "blockHash": "0x93b81b96f41a9cd52102e2fbd6fcb920df66f684870f98bd0fb15c9ac0f0f2ba",
          "blockNumber": "0xa04624",
          "transactionHash": "0x2474e0ec16e03e194e686265cf3134460dfc6806bf628ed1f0a3d4b0534f0b73",
          "transactionIndex": "0x15",
          "logIndex": "0x12",
          "removed": false
        }
      ],
      "logsBloom": "0x00000000000000000000000000000000000000000000000000000000000000000000000000100000000001000000000000000000000000000000020000000200000000000000000000000008000000000000000000200000000000000000000000000000020000000000000000000800000000008000000000000010000000000000000000000000000000000004000000000000000000000000000000000000000000000000000010010000000000000000000000000000000000000000000000000002000000000000000000000000000000000000000000000000000020000000000000000000000000000000000000000000000000000000000000000000",
      "type": "0x2",
      "transactionHash": "0x2474e0ec16e03e194e686265cf3134460dfc6806bf628ed1f0a3d4b0534f0b73",
      "transactionIndex": "0x15",
      "blockHash": "0x93b81b96f41a9cd52102e2fbd6fcb920df66f684870f98bd0fb15c9ac0f0f2ba",
      "blockNumber": "0xa04624",
      "gasUsed": "0x1a3f5",
      "effectiveGasPrice": "0x187d0",
      "from": "0x8f088eca0009ad61fb94a6d7e9a5d7a087c08564",
      "to": "0xe2b6353511c5374b77aa67a1b1a9f2ede7dc1ea7",
      "contractAddress": null,
      "l1Fee": "0x188545",
      "l1GasPrice": "0xb116b",
      "l1GasUsed": "0x7dc"
    },
    {
      "status": "0x1",
      "cumulativeGasUsed": "0x23cdff",
      "logs": [
        {
          "address": "0xe2b6353511c5374b77aa67a1b1a9f2ede7dc1ea7",
          "topics": [
            "0xddf252ad1be2c89b69c2b068fc378daa952ba7f163c4a11628f55a4df523b3ef",
            "0x0000000000000000000000000000000000000000000000000000000000000000",
            "0x0000000000000000000000008f088eca0009ad61fb94a6d7e9a5d7a087c08564",
            "0x00000000000000000000000000000000000000000000000000000000000f42e2"
          ],
          "data": "0x",
          "blockHash": "0x93b81b96f41a9cd52102e2fbd6fcb920df66f684870f98bd0fb15c9ac0f0f2ba",
          "blockNumber": "0xa04624",
          "transactionHash": "0xd1183f60c9459bd69ddb698084b2c010f3b731ae735d8d18aaa2c327eedfff8f",
          "transactionIndex": "0x16",
          "logIndex": "0x13",
          "removed": false
        }
      ],
      "logsBloom": "0x00000000000000000000000000000000000000000000000000000000000000000000000000100000000001000000000000000000000000000000020000000200000000000000000000000008000000000000000000001000000000000000000000000000020000000000000000000800000000008000000000000010000000000000000000000000000000000000000000000080000000000000000000000000000000000000000010000000004000000000000000000000000000000000000000000002000000000000000000000000000000000000000000000000000020000000000000000000000000000000000000000000000000000000000000000000",
      "type": "0x2",
      "transactionHash": "0xd1183f60c9459bd69ddb698084b2c010f3b731ae735d8d18aaa2c327eedfff8f",
      "transactionIndex": "0x16",
      "blockHash": "0x93b81b96f41a9cd52102e2fbd6fcb920df66f684870f98bd0fb15c9ac0f0f2ba",
      "blockNumber": "0xa04624",
      "gasUsed": "0x1a3f5",
      "effectiveGasPrice": "0x187d0",
      "from": "0x8f088eca0009ad61fb94a6d7e9a5d7a087c08564",
      "to": "0xe2b6353511c5374b77aa67a1b1a9f2ede7dc1ea7",
      "contractAddress": null,
      "l1Fee": "0x185fd4",
      "l1GasPrice": "0xb116b",
      "l1GasUsed": "0x7d0"
    },
    {
      "status": "0x1",
      "cumulativeGasUsed": "0x2571f4",
      "logs": [
        {
          "address": "0xe2b6353511c5374b77aa67a1b1a9f2ede7dc1ea7",
          "topics": [
            "0xddf252ad1be2c89b69c2b068fc378daa952ba7f163c4a11628f55a4df523b3ef",
            "0x0000000000000000000000000000000000000000000000000000000000000000",
            "0x0000000000000000000000008f088eca0009ad61fb94a6d7e9a5d7a087c08564",
            "0x00000000000000000000000000000000000000000000000000000000000f42e3"
          ],
          "data": "0x",
          "blockHash": "0x93b81b96f41a9cd52102e2fbd6fcb920df66f684870f98bd0fb15c9ac0f0f2ba",
          "blockNumber": "0xa04624",
          "transactionHash": "0x54fb59413a6585ba734ea4b79d596853309cae0f48aa7d34601b4046916684b3",
          "transactionIndex": "0x17",
          "logIndex": "0x14",
          "removed": false
        }
      ],
      "logsBloom": "0x00000000000000000000000000000008000000000000000000000000000000000000000000100000000001000000000000000000000000000000020000000200000000000000000000000008000000000000000000000000000000000000000000000000020000000000000000000800000000008020000000000010000000000000000000000000000000000000000000000000000000000000000000000000000000000000000010000000000000000000000000000000000000000000000000000002000000400000000000000000000000000000000000000000000020000000000000000000000000000000000000000000000000000000000000000000",
      "type": "0x2",
      "transactionHash": "0x54fb59413a6585ba734ea4b79d596853309cae0f48aa7d34601b4046916684b3",
      "transactionIndex": "0x17",
      "blockHash": "0x93b81b96f41a9cd52102e2fbd6fcb920df66f684870f98bd0fb15c9ac0f0f2ba",
      "blockNumber": "0xa04624",
      "gasUsed": "0x1a3f5",
      "effectiveGasPrice": "0x187d0",
      "from": "0x8f088eca0009ad61fb94a6d7e9a5d7a087c08564",
      "to": "0xe2b6353511c5374b77aa67a1b1a9f2ede7dc1ea7",
      "contractAddress": null,
      "l1Fee": "0x188545",
      "l1GasPrice": "0xb116b",
      "l1GasUsed": "0x7dc"
    },
    {
      "status": "0x1",
      "cumulativeGasUsed": "0x2715e9",
      "logs": [
        {
          "address": "0xe2b6353511c5374b77aa67a1b1a9f2ede7dc1ea7",
          "topics": [
            "0xddf252ad1be2c89b69c2b068fc378daa952ba7f163c4a11628f55a4df523b3ef",
            "0x0000000000000000000000000000000000000000000000000000000000000000",
            "0x0000000000000000000000008f088eca0009ad61fb94a6d7e9a5d7a087c08564",
            "0x00000000000000000000000000000000000000000000000000000000000f42e4"
          ],
          "data": "0x",
          "blockHash": "0x93b81b96f41a9cd52102e2fbd6fcb920df66f684870f98bd0fb15c9ac0f0f2ba",
          "blockNumber": "0xa04624",
          "transactionHash": "0x7467da748db23f120a456c0ca5eb39214f2299e24dc3cb7bf8aa3cd4c5b3d474",
          "transactionIndex": "0x18",
          "logIndex": "0x15",
          "removed": false
        }
      ],
      "logsBloom": "0x00000000000000000000000000000000000000000000000000000000000000000000000000100000000001000000000000000000000000000000020000000200000000000000000000000008000000000000000000000000000001000000000000000000020000000000000000000800000000008000000000010010000000000000000000000000000000000000000000000000000000000000000000000000000000000000000010000000000000000000000000000000000000000000000000000002000000000000000000000000000000000000000000000000000820000000000000000000000000000000000000000000000000000000000000000000",
      "type": "0x2",
      "transactionHash": "0x7467da748db23f120a456c0ca5eb39214f2299e24dc3cb7bf8aa3cd4c5b3d474",
      "transactionIndex": "0x18",
      "blockHash": "0x93b81b96f41a9cd52102e2fbd6fcb920df66f684870f98bd0fb15c9ac0f0f2ba",
      "blockNumber": "0xa04624",
      "gasUsed": "0x1a3f5",
      "effectiveGasPrice": "0x187d0",
      "from": "0x8f088eca0009ad61fb94a6d7e9a5d7a087c08564",
      "to": "0xe2b6353511c5374b77aa67a1b1a9f2ede7dc1ea7",
      "contractAddress": null,
      "l1Fee": "0x185fd4",
      "l1GasPrice": "0xb116b",
      "l1GasUsed": "0x7d0"
    },
    {
      "status": "0x1",
      "cumulativeGasUsed": "0x28b9de",
      "logs": [
        {
          "address": "0xe2b6353511c5374b77aa67a1b1a9f2ede7dc1ea7",
          "topics": [
            "0xddf252ad1be2c89b69c2b068fc378daa952ba7f163c4a11628f55a4df523b3ef",
            "0x0000000000000000000000000000000000000000000000000000000000000000",
            "0x0000000000000000000000008f088eca0009ad61fb94a6d7e9a5d7a087c08564",
            "0x00000000000000000000000000000000000000000000000000000000000f42e5"
          ],
          "data": "0x",
          "blockHash": "0x93b81b96f41a9cd52102e2fbd6fcb920df66f684870f98bd0fb15c9ac0f0f2ba",
          "blockNumber": "0xa04624",
          "transactionHash": "0xd33577078e0bdf74fe43f9abf6230bcd38fd6354b8af2018975f9d6eeafd1f38",
          "transactionIndex": "0x19",
          "logIndex": "0x16",
          "removed": false
        }
      ],
      "logsBloom": "0x00000000000000000000000000000000000000000000000000100000000000000000000000100000000001000000000000000000000000000000020000400200000000000000000000000008000000000000000000000000000000000000000000000000020000000000000000000800000000008000000000000010000000000000000000000000000000000000000000000000000000000000000000000000000000000000000010000000000000000000000000000000000000000000000000000002000000000000000000000000000000000000000000000000000020000000000000000000000000000008000000000000000000000000000000000000",
      "type": "0x2",
      "transactionHash": "0xd33577078e0bdf74fe43f9abf6230bcd38fd6354b8af2018975f9d6eeafd1f38",
      "transactionIndex": "0x19",
      "blockHash": "0x93b81b96f41a9cd52102e2fbd6fcb920df66f684870f98bd0fb15c9ac0f0f2ba",
      "blockNumber": "0xa04624",
      "gasUsed": "0x1a3f5",
      "effectiveGasPrice": "0x187d0",
      "from": "0x8f088eca0009ad61fb94a6d7e9a5d7a087c08564",
      "to": "0xe2b6353511c5374b77aa67a1b1a9f2ede7dc1ea7",
      "contractAddress": null,
      "l1Fee": "0x185fd4",
      "l1GasPrice": "0xb116b",
      "l1GasUsed": "0x7d0"
    },
    {
      "status": "0x1",
      "cumulativeGasUsed": "0x2a5dd3",
      "logs": [
        {
          "address": "0xe2b6353511c5374b77aa67a1b1a9f2ede7dc1ea7",
          "topics": [
            "0xddf252ad1be2c89b69c2b068fc378daa952ba7f163c4a11628f55a4df523b3ef",
            "0x0000000000000000000000000000000000000000000000000000000000000000",
            "0x0000000000000000000000008f088eca0009ad61fb94a6d7e9a5d7a087c08564",
            "0x00000000000000000000000000000000000000000000000000000000000f42e6"
          ],
          "data": "0x",
          "blockHash": "0x93b81b96f41a9cd52102e2fbd6fcb920df66f684870f98bd0fb15c9ac0f0f2ba",
          "blockNumber": "0xa04624",
          "transactionHash": "0xf832ac7384216fd389c15f9f6d2cf10463e7c7f1ae3f589c7158d48ffcef58b2",
          "transactionIndex": "0x1a",
          "logIndex": "0x17",
          "removed": false
        }
      ],
      "logsBloom": "0x00000000000000000000000000000000000000000000000000000000000000000000000000100000000001000000000000000000000000000000020000000200000000000000000000000008000000000000800000000000000000000000000000000000020000000000000000000800000000008000000000000010000000000000000000000000000000000000000000000000000000000000000000000000000000000000000010000000000000000000000000000000000000000000000000000002000000000000000000000000000000000000000000000000000020000000000004100000000000000000000000000000000000000000000000000000",
      "type": "0x2",
      "transactionHash": "0xf832ac7384216fd389c15f9f6d2cf10463e7c7f1ae3f589c7158d48ffcef58b2",
      "transactionIndex": "0x1a",
      "blockHash": "0x93b81b96f41a9cd52102e2fbd6fcb920df66f684870f98bd0fb15c9ac0f0f2ba",
      "blockNumber": "0xa04624",
      "gasUsed": "0x1a3f5",
      "effectiveGasPrice": "0x187d0",
      "from": "0x8f088eca0009ad61fb94a6d7e9a5d7a087c08564",
      "to": "0xe2b6353511c5374b77aa67a1b1a9f2ede7dc1ea7",
      "contractAddress": null,
      "l1Fee": "0x188545",
      "l1GasPrice": "0xb116b",
      "l1GasUsed": "0x7dc"
    },
    {
      "status": "0x1",
      "cumulativeGasUsed": "0x2c01c8",
      "logs": [
        {
          "address": "0xe2b6353511c5374b77aa67a1b1a9f2ede7dc1ea7",
          "topics": [
            "0xddf252ad1be2c89b69c2b068fc378daa952ba7f163c4a11628f55a4df523b3ef",
            "0x0000000000000000000000000000000000000000000000000000000000000000",
            "0x0000000000000000000000008f088eca0009ad61fb94a6d7e9a5d7a087c08564",
            "0x00000000000000000000000000000000000000000000000000000000000f42e7"
          ],
          "data": "0x",
          "blockHash": "0x93b81b96f41a9cd52102e2fbd6fcb920df66f684870f98bd0fb15c9ac0f0f2ba",
          "blockNumber": "0xa04624",
          "transactionHash": "0xc077b3d6e353d1e2da58e82e5e9296aaff003135046c1d7a1615c860eda58ace",
          "transactionIndex": "0x1b",
          "logIndex": "0x18",
          "removed": false
        }
      ],
      "logsBloom": "0x00000000000000000000000000002000000000000000000000000000000000000000000000100000000001000000000000000000000000000000020000000200000000000000000000000008000000000000000000000000000000000000000000000000020000000000000000000800000000008000000000000010000000000000000000000000000000000000000000000000004000000000000000000000000000000000000010000000000000000000000000000000000000000000000000200002000000000000000000000000000000000000000000000000000020000000000000000000000000000000000000000000000000000000000000000000",
      "type": "0x2",
      "transactionHash": "0xc077b3d6e353d1e2da58e82e5e9296aaff003135046c1d7a1615c860eda58ace",
      "transactionIndex": "0x1b",
      "blockHash": "0x93b81b96f41a9cd52102e2fbd6fcb920df66f684870f98bd0fb15c9ac0f0f2ba",
      "blockNumber": "0xa04624",
      "gasUsed": "0x1a3f5",
      "effectiveGasPrice": "0x187d0",
      "from": "0x8f088eca0009ad61fb94a6d7e9a5d7a087c08564",
      "to": "0xe2b6353511c5374b77aa67a1b1a9f2ede7dc1ea7",
      "contractAddress": null,
      "l1Fee": "0x188545",
      "l1GasPrice": "0xb116b",
      "l1GasUsed": "0x7dc"
    },
    {
      "status": "0x1",
      "cumulativeGasUsed": "0x2da5bd",
      "logs": [
        {
          "address": "0xe2b6353511c5374b77aa67a1b1a9f2ede7dc1ea7",
          "topics": [
            "0xddf252ad1be2c89b69c2b068fc378daa952ba7f163c4a11628f55a4df523b3ef",
            "0x0000000000000000000000000000000000000000000000000000000000000000",
            "0x0000000000000000000000008f088eca0009ad61fb94a6d7e9a5d7a087c08564",
            "0x00000000000000000000000000000000000000000000000000000000000f42e8"
          ],
          "data": "0x",
          "blockHash": "0x93b81b96f41a9cd52102e2fbd6fcb920df66f684870f98bd0fb15c9ac0f0f2ba",
          "blockNumber": "0xa04624",
          "transactionHash": "0x5aa33d18f53c1db988a4cb53990314c16fd2163f0d631f88f00e9ae14af9ea57",
          "transactionIndex": "0x1c",
          "logIndex": "0x19",
          "removed": false
        }
      ],
      "logsBloom": "0x00000000000000000000000000000000000000000000000000000000000000000000000000100000000001000000000000001000000000000000020000000200000000000000000000000008000000000000000000000000000000000000000000000000020000000000000000000800000000008000000000000010000000000000000000000000000000000000000000000000000000000000000004000000000000000000000010000000000000000000000000000000000000000000000000000002000000000000000000000000000000000000000000000000000020000000000000200000000000000000000000000000000000000000000000000000",
      "type": "0x2",
      "transactionHash": "0x5aa33d18f53c1db988a4cb53990314c16fd2163f0d631f88f00e9ae14af9ea57",
      "transactionIndex": "0x1c",
      "blockHash": "0x93b81b96f41a9cd52102e2fbd6fcb920df66f684870f98bd0fb15c9ac0f0f2ba",
      "blockNumber": "0xa04624",
      "gasUsed": "0x1a3f5",
      "effectiveGasPrice": "0x187d0",
      "from": "0x8f088eca0009ad61fb94a6d7e9a5d7a087c08564",
      "to": "0xe2b6353511c5374b77aa67a1b1a9f2ede7dc1ea7",
      "contractAddress": null,
      "l1Fee": "0x188545",
      "l1GasPrice": "0xb116b",
      "l1GasUsed": "0x7dc"
    },
    {
      "status": "0x1",
      "cumulativeGasUsed": "0x2f49b2",
      "logs": [
        {
          "address": "0xe2b6353511c5374b77aa67a1b1a9f2ede7dc1ea7",
          "topics": [
            "0xddf252ad1be2c89b69c2b068fc378daa952ba7f163c4a11628f55a4df523b3ef",
            "0x0000000000000000000000000000000000000000000000000000000000000000",
            "0x0000000000000000000000008f088eca0009ad61fb94a6d7e9a5d7a087c08564",
            "0x00000000000000000000000000000000000000000000000000000000000f42e9"
          ],
          "data": "0x",
          "blockHash": "0x93b81b96f41a9cd52102e2fbd6fcb920df66f684870f98bd0fb15c9ac0f0f2ba",
          "blockNumber": "0xa04624",
          "transactionHash": "0x08e21cd269d5bfb8801b8e7647e16298b07a7fd9da3ce568d98d943770893593",
          "transactionIndex": "0x1d",
          "logIndex": "0x1a",
          "removed": false
        }
      ],
      "logsBloom": "0x00000000000000000000000000000000000000000000000000000000000000000000000000100000000001000000000000000000000000000000020000000200000000000000000000000008000000000000000000000000000000000000000000000000020000000000000000008800000000008000000000000010000000000000000000000000000000000000000000000000000000000000000000000000000000000000000010000000000000000000000000000000000000000000000000000002000000001000000000000000000000000000000000000000000020080000000000000000000000000000000000000000000000000000000000000000",
      "type": "0x2",
      "transactionHash": "0x08e21cd269d5bfb8801b8e7647e16298b07a7fd9da3ce568d98d943770893593",
      "transactionIndex": "0x1d",
      "blockHash": "0x93b81b96f41a9cd52102e2fbd6fcb920df66f684870f98bd0fb15c9ac0f0f2ba",
      "blockNumber": "0xa04624",
      "gasUsed": "0x1a3f5",
      "effectiveGasPrice": "0x187d0",
      "from": "0x8f088eca0009ad61fb94a6d7e9a5d7a087c08564",
      "to": "0xe2b6353511c5374b77aa67a1b1a9f2ede7dc1ea7",
      "contractAddress": null,
      "l1Fee": "0x188545",
      "l1GasPrice": "0xb116b",
      "l1GasUsed": "0x7dc"
    },
    {
      "status": "0x1",
      "cumulativeGasUsed": "0x30eda7",
      "logs": [
        {
          "address": "0xe2b6353511c5374b77aa67a1b1a9f2ede7dc1ea7",
          "topics": [
            "0xddf252ad1be2c89b69c2b068fc378daa952ba7f163c4a11628f55a4df523b3ef",
            "0x0000000000000000000000000000000000000000000000000000000000000000",
            "0x0000000000000000000000008f088eca0009ad61fb94a6d7e9a5d7a087c08564",
            "0x00000000000000000000000000000000000000000000000000000000000f42ea"
          ],
          "data": "0x",
          "blockHash": "0x93b81b96f41a9cd52102e2fbd6fcb920df66f684870f98bd0fb15c9ac0f0f2ba",
          "blockNumber": "0xa04624",
          "transactionHash": "0x871c4090d1c78e5c9d2faf90c60d4c232e43aae8bdfa1ef5d8454f0c2eda80f5",
          "transactionIndex": "0x1e",
          "logIndex": "0x1b",
          "removed": false
        }
      ],
      "logsBloom": "0x00000000000000000000000000000000000000000000000000000000000000000000000000100000000001000000000000000000000000000000020000000200000000000000000000000008000000000000000000000000000000000000000000000000020000000000000000000800000000008000000000000010000000000000000000000000000000000000000000000000000000000000000000000000000000000000000010000000000000000000000000000000010000000000000000000002000000000000000000000000000000000000000000000000000020000000080000000000000400000000000000000000000000000000000000000000",
      "type": "0x2",
      "transactionHash": "0x871c4090d1c78e5c9d2faf90c60d4c232e43aae8bdfa1ef5d8454f0c2eda80f5",
      "transactionIndex": "0x1e",
      "blockHash": "0x93b81b96f41a9cd52102e2fbd6fcb920df66f684870f98bd0fb15c9ac0f0f2ba",
      "blockNumber": "0xa04624",
      "gasUsed": "0x1a3f5",
      "effectiveGasPrice": "0x187d0",
      "from": "0x8f088eca0009ad61fb94a6d7e9a5d7a087c08564",
      "to": "0xe2b6353511c5374b77aa67a1b1a9f2ede7dc1ea7",
      "contractAddress": null,
      "l1Fee": "0x188545",
      "l1GasPrice": "0xb116b",
      "l1GasUsed": "0x7dc"
    },
    {
      "status": "0x1",
      "cumulativeGasUsed": "0x32919c",
      "logs": [
        {
          "address": "0xe2b6353511c5374b77aa67a1b1a9f2ede7dc1ea7",
          "topics": [
            "0xddf252ad1be2c89b69c2b068fc378daa952ba7f163c4a11628f55a4df523b3ef",
            "0x0000000000000000000000000000000000000000000000000000000000000000",
            "0x0000000000000000000000008f088eca0009ad61fb94a6d7e9a5d7a087c08564",
            "0x00000000000000000000000000000000000000000000000000000000000f42eb"
          ],
          "data": "0x",
          "blockHash": "0x93b81b96f41a9cd52102e2fbd6fcb920df66f684870f98bd0fb15c9ac0f0f2ba",
          "blockNumber": "0xa04624",
          "transactionHash": "0x466cde2a09dfdfd0086142fc3bbab69d255a770c4bedfccd07794a1d232a3eda",
          "transactionIndex": "0x1f",
          "logIndex": "0x1c",
          "removed": false
        }
      ],
      "logsBloom": "0x00000000000000000000000000000000000000000004000000000000000000000000000000100000000001000000000000000000000000000000420000000200000000000000000000000008000000000000000000000000000000000000000000000000020000000000000000000800000000008000000000000010000000000000000000000000000000000000000000000000000000000000000000000000000000000200000010000000000000000000000000000000000000000000000000000002000000000000000000000000000000000000000000000000000020000000000000000000000000000000000000000000000000000000000000000000",
      "type": "0x2",
      "transactionHash": "0x466cde2a09dfdfd0086142fc3bbab69d255a770c4bedfccd07794a1d232a3eda",
      "transactionIndex": "0x1f",
      "blockHash": "0x93b81b96f41a9cd52102e2fbd6fcb920df66f684870f98bd0fb15c9ac0f0f2ba",
      "blockNumber": "0xa04624",
      "gasUsed": "0x1a3f5",
      "effectiveGasPrice": "0x187d0",
      "from": "0x8f088eca0009ad61fb94a6d7e9a5d7a087c08564",
      "to": "0xe2b6353511c5374b77aa67a1b1a9f2ede7dc1ea7",
      "contractAddress": null,
      "l1Fee": "0x188545",
      "l1GasPrice": "0xb116b",
      "l1GasUsed": "0x7dc"
    },
    {
      "status": "0x1",
      "cumulativeGasUsed": "0x343591",
      "logs": [
        {
          "address": "0xe2b6353511c5374b77aa67a1b1a9f2ede7dc1ea7",
          "topics": [
            "0xddf252ad1be2c89b69c2b068fc378daa952ba7f163c4a11628f55a4df523b3ef",
            "0x0000000000000000000000000000000000000000000000000000000000000000",
            "0x0000000000000000000000008f088eca0009ad61fb94a6d7e9a5d7a087c08564",
            "0x00000000000000000000000000000000000000000000000000000000000f42ec"
          ],
          "data": "0x",
          "blockHash": "0x93b81b96f41a9cd52102e2fbd6fcb920df66f684870f98bd0fb15c9ac0f0f2ba",
          "blockNumber": "0xa04624",
          "transactionHash": "0xa9dbc1b3a6e5d15ce930d60d0b28877de3f28a4e90f5ac2a88b95f0286191e13",
          "transactionIndex": "0x20",
          "logIndex": "0x1d",
          "removed": false
        }
      ],
      "logsBloom": "0x00000000000000000000000000000000000000000000000000000000000000000004000000100000000001000000000000000000000000000000020000000200000000000000000000000008000000000000000000040000000000000000000000000000020000000000000000000800000000008000000000000010000000000000000000000000000000000000000000000000000000000000000000000000000000000000000010000000000000000000000000000000000000000000000000000002000000000000000000000000000000000000000000000000000020000000000000000000000000000000000800000000000000000000000000000000",
      "type": "0x2",
      "transactionHash": "0xa9dbc1b3a6e5d15ce930d60d0b28877de3f28a4e90f5ac2a88b95f0286191e13",
      "transactionIndex": "0x20",
      "blockHash": "0x93b81b96f41a9cd52102e2fbd6fcb920df66f684870f98bd0fb15c9ac0f0f2ba",
      "blockNumber": "0xa04624",
      "gasUsed": "0x1a3f5",
      "effectiveGasPrice": "0x187d0",
      "from": "0x8f088eca0009ad61fb94a6d7e9a5d7a087c08564",
      "to": "0xe2b6353511c5374b77aa67a1b1a9f2ede7dc1ea7",
      "contractAddress": null,
      "l1Fee": "0x188545",
      "l1GasPrice": "0xb116b",
      "l1GasUsed": "0x7dc"
    },
    {
      "status": "0x1",
      "cumulativeGasUsed": "0x35d986",
      "logs": [
        {
          "address": "0xe2b6353511c5374b77aa67a1b1a9f2ede7dc1ea7",
          "topics": [
            "0xddf252ad1be2c89b69c2b068fc378daa952ba7f163c4a11628f55a4df523b3ef",
            "0x0000000000000000000000000000000000000000000000000000000000000000",
            "0x0000000000000000000000008f088eca0009ad61fb94a6d7e9a5d7a087c08564",
            "0x00000000000000000000000000000000000000000000000000000000000f42ed"
          ],
          "data": "0x",
          "blockHash": "0x93b81b96f41a9cd52102e2fbd6fcb920df66f684870f98bd0fb15c9ac0f0f2ba",
          "blockNumber": "0xa04624",
          "transactionHash": "0xadfe5c78f5b25f0b494da7c07e933632d2b9c4be9824c065f7b69a394976b25f",
          "transactionIndex": "0x21",
          "logIndex": "0x1e",
          "removed": false
        }
      ],
      "logsBloom": "0x00000000000000000000000000000000000000000000000000000000000000000000000000100000000001000000000000000000000000000000020000000200000000000000000000000008000000000000000000000000000000000000000000000000020000000000000000000800000000008002000000000010000000000000000000000000000000000000000000000000000000000000000000000000000000000000002010000000000000000000000000000000000000000000000000000002000000000000000000000000000000000000000000000000000020000000000000000000000000000000000000000000000000000100000000000000",
      "type": "0x2",
      "transactionHash": "0xadfe5c78f5b25f0b494da7c07e933632d2b9c4be9824c065f7b69a394976b25f",
      "transactionIndex": "0x21",
      "blockHash": "0x93b81b96f41a9cd52102e2fbd6fcb920df66f684870f98bd0fb15c9ac0f0f2ba",
      "blockNumber": "0xa04624",
      "gasUsed": "0x1a3f5",
      "effectiveGasPrice": "0x187d0",
      "from": "0x8f088eca0009ad61fb94a6d7e9a5d7a087c08564",
      "to": "0xe2b6353511c5374b77aa67a1b1a9f2ede7dc1ea7",
      "contractAddress": null,
      "l1Fee": "0x188545",
      "l1GasPrice": "0xb116b",
      "l1GasUsed": "0x7dc"
    },
    {
      "status": "0x1",
      "cumulativeGasUsed": "0x377d7b",
      "logs": [
        {
          "address": "0xe2b6353511c5374b77aa67a1b1a9f2ede7dc1ea7",
          "topics": [
            "0xddf252ad1be2c89b69c2b068fc378daa952ba7f163c4a11628f55a4df523b3ef",
            "0x0000000000000000000000000000000000000000000000000000000000000000",
            "0x0000000000000000000000008f088eca0009ad61fb94a6d7e9a5d7a087c08564",
            "0x00000000000000000000000000000000000000000000000000000000000f42ee"
          ],
          "data": "0x",
          "blockHash": "0x93b81b96f41a9cd52102e2fbd6fcb920df66f684870f98bd0fb15c9ac0f0f2ba",
          "blockNumber": "0xa04624",
          "transactionHash": "0x3dfb8a87c5661603a9320dcfa58fa441e547208ea41098dfda3fff6cd66bcfc0",
          "transactionIndex": "0x22",
          "logIndex": "0x1f",
          "removed": false
        }
      ],
      "logsBloom": "0x00000000000000000000000000000000000000000000000000000000000000000000000000100000000001000000000000000000000000000000020000000200000000000000000000000008000000000002000000000000000000000000000000000000020000000000000000000800000000008000000000000010100000000000000000000000000000000000000000000000000000000000000000000000000000000000000010000000000000000000000000000000000000000000000000000002000000000000000000000000000000000000000000002000000020000000000000000000000000000000000000000000000000000000000000000000",
      "type": "0x2",
      "transactionHash": "0x3dfb8a87c5661603a9320dcfa58fa441e547208ea41098dfda3fff6cd66bcfc0",
      "transactionIndex": "0x22",
      "blockHash": "0x93b81b96f41a9cd52102e2fbd6fcb920df66f684870f98bd0fb15c9ac0f0f2ba",
      "blockNumber": "0xa04624",
      "gasUsed": "0x1a3f5",
      "effectiveGasPrice": "0x187d0",
      "from": "0x8f088eca0009ad61fb94a6d7e9a5d7a087c08564",
      "to": "0xe2b6353511c5374b77aa67a1b1a9f2ede7dc1ea7",
      "contractAddress": null,
      "l1Fee": "0x188545",
      "l1GasPrice": "0xb116b",
      "l1GasUsed": "0x7dc"
    },
    {
      "status": "0x1",
      "cumulativeGasUsed": "0x392170",
      "logs": [
        {
          "address": "0xe2b6353511c5374b77aa67a1b1a9f2ede7dc1ea7",
          "topics": [
            "0xddf252ad1be2c89b69c2b068fc378daa952ba7f163c4a11628f55a4df523b3ef",
            "0x0000000000000000000000000000000000000000000000000000000000000000",
            "0x0000000000000000000000008f088eca0009ad61fb94a6d7e9a5d7a087c08564",
            "0x00000000000000000000000000000000000000000000000000000000000f42ef"
          ],
          "data": "0x",
          "blockHash": "0x93b81b96f41a9cd52102e2fbd6fcb920df66f684870f98bd0fb15c9ac0f0f2ba",
          "blockNumber": "0xa04624",
          "transactionHash": "0x2450735ab0ce71286918e17a854cad9106d419297467be9e479ed09cdb395c41",
          "transactionIndex": "0x23",
          "logIndex": "0x20",
          "removed": false
        }
      ],
      "logsBloom": "0x00000000000000000000000000000000000000000000000000000000000000000000000000100000000001000000000000000000000000000000020000000200000000000000000000000008000000000000000000000000000000000000000000000000020000000000000000000800000000008000000000000010000000000000000000000000000000000000010000000000000000000000000000000000000000000000000010000000000000000000000000000000000000000000000000000002000000000000000000000000000000000000000000000000000020000000000000000100000000000000000000000000000200000000000000000000",
      "type": "0x2",
      "transactionHash": "0x2450735ab0ce71286918e17a854cad9106d419297467be9e479ed09cdb395c41",
      "transactionIndex": "0x23",
      "blockHash": "0x93b81b96f41a9cd52102e2fbd6fcb920df66f684870f98bd0fb15c9ac0f0f2ba",
      "blockNumber": "0xa04624",
      "gasUsed": "0x1a3f5",
      "effectiveGasPrice": "0x187d0",
      "from": "0x8f088eca0009ad61fb94a6d7e9a5d7a087c08564",
      "to": "0xe2b6353511c5374b77aa67a1b1a9f2ede7dc1ea7",
      "contractAddress": null,
      "l1Fee": "0x188545",
      "l1GasPrice": "0xb116b",
      "l1GasUsed": "0x7dc"
    },
    {
      "status": "0x1",
      "cumulativeGasUsed": "0x3ac565",
      "logs": [
        {
          "address": "0xe2b6353511c5374b77aa67a1b1a9f2ede7dc1ea7",
          "topics": [
            "0xddf252ad1be2c89b69c2b068fc378daa952ba7f163c4a11628f55a4df523b3ef",
            "0x0000000000000000000000000000000000000000000000000000000000000000",
            "0x0000000000000000000000008f088eca0009ad61fb94a6d7e9a5d7a087c08564",
            "0x00000000000000000000000000000000000000000000000000000000000f42f0"
          ],
          "data": "0x",
          "blockHash": "0x93b81b96f41a9cd52102e2fbd6fcb920df66f684870f98bd0fb15c9ac0f0f2ba",
          "blockNumber": "0xa04624",
          "transactionHash": "0xc11e84fede5e4aee090e59d8590bd5d6f5b594a110f21cc6b3408eb5b76a0ce3",
          "transactionIndex": "0x24",
          "logIndex": "0x21",
          "removed": false
        }
      ],
      "logsBloom": "0x00000000000000000000000000002000000000000000000000000000000000000000000000100000000001000000000000000000000000000000020000000200000000000000000000000008000000000000000000000000000000000000000000000000020000000000000000000800000000008000000000000010000000000000000000000000000000000000000000000000000020000000000000000000000000000000000010000000000000000000000000000000000000800000000000000002000000000000000000000000000000000000000000000000000020000000000000000000000000000000000000000000000000000000000000000000",
      "type": "0x2",
      "transactionHash": "0xc11e84fede5e4aee090e59d8590bd5d6f5b594a110f21cc6b3408eb5b76a0ce3",
      "transactionIndex": "0x24",
      "blockHash": "0x93b81b96f41a9cd52102e2fbd6fcb920df66f684870f98bd0fb15c9ac0f0f2ba",
      "blockNumber": "0xa04624",
      "gasUsed": "0x1a3f5",
      "effectiveGasPrice": "0x187d0",
      "from": "0x8f088eca0009ad61fb94a6d7e9a5d7a087c08564",
      "to": "0xe2b6353511c5374b77aa67a1b1a9f2ede7dc1ea7",
      "contractAddress": null,
      "l1Fee": "0x188545",
      "l1GasPrice": "0xb116b",
      "l1GasUsed": "0x7dc"
    },
    {
      "status": "0x1",
      "cumulativeGasUsed": "0x3c695a",
      "logs": [
        {
          "address": "0xe2b6353511c5374b77aa67a1b1a9f2ede7dc1ea7",
          "topics": [
            "0xddf252ad1be2c89b69c2b068fc378daa952ba7f163c4a11628f55a4df523b3ef",
            "0x0000000000000000000000000000000000000000000000000000000000000000",
            "0x0000000000000000000000008f088eca0009ad61fb94a6d7e9a5d7a087c08564",
            "0x00000000000000000000000000000000000000000000000000000000000f42f1"
          ],
          "data": "0x",
          "blockHash": "0x93b81b96f41a9cd52102e2fbd6fcb920df66f684870f98bd0fb15c9ac0f0f2ba",
          "blockNumber": "0xa04624",
          "transactionHash": "0xfa24798dbc44f2338d7beb83161cd153ea8839329941773d7de5a1d6b7e6ef76",
          "transactionIndex": "0x25",
          "logIndex": "0x22",
          "removed": false
        }
      ],
      "logsBloom": "0x00000000000000000000000000000000000000000000000000000000000000000000000000100000000001000000000000000000000000000000020000000200000000000000000000000008000000000000000000000000000000000000000000000000020000000000000000000800000000008000000000000050000000000000000000000000000000000000000000000000000000000000000000010000000000000000000010000000000000000002000000000000000000000000000000000002000000000000000000000000000000000000000000000000000020000000000000000000000000000000000000000000000000000000000000000000",
      "type": "0x2",
      "transactionHash": "0xfa24798dbc44f2338d7beb83161cd153ea8839329941773d7de5a1d6b7e6ef76",
      "transactionIndex": "0x25",
      "blockHash": "0x93b81b96f41a9cd52102e2fbd6fcb920df66f684870f98bd0fb15c9ac0f0f2ba",
      "blockNumber": "0xa04624",
      "gasUsed": "0x1a3f5",
      "effectiveGasPrice": "0x187d0",
      "from": "0x8f088eca0009ad61fb94a6d7e9a5d7a087c08564",
      "to": "0xe2b6353511c5374b77aa67a1b1a9f2ede7dc1ea7",
      "contractAddress": null,
      "l1Fee": "0x188545",
      "l1GasPrice": "0xb116b",
      "l1GasUsed": "0x7dc"
    },
    {
      "status": "0x1",
      "cumulativeGasUsed": "0x3e0d4f",
      "logs": [
        {
          "address": "0xe2b6353511c5374b77aa67a1b1a9f2ede7dc1ea7",
          "topics": [
            "0xddf252ad1be2c89b69c2b068fc378daa952ba7f163c4a11628f55a4df523b3ef",
            "0x0000000000000000000000000000000000000000000000000000000000000000",
            "0x0000000000000000000000008f088eca0009ad61fb94a6d7e9a5d7a087c08564",
            "0x00000000000000000000000000000000000000000000000000000000000f42f2"
          ],
          "data": "0x",
          "blockHash": "0x93b81b96f41a9cd52102e2fbd6fcb920df66f684870f98bd0fb15c9ac0f0f2ba",
          "blockNumber": "0xa04624",
          "transactionHash": "0x6a0bb3a46a3a42e42257d6bc9f0eb2c750625ee1fa396c642975aaca0a147298",
          "transactionIndex": "0x26",
          "logIndex": "0x23",
          "removed": false
        }
      ],
      "logsBloom": "0x00000000000000000000000000000000000000000000000000000000000000000000000000100000000001000000000000000000000000000000020000000200000000000000000000000008000000000000000000000000000000000000000000000000020000000000000000000800000000008000000000000010000000000000000000000000000000000000000000000000000000000000000000000000000000000000000010000000000000000000000000000000000000000000000000000002000000000000000000000200000000000000000000000000000020000000000000000000000000000000000800000000000000000000000000000000",
      "type": "0x2",
      "transactionHash": "0x6a0bb3a46a3a42e42257d6bc9f0eb2c750625ee1fa396c642975aaca0a147298",
      "transactionIndex": "0x26",
      "blockHash": "0x93b81b96f41a9cd52102e2fbd6fcb920df66f684870f98bd0fb15c9ac0f0f2ba",
      "blockNumber": "0xa04624",
      "gasUsed": "0x1a3f5",
      "effectiveGasPrice": "0x187d0",
      "from": "0x8f088eca0009ad61fb94a6d7e9a5d7a087c08564",
      "to": "0xe2b6353511c5374b77aa67a1b1a9f2ede7dc1ea7",
      "contractAddress": null,
      "l1Fee": "0x188545",
      "l1GasPrice": "0xb116b",
      "l1GasUsed": "0x7dc"
    },
    {
      "status": "0x1",
      "cumulativeGasUsed": "0x3fb144",
      "logs": [
        {
          "address": "0xe2b6353511c5374b77aa67a1b1a9f2ede7dc1ea7",
          "topics": [
            "0xddf252ad1be2c89b69c2b068fc378daa952ba7f163c4a11628f55a4df523b3ef",
            "0x0000000000000000000000000000000000000000000000000000000000000000",
            "0x0000000000000000000000008f088eca0009ad61fb94a6d7e9a5d7a087c08564",
            "0x00000000000000000000000000000000000000000000000000000000000f42f3"
          ],
          "data": "0x",
          "blockHash": "0x93b81b96f41a9cd52102e2fbd6fcb920df66f684870f98bd0fb15c9ac0f0f2ba",
          "blockNumber": "0xa04624",
          "transactionHash": "0x534bfda18cebb314e2998c581e440163cb2e80d51e5a07ecf56dbb6f2bbf7f74",
          "transactionIndex": "0x27",
          "logIndex": "0x24",
          "removed": false
        }
      ],
      "logsBloom": "0x00000000000000000000000000000000000000000000000000000000000000000000000000100000000001000000000000000000000000000000020000000200000000000000000000000008000000000000000000000000000000000000000000000000020000000000000000000800000000008000000000000010000000000000000000000000000000000000000000000000000000000000000000000000000000020000000010000000000000000000000000000000000000000000000000000002000000000000000000000000000000000000000000000000000020000000000000000000000000000200000000000000000000000000000000001000",
      "type": "0x2",
      "transactionHash": "0x534bfda18cebb314e2998c581e440163cb2e80d51e5a07ecf56dbb6f2bbf7f74",
      "transactionIndex": "0x27",
      "blockHash": "0x93b81b96f41a9cd52102e2fbd6fcb920df66f684870f98bd0fb15c9ac0f0f2ba",
      "blockNumber": "0xa04624",
      "gasUsed": "0x1a3f5",
      "effectiveGasPrice": "0x187d0",
      "from": "0x8f088eca0009ad61fb94a6d7e9a5d7a087c08564",
      "to": "0xe2b6353511c5374b77aa67a1b1a9f2ede7dc1ea7",
      "contractAddress": null,
      "l1Fee": "0x188545",
      "l1GasPrice": "0xb116b",
      "l1GasUsed": "0x7dc"
    },
    {
      "status": "0x1",
      "cumulativeGasUsed": "0x415539",
      "logs": [
        {
          "address": "0xe2b6353511c5374b77aa67a1b1a9f2ede7dc1ea7",
          "topics": [
            "0xddf252ad1be2c89b69c2b068fc378daa952ba7f163c4a11628f55a4df523b3ef",
            "0x0000000000000000000000000000000000000000000000000000000000000000",
            "0x0000000000000000000000008f088eca0009ad61fb94a6d7e9a5d7a087c08564",
            "0x00000000000000000000000000000000000000000000000000000000000f42f4"
          ],
          "data": "0x",
          "blockHash": "0x93b81b96f41a9cd52102e2fbd6fcb920df66f684870f98bd0fb15c9ac0f0f2ba",
          "blockNumber": "0xa04624",
          "transactionHash": "0xb86471a4ac50dee440a39d9cdc26af0490a2a569586cc57c53818660bbf7e2e4",
          "transactionIndex": "0x28",
          "logIndex": "0x25",
          "removed": false
        }
      ],
      "logsBloom": "0x00000000000000000000000000000010000000000000000000000000000000000000000000100000000001000000000000000000000000000000020000000200000000000000000000000008000000000000000000000000000000000000000000000000020000000000000000000800000000008000000000000010000000000000000000000000000000000000000000000000000000000000000000000000000000000000000010000000000000000000000000000000000000000040000000000002000000000000000000000000000000000000000000000000000020000000000000000100000000000000000000000000000000000000000000000000",
      "type": "0x2",
      "transactionHash": "0xb86471a4ac50dee440a39d9cdc26af0490a2a569586cc57c53818660bbf7e2e4",
      "transactionIndex": "0x28",
      "blockHash": "0x93b81b96f41a9cd52102e2fbd6fcb920df66f684870f98bd0fb15c9ac0f0f2ba",
      "blockNumber": "0xa04624",
      "gasUsed": "0x1a3f5",
      "effectiveGasPrice": "0x187d0",
      "from": "0x8f088eca0009ad61fb94a6d7e9a5d7a087c08564",
      "to": "0xe2b6353511c5374b77aa67a1b1a9f2ede7dc1ea7",
      "contractAddress": null,
      "l1Fee": "0x188545",
      "l1GasPrice": "0xb116b",
      "l1GasUsed": "0x7dc"
    },
    {
      "status": "0x1",
      "cumulativeGasUsed": "0x42f92e",
      "logs": [
        {
          "address": "0xe2b6353511c5374b77aa67a1b1a9f2ede7dc1ea7",
          "topics": [
            "0xddf252ad1be2c89b69c2b068fc378daa952ba7f163c4a11628f55a4df523b3ef",
            "0x0000000000000000000000000000000000000000000000000000000000000000",
            "0x0000000000000000000000008f088eca0009ad61fb94a6d7e9a5d7a087c08564",
            "0x00000000000000000000000000000000000000000000000000000000000f42f5"
          ],
          "data": "0x",
          "blockHash": "0x93b81b96f41a9cd52102e2fbd6fcb920df66f684870f98bd0fb15c9ac0f0f2ba",
          "blockNumber": "0xa04624",
          "transactionHash": "0xbbbfc377f621fa2140266ed4d3097856b6939f3790f3c924a111f57a8aeb377b",
          "transactionIndex": "0x29",
          "logIndex": "0x26",
          "removed": false
        }
      ],
      "logsBloom": "0x00000000400000000000000000000000000000000000000000000000000000000000000000104000000001000000000000000000000000000000020000000200000000000000000000000008000000000000000000000000000000000000000000000000020000000000000000000800000000008000000000000010000000000000000000000000000000000000000000000000000000000000000000000000000000000000000010000000000000000000000002000000000000000000000000000002000000000000000000000000000000000000000000000000000020000000000000000000000000000000000000000000000000000000000000000000",
      "type": "0x2",
      "transactionHash": "0xbbbfc377f621fa2140266ed4d3097856b6939f3790f3c924a111f57a8aeb377b",
      "transactionIndex": "0x29",
      "blockHash": "0x93b81b96f41a9cd52102e2fbd6fcb920df66f684870f98bd0fb15c9ac0f0f2ba",
      "blockNumber": "0xa04624",
      "gasUsed": "0x1a3f5",
      "effectiveGasPrice": "0x187d0",
      "from": "0x8f088eca0009ad61fb94a6d7e9a5d7a087c08564",
      "to": "0xe2b6353511c5374b77aa67a1b1a9f2ede7dc1ea7",
      "contractAddress": null,
      "l1Fee": "0x188545",
      "l1GasPrice": "0xb116b",
      "l1GasUsed": "0x7dc"
    },
    {
      "status": "0x1",
      "cumulativeGasUsed": "0x449d23",
      "logs": [
        {
          "address": "0xe2b6353511c5374b77aa67a1b1a9f2ede7dc1ea7",
          "topics": [
            "0xddf252ad1be2c89b69c2b068fc378daa952ba7f163c4a11628f55a4df523b3ef",
            "0x0000000000000000000000000000000000000000000000000000000000000000",
            "0x0000000000000000000000008f088eca0009ad61fb94a6d7e9a5d7a087c08564",
            "0x00000000000000000000000000000000000000000000000000000000000f42f6"
          ],
          "data": "0x",
          "blockHash": "0x93b81b96f41a9cd52102e2fbd6fcb920df66f684870f98bd0fb15c9ac0f0f2ba",
          "blockNumber": "0xa04624",
          "transactionHash": "0xbeaafe41452839c8f9a3c50d92b490f42c3d0adbcd7f7743b0b199bb999c8ddf",
          "transactionIndex": "0x2a",
          "logIndex": "0x27",
          "removed": false
        }
      ],
      "logsBloom": "0x00000000000000000000000000000000000000004000000000000000000000000000000000100000000001000000000000000000000000000000020000000200000000000000000000000008000000000000000000000000000000000000000000000000020000000000000000000800000000008000000000000010000000000000000000000000000000000000000000000000000000000000000000000000000000000000000010000000000000000000000000000000000000000000000000000002000000000000000000000000000000000000000000000000000820000000000000000000000000000000000000000000002000000000000000000000",
      "type": "0x2",
      "transactionHash": "0xbeaafe41452839c8f9a3c50d92b490f42c3d0adbcd7f7743b0b199bb999c8ddf",
      "transactionIndex": "0x2a",
      "blockHash": "0x93b81b96f41a9cd52102e2fbd6fcb920df66f684870f98bd0fb15c9ac0f0f2ba",
      "blockNumber": "0xa04624",
      "gasUsed": "0x1a3f5",
      "effectiveGasPrice": "0x187d0",
      "from": "0x8f088eca0009ad61fb94a6d7e9a5d7a087c08564",
      "to": "0xe2b6353511c5374b77aa67a1b1a9f2ede7dc1ea7",
      "contractAddress": null,
      "l1Fee": "0x188545",
      "l1GasPrice": "0xb116b",
      "l1GasUsed": "0x7dc"
    },
    {
      "status": "0x1",
      "cumulativeGasUsed": "0x464118",
      "logs": [
        {
          "address": "0xe2b6353511c5374b77aa67a1b1a9f2ede7dc1ea7",
          "topics": [
            "0xddf252ad1be2c89b69c2b068fc378daa952ba7f163c4a11628f55a4df523b3ef",
            "0x0000000000000000000000000000000000000000000000000000000000000000",
            "0x0000000000000000000000008f088eca0009ad61fb94a6d7e9a5d7a087c08564",
            "0x00000000000000000000000000000000000000000000000000000000000f42f7"
          ],
          "data": "0x",
          "blockHash": "0x93b81b96f41a9cd52102e2fbd6fcb920df66f684870f98bd0fb15c9ac0f0f2ba",
          "blockNumber": "0xa04624",
          "transactionHash": "0x73b48a5507ef25a20a55186f73e4b2288da160d50b91696cecfd90e7cf6690d3",
          "transactionIndex": "0x2b",
          "logIndex": "0x28",
          "removed": false
        }
      ],
      "logsBloom": "0x00000000000000000000000000000000000000000000000000000000000000000000000000100000000001000000000000000000000000000000020000000200000000000000000000000008000000000000000000000000000000000000000000000000020000000000000000000800000000008000000000000010000000000000000000000000004000000000000000000000000000000000000000000000000000000000000010000000000000000000000000000000000000000800000000000002000000000000000000000000000000000000000000000000000020000000000000000000000040000000000000000000000000000000000000000000",
      "type": "0x2",
      "transactionHash": "0x73b48a5507ef25a20a55186f73e4b2288da160d50b91696cecfd90e7cf6690d3",
      "transactionIndex": "0x2b",
      "blockHash": "0x93b81b96f41a9cd52102e2fbd6fcb920df66f684870f98bd0fb15c9ac0f0f2ba",
      "blockNumber": "0xa04624",
      "gasUsed": "0x1a3f5",
      "effectiveGasPrice": "0x187d0",
      "from": "0x8f088eca0009ad61fb94a6d7e9a5d7a087c08564",
      "to": "0xe2b6353511c5374b77aa67a1b1a9f2ede7dc1ea7",
      "contractAddress": null,
      "l1Fee": "0x188545",
      "l1GasPrice": "0xb116b",
      "l1GasUsed": "0x7dc"
    },
    {
      "status": "0x1",
      "cumulativeGasUsed": "0x47e50d",
      "logs": [
        {
          "address": "0xe2b6353511c5374b77aa67a1b1a9f2ede7dc1ea7",
          "topics": [
            "0xddf252ad1be2c89b69c2b068fc378daa952ba7f163c4a11628f55a4df523b3ef",
            "0x0000000000000000000000000000000000000000000000000000000000000000",
            "0x0000000000000000000000008f088eca0009ad61fb94a6d7e9a5d7a087c08564",
            "0x00000000000000000000000000000000000000000000000000000000000f42f8"
          ],
          "data": "0x",
          "blockHash": "0x93b81b96f41a9cd52102e2fbd6fcb920df66f684870f98bd0fb15c9ac0f0f2ba",
          "blockNumber": "0xa04624",
          "transactionHash": "0x9871e4faecb9ad40416b5ca9013b3de1ab9fb20b8a0717bc581f0b0a397cc775",
          "transactionIndex": "0x2c",
          "logIndex": "0x29",
          "removed": false
        }
      ],
      "logsBloom": "0x00000000000000000000000000000000000000000800000000000000000000000000000000100000000001000000000000000000000000000000020000000200000000000000000000000008000000000000000000000000000000000000000000000000020000000000000000000800000000008000000000000010000000000000000000000000000000000000000000000000000000000000000000000000000000000000000010000000000000000000000000000000000002000000000000000002000000000000000000000000000000000000000000000000000020000000020000000000000000000000000000000000000000000000000000000000",
      "type": "0x2",
      "transactionHash": "0x9871e4faecb9ad40416b5ca9013b3de1ab9fb20b8a0717bc581f0b0a397cc775",
      "transactionIndex": "0x2c",
      "blockHash": "0x93b81b96f41a9cd52102e2fbd6fcb920df66f684870f98bd0fb15c9ac0f0f2ba",
      "blockNumber": "0xa04624",
      "gasUsed": "0x1a3f5",
      "effectiveGasPrice": "0x187d0",
      "from": "0x8f088eca0009ad61fb94a6d7e9a5d7a087c08564",
      "to": "0xe2b6353511c5374b77aa67a1b1a9f2ede7dc1ea7",
      "contractAddress": null,
      "l1Fee": "0x188545",
      "l1GasPrice": "0xb116b",
      "l1GasUsed": "0x7dc"
    },
    {
      "status": "0x1",
      "cumulativeGasUsed": "0x498902",
      "logs": [
        {
          "address": "0xe2b6353511c5374b77aa67a1b1a9f2ede7dc1ea7",
          "topics": [
            "0xddf252ad1be2c89b69c2b068fc378daa952ba7f163c4a11628f55a4df523b3ef",
            "0x0000000000000000000000000000000000000000000000000000000000000000",
            "0x0000000000000000000000008f088eca0009ad61fb94a6d7e9a5d7a087c08564",
            "0x00000000000000000000000000000000000000000000000000000000000f42f9"
          ],
          "data": "0x",
          "blockHash": "0x93b81b96f41a9cd52102e2fbd6fcb920df66f684870f98bd0fb15c9ac0f0f2ba",
          "blockNumber": "0xa04624",
          "transactionHash": "0x86cb3656bc5a183935f10facb7f696bf40eb3783da7d970b8c6aa13ded69c0a2",
          "transactionIndex": "0x2d",
          "logIndex": "0x2a",
          "removed": false
        }
      ],
      "logsBloom": "0x00000000000000000000000000000000000000000000000000000000000000000000000000100000000001000000000000000000000000000000020000000200000000000000000000000008000200000000000004000000000000000000000000000000020000000000000000000800000000008000000000000010000000000000000000000000000000000000000000000001000000000000000000000000000000000000000010000000000000000000000000000000000000000000000000000002000000000000000000000000000000000000000000000000000020000000000000000000000000000000000000000000000000000000000000000000",
      "type": "0x2",
      "transactionHash": "0x86cb3656bc5a183935f10facb7f696bf40eb3783da7d970b8c6aa13ded69c0a2",
      "transactionIndex": "0x2d",
      "blockHash": "0x93b81b96f41a9cd52102e2fbd6fcb920df66f684870f98bd0fb15c9ac0f0f2ba",
      "blockNumber": "0xa04624",
      "gasUsed": "0x1a3f5",
      "effectiveGasPrice": "0x187d0",
      "from": "0x8f088eca0009ad61fb94a6d7e9a5d7a087c08564",
      "to": "0xe2b6353511c5374b77aa67a1b1a9f2ede7dc1ea7",
      "contractAddress": null,
      "l1Fee": "0x188545",
      "l1GasPrice": "0xb116b",
      "l1GasUsed": "0x7dc"
    },
    {
      "status": "0x1",
      "cumulativeGasUsed": "0x4b2cf7",
      "logs": [
        {
          "address": "0xe2b6353511c5374b77aa67a1b1a9f2ede7dc1ea7",
          "topics": [
            "0xddf252ad1be2c89b69c2b068fc378daa952ba7f163c4a11628f55a4df523b3ef",
            "0x0000000000000000000000000000000000000000000000000000000000000000",
            "0x0000000000000000000000008f088eca0009ad61fb94a6d7e9a5d7a087c08564",
            "0x00000000000000000000000000000000000000000000000000000000000f42fa"
          ],
          "data": "0x",
          "blockHash": "0x93b81b96f41a9cd52102e2fbd6fcb920df66f684870f98bd0fb15c9ac0f0f2ba",
          "blockNumber": "0xa04624",
          "transactionHash": "0x8aa375d3299009c57c3329c5e80afe3c6abdcea988cef1b96f955cb82e14fb91",
          "transactionIndex": "0x2e",
          "logIndex": "0x2b",
          "removed": false
        }
      ],
      "logsBloom": "0x00000000000000000000000000000000000000000000000000000000000000000000000000100000000001000040000000000000000000000000020000000200000000000000000000000008000000000000000000000000000000000000000000000000022000000000000000000800000000008000000000000010000000020000000000000000000000000000000000000000000000000000000000000000000000000000000010000000000000000000000000000000000000000000000000000002000000000000000000000000000000000000000000000000000020000000000000000000000000000000000000000000000000000000000000000000",
      "type": "0x2",
      "transactionHash": "0x8aa375d3299009c57c3329c5e80afe3c6abdcea988cef1b96f955cb82e14fb91",
      "transactionIndex": "0x2e",
      "blockHash": "0x93b81b96f41a9cd52102e2fbd6fcb920df66f684870f98bd0fb15c9ac0f0f2ba",
      "blockNumber": "0xa04624",
      "gasUsed": "0x1a3f5",
      "effectiveGasPrice": "0x187d0",
      "from": "0x8f088eca0009ad61fb94a6d7e9a5d7a087c08564",
      "to": "0xe2b6353511c5374b77aa67a1b1a9f2ede7dc1ea7",
      "contractAddress": null,
      "l1Fee": "0x188545",
      "l1GasPrice": "0xb116b",
      "l1GasUsed": "0x7dc"
    },
    {
      "status": "0x1",
      "cumulativeGasUsed": "0x4cd0ec",
      "logs": [
        {
          "address": "0xe2b6353511c5374b77aa67a1b1a9f2ede7dc1ea7",
          "topics": [
            "0xddf252ad1be2c89b69c2b068fc378daa952ba7f163c4a11628f55a4df523b3ef",
            "0x0000000000000000000000000000000000000000000000000000000000000000",
            "0x0000000000000000000000008f088eca0009ad61fb94a6d7e9a5d7a087c08564",
            "0x00000000000000000000000000000000000000000000000000000000000f42fb"
          ],
          "data": "0x",
          "blockHash": "0x93b81b96f41a9cd52102e2fbd6fcb920df66f684870f98bd0fb15c9ac0f0f2ba",
          "blockNumber": "0xa04624",
          "transactionHash": "0x7b4d8518cd157f57c0475dda5a1aed86b5db153440b059bc6533669332f57efe",
          "transactionIndex": "0x2f",
          "logIndex": "0x2c",
          "removed": false
        }
      ],
      "logsBloom": "0x00000000000000000000000000000000000000000000000000000000000000000000000000100000000001000000000000010000100000800000020000000200000000000000000000000008000000000000000000000000000000000000000000000000020000000000000000000800000000008000000000000010000000000000000000000000000000000000000000000000000000000000000000000000000000000000000010000000000000000000000000000000000000000000000000000002000000000000000000000000000000000000000000000000000020000000000000000000000000000000000000000000000000000000000000000000",
      "type": "0x2",
      "transactionHash": "0x7b4d8518cd157f57c0475dda5a1aed86b5db153440b059bc6533669332f57efe",
      "transactionIndex": "0x2f",
      "blockHash": "0x93b81b96f41a9cd52102e2fbd6fcb920df66f684870f98bd0fb15c9ac0f0f2ba",
      "blockNumber": "0xa04624",
      "gasUsed": "0x1a3f5",
      "effectiveGasPrice": "0x187d0",
      "from": "0x8f088eca0009ad61fb94a6d7e9a5d7a087c08564",
      "to": "0xe2b6353511c5374b77aa67a1b1a9f2ede7dc1ea7",
      "contractAddress": null,
      "l1Fee": "0x188545",
      "l1GasPrice": "0xb116b",
      "l1GasUsed": "0x7dc"
    },
    {
      "status": "0x1",
      "cumulativeGasUsed": "0x4e74e1",
      "logs": [
        {
          "address": "0xe2b6353511c5374b77aa67a1b1a9f2ede7dc1ea7",
          "topics": [
            "0xddf252ad1be2c89b69c2b068fc378daa952ba7f163c4a11628f55a4df523b3ef",
            "0x0000000000000000000000000000000000000000000000000000000000000000",
            "0x0000000000000000000000008f088eca0009ad61fb94a6d7e9a5d7a087c08564",
            "0x00000000000000000000000000000000000000000000000000000000000f42fc"
          ],
          "data": "0x",
          "blockHash": "0x93b81b96f41a9cd52102e2fbd6fcb920df66f684870f98bd0fb15c9ac0f0f2ba",
          "blockNumber": "0xa04624",
          "transactionHash": "0x8685bcc4c57ef50c8e44e2a90444e43838585a4e7aee1d1e3afeb0e3f944cad1",
          "transactionIndex": "0x30",
          "logIndex": "0x2d",
          "removed": false
        }
      ],
      "logsBloom": "0x00000000000000000000000000000000000000000000000000000000000000000000000000100000000001000000000000000000000000000000020000000200000000000000000000000008000000000000000000000000000000008000000000000000020000000000000000000800000000008000000000000010000000000000200000000000000000000000000000000001000000000000000000000000000000000000000010000000000000000000000000000000000000000000000000000002000000000000000000000000000000000000000000000000000020000000000000000000000000000000000000000000000000000000000000000000",
      "type": "0x2",
      "transactionHash": "0x8685bcc4c57ef50c8e44e2a90444e43838585a4e7aee1d1e3afeb0e3f944cad1",
      "transactionIndex": "0x30",
      "blockHash": "0x93b81b96f41a9cd52102e2fbd6fcb920df66f684870f98bd0fb15c9ac0f0f2ba",
      "blockNumber": "0xa04624",
      "gasUsed": "0x1a3f5",
      "effectiveGasPrice": "0x187d0",
      "from": "0x8f088eca0009ad61fb94a6d7e9a5d7a087c08564",
      "to": "0xe2b6353511c5374b77aa67a1b1a9f2ede7dc1ea7",
      "contractAddress": null,
      "l1Fee": "0x188545",
      "l1GasPrice": "0xb116b",
      "l1GasUsed": "0x7dc"
    },
    {
      "status": "0x1",
      "cumulativeGasUsed": "0x5018d6",
      "logs": [
        {
          "address": "0xe2b6353511c5374b77aa67a1b1a9f2ede7dc1ea7",
          "topics": [
            "0xddf252ad1be2c89b69c2b068fc378daa952ba7f163c4a11628f55a4df523b3ef",
            "0x0000000000000000000000000000000000000000000000000000000000000000",
            "0x0000000000000000000000008f088eca0009ad61fb94a6d7e9a5d7a087c08564",
            "0x00000000000000000000000000000000000000000000000000000000000f42fd"
          ],
          "data": "0x",
          "blockHash": "0x93b81b96f41a9cd52102e2fbd6fcb920df66f684870f98bd0fb15c9ac0f0f2ba",
          "blockNumber": "0xa04624",
          "transactionHash": "0xcd22e671f4d2de5d5f2ada60e4cf4d9ef865be31874fb2ca1bfe44259ee4fd32",
          "transactionIndex": "0x31",
          "logIndex": "0x2e",
          "removed": false
        }
      ],
      "logsBloom": "0x00000000000000000000000000000000000000000000000000000000000000000000000000100000000001000000000000000000000000000000020000000200000000000000000000000008000000000000000000000000000000000000000000000000020000000000000000000800000000008000000000000010000000000000000800000000000000000000000000000000000000000000004000000000000000000000000010000002000000000000000000000000000000000000000000000002000000000000000000000000000000000000000000000000000020000000000000000000000000000000000000000000000000000000000000000000",
      "type": "0x2",
      "transactionHash": "0xcd22e671f4d2de5d5f2ada60e4cf4d9ef865be31874fb2ca1bfe44259ee4fd32",
      "transactionIndex": "0x31",
      "blockHash": "0x93b81b96f41a9cd52102e2fbd6fcb920df66f684870f98bd0fb15c9ac0f0f2ba",
      "blockNumber": "0xa04624",
      "gasUsed": "0x1a3f5",
      "effectiveGasPrice": "0x187d0",
      "from": "0x8f088eca0009ad61fb94a6d7e9a5d7a087c08564",
      "to": "0xe2b6353511c5374b77aa67a1b1a9f2ede7dc1ea7",
      "contractAddress": null,
      "l1Fee": "0x188545",
      "l1GasPrice": "0xb116b",
      "l1GasUsed": "0x7dc"
    },
    {
      "status": "0x1",
      "cumulativeGasUsed": "0x51bccb",
      "logs": [
        {
          "address": "0xe2b6353511c5374b77aa67a1b1a9f2ede7dc1ea7",
          "topics": [
            "0xddf252ad1be2c89b69c2b068fc378daa952ba7f163c4a11628f55a4df523b3ef",
            "0x0000000000000000000000000000000000000000000000000000000000000000",
            "0x0000000000000000000000008f088eca0009ad61fb94a6d7e9a5d7a087c08564",
            "0x00000000000000000000000000000000000000000000000000000000000f42fe"
          ],
          "data": "0x",
          "blockHash": "0x93b81b96f41a9cd52102e2fbd6fcb920df66f684870f98bd0fb15c9ac0f0f2ba",
          "blockNumber": "0xa04624",
          "transactionHash": "0xf26fa7e5a6ac911b37f301065ac845d8dafdb0045b6f9f0b87c0141b10af616a",
          "transactionIndex": "0x32",
          "logIndex": "0x2f",
          "removed": false
        }
      ],
      "logsBloom": "0x00000000000000000000000000000000000000000000800000000000000000000000000000100000000001000000000000000000800000000100020000000200000000000000000000000008000000000000000000000000000000000000000000000000020000000000000000000800000000008000000000000010000000000000000000000000000000000000000000000000000000000000000000000000000000000000000010000000000000000000000000000000000000000000000000000002000000000000000000000000000000000000000000000000000020000000000000000000000000000000000000000000000000000000000000000000",
      "type": "0x2",
      "transactionHash": "0xf26fa7e5a6ac911b37f301065ac845d8dafdb0045b6f9f0b87c0141b10af616a",
      "transactionIndex": "0x32",
      "blockHash": "0x93b81b96f41a9cd52102e2fbd6fcb920df66f684870f98bd0fb15c9ac0f0f2ba",
      "blockNumber": "0xa04624",
      "gasUsed": "0x1a3f5",
      "effectiveGasPrice": "0x187d0",
      "from": "0x8f088eca0009ad61fb94a6d7e9a5d7a087c08564",
      "to": "0xe2b6353511c5374b77aa67a1b1a9f2ede7dc1ea7",
      "contractAddress": null,
      "l1Fee": "0x185fd4",
      "l1GasPrice": "0xb116b",
      "l1GasUsed": "0x7d0"
    },
    {
      "status": "0x1",
      "cumulativeGasUsed": "0x5360c0",
      "logs": [
        {
          "address": "0xe2b6353511c5374b77aa67a1b1a9f2ede7dc1ea7",
          "topics": [
            "0xddf252ad1be2c89b69c2b068fc378daa952ba7f163c4a11628f55a4df523b3ef",
            "0x0000000000000000000000000000000000000000000000000000000000000000",
            "0x0000000000000000000000008f088eca0009ad61fb94a6d7e9a5d7a087c08564",
            "0x00000000000000000000000000000000000000000000000000000000000f42ff"
          ],
          "data": "0x",
          "blockHash": "0x93b81b96f41a9cd52102e2fbd6fcb920df66f684870f98bd0fb15c9ac0f0f2ba",
          "blockNumber": "0xa04624",
          "transactionHash": "0xae6ab26feedf6d94dbb318f1a4f6d483d4437345f70f670c7b8ab86ed5be4c49",
          "transactionIndex": "0x33",
          "logIndex": "0x30",
          "removed": false
        }
      ],
      "logsBloom": "0x00000000000000000000000000000000000000000000000000000000000000000000000000100000000001000000000000000000000000000000020000000200000000000000000000000008000000000000000000000000000000000000000800000000020000000000000000000800000000008000000000000010000000000000000000000000000000000000000000000000000000000000000000000000000000004000000010000000000000000000000000000000000000000000000000000002000080000000000000000000000000000000000000000000000020000000000000000000000000000000000000000000000000000000000000000000",
      "type": "0x2",
      "transactionHash": "0xae6ab26feedf6d94dbb318f1a4f6d483d4437345f70f670c7b8ab86ed5be4c49",
      "transactionIndex": "0x33",
      "blockHash": "0x93b81b96f41a9cd52102e2fbd6fcb920df66f684870f98bd0fb15c9ac0f0f2ba",
      "blockNumber": "0xa04624",
      "gasUsed": "0x1a3f5",
      "effectiveGasPrice": "0x187d0",
      "from": "0x8f088eca0009ad61fb94a6d7e9a5d7a087c08564",
      "to": "0xe2b6353511c5374b77aa67a1b1a9f2ede7dc1ea7",
      "contractAddress": null,
      "l1Fee": "0x188545",
      "l1GasPrice": "0xb116b",
      "l1GasUsed": "0x7dc"
    },
    {
      "status": "0x1",
      "cumulativeGasUsed": "0x5504b5",
      "logs": [
        {
          "address": "0xe2b6353511c5374b77aa67a1b1a9f2ede7dc1ea7",
          "topics": [
            "0xddf252ad1be2c89b69c2b068fc378daa952ba7f163c4a11628f55a4df523b3ef",
            "0x0000000000000000000000000000000000000000000000000000000000000000",
            "0x0000000000000000000000008f088eca0009ad61fb94a6d7e9a5d7a087c08564",
            "0x00000000000000000000000000000000000000000000000000000000000f4300"
          ],
          "data": "0x",
          "blockHash": "0x93b81b96f41a9cd52102e2fbd6fcb920df66f684870f98bd0fb15c9ac0f0f2ba",
          "blockNumber": "0xa04624",
          "transactionHash": "0x810cefed261d042cfc4cf0f542a66eaa09133c592fe3a26bf8a2b67c44a0bc63",
          "transactionIndex": "0x34",
          "logIndex": "0x31",
          "removed": false
        }
      ],
      "logsBloom": "0x00000000000000000000000000000000000000000000000000000000000000000000000000100000000001000000000000000000000000000000020000000200000000000000010000000008000000000000000000000000000000000000000000000000020000000000000000000800000000008000000000000010000800002000000000000000000000000000000000000000000000000000000000000000000000000000000010000000000000000000000000000000000000000000000000000002000000000000000000000000000000000000000000000000000020000000000000000000000000000000000000000000000000000000000000000000",
      "type": "0x2",
      "transactionHash": "0x810cefed261d042cfc4cf0f542a66eaa09133c592fe3a26bf8a2b67c44a0bc63",
      "transactionIndex": "0x34",
      "blockHash": "0x93b81b96f41a9cd52102e2fbd6fcb920df66f684870f98bd0fb15c9ac0f0f2ba",
      "blockNumber": "0xa04624",
      "gasUsed": "0x1a3f5",
      "effectiveGasPrice": "0x187d0",
      "from": "0x8f088eca0009ad61fb94a6d7e9a5d7a087c08564",
      "to": "0xe2b6353511c5374b77aa67a1b1a9f2ede7dc1ea7",
      "contractAddress": null,
      "l1Fee": "0x188545",
      "l1GasPrice": "0xb116b",
      "l1GasUsed": "0x7dc"
    },
    {
      "status": "0x1",
      "cumulativeGasUsed": "0x56a8aa",
      "logs": [
        {
          "address": "0xe2b6353511c5374b77aa67a1b1a9f2ede7dc1ea7",
          "topics": [
            "0xddf252ad1be2c89b69c2b068fc378daa952ba7f163c4a11628f55a4df523b3ef",
            "0x0000000000000000000000000000000000000000000000000000000000000000",
            "0x0000000000000000000000008f088eca0009ad61fb94a6d7e9a5d7a087c08564",
            "0x00000000000000000000000000000000000000000000000000000000000f4301"
          ],
          "data": "0x",
          "blockHash": "0x93b81b96f41a9cd52102e2fbd6fcb920df66f684870f98bd0fb15c9ac0f0f2ba",
          "blockNumber": "0xa04624",
          "transactionHash": "0x049929c24387d82b4a1de21a07d9adb68d7353bd84c6cb68a06fa09a60f22104",
          "transactionIndex": "0x35",
          "logIndex": "0x32",
          "removed": false
        }
      ],
      "logsBloom": "0x00000000000000000000000000000000000040000000000000000000000000000000000000100000000001000000000000000000000000000000020000000200000000000000000000000008000000000000000000000000000000800000000000000000020000000000000000000800000000008000000000000010000000000000200000000000000000000000000000000000000000000000000000000000000000000000000010000000000000000000000000000000000000000000000000000002000000000000000000000000000000000000000000000000000020000000000000000000000000000000000000000000000000000000000000000000",
      "type": "0x2",
      "transactionHash": "0x049929c24387d82b4a1de21a07d9adb68d7353bd84c6cb68a06fa09a60f22104",
      "transactionIndex": "0x35",
      "blockHash": "0x93b81b96f41a9cd52102e2fbd6fcb920df66f684870f98bd0fb15c9ac0f0f2ba",
      "blockNumber": "0xa04624",
      "gasUsed": "0x1a3f5",
      "effectiveGasPrice": "0x187d0",
      "from": "0x8f088eca0009ad61fb94a6d7e9a5d7a087c08564",
      "to": "0xe2b6353511c5374b77aa67a1b1a9f2ede7dc1ea7",
      "contractAddress": null,
      "l1Fee": "0x185fd4",
      "l1GasPrice": "0xb116b",
      "l1GasUsed": "0x7d0"
    },
    {
      "status": "0x1",
      "cumulativeGasUsed": "0x584c9f",
      "logs": [
        {
          "address": "0xe2b6353511c5374b77aa67a1b1a9f2ede7dc1ea7",
          "topics": [
            "0xddf252ad1be2c89b69c2b068fc378daa952ba7f163c4a11628f55a4df523b3ef",
            "0x0000000000000000000000000000000000000000000000000000000000000000",
            "0x0000000000000000000000008f088eca0009ad61fb94a6d7e9a5d7a087c08564",
            "0x00000000000000000000000000000000000000000000000000000000000f4302"
          ],
          "data": "0x",
          "blockHash": "0x93b81b96f41a9cd52102e2fbd6fcb920df66f684870f98bd0fb15c9ac0f0f2ba",
          "blockNumber": "0xa04624",
          "transactionHash": "0x79c7827b3336194aec4111eb806d60220534908376093c755ced41d3590865b0",
          "transactionIndex": "0x36",
          "logIndex": "0x33",
          "removed": false
        }
      ],
      "logsBloom": "0x00000000000000000000000000000000000000000000000000000000000000000000000000100000000001000000000000000000000000000000020000000200000000000000000000000008000000000000000000000000000010000000000000000000020000000000000000000800000000008000000000000010000000000000000000000000000000000000000000000000000000000000000000000000000000000000000010000000000000000000000000000000000000000000000000000002080000000000000000000000000000000000000000000000000220000000000000000000000000000000000000000000000000000000000000000000",
      "type": "0x2",
      "transactionHash": "0x79c7827b3336194aec4111eb806d60220534908376093c755ced41d3590865b0",
      "transactionIndex": "0x36",
      "blockHash": "0x93b81b96f41a9cd52102e2fbd6fcb920df66f684870f98bd0fb15c9ac0f0f2ba",
      "blockNumber": "0xa04624",
      "gasUsed": "0x1a3f5",
      "effectiveGasPrice": "0x187d0",
      "from": "0x8f088eca0009ad61fb94a6d7e9a5d7a087c08564",
      "to": "0xe2b6353511c5374b77aa67a1b1a9f2ede7dc1ea7",
      "contractAddress": null,
      "l1Fee": "0x188545",
      "l1GasPrice": "0xb116b",
      "l1GasUsed": "0x7dc"
    },
    {
      "status": "0x1",
      "cumulativeGasUsed": "0x59f094",
      "logs": [
        {
          "address": "0xe2b6353511c5374b77aa67a1b1a9f2ede7dc1ea7",
          "topics": [
            "0xddf252ad1be2c89b69c2b068fc378daa952ba7f163c4a11628f55a4df523b3ef",
            "0x0000000000000000000000000000000000000000000000000000000000000000",
            "0x0000000000000000000000008f088eca0009ad61fb94a6d7e9a5d7a087c08564",
            "0x00000000000000000000000000000000000000000000000000000000000f4303"
          ],
          "data": "0x",
          "blockHash": "0x93b81b96f41a9cd52102e2fbd6fcb920df66f684870f98bd0fb15c9ac0f0f2ba",
          "blockNumber": "0xa04624",
          "transactionHash": "0x67b0a0ff76935d6b2a640942059d89196a4c0d130920f1a25cb4207b307e507a",
          "transactionIndex": "0x37",
          "logIndex": "0x34",
          "removed": false
        }
      ],
      "logsBloom": "0x00000000000000000000000000000000000000000000000000000000000000000000000000100000000001000000000000000000000000000000020000000200000000000000000000080008000000000000000000000000000000000000000000000000020000000000000000000800000000008000000000000010000000000000000000000000000000000000000000000000000000000000000000000000000000000000000010000000000000000000000000000000000000000000000000000002000000000000000000000000000000000000000000000000000020000000000000000000010000000000000000000000000000000200000000000000",
      "type": "0x2",
      "transactionHash": "0x67b0a0ff76935d6b2a640942059d89196a4c0d130920f1a25cb4207b307e507a",
      "transactionIndex": "0x37",
      "blockHash": "0x93b81b96f41a9cd52102e2fbd6fcb920df66f684870f98bd0fb15c9ac0f0f2ba",
      "blockNumber": "0xa04624",
      "gasUsed": "0x1a3f5",
      "effectiveGasPrice": "0x187d0",
      "from": "0x8f088eca0009ad61fb94a6d7e9a5d7a087c08564",
      "to": "0xe2b6353511c5374b77aa67a1b1a9f2ede7dc1ea7",
      "contractAddress": null,
      "l1Fee": "0x188545",
      "l1GasPrice": "0xb116b",
      "l1GasUsed": "0x7dc"
    },
    {
      "status": "0x1",
      "cumulativeGasUsed": "0x5b9489",
      "logs": [
        {
          "address": "0xe2b6353511c5374b77aa67a1b1a9f2ede7dc1ea7",
          "topics": [
            "0xddf252ad1be2c89b69c2b068fc378daa952ba7f163c4a11628f55a4df523b3ef",
            "0x0000000000000000000000000000000000000000000000000000000000000000",
            "0x0000000000000000000000008f088eca0009ad61fb94a6d7e9a5d7a087c08564",
            "0x00000000000000000000000000000000000000000000000000000000000f4304"
          ],
          "data": "0x",
          "blockHash": "0x93b81b96f41a9cd52102e2fbd6fcb920df66f684870f98bd0fb15c9ac0f0f2ba",
          "blockNumber": "0xa04624",
          "transactionHash": "0x3826798cca6083043dd0e91aced11b485043cae3b8de5325f390025e720b44f7",
          "transactionIndex": "0x38",
          "logIndex": "0x35",
          "removed": false
        }
      ],
      "logsBloom": "0x00000000000000000000000000000040000000002000000000000000000000000000000000100000000001000000000000000000000000000000020000000200000000000000000000000808000000000000000000000000000000000000000000000000020000000000000000000800000000008000000000000010000000000000000000000000000000000000000000000000000000000000000000000000000000000000000010000000000000000000000000000000000000000000000000000002000000000000000000000000000000000000000000000000000020000000000000000000000000000000000000000000000000000000000000000000",
      "type": "0x2",
      "transactionHash": "0x3826798cca6083043dd0e91aced11b485043cae3b8de5325f390025e720b44f7",
      "transactionIndex": "0x38",
      "blockHash": "0x93b81b96f41a9cd52102e2fbd6fcb920df66f684870f98bd0fb15c9ac0f0f2ba",
      "blockNumber": "0xa04624",
      "gasUsed": "0x1a3f5",
      "effectiveGasPrice": "0x187d0",
      "from": "0x8f088eca0009ad61fb94a6d7e9a5d7a087c08564",
      "to": "0xe2b6353511c5374b77aa67a1b1a9f2ede7dc1ea7",
      "contractAddress": null,
      "l1Fee": "0x188545",
      "l1GasPrice": "0xb116b",
      "l1GasUsed": "0x7dc"
    },
    {
      "status": "0x1",
      "cumulativeGasUsed": "0x5d387e",
      "logs": [
        {
          "address": "0xe2b6353511c5374b77aa67a1b1a9f2ede7dc1ea7",
          "topics": [
            "0xddf252ad1be2c89b69c2b068fc378daa952ba7f163c4a11628f55a4df523b3ef",
            "0x0000000000000000000000000000000000000000000000000000000000000000",
            "0x0000000000000000000000008f088eca0009ad61fb94a6d7e9a5d7a087c08564",
            "0x00000000000000000000000000000000000000000000000000000000000f4305"
          ],
          "data": "0x",
          "blockHash": "0x93b81b96f41a9cd52102e2fbd6fcb920df66f684870f98bd0fb15c9ac0f0f2ba",
          "blockNumber": "0xa04624",
          "transactionHash": "0x9e250dc748a7f9da12078a73c8dd7de977a84cab4ba5d582effb8367c970e7c7",
          "transactionIndex": "0x39",
          "logIndex": "0x36",
          "removed": false
        }
      ],
      "logsBloom": "0x00000000000000000000000000000000000000000000000000000000000000000000000000100000000001000000000000000000000000000000020000100200000000100000000000000008000000000000000000000000000004000000000000000000020000000000000000000800000000008000000000000010000000000000000000000000000000000000000000000000000000000000000000000000000000000000000010000000000000000000000000000000000000000000000000000002000000000000000000000000000000000000000000000000000020000000000000000000000000000000000000000000000000000000000000000000",
      "type": "0x2",
      "transactionHash": "0x9e250dc748a7f9da12078a73c8dd7de977a84cab4ba5d582effb8367c970e7c7",
      "transactionIndex": "0x39",
      "blockHash": "0x93b81b96f41a9cd52102e2fbd6fcb920df66f684870f98bd0fb15c9ac0f0f2ba",
      "blockNumber": "0xa04624",
      "gasUsed": "0x1a3f5",
      "effectiveGasPrice": "0x187d0",
      "from": "0x8f088eca0009ad61fb94a6d7e9a5d7a087c08564",
      "to": "0xe2b6353511c5374b77aa67a1b1a9f2ede7dc1ea7",
      "contractAddress": null,
      "l1Fee": "0x185fd4",
      "l1GasPrice": "0xb116b",
      "l1GasUsed": "0x7d0"
    },
    {
      "status": "0x1",
      "cumulativeGasUsed": "0x5edc73",
      "logs": [
        {
          "address": "0xe2b6353511c5374b77aa67a1b1a9f2ede7dc1ea7",
          "topics": [
            "0xddf252ad1be2c89b69c2b068fc378daa952ba7f163c4a11628f55a4df523b3ef",
            "0x0000000000000000000000000000000000000000000000000000000000000000",
            "0x0000000000000000000000008f088eca0009ad61fb94a6d7e9a5d7a087c08564",
            "0x00000000000000000000000000000000000000000000000000000000000f4306"
          ],
          "data": "0x",
          "blockHash": "0x93b81b96f41a9cd52102e2fbd6fcb920df66f684870f98bd0fb15c9ac0f0f2ba",
          "blockNumber": "0xa04624",
          "transactionHash": "0xdb10c7a0aad55079e6334ba438e4973b542dbbe016544de42b554e32132f3e0e",
          "transactionIndex": "0x3a",
          "logIndex": "0x37",
          "removed": false
        }
      ],
      "logsBloom": "0x00000000000400000000000000000000000000000000000000000000000000000000000000100000000001000080000000000000000000000000020000000200000000000000000000000008000000000000000000000000000000000000000000000000020000000000000000000800000000008000000000000010000000000000000000000000000000000000000000000000000000000000000000000000000000000000000010000000000000000000000000000000000000000000000000000002000000800000000000000000000000000000000000000000000020000000000000000000000000000000000000000000000000000000000000000000",
      "type": "0x2",
      "transactionHash": "0xdb10c7a0aad55079e6334ba438e4973b542dbbe016544de42b554e32132f3e0e",
      "transactionIndex": "0x3a",
      "blockHash": "0x93b81b96f41a9cd52102e2fbd6fcb920df66f684870f98bd0fb15c9ac0f0f2ba",
      "blockNumber": "0xa04624",
      "gasUsed": "0x1a3f5",
      "effectiveGasPrice": "0x187d0",
      "from": "0x8f088eca0009ad61fb94a6d7e9a5d7a087c08564",
      "to": "0xe2b6353511c5374b77aa67a1b1a9f2ede7dc1ea7",
      "contractAddress": null,
      "l1Fee": "0x188545",
      "l1GasPrice": "0xb116b",
      "l1GasUsed": "0x7dc"
    }
  ],
  "libraries": [],
  "pending": [],
  "returns": {},
  "timestamp": 1716775533,
  "chain": 84532,
  "commit": "3e641a5"
}