{
  "transactions": [
    {
      "hash": "0x4910a6c6922ec398ad3f86754c36859ef2ec925e8c1f4cf804465afe6ae1bdb1",
      "transactionType": "CALL",
      "contractName": null,
      "contractAddress": "0x3b1930860a0a109a3e66276332991081d9f3bc40",
      "function": "mint(uint256)",
      "arguments": [
        "6"
      ],
      "transaction": {
        "from": "0x8f088eca0009ad61fb94a6d7e9a5d7a087c08564",
        "to": "0x3b1930860a0a109a3e66276332991081d9f3bc40",
        "gas": "0x2419c",
        "value": "0x0",
        "input": "0xa0712d680000000000000000000000000000000000000000000000000000000000000006",
        "nonce": "0xa47",
        "chainId": "0x14a34"
      },
      "additionalContracts": [],
      "isFixedGasLimit": false
    },
    {
      "hash": "0xc88958cac40b0ea690811fdf80c21d783a7179e8c2d906aa90c2d7c1597c291c",
      "transactionType": "CALL",
      "contractName": null,
      "contractAddress": "0x3b1930860a0a109a3e66276332991081d9f3bc40",
      "function": "mint(uint256)",
      "arguments": [
        "6"
      ],
      "transaction": {
        "from": "0x8f088eca0009ad61fb94a6d7e9a5d7a087c08564",
        "to": "0x3b1930860a0a109a3e66276332991081d9f3bc40",
        "gas": "0x2419c",
        "value": "0x0",
        "input": "0xa0712d680000000000000000000000000000000000000000000000000000000000000006",
        "nonce": "0xa48",
        "chainId": "0x14a34"
      },
      "additionalContracts": [],
      "isFixedGasLimit": false
    },
    {
      "hash": "0x57ef1a90cf0e4e929227607cec335c27c43bed442da7bfc33b9131166fc7a082",
      "transactionType": "CALL",
      "contractName": null,
      "contractAddress": "0x3b1930860a0a109a3e66276332991081d9f3bc40",
      "function": "mint(uint256)",
      "arguments": [
        "6"
      ],
      "transaction": {
        "from": "0x8f088eca0009ad61fb94a6d7e9a5d7a087c08564",
        "to": "0x3b1930860a0a109a3e66276332991081d9f3bc40",
        "gas": "0x2419c",
        "value": "0x0",
        "input": "0xa0712d680000000000000000000000000000000000000000000000000000000000000006",
        "nonce": "0xa49",
        "chainId": "0x14a34"
      },
      "additionalContracts": [],
      "isFixedGasLimit": false
    },
    {
      "hash": "0x04079c1df9fb723e243fe414e7e64cef55ef1975ba086192a75c05f3c839e0dd",
      "transactionType": "CALL",
      "contractName": null,
      "contractAddress": "0x3b1930860a0a109a3e66276332991081d9f3bc40",
      "function": "mint(uint256)",
      "arguments": [
        "6"
      ],
      "transaction": {
        "from": "0x8f088eca0009ad61fb94a6d7e9a5d7a087c08564",
        "to": "0x3b1930860a0a109a3e66276332991081d9f3bc40",
        "gas": "0x2419c",
        "value": "0x0",
        "input": "0xa0712d680000000000000000000000000000000000000000000000000000000000000006",
        "nonce": "0xa4a",
        "chainId": "0x14a34"
      },
      "additionalContracts": [],
      "isFixedGasLimit": false
    },
    {
      "hash": "0x789cd1de39bb8e060022a978c470a8541d4b3282ebae718a1afc8fb8a3908dfd",
      "transactionType": "CALL",
      "contractName": null,
      "contractAddress": "0x3b1930860a0a109a3e66276332991081d9f3bc40",
      "function": "mint(uint256)",
      "arguments": [
        "6"
      ],
      "transaction": {
        "from": "0x8f088eca0009ad61fb94a6d7e9a5d7a087c08564",
        "to": "0x3b1930860a0a109a3e66276332991081d9f3bc40",
        "gas": "0x2419c",
        "value": "0x0",
        "input": "0xa0712d680000000000000000000000000000000000000000000000000000000000000006",
        "nonce": "0xa4b",
        "chainId": "0x14a34"
      },
      "additionalContracts": [],
      "isFixedGasLimit": false
    },
    {
      "hash": "0x1741a946b0e3634e2260b4f787ac27af359b57de65d4f5652b28847eea229a8b",
      "transactionType": "CALL",
      "contractName": null,
      "contractAddress": "0x3b1930860a0a109a3e66276332991081d9f3bc40",
      "function": "mint(uint256)",
      "arguments": [
        "6"
      ],
      "transaction": {
        "from": "0x8f088eca0009ad61fb94a6d7e9a5d7a087c08564",
        "to": "0x3b1930860a0a109a3e66276332991081d9f3bc40",
        "gas": "0x2419c",
        "value": "0x0",
        "input": "0xa0712d680000000000000000000000000000000000000000000000000000000000000006",
        "nonce": "0xa4c",
        "chainId": "0x14a34"
      },
      "additionalContracts": [],
      "isFixedGasLimit": false
    },
    {
      "hash": "0x3e49dbe4c876a87023260ff281d881f6f0033089d6d3dc4c654fdc5c92df5200",
      "transactionType": "CALL",
      "contractName": null,
      "contractAddress": "0x3b1930860a0a109a3e66276332991081d9f3bc40",
      "function": "mint(uint256)",
      "arguments": [
        "6"
      ],
      "transaction": {
        "from": "0x8f088eca0009ad61fb94a6d7e9a5d7a087c08564",
        "to": "0x3b1930860a0a109a3e66276332991081d9f3bc40",
        "gas": "0x2419c",
        "value": "0x0",
        "input": "0xa0712d680000000000000000000000000000000000000000000000000000000000000006",
        "nonce": "0xa4d",
        "chainId": "0x14a34"
      },
      "additionalContracts": [],
      "isFixedGasLimit": false
    },
    {
      "hash": "0x97167878926014e39d363cd2a1e3f7d354178cbb574d0bb9e381ea56e79f1054",
      "transactionType": "CALL",
      "contractName": null,
      "contractAddress": "0x3b1930860a0a109a3e66276332991081d9f3bc40",
      "function": "mint(uint256)",
      "arguments": [
        "6"
      ],
      "transaction": {
        "from": "0x8f088eca0009ad61fb94a6d7e9a5d7a087c08564",
        "to": "0x3b1930860a0a109a3e66276332991081d9f3bc40",
        "gas": "0x2419c",
        "value": "0x0",
        "input": "0xa0712d680000000000000000000000000000000000000000000000000000000000000006",
        "nonce": "0xa4e",
        "chainId": "0x14a34"
      },
      "additionalContracts": [],
      "isFixedGasLimit": false
    },
    {
      "hash": "0xcb35a2d9c1d2a8f545a640878309826288d46fe1c68acbdc0a99c8e3bf6d5643",
      "transactionType": "CALL",
      "contractName": null,
      "contractAddress": "0x3b1930860a0a109a3e66276332991081d9f3bc40",
      "function": "mint(uint256)",
      "arguments": [
        "6"
      ],
      "transaction": {
        "from": "0x8f088eca0009ad61fb94a6d7e9a5d7a087c08564",
        "to": "0x3b1930860a0a109a3e66276332991081d9f3bc40",
        "gas": "0x2419c",
        "value": "0x0",
        "input": "0xa0712d680000000000000000000000000000000000000000000000000000000000000006",
        "nonce": "0xa4f",
        "chainId": "0x14a34"
      },
      "additionalContracts": [],
      "isFixedGasLimit": false
    },
    {
      "hash": "0x7933f25d04e813e7b441d0a7b06e084c532f9768bd46af46840b091bdac20388",
      "transactionType": "CALL",
      "contractName": null,
      "contractAddress": "0x3b1930860a0a109a3e66276332991081d9f3bc40",
      "function": "mint(uint256)",
      "arguments": [
        "6"
      ],
      "transaction": {
        "from": "0x8f088eca0009ad61fb94a6d7e9a5d7a087c08564",
        "to": "0x3b1930860a0a109a3e66276332991081d9f3bc40",
        "gas": "0x2419c",
        "value": "0x0",
        "input": "0xa0712d680000000000000000000000000000000000000000000000000000000000000006",
        "nonce": "0xa50",
        "chainId": "0x14a34"
      },
      "additionalContracts": [],
      "isFixedGasLimit": false
    },
    {
      "hash": "0xa52d0b105e36072f9aed8f0fdbed214bab34d8f3147d9580ccdce9bd12ef98be",
      "transactionType": "CALL",
      "contractName": null,
      "contractAddress": "0x3b1930860a0a109a3e66276332991081d9f3bc40",
      "function": "mint(uint256)",
      "arguments": [
        "6"
      ],
      "transaction": {
        "from": "0x8f088eca0009ad61fb94a6d7e9a5d7a087c08564",
        "to": "0x3b1930860a0a109a3e66276332991081d9f3bc40",
        "gas": "0x2419c",
        "value": "0x0",
        "input": "0xa0712d680000000000000000000000000000000000000000000000000000000000000006",
        "nonce": "0xa51",
        "chainId": "0x14a34"
      },
      "additionalContracts": [],
      "isFixedGasLimit": false
    },
    {
      "hash": "0xea1e999b4994a19695bfa7635d421e6eaac391c1e48987d118f38ed9876d5083",
      "transactionType": "CALL",
      "contractName": null,
      "contractAddress": "0x3b1930860a0a109a3e66276332991081d9f3bc40",
      "function": "mint(uint256)",
      "arguments": [
        "6"
      ],
      "transaction": {
        "from": "0x8f088eca0009ad61fb94a6d7e9a5d7a087c08564",
        "to": "0x3b1930860a0a109a3e66276332991081d9f3bc40",
        "gas": "0x2419c",
        "value": "0x0",
        "input": "0xa0712d680000000000000000000000000000000000000000000000000000000000000006",
        "nonce": "0xa52",
        "chainId": "0x14a34"
      },
      "additionalContracts": [],
      "isFixedGasLimit": false
    },
    {
      "hash": "0x6b3bc4f72b1493ec8f574b7d8d7fd81773191c03be4e20cab6a48d6dbb7e2f4f",
      "transactionType": "CALL",
      "contractName": null,
      "contractAddress": "0x3b1930860a0a109a3e66276332991081d9f3bc40",
      "function": "mint(uint256)",
      "arguments": [
        "6"
      ],
      "transaction": {
        "from": "0x8f088eca0009ad61fb94a6d7e9a5d7a087c08564",
        "to": "0x3b1930860a0a109a3e66276332991081d9f3bc40",
        "gas": "0x2419c",
        "value": "0x0",
        "input": "0xa0712d680000000000000000000000000000000000000000000000000000000000000006",
        "nonce": "0xa53",
        "chainId": "0x14a34"
      },
      "additionalContracts": [],
      "isFixedGasLimit": false
    },
    {
      "hash": "0x3413682926371f83eee6a6b0459fa12cd83f3eb19b9578e176b49bb7a632da3b",
      "transactionType": "CALL",
      "contractName": null,
      "contractAddress": "0x3b1930860a0a109a3e66276332991081d9f3bc40",
      "function": "mint(uint256)",
      "arguments": [
        "6"
      ],
      "transaction": {
        "from": "0x8f088eca0009ad61fb94a6d7e9a5d7a087c08564",
        "to": "0x3b1930860a0a109a3e66276332991081d9f3bc40",
        "gas": "0x2419c",
        "value": "0x0",
        "input": "0xa0712d680000000000000000000000000000000000000000000000000000000000000006",
        "nonce": "0xa54",
        "chainId": "0x14a34"
      },
      "additionalContracts": [],
      "isFixedGasLimit": false
    },
    {
      "hash": "0xfcac81baa595838da39f673bb55f25d6dce000c77951822cd0e89675fdfff39b",
      "transactionType": "CALL",
      "contractName": null,
      "contractAddress": "0x3b1930860a0a109a3e66276332991081d9f3bc40",
      "function": "mint(uint256)",
      "arguments": [
        "6"
      ],
      "transaction": {
        "from": "0x8f088eca0009ad61fb94a6d7e9a5d7a087c08564",
        "to": "0x3b1930860a0a109a3e66276332991081d9f3bc40",
        "gas": "0x2419c",
        "value": "0x0",
        "input": "0xa0712d680000000000000000000000000000000000000000000000000000000000000006",
        "nonce": "0xa55",
        "chainId": "0x14a34"
      },
      "additionalContracts": [],
      "isFixedGasLimit": false
    },
    {
      "hash": "0xe19f06b0049d46d9719cb0ea2c43074495b32e1fb9e7032448b58e8f553ebfe3",
      "transactionType": "CALL",
      "contractName": null,
      "contractAddress": "0x3b1930860a0a109a3e66276332991081d9f3bc40",
      "function": "mint(uint256)",
      "arguments": [
        "6"
      ],
      "transaction": {
        "from": "0x8f088eca0009ad61fb94a6d7e9a5d7a087c08564",
        "to": "0x3b1930860a0a109a3e66276332991081d9f3bc40",
        "gas": "0x2419c",
        "value": "0x0",
        "input": "0xa0712d680000000000000000000000000000000000000000000000000000000000000006",
        "nonce": "0xa56",
        "chainId": "0x14a34"
      },
      "additionalContracts": [],
      "isFixedGasLimit": false
    },
    {
      "hash": "0xb18f4688bacd6630ea7a4294121be4ad35166cbd62ca925f239062a483e2b300",
      "transactionType": "CALL",
      "contractName": null,
      "contractAddress": "0x3b1930860a0a109a3e66276332991081d9f3bc40",
      "function": "mint(uint256)",
      "arguments": [
        "6"
      ],
      "transaction": {
        "from": "0x8f088eca0009ad61fb94a6d7e9a5d7a087c08564",
        "to": "0x3b1930860a0a109a3e66276332991081d9f3bc40",
        "gas": "0x2419c",
        "value": "0x0",
        "input": "0xa0712d680000000000000000000000000000000000000000000000000000000000000006",
        "nonce": "0xa57",
        "chainId": "0x14a34"
      },
      "additionalContracts": [],
      "isFixedGasLimit": false
    },
    {
      "hash": "0x2a8143ddce14352c13cb1145313a2f925e7e933e8e0c1fe95f68342cf0b932c5",
      "transactionType": "CALL",
      "contractName": null,
      "contractAddress": "0x3b1930860a0a109a3e66276332991081d9f3bc40",
      "function": "mint(uint256)",
      "arguments": [
        "6"
      ],
      "transaction": {
        "from": "0x8f088eca0009ad61fb94a6d7e9a5d7a087c08564",
        "to": "0x3b1930860a0a109a3e66276332991081d9f3bc40",
        "gas": "0x2419c",
        "value": "0x0",
        "input": "0xa0712d680000000000000000000000000000000000000000000000000000000000000006",
        "nonce": "0xa58",
        "chainId": "0x14a34"
      },
      "additionalContracts": [],
      "isFixedGasLimit": false
    },
    {
      "hash": "0x1c8d5ba48e37d50bf834e4c76a3c88bc95cb7eb7da23776c8118177fe1675132",
      "transactionType": "CALL",
      "contractName": null,
      "contractAddress": "0x3b1930860a0a109a3e66276332991081d9f3bc40",
      "function": "mint(uint256)",
      "arguments": [
        "6"
      ],
      "transaction": {
        "from": "0x8f088eca0009ad61fb94a6d7e9a5d7a087c08564",
        "to": "0x3b1930860a0a109a3e66276332991081d9f3bc40",
        "gas": "0x2419c",
        "value": "0x0",
        "input": "0xa0712d680000000000000000000000000000000000000000000000000000000000000006",
        "nonce": "0xa59",
        "chainId": "0x14a34"
      },
      "additionalContracts": [],
      "isFixedGasLimit": false
    },
    {
      "hash": "0x90d2e26257a7f18332332738b4f0a6fa113e11887210fdd4f0fbcdac92784626",
      "transactionType": "CALL",
      "contractName": null,
      "contractAddress": "0x3b1930860a0a109a3e66276332991081d9f3bc40",
      "function": "mint(uint256)",
      "arguments": [
        "6"
      ],
      "transaction": {
        "from": "0x8f088eca0009ad61fb94a6d7e9a5d7a087c08564",
        "to": "0x3b1930860a0a109a3e66276332991081d9f3bc40",
        "gas": "0x2419c",
        "value": "0x0",
        "input": "0xa0712d680000000000000000000000000000000000000000000000000000000000000006",
        "nonce": "0xa5a",
        "chainId": "0x14a34"
      },
      "additionalContracts": [],
      "isFixedGasLimit": false
    },
    {
      "hash": "0x7e3291a82416d449d8b186171e98cc2810eacb579126333f8870e92811bc2350",
      "transactionType": "CALL",
      "contractName": null,
      "contractAddress": "0x3b1930860a0a109a3e66276332991081d9f3bc40",
      "function": "mint(uint256)",
      "arguments": [
        "6"
      ],
      "transaction": {
        "from": "0x8f088eca0009ad61fb94a6d7e9a5d7a087c08564",
        "to": "0x3b1930860a0a109a3e66276332991081d9f3bc40",
        "gas": "0x2419c",
        "value": "0x0",
        "input": "0xa0712d680000000000000000000000000000000000000000000000000000000000000006",
        "nonce": "0xa5b",
        "chainId": "0x14a34"
      },
      "additionalContracts": [],
      "isFixedGasLimit": false
    },
    {
      "hash": "0x3091660012e6dfff021a7f2a0a28030d7a64bd319d6bcf341574dc4e37530ce6",
      "transactionType": "CALL",
      "contractName": null,
      "contractAddress": "0x3b1930860a0a109a3e66276332991081d9f3bc40",
      "function": "mint(uint256)",
      "arguments": [
        "6"
      ],
      "transaction": {
        "from": "0x8f088eca0009ad61fb94a6d7e9a5d7a087c08564",
        "to": "0x3b1930860a0a109a3e66276332991081d9f3bc40",
        "gas": "0x2419c",
        "value": "0x0",
        "input": "0xa0712d680000000000000000000000000000000000000000000000000000000000000006",
        "nonce": "0xa5c",
        "chainId": "0x14a34"
      },
      "additionalContracts": [],
      "isFixedGasLimit": false
    },
    {
      "hash": "0x1b6402953b0f9617011b19442ae38a464d41af1db924b6851d5be99de1b75f35",
      "transactionType": "CALL",
      "contractName": null,
      "contractAddress": "0x3b1930860a0a109a3e66276332991081d9f3bc40",
      "function": "mint(uint256)",
      "arguments": [
        "6"
      ],
      "transaction": {
        "from": "0x8f088eca0009ad61fb94a6d7e9a5d7a087c08564",
        "to": "0x3b1930860a0a109a3e66276332991081d9f3bc40",
        "gas": "0x2419c",
        "value": "0x0",
        "input": "0xa0712d680000000000000000000000000000000000000000000000000000000000000006",
        "nonce": "0xa5d",
        "chainId": "0x14a34"
      },
      "additionalContracts": [],
      "isFixedGasLimit": false
    },
    {
      "hash": "0x52a29baf817a01bb593a2efc9420ee4b0e554b1823dfa2dfa95bb914423dbf07",
      "transactionType": "CALL",
      "contractName": null,
      "contractAddress": "0x3b1930860a0a109a3e66276332991081d9f3bc40",
      "function": "mint(uint256)",
      "arguments": [
        "6"
      ],
      "transaction": {
        "from": "0x8f088eca0009ad61fb94a6d7e9a5d7a087c08564",
        "to": "0x3b1930860a0a109a3e66276332991081d9f3bc40",
        "gas": "0x2419c",
        "value": "0x0",
        "input": "0xa0712d680000000000000000000000000000000000000000000000000000000000000006",
        "nonce": "0xa5e",
        "chainId": "0x14a34"
      },
      "additionalContracts": [],
      "isFixedGasLimit": false
    },
    {
      "hash": "0xaf3d77498d3e1b570f90d5e2766aa6ad3729684d17f19100df5933b2c8b96ae4",
      "transactionType": "CALL",
      "contractName": null,
      "contractAddress": "0x3b1930860a0a109a3e66276332991081d9f3bc40",
      "function": "mint(uint256)",
      "arguments": [
        "6"
      ],
      "transaction": {
        "from": "0x8f088eca0009ad61fb94a6d7e9a5d7a087c08564",
        "to": "0x3b1930860a0a109a3e66276332991081d9f3bc40",
        "gas": "0x2419c",
        "value": "0x0",
        "input": "0xa0712d680000000000000000000000000000000000000000000000000000000000000006",
        "nonce": "0xa5f",
        "chainId": "0x14a34"
      },
      "additionalContracts": [],
      "isFixedGasLimit": false
    },
    {
      "hash": "0xb54605653bbdc1e732ab154b895b58212a9d49944c10a7bb5ff9d4713da289e1",
      "transactionType": "CALL",
      "contractName": null,
      "contractAddress": "0x3b1930860a0a109a3e66276332991081d9f3bc40",
      "function": "mint(uint256)",
      "arguments": [
        "6"
      ],
      "transaction": {
        "from": "0x8f088eca0009ad61fb94a6d7e9a5d7a087c08564",
        "to": "0x3b1930860a0a109a3e66276332991081d9f3bc40",
        "gas": "0x2419c",
        "value": "0x0",
        "input": "0xa0712d680000000000000000000000000000000000000000000000000000000000000006",
        "nonce": "0xa60",
        "chainId": "0x14a34"
      },
      "additionalContracts": [],
      "isFixedGasLimit": false
    },
    {
      "hash": "0xac43b119cc46db41d8540407817cdaaf77954bdfa083788765448b6e9cf77d24",
      "transactionType": "CALL",
      "contractName": null,
      "contractAddress": "0x3b1930860a0a109a3e66276332991081d9f3bc40",
      "function": "mint(uint256)",
      "arguments": [
        "6"
      ],
      "transaction": {
        "from": "0x8f088eca0009ad61fb94a6d7e9a5d7a087c08564",
        "to": "0x3b1930860a0a109a3e66276332991081d9f3bc40",
        "gas": "0x2419c",
        "value": "0x0",
        "input": "0xa0712d680000000000000000000000000000000000000000000000000000000000000006",
        "nonce": "0xa61",
        "chainId": "0x14a34"
      },
      "additionalContracts": [],
      "isFixedGasLimit": false
    },
    {
      "hash": "0xaef78cb67cd2b40c185d5aa484520704b6abb8b264158c0af4a01a99a6adb20f",
      "transactionType": "CALL",
      "contractName": null,
      "contractAddress": "0x3b1930860a0a109a3e66276332991081d9f3bc40",
      "function": "mint(uint256)",
      "arguments": [
        "6"
      ],
      "transaction": {
        "from": "0x8f088eca0009ad61fb94a6d7e9a5d7a087c08564",
        "to": "0x3b1930860a0a109a3e66276332991081d9f3bc40",
        "gas": "0x2419c",
        "value": "0x0",
        "input": "0xa0712d680000000000000000000000000000000000000000000000000000000000000006",
        "nonce": "0xa62",
        "chainId": "0x14a34"
      },
      "additionalContracts": [],
      "isFixedGasLimit": false
    },
    {
      "hash": "0x2015b7914125bf677583b0b6d5c3e479e97720ac8c754d54b440ee51e2b53ada",
      "transactionType": "CALL",
      "contractName": null,
      "contractAddress": "0x3b1930860a0a109a3e66276332991081d9f3bc40",
      "function": "mint(uint256)",
      "arguments": [
        "6"
      ],
      "transaction": {
        "from": "0x8f088eca0009ad61fb94a6d7e9a5d7a087c08564",
        "to": "0x3b1930860a0a109a3e66276332991081d9f3bc40",
        "gas": "0x2419c",
        "value": "0x0",
        "input": "0xa0712d680000000000000000000000000000000000000000000000000000000000000006",
        "nonce": "0xa63",
        "chainId": "0x14a34"
      },
      "additionalContracts": [],
      "isFixedGasLimit": false
    },
    {
      "hash": "0x69cabe35a21efc44fae16c092b29ff85e228626b067bcc50dd110dbee4f16a29",
      "transactionType": "CALL",
      "contractName": null,
      "contractAddress": "0x3b1930860a0a109a3e66276332991081d9f3bc40",
      "function": "mint(uint256)",
      "arguments": [
        "6"
      ],
      "transaction": {
        "from": "0x8f088eca0009ad61fb94a6d7e9a5d7a087c08564",
        "to": "0x3b1930860a0a109a3e66276332991081d9f3bc40",
        "gas": "0x2419c",
        "value": "0x0",
        "input": "0xa0712d680000000000000000000000000000000000000000000000000000000000000006",
        "nonce": "0xa64",
        "chainId": "0x14a34"
      },
      "additionalContracts": [],
      "isFixedGasLimit": false
    },
    {
      "hash": "0xa3142d425ee4ce0347f7018f39e2d6aaf5aba9ca8c38f6e2ce297986e9f0fa7f",
      "transactionType": "CALL",
      "contractName": null,
      "contractAddress": "0x3b1930860a0a109a3e66276332991081d9f3bc40",
      "function": "mint(uint256)",
      "arguments": [
        "6"
      ],
      "transaction": {
        "from": "0x8f088eca0009ad61fb94a6d7e9a5d7a087c08564",
        "to": "0x3b1930860a0a109a3e66276332991081d9f3bc40",
        "gas": "0x2419c",
        "value": "0x0",
        "input": "0xa0712d680000000000000000000000000000000000000000000000000000000000000006",
        "nonce": "0xa65",
        "chainId": "0x14a34"
      },
      "additionalContracts": [],
      "isFixedGasLimit": false
    },
    {
      "hash": "0xf4c708d2e85de698b7f932922180d2abe31b873b75661ddad7999f35836e35fa",
      "transactionType": "CALL",
      "contractName": null,
      "contractAddress": "0x3b1930860a0a109a3e66276332991081d9f3bc40",
      "function": "mint(uint256)",
      "arguments": [
        "6"
      ],
      "transaction": {
        "from": "0x8f088eca0009ad61fb94a6d7e9a5d7a087c08564",
        "to": "0x3b1930860a0a109a3e66276332991081d9f3bc40",
        "gas": "0x2419c",
        "value": "0x0",
        "input": "0xa0712d680000000000000000000000000000000000000000000000000000000000000006",
        "nonce": "0xa66",
        "chainId": "0x14a34"
      },
      "additionalContracts": [],
      "isFixedGasLimit": false
    },
    {
      "hash": "0x6287916bcd11ed793a5ef0ff0a45ed598ee28f7cc113a00a9539ac2390dd84eb",
      "transactionType": "CALL",
      "contractName": null,
      "contractAddress": "0x3b1930860a0a109a3e66276332991081d9f3bc40",
      "function": "mint(uint256)",
      "arguments": [
        "6"
      ],
      "transaction": {
        "from": "0x8f088eca0009ad61fb94a6d7e9a5d7a087c08564",
        "to": "0x3b1930860a0a109a3e66276332991081d9f3bc40",
        "gas": "0x2419c",
        "value": "0x0",
        "input": "0xa0712d680000000000000000000000000000000000000000000000000000000000000006",
        "nonce": "0xa67",
        "chainId": "0x14a34"
      },
      "additionalContracts": [],
      "isFixedGasLimit": false
    }
  ],
  "receipts": [
    {
      "status": "0x1",
      "cumulativeGasUsed": "0xd56c0d",
      "logs": [
        {
          "address": "0x3b1930860a0a109a3e66276332991081d9f3bc40",
          "topics": [
            "0xddf252ad1be2c89b69c2b068fc378daa952ba7f163c4a11628f55a4df523b3ef",
            "0x0000000000000000000000000000000000000000000000000000000000000000",
            "0x0000000000000000000000008f088eca0009ad61fb94a6d7e9a5d7a087c08564",
            "0x00000000000000000000000000000000000000000000000000000000005b8dec"
          ],
          "data": "0x",
          "blockHash": "0xa2355b324972f2105afc3c2c2bba3f5804ab2d99075f3817bb732c85049700bf",
          "blockNumber": "0x93259c",
          "transactionHash": "0x4910a6c6922ec398ad3f86754c36859ef2ec925e8c1f4cf804465afe6ae1bdb1",
          "transactionIndex": "0x5",
          "logIndex": "0x5c",
          "removed": false
        }
      ],
      "logsBloom": "0x00000000000000000000000000000000000000000000000000000000000000000000000000100000000001000000000000000000000000000000000000000200000000000000000000000008000080000000000010000000000000000000040080000000020000000000000000000800000000000000000000000010000000000000000000000000000000000000000000000000000000000000000000000000000000000000000000000000000000000000000000000000000000400000000000000002000000000000000000000000000000000000000000100000000020000000000000000000000000000000000000000000000000000000000000000000",
      "type": "0x2",
      "transactionHash": "0x4910a6c6922ec398ad3f86754c36859ef2ec925e8c1f4cf804465afe6ae1bdb1",
      "transactionIndex": "0x5",
      "blockHash": "0xa2355b324972f2105afc3c2c2bba3f5804ab2d99075f3817bb732c85049700bf",
      "blockNumber": "0x93259c",
      "gasUsed": "0x18af3",
      "effectiveGasPrice": "0xf4efc",
      "from": "0x8f088eca0009ad61fb94a6d7e9a5d7a087c08564",
      "to": "0x3b1930860a0a109a3e66276332991081d9f3bc40",
      "contractAddress": null,
      "l1Fee": "0x8eb46249bf14",
      "l1GasPrice": "0x2eea8a7f9",
      "l1GasUsed": "0x7dc"
    },
    {
      "status": "0x1",
      "cumulativeGasUsed": "0xd6f700",
      "logs": [
        {
          "address": "0x3b1930860a0a109a3e66276332991081d9f3bc40",
          "topics": [
            "0xddf252ad1be2c89b69c2b068fc378daa952ba7f163c4a11628f55a4df523b3ef",
            "0x0000000000000000000000000000000000000000000000000000000000000000",
            "0x0000000000000000000000008f088eca0009ad61fb94a6d7e9a5d7a087c08564",
            "0x00000000000000000000000000000000000000000000000000000000005b8ded"
          ],
          "data": "0x",
          "blockHash": "0xa2355b324972f2105afc3c2c2bba3f5804ab2d99075f3817bb732c85049700bf",
          "blockNumber": "0x93259c",
          "transactionHash": "0xc88958cac40b0ea690811fdf80c21d783a7179e8c2d906aa90c2d7c1597c291c",
          "transactionIndex": "0x6",
          "logIndex": "0x5d",
          "removed": false
        }
      ],
      "logsBloom": "0x00000000000000000000000000000000000000000000000000000000000000000000000000100000000001000000000000000000000000000000000000000200000000000000000000000008000080000000000000000000000000000000000080000000020000000000000000001800000000000000000000000010000000000000000000000000000000000000000000000000000000000000000000000000000000000000000080000000000000000000000000000000000000400000000000000002000000000000000000000000000400000000000000000000000020000000000000000000000000000000000000000000000000000000000000000000",
      "type": "0x2",
      "transactionHash": "0xc88958cac40b0ea690811fdf80c21d783a7179e8c2d906aa90c2d7c1597c291c",
      "transactionIndex": "0x6",
      "blockHash": "0xa2355b324972f2105afc3c2c2bba3f5804ab2d99075f3817bb732c85049700bf",
      "blockNumber": "0x93259c",
      "gasUsed": "0x18af3",
      "effectiveGasPrice": "0xf4efc",
      "from": "0x8f088eca0009ad61fb94a6d7e9a5d7a087c08564",
      "to": "0x3b1930860a0a109a3e66276332991081d9f3bc40",
      "contractAddress": null,
      "l1Fee": "0x8eb46249bf14",
      "l1GasPrice": "0x2eea8a7f9",
      "l1GasUsed": "0x7dc"
    },
    {
      "status": "0x1",
      "cumulativeGasUsed": "0xd881f3",
      "logs": [
        {
          "address": "0x3b1930860a0a109a3e66276332991081d9f3bc40",
          "topics": [
            "0xddf252ad1be2c89b69c2b068fc378daa952ba7f163c4a11628f55a4df523b3ef",
            "0x0000000000000000000000000000000000000000000000000000000000000000",
            "0x0000000000000000000000008f088eca0009ad61fb94a6d7e9a5d7a087c08564",
            "0x00000000000000000000000000000000000000000000000000000000005b8dee"
          ],
          "data": "0x",
          "blockHash": "0xa2355b324972f2105afc3c2c2bba3f5804ab2d99075f3817bb732c85049700bf",
          "blockNumber": "0x93259c",
          "transactionHash": "0x57ef1a90cf0e4e929227607cec335c27c43bed442da7bfc33b9131166fc7a082",
          "transactionIndex": "0x7",
          "logIndex": "0x5e",
          "removed": false
        }
      ],
      "logsBloom": "0x00000000000000000000000000000000000000000000000000000000000000000000000000100000000001000000000000000000000000000000000000000200000000000000000000000008000080000000000000000000000000000040000080000000020000000000000000000800000000000000000000000010000000000000000000000000000000000000000000000000000000000000000000000000000000000000000000000000000000000000000000000000000000400000000000000002000000000000000000000000000000000000000000000200000020000000000000000000000000000000000000000000000080000000000000000000",
      "type": "0x2",
      "transactionHash": "0x57ef1a90cf0e4e929227607cec335c27c43bed442da7bfc33b9131166fc7a082",
      "transactionIndex": "0x7",
      "blockHash": "0xa2355b324972f2105afc3c2c2bba3f5804ab2d99075f3817bb732c85049700bf",
      "blockNumber": "0x93259c",
      "gasUsed": "0x18af3",
      "effectiveGasPrice": "0xf4efc",
      "from": "0x8f088eca0009ad61fb94a6d7e9a5d7a087c08564",
      "to": "0x3b1930860a0a109a3e66276332991081d9f3bc40",
      "contractAddress": null,
      "l1Fee": "0x8dda7f3882e6",
      "l1GasPrice": "0x2eea8a7f9",
      "l1GasUsed": "0x7d0"
    },
    {
      "status": "0x1",
      "cumulativeGasUsed": "0xda0ce6",
      "logs": [
        {
          "address": "0x3b1930860a0a109a3e66276332991081d9f3bc40",
          "topics": [
            "0xddf252ad1be2c89b69c2b068fc378daa952ba7f163c4a11628f55a4df523b3ef",
            "0x0000000000000000000000000000000000000000000000000000000000000000",
            "0x0000000000000000000000008f088eca0009ad61fb94a6d7e9a5d7a087c08564",
            "0x00000000000000000000000000000000000000000000000000000000005b8def"
          ],
          "data": "0x",
          "blockHash": "0xa2355b324972f2105afc3c2c2bba3f5804ab2d99075f3817bb732c85049700bf",
          "blockNumber": "0x93259c",
          "transactionHash": "0x04079c1df9fb723e243fe414e7e64cef55ef1975ba086192a75c05f3c839e0dd",
          "transactionIndex": "0x8",
          "logIndex": "0x5f",
          "removed": false
        }
      ],
      "logsBloom": "0x00000000000000000000000000000000000000000000000000000000000000000000000000100000000001000000000000000000000000000000000000000200000000000000000000000008000080000000000000000000000000000000000080000000020000100000000000000800000000000000000000000010000000000000000000000000000000000000000000000000040000000000000000000000000000000000000000000000000000000000000000000000000000400000000000000002000000000000000000000000000000000000000000000010000020000000000000000000000000000000000000000000000000000000000000000000",
      "type": "0x2",
      "transactionHash": "0x04079c1df9fb723e243fe414e7e64cef55ef1975ba086192a75c05f3c839e0dd",
      "transactionIndex": "0x8",
      "blockHash": "0xa2355b324972f2105afc3c2c2bba3f5804ab2d99075f3817bb732c85049700bf",
      "blockNumber": "0x93259c",
      "gasUsed": "0x18af3",
      "effectiveGasPrice": "0xf4efc",
      "from": "0x8f088eca0009ad61fb94a6d7e9a5d7a087c08564",
      "to": "0x3b1930860a0a109a3e66276332991081d9f3bc40",
      "contractAddress": null,
      "l1Fee": "0x8d009c2746b9",
      "l1GasPrice": "0x2eea8a7f9",
      "l1GasUsed": "0x7c4"
    },
    {
      "status": "0x1",
      "cumulativeGasUsed": "0xdb97d9",
      "logs": [
        {
          "address": "0x3b1930860a0a109a3e66276332991081d9f3bc40",
          "topics": [
            "0xddf252ad1be2c89b69c2b068fc378daa952ba7f163c4a11628f55a4df523b3ef",
            "0x0000000000000000000000000000000000000000000000000000000000000000",
            "0x0000000000000000000000008f088eca0009ad61fb94a6d7e9a5d7a087c08564",
            "0x00000000000000000000000000000000000000000000000000000000005b8df0"
          ],
          "data": "0x",
          "blockHash": "0xa2355b324972f2105afc3c2c2bba3f5804ab2d99075f3817bb732c85049700bf",
          "blockNumber": "0x93259c",
          "transactionHash": "0x789cd1de39bb8e060022a978c470a8541d4b3282ebae718a1afc8fb8a3908dfd",
          "transactionIndex": "0x9",
          "logIndex": "0x60",
          "removed": false
        }
      ],
      "logsBloom": "0x00000000000000000300000000000000000000000000000000000008000000000000000000100000000001000000000000000000000000000000000000000200000000000000000000000008000080000000000000000000000000000000000080000000020000000000000000000800000000000000000000000010000000000000000000000000000000000000000000000000000000000000000000000000000000000000000000000000000000000000000000000000000000400000000000000002000000000000000000000000000000000000000000000000000020000000000000000000000000000000000000000000000000000000000000000000",
      "type": "0x2",
      "transactionHash": "0x789cd1de39bb8e060022a978c470a8541d4b3282ebae718a1afc8fb8a3908dfd",
      "transactionIndex": "0x9",
      "blockHash": "0xa2355b324972f2105afc3c2c2bba3f5804ab2d99075f3817bb732c85049700bf",
      "blockNumber": "0x93259c",
      "gasUsed": "0x18af3",
      "effectiveGasPrice": "0xf4efc",
      "from": "0x8f088eca0009ad61fb94a6d7e9a5d7a087c08564",
      "to": "0x3b1930860a0a109a3e66276332991081d9f3bc40",
      "contractAddress": null,
      "l1Fee": "0x8dda7f3882e6",
      "l1GasPrice": "0x2eea8a7f9",
      "l1GasUsed": "0x7d0"
    },
    {
      "status": "0x1",
      "cumulativeGasUsed": "0xdd22cc",
      "logs": [
        {
          "address": "0x3b1930860a0a109a3e66276332991081d9f3bc40",
          "topics": [
            "0xddf252ad1be2c89b69c2b068fc378daa952ba7f163c4a11628f55a4df523b3ef",
            "0x0000000000000000000000000000000000000000000000000000000000000000",
            "0x0000000000000000000000008f088eca0009ad61fb94a6d7e9a5d7a087c08564",
            "0x00000000000000000000000000000000000000000000000000000000005b8df1"
          ],
          "data": "0x",
          "blockHash": "0xa2355b324972f2105afc3c2c2bba3f5804ab2d99075f3817bb732c85049700bf",
          "blockNumber": "0x93259c",
          "transactionHash": "0x1741a946b0e3634e2260b4f787ac27af359b57de65d4f5652b28847eea229a8b",
          "transactionIndex": "0xa",
          "logIndex": "0x61",
          "removed": false
        }
      ],
      "logsBloom": "0x00000000000000000000000000000000000000000000000000000000000000000000000000100000000001000000000000000000000000000000000000000200000000000000000000000008000080000000000000000000000000000000000080000000020000000000000200000800000000000000000000000010000000000000000000000000000000000000000000000000000000000000000000000000000000000000000000000000000000000000000000000000000000400000000000000002000000000000000000000000000000000000000000000000000020000000000000000000000400000000000000000000000000000000000000008000",
      "type": "0x2",
      "transactionHash": "0x1741a946b0e3634e2260b4f787ac27af359b57de65d4f5652b28847eea229a8b",
      "transactionIndex": "0xa",
      "blockHash": "0xa2355b324972f2105afc3c2c2bba3f5804ab2d99075f3817bb732c85049700bf",
      "blockNumber": "0x93259c",
      "gasUsed": "0x18af3",
      "effectiveGasPrice": "0xf4efc",
      "from": "0x8f088eca0009ad61fb94a6d7e9a5d7a087c08564",
      "to": "0x3b1930860a0a109a3e66276332991081d9f3bc40",
      "contractAddress": null,
      "l1Fee": "0x8dda7f3882e6",
      "l1GasPrice": "0x2eea8a7f9",
      "l1GasUsed": "0x7d0"
    },
    {
      "status": "0x1",
      "cumulativeGasUsed": "0xdeadbf",
      "logs": [
        {
          "address": "0x3b1930860a0a109a3e66276332991081d9f3bc40",
          "topics": [
            "0xddf252ad1be2c89b69c2b068fc378daa952ba7f163c4a11628f55a4df523b3ef",
            "0x0000000000000000000000000000000000000000000000000000000000000000",
            "0x0000000000000000000000008f088eca0009ad61fb94a6d7e9a5d7a087c08564",
            "0x00000000000000000000000000000000000000000000000000000000005b8df2"
          ],
          "data": "0x",
          "blockHash": "0xa2355b324972f2105afc3c2c2bba3f5804ab2d99075f3817bb732c85049700bf",
          "blockNumber": "0x93259c",
          "transactionHash": "0x3e49dbe4c876a87023260ff281d881f6f0033089d6d3dc4c654fdc5c92df5200",
          "transactionIndex": "0xb",
          "logIndex": "0x62",
          "removed": false
        }
      ],
      "logsBloom": "0x00000000000000000000000000000000000000000000000000000000000000000000000000100000000001000000000000000000000000000000000000000200000000000000000000000008000080000000000000000000000000000000000080000000020000000000000004000800000000000000000000000010000000000000000000000000000000000000000000000000000000000000000000000000000000000000000000000000000000000800000000000000000000400000000000000002000000000000000800000000000000000000000000000000000020000000000000000000000000000000000000000000000000000000000000000000",
      "type": "0x2",
      "transactionHash": "0x3e49dbe4c876a87023260ff281d881f6f0033089d6d3dc4c654fdc5c92df5200",
      "transactionIndex": "0xb",
      "blockHash": "0xa2355b324972f2105afc3c2c2bba3f5804ab2d99075f3817bb732c85049700bf",
      "blockNumber": "0x93259c",
      "gasUsed": "0x18af3",
      "effectiveGasPrice": "0xf4efc",
      "from": "0x8f088eca0009ad61fb94a6d7e9a5d7a087c08564",
      "to": "0x3b1930860a0a109a3e66276332991081d9f3bc40",
      "contractAddress": null,
      "l1Fee": "0x8eb46249bf14",
      "l1GasPrice": "0x2eea8a7f9",
      "l1GasUsed": "0x7dc"
    },
    {
      "status": "0x1",
      "cumulativeGasUsed": "0xe038b2",
      "logs": [
        {
          "address": "0x3b1930860a0a109a3e66276332991081d9f3bc40",
          "topics": [
            "0xddf252ad1be2c89b69c2b068fc378daa952ba7f163c4a11628f55a4df523b3ef",
            "0x0000000000000000000000000000000000000000000000000000000000000000",
            "0x0000000000000000000000008f088eca0009ad61fb94a6d7e9a5d7a087c08564",
            "0x00000000000000000000000000000000000000000000000000000000005b8df3"
          ],
          "data": "0x",
          "blockHash": "0xa2355b324972f2105afc3c2c2bba3f5804ab2d99075f3817bb732c85049700bf",
          "blockNumber": "0x93259c",
          "transactionHash": "0x97167878926014e39d363cd2a1e3f7d354178cbb574d0bb9e381ea56e79f1054",
          "transactionIndex": "0xc",
          "logIndex": "0x63",
          "removed": false
        }
      ],
      "logsBloom": "0x00000000000000000000000000000000000000000000000000000000000000000000000000100000000001000000000000000000000000000000000000000200000000000000000000000008000080000000000000000000000000000000000080000000020000000000000000000800000000000000000000000010000000000000000000000000000000000000000000000000000000000000000000000000000000000000010000040000000000000000000000000000000000400000000000000002000000000000000000000000000000000000000000000000000020000000000008000000000000000000000000000000000000000000000000000000",
      "type": "0x2",
      "transactionHash": "0x97167878926014e39d363cd2a1e3f7d354178cbb574d0bb9e381ea56e79f1054",
      "transactionIndex": "0xc",
      "blockHash": "0xa2355b324972f2105afc3c2c2bba3f5804ab2d99075f3817bb732c85049700bf",
      "blockNumber": "0x93259c",
      "gasUsed": "0x18af3",
      "effectiveGasPrice": "0xf4efc",
      "from": "0x8f088eca0009ad61fb94a6d7e9a5d7a087c08564",
      "to": "0x3b1930860a0a109a3e66276332991081d9f3bc40",
      "contractAddress": null,
      "l1Fee": "0x8cb7fb2187ff",
      "l1GasPrice": "0x2eea8a7f9",
      "l1GasUsed": "0x7c0"
    },
    {
      "status": "0x1",
      "cumulativeGasUsed": "0x148a2e",
      "logs": [
        {
          "address": "0x3b1930860a0a109a3e66276332991081d9f3bc40",
          "topics": [
            "0xddf252ad1be2c89b69c2b068fc378daa952ba7f163c4a11628f55a4df523b3ef",
            "0x0000000000000000000000000000000000000000000000000000000000000000",
            "0x0000000000000000000000008f088eca0009ad61fb94a6d7e9a5d7a087c08564",
            "0x00000000000000000000000000000000000000000000000000000000005b8df4"
          ],
          "data": "0x",
          "blockHash": "0xb97f2cd6bfdea2ffa972e7a7efa6b233a1fcc1ecd6fabf10a394ed229fdab0c7",
          "blockNumber": "0x93259d",
          "transactionHash": "0xcb35a2d9c1d2a8f545a640878309826288d46fe1c68acbdc0a99c8e3bf6d5643",
          "transactionIndex": "0xc",
          "logIndex": "0xd",
          "removed": false
        }
      ],
      "logsBloom": "0x00000000000000000000000000000000000000000000000000000000000000000000000000100000000001000000000000000000000000000000000000000200000000000000000000000008000080000000000000000000000000000000400080000000060000000000000000000800000000000000000000000010000000000000000000000000000000000000000000000000000000000000000000000000000400000000000000000000000000000000000000000000000000400000000000000002000000000000000000000000000000000000000000000000000020000000000000000000000000000000000000000000000000000000000000000000",
      "type": "0x2",
      "transactionHash": "0xcb35a2d9c1d2a8f545a640878309826288d46fe1c68acbdc0a99c8e3bf6d5643",
      "transactionIndex": "0xc",
      "blockHash": "0xb97f2cd6bfdea2ffa972e7a7efa6b233a1fcc1ecd6fabf10a394ed229fdab0c7",
      "blockNumber": "0x93259d",
      "gasUsed": "0x18af3",
      "effectiveGasPrice": "0xf4f1b",
      "from": "0x8f088eca0009ad61fb94a6d7e9a5d7a087c08564",
      "to": "0x3b1930860a0a109a3e66276332991081d9f3bc40",
      "contractAddress": null,
      "l1Fee": "0x8eb46249bf14",
      "l1GasPrice": "0x2eea8a7f9",
      "l1GasUsed": "0x7dc"
    },
    {
      "status": "0x1",
      "cumulativeGasUsed": "0x161521",
      "logs": [
        {
          "address": "0x3b1930860a0a109a3e66276332991081d9f3bc40",
          "topics": [
            "0xddf252ad1be2c89b69c2b068fc378daa952ba7f163c4a11628f55a4df523b3ef",
            "0x0000000000000000000000000000000000000000000000000000000000000000",
            "0x0000000000000000000000008f088eca0009ad61fb94a6d7e9a5d7a087c08564",
            "0x00000000000000000000000000000000000000000000000000000000005b8df5"
          ],
          "data": "0x",
          "blockHash": "0xb97f2cd6bfdea2ffa972e7a7efa6b233a1fcc1ecd6fabf10a394ed229fdab0c7",
          "blockNumber": "0x93259d",
          "transactionHash": "0x7933f25d04e813e7b441d0a7b06e084c532f9768bd46af46840b091bdac20388",
          "transactionIndex": "0xd",
          "logIndex": "0xe",
          "removed": false
        }
      ],
      "logsBloom": "0x00040000000000000000000000000000000000000000000000000000000000000000000000100000000001000000000000000000000000000000000000000200000000000000000000000008000080000000000000000000000000000000000080000000020000000000000000000800000000000000000000000010000800000000000000000000000000000000000000000000000000000000000000000000000000000000000000000000000000000000000000020000000000400000000000000002000000000000000000000000000000000000000000000000000020000000000000000000000000000000000000000000000000000000000000000000",
      "type": "0x2",
      "transactionHash": "0x7933f25d04e813e7b441d0a7b06e084c532f9768bd46af46840b091bdac20388",
      "transactionIndex": "0xd",
      "blockHash": "0xb97f2cd6bfdea2ffa972e7a7efa6b233a1fcc1ecd6fabf10a394ed229fdab0c7",
      "blockNumber": "0x93259d",
      "gasUsed": "0x18af3",
      "effectiveGasPrice": "0xf4f1b",
      "from": "0x8f088eca0009ad61fb94a6d7e9a5d7a087c08564",
      "to": "0x3b1930860a0a109a3e66276332991081d9f3bc40",
      "contractAddress": null,
      "l1Fee": "0x8dda7f3882e6",
      "l1GasPrice": "0x2eea8a7f9",
      "l1GasUsed": "0x7d0"
    },
    {
      "status": "0x1",
      "cumulativeGasUsed": "0x17f410",
      "logs": [
        {
          "address": "0x3b1930860a0a109a3e66276332991081d9f3bc40",
          "topics": [
            "0xddf252ad1be2c89b69c2b068fc378daa952ba7f163c4a11628f55a4df523b3ef",
            "0x0000000000000000000000000000000000000000000000000000000000000000",
            "0x0000000000000000000000008f088eca0009ad61fb94a6d7e9a5d7a087c08564",
            "0x00000000000000000000000000000000000000000000000000000000005b8df6"
          ],
          "data": "0x",
          "blockHash": "0xb97f2cd6bfdea2ffa972e7a7efa6b233a1fcc1ecd6fabf10a394ed229fdab0c7",
          "blockNumber": "0x93259d",
          "transactionHash": "0xa52d0b105e36072f9aed8f0fdbed214bab34d8f3147d9580ccdce9bd12ef98be",
          "transactionIndex": "0xf",
          "logIndex": "0xf",
          "removed": false
        }
      ],
      "logsBloom": "0x00000000000000000000000000000000000000000000000000000000000020000000000000100000000001000000000000000000000000000000000000000200000000000000000000000008000080000000000000000000008000000000000080000000020000000000000000000800000000000000000000000010000000000000000000000000000000000000000000000000000000000000000000000000000000000000000000000000000000000000000000000000000000400000000000000002000000000000000000000000000000000000000000000000000020000000000000000000000000000000000000000000000000000000020000000000",
      "type": "0x2",
      "transactionHash": "0xa52d0b105e36072f9aed8f0fdbed214bab34d8f3147d9580ccdce9bd12ef98be",
      "transactionIndex": "0xf",
      "blockHash": "0xb97f2cd6bfdea2ffa972e7a7efa6b233a1fcc1ecd6fabf10a394ed229fdab0c7",
      "blockNumber": "0x93259d",
      "gasUsed": "0x18af3",
      "effectiveGasPrice": "0xf4f1b",
      "from": "0x8f088eca0009ad61fb94a6d7e9a5d7a087c08564",
      "to": "0x3b1930860a0a109a3e66276332991081d9f3bc40",
      "contractAddress": null,
      "l1Fee": "0x8eb46249bf14",
      "l1GasPrice": "0x2eea8a7f9",
      "l1GasUsed": "0x7dc"
    },
    {
      "status": "0x1",
      "cumulativeGasUsed": "0x197f03",
      "logs": [
        {
          "address": "0x3b1930860a0a109a3e66276332991081d9f3bc40",
          "topics": [
            "0xddf252ad1be2c89b69c2b068fc378daa952ba7f163c4a11628f55a4df523b3ef",
            "0x0000000000000000000000000000000000000000000000000000000000000000",
            "0x0000000000000000000000008f088eca0009ad61fb94a6d7e9a5d7a087c08564",
            "0x00000000000000000000000000000000000000000000000000000000005b8df7"
          ],
          "data": "0x",
          "blockHash": "0xb97f2cd6bfdea2ffa972e7a7efa6b233a1fcc1ecd6fabf10a394ed229fdab0c7",
          "blockNumber": "0x93259d",
          "transactionHash": "0xea1e999b4994a19695bfa7635d421e6eaac391c1e48987d118f38ed9876d5083",
          "transactionIndex": "0x10",
          "logIndex": "0x10",
          "removed": false
        }
      ],
      "logsBloom": "0x00000000000000000000000000000000000000000000000000000000000000000000000000100000000001000000000000000000000000000000000000000200000000800000000000000008000080000000000000000000000000000000000080000000020000000800000000000800000000000000000000000010000000000000000000000000000000000000000000000000000000000000000000000000000000000000100000000000000000000000000000000000000000400000000000000002000000000000000000000000000000000000000000000000000020000000000000000000000000000000000000000000000000000000000000000000",
      "type": "0x2",
      "transactionHash": "0xea1e999b4994a19695bfa7635d421e6eaac391c1e48987d118f38ed9876d5083",
      "transactionIndex": "0x10",
      "blockHash": "0xb97f2cd6bfdea2ffa972e7a7efa6b233a1fcc1ecd6fabf10a394ed229fdab0c7",
      "blockNumber": "0x93259d",
      "gasUsed": "0x18af3",
      "effectiveGasPrice": "0xf4f1b",
      "from": "0x8f088eca0009ad61fb94a6d7e9a5d7a087c08564",
      "to": "0x3b1930860a0a109a3e66276332991081d9f3bc40",
      "contractAddress": null,
      "l1Fee": "0x8dda7f3882e6",
      "l1GasPrice": "0x2eea8a7f9",
      "l1GasUsed": "0x7d0"
    },
    {
      "status": "0x1",
      "cumulativeGasUsed": "0x1b09f6",
      "logs": [
        {
          "address": "0x3b1930860a0a109a3e66276332991081d9f3bc40",
          "topics": [
            "0xddf252ad1be2c89b69c2b068fc378daa952ba7f163c4a11628f55a4df523b3ef",
            "0x0000000000000000000000000000000000000000000000000000000000000000",
            "0x0000000000000000000000008f088eca0009ad61fb94a6d7e9a5d7a087c08564",
            "0x00000000000000000000000000000000000000000000000000000000005b8df8"
          ],
          "data": "0x",
          "blockHash": "0xb97f2cd6bfdea2ffa972e7a7efa6b233a1fcc1ecd6fabf10a394ed229fdab0c7",
          "blockNumber": "0x93259d",
          "transactionHash": "0x6b3bc4f72b1493ec8f574b7d8d7fd81773191c03be4e20cab6a48d6dbb7e2f4f",
          "transactionIndex": "0x11",
          "logIndex": "0x11",
          "removed": false
        }
      ],
      "logsBloom": "0x000000000000000000000000000000000040000000000000000000000000000000000000001000000000010000000000000000000000000000000000000002000000000000000000000000080000800000000000000000000000000000000000c0000000020000000000000000000800000000000000000000000010000000000000000000000000000000000000000000000000000000000000000000000000000000000000000000000000000000000000000000000000000000400000000000000002000000000000000000000000000000000000008000000000000020000000000000000000000000000000000000000000000000000000000000000000",
      "type": "0x2",
      "transactionHash": "0x6b3bc4f72b1493ec8f574b7d8d7fd81773191c03be4e20cab6a48d6dbb7e2f4f",
      "transactionIndex": "0x11",
      "blockHash": "0xb97f2cd6bfdea2ffa972e7a7efa6b233a1fcc1ecd6fabf10a394ed229fdab0c7",
      "blockNumber": "0x93259d",
      "gasUsed": "0x18af3",
      "effectiveGasPrice": "0xf4f1b",
      "from": "0x8f088eca0009ad61fb94a6d7e9a5d7a087c08564",
      "to": "0x3b1930860a0a109a3e66276332991081d9f3bc40",
      "contractAddress": null,
      "l1Fee": "0x8eb46249bf14",
      "l1GasPrice": "0x2eea8a7f9",
      "l1GasUsed": "0x7dc"
    },
    {
      "status": "0x1",
      "cumulativeGasUsed": "0x1c94e9",
      "logs": [
        {
          "address": "0x3b1930860a0a109a3e66276332991081d9f3bc40",
          "topics": [
            "0xddf252ad1be2c89b69c2b068fc378daa952ba7f163c4a11628f55a4df523b3ef",
            "0x0000000000000000000000000000000000000000000000000000000000000000",
            "0x0000000000000000000000008f088eca0009ad61fb94a6d7e9a5d7a087c08564",
            "0x00000000000000000000000000000000000000000000000000000000005b8df9"
          ],
          "data": "0x",
          "blockHash": "0xb97f2cd6bfdea2ffa972e7a7efa6b233a1fcc1ecd6fabf10a394ed229fdab0c7",
          "blockNumber": "0x93259d",
          "transactionHash": "0x3413682926371f83eee6a6b0459fa12cd83f3eb19b9578e176b49bb7a632da3b",
          "transactionIndex": "0x12",
          "logIndex": "0x12",
          "removed": false
        }
      ],
      "logsBloom": "0x00000000000000000000000000000000000000000000000000000000000000000000000000100000000001000000000000000000000000000000000000000200000000000000000000000008000080000000000000000000000000000000800080000000020000000000000000000800000000000000000000000010000000000000000000000000000000000000000000000000000000000000000000000000000000000000000000000000000000000000000000000000000000400000000000000002000000000000000000000000000000000010000000000000000020000000000000000000000000000000000000000000002000000000000000000000",
      "type": "0x2",
      "transactionHash": "0x3413682926371f83eee6a6b0459fa12cd83f3eb19b9578e176b49bb7a632da3b",
      "transactionIndex": "0x12",
      "blockHash": "0xb97f2cd6bfdea2ffa972e7a7efa6b233a1fcc1ecd6fabf10a394ed229fdab0c7",
      "blockNumber": "0x93259d",
      "gasUsed": "0x18af3",
      "effectiveGasPrice": "0xf4f1b",
      "from": "0x8f088eca0009ad61fb94a6d7e9a5d7a087c08564",
      "to": "0x3b1930860a0a109a3e66276332991081d9f3bc40",
      "contractAddress": null,
      "l1Fee": "0x8d009c2746b9",
      "l1GasPrice": "0x2eea8a7f9",
      "l1GasUsed": "0x7c4"
    },
    {
      "status": "0x1",
      "cumulativeGasUsed": "0x1e1fdc",
      "logs": [
        {
          "address": "0x3b1930860a0a109a3e66276332991081d9f3bc40",
          "topics": [
            "0xddf252ad1be2c89b69c2b068fc378daa952ba7f163c4a11628f55a4df523b3ef",
            "0x0000000000000000000000000000000000000000000000000000000000000000",
            "0x0000000000000000000000008f088eca0009ad61fb94a6d7e9a5d7a087c08564",
            "0x00000000000000000000000000000000000000000000000000000000005b8dfa"
          ],
          "data": "0x",
          "blockHash": "0xb97f2cd6bfdea2ffa972e7a7efa6b233a1fcc1ecd6fabf10a394ed229fdab0c7",
          "blockNumber": "0x93259d",
          "transactionHash": "0xfcac81baa595838da39f673bb55f25d6dce000c77951822cd0e89675fdfff39b",
          "transactionIndex": "0x13",
          "logIndex": "0x13",
          "removed": false
        }
      ],
      "logsBloom": "0x00000000000000000000000000000000000000000000000000000000000000000000000000100000000001000000000000000000000000000000000000000200000000000000000000000008000080000000000000001000000000000000000080000000020000000000000000000800000000000000000000000010000000000000000000000000000000000000000000000000000000000000000000000000000000000000000000000000000000000000000000000000000000400000000000000002000020000000000000000000000000000000000000000000000020000000000000000000000000000000000000000000000000000000000200000000",
      "type": "0x2",
      "transactionHash": "0xfcac81baa595838da39f673bb55f25d6dce000c77951822cd0e89675fdfff39b",
      "transactionIndex": "0x13",
      "blockHash": "0xb97f2cd6bfdea2ffa972e7a7efa6b233a1fcc1ecd6fabf10a394ed229fdab0c7",
      "blockNumber": "0x93259d",
      "gasUsed": "0x18af3",
      "effectiveGasPrice": "0xf4f1b",
      "from": "0x8f088eca0009ad61fb94a6d7e9a5d7a087c08564",
      "to": "0x3b1930860a0a109a3e66276332991081d9f3bc40",
      "contractAddress": null,
      "l1Fee": "0x8eb46249bf14",
      "l1GasPrice": "0x2eea8a7f9",
      "l1GasUsed": "0x7dc"
    },
    {
      "status": "0x1",
      "cumulativeGasUsed": "0x1faacf",
      "logs": [
        {
          "address": "0x3b1930860a0a109a3e66276332991081d9f3bc40",
          "topics": [
            "0xddf252ad1be2c89b69c2b068fc378daa952ba7f163c4a11628f55a4df523b3ef",
            "0x0000000000000000000000000000000000000000000000000000000000000000",
            "0x0000000000000000000000008f088eca0009ad61fb94a6d7e9a5d7a087c08564",
            "0x00000000000000000000000000000000000000000000000000000000005b8dfb"
          ],
          "data": "0x",
          "blockHash": "0xb97f2cd6bfdea2ffa972e7a7efa6b233a1fcc1ecd6fabf10a394ed229fdab0c7",
          "blockNumber": "0x93259d",
          "transactionHash": "0xe19f06b0049d46d9719cb0ea2c43074495b32e1fb9e7032448b58e8f553ebfe3",
          "transactionIndex": "0x14",
          "logIndex": "0x14",
          "removed": false
        }
      ],
      "logsBloom": "0x000000000000000000000000000000000000000000000000000000000000000040000000001000000000010000000000000000000000000000000000000002000000000000000000000000080000a0000000000000000000000000000000000080000000020000000000000000000800000000000000000000000010000000000000000000000000000000000000040000000000000000000000000000000000000000000000000000000000000000000000000000000000000000400000000000000002000000000000000000000000000000000000000000000000000020000000000000000000000000000000000000000000000000000000000000000000",
      "type": "0x2",
      "transactionHash": "0xe19f06b0049d46d9719cb0ea2c43074495b32e1fb9e7032448b58e8f553ebfe3",
      "transactionIndex": "0x14",
      "blockHash": "0xb97f2cd6bfdea2ffa972e7a7efa6b233a1fcc1ecd6fabf10a394ed229fdab0c7",
      "blockNumber": "0x93259d",
      "gasUsed": "0x18af3",
      "effectiveGasPrice": "0xf4f1b",
      "from": "0x8f088eca0009ad61fb94a6d7e9a5d7a087c08564",
      "to": "0x3b1930860a0a109a3e66276332991081d9f3bc40",
      "contractAddress": null,
      "l1Fee": "0x8eb46249bf14",
      "l1GasPrice": "0x2eea8a7f9",
      "l1GasUsed": "0x7dc"
    },
    {
      "status": "0x1",
      "cumulativeGasUsed": "0x2135c2",
      "logs": [
        {
          "address": "0x3b1930860a0a109a3e66276332991081d9f3bc40",
          "topics": [
            "0xddf252ad1be2c89b69c2b068fc378daa952ba7f163c4a11628f55a4df523b3ef",
            "0x0000000000000000000000000000000000000000000000000000000000000000",
            "0x0000000000000000000000008f088eca0009ad61fb94a6d7e9a5d7a087c08564",
            "0x00000000000000000000000000000000000000000000000000000000005b8dfc"
          ],
          "data": "0x",
          "blockHash": "0xb97f2cd6bfdea2ffa972e7a7efa6b233a1fcc1ecd6fabf10a394ed229fdab0c7",
          "blockNumber": "0x93259d",
          "transactionHash": "0xb18f4688bacd6630ea7a4294121be4ad35166cbd62ca925f239062a483e2b300",
          "transactionIndex": "0x15",
          "logIndex": "0x15",
          "removed": false
        }
      ],
      "logsBloom": "0x00000000000000000000000000000000000000000000000000000000000000000000000000100000000001000000000000000000000000000000000000000200000000000000000000000008000080000400000000000000000000000000000080000000020000000000000000000800000000000000000000000010000000000000000000000000000000000000000000000000000000000000000000000000000000000000002000000000000000000000000010000000000000400000000000000002000000000000000000000000000000000000000000000000000020000000000000000000000000000000000000000000000000000000000000000000",
      "type": "0x2",
      "transactionHash": "0xb18f4688bacd6630ea7a4294121be4ad35166cbd62ca925f239062a483e2b300",
      "transactionIndex": "0x15",
      "blockHash": "0xb97f2cd6bfdea2ffa972e7a7efa6b233a1fcc1ecd6fabf10a394ed229fdab0c7",
      "blockNumber": "0x93259d",
      "gasUsed": "0x18af3",
      "effectiveGasPrice": "0xf4f1b",
      "from": "0x8f088eca0009ad61fb94a6d7e9a5d7a087c08564",
      "to": "0x3b1930860a0a109a3e66276332991081d9f3bc40",
      "contractAddress": null,
      "l1Fee": "0x8eb46249bf14",
      "l1GasPrice": "0x2eea8a7f9",
      "l1GasUsed": "0x7dc"
    },
    {
      "status": "0x1",
      "cumulativeGasUsed": "0x22c0b5",
      "logs": [
        {
          "address": "0x3b1930860a0a109a3e66276332991081d9f3bc40",
          "topics": [
            "0xddf252ad1be2c89b69c2b068fc378daa952ba7f163c4a11628f55a4df523b3ef",
            "0x0000000000000000000000000000000000000000000000000000000000000000",
            "0x0000000000000000000000008f088eca0009ad61fb94a6d7e9a5d7a087c08564",
            "0x00000000000000000000000000000000000000000000000000000000005b8dfd"
          ],
          "data": "0x",
          "blockHash": "0xb97f2cd6bfdea2ffa972e7a7efa6b233a1fcc1ecd6fabf10a394ed229fdab0c7",
          "blockNumber": "0x93259d",
          "transactionHash": "0x2a8143ddce14352c13cb1145313a2f925e7e933e8e0c1fe95f68342cf0b932c5",
          "transactionIndex": "0x16",
          "logIndex": "0x16",
          "removed": false
        }
      ],
      "logsBloom": "0x00000000000000000000000000000000000000000004000000000000000000000000000000100000000001000000000000000000000000000000000000000200000000000000000000000008000080000000000000000000000000000000000280000000020000000000000000000800000000000000000000000010000000000000000000000000000000000000000000000000000000000000000000000000000000040000000000000000000000000000000000000000000000400000000000000002000000000000000000000000000000000000000000000000000020000000000000000000000000000000000000000000000000000000000000000000",
      "type": "0x2",
      "transactionHash": "0x2a8143ddce14352c13cb1145313a2f925e7e933e8e0c1fe95f68342cf0b932c5",
      "transactionIndex": "0x16",
      "blockHash": "0xb97f2cd6bfdea2ffa972e7a7efa6b233a1fcc1ecd6fabf10a394ed229fdab0c7",
      "blockNumber": "0x93259d",
      "gasUsed": "0x18af3",
      "effectiveGasPrice": "0xf4f1b",
      "from": "0x8f088eca0009ad61fb94a6d7e9a5d7a087c08564",
      "to": "0x3b1930860a0a109a3e66276332991081d9f3bc40",
      "contractAddress": null,
      "l1Fee": "0x8eb46249bf14",
      "l1GasPrice": "0x2eea8a7f9",
      "l1GasUsed": "0x7dc"
    },
    {
      "status": "0x1",
      "cumulativeGasUsed": "0x244ba8",
      "logs": [
        {
          "address": "0x3b1930860a0a109a3e66276332991081d9f3bc40",
          "topics": [
            "0xddf252ad1be2c89b69c2b068fc378daa952ba7f163c4a11628f55a4df523b3ef",
            "0x0000000000000000000000000000000000000000000000000000000000000000",
            "0x0000000000000000000000008f088eca0009ad61fb94a6d7e9a5d7a087c08564",
            "0x00000000000000000000000000000000000000000000000000000000005b8dfe"
          ],
          "data": "0x",
          "blockHash": "0xb97f2cd6bfdea2ffa972e7a7efa6b233a1fcc1ecd6fabf10a394ed229fdab0c7",
          "blockNumber": "0x93259d",
          "transactionHash": "0x1c8d5ba48e37d50bf834e4c76a3c88bc95cb7eb7da23776c8118177fe1675132",
          "transactionIndex": "0x17",
          "logIndex": "0x17",
          "removed": false
        }
      ],
      "logsBloom": "0x00000000000000000000000000000000001000000000000000000000000000000000000000100000000001000000000000000000000000000000000000000200000000000000000000000008000080000000000000000000000000000000000080000000020000000000000000000800000000000000000000000010200000000000000000000000000000000000000000000000000000000000000000000000000000000000000000000000000000000000000000000000000000400040000000000002000000000000000000000000000000000000000000000000000020000000000000000000000000000000000000000000000000000000000000000000",
      "type": "0x2",
      "transactionHash": "0x1c8d5ba48e37d50bf834e4c76a3c88bc95cb7eb7da23776c8118177fe1675132",
      "transactionIndex": "0x17",
      "blockHash": "0xb97f2cd6bfdea2ffa972e7a7efa6b233a1fcc1ecd6fabf10a394ed229fdab0c7",
      "blockNumber": "0x93259d",
      "gasUsed": "0x18af3",
      "effectiveGasPrice": "0xf4f1b",
      "from": "0x8f088eca0009ad61fb94a6d7e9a5d7a087c08564",
      "to": "0x3b1930860a0a109a3e66276332991081d9f3bc40",
      "contractAddress": null,
      "l1Fee": "0x8eb46249bf14",
      "l1GasPrice": "0x2eea8a7f9",
      "l1GasUsed": "0x7dc"
    },
    {
      "status": "0x1",
      "cumulativeGasUsed": "0x25d69b",
      "logs": [
        {
          "address": "0x3b1930860a0a109a3e66276332991081d9f3bc40",
          "topics": [
            "0xddf252ad1be2c89b69c2b068fc378daa952ba7f163c4a11628f55a4df523b3ef",
            "0x0000000000000000000000000000000000000000000000000000000000000000",
            "0x0000000000000000000000008f088eca0009ad61fb94a6d7e9a5d7a087c08564",
            "0x00000000000000000000000000000000000000000000000000000000005b8dff"
          ],
          "data": "0x",
          "blockHash": "0xb97f2cd6bfdea2ffa972e7a7efa6b233a1fcc1ecd6fabf10a394ed229fdab0c7",
          "blockNumber": "0x93259d",
          "transactionHash": "0x90d2e26257a7f18332332738b4f0a6fa113e11887210fdd4f0fbcdac92784626",
          "transactionIndex": "0x18",
          "logIndex": "0x18",
          "removed": false
        }
      ],
      "logsBloom": "0x00000000000000000000000000000000000000000000000000000000000000000000000000100000000001000000000000000000080000000000000000000200000000000000000000000008000080000000000000000000000000000008000080000000020000000000000000000800000000000000000000000010000000000000000000000000000000000000000000000000000000000000000000000000000000000000000000000000000000000000000000000000000000400000000000000002000000000000000000000000002000000000000000000000000020000000000000000000000000000000000000000000000000000000000000000000",
      "type": "0x2",
      "transactionHash": "0x90d2e26257a7f18332332738b4f0a6fa113e11887210fdd4f0fbcdac92784626",
      "transactionIndex": "0x18",
      "blockHash": "0xb97f2cd6bfdea2ffa972e7a7efa6b233a1fcc1ecd6fabf10a394ed229fdab0c7",
      "blockNumber": "0x93259d",
      "gasUsed": "0x18af3",
      "effectiveGasPrice": "0xf4f1b",
      "from": "0x8f088eca0009ad61fb94a6d7e9a5d7a087c08564",
      "to": "0x3b1930860a0a109a3e66276332991081d9f3bc40",
      "contractAddress": null,
      "l1Fee": "0x8eb46249bf14",
      "l1GasPrice": "0x2eea8a7f9",
      "l1GasUsed": "0x7dc"
    },
    {
      "status": "0x1",
      "cumulativeGasUsed": "0x27618e",
      "logs": [
        {
          "address": "0x3b1930860a0a109a3e66276332991081d9f3bc40",
          "topics": [
            "0xddf252ad1be2c89b69c2b068fc378daa952ba7f163c4a11628f55a4df523b3ef",
            "0x0000000000000000000000000000000000000000000000000000000000000000",
            "0x0000000000000000000000008f088eca0009ad61fb94a6d7e9a5d7a087c08564",
            "0x00000000000000000000000000000000000000000000000000000000005b8e00"
          ],
          "data": "0x",
          "blockHash": "0xb97f2cd6bfdea2ffa972e7a7efa6b233a1fcc1ecd6fabf10a394ed229fdab0c7",
          "blockNumber": "0x93259d",
          "transactionHash": "0x7e3291a82416d449d8b186171e98cc2810eacb579126333f8870e92811bc2350",
          "transactionIndex": "0x19",
          "logIndex": "0x19",
          "removed": false
        }
      ],
      "logsBloom": "0x00000000400000000000000000000000000000000000000000000000000000000000000000100000000001000000000000000000000000000000000000000200000000001000000000000008000080000000000000000000000000000000000080000000020000000000000000000800000000000000002000000010000000000000000000000000000000000000000000000000000000000000000000000000000000000000000000000000000000000000000000000000000000400000000000000002000000000000000000000000000000000000000000000000000020000000000000000000000000000000000000000000000000000000000000000000",
      "type": "0x2",
      "transactionHash": "0x7e3291a82416d449d8b186171e98cc2810eacb579126333f8870e92811bc2350",
      "transactionIndex": "0x19",
      "blockHash": "0xb97f2cd6bfdea2ffa972e7a7efa6b233a1fcc1ecd6fabf10a394ed229fdab0c7",
      "blockNumber": "0x93259d",
      "gasUsed": "0x18af3",
      "effectiveGasPrice": "0xf4f1b",
      "from": "0x8f088eca0009ad61fb94a6d7e9a5d7a087c08564",
      "to": "0x3b1930860a0a109a3e66276332991081d9f3bc40",
      "contractAddress": null,
      "l1Fee": "0x8dda7f3882e6",
      "l1GasPrice": "0x2eea8a7f9",
      "l1GasUsed": "0x7d0"
    },
    {
      "status": "0x1",
      "cumulativeGasUsed": "0x28ec81",
      "logs": [
        {
          "address": "0x3b1930860a0a109a3e66276332991081d9f3bc40",
          "topics": [
            "0xddf252ad1be2c89b69c2b068fc378daa952ba7f163c4a11628f55a4df523b3ef",
            "0x0000000000000000000000000000000000000000000000000000000000000000",
            "0x0000000000000000000000008f088eca0009ad61fb94a6d7e9a5d7a087c08564",
            "0x00000000000000000000000000000000000000000000000000000000005b8e01"
          ],
          "data": "0x",
          "blockHash": "0xb97f2cd6bfdea2ffa972e7a7efa6b233a1fcc1ecd6fabf10a394ed229fdab0c7",
          "blockNumber": "0x93259d",
          "transactionHash": "0x3091660012e6dfff021a7f2a0a28030d7a64bd319d6bcf341574dc4e37530ce6",
          "transactionIndex": "0x1a",
          "logIndex": "0x1a",
          "removed": false
        }
      ],
      "logsBloom": "0x00000000000000000000000000000000000000000000000000000000000000000000000000100000000001000000000000000000000000000000000000000200000000000000000000000008000080000000000000000000000000000000000080000000020000000000000000000800000000000000000000000010000000000000000000000000000000000000000000000000000000000008000000000000000000000000000000000000000000000000000000000000000000400000000000000002000000000000000000000000000000000000000000010000200020000000000000000000000000000000000000000000000000000000000000000000",
      "type": "0x2",
      "transactionHash": "0x3091660012e6dfff021a7f2a0a28030d7a64bd319d6bcf341574dc4e37530ce6",
      "transactionIndex": "0x1a",
      "blockHash": "0xb97f2cd6bfdea2ffa972e7a7efa6b233a1fcc1ecd6fabf10a394ed229fdab0c7",
      "blockNumber": "0x93259d",
      "gasUsed": "0x18af3",
      "effectiveGasPrice": "0xf4f1b",
      "from": "0x8f088eca0009ad61fb94a6d7e9a5d7a087c08564",
      "to": "0x3b1930860a0a109a3e66276332991081d9f3bc40",
      "contractAddress": null,
      "l1Fee": "0x8eb46249bf14",
      "l1GasPrice": "0x2eea8a7f9",
      "l1GasUsed": "0x7dc"
    },
    {
      "status": "0x1",
      "cumulativeGasUsed": "0x2a7774",
      "logs": [
        {
          "address": "0x3b1930860a0a109a3e66276332991081d9f3bc40",
          "topics": [
            "0xddf252ad1be2c89b69c2b068fc378daa952ba7f163c4a11628f55a4df523b3ef",
            "0x0000000000000000000000000000000000000000000000000000000000000000",
            "0x0000000000000000000000008f088eca0009ad61fb94a6d7e9a5d7a087c08564",
            "0x00000000000000000000000000000000000000000000000000000000005b8e02"
          ],
          "data": "0x",
          "blockHash": "0xb97f2cd6bfdea2ffa972e7a7efa6b233a1fcc1ecd6fabf10a394ed229fdab0c7",
          "blockNumber": "0x93259d",
          "transactionHash": "0x1b6402953b0f9617011b19442ae38a464d41af1db924b6851d5be99de1b75f35",
          "transactionIndex": "0x1b",
          "logIndex": "0x1b",
          "removed": false
        }
      ],
      "logsBloom": "0x00000000000000000000000000000000000000000000000000000000000000000000000000100000000001000000000000000000000000000000000000000200001000000000000000000008000080000000000000040000000000000000000080000000020000000000000000000800000000000000000000000010000000000000000000000000000000000000000000000000000000000000000000000000000000000000000000000000000000000000000000000000000000400000000000000002000000000000000000000000000000000000000000000000000020000000000000000000000000000000000000000000000000000000000000000800",
      "type": "0x2",
      "transactionHash": "0x1b6402953b0f9617011b19442ae38a464d41af1db924b6851d5be99de1b75f35",
      "transactionIndex": "0x1b",
      "blockHash": "0xb97f2cd6bfdea2ffa972e7a7efa6b233a1fcc1ecd6fabf10a394ed229fdab0c7",
      "blockNumber": "0x93259d",
      "gasUsed": "0x18af3",
      "effectiveGasPrice": "0xf4f1b",
      "from": "0x8f088eca0009ad61fb94a6d7e9a5d7a087c08564",
      "to": "0x3b1930860a0a109a3e66276332991081d9f3bc40",
      "contractAddress": null,
      "l1Fee": "0x8dda7f3882e6",
      "l1GasPrice": "0x2eea8a7f9",
      "l1GasUsed": "0x7d0"
    },
    {
      "status": "0x1",
      "cumulativeGasUsed": "0x2c0267",
      "logs": [
        {
          "address": "0x3b1930860a0a109a3e66276332991081d9f3bc40",
          "topics": [
            "0xddf252ad1be2c89b69c2b068fc378daa952ba7f163c4a11628f55a4df523b3ef",
            "0x0000000000000000000000000000000000000000000000000000000000000000",
            "0x0000000000000000000000008f088eca0009ad61fb94a6d7e9a5d7a087c08564",
            "0x00000000000000000000000000000000000000000000000000000000005b8e03"
          ],
          "data": "0x",
          "blockHash": "0xb97f2cd6bfdea2ffa972e7a7efa6b233a1fcc1ecd6fabf10a394ed229fdab0c7",
          "blockNumber": "0x93259d",
          "transactionHash": "0x52a29baf817a01bb593a2efc9420ee4b0e554b1823dfa2dfa95bb914423dbf07",
          "transactionIndex": "0x1c",
          "logIndex": "0x1c",
          "removed": false
        }
      ],
      "logsBloom": "0x00000000000000000000000000000000000000000000000000000000000000000000000000100000000001000000000000000000000000000000000000000200000000000000000000000008000080000000000000000000000000000000000080000000020000000000000000000800000000000000000000000010000000000000000000000000000000000000000000000000000000000000000000000000000000020000000000000000000000000000400000000000000000400000000000000002000000000000000000000000000000000000000000000000000020000000000000000000000000000000000000000000000000000000100000000000",
      "type": "0x2",
      "transactionHash": "0x52a29baf817a01bb593a2efc9420ee4b0e554b1823dfa2dfa95bb914423dbf07",
      "transactionIndex": "0x1c",
      "blockHash": "0xb97f2cd6bfdea2ffa972e7a7efa6b233a1fcc1ecd6fabf10a394ed229fdab0c7",
      "blockNumber": "0x93259d",
      "gasUsed": "0x18af3",
      "effectiveGasPrice": "0xf4f1b",
      "from": "0x8f088eca0009ad61fb94a6d7e9a5d7a087c08564",
      "to": "0x3b1930860a0a109a3e66276332991081d9f3bc40",
      "contractAddress": null,
      "l1Fee": "0x8eb46249bf14",
      "l1GasPrice": "0x2eea8a7f9",
      "l1GasUsed": "0x7dc"
    },
    {
      "status": "0x1",
      "cumulativeGasUsed": "0x2d8d5a",
      "logs": [
        {
          "address": "0x3b1930860a0a109a3e66276332991081d9f3bc40",
          "topics": [
            "0xddf252ad1be2c89b69c2b068fc378daa952ba7f163c4a11628f55a4df523b3ef",
            "0x0000000000000000000000000000000000000000000000000000000000000000",
            "0x0000000000000000000000008f088eca0009ad61fb94a6d7e9a5d7a087c08564",
            "0x00000000000000000000000000000000000000000000000000000000005b8e04"
          ],
          "data": "0x",
          "blockHash": "0xb97f2cd6bfdea2ffa972e7a7efa6b233a1fcc1ecd6fabf10a394ed229fdab0c7",
          "blockNumber": "0x93259d",
          "transactionHash": "0xaf3d77498d3e1b570f90d5e2766aa6ad3729684d17f19100df5933b2c8b96ae4",
          "transactionIndex": "0x1d",
          "logIndex": "0x1d",
          "removed": false
        }
      ],
      "logsBloom": "0x00000000000000000000000000000000000000000000000000000000000000000000000000100000000001000000000000000000000000000000000000000200000000000000000000000008000080000000000000000000000000000000000080000000028000000000000000000800000000000000000000000010000000000000001000000000000000000000000000000000000000000000000000000000000000000000000000000000000000000000000000000000000000400000000000000002000000000000000000000000000000000000000000000000000020000000000000000000000000000000000000000000000000000001000000000000",
      "type": "0x2",
      "transactionHash": "0xaf3d77498d3e1b570f90d5e2766aa6ad3729684d17f19100df5933b2c8b96ae4",
      "transactionIndex": "0x1d",
      "blockHash": "0xb97f2cd6bfdea2ffa972e7a7efa6b233a1fcc1ecd6fabf10a394ed229fdab0c7",
      "blockNumber": "0x93259d",
      "gasUsed": "0x18af3",
      "effectiveGasPrice": "0xf4f1b",
      "from": "0x8f088eca0009ad61fb94a6d7e9a5d7a087c08564",
      "to": "0x3b1930860a0a109a3e66276332991081d9f3bc40",
      "contractAddress": null,
      "l1Fee": "0x8eb46249bf14",
      "l1GasPrice": "0x2eea8a7f9",
      "l1GasUsed": "0x7dc"
    },
    {
      "status": "0x1",
      "cumulativeGasUsed": "0x2f184d",
      "logs": [
        {
          "address": "0x3b1930860a0a109a3e66276332991081d9f3bc40",
          "topics": [
            "0xddf252ad1be2c89b69c2b068fc378daa952ba7f163c4a11628f55a4df523b3ef",
            "0x0000000000000000000000000000000000000000000000000000000000000000",
            "0x0000000000000000000000008f088eca0009ad61fb94a6d7e9a5d7a087c08564",
            "0x00000000000000000000000000000000000000000000000000000000005b8e05"
          ],
          "data": "0x",
          "blockHash": "0xb97f2cd6bfdea2ffa972e7a7efa6b233a1fcc1ecd6fabf10a394ed229fdab0c7",
          "blockNumber": "0x93259d",
          "transactionHash": "0xb54605653bbdc1e732ab154b895b58212a9d49944c10a7bb5ff9d4713da289e1",
          "transactionIndex": "0x1e",
          "logIndex": "0x1e",
          "removed": false
        }
      ],
      "logsBloom": "0x00000000000000000000000000000000000000000000000000000000000000000000000000100000000001000000000000000000000000000000000000000200000000000000000000000008000080000000000000000000000000000000000080000000020000000000000000000800000000000000010000000010000000000000000000000000000000000000000000000000000000000000000000000040001000000000000000000000000000000000000000000000000000400000000000000002000000000000000000000000000000000000000000000000000020000000000000000000000000000000000000000000000000000000000000000000",
      "type": "0x2",
      "transactionHash": "0xb54605653bbdc1e732ab154b895b58212a9d49944c10a7bb5ff9d4713da289e1",
      "transactionIndex": "0x1e",
      "blockHash": "0xb97f2cd6bfdea2ffa972e7a7efa6b233a1fcc1ecd6fabf10a394ed229fdab0c7",
      "blockNumber": "0x93259d",
      "gasUsed": "0x18af3",
      "effectiveGasPrice": "0xf4f1b",
      "from": "0x8f088eca0009ad61fb94a6d7e9a5d7a087c08564",
      "to": "0x3b1930860a0a109a3e66276332991081d9f3bc40",
      "contractAddress": null,
      "l1Fee": "0x8dda7f3882e6",
      "l1GasPrice": "0x2eea8a7f9",
      "l1GasUsed": "0x7d0"
    },
    {
      "status": "0x1",
      "cumulativeGasUsed": "0x30a340",
      "logs": [
        {
          "address": "0x3b1930860a0a109a3e66276332991081d9f3bc40",
          "topics": [
            "0xddf252ad1be2c89b69c2b068fc378daa952ba7f163c4a11628f55a4df523b3ef",
            "0x0000000000000000000000000000000000000000000000000000000000000000",
            "0x0000000000000000000000008f088eca0009ad61fb94a6d7e9a5d7a087c08564",
            "0x00000000000000000000000000000000000000000000000000000000005b8e06"
          ],
          "data": "0x",
          "blockHash": "0xb97f2cd6bfdea2ffa972e7a7efa6b233a1fcc1ecd6fabf10a394ed229fdab0c7",
          "blockNumber": "0x93259d",
          "transactionHash": "0xac43b119cc46db41d8540407817cdaaf77954bdfa083788765448b6e9cf77d24",
          "transactionIndex": "0x1f",
          "logIndex": "0x1f",
          "removed": false
        }
      ],
      "logsBloom": "0x00000000000000000000000000000000000000000000000000000000000008000000000000100000000001000000000000000000000000000000000000000200000000000000000000000008000080040000000000000000000000000000000080000000020000000000000000000800000000000000000000000010000000000000000000000000000000000000000000000000000000000000000000000000000000000000000000000000000000000000100000000000000000400000000000000002000000000000000000000000000000000000000000000000000020000000000000000000000000000000000000000000000000000000000000000000",
      "type": "0x2",
      "transactionHash": "0xac43b119cc46db41d8540407817cdaaf77954bdfa083788765448b6e9cf77d24",
      "transactionIndex": "0x1f",
      "blockHash": "0xb97f2cd6bfdea2ffa972e7a7efa6b233a1fcc1ecd6fabf10a394ed229fdab0c7",
      "blockNumber": "0x93259d",
      "gasUsed": "0x18af3",
      "effectiveGasPrice": "0xf4f1b",
      "from": "0x8f088eca0009ad61fb94a6d7e9a5d7a087c08564",
      "to": "0x3b1930860a0a109a3e66276332991081d9f3bc40",
      "contractAddress": null,
      "l1Fee": "0x8eb46249bf14",
      "l1GasPrice": "0x2eea8a7f9",
      "l1GasUsed": "0x7dc"
    },
    {
      "status": "0x1",
      "cumulativeGasUsed": "0x322e33",
      "logs": [
        {
          "address": "0x3b1930860a0a109a3e66276332991081d9f3bc40",
          "topics": [
            "0xddf252ad1be2c89b69c2b068fc378daa952ba7f163c4a11628f55a4df523b3ef",
            "0x0000000000000000000000000000000000000000000000000000000000000000",
            "0x0000000000000000000000008f088eca0009ad61fb94a6d7e9a5d7a087c08564",
            "0x00000000000000000000000000000000000000000000000000000000005b8e07"
          ],
          "data": "0x",
          "blockHash": "0xb97f2cd6bfdea2ffa972e7a7efa6b233a1fcc1ecd6fabf10a394ed229fdab0c7",
          "blockNumber": "0x93259d",
          "transactionHash": "0xaef78cb67cd2b40c185d5aa484520704b6abb8b264158c0af4a01a99a6adb20f",
          "transactionIndex": "0x20",
          "logIndex": "0x20",
          "removed": false
        }
      ],
      "logsBloom": "0x00000000000000000000000000000000000000000000000000000000001000000000000000100000000001000000000000000000000000000000000000000200000000000000000000000008000080000000000000000000000000000000000080000002020000000000000000000800000000000000000000000010000000000000000000000000000000000000000000000000000000000000000000000000000000000000000000000000000000800000000000000000000000400000000000000002000000000000000000000000000000000000000000000000000020000000000000000000000000000000000000000000000000000000000000000000",
      "type": "0x2",
      "transactionHash": "0xaef78cb67cd2b40c185d5aa484520704b6abb8b264158c0af4a01a99a6adb20f",
      "transactionIndex": "0x20",
      "blockHash": "0xb97f2cd6bfdea2ffa972e7a7efa6b233a1fcc1ecd6fabf10a394ed229fdab0c7",
      "blockNumber": "0x93259d",
      "gasUsed": "0x18af3",
      "effectiveGasPrice": "0xf4f1b",
      "from": "0x8f088eca0009ad61fb94a6d7e9a5d7a087c08564",
      "to": "0x3b1930860a0a109a3e66276332991081d9f3bc40",
      "contractAddress": null,
      "l1Fee": "0x8eb46249bf14",
      "l1GasPrice": "0x2eea8a7f9",
      "l1GasUsed": "0x7dc"
    },
    {
      "status": "0x1",
      "cumulativeGasUsed": "0x33b926",
      "logs": [
        {
          "address": "0x3b1930860a0a109a3e66276332991081d9f3bc40",
          "topics": [
            "0xddf252ad1be2c89b69c2b068fc378daa952ba7f163c4a11628f55a4df523b3ef",
            "0x0000000000000000000000000000000000000000000000000000000000000000",
            "0x0000000000000000000000008f088eca0009ad61fb94a6d7e9a5d7a087c08564",
            "0x00000000000000000000000000000000000000000000000000000000005b8e08"
          ],
          "data": "0x",
          "blockHash": "0xb97f2cd6bfdea2ffa972e7a7efa6b233a1fcc1ecd6fabf10a394ed229fdab0c7",
          "blockNumber": "0x93259d",
          "transactionHash": "0x2015b7914125bf677583b0b6d5c3e479e97720ac8c754d54b440ee51e2b53ada",
          "transactionIndex": "0x21",
          "logIndex": "0x21",
          "removed": false
        }
      ],
      "logsBloom": "0x00000000000000000000000000000000000000000000000000000000000000000000000000100000000001000000000000000000000000000000000000000200000000000000000000000008000080000000000000000200000000000000000080000000020000000000000000000800000000000000000000000010000000000000000000000000000000000000000000000000000000000000000000000000000000000000000000000000000000000000000000000000000000400000000000000002200000000000000000000000000000000000000000000000000020000000000000000000000000000080000000000000000000000000000000000000",
      "type": "0x2",
      "transactionHash": "0x2015b7914125bf677583b0b6d5c3e479e97720ac8c754d54b440ee51e2b53ada",
      "transactionIndex": "0x21",
      "blockHash": "0xb97f2cd6bfdea2ffa972e7a7efa6b233a1fcc1ecd6fabf10a394ed229fdab0c7",
      "blockNumber": "0x93259d",
      "gasUsed": "0x18af3",
      "effectiveGasPrice": "0xf4f1b",
      "from": "0x8f088eca0009ad61fb94a6d7e9a5d7a087c08564",
      "to": "0x3b1930860a0a109a3e66276332991081d9f3bc40",
      "contractAddress": null,
      "l1Fee": "0x8eb46249bf14",
      "l1GasPrice": "0x2eea8a7f9",
      "l1GasUsed": "0x7dc"
    },
    {
      "status": "0x1",
      "cumulativeGasUsed": "0x354419",
      "logs": [
        {
          "address": "0x3b1930860a0a109a3e66276332991081d9f3bc40",
          "topics": [
            "0xddf252ad1be2c89b69c2b068fc378daa952ba7f163c4a11628f55a4df523b3ef",
            "0x0000000000000000000000000000000000000000000000000000000000000000",
            "0x0000000000000000000000008f088eca0009ad61fb94a6d7e9a5d7a087c08564",
            "0x00000000000000000000000000000000000000000000000000000000005b8e09"
          ],
          "data": "0x",
          "blockHash": "0xb97f2cd6bfdea2ffa972e7a7efa6b233a1fcc1ecd6fabf10a394ed229fdab0c7",
          "blockNumber": "0x93259d",
          "transactionHash": "0x69cabe35a21efc44fae16c092b29ff85e228626b067bcc50dd110dbee4f16a29",
          "transactionIndex": "0x22",
          "logIndex": "0x22",
          "removed": false
        }
      ],
      "logsBloom": "0x00000000000000000000000000000000000000000000000000000000000000000000000000100000000001000000000000000000000000000000000000000200000000000000000000000008000080000000000000000002000000000000000080000000020000000000000000000800000000000000000000000010000000000000000000000000000000000000000000000000000000000000000000000000000000000000000000000000000000000000000000000000000000400000000000000002000000000000000000000000000000000000000000000800000020000000000000000000000000000000000000000000000000008000000000000000",
      "type": "0x2",
      "transactionHash": "0x69cabe35a21efc44fae16c092b29ff85e228626b067bcc50dd110dbee4f16a29",
      "transactionIndex": "0x22",
      "blockHash": "0xb97f2cd6bfdea2ffa972e7a7efa6b233a1fcc1ecd6fabf10a394ed229fdab0c7",
      "blockNumber": "0x93259d",
      "gasUsed": "0x18af3",
      "effectiveGasPrice": "0xf4f1b",
      "from": "0x8f088eca0009ad61fb94a6d7e9a5d7a087c08564",
      "to": "0x3b1930860a0a109a3e66276332991081d9f3bc40",
      "contractAddress": null,
      "l1Fee": "0x8eb46249bf14",
      "l1GasPrice": "0x2eea8a7f9",
      "l1GasUsed": "0x7dc"
    },
    {
      "status": "0x1",
      "cumulativeGasUsed": "0x36cf0c",
      "logs": [
        {
          "address": "0x3b1930860a0a109a3e66276332991081d9f3bc40",
          "topics": [
            "0xddf252ad1be2c89b69c2b068fc378daa952ba7f163c4a11628f55a4df523b3ef",
            "0x0000000000000000000000000000000000000000000000000000000000000000",
            "0x0000000000000000000000008f088eca0009ad61fb94a6d7e9a5d7a087c08564",
            "0x00000000000000000000000000000000000000000000000000000000005b8e0a"
          ],
          "data": "0x",
          "blockHash": "0xb97f2cd6bfdea2ffa972e7a7efa6b233a1fcc1ecd6fabf10a394ed229fdab0c7",
          "blockNumber": "0x93259d",
          "transactionHash": "0xa3142d425ee4ce0347f7018f39e2d6aaf5aba9ca8c38f6e2ce297986e9f0fa7f",
          "transactionIndex": "0x23",
          "logIndex": "0x23",
          "removed": false
        }
      ],
      "logsBloom": "0x00000020000000000000000000000000000000000000000000000000000000000000000000100000000001000000000000000000000000000000000000000200000000000000000000000008000080000000000000000040000000000000000080000000020000000000000000000800000000000000000000000010000000000000000000000000000000000000000000000000000000000000000000000000000000000000000000000000000000001000000000000000000000400000000000000002000000000000000000000000000000000000000000000000000020000000000000000000000000000000000000000000000000000000000000000000",
      "type": "0x2",
      "transactionHash": "0xa3142d425ee4ce0347f7018f39e2d6aaf5aba9ca8c38f6e2ce297986e9f0fa7f",
      "transactionIndex": "0x23",
      "blockHash": "0xb97f2cd6bfdea2ffa972e7a7efa6b233a1fcc1ecd6fabf10a394ed229fdab0c7",
      "blockNumber": "0x93259d",
      "gasUsed": "0x18af3",
      "effectiveGasPrice": "0xf4f1b",
      "from": "0x8f088eca0009ad61fb94a6d7e9a5d7a087c08564",
      "to": "0x3b1930860a0a109a3e66276332991081d9f3bc40",
      "contractAddress": null,
      "l1Fee": "0x8eb46249bf14",
      "l1GasPrice": "0x2eea8a7f9",
      "l1GasUsed": "0x7dc"
    },
    {
      "status": "0x1",
      "cumulativeGasUsed": "0x3859ff",
      "logs": [
        {
          "address": "0x3b1930860a0a109a3e66276332991081d9f3bc40",
          "topics": [
            "0xddf252ad1be2c89b69c2b068fc378daa952ba7f163c4a11628f55a4df523b3ef",
            "0x0000000000000000000000000000000000000000000000000000000000000000",
            "0x0000000000000000000000008f088eca0009ad61fb94a6d7e9a5d7a087c08564",
            "0x00000000000000000000000000000000000000000000000000000000005b8e0b"
          ],
          "data": "0x",
          "blockHash": "0xb97f2cd6bfdea2ffa972e7a7efa6b233a1fcc1ecd6fabf10a394ed229fdab0c7",
          "blockNumber": "0x93259d",
          "transactionHash": "0xf4c708d2e85de698b7f932922180d2abe31b873b75661ddad7999f35836e35fa",
          "transactionIndex": "0x24",
          "logIndex": "0x24",
          "removed": false
        }
      ],
      "logsBloom": "0x00000000000000000000000000000000000000000000000000000000000000000000000000100000000001000000000000000000000000000000000000000200000000000000000000000008000080000200000000000000000000000000000080000200020000000000000000000800000000000000000000000010000000000000000000000000000000000000000000000000000000000000000000000000000000000000000000000000000000000000000000000000000000400000000000000002000000000000000000000000000000000000000000000000000020000000000000000000000000000000000020000000000000000000000000000000",
      "type": "0x2",
      "transactionHash": "0xf4c708d2e85de698b7f932922180d2abe31b873b75661ddad7999f35836e35fa",
      "transactionIndex": "0x24",
      "blockHash": "0xb97f2cd6bfdea2ffa972e7a7efa6b233a1fcc1ecd6fabf10a394ed229fdab0c7",
      "blockNumber": "0x93259d",
      "gasUsed": "0x18af3",
      "effectiveGasPrice": "0xf4f1b",
      "from": "0x8f088eca0009ad61fb94a6d7e9a5d7a087c08564",
      "to": "0x3b1930860a0a109a3e66276332991081d9f3bc40",
      "contractAddress": null,
      "l1Fee": "0x8eb46249bf14",
      "l1GasPrice": "0x2eea8a7f9",
      "l1GasUsed": "0x7dc"
    },
    {
      "status": "0x1",
      "cumulativeGasUsed": "0x39e4f2",
      "logs": [
        {
          "address": "0x3b1930860a0a109a3e66276332991081d9f3bc40",
          "topics": [
            "0xddf252ad1be2c89b69c2b068fc378daa952ba7f163c4a11628f55a4df523b3ef",
            "0x0000000000000000000000000000000000000000000000000000000000000000",
            "0x0000000000000000000000008f088eca0009ad61fb94a6d7e9a5d7a087c08564",
            "0x00000000000000000000000000000000000000000000000000000000005b8e0c"
          ],
          "data": "0x",
          "blockHash": "0xb97f2cd6bfdea2ffa972e7a7efa6b233a1fcc1ecd6fabf10a394ed229fdab0c7",
          "blockNumber": "0x93259d",
          "transactionHash": "0x6287916bcd11ed793a5ef0ff0a45ed598ee28f7cc113a00a9539ac2390dd84eb",
          "transactionIndex": "0x25",
          "logIndex": "0x25",
          "removed": false
        }
      ],
      "logsBloom": "0x00000000000000000000000000100000000000000000000000000000000000000000000400100000000001000000000000000000000000000000000000000200000000000000000000000008000080000000000000000000000000000000000080000000020000020000000000000800000000000000000000000010000000000000000000000000000000000000000000000000000000000000000000000000000000000000000000000000000000000000000000000000000000400000000000000002000000000000000000000000000000000000000000000000000020000000000000000000000000000000000000000000000000000000000000000000",
      "type": "0x2",
      "transactionHash": "0x6287916bcd11ed793a5ef0ff0a45ed598ee28f7cc113a00a9539ac2390dd84eb",
      "transactionIndex": "0x25",
      "blockHash": "0xb97f2cd6bfdea2ffa972e7a7efa6b233a1fcc1ecd6fabf10a394ed229fdab0c7",
      "blockNumber": "0x93259d",
      "gasUsed": "0x18af3",
      "effectiveGasPrice": "0xf4f1b",
      "from": "0x8f088eca0009ad61fb94a6d7e9a5d7a087c08564",
      "to": "0x3b1930860a0a109a3e66276332991081d9f3bc40",
      "contractAddress": null,
      "l1Fee": "0x8eb46249bf14",
      "l1GasPrice": "0x2eea8a7f9",
      "l1GasUsed": "0x7dc"
    }
  ],
  "libraries": [],
  "pending": [],
  "returns": {},
  "timestamp": 1715054960,
  "chain": 84532,
  "commit": "3e641a5"
}