{
  "transactions": [
    {
      "hash": "0xb47f5869b4e3614cd6623dfeae2566341c05ce2d5caa3b40e3c4dda087d805f2",
      "transactionType": "CALL",
      "contractName": null,
      "contractAddress": "0x3b1930860a0a109a3e66276332991081d9f3bc40",
      "function": "mint(uint256)",
      "arguments": [
        "1"
      ],
      "transaction": {
        "from": "0x8f088eca0009ad61fb94a6d7e9a5d7a087c08564",
        "to": "0x3b1930860a0a109a3e66276332991081d9f3bc40",
        "gas": "0x265fd",
        "value": "0x0",
        "input": "0xa0712d680000000000000000000000000000000000000000000000000000000000000001",
        "nonce": "0xa77",
        "chainId": "0x14a34"
      },
      "additionalContracts": [],
      "isFixedGasLimit": false
    },
    {
      "hash": "0x69acecf75db0fdb00aa1c38963ebf9cc0cbbf08f499149c235d90964a05b7c6e",
      "transactionType": "CALL",
      "contractName": null,
      "contractAddress": "0x3b1930860a0a109a3e66276332991081d9f3bc40",
      "function": "mint(uint256)",
      "arguments": [
        "1"
      ],
      "transaction": {
        "from": "0x8f088eca0009ad61fb94a6d7e9a5d7a087c08564",
        "to": "0x3b1930860a0a109a3e66276332991081d9f3bc40",
        "gas": "0x265fd",
        "value": "0x0",
        "input": "0xa0712d680000000000000000000000000000000000000000000000000000000000000001",
        "nonce": "0xa78",
        "chainId": "0x14a34"
      },
      "additionalContracts": [],
      "isFixedGasLimit": false
    },
    {
      "hash": "0xe5f2ece556088cb74cafce91284677c033020db38995bd10ed6ca772abbb8f67",
      "transactionType": "CALL",
      "contractName": null,
      "contractAddress": "0x3b1930860a0a109a3e66276332991081d9f3bc40",
      "function": "mint(uint256)",
      "arguments": [
        "1"
      ],
      "transaction": {
        "from": "0x8f088eca0009ad61fb94a6d7e9a5d7a087c08564",
        "to": "0x3b1930860a0a109a3e66276332991081d9f3bc40",
        "gas": "0x265fd",
        "value": "0x0",
        "input": "0xa0712d680000000000000000000000000000000000000000000000000000000000000001",
        "nonce": "0xa79",
        "chainId": "0x14a34"
      },
      "additionalContracts": [],
      "isFixedGasLimit": false
    },
    {
      "hash": "0x355447b286191d284b6edc97763a5902ad5d7e80f1040f951a058035b02e54df",
      "transactionType": "CALL",
      "contractName": null,
      "contractAddress": "0x3b1930860a0a109a3e66276332991081d9f3bc40",
      "function": "mint(uint256)",
      "arguments": [
        "1"
      ],
      "transaction": {
        "from": "0x8f088eca0009ad61fb94a6d7e9a5d7a087c08564",
        "to": "0x3b1930860a0a109a3e66276332991081d9f3bc40",
        "gas": "0x265fd",
        "value": "0x0",
        "input": "0xa0712d680000000000000000000000000000000000000000000000000000000000000001",
        "nonce": "0xa7a",
        "chainId": "0x14a34"
      },
      "additionalContracts": [],
      "isFixedGasLimit": false
    },
    {
      "hash": "0x6a645c14c47c80eb65772d0b102b7f3b9a59ac800060c92a7aa84470b201fc70",
      "transactionType": "CALL",
      "contractName": null,
      "contractAddress": "0x3b1930860a0a109a3e66276332991081d9f3bc40",
      "function": "mint(uint256)",
      "arguments": [
        "1"
      ],
      "transaction": {
        "from": "0x8f088eca0009ad61fb94a6d7e9a5d7a087c08564",
        "to": "0x3b1930860a0a109a3e66276332991081d9f3bc40",
        "gas": "0x265fd",
        "value": "0x0",
        "input": "0xa0712d680000000000000000000000000000000000000000000000000000000000000001",
        "nonce": "0xa7b",
        "chainId": "0x14a34"
      },
      "additionalContracts": [],
      "isFixedGasLimit": false
    },
    {
      "hash": "0x0da63f74ad0ecd5a2673943cd4c3bc11f0e361e6611a029b62eec4a75f8edff3",
      "transactionType": "CALL",
      "contractName": null,
      "contractAddress": "0x3b1930860a0a109a3e66276332991081d9f3bc40",
      "function": "mint(uint256)",
      "arguments": [
        "1"
      ],
      "transaction": {
        "from": "0x8f088eca0009ad61fb94a6d7e9a5d7a087c08564",
        "to": "0x3b1930860a0a109a3e66276332991081d9f3bc40",
        "gas": "0x265fd",
        "value": "0x0",
        "input": "0xa0712d680000000000000000000000000000000000000000000000000000000000000001",
        "nonce": "0xa7c",
        "chainId": "0x14a34"
      },
      "additionalContracts": [],
      "isFixedGasLimit": false
    },
    {
      "hash": "0x829cfdfc27825e63a8ba4d368e1fc9030230e4ce741fbe9de91570639a730004",
      "transactionType": "CALL",
      "contractName": null,
      "contractAddress": "0x3b1930860a0a109a3e66276332991081d9f3bc40",
      "function": "mint(uint256)",
      "arguments": [
        "1"
      ],
      "transaction": {
        "from": "0x8f088eca0009ad61fb94a6d7e9a5d7a087c08564",
        "to": "0x3b1930860a0a109a3e66276332991081d9f3bc40",
        "gas": "0x265fd",
        "value": "0x0",
        "input": "0xa0712d680000000000000000000000000000000000000000000000000000000000000001",
        "nonce": "0xa7d",
        "chainId": "0x14a34"
      },
      "additionalContracts": [],
      "isFixedGasLimit": false
    },
    {
      "hash": "0x4cf88049bbb5b8e2cd3db4ac7465c02a62d5cefea9bcc65206437074d10f5541",
      "transactionType": "CALL",
      "contractName": null,
      "contractAddress": "0x3b1930860a0a109a3e66276332991081d9f3bc40",
      "function": "mint(uint256)",
      "arguments": [
        "1"
      ],
      "transaction": {
        "from": "0x8f088eca0009ad61fb94a6d7e9a5d7a087c08564",
        "to": "0x3b1930860a0a109a3e66276332991081d9f3bc40",
        "gas": "0x265fd",
        "value": "0x0",
        "input": "0xa0712d680000000000000000000000000000000000000000000000000000000000000001",
        "nonce": "0xa7e",
        "chainId": "0x14a34"
      },
      "additionalContracts": [],
      "isFixedGasLimit": false
    },
    {
      "hash": "0xef3cac2678cb107d8464cf9cf7469132317cb016cbb407f4198837e87460f7eb",
      "transactionType": "CALL",
      "contractName": null,
      "contractAddress": "0x3b1930860a0a109a3e66276332991081d9f3bc40",
      "function": "mint(uint256)",
      "arguments": [
        "1"
      ],
      "transaction": {
        "from": "0x8f088eca0009ad61fb94a6d7e9a5d7a087c08564",
        "to": "0x3b1930860a0a109a3e66276332991081d9f3bc40",
        "gas": "0x265fd",
        "value": "0x0",
        "input": "0xa0712d680000000000000000000000000000000000000000000000000000000000000001",
        "nonce": "0xa7f",
        "chainId": "0x14a34"
      },
      "additionalContracts": [],
      "isFixedGasLimit": false
    },
    {
      "hash": "0xfadf947ba8a2d6168597ebb6ceafea2fa28809b55107c482f29b36f484017e9f",
      "transactionType": "CALL",
      "contractName": null,
      "contractAddress": "0x3b1930860a0a109a3e66276332991081d9f3bc40",
      "function": "mint(uint256)",
      "arguments": [
        "1"
      ],
      "transaction": {
        "from": "0x8f088eca0009ad61fb94a6d7e9a5d7a087c08564",
        "to": "0x3b1930860a0a109a3e66276332991081d9f3bc40",
        "gas": "0x265fd",
        "value": "0x0",
        "input": "0xa0712d680000000000000000000000000000000000000000000000000000000000000001",
        "nonce": "0xa80",
        "chainId": "0x14a34"
      },
      "additionalContracts": [],
      "isFixedGasLimit": false
    }
  ],
  "receipts": [
    {
      "status": "0x1",
      "cumulativeGasUsed": "0x18f3ca",
      "logs": [
        {
          "address": "0x3b1930860a0a109a3e66276332991081d9f3bc40",
          "topics": [
            "0xddf252ad1be2c89b69c2b068fc378daa952ba7f163c4a11628f55a4df523b3ef",
            "0x0000000000000000000000000000000000000000000000000000000000000000",
            "0x0000000000000000000000008f088eca0009ad61fb94a6d7e9a5d7a087c08564",
            "0x00000000000000000000000000000000000000000000000000000000000f424b"
          ],
          "data": "0x",
          "blockHash": "0xe2311d9c1dbadc06934d329060018cd5575272bf12c3d43ae66bd47a5cca8efe",
          "blockNumber": "0x951cb9",
          "transactionHash": "0xb47f5869b4e3614cd6623dfeae2566341c05ce2d5caa3b40e3c4dda087d805f2",
          "transactionIndex": "0x3",
          "logIndex": "0x9",
          "removed": false
        }
      ],
      "logsBloom": "0x00000000000000000000000000000000000000000000000000000000000000000000000000100000000001000000000000008000000000000000000000000200000000000000000000000008000080000000000000000000000000000000000080000000020000000000000000000800000000000000000000000010000000000000000000000000000000000000000000000000000000000000000000000000000000000000000000800000000000000000000000000000000000400000000000000002000000000000000000000000000008000000000000000000000020000000000000000000000000000000000000000000000000000000000000000000",
      "type": "0x2",
      "transactionHash": "0xb47f5869b4e3614cd6623dfeae2566341c05ce2d5caa3b40e3c4dda087d805f2",
      "transactionIndex": "0x3",
      "blockHash": "0xe2311d9c1dbadc06934d329060018cd5575272bf12c3d43ae66bd47a5cca8efe",
      "blockNumber": "0x951cb9",
      "gasUsed": "0x1a3d3",
      "effectiveGasPrice": "0x1879d",
      "from": "0x8f088eca0009ad61fb94a6d7e9a5d7a087c08564",
      "to": "0x3b1930860a0a109a3e66276332991081d9f3bc40",
      "contractAddress": null,
      "l1Fee": "0xf4dd0",
      "l1GasPrice": "0x6e873",
      "l1GasUsed": "0x7dc"
    },
    {
      "status": "0x1",
      "cumulativeGasUsed": "0x1a979d",
      "logs": [
        {
          "address": "0x3b1930860a0a109a3e66276332991081d9f3bc40",
          "topics": [
            "0xddf252ad1be2c89b69c2b068fc378daa952ba7f163c4a11628f55a4df523b3ef",
            "0x0000000000000000000000000000000000000000000000000000000000000000",
            "0x0000000000000000000000008f088eca0009ad61fb94a6d7e9a5d7a087c08564",
            "0x00000000000000000000000000000000000000000000000000000000000f424c"
          ],
          "data": "0x",
          "blockHash": "0xe2311d9c1dbadc06934d329060018cd5575272bf12c3d43ae66bd47a5cca8efe",
          "blockNumber": "0x951cb9",
          "transactionHash": "0x69acecf75db0fdb00aa1c38963ebf9cc0cbbf08f499149c235d90964a05b7c6e",
          "transactionIndex": "0x4",
          "logIndex": "0xa",
          "removed": false
        }
      ],
      "logsBloom": "0x00000000000000000000000000000000000000000000000000000000000000000000000000100000000001000000000000000000000000000000000000000200000000000000000000000008000080000000000000010000000000000000000080000000020000000000000000000800000000000000000000000010000000000000000000000000000000000000000000000000000000000000000000000000000000000000000000000000000000000000000000000000000000400000000000000002000000000000000000002000000000000000000000000000000020004000000000000000000000000000000000000000000000000000000000000000",
      "type": "0x2",
      "transactionHash": "0x69acecf75db0fdb00aa1c38963ebf9cc0cbbf08f499149c235d90964a05b7c6e",
      "transactionIndex": "0x4",
      "blockHash": "0xe2311d9c1dbadc06934d329060018cd5575272bf12c3d43ae66bd47a5cca8efe",
      "blockNumber": "0x951cb9",
      "gasUsed": "0x1a3d3",
      "effectiveGasPrice": "0x1879d",
      "from": "0x8f088eca0009ad61fb94a6d7e9a5d7a087c08564",
      "to": "0x3b1930860a0a109a3e66276332991081d9f3bc40",
      "contractAddress": null,
      "l1Fee": "0xf4dd0",
      "l1GasPrice": "0x6e873",
      "l1GasUsed": "0x7dc"
    },
    {
      "status": "0x1",
      "cumulativeGasUsed": "0x1c3b70",
      "logs": [
        {
          "address": "0x3b1930860a0a109a3e66276332991081d9f3bc40",
          "topics": [
            "0xddf252ad1be2c89b69c2b068fc378daa952ba7f163c4a11628f55a4df523b3ef",
            "0x0000000000000000000000000000000000000000000000000000000000000000",
            "0x0000000000000000000000008f088eca0009ad61fb94a6d7e9a5d7a087c08564",
            "0x00000000000000000000000000000000000000000000000000000000000f424d"
          ],
          "data": "0x",
          "blockHash": "0xe2311d9c1dbadc06934d329060018cd5575272bf12c3d43ae66bd47a5cca8efe",
          "blockNumber": "0x951cb9",
          "transactionHash": "0xe5f2ece556088cb74cafce91284677c033020db38995bd10ed6ca772abbb8f67",
          "transactionIndex": "0x5",
          "logIndex": "0xb",
          "removed": false
        }
      ],
      "logsBloom": "0x00000000000000000000000000000000000000000000000000000000000000000000000000100000000001000000000000000000000000000000800000000200000000000000000000000008000080000000000000000000000000000000000080000000020000000000000000000800000000000000000000000010000000000000000000000040000000000000000000000000000000000000000000000000000000000000000000000000000000000000000000000000000000400000200000000002000000000000000000000000000000000000000000000000000020000000000000000000000000000000000000000000000000000000000000000000",
      "type": "0x2",
      "transactionHash": "0xe5f2ece556088cb74cafce91284677c033020db38995bd10ed6ca772abbb8f67",
      "transactionIndex": "0x5",
      "blockHash": "0xe2311d9c1dbadc06934d329060018cd5575272bf12c3d43ae66bd47a5cca8efe",
      "blockNumber": "0x951cb9",
      "gasUsed": "0x1a3d3",
      "effectiveGasPrice": "0x1879d",
      "from": "0x8f088eca0009ad61fb94a6d7e9a5d7a087c08564",
      "to": "0x3b1930860a0a109a3e66276332991081d9f3bc40",
      "contractAddress": null,
      "l1Fee": "0xf4dd0",
      "l1GasPrice": "0x6e873",
      "l1GasUsed": "0x7dc"
    },
    {
      "status": "0x1",
      "cumulativeGasUsed": "0x1ddf43",
      "logs": [
        {
          "address": "0x3b1930860a0a109a3e66276332991081d9f3bc40",
          "topics": [
            "0xddf252ad1be2c89b69c2b068fc378daa952ba7f163c4a11628f55a4df523b3ef",
            "0x0000000000000000000000000000000000000000000000000000000000000000",
            "0x0000000000000000000000008f088eca0009ad61fb94a6d7e9a5d7a087c08564",
            "0x00000000000000000000000000000000000000000000000000000000000f424e"
          ],
          "data": "0x",
          "blockHash": "0xe2311d9c1dbadc06934d329060018cd5575272bf12c3d43ae66bd47a5cca8efe",
          "blockNumber": "0x951cb9",
          "transactionHash": "0x355447b286191d284b6edc97763a5902ad5d7e80f1040f951a058035b02e54df",
          "transactionIndex": "0x6",
          "logIndex": "0xc",
          "removed": false
        }
      ],
      "logsBloom": "0x00000000000000000000000000000000000000000000000000000000000000000000000000100000000081000000000000000000000000000000000000000200000000000000000000000008000080000000000000000800000000000000000080000000020000000000000000000800000000000000000000000010000000000000000000000000000000000000000000000000000000000000000000000000000000000000000000000000000000000000000000000000000000400000000000000002000000000000000000000000000000000000000000000000000020000000000000000000000001000000000000000000000000000000000000000000",
      "type": "0x2",
      "transactionHash": "0x355447b286191d284b6edc97763a5902ad5d7e80f1040f951a058035b02e54df",
      "transactionIndex": "0x6",
      "blockHash": "0xe2311d9c1dbadc06934d329060018cd5575272bf12c3d43ae66bd47a5cca8efe",
      "blockNumber": "0x951cb9",
      "gasUsed": "0x1a3d3",
      "effectiveGasPrice": "0x1879d",
      "from": "0x8f088eca0009ad61fb94a6d7e9a5d7a087c08564",
      "to": "0x3b1930860a0a109a3e66276332991081d9f3bc40",
      "contractAddress": null,
      "l1Fee": "0xf1f14",
      "l1GasPrice": "0x6e873",
      "l1GasUsed": "0x7c4"
    },
    {
      "status": "0x1",
      "cumulativeGasUsed": "0x1f8316",
      "logs": [
        {
          "address": "0x3b1930860a0a109a3e66276332991081d9f3bc40",
          "topics": [
            "0xddf252ad1be2c89b69c2b068fc378daa952ba7f163c4a11628f55a4df523b3ef",
            "0x0000000000000000000000000000000000000000000000000000000000000000",
            "0x0000000000000000000000008f088eca0009ad61fb94a6d7e9a5d7a087c08564",
            "0x00000000000000000000000000000000000000000000000000000000000f424f"
          ],
          "data": "0x",
          "blockHash": "0xe2311d9c1dbadc06934d329060018cd5575272bf12c3d43ae66bd47a5cca8efe",
          "blockNumber": "0x951cb9",
          "transactionHash": "0x6a645c14c47c80eb65772d0b102b7f3b9a59ac800060c92a7aa84470b201fc70",
          "transactionIndex": "0x7",
          "logIndex": "0xd",
          "removed": false
        }
      ],
      "logsBloom": "0x00000000000000000000001000000000000000000000000000000000000000000000000000100000000001000000010000000000000000000000000000000200000000000000000000000008000080000000000000000000000000000000000080000000020000000000000000000800000000000000000000000010000000000000000000000000000000000000000000000000000000000000000000000000000000000000000000000000000000000000000000000000000000400000000000000002000000000000000000010000000000000000000000000000000020000000000000000000000000000000000000000000000000000000000000000000",
      "type": "0x2",
      "transactionHash": "0x6a645c14c47c80eb65772d0b102b7f3b9a59ac800060c92a7aa84470b201fc70",
      "transactionIndex": "0x7",
      "blockHash": "0xe2311d9c1dbadc06934d329060018cd5575272bf12c3d43ae66bd47a5cca8efe",
      "blockNumber": "0x951cb9",
      "gasUsed": "0x1a3d3",
      "effectiveGasPrice": "0x1879d",
      "from": "0x8f088eca0009ad61fb94a6d7e9a5d7a087c08564",
      "to": "0x3b1930860a0a109a3e66276332991081d9f3bc40",
      "contractAddress": null,
      "l1Fee": "0xf4dd0",
      "l1GasPrice": "0x6e873",
      "l1GasUsed": "0x7dc"
    },
    {
      "status": "0x1",
      "cumulativeGasUsed": "0x2126e9",
      "logs": [
        {
          "address": "0x3b1930860a0a109a3e66276332991081d9f3bc40",
          "topics": [
            "0xddf252ad1be2c89b69c2b068fc378daa952ba7f163c4a11628f55a4df523b3ef",
            "0x0000000000000000000000000000000000000000000000000000000000000000",
            "0x0000000000000000000000008f088eca0009ad61fb94a6d7e9a5d7a087c08564",
            "0x00000000000000000000000000000000000000000000000000000000000f4250"
          ],
          "data": "0x",
          "blockHash": "0xe2311d9c1dbadc06934d329060018cd5575272bf12c3d43ae66bd47a5cca8efe",
          "blockNumber": "0x951cb9",
          "transactionHash": "0x0da63f74ad0ecd5a2673943cd4c3bc11f0e361e6611a029b62eec4a75f8edff3",
          "transactionIndex": "0x8",
          "logIndex": "0xe",
          "removed": false
        }
      ],
      "logsBloom": "0x00000000000000000000000000000000000000000000000000000000000000000000000000100000000001000000000000000000000000000000000000000200000000000000000000000008000080000000000800000000000000000000000084000000020000000000000000000800000000000000000000000010000000000000000000000000000000000000000000000000000000000000000000000000000000000000000000000000000000000000000000000000000000400000000000000002000000000000000000000000000000000000000000000000000020000000000000000000000000000000000000000000000000000000000020000000",
      "type": "0x2",
      "transactionHash": "0x0da63f74ad0ecd5a2673943cd4c3bc11f0e361e6611a029b62eec4a75f8edff3",
      "transactionIndex": "0x8",
      "blockHash": "0xe2311d9c1dbadc06934d329060018cd5575272bf12c3d43ae66bd47a5cca8efe",
      "blockNumber": "0x951cb9",
      "gasUsed": "0x1a3d3",
      "effectiveGasPrice": "0x1879d",
      "from": "0x8f088eca0009ad61fb94a6d7e9a5d7a087c08564",
      "to": "0x3b1930860a0a109a3e66276332991081d9f3bc40",
      "contractAddress": null,
      "l1Fee": "0xf4dd0",
      "l1GasPrice": "0x6e873",
      "l1GasUsed": "0x7dc"
    },
    {
      "status": "0x1",
      "cumulativeGasUsed": "0x22cabc",
      "logs": [
        {
          "address": "0x3b1930860a0a109a3e66276332991081d9f3bc40",
          "topics": [
            "0xddf252ad1be2c89b69c2b068fc378daa952ba7f163c4a11628f55a4df523b3ef",
            "0x0000000000000000000000000000000000000000000000000000000000000000",
            "0x0000000000000000000000008f088eca0009ad61fb94a6d7e9a5d7a087c08564",
            "0x00000000000000000000000000000000000000000000000000000000000f4251"
          ],
          "data": "0x",
          "blockHash": "0xe2311d9c1dbadc06934d329060018cd5575272bf12c3d43ae66bd47a5cca8efe",
          "blockNumber": "0x951cb9",
          "transactionHash": "0x829cfdfc27825e63a8ba4d368e1fc9030230e4ce741fbe9de91570639a730004",
          "transactionIndex": "0x9",
          "logIndex": "0xf",
          "removed": false
        }
      ],
      "logsBloom": "0x00000000000000000000000000000000000000000000000000000000000000000000000000100000000001000000000000000000000000000000000000000a00000000000000000000000008000080000000000000000000000000000000000080000000020000000000000000000800000000000000000000000010000000000000000000000000000000000000000000000000000000000000000000000000000000000000000000000000000000000000000000000000000000400000000800000002000000000000000000000000000000000000000000000000000020000000000000000000000000000080000000000000000000000000000000000000",
      "type": "0x2",
      "transactionHash": "0x829cfdfc27825e63a8ba4d368e1fc9030230e4ce741fbe9de91570639a730004",
      "transactionIndex": "0x9",
      "blockHash": "0xe2311d9c1dbadc06934d329060018cd5575272bf12c3d43ae66bd47a5cca8efe",
      "blockNumber": "0x951cb9",
      "gasUsed": "0x1a3d3",
      "effectiveGasPrice": "0x1879d",
      "from": "0x8f088eca0009ad61fb94a6d7e9a5d7a087c08564",
      "to": "0x3b1930860a0a109a3e66276332991081d9f3bc40",
      "contractAddress": null,
      "l1Fee": "0xf4dd0",
      "l1GasPrice": "0x6e873",
      "l1GasUsed": "0x7dc"
    },
    {
      "status": "0x1",
      "cumulativeGasUsed": "0x246e8f",
      "logs": [
        {
          "address": "0x3b1930860a0a109a3e66276332991081d9f3bc40",
          "topics": [
            "0xddf252ad1be2c89b69c2b068fc378daa952ba7f163c4a11628f55a4df523b3ef",
            "0x0000000000000000000000000000000000000000000000000000000000000000",
            "0x0000000000000000000000008f088eca0009ad61fb94a6d7e9a5d7a087c08564",
            "0x00000000000000000000000000000000000000000000000000000000000f4252"
          ],
          "data": "0x",
          "blockHash": "0xe2311d9c1dbadc06934d329060018cd5575272bf12c3d43ae66bd47a5cca8efe",
          "blockNumber": "0x951cb9",
          "transactionHash": "0x4cf88049bbb5b8e2cd3db4ac7465c02a62d5cefea9bcc65206437074d10f5541",
          "transactionIndex": "0xa",
          "logIndex": "0x10",
          "removed": false
        }
      ],
      "logsBloom": "0x00000000000000000000000000000000000000000000000000000000000000000000000000100020000001000000000000000000000000000000000000000200000000000000000000000008000080000000000000000000000000000000000080000000020000000000000000000800000000000000000000000010000000000000000000000000000000000000000000000000000000000000000000400000000000000000000000000000000000000000000000000000000100400000000000000002000000000000000000000000000000000000000000000000000020000000000000000000000000000000000000000000000000000000000000000000",
      "type": "0x2",
      "transactionHash": "0x4cf88049bbb5b8e2cd3db4ac7465c02a62d5cefea9bcc65206437074d10f5541",
      "transactionIndex": "0xa",
      "blockHash": "0xe2311d9c1dbadc06934d329060018cd5575272bf12c3d43ae66bd47a5cca8efe",
      "blockNumber": "0x951cb9",
      "gasUsed": "0x1a3d3",
      "effectiveGasPrice": "0x1879d",
      "from": "0x8f088eca0009ad61fb94a6d7e9a5d7a087c08564",
      "to": "0x3b1930860a0a109a3e66276332991081d9f3bc40",
      "contractAddress": null,
      "l1Fee": "0xf4dd0",
      "l1GasPrice": "0x6e873",
      "l1GasUsed": "0x7dc"
    },
    {
      "status": "0x1",
      "cumulativeGasUsed": "0x261262",
      "logs": [
        {
          "address": "0x3b1930860a0a109a3e66276332991081d9f3bc40",
          "topics": [
            "0xddf252ad1be2c89b69c2b068fc378daa952ba7f163c4a11628f55a4df523b3ef",
            "0x0000000000000000000000000000000000000000000000000000000000000000",
            "0x0000000000000000000000008f088eca0009ad61fb94a6d7e9a5d7a087c08564",
            "0x00000000000000000000000000000000000000000000000000000000000f4253"
          ],
          "data": "0x",
          "blockHash": "0xe2311d9c1dbadc06934d329060018cd5575272bf12c3d43ae66bd47a5cca8efe",
          "blockNumber": "0x951cb9",
          "transactionHash": "0xef3cac2678cb107d8464cf9cf7469132317cb016cbb407f4198837e87460f7eb",
          "transactionIndex": "0xb",
          "logIndex": "0x11",
          "removed": false
        }
      ],
      "logsBloom": "0x00000000000000000000000000000000000000000000000000000000000000000000000000100000000001000000000000000000000000000000000000000200000000000000000000000008000080000004000000000000000000000000000080000000020000000000000000000800000000000000000000000010000000000000000000000000000000000000000000000000000000000000000000000000000000000000000000000000000000000000000000000000000000400000000000000002000000000000000000000000008000000000000000000000000020000000000000000000000000000000400000000000000000000000000000000000",
      "type": "0x2",
      "transactionHash": "0xef3cac2678cb107d8464cf9cf7469132317cb016cbb407f4198837e87460f7eb",
      "transactionIndex": "0xb",
      "blockHash": "0xe2311d9c1dbadc06934d329060018cd5575272bf12c3d43ae66bd47a5cca8efe",
      "blockNumber": "0x951cb9",
      "gasUsed": "0x1a3d3",
      "effectiveGasPrice": "0x1879d",
      "from": "0x8f088eca0009ad61fb94a6d7e9a5d7a087c08564",
      "to": "0x3b1930860a0a109a3e66276332991081d9f3bc40",
      "contractAddress": null,
      "l1Fee": "0xf4dd0",
      "l1GasPrice": "0x6e873",
      "l1GasUsed": "0x7dc"
    },
    {
      "status": "0x1",
      "cumulativeGasUsed": "0x27b635",
      "logs": [
        {
          "address": "0x3b1930860a0a109a3e66276332991081d9f3bc40",
          "topics": [
            "0xddf252ad1be2c89b69c2b068fc378daa952ba7f163c4a11628f55a4df523b3ef",
            "0x0000000000000000000000000000000000000000000000000000000000000000",
            "0x0000000000000000000000008f088eca0009ad61fb94a6d7e9a5d7a087c08564",
            "0x00000000000000000000000000000000000000000000000000000000000f4254"
          ],
          "data": "0x",
          "blockHash": "0xe2311d9c1dbadc06934d329060018cd5575272bf12c3d43ae66bd47a5cca8efe",
          "blockNumber": "0x951cb9",
          "transactionHash": "0xfadf947ba8a2d6168597ebb6ceafea2fa28809b55107c482f29b36f484017e9f",
          "transactionIndex": "0xc",
          "logIndex": "0x12",
          "removed": false
        }
      ],
      "logsBloom": "0x00000000000000000000000000000000000000000000000000000000000000000000000000100000000001000000000008000000000000005000000000000200000000000000000000000008000080000000000000000000000000000000000080000000020000000000000000000800000000000000000000000010000000000000000000000000000000000000000000000000000000000000000000000000000000000000000000000000000000000000000000000000000000400000000000000002000000000000000000000000000000000000000000000000000020000000000000000000000000000000000000000000000000000000000000000000",
      "type": "0x2",
      "transactionHash": "0xfadf947ba8a2d6168597ebb6ceafea2fa28809b55107c482f29b36f484017e9f",
      "transactionIndex": "0xc",
      "blockHash": "0xe2311d9c1dbadc06934d329060018cd5575272bf12c3d43ae66bd47a5cca8efe",
      "blockNumber": "0x951cb9",
      "gasUsed": "0x1a3d3",
      "effectiveGasPrice": "0x1879d",
      "from": "0x8f088eca0009ad61fb94a6d7e9a5d7a087c08564",
      "to": "0x3b1930860a0a109a3e66276332991081d9f3bc40",
      "contractAddress": null,
      "l1Fee": "0xf4dd0",
      "l1GasPrice": "0x6e873",
      "l1GasUsed": "0x7dc"
    }
  ],
  "libraries": [],
  "pending": [],
  "returns": {},
  "timestamp": 1715312551,
  "chain": 84532,
  "commit": "3e641a5"
}