{
  "transactions": [
    {
      "hash": "0x10dae33c1410da2ea829e320cb7fa5eb3a08b340b7cd0638d67bd7503c4ef190",
      "transactionType": "CALL",
      "contractName": null,
      "contractAddress": "0xb88d359a7a53458487b300dba46f7da1cf22ec5f",
      "function": "mint(uint256)",
      "arguments": [
        "1"
      ],
      "transaction": {
        "from": "0x8f088eca0009ad61fb94a6d7e9a5d7a087c08564",
        "to": "0xb88d359a7a53458487b300dba46f7da1cf22ec5f",
        "gas": "0x341bb",
        "value": "0x0",
        "input": "0xa0712d680000000000000000000000000000000000000000000000000000000000000001",
        "nonce": "0xd20",
        "chainId": "0x14a34"
      },
      "additionalContracts": [],
      "isFixedGasLimit": false
    },
    {
      "hash": "0xff7c87db54aa94d3ba2ba95e6fd4427ffb9639161d901e50a3f64bbb1100507f",
      "transactionType": "CALL",
      "contractName": null,
      "contractAddress": "0xb88d359a7a53458487b300dba46f7da1cf22ec5f",
      "function": "mint(uint256)",
      "arguments": [
        "1"
      ],
      "transaction": {
        "from": "0x8f088eca0009ad61fb94a6d7e9a5d7a087c08564",
        "to": "0xb88d359a7a53458487b300dba46f7da1cf22ec5f",
        "gas": "0x27e59",
        "value": "0x0",
        "input": "0xa0712d680000000000000000000000000000000000000000000000000000000000000001",
        "nonce": "0xd21",
        "chainId": "0x14a34"
      },
      "additionalContracts": [],
      "isFixedGasLimit": false
    },
    {
      "hash": "0xaffdefa02fe8ba9840ce6e7de6ea094b99daa889d15042b7a1ca64ee5c1a1ff2",
      "transactionType": "CALL",
      "contractName": null,
      "contractAddress": "0xb88d359a7a53458487b300dba46f7da1cf22ec5f",
      "function": "mint(uint256)",
      "arguments": [
        "1"
      ],
      "transaction": {
        "from": "0x8f088eca0009ad61fb94a6d7e9a5d7a087c08564",
        "to": "0xb88d359a7a53458487b300dba46f7da1cf22ec5f",
        "gas": "0x27e59",
        "value": "0x0",
        "input": "0xa0712d680000000000000000000000000000000000000000000000000000000000000001",
        "nonce": "0xd22",
        "chainId": "0x14a34"
      },
      "additionalContracts": [],
      "isFixedGasLimit": false
    },
    {
      "hash": "0xfa8ce6d01473718878e1158c77489449e6d6a9d2912b9904989d5cfb0cbbfa0a",
      "transactionType": "CALL",
      "contractName": null,
      "contractAddress": "0xb88d359a7a53458487b300dba46f7da1cf22ec5f",
      "function": "mint(uint256)",
      "arguments": [
        "1"
      ],
      "transaction": {
        "from": "0x8f088eca0009ad61fb94a6d7e9a5d7a087c08564",
        "to": "0xb88d359a7a53458487b300dba46f7da1cf22ec5f",
        "gas": "0x27e59",
        "value": "0x0",
        "input": "0xa0712d680000000000000000000000000000000000000000000000000000000000000001",
        "nonce": "0xd23",
        "chainId": "0x14a34"
      },
      "additionalContracts": [],
      "isFixedGasLimit": false
    },
    {
      "hash": "0x17e27c055ed5487768b3bbb6b2c2c98f6354b440c155c4b8926eb7687828acd6",
      "transactionType": "CALL",
      "contractName": null,
      "contractAddress": "0xb88d359a7a53458487b300dba46f7da1cf22ec5f",
      "function": "mint(uint256)",
      "arguments": [
        "1"
      ],
      "transaction": {
        "from": "0x8f088eca0009ad61fb94a6d7e9a5d7a087c08564",
        "to": "0xb88d359a7a53458487b300dba46f7da1cf22ec5f",
        "gas": "0x27e59",
        "value": "0x0",
        "input": "0xa0712d680000000000000000000000000000000000000000000000000000000000000001",
        "nonce": "0xd24",
        "chainId": "0x14a34"
      },
      "additionalContracts": [],
      "isFixedGasLimit": false
    },
    {
      "hash": "0xb8b24759398ec23a7bc580be727f26e006ab5b715c346bff7de637f521b37036",
      "transactionType": "CALL",
      "contractName": null,
      "contractAddress": "0xb88d359a7a53458487b300dba46f7da1cf22ec5f",
      "function": "mint(uint256)",
      "arguments": [
        "1"
      ],
      "transaction": {
        "from": "0x8f088eca0009ad61fb94a6d7e9a5d7a087c08564",
        "to": "0xb88d359a7a53458487b300dba46f7da1cf22ec5f",
        "gas": "0x27e59",
        "value": "0x0",
        "input": "0xa0712d680000000000000000000000000000000000000000000000000000000000000001",
        "nonce": "0xd25",
        "chainId": "0x14a34"
      },
      "additionalContracts": [],
      "isFixedGasLimit": false
    },
    {
      "hash": "0x594cccb1bdb23cf447479520e9d6d27c4f6cc7b3d2f11856ebb3b4468dd8b2e9",
      "transactionType": "CALL",
      "contractName": null,
      "contractAddress": "0xb88d359a7a53458487b300dba46f7da1cf22ec5f",
      "function": "mint(uint256)",
      "arguments": [
        "1"
      ],
      "transaction": {
        "from": "0x8f088eca0009ad61fb94a6d7e9a5d7a087c08564",
        "to": "0xb88d359a7a53458487b300dba46f7da1cf22ec5f",
        "gas": "0x27e59",
        "value": "0x0",
        "input": "0xa0712d680000000000000000000000000000000000000000000000000000000000000001",
        "nonce": "0xd26",
        "chainId": "0x14a34"
      },
      "additionalContracts": [],
      "isFixedGasLimit": false
    },
    {
      "hash": "0xa1f2006d0be3816fed36112330ad1758fb6eb13288799f6343d81c6785c62f3b",
      "transactionType": "CALL",
      "contractName": null,
      "contractAddress": "0xb88d359a7a53458487b300dba46f7da1cf22ec5f",
      "function": "mint(uint256)",
      "arguments": [
        "1"
      ],
      "transaction": {
        "from": "0x8f088eca0009ad61fb94a6d7e9a5d7a087c08564",
        "to": "0xb88d359a7a53458487b300dba46f7da1cf22ec5f",
        "gas": "0x27e59",
        "value": "0x0",
        "input": "0xa0712d680000000000000000000000000000000000000000000000000000000000000001",
        "nonce": "0xd27",
        "chainId": "0x14a34"
      },
      "additionalContracts": [],
      "isFixedGasLimit": false
    },
    {
      "hash": "0x8fc5ece81eccda963eace6b43ae5cd30831ce635e50d1c0a194c2c52dd6f8bd3",
      "transactionType": "CALL",
      "contractName": null,
      "contractAddress": "0xb88d359a7a53458487b300dba46f7da1cf22ec5f",
      "function": "mint(uint256)",
      "arguments": [
        "1"
      ],
      "transaction": {
        "from": "0x8f088eca0009ad61fb94a6d7e9a5d7a087c08564",
        "to": "0xb88d359a7a53458487b300dba46f7da1cf22ec5f",
        "gas": "0x27e59",
        "value": "0x0",
        "input": "0xa0712d680000000000000000000000000000000000000000000000000000000000000001",
        "nonce": "0xd28",
        "chainId": "0x14a34"
      },
      "additionalContracts": [],
      "isFixedGasLimit": false
    },
    {
      "hash": "0x01b81e2480d08d61cc0a5d356ecf38069abffbfd19d51c895055bf12e918c22b",
      "transactionType": "CALL",
      "contractName": null,
      "contractAddress": "0xb88d359a7a53458487b300dba46f7da1cf22ec5f",
      "function": "mint(uint256)",
      "arguments": [
        "1"
      ],
      "transaction": {
        "from": "0x8f088eca0009ad61fb94a6d7e9a5d7a087c08564",
        "to": "0xb88d359a7a53458487b300dba46f7da1cf22ec5f",
        "gas": "0x27e59",
        "value": "0x0",
        "input": "0xa0712d680000000000000000000000000000000000000000000000000000000000000001",
        "nonce": "0xd29",
        "chainId": "0x14a34"
      },
      "additionalContracts": [],
      "isFixedGasLimit": false
    }
  ],
  "receipts": [
    {
      "status": "0x1",
      "cumulativeGasUsed": "0x1769a1",
      "logs": [
        {
          "address": "0xb88d359a7a53458487b300dba46f7da1cf22ec5f",
          "topics": [
            "0xddf252ad1be2c89b69c2b068fc378daa952ba7f163c4a11628f55a4df523b3ef",
            "0x0000000000000000000000000000000000000000000000000000000000000000",
            "0x0000000000000000000000008f088eca0009ad61fb94a6d7e9a5d7a087c08564",
            "0x00000000000000000000000000000000000000000000000000000000000f4241"
          ],
          "data": "0x",
          "blockHash": "0x80832c8a517c2f2ace76c12c0c5f4ec5ef22df60aa70a1c2fe122c840bc6482c",
          "blockNumber": "0xad4be7",
          "transactionHash": "0x10dae33c1410da2ea829e320cb7fa5eb3a08b340b7cd0638d67bd7503c4ef190",
          "transactionIndex": "0x8",
          "logIndex": "0xe",
          "removed": false
        }
      ],
      "logsBloom": "0x00000000000000000000000000000000000000000000000000000000000000000000100000100000000001000000000000000000000000000000000000000200000000000000000000000008000000000000000000000000000000000000000000000000020000000400000000000800000000000000000000000010000000000000000000000000000000000000000000000000000000000000000000000000000000000000000000000000000000000000000000000000000000000000000008000002004000000000000000000000000000000000000000000000000220000000000000000000000000000000000000000000000000000000000000000002",
      "type": "0x2",
      "transactionHash": "0x10dae33c1410da2ea829e320cb7fa5eb3a08b340b7cd0638d67bd7503c4ef190",
      "transactionIndex": "0x8",
      "blockHash": "0x80832c8a517c2f2ace76c12c0c5f4ec5ef22df60aa70a1c2fe122c840bc6482c",
      "blockNumber": "0xad4be7",
      "gasUsed": "0x23a13",
      "effectiveGasPrice": "0x86573",
      "from": "0x8f088eca0009ad61fb94a6d7e9a5d7a087c08564",
      "to": "0xb88d359a7a53458487b300dba46f7da1cf22ec5f",
      "contractAddress": null,
      "l1BaseFeeScalar": "0x44d",
      "l1BlobBaseFee": "0x1",
      "l1BlobBaseFeeScalar": "0xa118b",
      "l1Fee": "0x66",
      "l1GasPrice": "0x15",
      "l1GasUsed": "0x640"
    },
    {
      "status": "0x1",
      "cumulativeGasUsed": "0xddb25",
      "logs": [
        {
          "address": "0xb88d359a7a53458487b300dba46f7da1cf22ec5f",
          "topics": [
            "0xddf252ad1be2c89b69c2b068fc378daa952ba7f163c4a11628f55a4df523b3ef",
            "0x0000000000000000000000000000000000000000000000000000000000000000",
            "0x0000000000000000000000008f088eca0009ad61fb94a6d7e9a5d7a087c08564",
            "0x00000000000000000000000000000000000000000000000000000000000f4242"
          ],
          "data": "0x",
          "blockHash": "0x2b67432c7cd68f2c3d3f1e0a286af0a4fd9985f5357da6392da589af397e939d",
          "blockNumber": "0xad4be8",
          "transactionHash": "0xff7c87db54aa94d3ba2ba95e6fd4427ffb9639161d901e50a3f64bbb1100507f",
          "transactionIndex": "0xb",
          "logIndex": "0x9",
          "removed": false
        }
      ],
      "logsBloom": "0x00000000000000000000000000000000000000000000000000000000000000000000000000100000000001000000000000000000000000000000000000000200000000000000000000000008000000000000000000000000000000000000000000000400020000000400000000000800000000000000000000000010000000000000000000000000000000000000000000000000000000000000000000000000000000000000000000000000000000000000000000000000000000000000000008000002004000000001000000000000000000000000000000000000000020000000000000000000000000000000000000000000010000000000000000000000",
      "type": "0x2",
      "transactionHash": "0xff7c87db54aa94d3ba2ba95e6fd4427ffb9639161d901e50a3f64bbb1100507f",
      "transactionIndex": "0xb",
      "blockHash": "0x2b67432c7cd68f2c3d3f1e0a286af0a4fd9985f5357da6392da589af397e939d",
      "blockNumber": "0xad4be8",
      "gasUsed": "0x1b47b",
      "effectiveGasPrice": "0x86573",
      "from": "0x8f088eca0009ad61fb94a6d7e9a5d7a087c08564",
      "to": "0xb88d359a7a53458487b300dba46f7da1cf22ec5f",
      "contractAddress": null,
      "l1BaseFeeScalar": "0x44d",
      "l1BlobBaseFee": "0x1",
      "l1BlobBaseFeeScalar": "0xa118b",
      "l1Fee": "0x66",
      "l1GasPrice": "0x15",
      "l1GasUsed": "0x640"
    },
    {
      "status": "0x1",
      "cumulativeGasUsed": "0xf8fa0",
      "logs": [
        {
          "address": "0xb88d359a7a53458487b300dba46f7da1cf22ec5f",
          "topics": [
            "0xddf252ad1be2c89b69c2b068fc378daa952ba7f163c4a11628f55a4df523b3ef",
            "0x0000000000000000000000000000000000000000000000000000000000000000",
            "0x0000000000000000000000008f088eca0009ad61fb94a6d7e9a5d7a087c08564",
            "0x00000000000000000000000000000000000000000000000000000000000f4243"
          ],
          "data": "0x",
          "blockHash": "0x2b67432c7cd68f2c3d3f1e0a286af0a4fd9985f5357da6392da589af397e939d",
          "blockNumber": "0xad4be8",
          "transactionHash": "0xaffdefa02fe8ba9840ce6e7de6ea094b99daa889d15042b7a1ca64ee5c1a1ff2",
          "transactionIndex": "0xc",
          "logIndex": "0xa",
          "removed": false
        }
      ],
      "logsBloom": "0x00000000000000000000000000000000000000000200000000000000040000000000000000100000000001000000000000000000000000000000000000040200000000000000000000000008000000000000000000000000000000000000000000000000020000000400000000000800000000000000000000000010000000000000000000000000000000000000000000000000000000000000000000000000000000000000000000000000000000000000000000000000000000000000000008000002004000000000000000000000000000000000000000000000000020000000000000000000000000000000000000000000000000000000000000000000",
      "type": "0x2",
      "transactionHash": "0xaffdefa02fe8ba9840ce6e7de6ea094b99daa889d15042b7a1ca64ee5c1a1ff2",
      "transactionIndex": "0xc",
      "blockHash": "0x2b67432c7cd68f2c3d3f1e0a286af0a4fd9985f5357da6392da589af397e939d",
      "blockNumber": "0xad4be8",
      "gasUsed": "0x1b47b",
      "effectiveGasPrice": "0x86573",
      "from": "0x8f088eca0009ad61fb94a6d7e9a5d7a087c08564",
      "to": "0xb88d359a7a53458487b300dba46f7da1cf22ec5f",
      "contractAddress": null,
      "l1BaseFeeScalar": "0x44d",
      "l1BlobBaseFee": "0x1",
      "l1BlobBaseFeeScalar": "0xa118b",
      "l1Fee": "0x66",
      "l1GasPrice": "0x15",
      "l1GasUsed": "0x640"
    },
    {
      "status": "0x1",
      "cumulativeGasUsed": "0x11441b",
      "logs": [
        {
          "address": "0xb88d359a7a53458487b300dba46f7da1cf22ec5f",
          "topics": [
            "0xddf252ad1be2c89b69c2b068fc378daa952ba7f163c4a11628f55a4df523b3ef",
            "0x0000000000000000000000000000000000000000000000000000000000000000",
            "0x0000000000000000000000008f088eca0009ad61fb94a6d7e9a5d7a087c08564",
            "0x00000000000000000000000000000000000000000000000000000000000f4244"
          ],
          "data": "0x",
          "blockHash": "0x2b67432c7cd68f2c3d3f1e0a286af0a4fd9985f5357da6392da589af397e939d",
          "blockNumber": "0xad4be8",
          "transactionHash": "0xfa8ce6d01473718878e1158c77489449e6d6a9d2912b9904989d5cfb0cbbfa0a",
          "transactionIndex": "0xd",
          "logIndex": "0xb",
          "removed": false
        }
      ],
      "logsBloom": "0x00000000000000000000000000000000000000000000000000000000000000000000000000100000000001000000000000000000000000000000000000000200000000000000000000000008000000000000000000000000000000000000000000000000020000000400000000000800001000000000000000000010000000000000000000000000000000000000000000000000000000000000000000000000000000000000000000000000008000000000000000000000000000000000000008000002004000000000000000000000000000000000000000000000000020000000000000000000000000000000000000000000000000000000000010000000",
      "type": "0x2",
      "transactionHash": "0xfa8ce6d01473718878e1158c77489449e6d6a9d2912b9904989d5cfb0cbbfa0a",
      "transactionIndex": "0xd",
      "blockHash": "0x2b67432c7cd68f2c3d3f1e0a286af0a4fd9985f5357da6392da589af397e939d",
      "blockNumber": "0xad4be8",
      "gasUsed": "0x1b47b",
      "effectiveGasPrice": "0x86573",
      "from": "0x8f088eca0009ad61fb94a6d7e9a5d7a087c08564",
      "to": "0xb88d359a7a53458487b300dba46f7da1cf22ec5f",
      "contractAddress": null,
      "l1BaseFeeScalar": "0x44d",
      "l1BlobBaseFee": "0x1",
      "l1BlobBaseFeeScalar": "0xa118b",
      "l1Fee": "0x66",
      "l1GasPrice": "0x15",
      "l1GasUsed": "0x640"
    },
    {
      "status": "0x1",
      "cumulativeGasUsed": "0x12f896",
      "logs": [
        {
          "address": "0xb88d359a7a53458487b300dba46f7da1cf22ec5f",
          "topics": [
            "0xddf252ad1be2c89b69c2b068fc378daa952ba7f163c4a11628f55a4df523b3ef",
            "0x0000000000000000000000000000000000000000000000000000000000000000",
            "0x0000000000000000000000008f088eca0009ad61fb94a6d7e9a5d7a087c08564",
            "0x00000000000000000000000000000000000000000000000000000000000f4245"
          ],
          "data": "0x",
          "blockHash": "0x2b67432c7cd68f2c3d3f1e0a286af0a4fd9985f5357da6392da589af397e939d",
          "blockNumber": "0xad4be8",
          "transactionHash": "0x17e27c055ed5487768b3bbb6b2c2c98f6354b440c155c4b8926eb7687828acd6",
          "transactionIndex": "0xe",
          "logIndex": "0xc",
          "removed": false
        }
      ],
      "logsBloom": "0x00000000000000000000000000000000000000000000000000000000000000880000000000100000000001000000000000000000000000000000000000010200000000000000000000000008000000000000000000000000000000000000000000000000020000000400000000000800000000000000000000000010000000000000000000000000000000000000000000000000000000000000000000000000000000000000000000000000000000000000000000000000000000000000000008000002004000000000000000000000000000000000000000000000000020000000000000000000000000000000000000000000000000000000000000000000",
      "type": "0x2",
      "transactionHash": "0x17e27c055ed5487768b3bbb6b2c2c98f6354b440c155c4b8926eb7687828acd6",
      "transactionIndex": "0xe",
      "blockHash": "0x2b67432c7cd68f2c3d3f1e0a286af0a4fd9985f5357da6392da589af397e939d",
      "blockNumber": "0xad4be8",
      "gasUsed": "0x1b47b",
      "effectiveGasPrice": "0x86573",
      "from": "0x8f088eca0009ad61fb94a6d7e9a5d7a087c08564",
      "to": "0xb88d359a7a53458487b300dba46f7da1cf22ec5f",
      "contractAddress": null,
      "l1BaseFeeScalar": "0x44d",
      "l1BlobBaseFee": "0x1",
      "l1BlobBaseFeeScalar": "0xa118b",
      "l1Fee": "0x66",
      "l1GasPrice": "0x15",
      "l1GasUsed": "0x640"
    },
    {
      "status": "0x1",
      "cumulativeGasUsed": "0x14ad11",
      "logs": [
        {
          "address": "0xb88d359a7a53458487b300dba46f7da1cf22ec5f",
          "topics": [
            "0xddf252ad1be2c89b69c2b068fc378daa952ba7f163c4a11628f55a4df523b3ef",
            "0x0000000000000000000000000000000000000000000000000000000000000000",
            "0x0000000000000000000000008f088eca0009ad61fb94a6d7e9a5d7a087c08564",
            "0x00000000000000000000000000000000000000000000000000000000000f4246"
          ],
          "data": "0x",
          "blockHash": "0x2b67432c7cd68f2c3d3f1e0a286af0a4fd9985f5357da6392da589af397e939d",
          "blockNumber": "0xad4be8",
          "transactionHash": "0xb8b24759398ec23a7bc580be727f26e006ab5b715c346bff7de637f521b37036",
          "transactionIndex": "0xf",
          "logIndex": "0xd",
          "removed": false
        }
      ],
      "logsBloom": "0x04000000000040000000000000000000000000000000000000000000000000000000000000100000000001000000000000000000000000000000000000000200000000000000000000000008000000000000000000000000000000000000000000000000020000000400000000000800000000000000000000000010000000000000000000000000000000000000000000000000000000000000000000000000000000000000000000000010000000000000000000000000000000000000000008000002004000000000000000000000000000000000000000000000000020000000000000000000000000000000000000000000000000000000000000000000",
      "type": "0x2",
      "transactionHash": "0xb8b24759398ec23a7bc580be727f26e006ab5b715c346bff7de637f521b37036",
      "transactionIndex": "0xf",
      "blockHash": "0x2b67432c7cd68f2c3d3f1e0a286af0a4fd9985f5357da6392da589af397e939d",
      "blockNumber": "0xad4be8",
      "gasUsed": "0x1b47b",
      "effectiveGasPrice": "0x86573",
      "from": "0x8f088eca0009ad61fb94a6d7e9a5d7a087c08564",
      "to": "0xb88d359a7a53458487b300dba46f7da1cf22ec5f",
      "contractAddress": null,
      "l1BaseFeeScalar": "0x44d",
      "l1BlobBaseFee": "0x1",
      "l1BlobBaseFeeScalar": "0xa118b",
      "l1Fee": "0x66",
      "l1GasPrice": "0x15",
      "l1GasUsed": "0x640"
    },
    {
      "status": "0x1",
      "cumulativeGasUsed": "0x16618c",
      "logs": [
        {
          "address": "0xb88d359a7a53458487b300dba46f7da1cf22ec5f",
          "topics": [
            "0xddf252ad1be2c89b69c2b068fc378daa952ba7f163c4a11628f55a4df523b3ef",
            "0x0000000000000000000000000000000000000000000000000000000000000000",
            "0x0000000000000000000000008f088eca0009ad61fb94a6d7e9a5d7a087c08564",
            "0x00000000000000000000000000000000000000000000000000000000000f4247"
          ],
          "data": "0x",
          "blockHash": "0x2b67432c7cd68f2c3d3f1e0a286af0a4fd9985f5357da6392da589af397e939d",
          "blockNumber": "0xad4be8",
          "transactionHash": "0x594cccb1bdb23cf447479520e9d6d27c4f6cc7b3d2f11856ebb3b4468dd8b2e9",
          "transactionIndex": "0x10",
          "logIndex": "0xe",
          "removed": false
        }
      ],
      "logsBloom": "0x000000000000000000000000000000000000000000000000000000000000000000000000001000000000010000000000000000000000000000000000000002000000000000000000000000080000000000000000000000000000000000000000000000000200000004000000000008000000000000000000000000100000000000000000000000000000000000000000000000000000000000000000000000000000000000000000000000000200000000000000000000000000000000000000080000020040000000000000000000000000000000000000000000000000a0000000002000000000000000000000000000000000000000000000000000000000",
      "type": "0x2",
      "transactionHash": "0x594cccb1bdb23cf447479520e9d6d27c4f6cc7b3d2f11856ebb3b4468dd8b2e9",
      "transactionIndex": "0x10",
      "blockHash": "0x2b67432c7cd68f2c3d3f1e0a286af0a4fd9985f5357da6392da589af397e939d",
      "blockNumber": "0xad4be8",
      "gasUsed": "0x1b47b",
      "effectiveGasPrice": "0x86573",
      "from": "0x8f088eca0009ad61fb94a6d7e9a5d7a087c08564",
      "to": "0xb88d359a7a53458487b300dba46f7da1cf22ec5f",
      "contractAddress": null,
      "l1BaseFeeScalar": "0x44d",
      "l1BlobBaseFee": "0x1",
      "l1BlobBaseFeeScalar": "0xa118b",
      "l1Fee": "0x66",
      "l1GasPrice": "0x15",
      "l1GasUsed": "0x640"
    },
    {
      "status": "0x1",
      "cumulativeGasUsed": "0x181607",
      "logs": [
        {
          "address": "0xb88d359a7a53458487b300dba46f7da1cf22ec5f",
          "topics": [
            "0xddf252ad1be2c89b69c2b068fc378daa952ba7f163c4a11628f55a4df523b3ef",
            "0x0000000000000000000000000000000000000000000000000000000000000000",
            "0x0000000000000000000000008f088eca0009ad61fb94a6d7e9a5d7a087c08564",
            "0x00000000000000000000000000000000000000000000000000000000000f4248"
          ],
          "data": "0x",
          "blockHash": "0x2b67432c7cd68f2c3d3f1e0a286af0a4fd9985f5357da6392da589af397e939d",
          "blockNumber": "0xad4be8",
          "transactionHash": "0xa1f2006d0be3816fed36112330ad1758fb6eb13288799f6343d81c6785c62f3b",
          "transactionIndex": "0x11",
          "logIndex": "0xf",
          "removed": false
        }
      ],
      "logsBloom": "0x00000000000000000001000000000000000000000000000020000000000000000000000000100000000001000000000000000000000000000000000000000200000000000000000000000008000000000000000000000000000000000000000000000000020000000400000000000800000000000000000000000010000000000000000000000000000000000000000000000000000000000000000000000000000000000000000000000000000000000000000000000000000000000000000008000002004000000000000000010000000000000000000000000000000020000000000000000000000000000000000000000000000000000000000000000000",
      "type": "0x2",
      "transactionHash": "0xa1f2006d0be3816fed36112330ad1758fb6eb13288799f6343d81c6785c62f3b",
      "transactionIndex": "0x11",
      "blockHash": "0x2b67432c7cd68f2c3d3f1e0a286af0a4fd9985f5357da6392da589af397e939d",
      "blockNumber": "0xad4be8",
      "gasUsed": "0x1b47b",
      "effectiveGasPrice": "0x86573",
      "from": "0x8f088eca0009ad61fb94a6d7e9a5d7a087c08564",
      "to": "0xb88d359a7a53458487b300dba46f7da1cf22ec5f",
      "contractAddress": null,
      "l1BaseFeeScalar": "0x44d",
      "l1BlobBaseFee": "0x1",
      "l1BlobBaseFeeScalar": "0xa118b",
      "l1Fee": "0x66",
      "l1GasPrice": "0x15",
      "l1GasUsed": "0x640"
    },
    {
      "status": "0x1",
      "cumulativeGasUsed": "0x19ca82",
      "logs": [
        {
          "address": "0xb88d359a7a53458487b300dba46f7da1cf22ec5f",
          "topics": [
            "0xddf252ad1be2c89b69c2b068fc378daa952ba7f163c4a11628f55a4df523b3ef",
            "0x0000000000000000000000000000000000000000000000000000000000000000",
            "0x0000000000000000000000008f088eca0009ad61fb94a6d7e9a5d7a087c08564",
            "0x00000000000000000000000000000000000000000000000000000000000f4249"
          ],
          "data": "0x",
          "blockHash": "0x2b67432c7cd68f2c3d3f1e0a286af0a4fd9985f5357da6392da589af397e939d",
          "blockNumber": "0xad4be8",
          "transactionHash": "0x8fc5ece81eccda963eace6b43ae5cd30831ce635e50d1c0a194c2c52dd6f8bd3",
          "transactionIndex": "0x12",
          "logIndex": "0x10",
          "removed": false
        }
      ],
      "logsBloom": "0x00000000000000000000000000000000000000000000000000000000000000000000000000100000000001000000000008000000000000000000000000000200000000000000000000000008000000000000000000000000000000000000000000000000020000000400000000000800000000000000000000000010000000000000000000000000000000000000000000000000000000000000000000000000000000000000000000080000000000000000000000000000000000000000000008000002004000000000000000000000000000000000000000000000000020000000000000000000000000000000000000000000000000000000000000400000",
      "type": "0x2",
      "transactionHash": "0x8fc5ece81eccda963eace6b43ae5cd30831ce635e50d1c0a194c2c52dd6f8bd3",
      "transactionIndex": "0x12",
      "blockHash": "0x2b67432c7cd68f2c3d3f1e0a286af0a4fd9985f5357da6392da589af397e939d",
      "blockNumber": "0xad4be8",
      "gasUsed": "0x1b47b",
      "effectiveGasPrice": "0x86573",
      "from": "0x8f088eca0009ad61fb94a6d7e9a5d7a087c08564",
      "to": "0xb88d359a7a53458487b300dba46f7da1cf22ec5f",
      "contractAddress": null,
      "l1BaseFeeScalar": "0x44d",
      "l1BlobBaseFee": "0x1",
      "l1BlobBaseFeeScalar": "0xa118b",
      "l1Fee": "0x66",
      "l1GasPrice": "0x15",
      "l1GasUsed": "0x640"
    },
    {
      "status": "0x1",
      "cumulativeGasUsed": "0x1b7efd",
      "logs": [
        {
          "address": "0xb88d359a7a53458487b300dba46f7da1cf22ec5f",
          "topics": [
            "0xddf252ad1be2c89b69c2b068fc378daa952ba7f163c4a11628f55a4df523b3ef",
            "0x0000000000000000000000000000000000000000000000000000000000000000",
            "0x0000000000000000000000008f088eca0009ad61fb94a6d7e9a5d7a087c08564",
            "0x00000000000000000000000000000000000000000000000000000000000f424a"
          ],
          "data": "0x",
          "blockHash": "0x2b67432c7cd68f2c3d3f1e0a286af0a4fd9985f5357da6392da589af397e939d",
          "blockNumber": "0xad4be8",
          "transactionHash": "0x01b81e2480d08d61cc0a5d356ecf38069abffbfd19d51c895055bf12e918c22b",
          "transactionIndex": "0x13",
          "logIndex": "0x11",
          "removed": false
        }
      ],
      "logsBloom": "0x00000000000000000000000000000000000010000000000000000000000000000000000000100000000001000000000000000000000000000000000000000200000000000000000000000008000000000001000000000000000000000000000000000000020000000400000000000800000000000000000000000010000000000000000000000000000000000000000000000000000000000000000000000000000000000000000000000000000000000000000000000000000000000000000008000002004000000000000000000000000000000000000000000000000020000000000000000000000000000000000000000000000000000000020000000000",
      "type": "0x2",
      "transactionHash": "0x01b81e2480d08d61cc0a5d356ecf38069abffbfd19d51c895055bf12e918c22b",
      "transactionIndex": "0x13",
      "blockHash": "0x2b67432c7cd68f2c3d3f1e0a286af0a4fd9985f5357da6392da589af397e939d",
      "blockNumber": "0xad4be8",
      "gasUsed": "0x1b47b",
      "effectiveGasPrice": "0x86573",
      "from": "0x8f088eca0009ad61fb94a6d7e9a5d7a087c08564",
      "to": "0xb88d359a7a53458487b300dba46f7da1cf22ec5f",
      "contractAddress": null,
      "l1BaseFeeScalar": "0x44d",
      "l1BlobBaseFee": "0x1",
      "l1BlobBaseFeeScalar": "0xa118b",
      "l1Fee": "0x66",
      "l1GasPrice": "0x15",
      "l1GasUsed": "0x640"
    }
  ],
  "libraries": [],
  "pending": [],
  "returns": {},
  "timestamp": 1718482613,
  "chain": 84532,
  "commit": "3e641a5"
}