{
  "transactions": [
    {
      "hash": "0x93096aa977727cd2c9a315bb8cb65a9b3c71c5ed35eacbf1b74391a5cbab1244",
      "transactionType": "CALL",
      "contractName": null,
      "contractAddress": "0xe2b6353511c5374b77aa67a1b1a9f2ede7dc1ea7",
      "function": "mint(uint256)",
      "arguments": [
        "1"
      ],
      "transaction": {
        "from": "0x8f088eca0009ad61fb94a6d7e9a5d7a087c08564",
        "to": "0xe2b6353511c5374b77aa67a1b1a9f2ede7dc1ea7",
        "gas": "0x24410",
        "value": "0x0",
        "input": "0xa0712d680000000000000000000000000000000000000000000000000000000000000001",
        "nonce": "0xbcf",
        "chainId": "0x14a34"
      },
      "additionalContracts": [],
      "isFixedGasLimit": false
    },
    {
      "hash": "0x0d0fc5f4dc4b635f9fccb1c401799cd543426ae324b7ada83cdce4c406b4303a",
      "transactionType": "CALL",
      "contractName": null,
      "contractAddress": "0xe2b6353511c5374b77aa67a1b1a9f2ede7dc1ea7",
      "function": "mint(uint256)",
      "arguments": [
        "1"
      ],
      "transaction": {
        "from": "0x8f088eca0009ad61fb94a6d7e9a5d7a087c08564",
        "to": "0xe2b6353511c5374b77aa67a1b1a9f2ede7dc1ea7",
        "gas": "0x24410",
        "value": "0x0",
        "input": "0xa0712d680000000000000000000000000000000000000000000000000000000000000001",
        "nonce": "0xbd0",
        "chainId": "0x14a34"
      },
      "additionalContracts": [],
      "isFixedGasLimit": false
    },
    {
      "hash": "0xc1618093cb4d1d130b833821196380ab1348ce0b6f32799eed6daa984cabb49e",
      "transactionType": "CALL",
      "contractName": null,
      "contractAddress": "0xe2b6353511c5374b77aa67a1b1a9f2ede7dc1ea7",
      "function": "mint(uint256)",
      "arguments": [
        "1"
      ],
      "transaction": {
        "from": "0x8f088eca0009ad61fb94a6d7e9a5d7a087c08564",
        "to": "0xe2b6353511c5374b77aa67a1b1a9f2ede7dc1ea7",
        "gas": "0x24410",
        "value": "0x0",
        "input": "0xa0712d680000000000000000000000000000000000000000000000000000000000000001",
        "nonce": "0xbd1",
        "chainId": "0x14a34"
      },
      "additionalContracts": [],
      "isFixedGasLimit": false
    },
    {
      "hash": "0x5440403e2d47831958ef695eda5458e3b01f6d2f8dcfd597841828c3d7b8822c",
      "transactionType": "CALL",
      "contractName": null,
      "contractAddress": "0xe2b6353511c5374b77aa67a1b1a9f2ede7dc1ea7",
      "function": "mint(uint256)",
      "arguments": [
        "1"
      ],
      "transaction": {
        "from": "0x8f088eca0009ad61fb94a6d7e9a5d7a087c08564",
        "to": "0xe2b6353511c5374b77aa67a1b1a9f2ede7dc1ea7",
        "gas": "0x24410",
        "value": "0x0",
        "input": "0xa0712d680000000000000000000000000000000000000000000000000000000000000001",
        "nonce": "0xbd2",
        "chainId": "0x14a34"
      },
      "additionalContracts": [],
      "isFixedGasLimit": false
    },
    {
      "hash": "0x0ed864146fbfd6613b3b42079efab7112f080f3c924fdd677ee1222070e79872",
      "transactionType": "CALL",
      "contractName": null,
      "contractAddress": "0xe2b6353511c5374b77aa67a1b1a9f2ede7dc1ea7",
      "function": "mint(uint256)",
      "arguments": [
        "1"
      ],
      "transaction": {
        "from": "0x8f088eca0009ad61fb94a6d7e9a5d7a087c08564",
        "to": "0xe2b6353511c5374b77aa67a1b1a9f2ede7dc1ea7",
        "gas": "0x24410",
        "value": "0x0",
        "input": "0xa0712d680000000000000000000000000000000000000000000000000000000000000001",
        "nonce": "0xbd3",
        "chainId": "0x14a34"
      },
      "additionalContracts": [],
      "isFixedGasLimit": false
    },
    {
      "hash": "0x081c1083e8510f665ad0ece4be8cfc61884b9dc0b73a98d11538600e138ce807",
      "transactionType": "CALL",
      "contractName": null,
      "contractAddress": "0xe2b6353511c5374b77aa67a1b1a9f2ede7dc1ea7",
      "function": "mint(uint256)",
      "arguments": [
        "1"
      ],
      "transaction": {
        "from": "0x8f088eca0009ad61fb94a6d7e9a5d7a087c08564",
        "to": "0xe2b6353511c5374b77aa67a1b1a9f2ede7dc1ea7",
        "gas": "0x24410",
        "value": "0x0",
        "input": "0xa0712d680000000000000000000000000000000000000000000000000000000000000001",
        "nonce": "0xbd4",
        "chainId": "0x14a34"
      },
      "additionalContracts": [],
      "isFixedGasLimit": false
    },
    {
      "hash": "0x6a639656cea6e75f8ed27a06063485e567828087803213416e59c43b69267047",
      "transactionType": "CALL",
      "contractName": null,
      "contractAddress": "0xe2b6353511c5374b77aa67a1b1a9f2ede7dc1ea7",
      "function": "mint(uint256)",
      "arguments": [
        "1"
      ],
      "transaction": {
        "from": "0x8f088eca0009ad61fb94a6d7e9a5d7a087c08564",
        "to": "0xe2b6353511c5374b77aa67a1b1a9f2ede7dc1ea7",
        "gas": "0x24410",
        "value": "0x0",
        "input": "0xa0712d680000000000000000000000000000000000000000000000000000000000000001",
        "nonce": "0xbd5",
        "chainId": "0x14a34"
      },
      "additionalContracts": [],
      "isFixedGasLimit": false
    },
    {
      "hash": "0x70548a85a64f382520ff40ed251b60f93209458dc6fae851556bf7e2e71cca66",
      "transactionType": "CALL",
      "contractName": null,
      "contractAddress": "0xe2b6353511c5374b77aa67a1b1a9f2ede7dc1ea7",
      "function": "mint(uint256)",
      "arguments": [
        "1"
      ],
      "transaction": {
        "from": "0x8f088eca0009ad61fb94a6d7e9a5d7a087c08564",
        "to": "0xe2b6353511c5374b77aa67a1b1a9f2ede7dc1ea7",
        "gas": "0x24410",
        "value": "0x0",
        "input": "0xa0712d680000000000000000000000000000000000000000000000000000000000000001",
        "nonce": "0xbd6",
        "chainId": "0x14a34"
      },
      "additionalContracts": [],
      "isFixedGasLimit": false
    },
    {
      "hash": "0x4d5a08a26107537c296116005cc3090e42449b007faeed0613b04baa289f745a",
      "transactionType": "CALL",
      "contractName": null,
      "contractAddress": "0xe2b6353511c5374b77aa67a1b1a9f2ede7dc1ea7",
      "function": "mint(uint256)",
      "arguments": [
        "1"
      ],
      "transaction": {
        "from": "0x8f088eca0009ad61fb94a6d7e9a5d7a087c08564",
        "to": "0xe2b6353511c5374b77aa67a1b1a9f2ede7dc1ea7",
        "gas": "0x24410",
        "value": "0x0",
        "input": "0xa0712d680000000000000000000000000000000000000000000000000000000000000001",
        "nonce": "0xbd7",
        "chainId": "0x14a34"
      },
      "additionalContracts": [],
      "isFixedGasLimit": false
    },
    {
      "hash": "0xf6b97a16ff2fff2c34676b680986d811a85124bbf11acde47162a4aaab3960b1",
      "transactionType": "CALL",
      "contractName": null,
      "contractAddress": "0xe2b6353511c5374b77aa67a1b1a9f2ede7dc1ea7",
      "function": "mint(uint256)",
      "arguments": [
        "1"
      ],
      "transaction": {
        "from": "0x8f088eca0009ad61fb94a6d7e9a5d7a087c08564",
        "to": "0xe2b6353511c5374b77aa67a1b1a9f2ede7dc1ea7",
        "gas": "0x24410",
        "value": "0x0",
        "input": "0xa0712d680000000000000000000000000000000000000000000000000000000000000001",
        "nonce": "0xbd8",
        "chainId": "0x14a34"
      },
      "additionalContracts": [],
      "isFixedGasLimit": false
    },
    {
      "hash": "0x61c0c0e6d4db15617ebbc010c321698aa08038431a676a3187e4712c4893c28f",
      "transactionType": "CALL",
      "contractName": null,
      "contractAddress": "0xe2b6353511c5374b77aa67a1b1a9f2ede7dc1ea7",
      "function": "mint(uint256)",
      "arguments": [
        "1"
      ],
      "transaction": {
        "from": "0x8f088eca0009ad61fb94a6d7e9a5d7a087c08564",
        "to": "0xe2b6353511c5374b77aa67a1b1a9f2ede7dc1ea7",
        "gas": "0x24410",
        "value": "0x0",
        "input": "0xa0712d680000000000000000000000000000000000000000000000000000000000000001",
        "nonce": "0xbd9",
        "chainId": "0x14a34"
      },
      "additionalContracts": [],
      "isFixedGasLimit": false
    },
    {
      "hash": "0xdcac3835ed2bd53cf2212a5b03b8a50eb505e2bafe6f07cf3a17721a30f0ac71",
      "transactionType": "CALL",
      "contractName": null,
      "contractAddress": "0xe2b6353511c5374b77aa67a1b1a9f2ede7dc1ea7",
      "function": "mint(uint256)",
      "arguments": [
        "1"
      ],
      "transaction": {
        "from": "0x8f088eca0009ad61fb94a6d7e9a5d7a087c08564",
        "to": "0xe2b6353511c5374b77aa67a1b1a9f2ede7dc1ea7",
        "gas": "0x24410",
        "value": "0x0",
        "input": "0xa0712d680000000000000000000000000000000000000000000000000000000000000001",
        "nonce": "0xbda",
        "chainId": "0x14a34"
      },
      "additionalContracts": [],
      "isFixedGasLimit": false
    },
    {
      "hash": "0x0ba10f5ce40f8f8fe5f40ae8555085f8ffb89fae0b8a6347030257ab25de65c4",
      "transactionType": "CALL",
      "contractName": null,
      "contractAddress": "0xe2b6353511c5374b77aa67a1b1a9f2ede7dc1ea7",
      "function": "mint(uint256)",
      "arguments": [
        "1"
      ],
      "transaction": {
        "from": "0x8f088eca0009ad61fb94a6d7e9a5d7a087c08564",
        "to": "0xe2b6353511c5374b77aa67a1b1a9f2ede7dc1ea7",
        "gas": "0x24410",
        "value": "0x0",
        "input": "0xa0712d680000000000000000000000000000000000000000000000000000000000000001",
        "nonce": "0xbdb",
        "chainId": "0x14a34"
      },
      "additionalContracts": [],
      "isFixedGasLimit": false
    },
    {
      "hash": "0x72050e197eec10021f2731627961a3844769afc2cfce96c5aaec8d87b32ab88f",
      "transactionType": "CALL",
      "contractName": null,
      "contractAddress": "0xe2b6353511c5374b77aa67a1b1a9f2ede7dc1ea7",
      "function": "mint(uint256)",
      "arguments": [
        "1"
      ],
      "transaction": {
        "from": "0x8f088eca0009ad61fb94a6d7e9a5d7a087c08564",
        "to": "0xe2b6353511c5374b77aa67a1b1a9f2ede7dc1ea7",
        "gas": "0x24410",
        "value": "0x0",
        "input": "0xa0712d680000000000000000000000000000000000000000000000000000000000000001",
        "nonce": "0xbdc",
        "chainId": "0x14a34"
      },
      "additionalContracts": [],
      "isFixedGasLimit": false
    },
    {
      "hash": "0x1ecba9d823a7a212ad7874599125116808c4159c7d81193be7e8225500981e90",
      "transactionType": "CALL",
      "contractName": null,
      "contractAddress": "0xe2b6353511c5374b77aa67a1b1a9f2ede7dc1ea7",
      "function": "mint(uint256)",
      "arguments": [
        "1"
      ],
      "transaction": {
        "from": "0x8f088eca0009ad61fb94a6d7e9a5d7a087c08564",
        "to": "0xe2b6353511c5374b77aa67a1b1a9f2ede7dc1ea7",
        "gas": "0x24410",
        "value": "0x0",
        "input": "0xa0712d680000000000000000000000000000000000000000000000000000000000000001",
        "nonce": "0xbdd",
        "chainId": "0x14a34"
      },
      "additionalContracts": [],
      "isFixedGasLimit": false
    },
    {
      "hash": "0x3c36250d9dfd15b83ae7eea757e2e0692345b09c1857939278f0a554d658063b",
      "transactionType": "CALL",
      "contractName": null,
      "contractAddress": "0xe2b6353511c5374b77aa67a1b1a9f2ede7dc1ea7",
      "function": "mint(uint256)",
      "arguments": [
        "1"
      ],
      "transaction": {
        "from": "0x8f088eca0009ad61fb94a6d7e9a5d7a087c08564",
        "to": "0xe2b6353511c5374b77aa67a1b1a9f2ede7dc1ea7",
        "gas": "0x24410",
        "value": "0x0",
        "input": "0xa0712d680000000000000000000000000000000000000000000000000000000000000001",
        "nonce": "0xbde",
        "chainId": "0x14a34"
      },
      "additionalContracts": [],
      "isFixedGasLimit": false
    },
    {
      "hash": "0x2df7ffbbeaf32fe0b632d08ab49bcfffe8ecb45e7f5547182599a6866808170a",
      "transactionType": "CALL",
      "contractName": null,
      "contractAddress": "0xe2b6353511c5374b77aa67a1b1a9f2ede7dc1ea7",
      "function": "mint(uint256)",
      "arguments": [
        "1"
      ],
      "transaction": {
        "from": "0x8f088eca0009ad61fb94a6d7e9a5d7a087c08564",
        "to": "0xe2b6353511c5374b77aa67a1b1a9f2ede7dc1ea7",
        "gas": "0x24410",
        "value": "0x0",
        "input": "0xa0712d680000000000000000000000000000000000000000000000000000000000000001",
        "nonce": "0xbdf",
        "chainId": "0x14a34"
      },
      "additionalContracts": [],
      "isFixedGasLimit": false
    },
    {
      "hash": "0xd9a657a030fb78cc43dea3fba01acd854c579ef0e4fa72f74334b5352d376bd5",
      "transactionType": "CALL",
      "contractName": null,
      "contractAddress": "0xe2b6353511c5374b77aa67a1b1a9f2ede7dc1ea7",
      "function": "mint(uint256)",
      "arguments": [
        "1"
      ],
      "transaction": {
        "from": "0x8f088eca0009ad61fb94a6d7e9a5d7a087c08564",
        "to": "0xe2b6353511c5374b77aa67a1b1a9f2ede7dc1ea7",
        "gas": "0x24410",
        "value": "0x0",
        "input": "0xa0712d680000000000000000000000000000000000000000000000000000000000000001",
        "nonce": "0xbe0",
        "chainId": "0x14a34"
      },
      "additionalContracts": [],
      "isFixedGasLimit": false
    },
    {
      "hash": "0xc56af3ac5bd1fffc43a0154b258cc08b536af8665e227037282edcb62b332594",
      "transactionType": "CALL",
      "contractName": null,
      "contractAddress": "0xe2b6353511c5374b77aa67a1b1a9f2ede7dc1ea7",
      "function": "mint(uint256)",
      "arguments": [
        "1"
      ],
      "transaction": {
        "from": "0x8f088eca0009ad61fb94a6d7e9a5d7a087c08564",
        "to": "0xe2b6353511c5374b77aa67a1b1a9f2ede7dc1ea7",
        "gas": "0x24410",
        "value": "0x0",
        "input": "0xa0712d680000000000000000000000000000000000000000000000000000000000000001",
        "nonce": "0xbe1",
        "chainId": "0x14a34"
      },
      "additionalContracts": [],
      "isFixedGasLimit": false
    },
    {
      "hash": "0x28456ab878fd5ade957020d9552634e660cea81a2fff74c55752f680df61ad6b",
      "transactionType": "CALL",
      "contractName": null,
      "contractAddress": "0xe2b6353511c5374b77aa67a1b1a9f2ede7dc1ea7",
      "function": "mint(uint256)",
      "arguments": [
        "1"
      ],
      "transaction": {
        "from": "0x8f088eca0009ad61fb94a6d7e9a5d7a087c08564",
        "to": "0xe2b6353511c5374b77aa67a1b1a9f2ede7dc1ea7",
        "gas": "0x24410",
        "value": "0x0",
        "input": "0xa0712d680000000000000000000000000000000000000000000000000000000000000001",
        "nonce": "0xbe2",
        "chainId": "0x14a34"
      },
      "additionalContracts": [],
      "isFixedGasLimit": false
    },
    {
      "hash": "0xa35beec3d9301acf27050e1c2e294195f8339cc39ec6c0a1e43c63f73ef2063d",
      "transactionType": "CALL",
      "contractName": null,
      "contractAddress": "0xe2b6353511c5374b77aa67a1b1a9f2ede7dc1ea7",
      "function": "mint(uint256)",
      "arguments": [
        "1"
      ],
      "transaction": {
        "from": "0x8f088eca0009ad61fb94a6d7e9a5d7a087c08564",
        "to": "0xe2b6353511c5374b77aa67a1b1a9f2ede7dc1ea7",
        "gas": "0x24410",
        "value": "0x0",
        "input": "0xa0712d680000000000000000000000000000000000000000000000000000000000000001",
        "nonce": "0xbe3",
        "chainId": "0x14a34"
      },
      "additionalContracts": [],
      "isFixedGasLimit": false
    },
    {
      "hash": "0xd6fe7d2daef8f6afe3db1f06b7074c110d540bf83bac5aacfcab9aab0c859d68",
      "transactionType": "CALL",
      "contractName": null,
      "contractAddress": "0xe2b6353511c5374b77aa67a1b1a9f2ede7dc1ea7",
      "function": "mint(uint256)",
      "arguments": [
        "1"
      ],
      "transaction": {
        "from": "0x8f088eca0009ad61fb94a6d7e9a5d7a087c08564",
        "to": "0xe2b6353511c5374b77aa67a1b1a9f2ede7dc1ea7",
        "gas": "0x24410",
        "value": "0x0",
        "input": "0xa0712d680000000000000000000000000000000000000000000000000000000000000001",
        "nonce": "0xbe4",
        "chainId": "0x14a34"
      },
      "additionalContracts": [],
      "isFixedGasLimit": false
    },
    {
      "hash": "0xcc1037b0c347c4db69dd7306e9587ac84ab3fc681a951090273a2856a0c27e7b",
      "transactionType": "CALL",
      "contractName": null,
      "contractAddress": "0xe2b6353511c5374b77aa67a1b1a9f2ede7dc1ea7",
      "function": "mint(uint256)",
      "arguments": [
        "1"
      ],
      "transaction": {
        "from": "0x8f088eca0009ad61fb94a6d7e9a5d7a087c08564",
        "to": "0xe2b6353511c5374b77aa67a1b1a9f2ede7dc1ea7",
        "gas": "0x24410",
        "value": "0x0",
        "input": "0xa0712d680000000000000000000000000000000000000000000000000000000000000001",
        "nonce": "0xbe5",
        "chainId": "0x14a34"
      },
      "additionalContracts": [],
      "isFixedGasLimit": false
    },
    {
      "hash": "0xaeff07522a784ea5538d2e3afd09fa02fd30508d9eb630bd3f0f78ea8996292b",
      "transactionType": "CALL",
      "contractName": null,
      "contractAddress": "0xe2b6353511c5374b77aa67a1b1a9f2ede7dc1ea7",
      "function": "mint(uint256)",
      "arguments": [
        "1"
      ],
      "transaction": {
        "from": "0x8f088eca0009ad61fb94a6d7e9a5d7a087c08564",
        "to": "0xe2b6353511c5374b77aa67a1b1a9f2ede7dc1ea7",
        "gas": "0x24410",
        "value": "0x0",
        "input": "0xa0712d680000000000000000000000000000000000000000000000000000000000000001",
        "nonce": "0xbe6",
        "chainId": "0x14a34"
      },
      "additionalContracts": [],
      "isFixedGasLimit": false
    },
    {
      "hash": "0xe2370a3dc8fe903b76b99d23be3a6be1c0af03f7dfdb5e3ca9f4cb7a024bf648",
      "transactionType": "CALL",
      "contractName": null,
      "contractAddress": "0xe2b6353511c5374b77aa67a1b1a9f2ede7dc1ea7",
      "function": "mint(uint256)",
      "arguments": [
        "1"
      ],
      "transaction": {
        "from": "0x8f088eca0009ad61fb94a6d7e9a5d7a087c08564",
        "to": "0xe2b6353511c5374b77aa67a1b1a9f2ede7dc1ea7",
        "gas": "0x24410",
        "value": "0x0",
        "input": "0xa0712d680000000000000000000000000000000000000000000000000000000000000001",
        "nonce": "0xbe7",
        "chainId": "0x14a34"
      },
      "additionalContracts": [],
      "isFixedGasLimit": false
    },
    {
      "hash": "0xcc957f8d4daa65f645677c9d63d4bb5f1fae9b331f65913fd9e6ca2d0ffb7534",
      "transactionType": "CALL",
      "contractName": null,
      "contractAddress": "0xe2b6353511c5374b77aa67a1b1a9f2ede7dc1ea7",
      "function": "mint(uint256)",
      "arguments": [
        "1"
      ],
      "transaction": {
        "from": "0x8f088eca0009ad61fb94a6d7e9a5d7a087c08564",
        "to": "0xe2b6353511c5374b77aa67a1b1a9f2ede7dc1ea7",
        "gas": "0x24410",
        "value": "0x0",
        "input": "0xa0712d680000000000000000000000000000000000000000000000000000000000000001",
        "nonce": "0xbe8",
        "chainId": "0x14a34"
      },
      "additionalContracts": [],
      "isFixedGasLimit": false
    },
    {
      "hash": "0x19b5bb5c8c6bd858e5e789bf722b4c395b742853b3eabc3501d61830f577f054",
      "transactionType": "CALL",
      "contractName": null,
      "contractAddress": "0xe2b6353511c5374b77aa67a1b1a9f2ede7dc1ea7",
      "function": "mint(uint256)",
      "arguments": [
        "1"
      ],
      "transaction": {
        "from": "0x8f088eca0009ad61fb94a6d7e9a5d7a087c08564",
        "to": "0xe2b6353511c5374b77aa67a1b1a9f2ede7dc1ea7",
        "gas": "0x24410",
        "value": "0x0",
        "input": "0xa0712d680000000000000000000000000000000000000000000000000000000000000001",
        "nonce": "0xbe9",
        "chainId": "0x14a34"
      },
      "additionalContracts": [],
      "isFixedGasLimit": false
    },
    {
      "hash": "0x775591917c3eff3faf8ac4df7b1a73f214ef417ad93cdf2d279a7f0f882971fa",
      "transactionType": "CALL",
      "contractName": null,
      "contractAddress": "0xe2b6353511c5374b77aa67a1b1a9f2ede7dc1ea7",
      "function": "mint(uint256)",
      "arguments": [
        "1"
      ],
      "transaction": {
        "from": "0x8f088eca0009ad61fb94a6d7e9a5d7a087c08564",
        "to": "0xe2b6353511c5374b77aa67a1b1a9f2ede7dc1ea7",
        "gas": "0x24410",
        "value": "0x0",
        "input": "0xa0712d680000000000000000000000000000000000000000000000000000000000000001",
        "nonce": "0xbea",
        "chainId": "0x14a34"
      },
      "additionalContracts": [],
      "isFixedGasLimit": false
    },
    {
      "hash": "0xb2c2f9ebebe6c578e92e839260cce2407f2e7288defc1d8f2ed125626b23afa0",
      "transactionType": "CALL",
      "contractName": null,
      "contractAddress": "0xe2b6353511c5374b77aa67a1b1a9f2ede7dc1ea7",
      "function": "mint(uint256)",
      "arguments": [
        "1"
      ],
      "transaction": {
        "from": "0x8f088eca0009ad61fb94a6d7e9a5d7a087c08564",
        "to": "0xe2b6353511c5374b77aa67a1b1a9f2ede7dc1ea7",
        "gas": "0x24410",
        "value": "0x0",
        "input": "0xa0712d680000000000000000000000000000000000000000000000000000000000000001",
        "nonce": "0xbeb",
        "chainId": "0x14a34"
      },
      "additionalContracts": [],
      "isFixedGasLimit": false
    },
    {
      "hash": "0x69abe5412f514b439a7d3f59bd278a86076ba44a0fc7450a2fea93f2270c06b2",
      "transactionType": "CALL",
      "contractName": null,
      "contractAddress": "0xe2b6353511c5374b77aa67a1b1a9f2ede7dc1ea7",
      "function": "mint(uint256)",
      "arguments": [
        "1"
      ],
      "transaction": {
        "from": "0x8f088eca0009ad61fb94a6d7e9a5d7a087c08564",
        "to": "0xe2b6353511c5374b77aa67a1b1a9f2ede7dc1ea7",
        "gas": "0x24410",
        "value": "0x0",
        "input": "0xa0712d680000000000000000000000000000000000000000000000000000000000000001",
        "nonce": "0xbec",
        "chainId": "0x14a34"
      },
      "additionalContracts": [],
      "isFixedGasLimit": false
    }
  ],
  "receipts": [
    {
      "status": "0x1",
      "cumulativeGasUsed": "0x1413ef",
      "logs": [
        {
          "address": "0xe2b6353511c5374b77aa67a1b1a9f2ede7dc1ea7",
          "topics": [
            "0xddf252ad1be2c89b69c2b068fc378daa952ba7f163c4a11628f55a4df523b3ef",
            "0x0000000000000000000000000000000000000000000000000000000000000000",
            "0x0000000000000000000000008f088eca0009ad61fb94a6d7e9a5d7a087c08564",
            "0x00000000000000000000000000000000000000000000000000000000000f424d"
          ],
          "data": "0x",
          "blockHash": "0x23e4a38781451c2f6d474578385bffb402ab3726192ea9920fbed64552190fd3",
          "blockNumber": "0xa045f8",
          "transactionHash": "0x93096aa977727cd2c9a315bb8cb65a9b3c71c5ed35eacbf1b74391a5cbab1244",
          "transactionIndex": "0x6",
          "logIndex": "0x12",
          "removed": false
        }
      ],
      "logsBloom": "0x00000000000000000000000000000000000000000000000000000000000000000000000000100000000001000000000000000000000000000000820000000200000000000000000000000008000000000000000000000000000000000000000000000000020000000000000000000800000000008000000000000010000000000000000000000040000000000000000000000000000000000000000000000000000000000000000010000000000000000000000000000000000000000000200000000002000000000000000000000000000000000000000000000000000020000000000000000000000000000000000000000000000000000000000000000000",
      "type": "0x2",
      "transactionHash": "0x93096aa977727cd2c9a315bb8cb65a9b3c71c5ed35eacbf1b74391a5cbab1244",
      "transactionIndex": "0x6",
      "blockHash": "0x23e4a38781451c2f6d474578385bffb402ab3726192ea9920fbed64552190fd3",
      "blockNumber": "0xa045f8",
      "gasUsed": "0x1a3f5",
      "effectiveGasPrice": "0x187d3",
      "from": "0x8f088eca0009ad61fb94a6d7e9a5d7a087c08564",
      "to": "0xe2b6353511c5374b77aa67a1b1a9f2ede7dc1ea7",
      "contractAddress": null,
      "l1Fee": "0x19455d",
      "l1GasPrice": "0xb79a8",
      "l1GasUsed": "0x7d0"
    },
    {
      "status": "0x1",
      "cumulativeGasUsed": "0x15b7e4",
      "logs": [
        {
          "address": "0xe2b6353511c5374b77aa67a1b1a9f2ede7dc1ea7",
          "topics": [
            "0xddf252ad1be2c89b69c2b068fc378daa952ba7f163c4a11628f55a4df523b3ef",
            "0x0000000000000000000000000000000000000000000000000000000000000000",
            "0x0000000000000000000000008f088eca0009ad61fb94a6d7e9a5d7a087c08564",
            "0x00000000000000000000000000000000000000000000000000000000000f424e"
          ],
          "data": "0x",
          "blockHash": "0x23e4a38781451c2f6d474578385bffb402ab3726192ea9920fbed64552190fd3",
          "blockNumber": "0xa045f8",
          "transactionHash": "0x0d0fc5f4dc4b635f9fccb1c401799cd543426ae324b7ada83cdce4c406b4303a",
          "transactionIndex": "0x7",
          "logIndex": "0x13",
          "removed": false
        }
      ],
      "logsBloom": "0x00000000000000000000000000000000000000000000000000000000000000000000000000100000000081000000000000000000000000000000020000000200000000000000000000000008000000000000000000000800000000000000000000000000020000000000000000000800000000008000000000000010000000000000000000000000000000000000000000000000000000000000000000000000000000000000000010000000000000000000000000000000000000000000000000000002000000000000000000000000000000000000000000000000000020000000000000000000000001000000000000000000000000000000000000000000",
      "type": "0x2",
      "transactionHash": "0x0d0fc5f4dc4b635f9fccb1c401799cd543426ae324b7ada83cdce4c406b4303a",
      "transactionIndex": "0x7",
      "blockHash": "0x23e4a38781451c2f6d474578385bffb402ab3726192ea9920fbed64552190fd3",
      "blockNumber": "0xa045f8",
      "gasUsed": "0x1a3f5",
      "effectiveGasPrice": "0x187d3",
      "from": "0x8f088eca0009ad61fb94a6d7e9a5d7a087c08564",
      "to": "0xe2b6353511c5374b77aa67a1b1a9f2ede7dc1ea7",
      "contractAddress": null,
      "l1Fee": "0x19455d",
      "l1GasPrice": "0xb79a8",
      "l1GasUsed": "0x7d0"
    },
    {
      "status": "0x1",
      "cumulativeGasUsed": "0x175bd9",
      "logs": [
        {
          "address": "0xe2b6353511c5374b77aa67a1b1a9f2ede7dc1ea7",
          "topics": [
            "0xddf252ad1be2c89b69c2b068fc378daa952ba7f163c4a11628f55a4df523b3ef",
            "0x0000000000000000000000000000000000000000000000000000000000000000",
            "0x0000000000000000000000008f088eca0009ad61fb94a6d7e9a5d7a087c08564",
            "0x00000000000000000000000000000000000000000000000000000000000f424f"
          ],
          "data": "0x",
          "blockHash": "0x23e4a38781451c2f6d474578385bffb402ab3726192ea9920fbed64552190fd3",
          "blockNumber": "0xa045f8",
          "transactionHash": "0xc1618093cb4d1d130b833821196380ab1348ce0b6f32799eed6daa984cabb49e",
          "transactionIndex": "0x8",
          "logIndex": "0x14",
          "removed": false
        }
      ],
      "logsBloom": "0x00000000000000000000001000000000000000000000000000000000000000000000000000100000000001000000010000000000000000000000020000000200000000000000000000000008000000000000000000000000000000000000000000000000020000000000000000000800000000008000000000000010000000000000000000000000000000000000000000000000000000000000000000000000000000000000000010000000000000000000000000000000000000000000000000000002000000000000000000010000000000000000000000000000000020000000000000000000000000000000000000000000000000000000000000000000",
      "type": "0x2",
      "transactionHash": "0xc1618093cb4d1d130b833821196380ab1348ce0b6f32799eed6daa984cabb49e",
      "transactionIndex": "0x8",
      "blockHash": "0x23e4a38781451c2f6d474578385bffb402ab3726192ea9920fbed64552190fd3",
      "blockNumber": "0xa045f8",
      "gasUsed": "0x1a3f5",
      "effectiveGasPrice": "0x187d3",
      "from": "0x8f088eca0009ad61fb94a6d7e9a5d7a087c08564",
      "to": "0xe2b6353511c5374b77aa67a1b1a9f2ede7dc1ea7",
      "contractAddress": null,
      "l1Fee": "0x196c2d",
      "l1GasPrice": "0xb79a8",
      "l1GasUsed": "0x7dc"
    },
    {
      "status": "0x1",
      "cumulativeGasUsed": "0x18ffce",
      "logs": [
        {
          "address": "0xe2b6353511c5374b77aa67a1b1a9f2ede7dc1ea7",
          "topics": [
            "0xddf252ad1be2c89b69c2b068fc378daa952ba7f163c4a11628f55a4df523b3ef",
            "0x0000000000000000000000000000000000000000000000000000000000000000",
            "0x0000000000000000000000008f088eca0009ad61fb94a6d7e9a5d7a087c08564",
            "0x00000000000000000000000000000000000000000000000000000000000f4250"
          ],
          "data": "0x",
          "blockHash": "0x23e4a38781451c2f6d474578385bffb402ab3726192ea9920fbed64552190fd3",
          "blockNumber": "0xa045f8",
          "transactionHash": "0x5440403e2d47831958ef695eda5458e3b01f6d2f8dcfd597841828c3d7b8822c",
          "transactionIndex": "0x9",
          "logIndex": "0x15",
          "removed": false
        }
      ],
      "logsBloom": "0x00000000000000000000000000000000000000000000000000000000000000000000000000100000000001000000000000000000000000000000020000000200000000000000000000000008000000000000000800000000000000000000000004000000020000000000000000000800000000008000000000000010000000000000000000000000000000000000000000000000000000000000000000000000000000000000000010000000000000000000000000000000000000000000000000000002000000000000000000000000000000000000000000000000000020000000000000000000000000000000000000000000000000000000000020000000",
      "type": "0x2",
      "transactionHash": "0x5440403e2d47831958ef695eda5458e3b01f6d2f8dcfd597841828c3d7b8822c",
      "transactionIndex": "0x9",
      "blockHash": "0x23e4a38781451c2f6d474578385bffb402ab3726192ea9920fbed64552190fd3",
      "blockNumber": "0xa045f8",
      "gasUsed": "0x1a3f5",
      "effectiveGasPrice": "0x187d3",
      "from": "0x8f088eca0009ad61fb94a6d7e9a5d7a087c08564",
      "to": "0xe2b6353511c5374b77aa67a1b1a9f2ede7dc1ea7",
      "contractAddress": null,
      "l1Fee": "0x196c2d",
      "l1GasPrice": "0xb79a8",
      "l1GasUsed": "0x7dc"
    },
    {
      "status": "0x1",
      "cumulativeGasUsed": "0x1aa3c3",
      "logs": [
        {
          "address": "0xe2b6353511c5374b77aa67a1b1a9f2ede7dc1ea7",
          "topics": [
            "0xddf252ad1be2c89b69c2b068fc378daa952ba7f163c4a11628f55a4df523b3ef",
            "0x0000000000000000000000000000000000000000000000000000000000000000",
            "0x0000000000000000000000008f088eca0009ad61fb94a6d7e9a5d7a087c08564",
            "0x00000000000000000000000000000000000000000000000000000000000f4251"
          ],
          "data": "0x",
          "blockHash": "0x23e4a38781451c2f6d474578385bffb402ab3726192ea9920fbed64552190fd3",
          "blockNumber": "0xa045f8",
          "transactionHash": "0x0ed864146fbfd6613b3b42079efab7112f080f3c924fdd677ee1222070e79872",
          "transactionIndex": "0xa",
          "logIndex": "0x16",
          "removed": false
        }
      ],
      "logsBloom": "0x00000000000000000000000000000000000000000000000000000000000000000000000000100000000001000000000000000000000000000000020000000a00000000000000000000000008000000000000000000000000000000000000000000000000020000000000000000000800000000008000000000000010000000000000000000000000000000000000000000000000000000000000000000000000000000000000000010000000000000000000000000000000000000000000000800000002000000000000000000000000000000000000000000000000000020000000000000000000000000000080000000000000000000000000000000000000",
      "type": "0x2",
      "transactionHash": "0x0ed864146fbfd6613b3b42079efab7112f080f3c924fdd677ee1222070e79872",
      "transactionIndex": "0xa",
      "blockHash": "0x23e4a38781451c2f6d474578385bffb402ab3726192ea9920fbed64552190fd3",
      "blockNumber": "0xa045f8",
      "gasUsed": "0x1a3f5",
      "effectiveGasPrice": "0x187d3",
      "from": "0x8f088eca0009ad61fb94a6d7e9a5d7a087c08564",
      "to": "0xe2b6353511c5374b77aa67a1b1a9f2ede7dc1ea7",
      "contractAddress": null,
      "l1Fee": "0x19455d",
      "l1GasPrice": "0xb79a8",
      "l1GasUsed": "0x7d0"
    },
    {
      "status": "0x1",
      "cumulativeGasUsed": "0x1c47b8",
      "logs": [
        {
          "address": "0xe2b6353511c5374b77aa67a1b1a9f2ede7dc1ea7",
          "topics": [
            "0xddf252ad1be2c89b69c2b068fc378daa952ba7f163c4a11628f55a4df523b3ef",
            "0x0000000000000000000000000000000000000000000000000000000000000000",
            "0x0000000000000000000000008f088eca0009ad61fb94a6d7e9a5d7a087c08564",
            "0x00000000000000000000000000000000000000000000000000000000000f4252"
          ],
          "data": "0x",
          "blockHash": "0x23e4a38781451c2f6d474578385bffb402ab3726192ea9920fbed64552190fd3",
          "blockNumber": "0xa045f8",
          "transactionHash": "0x081c1083e8510f665ad0ece4be8cfc61884b9dc0b73a98d11538600e138ce807",
          "transactionIndex": "0xb",
          "logIndex": "0x17",
          "removed": false
        }
      ],
      "logsBloom": "0x00000000000000000000000000000000000000000000000000000000000000000000000000100020000001000000000000000000000000000000020000000200000000000000000000000008000000000000000000000000000000000000000000000000020000000000000000000800000000008000000000000010000000000000000000000000000000000000000000000000000000000000000000400000000000000000000010000000000000000000000000000000000100000000000000000002000000000000000000000000000000000000000000000000000020000000000000000000000000000000000000000000000000000000000000000000",
      "type": "0x2",
      "transactionHash": "0x081c1083e8510f665ad0ece4be8cfc61884b9dc0b73a98d11538600e138ce807",
      "transactionIndex": "0xb",
      "blockHash": "0x23e4a38781451c2f6d474578385bffb402ab3726192ea9920fbed64552190fd3",
      "blockNumber": "0xa045f8",
      "gasUsed": "0x1a3f5",
      "effectiveGasPrice": "0x187d3",
      "from": "0x8f088eca0009ad61fb94a6d7e9a5d7a087c08564",
      "to": "0xe2b6353511c5374b77aa67a1b1a9f2ede7dc1ea7",
      "contractAddress": null,
      "l1Fee": "0x196c2d",
      "l1GasPrice": "0xb79a8",
      "l1GasUsed": "0x7dc"
    },
    {
      "status": "0x1",
      "cumulativeGasUsed": "0x1debad",
      "logs": [
        {
          "address": "0xe2b6353511c5374b77aa67a1b1a9f2ede7dc1ea7",
          "topics": [
            "0xddf252ad1be2c89b69c2b068fc378daa952ba7f163c4a11628f55a4df523b3ef",
            "0x0000000000000000000000000000000000000000000000000000000000000000",
            "0x0000000000000000000000008f088eca0009ad61fb94a6d7e9a5d7a087c08564",
            "0x00000000000000000000000000000000000000000000000000000000000f4253"
          ],
          "data": "0x",
          "blockHash": "0x23e4a38781451c2f6d474578385bffb402ab3726192ea9920fbed64552190fd3",
          "blockNumber": "0xa045f8",
          "transactionHash": "0x6a639656cea6e75f8ed27a06063485e567828087803213416e59c43b69267047",
          "transactionIndex": "0xc",
          "logIndex": "0x18",
          "removed": false
        }
      ],
      "logsBloom": "0x00000000000000000000000000000000000000000000000000000000000000000000000000100000000001000000000000000000000000000000020000000200000000000000000000000008000000000004000000000000000000000000000000000000020000000000000000000800000000008000000000000010000000000000000000000000000000000000000000000000000000000000000000000000000000000000000010000000000000000000000000000000000000000000000000000002000000000000000000000000008000000000000000000000000020000000000000000000000000000000400000000000000000000000000000000000",
      "type": "0x2",
      "transactionHash": "0x6a639656cea6e75f8ed27a06063485e567828087803213416e59c43b69267047",
      "transactionIndex": "0xc",
      "blockHash": "0x23e4a38781451c2f6d474578385bffb402ab3726192ea9920fbed64552190fd3",
      "blockNumber": "0xa045f8",
      "gasUsed": "0x1a3f5",
      "effectiveGasPrice": "0x187d3",
      "from": "0x8f088eca0009ad61fb94a6d7e9a5d7a087c08564",
      "to": "0xe2b6353511c5374b77aa67a1b1a9f2ede7dc1ea7",
      "contractAddress": null,
      "l1Fee": "0x196c2d",
      "l1GasPrice": "0xb79a8",
      "l1GasUsed": "0x7dc"
    },
    {
      "status": "0x1",
      "cumulativeGasUsed": "0x1f8fa2",
      "logs": [
        {
          "address": "0xe2b6353511c5374b77aa67a1b1a9f2ede7dc1ea7",
          "topics": [
            "0xddf252ad1be2c89b69c2b068fc378daa952ba7f163c4a11628f55a4df523b3ef",
            "0x0000000000000000000000000000000000000000000000000000000000000000",
            "0x0000000000000000000000008f088eca0009ad61fb94a6d7e9a5d7a087c08564",
            "0x00000000000000000000000000000000000000000000000000000000000f4254"
          ],
          "data": "0x",
          "blockHash": "0x23e4a38781451c2f6d474578385bffb402ab3726192ea9920fbed64552190fd3",
          "blockNumber": "0xa045f8",
          "transactionHash": "0x70548a85a64f382520ff40ed251b60f93209458dc6fae851556bf7e2e71cca66",
          "transactionIndex": "0xd",
          "logIndex": "0x19",
          "removed": false
        }
      ],
      "logsBloom": "0x00000000000000000000000000000000000000000000000000000000000000000000000000100000000001000000000008000000000000005000020000000200000000000000000000000008000000000000000000000000000000000000000000000000020000000000000000000800000000008000000000000010000000000000000000000000000000000000000000000000000000000000000000000000000000000000000010000000000000000000000000000000000000000000000000000002000000000000000000000000000000000000000000000000000020000000000000000000000000000000000000000000000000000000000000000000",
      "type": "0x2",
      "transactionHash": "0x70548a85a64f382520ff40ed251b60f93209458dc6fae851556bf7e2e71cca66",
      "transactionIndex": "0xd",
      "blockHash": "0x23e4a38781451c2f6d474578385bffb402ab3726192ea9920fbed64552190fd3",
      "blockNumber": "0xa045f8",
      "gasUsed": "0x1a3f5",
      "effectiveGasPrice": "0x187d3",
      "from": "0x8f088eca0009ad61fb94a6d7e9a5d7a087c08564",
      "to": "0xe2b6353511c5374b77aa67a1b1a9f2ede7dc1ea7",
      "contractAddress": null,
      "l1Fee": "0x196c2d",
      "l1GasPrice": "0xb79a8",
      "l1GasUsed": "0x7dc"
    },
    {
      "status": "0x1",
      "cumulativeGasUsed": "0x213397",
      "logs": [
        {
          "address": "0xe2b6353511c5374b77aa67a1b1a9f2ede7dc1ea7",
          "topics": [
            "0xddf252ad1be2c89b69c2b068fc378daa952ba7f163c4a11628f55a4df523b3ef",
            "0x0000000000000000000000000000000000000000000000000000000000000000",
            "0x0000000000000000000000008f088eca0009ad61fb94a6d7e9a5d7a087c08564",
            "0x00000000000000000000000000000000000000000000000000000000000f4255"
          ],
          "data": "0x",
          "blockHash": "0x23e4a38781451c2f6d474578385bffb402ab3726192ea9920fbed64552190fd3",
          "blockNumber": "0xa045f8",
          "transactionHash": "0x4d5a08a26107537c296116005cc3090e42449b007faeed0613b04baa289f745a",
          "transactionIndex": "0xe",
          "logIndex": "0x1a",
          "removed": false
        }
      ],
      "logsBloom": "0x00000000000000000000000000000000000000000000000000000200000000000000000000100000000001000000000000000000000000000000020000000200000000000000000000000008000000000000000000000000000000000000000000000000020000000100000000000800000000008000000000000010000000000000000000000000000000000000000000000000000000000000000000000000000000000000000010000000000000000000000000000000000000000000000000800002000000000000000000000000000000000000000000000000000020000000000000000000000000000000000000000000000000000000000000000000",
      "type": "0x2",
      "transactionHash": "0x4d5a08a26107537c296116005cc3090e42449b007faeed0613b04baa289f745a",
      "transactionIndex": "0xe",
      "blockHash": "0x23e4a38781451c2f6d474578385bffb402ab3726192ea9920fbed64552190fd3",
      "blockNumber": "0xa045f8",
      "gasUsed": "0x1a3f5",
      "effectiveGasPrice": "0x187d3",
      "from": "0x8f088eca0009ad61fb94a6d7e9a5d7a087c08564",
      "to": "0xe2b6353511c5374b77aa67a1b1a9f2ede7dc1ea7",
      "contractAddress": null,
      "l1Fee": "0x196c2d",
      "l1GasPrice": "0xb79a8",
      "l1GasUsed": "0x7dc"
    },
    {
      "status": "0x1",
      "cumulativeGasUsed": "0x22d78c",
      "logs": [
        {
          "address": "0xe2b6353511c5374b77aa67a1b1a9f2ede7dc1ea7",
          "topics": [
            "0xddf252ad1be2c89b69c2b068fc378daa952ba7f163c4a11628f55a4df523b3ef",
            "0x0000000000000000000000000000000000000000000000000000000000000000",
            "0x0000000000000000000000008f088eca0009ad61fb94a6d7e9a5d7a087c08564",
            "0x00000000000000000000000000000000000000000000000000000000000f4256"
          ],
          "data": "0x",
          "blockHash": "0x23e4a38781451c2f6d474578385bffb402ab3726192ea9920fbed64552190fd3",
          "blockNumber": "0xa045f8",
          "transactionHash": "0xf6b97a16ff2fff2c34676b680986d811a85124bbf11acde47162a4aaab3960b1",
          "transactionIndex": "0xf",
          "logIndex": "0x1b",
          "removed": false
        }
      ],
      "logsBloom": "0x00000000000000000000000000000000000000000000000000000000000000000000000000100040000001000000000000000000000000000000020000000200000000000000000000000008000000000000000000000000000000000000000000000000020000000000000000000800000000008000000000000010000000000000000000000020000000000000000000000000000000000000000000000000000000000000000010000000000000000000000000000000000000000000000000000002000000000000000000000000000000000000010000000000000020000000000000000000000000000000000000000000000000000000000000000000",
      "type": "0x2",
      "transactionHash": "0xf6b97a16ff2fff2c34676b680986d811a85124bbf11acde47162a4aaab3960b1",
      "transactionIndex": "0xf",
      "blockHash": "0x23e4a38781451c2f6d474578385bffb402ab3726192ea9920fbed64552190fd3",
      "blockNumber": "0xa045f8",
      "gasUsed": "0x1a3f5",
      "effectiveGasPrice": "0x187d3",
      "from": "0x8f088eca0009ad61fb94a6d7e9a5d7a087c08564",
      "to": "0xe2b6353511c5374b77aa67a1b1a9f2ede7dc1ea7",
      "contractAddress": null,
      "l1Fee": "0x196c2d",
      "l1GasPrice": "0xb79a8",
      "l1GasUsed": "0x7dc"
    },
    {
      "status": "0x1",
      "cumulativeGasUsed": "0x247b81",
      "logs": [
        {
          "address": "0xe2b6353511c5374b77aa67a1b1a9f2ede7dc1ea7",
          "topics": [
            "0xddf252ad1be2c89b69c2b068fc378daa952ba7f163c4a11628f55a4df523b3ef",
            "0x0000000000000000000000000000000000000000000000000000000000000000",
            "0x0000000000000000000000008f088eca0009ad61fb94a6d7e9a5d7a087c08564",
            "0x00000000000000000000000000000000000000000000000000000000000f4257"
          ],
          "data": "0x",
          "blockHash": "0x23e4a38781451c2f6d474578385bffb402ab3726192ea9920fbed64552190fd3",
          "blockNumber": "0xa045f8",
          "transactionHash": "0x61c0c0e6d4db15617ebbc010c321698aa08038431a676a3187e4712c4893c28f",
          "transactionIndex": "0x10",
          "logIndex": "0x1c",
          "removed": false
        }
      ],
      "logsBloom": "0x00000000000000000000000000000000000000000000000000000000000000000000000000100000000001000000000000000000000000004000020000000200000000000000000000000008000000000000000000000000000000000000000000000000020000000000000000000800008000008000000000000010000000000000000000000000000000000000000000000000000000000000000000000000000000000000000010000000000000000000000000000000000000000000001000000002000000000000000000000000000000000000000000000000000020000000000000000000000000000000000000000000000000000000000000000000",
      "type": "0x2",
      "transactionHash": "0x61c0c0e6d4db15617ebbc010c321698aa08038431a676a3187e4712c4893c28f",
      "transactionIndex": "0x10",
      "blockHash": "0x23e4a38781451c2f6d474578385bffb402ab3726192ea9920fbed64552190fd3",
      "blockNumber": "0xa045f8",
      "gasUsed": "0x1a3f5",
      "effectiveGasPrice": "0x187d3",
      "from": "0x8f088eca0009ad61fb94a6d7e9a5d7a087c08564",
      "to": "0xe2b6353511c5374b77aa67a1b1a9f2ede7dc1ea7",
      "contractAddress": null,
      "l1Fee": "0x196c2d",
      "l1GasPrice": "0xb79a8",
      "l1GasUsed": "0x7dc"
    },
    {
      "status": "0x1",
      "cumulativeGasUsed": "0x261f76",
      "logs": [
        {
          "address": "0xe2b6353511c5374b77aa67a1b1a9f2ede7dc1ea7",
          "topics": [
            "0xddf252ad1be2c89b69c2b068fc378daa952ba7f163c4a11628f55a4df523b3ef",
            "0x0000000000000000000000000000000000000000000000000000000000000000",
            "0x0000000000000000000000008f088eca0009ad61fb94a6d7e9a5d7a087c08564",
            "0x00000000000000000000000000000000000000000000000000000000000f4258"
          ],
          "data": "0x",
          "blockHash": "0x23e4a38781451c2f6d474578385bffb402ab3726192ea9920fbed64552190fd3",
          "blockNumber": "0xa045f8",
          "transactionHash": "0xdcac3835ed2bd53cf2212a5b03b8a50eb505e2bafe6f07cf3a17721a30f0ac71",
          "transactionIndex": "0x11",
          "logIndex": "0x1d",
          "removed": false
        }
      ],
      "logsBloom": "0x00000000000000000000000000000000000000000000000000000000000000000000000000100000000001000000000000000000004000000000020000000200000000000000000000000008000000000000000000000000000000000000000000000000020000000000000000000800000000008000080000000010000000000000000000000000000000000000000000000000000000000000000000000000000000000000000010000000000000000000000000000000000000000000000000000002000000000000000000000004000000000000000000000000000020000000000000000000000000000000000000000000000000000000000000000000",
      "type": "0x2",
      "transactionHash": "0xdcac3835ed2bd53cf2212a5b03b8a50eb505e2bafe6f07cf3a17721a30f0ac71",
      "transactionIndex": "0x11",
      "blockHash": "0x23e4a38781451c2f6d474578385bffb402ab3726192ea9920fbed64552190fd3",
      "blockNumber": "0xa045f8",
      "gasUsed": "0x1a3f5",
      "effectiveGasPrice": "0x187d3",
      "from": "0x8f088eca0009ad61fb94a6d7e9a5d7a087c08564",
      "to": "0xe2b6353511c5374b77aa67a1b1a9f2ede7dc1ea7",
      "contractAddress": null,
      "l1Fee": "0x196c2d",
      "l1GasPrice": "0xb79a8",
      "l1GasUsed": "0x7dc"
    },
    {
      "status": "0x1",
      "cumulativeGasUsed": "0x27c36b",
      "logs": [
        {
          "address": "0xe2b6353511c5374b77aa67a1b1a9f2ede7dc1ea7",
          "topics": [
            "0xddf252ad1be2c89b69c2b068fc378daa952ba7f163c4a11628f55a4df523b3ef",
            "0x0000000000000000000000000000000000000000000000000000000000000000",
            "0x0000000000000000000000008f088eca0009ad61fb94a6d7e9a5d7a087c08564",
            "0x00000000000000000000000000000000000000000000000000000000000f4259"
          ],
          "data": "0x",
          "blockHash": "0x23e4a38781451c2f6d474578385bffb402ab3726192ea9920fbed64552190fd3",
          "blockNumber": "0xa045f8",
          "transactionHash": "0x0ba10f5ce40f8f8fe5f40ae8555085f8ffb89fae0b8a6347030257ab25de65c4",
          "transactionIndex": "0x12",
          "logIndex": "0x1e",
          "removed": false
        }
      ],
      "logsBloom": "0x00000000000000000000000000000000000000000000000000000000000000000000000000100000000001000000000000000000000000000000020000000200000000000000000000000008000000000000000000000000000000000000000000000000020000000000000000000800000000008000000000000010000000000000000000000000000000080000000000000000000000000000000000000000000000000000000010000000000000000080000000000000000000000000000000000002000000000000000000000000000000000000000000000000000020040000000000000000000000000000000000000000000000000000000000000000",
      "type": "0x2",
      "transactionHash": "0x0ba10f5ce40f8f8fe5f40ae8555085f8ffb89fae0b8a6347030257ab25de65c4",
      "transactionIndex": "0x12",
      "blockHash": "0x23e4a38781451c2f6d474578385bffb402ab3726192ea9920fbed64552190fd3",
      "blockNumber": "0xa045f8",
      "gasUsed": "0x1a3f5",
      "effectiveGasPrice": "0x187d3",
      "from": "0x8f088eca0009ad61fb94a6d7e9a5d7a087c08564",
      "to": "0xe2b6353511c5374b77aa67a1b1a9f2ede7dc1ea7",
      "contractAddress": null,
      "l1Fee": "0x196c2d",
      "l1GasPrice": "0xb79a8",
      "l1GasUsed": "0x7dc"
    },
    {
      "status": "0x1",
      "cumulativeGasUsed": "0x296760",
      "logs": [
        {
          "address": "0xe2b6353511c5374b77aa67a1b1a9f2ede7dc1ea7",
          "topics": [
            "0xddf252ad1be2c89b69c2b068fc378daa952ba7f163c4a11628f55a4df523b3ef",
            "0x0000000000000000000000000000000000000000000000000000000000000000",
            "0x0000000000000000000000008f088eca0009ad61fb94a6d7e9a5d7a087c08564",
            "0x00000000000000000000000000000000000000000000000000000000000f425a"
          ],
          "data": "0x",
          "blockHash": "0x23e4a38781451c2f6d474578385bffb402ab3726192ea9920fbed64552190fd3",
          "blockNumber": "0xa045f8",
          "transactionHash": "0x72050e197eec10021f2731627961a3844769afc2cfce96c5aaec8d87b32ab88f",
          "transactionIndex": "0x13",
          "logIndex": "0x1f",
          "removed": false
        }
      ],
      "logsBloom": "0x02000000000000000000000000000000000000000000000004000000000000000000100000100000000001000000000000000000000000000000020000000200000000000000000000000008000000000000000000000000000000000000000000000000020000000000000000000800000000008000000000000010000000000000000000000000000000000000000000000000000000000000000000000000000000000000000010000000000000000000000000000000000000000000000000000002000000000000000000000000000000000000000000000000000020000000000000000000000000000000000000000000000000000000000000000000",
      "type": "0x2",
      "transactionHash": "0x72050e197eec10021f2731627961a3844769afc2cfce96c5aaec8d87b32ab88f",
      "transactionIndex": "0x13",
      "blockHash": "0x23e4a38781451c2f6d474578385bffb402ab3726192ea9920fbed64552190fd3",
      "blockNumber": "0xa045f8",
      "gasUsed": "0x1a3f5",
      "effectiveGasPrice": "0x187d3",
      "from": "0x8f088eca0009ad61fb94a6d7e9a5d7a087c08564",
      "to": "0xe2b6353511c5374b77aa67a1b1a9f2ede7dc1ea7",
      "contractAddress": null,
      "l1Fee": "0x196c2d",
      "l1GasPrice": "0xb79a8",
      "l1GasUsed": "0x7dc"
    },
    {
      "status": "0x1",
      "cumulativeGasUsed": "0x2b0b55",
      "logs": [
        {
          "address": "0xe2b6353511c5374b77aa67a1b1a9f2ede7dc1ea7",
          "topics": [
            "0xddf252ad1be2c89b69c2b068fc378daa952ba7f163c4a11628f55a4df523b3ef",
            "0x0000000000000000000000000000000000000000000000000000000000000000",
            "0x0000000000000000000000008f088eca0009ad61fb94a6d7e9a5d7a087c08564",
            "0x00000000000000000000000000000000000000000000000000000000000f425b"
          ],
          "data": "0x",
          "blockHash": "0x23e4a38781451c2f6d474578385bffb402ab3726192ea9920fbed64552190fd3",
          "blockNumber": "0xa045f8",
          "transactionHash": "0x1ecba9d823a7a212ad7874599125116808c4159c7d81193be7e8225500981e90",
          "transactionIndex": "0x14",
          "logIndex": "0x20",
          "removed": false
        }
      ],
      "logsBloom": "0x00000000000000000000000000000000000000000000000000000000000000000000000000100000000001000000000000000000000000000000020000000200000000000000000000000008000000000000000000000000000000000000000000000000020000000000000000000800000000008000000000000010000000000000000000000000000000000000000000000000000200000000000000000000000000000000000010000000000000000000000000000000000008000000000000000002000000000000000000000000000000000000000000000000000020000000000000000000000000000000000000000000000000000000002000000000",
      "type": "0x2",
      "transactionHash": "0x1ecba9d823a7a212ad7874599125116808c4159c7d81193be7e8225500981e90",
      "transactionIndex": "0x14",
      "blockHash": "0x23e4a38781451c2f6d474578385bffb402ab3726192ea9920fbed64552190fd3",
      "blockNumber": "0xa045f8",
      "gasUsed": "0x1a3f5",
      "effectiveGasPrice": "0x187d3",
      "from": "0x8f088eca0009ad61fb94a6d7e9a5d7a087c08564",
      "to": "0xe2b6353511c5374b77aa67a1b1a9f2ede7dc1ea7",
      "contractAddress": null,
      "l1Fee": "0x19455d",
      "l1GasPrice": "0xb79a8",
      "l1GasUsed": "0x7d0"
    },
    {
      "status": "0x1",
      "cumulativeGasUsed": "0x2caf4a",
      "logs": [
        {
          "address": "0xe2b6353511c5374b77aa67a1b1a9f2ede7dc1ea7",
          "topics": [
            "0xddf252ad1be2c89b69c2b068fc378daa952ba7f163c4a11628f55a4df523b3ef",
            "0x0000000000000000000000000000000000000000000000000000000000000000",
            "0x0000000000000000000000008f088eca0009ad61fb94a6d7e9a5d7a087c08564",
            "0x00000000000000000000000000000000000000000000000000000000000f425c"
          ],
          "data": "0x",
          "blockHash": "0x23e4a38781451c2f6d474578385bffb402ab3726192ea9920fbed64552190fd3",
          "blockNumber": "0xa045f8",
          "transactionHash": "0x3c36250d9dfd15b83ae7eea757e2e0692345b09c1857939278f0a554d658063b",
          "transactionIndex": "0x15",
          "logIndex": "0x21",
          "removed": false
        }
      ],
      "logsBloom": "0x00000000000000000000000000000000000000000000000000000000000800000000000000100000000001000000000000000000000000000000020000000200000000000000000000000008000000000000000000000000000000000000000000000000020000000000000000000800000100008000000000000010000000000000000000000000000000000000000000000000000000000000000000000000000000000000000010000000000000000000000000000000000000000000000000000002000000000000000000000000000000000000000000000000200020000000000000000000000000000000000000000000000000000000000000000000",
      "type": "0x2",
      "transactionHash": "0x3c36250d9dfd15b83ae7eea757e2e0692345b09c1857939278f0a554d658063b",
      "transactionIndex": "0x15",
      "blockHash": "0x23e4a38781451c2f6d474578385bffb402ab3726192ea9920fbed64552190fd3",
      "blockNumber": "0xa045f8",
      "gasUsed": "0x1a3f5",
      "effectiveGasPrice": "0x187d3",
      "from": "0x8f088eca0009ad61fb94a6d7e9a5d7a087c08564",
      "to": "0xe2b6353511c5374b77aa67a1b1a9f2ede7dc1ea7",
      "contractAddress": null,
      "l1Fee": "0x196c2d",
      "l1GasPrice": "0xb79a8",
      "l1GasUsed": "0x7dc"
    },
    {
      "status": "0x1",
      "cumulativeGasUsed": "0x2e533f",
      "logs": [
        {
          "address": "0xe2b6353511c5374b77aa67a1b1a9f2ede7dc1ea7",
          "topics": [
            "0xddf252ad1be2c89b69c2b068fc378daa952ba7f163c4a11628f55a4df523b3ef",
            "0x0000000000000000000000000000000000000000000000000000000000000000",
            "0x0000000000000000000000008f088eca0009ad61fb94a6d7e9a5d7a087c08564",
            "0x00000000000000000000000000000000000000000000000000000000000f425d"
          ],
          "data": "0x",
          "blockHash": "0x23e4a38781451c2f6d474578385bffb402ab3726192ea9920fbed64552190fd3",
          "blockNumber": "0xa045f8",
          "transactionHash": "0x2df7ffbbeaf32fe0b632d08ab49bcfffe8ecb45e7f5547182599a6866808170a",
          "transactionIndex": "0x16",
          "logIndex": "0x22",
          "removed": false
        }
      ],
      "logsBloom": "0x00000000000000000000000000000000000000000000000000000000000000000000000000100000000001000000000000000000000000000000020000000200000000000000000000000008000000000000000000000000000000000000000000000000020000000000000000000800000000008000000000000010000000000000000000000000000000000000040000000000000000000000000000000000000000000000000010000000004000000000000000000000000000000000000000000002000000000000000004000000000000000000000000000000000020000000000000000000000000000000000000000000000000000000000000000000",
      "type": "0x2",
      "transactionHash": "0x2df7ffbbeaf32fe0b632d08ab49bcfffe8ecb45e7f5547182599a6866808170a",
      "transactionIndex": "0x16",
      "blockHash": "0x23e4a38781451c2f6d474578385bffb402ab3726192ea9920fbed64552190fd3",
      "blockNumber": "0xa045f8",
      "gasUsed": "0x1a3f5",
      "effectiveGasPrice": "0x187d3",
      "from": "0x8f088eca0009ad61fb94a6d7e9a5d7a087c08564",
      "to": "0xe2b6353511c5374b77aa67a1b1a9f2ede7dc1ea7",
      "contractAddress": null,
      "l1Fee": "0x196c2d",
      "l1GasPrice": "0xb79a8",
      "l1GasUsed": "0x7dc"
    },
    {
      "status": "0x1",
      "cumulativeGasUsed": "0x2ff734",
      "logs": [
        {
          "address": "0xe2b6353511c5374b77aa67a1b1a9f2ede7dc1ea7",
          "topics": [
            "0xddf252ad1be2c89b69c2b068fc378daa952ba7f163c4a11628f55a4df523b3ef",
            "0x0000000000000000000000000000000000000000000000000000000000000000",
            "0x0000000000000000000000008f088eca0009ad61fb94a6d7e9a5d7a087c08564",
            "0x00000000000000000000000000000000000000000000000000000000000f425e"
          ],
          "data": "0x",
          "blockHash": "0x23e4a38781451c2f6d474578385bffb402ab3726192ea9920fbed64552190fd3",
          "blockNumber": "0xa045f8",
          "transactionHash": "0xd9a657a030fb78cc43dea3fba01acd854c579ef0e4fa72f74334b5352d376bd5",
          "transactionIndex": "0x17",
          "logIndex": "0x23",
          "removed": false
        }
      ],
      "logsBloom": "0x00000000000000000000000000000000000000000000000000000000000000000000000000900000000001000000000000000000000000000000020000000200000000000000000000000008000000000000000000000000000000000000000000000000020000000000000000000800000000008000000000000010000000000000000000000000000000000000000000000000000000000000000000000000000000000040000010000000000000000000000000000000000000000000000000000002000000000000000000000000000000000000000000000000000030000000000000000000000000000000000000000000000000000000000000000000",
      "type": "0x2",
      "transactionHash": "0xd9a657a030fb78cc43dea3fba01acd854c579ef0e4fa72f74334b5352d376bd5",
      "transactionIndex": "0x17",
      "blockHash": "0x23e4a38781451c2f6d474578385bffb402ab3726192ea9920fbed64552190fd3",
      "blockNumber": "0xa045f8",
      "gasUsed": "0x1a3f5",
      "effectiveGasPrice": "0x187d3",
      "from": "0x8f088eca0009ad61fb94a6d7e9a5d7a087c08564",
      "to": "0xe2b6353511c5374b77aa67a1b1a9f2ede7dc1ea7",
      "contractAddress": null,
      "l1Fee": "0x196c2d",
      "l1GasPrice": "0xb79a8",
      "l1GasUsed": "0x7dc"
    },
    {
      "status": "0x1",
      "cumulativeGasUsed": "0x319b29",
      "logs": [
        {
          "address": "0xe2b6353511c5374b77aa67a1b1a9f2ede7dc1ea7",
          "topics": [
            "0xddf252ad1be2c89b69c2b068fc378daa952ba7f163c4a11628f55a4df523b3ef",
            "0x0000000000000000000000000000000000000000000000000000000000000000",
            "0x0000000000000000000000008f088eca0009ad61fb94a6d7e9a5d7a087c08564",
            "0x00000000000000000000000000000000000000000000000000000000000f425f"
          ],
          "data": "0x",
          "blockHash": "0x23e4a38781451c2f6d474578385bffb402ab3726192ea9920fbed64552190fd3",
          "blockNumber": "0xa045f8",
          "transactionHash": "0xc56af3ac5bd1fffc43a0154b258cc08b536af8665e227037282edcb62b332594",
          "transactionIndex": "0x18",
          "logIndex": "0x24",
          "removed": false
        }
      ],
      "logsBloom": "0x00000000000000000000000000000000000000000000000000000000000000000000000000100800000001000000000000000000000000000000020000000200000000000000000000000008000000000000000000000000000000000000000000000000020000000000000000000800000000008000000000000010000000000000000000000000000000000000000000000000000100000000000000000000000000000000000010000000000000000000000000000000000000000000000000000102000000000000000000000000000000000000000000000000000020000000000000000000000000000000000000000000000000000000000000000000",
      "type": "0x2",
      "transactionHash": "0xc56af3ac5bd1fffc43a0154b258cc08b536af8665e227037282edcb62b332594",
      "transactionIndex": "0x18",
      "blockHash": "0x23e4a38781451c2f6d474578385bffb402ab3726192ea9920fbed64552190fd3",
      "blockNumber": "0xa045f8",
      "gasUsed": "0x1a3f5",
      "effectiveGasPrice": "0x187d3",
      "from": "0x8f088eca0009ad61fb94a6d7e9a5d7a087c08564",
      "to": "0xe2b6353511c5374b77aa67a1b1a9f2ede7dc1ea7",
      "contractAddress": null,
      "l1Fee": "0x196c2d",
      "l1GasPrice": "0xb79a8",
      "l1GasUsed": "0x7dc"
    },
    {
      "status": "0x1",
      "cumulativeGasUsed": "0x333f1e",
      "logs": [
        {
          "address": "0xe2b6353511c5374b77aa67a1b1a9f2ede7dc1ea7",
          "topics": [
            "0xddf252ad1be2c89b69c2b068fc378daa952ba7f163c4a11628f55a4df523b3ef",
            "0x0000000000000000000000000000000000000000000000000000000000000000",
            "0x0000000000000000000000008f088eca0009ad61fb94a6d7e9a5d7a087c08564",
            "0x00000000000000000000000000000000000000000000000000000000000f4260"
          ],
          "data": "0x",
          "blockHash": "0x23e4a38781451c2f6d474578385bffb402ab3726192ea9920fbed64552190fd3",
          "blockNumber": "0xa045f8",
          "transactionHash": "0x28456ab878fd5ade957020d9552634e660cea81a2fff74c55752f680df61ad6b",
          "transactionIndex": "0x19",
          "logIndex": "0x25",
          "removed": false
        }
      ],
      "logsBloom": "0x00000000000000000000000000000000000000000000000000000000000000000000000000100000000001000000000000000000000000000000020000000200000000000000000000000008000000000000000000000000000000000000010000000000020000000000080000000800000000008000000000000010000000000000000000000000000000000000000000000000000000000080000000000000000000000000000010000000000000000000000000000000000000000000000000000002000000000000000000000000000000000000000000000000000020000000000000000000000000000000000000000000000000000000000000000000",
      "type": "0x2",
      "transactionHash": "0x28456ab878fd5ade957020d9552634e660cea81a2fff74c55752f680df61ad6b",
      "transactionIndex": "0x19",
      "blockHash": "0x23e4a38781451c2f6d474578385bffb402ab3726192ea9920fbed64552190fd3",
      "blockNumber": "0xa045f8",
      "gasUsed": "0x1a3f5",
      "effectiveGasPrice": "0x187d3",
      "from": "0x8f088eca0009ad61fb94a6d7e9a5d7a087c08564",
      "to": "0xe2b6353511c5374b77aa67a1b1a9f2ede7dc1ea7",
      "contractAddress": null,
      "l1Fee": "0x196c2d",
      "l1GasPrice": "0xb79a8",
      "l1GasUsed": "0x7dc"
    },
    {
      "status": "0x1",
      "cumulativeGasUsed": "0x34e313",
      "logs": [
        {
          "address": "0xe2b6353511c5374b77aa67a1b1a9f2ede7dc1ea7",
          "topics": [
            "0xddf252ad1be2c89b69c2b068fc378daa952ba7f163c4a11628f55a4df523b3ef",
            "0x0000000000000000000000000000000000000000000000000000000000000000",
            "0x0000000000000000000000008f088eca0009ad61fb94a6d7e9a5d7a087c08564",
            "0x00000000000000000000000000000000000000000000000000000000000f4261"
          ],
          "data": "0x",
          "blockHash": "0x23e4a38781451c2f6d474578385bffb402ab3726192ea9920fbed64552190fd3",
          "blockNumber": "0xa045f8",
          "transactionHash": "0xa35beec3d9301acf27050e1c2e294195f8339cc39ec6c0a1e43c63f73ef2063d",
          "transactionIndex": "0x1a",
          "logIndex": "0x26",
          "removed": false
        }
      ],
      "logsBloom": "0x00000000000000000000000040000000000000000000000000000000000000000000000000100000000001000000000000000000000000000000020000000200000000000000000000000008000000000000000000000000000000000000000000000000020000000000000000000800000000008000000000000010000000000000000000000000000200000000000000000000000000000000000000000000000000000000000010000000000000000000000000000000000000000000000000000002000000000000000000000000000000000000000000000000000020000000000000000000000000000000000000000000000000000000000100000000",
      "type": "0x2",
      "transactionHash": "0xa35beec3d9301acf27050e1c2e294195f8339cc39ec6c0a1e43c63f73ef2063d",
      "transactionIndex": "0x1a",
      "blockHash": "0x23e4a38781451c2f6d474578385bffb402ab3726192ea9920fbed64552190fd3",
      "blockNumber": "0xa045f8",
      "gasUsed": "0x1a3f5",
      "effectiveGasPrice": "0x187d3",
      "from": "0x8f088eca0009ad61fb94a6d7e9a5d7a087c08564",
      "to": "0xe2b6353511c5374b77aa67a1b1a9f2ede7dc1ea7",
      "contractAddress": null,
      "l1Fee": "0x196c2d",
      "l1GasPrice": "0xb79a8",
      "l1GasUsed": "0x7dc"
    },
    {
      "status": "0x1",
      "cumulativeGasUsed": "0x368708",
      "logs": [
        {
          "address": "0xe2b6353511c5374b77aa67a1b1a9f2ede7dc1ea7",
          "topics": [
            "0xddf252ad1be2c89b69c2b068fc378daa952ba7f163c4a11628f55a4df523b3ef",
            "0x0000000000000000000000000000000000000000000000000000000000000000",
            "0x0000000000000000000000008f088eca0009ad61fb94a6d7e9a5d7a087c08564",
            "0x00000000000000000000000000000000000000000000000000000000000f4262"
          ],
          "data": "0x",
          "blockHash": "0x23e4a38781451c2f6d474578385bffb402ab3726192ea9920fbed64552190fd3",
          "blockNumber": "0xa045f8",
          "transactionHash": "0xd6fe7d2daef8f6afe3db1f06b7074c110d540bf83bac5aacfcab9aab0c859d68",
          "transactionIndex": "0x1b",
          "logIndex": "0x27",
          "removed": false
        }
      ],
      "logsBloom": "0x00000000000000000000000000000000000000000000000000000000000000000000000000100000000001000040000000000000000000000000020000000200000000000000000000000008000000000000000000000001000000000000000000000000020000000000000000000800000000008000000000000010000000000000000000000000000000000000000000000000000000000000000000000000000000020000000010000000000000000000000000000000000000000000000000000002000000000000000000000000000000000000000000000000000020000000000000000000000000000000000000000000000000000000000000000000",
      "type": "0x2",
      "transactionHash": "0xd6fe7d2daef8f6afe3db1f06b7074c110d540bf83bac5aacfcab9aab0c859d68",
      "transactionIndex": "0x1b",
      "blockHash": "0x23e4a38781451c2f6d474578385bffb402ab3726192ea9920fbed64552190fd3",
      "blockNumber": "0xa045f8",
      "gasUsed": "0x1a3f5",
      "effectiveGasPrice": "0x187d3",
      "from": "0x8f088eca0009ad61fb94a6d7e9a5d7a087c08564",
      "to": "0xe2b6353511c5374b77aa67a1b1a9f2ede7dc1ea7",
      "contractAddress": null,
      "l1Fee": "0x196c2d",
      "l1GasPrice": "0xb79a8",
      "l1GasUsed": "0x7dc"
    },
    {
      "status": "0x1",
      "cumulativeGasUsed": "0x382afd",
      "logs": [
        {
          "address": "0xe2b6353511c5374b77aa67a1b1a9f2ede7dc1ea7",
          "topics": [
            "0xddf252ad1be2c89b69c2b068fc378daa952ba7f163c4a11628f55a4df523b3ef",
            "0x0000000000000000000000000000000000000000000000000000000000000000",
            "0x0000000000000000000000008f088eca0009ad61fb94a6d7e9a5d7a087c08564",
            "0x00000000000000000000000000000000000000000000000000000000000f4263"
          ],
          "data": "0x",
          "blockHash": "0x23e4a38781451c2f6d474578385bffb402ab3726192ea9920fbed64552190fd3",
          "blockNumber": "0xa045f8",
          "transactionHash": "0xcc1037b0c347c4db69dd7306e9587ac84ab3fc681a951090273a2856a0c27e7b",
          "transactionIndex": "0x1c",
          "logIndex": "0x28",
          "removed": false
        }
      ],
      "logsBloom": "0x00000000000000000000000000000000000000000000000000000000000000000000000000100000000001000000000000000000000000000000020000000200000000000000000000000008000000000000100000000000000000000000000000000000020000000000000000000800000000008000000000000010000000000000000000000000000000000000200000000000000000000000000000000000000000000000000010800000000000000000000000000000000000000000000000000002000000000000000000000000000000000000000000000000000020000000000000000000000000000000000000000000000000000000000000000000",
      "type": "0x2",
      "transactionHash": "0xcc1037b0c347c4db69dd7306e9587ac84ab3fc681a951090273a2856a0c27e7b",
      "transactionIndex": "0x1c",
      "blockHash": "0x23e4a38781451c2f6d474578385bffb402ab3726192ea9920fbed64552190fd3",
      "blockNumber": "0xa045f8",
      "gasUsed": "0x1a3f5",
      "effectiveGasPrice": "0x187d3",
      "from": "0x8f088eca0009ad61fb94a6d7e9a5d7a087c08564",
      "to": "0xe2b6353511c5374b77aa67a1b1a9f2ede7dc1ea7",
      "contractAddress": null,
      "l1Fee": "0x196c2d",
      "l1GasPrice": "0xb79a8",
      "l1GasUsed": "0x7dc"
    },
    {
      "status": "0x1",
      "cumulativeGasUsed": "0x39cef2",
      "logs": [
        {
          "address": "0xe2b6353511c5374b77aa67a1b1a9f2ede7dc1ea7",
          "topics": [
            "0xddf252ad1be2c89b69c2b068fc378daa952ba7f163c4a11628f55a4df523b3ef",
            "0x0000000000000000000000000000000000000000000000000000000000000000",
            "0x0000000000000000000000008f088eca0009ad61fb94a6d7e9a5d7a087c08564",
            "0x00000000000000000000000000000000000000000000000000000000000f4264"
          ],
          "data": "0x",
          "blockHash": "0x23e4a38781451c2f6d474578385bffb402ab3726192ea9920fbed64552190fd3",
          "blockNumber": "0xa045f8",
          "transactionHash": "0xaeff07522a784ea5538d2e3afd09fa02fd30508d9eb630bd3f0f78ea8996292b",
          "transactionIndex": "0x1d",
          "logIndex": "0x29",
          "removed": false
        }
      ],
      "logsBloom": "0x00000004000000000000000000000000000000000000000000000000000000000000000000100000000001000000000000000000000000000000020000000200000000000000000000000008000000000000000000000000000000000000000000000000020000000000000000000800000000008000000000000010000000000000000000000000000000000000000000000000000000000000000000000000000000000000200010000000000010000000000000000000000000000000000000000002000000000000000000000000000000000000000000000000000020000000000000000000000000000000000000000000000000000000000000000000",
      "type": "0x2",
      "transactionHash": "0xaeff07522a784ea5538d2e3afd09fa02fd30508d9eb630bd3f0f78ea8996292b",
      "transactionIndex": "0x1d",
      "blockHash": "0x23e4a38781451c2f6d474578385bffb402ab3726192ea9920fbed64552190fd3",
      "blockNumber": "0xa045f8",
      "gasUsed": "0x1a3f5",
      "effectiveGasPrice": "0x187d3",
      "from": "0x8f088eca0009ad61fb94a6d7e9a5d7a087c08564",
      "to": "0xe2b6353511c5374b77aa67a1b1a9f2ede7dc1ea7",
      "contractAddress": null,
      "l1Fee": "0x196c2d",
      "l1GasPrice": "0xb79a8",
      "l1GasUsed": "0x7dc"
    },
    {
      "status": "0x1",
      "cumulativeGasUsed": "0x3b72e7",
      "logs": [
        {
          "address": "0xe2b6353511c5374b77aa67a1b1a9f2ede7dc1ea7",
          "topics": [
            "0xddf252ad1be2c89b69c2b068fc378daa952ba7f163c4a11628f55a4df523b3ef",
            "0x0000000000000000000000000000000000000000000000000000000000000000",
            "0x0000000000000000000000008f088eca0009ad61fb94a6d7e9a5d7a087c08564",
            "0x00000000000000000000000000000000000000000000000000000000000f4265"
          ],
          "data": "0x",
          "blockHash": "0x23e4a38781451c2f6d474578385bffb402ab3726192ea9920fbed64552190fd3",
          "blockNumber": "0xa045f8",
          "transactionHash": "0xe2370a3dc8fe903b76b99d23be3a6be1c0af03f7dfdb5e3ca9f4cb7a024bf648",
          "transactionIndex": "0x1e",
          "logIndex": "0x2a",
          "removed": false
        }
      ],
      "logsBloom": "0x00000000000000000000000000000000000000000000000000000000000000000000000000100000000001000000000000000000000000000000020000000200000000000000000000000008000000000000000000000000000000000000000000000200020000000000000000000800000000008000000000000010000000000000000000000000000000000000000000000000000000000000000000000000000000000000000010000000000000000008000000000000000000000000000000000002000000000000000000000000000000000000000000000000000020008000000000000000000000000000000000000000000000000000000000000000",
      "type": "0x2",
      "transactionHash": "0xe2370a3dc8fe903b76b99d23be3a6be1c0af03f7dfdb5e3ca9f4cb7a024bf648",
      "transactionIndex": "0x1e",
      "blockHash": "0x23e4a38781451c2f6d474578385bffb402ab3726192ea9920fbed64552190fd3",
      "blockNumber": "0xa045f8",
      "gasUsed": "0x1a3f5",
      "effectiveGasPrice": "0x187d3",
      "from": "0x8f088eca0009ad61fb94a6d7e9a5d7a087c08564",
      "to": "0xe2b6353511c5374b77aa67a1b1a9f2ede7dc1ea7",
      "contractAddress": null,
      "l1Fee": "0x196c2d",
      "l1GasPrice": "0xb79a8",
      "l1GasUsed": "0x7dc"
    },
    {
      "status": "0x1",
      "cumulativeGasUsed": "0x3d16dc",
      "logs": [
        {
          "address": "0xe2b6353511c5374b77aa67a1b1a9f2ede7dc1ea7",
          "topics": [
            "0xddf252ad1be2c89b69c2b068fc378daa952ba7f163c4a11628f55a4df523b3ef",
            "0x0000000000000000000000000000000000000000000000000000000000000000",
            "0x0000000000000000000000008f088eca0009ad61fb94a6d7e9a5d7a087c08564",
            "0x00000000000000000000000000000000000000000000000000000000000f4266"
          ],
          "data": "0x",
          "blockHash": "0x23e4a38781451c2f6d474578385bffb402ab3726192ea9920fbed64552190fd3",
          "blockNumber": "0xa045f8",
          "transactionHash": "0xcc957f8d4daa65f645677c9d63d4bb5f1fae9b331f65913fd9e6ca2d0ffb7534",
          "transactionIndex": "0x1f",
          "logIndex": "0x2b",
          "removed": false
        }
      ],
      "logsBloom": "0x10000000000000000000000000000000000000000000000000000000000000000000000000100000000001000000000000000000000000000000020000000200000000000000000000000008000000000000000000000000000000000000000000000000020000000000000000000800010000008000000000000010000000000000000000000000000000000000000000000000000000000000000000000000000000000000000010000000000000000000000000000000000000000000000000000002000000000000000000000000000000000000000000000000000020000000000000000000000000000000400000000000000000000000000000000000",
      "type": "0x2",
      "transactionHash": "0xcc957f8d4daa65f645677c9d63d4bb5f1fae9b331f65913fd9e6ca2d0ffb7534",
      "transactionIndex": "0x1f",
      "blockHash": "0x23e4a38781451c2f6d474578385bffb402ab3726192ea9920fbed64552190fd3",
      "blockNumber": "0xa045f8",
      "gasUsed": "0x1a3f5",
      "effectiveGasPrice": "0x187d3",
      "from": "0x8f088eca0009ad61fb94a6d7e9a5d7a087c08564",
      "to": "0xe2b6353511c5374b77aa67a1b1a9f2ede7dc1ea7",
      "contractAddress": null,
      "l1Fee": "0x19455d",
      "l1GasPrice": "0xb79a8",
      "l1GasUsed": "0x7d0"
    },
    {
      "status": "0x1",
      "cumulativeGasUsed": "0x3ebad1",
      "logs": [
        {
          "address": "0xe2b6353511c5374b77aa67a1b1a9f2ede7dc1ea7",
          "topics": [
            "0xddf252ad1be2c89b69c2b068fc378daa952ba7f163c4a11628f55a4df523b3ef",
            "0x0000000000000000000000000000000000000000000000000000000000000000",
            "0x0000000000000000000000008f088eca0009ad61fb94a6d7e9a5d7a087c08564",
            "0x00000000000000000000000000000000000000000000000000000000000f4267"
          ],
          "data": "0x",
          "blockHash": "0x23e4a38781451c2f6d474578385bffb402ab3726192ea9920fbed64552190fd3",
          "blockNumber": "0xa045f8",
          "transactionHash": "0x19b5bb5c8c6bd858e5e789bf722b4c395b742853b3eabc3501d61830f577f054",
          "transactionIndex": "0x20",
          "logIndex": "0x2c",
          "removed": false
        }
      ],
      "logsBloom": "0x00000800000000000000000000000000000000000000000000000000000000000000000000100000000001000000000000000000000000000000020000000200400000000000000000000008000000000000000000000000000000000000000000000000020000000000000000000800000000008000000000000010000000000000000000000000000000000000000000000000000000000000000000000000000000000010000010000000000000000000000000000000000000000000000000000002000000000000000000000000000000000000000000000000000020000000000000000000000000000000000000000000000000000000000000000000",
      "type": "0x2",
      "transactionHash": "0x19b5bb5c8c6bd858e5e789bf722b4c395b742853b3eabc3501d61830f577f054",
      "transactionIndex": "0x20",
      "blockHash": "0x23e4a38781451c2f6d474578385bffb402ab3726192ea9920fbed64552190fd3",
      "blockNumber": "0xa045f8",
      "gasUsed": "0x1a3f5",
      "effectiveGasPrice": "0x187d3",
      "from": "0x8f088eca0009ad61fb94a6d7e9a5d7a087c08564",
      "to": "0xe2b6353511c5374b77aa67a1b1a9f2ede7dc1ea7",
      "contractAddress": null,
      "l1Fee": "0x196c2d",
      "l1GasPrice": "0xb79a8",
      "l1GasUsed": "0x7dc"
    },
    {
      "status": "0x1",
      "cumulativeGasUsed": "0x405ec6",
      "logs": [
        {
          "address": "0xe2b6353511c5374b77aa67a1b1a9f2ede7dc1ea7",
          "topics": [
            "0xddf252ad1be2c89b69c2b068fc378daa952ba7f163c4a11628f55a4df523b3ef",
            "0x0000000000000000000000000000000000000000000000000000000000000000",
            "0x0000000000000000000000008f088eca0009ad61fb94a6d7e9a5d7a087c08564",
            "0x00000000000000000000000000000000000000000000000000000000000f4268"
          ],
          "data": "0x",
          "blockHash": "0x23e4a38781451c2f6d474578385bffb402ab3726192ea9920fbed64552190fd3",
          "blockNumber": "0xa045f8",
          "transactionHash": "0x775591917c3eff3faf8ac4df7b1a73f214ef417ad93cdf2d279a7f0f882971fa",
          "transactionIndex": "0x21",
          "logIndex": "0x2d",
          "removed": false
        }
      ],
      "logsBloom": "0x00000000000000000000000000000000000000000000000000000000000000000000000040100000000001000000000000000000000000000000020000000200000000000000000000000008000000000000000000000000000000000000000000000000020000000000000000000800000000008000000000000010000000000000000000000000000000000000000000000000000000000000000000040000000000000000000010000000000000000000000000000000000000000000000000000002000000000000000000000000000000000000000000000000000020000000000000000000000000000000000000000000000000080000000000000000",
      "type": "0x2",
      "transactionHash": "0x775591917c3eff3faf8ac4df7b1a73f214ef417ad93cdf2d279a7f0f882971fa",
      "transactionIndex": "0x21",
      "blockHash": "0x23e4a38781451c2f6d474578385bffb402ab3726192ea9920fbed64552190fd3",
      "blockNumber": "0xa045f8",
      "gasUsed": "0x1a3f5",
      "effectiveGasPrice": "0x187d3",
      "from": "0x8f088eca0009ad61fb94a6d7e9a5d7a087c08564",
      "to": "0xe2b6353511c5374b77aa67a1b1a9f2ede7dc1ea7",
      "contractAddress": null,
      "l1Fee": "0x19386c",
      "l1GasPrice": "0xb79a8",
      "l1GasUsed": "0x7cc"
    },
    {
      "status": "0x1",
      "cumulativeGasUsed": "0x4202bb",
      "logs": [
        {
          "address": "0xe2b6353511c5374b77aa67a1b1a9f2ede7dc1ea7",
          "topics": [
            "0xddf252ad1be2c89b69c2b068fc378daa952ba7f163c4a11628f55a4df523b3ef",
            "0x0000000000000000000000000000000000000000000000000000000000000000",
            "0x0000000000000000000000008f088eca0009ad61fb94a6d7e9a5d7a087c08564",
            "0x00000000000000000000000000000000000000000000000000000000000f4269"
          ],
          "data": "0x",
          "blockHash": "0x23e4a38781451c2f6d474578385bffb402ab3726192ea9920fbed64552190fd3",
          "blockNumber": "0xa045f8",
          "transactionHash": "0xb2c2f9ebebe6c578e92e839260cce2407f2e7288defc1d8f2ed125626b23afa0",
          "transactionIndex": "0x22",
          "logIndex": "0x2e",
          "removed": false
        }
      ],
      "logsBloom": "0x00000000000000000000000000000000000000000000000000000000000000000000000000100000000001000000000000000000000000000000020000000200000000000000000000000008000000000000000000000000000000000000000000000000020000000000000000000800008000008000000000000010000000000000000000000000000000000000000000000000000000000000000000000000000000000000000010000002000000000000000000000000000000000000000000000002000000000000000000000000000000000000000000400000000020000000000000000000000000000000000000000000000000000000000000000000",
      "type": "0x2",
      "transactionHash": "0xb2c2f9ebebe6c578e92e839260cce2407f2e7288defc1d8f2ed125626b23afa0",
      "transactionIndex": "0x22",
      "blockHash": "0x23e4a38781451c2f6d474578385bffb402ab3726192ea9920fbed64552190fd3",
      "blockNumber": "0xa045f8",
      "gasUsed": "0x1a3f5",
      "effectiveGasPrice": "0x187d3",
      "from": "0x8f088eca0009ad61fb94a6d7e9a5d7a087c08564",
      "to": "0xe2b6353511c5374b77aa67a1b1a9f2ede7dc1ea7",
      "contractAddress": null,
      "l1Fee": "0x196c2d",
      "l1GasPrice": "0xb79a8",
      "l1GasUsed": "0x7dc"
    },
    {
      "status": "0x1",
      "cumulativeGasUsed": "0x43a6b0",
      "logs": [
        {
          "address": "0xe2b6353511c5374b77aa67a1b1a9f2ede7dc1ea7",
          "topics": [
            "0xddf252ad1be2c89b69c2b068fc378daa952ba7f163c4a11628f55a4df523b3ef",
            "0x0000000000000000000000000000000000000000000000000000000000000000",
            "0x0000000000000000000000008f088eca0009ad61fb94a6d7e9a5d7a087c08564",
            "0x00000000000000000000000000000000000000000000000000000000000f426a"
          ],
          "data": "0x",
          "blockHash": "0x23e4a38781451c2f6d474578385bffb402ab3726192ea9920fbed64552190fd3",
          "blockNumber": "0xa045f8",
          "transactionHash": "0x69abe5412f514b439a7d3f59bd278a86076ba44a0fc7450a2fea93f2270c06b2",
          "transactionIndex": "0x23",
          "logIndex": "0x2f",
          "removed": false
        }
      ],
      "logsBloom": "0x00000000000000001000000000000000000000000000000000000000000000000000000000100000000001000000000000000000000000000000020000000200000000000000000000000008000000000000000000000000000000000000000000000000020000000000000000000800000000008000000000000010000000000000000000000000000000000000000000000000000000000000000000000000000000000000000010000000000000000000000000000000000000000000000000000002000000000000000000000000000000000000000000000000000020000000000000000000004000000000000000000000001000000000000000000000",
      "type": "0x2",
      "transactionHash": "0x69abe5412f514b439a7d3f59bd278a86076ba44a0fc7450a2fea93f2270c06b2",
      "transactionIndex": "0x23",
      "blockHash": "0x23e4a38781451c2f6d474578385bffb402ab3726192ea9920fbed64552190fd3",
      "blockNumber": "0xa045f8",
      "gasUsed": "0x1a3f5",
      "effectiveGasPrice": "0x187d3",
      "from": "0x8f088eca0009ad61fb94a6d7e9a5d7a087c08564",
      "to": "0xe2b6353511c5374b77aa67a1b1a9f2ede7dc1ea7",
      "contractAddress": null,
      "l1Fee": "0x196c2d",
      "l1GasPrice": "0xb79a8",
      "l1GasUsed": "0x7dc"
    }
  ],
  "libraries": [],
  "pending": [],
  "returns": {},
  "timestamp": 1716775444,
  "chain": 84532,
  "commit": "3e641a5"
}