{
  "transactions": [
    {
      "hash": "0x11479e82f6001c0b198d05b6c080166dea3486ef94d38544fee998ed7b43e222",
      "transactionType": "CALL",
      "contractName": null,
      "contractAddress": "0x0bd94fda87d78d4da8c5068f677975f9cecdffe0",
      "function": "mint(uint256)",
      "arguments": [
        "1"
      ],
      "transaction": {
        "from": "0x8f088eca0009ad61fb94a6d7e9a5d7a087c08564",
        "to": "0x0bd94fda87d78d4da8c5068f677975f9cecdffe0",
        "gas": "0x341bb",
        "value": "0x0",
        "input": "0xa0712d680000000000000000000000000000000000000000000000000000000000000001",
        "nonce": "0xd83",
        "chainId": "0x14a34"
      },
      "additionalContracts": [],
      "isFixedGasLimit": false
    },
    {
      "hash": "0x80d5c43727a054b6393eb38adb2ed84198cd713bdbb3d31c61eb6a9423eb13ee",
      "transactionType": "CALL",
      "contractName": null,
      "contractAddress": "0x0bd94fda87d78d4da8c5068f677975f9cecdffe0",
      "function": "mint(uint256)",
      "arguments": [
        "1"
      ],
      "transaction": {
        "from": "0x8f088eca0009ad61fb94a6d7e9a5d7a087c08564",
        "to": "0x0bd94fda87d78d4da8c5068f677975f9cecdffe0",
        "gas": "0x27e59",
        "value": "0x0",
        "input": "0xa0712d680000000000000000000000000000000000000000000000000000000000000001",
        "nonce": "0xd84",
        "chainId": "0x14a34"
      },
      "additionalContracts": [],
      "isFixedGasLimit": false
    },
    {
      "hash": "0x2f46058411fbdcdedf795a4ddc520a1485c86995ea2a67fd3b1f90b606f73385",
      "transactionType": "CALL",
      "contractName": null,
      "contractAddress": "0x0bd94fda87d78d4da8c5068f677975f9cecdffe0",
      "function": "mint(uint256)",
      "arguments": [
        "1"
      ],
      "transaction": {
        "from": "0x8f088eca0009ad61fb94a6d7e9a5d7a087c08564",
        "to": "0x0bd94fda87d78d4da8c5068f677975f9cecdffe0",
        "gas": "0x27e59",
        "value": "0x0",
        "input": "0xa0712d680000000000000000000000000000000000000000000000000000000000000001",
        "nonce": "0xd85",
        "chainId": "0x14a34"
      },
      "additionalContracts": [],
      "isFixedGasLimit": false
    },
    {
      "hash": "0x1926f2f0561aca175735b538a9c4d89fd426e5256efe60ec12c8fab6b0d35c23",
      "transactionType": "CALL",
      "contractName": null,
      "contractAddress": "0x0bd94fda87d78d4da8c5068f677975f9cecdffe0",
      "function": "mint(uint256)",
      "arguments": [
        "1"
      ],
      "transaction": {
        "from": "0x8f088eca0009ad61fb94a6d7e9a5d7a087c08564",
        "to": "0x0bd94fda87d78d4da8c5068f677975f9cecdffe0",
        "gas": "0x27e59",
        "value": "0x0",
        "input": "0xa0712d680000000000000000000000000000000000000000000000000000000000000001",
        "nonce": "0xd86",
        "chainId": "0x14a34"
      },
      "additionalContracts": [],
      "isFixedGasLimit": false
    },
    {
      "hash": "0x2ef1a2156937f9dafe3672c10321a0675ef4847644eefd02f980304753952790",
      "transactionType": "CALL",
      "contractName": null,
      "contractAddress": "0x0bd94fda87d78d4da8c5068f677975f9cecdffe0",
      "function": "mint(uint256)",
      "arguments": [
        "1"
      ],
      "transaction": {
        "from": "0x8f088eca0009ad61fb94a6d7e9a5d7a087c08564",
        "to": "0x0bd94fda87d78d4da8c5068f677975f9cecdffe0",
        "gas": "0x27e59",
        "value": "0x0",
        "input": "0xa0712d680000000000000000000000000000000000000000000000000000000000000001",
        "nonce": "0xd87",
        "chainId": "0x14a34"
      },
      "additionalContracts": [],
      "isFixedGasLimit": false
    }
  ],
  "receipts": [
    {
      "status": "0x1",
      "cumulativeGasUsed": "0x67848",
      "logs": [
        {
          "address": "0x0bd94fda87d78d4da8c5068f677975f9cecdffe0",
          "topics": [
            "0xddf252ad1be2c89b69c2b068fc378daa952ba7f163c4a11628f55a4df523b3ef",
            "0x0000000000000000000000000000000000000000000000000000000000000000",
            "0x0000000000000000000000008f088eca0009ad61fb94a6d7e9a5d7a087c08564",
            "0x00000000000000000000000000000000000000000000000000000000000f4241"
          ],
          "data": "0x",
          "blockHash": "0x040ffed2ace872f0d16f684e3dee4d4eeec24489c4ac9623ed92a989229572fa",
          "blockNumber": "0xad7967",
          "transactionHash": "0x11479e82f6001c0b198d05b6c080166dea3486ef94d38544fee998ed7b43e222",
          "transactionIndex": "0x3",
          "logIndex": "0x4",
          "removed": false
        }
      ],
      "logsBloom": "0x00000000000000000000000000000000000000000000000000000000000000000000100000100000000001000000000000000000000000000000000000000200000000000000000000000008000000000000000000000000000000000000000020000000020000008000000000000800000000000000000000000010000000000000000000000000000000000000000000000000000000000000000000000000000000000000000000000000000000000000000000000000000000000000000000000002000000000000000000000000000000000000000000000000000220400000000000000000000000000000000000000000000000000000000000000002",
      "type": "0x2",
      "transactionHash": "0x11479e82f6001c0b198d05b6c080166dea3486ef94d38544fee998ed7b43e222",
      "transactionIndex": "0x3",
      "blockHash": "0x040ffed2ace872f0d16f684e3dee4d4eeec24489c4ac9623ed92a989229572fa",
      "blockNumber": "0xad7967",
      "gasUsed": "0x23a13",
      "effectiveGasPrice": "0x187a7",
      "from": "0x8f088eca0009ad61fb94a6d7e9a5d7a087c08564",
      "to": "0x0bd94fda87d78d4da8c5068f677975f9cecdffe0",
      "contractAddress": null,
      "l1BaseFeeScalar": "0x44d",
      "l1BlobBaseFee": "0x2",
      "l1BlobBaseFeeScalar": "0xa118b",
      "l1Fee": "0xa8",
      "l1GasPrice": "0x15",
      "l1GasUsed": "0x640"
    },
    {
      "status": "0x1",
      "cumulativeGasUsed": "0x82cc3",
      "logs": [
        {
          "address": "0x0bd94fda87d78d4da8c5068f677975f9cecdffe0",
          "topics": [
            "0xddf252ad1be2c89b69c2b068fc378daa952ba7f163c4a11628f55a4df523b3ef",
            "0x0000000000000000000000000000000000000000000000000000000000000000",
            "0x0000000000000000000000008f088eca0009ad61fb94a6d7e9a5d7a087c08564",
            "0x00000000000000000000000000000000000000000000000000000000000f4242"
          ],
          "data": "0x",
          "blockHash": "0x040ffed2ace872f0d16f684e3dee4d4eeec24489c4ac9623ed92a989229572fa",
          "blockNumber": "0xad7967",
          "transactionHash": "0x80d5c43727a054b6393eb38adb2ed84198cd713bdbb3d31c61eb6a9423eb13ee",
          "transactionIndex": "0x4",
          "logIndex": "0x5",
          "removed": false
        }
      ],
      "logsBloom": "0x00000000000000000000000000000000000000000000000000000000000000000000000000100000000001000000000000000000000000000000000000000200000000000000000000000008000000000000000000000000000000000000000020000400020000008000000000000800000000000000000000000010000000000000000000000000000000000000000000000000000000000000000000000000000000000000000000000000000000000000000000000000000000000000000000000002000000000001000000000000000000000000000000000000000020400000000000000000000000000000000000000000010000000000000000000000",
      "type": "0x2",
      "transactionHash": "0x80d5c43727a054b6393eb38adb2ed84198cd713bdbb3d31c61eb6a9423eb13ee",
      "transactionIndex": "0x4",
      "blockHash": "0x040ffed2ace872f0d16f684e3dee4d4eeec24489c4ac9623ed92a989229572fa",
      "blockNumber": "0xad7967",
      "gasUsed": "0x1b47b",
      "effectiveGasPrice": "0x187a7",
      "from": "0x8f088eca0009ad61fb94a6d7e9a5d7a087c08564",
      "to": "0x0bd94fda87d78d4da8c5068f677975f9cecdffe0",
      "contractAddress": null,
      "l1BaseFeeScalar": "0x44d",
      "l1BlobBaseFee": "0x2",
      "l1BlobBaseFeeScalar": "0xa118b",
      "l1Fee": "0xa8",
      "l1GasPrice": "0x15",
      "l1GasUsed": "0x640"
    },
    {
      "status": "0x1",
      "cumulativeGasUsed": "0x9e13e",
      "logs": [
        {
          "address": "0x0bd94fda87d78d4da8c5068f677975f9cecdffe0",
          "topics": [
            "0xddf252ad1be2c89b69c2b068fc378daa952ba7f163c4a11628f55a4df523b3ef",
            "0x0000000000000000000000000000000000000000000000000000000000000000",
            "0x0000000000000000000000008f088eca0009ad61fb94a6d7e9a5d7a087c08564",
            "0x00000000000000000000000000000000000000000000000000000000000f4243"
          ],
          "data": "0x",
          "blockHash": "0x040ffed2ace872f0d16f684e3dee4d4eeec24489c4ac9623ed92a989229572fa",
          "blockNumber": "0xad7967",
          "transactionHash": "0x2f46058411fbdcdedf795a4ddc520a1485c86995ea2a67fd3b1f90b606f73385",
          "transactionIndex": "0x5",
          "logIndex": "0x6",
          "removed": false
        }
      ],
      "logsBloom": "0x00000000000000000000000000000000000000000200000000000000040000000000000000100000000001000000000000000000000000000000000000040200000000000000000000000008000000000000000000000000000000000000000020000000020000008000000000000800000000000000000000000010000000000000000000000000000000000000000000000000000000000000000000000000000000000000000000000000000000000000000000000000000000000000000000000002000000000000000000000000000000000000000000000000000020400000000000000000000000000000000000000000000000000000000000000000",
      "type": "0x2",
      "transactionHash": "0x2f46058411fbdcdedf795a4ddc520a1485c86995ea2a67fd3b1f90b606f73385",
      "transactionIndex": "0x5",
      "blockHash": "0x040ffed2ace872f0d16f684e3dee4d4eeec24489c4ac9623ed92a989229572fa",
      "blockNumber": "0xad7967",
      "gasUsed": "0x1b47b",
      "effectiveGasPrice": "0x187a7",
      "from": "0x8f088eca0009ad61fb94a6d7e9a5d7a087c08564",
      "to": "0x0bd94fda87d78d4da8c5068f677975f9cecdffe0",
      "contractAddress": null,
      "l1BaseFeeScalar": "0x44d",
      "l1BlobBaseFee": "0x2",
      "l1BlobBaseFeeScalar": "0xa118b",
      "l1Fee": "0xa8",
      "l1GasPrice": "0x15",
      "l1GasUsed": "0x640"
    },
    {
      "status": "0x1",
      "cumulativeGasUsed": "0xb95b9",
      "logs": [
        {
          "address": "0x0bd94fda87d78d4da8c5068f677975f9cecdffe0",
          "topics": [
            "0xddf252ad1be2c89b69c2b068fc378daa952ba7f163c4a11628f55a4df523b3ef",
            "0x0000000000000000000000000000000000000000000000000000000000000000",
            "0x0000000000000000000000008f088eca0009ad61fb94a6d7e9a5d7a087c08564",
            "0x00000000000000000000000000000000000000000000000000000000000f4244"
          ],
          "data": "0x",
          "blockHash": "0x040ffed2ace872f0d16f684e3dee4d4eeec24489c4ac9623ed92a989229572fa",
          "blockNumber": "0xad7967",
          "transactionHash": "0x1926f2f0561aca175735b538a9c4d89fd426e5256efe60ec12c8fab6b0d35c23",
          "transactionIndex": "0x6",
          "logIndex": "0x7",
          "removed": false
        }
      ],
      "logsBloom": "0x00000000000000000000000000000000000000000000000000000000000000000000000000100000000001000000000000000000000000000000000000000200000000000000000000000008000000000000000000000000000000000000000020000000020000008000000000000800001000000000000000000010000000000000000000000000000000000000000000000000000000000000000000000000000000000000000000000000008000000000000000000000000000000000000000000002000000000000000000000000000000000000000000000000000020400000000000000000000000000000000000000000000000000000000010000000",
      "type": "0x2",
      "transactionHash": "0x1926f2f0561aca175735b538a9c4d89fd426e5256efe60ec12c8fab6b0d35c23",
      "transactionIndex": "0x6",
      "blockHash": "0x040ffed2ace872f0d16f684e3dee4d4eeec24489c4ac9623ed92a989229572fa",
      "blockNumber": "0xad7967",
      "gasUsed": "0x1b47b",
      "effectiveGasPrice": "0x187a7",
      "from": "0x8f088eca0009ad61fb94a6d7e9a5d7a087c08564",
      "to": "0x0bd94fda87d78d4da8c5068f677975f9cecdffe0",
      "contractAddress": null,
      "l1BaseFeeScalar": "0x44d",
      "l1BlobBaseFee": "0x2",
      "l1BlobBaseFeeScalar": "0xa118b",
      "l1Fee": "0xa8",
      "l1GasPrice": "0x15",
      "l1GasUsed": "0x640"
    },
    {
      "status": "0x1",
      "cumulativeGasUsed": "0xd4a34",
      "logs": [
        {
          "address": "0x0bd94fda87d78d4da8c5068f677975f9cecdffe0",
          "topics": [
            "0xddf252ad1be2c89b69c2b068fc378daa952ba7f163c4a11628f55a4df523b3ef",
            "0x0000000000000000000000000000000000000000000000000000000000000000",
            "0x0000000000000000000000008f088eca0009ad61fb94a6d7e9a5d7a087c08564",
            "0x00000000000000000000000000000000000000000000000000000000000f4245"
          ],
          "data": "0x",
          "blockHash": "0x040ffed2ace872f0d16f684e3dee4d4eeec24489c4ac9623ed92a989229572fa",
          "blockNumber": "0xad7967",
          "transactionHash": "0x2ef1a2156937f9dafe3672c10321a0675ef4847644eefd02f980304753952790",
          "transactionIndex": "0x7",
          "logIndex": "0x8",
          "removed": false
        }
      ],
      "logsBloom": "0x00000000000000000000000000000000000000000000000000000000000000880000000000100000000001000000000000000000000000000000000000010200000000000000000000000008000000000000000000000000000000000000000020000000020000008000000000000800000000000000000000000010000000000000000000000000000000000000000000000000000000000000000000000000000000000000000000000000000000000000000000000000000000000000000000000002000000000000000000000000000000000000000000000000000020400000000000000000000000000000000000000000000000000000000000000000",
      "type": "0x2",
      "transactionHash": "0x2ef1a2156937f9dafe3672c10321a0675ef4847644eefd02f980304753952790",
      "transactionIndex": "0x7",
      "blockHash": "0x040ffed2ace872f0d16f684e3dee4d4eeec24489c4ac9623ed92a989229572fa",
      "blockNumber": "0xad7967",
      "gasUsed": "0x1b47b",
      "effectiveGasPrice": "0x187a7",
      "from": "0x8f088eca0009ad61fb94a6d7e9a5d7a087c08564",
      "to": "0x0bd94fda87d78d4da8c5068f677975f9cecdffe0",
      "contractAddress": null,
      "l1BaseFeeScalar": "0x44d",
      "l1BlobBaseFee": "0x2",
      "l1BlobBaseFeeScalar": "0xa118b",
      "l1Fee": "0xa8",
      "l1GasPrice": "0x15",
      "l1GasUsed": "0x640"
    }
  ],
  "libraries": [],
  "pending": [],
  "returns": {},
  "timestamp": 1718505908,
  "chain": 84532,
  "commit": "3e641a5"
}