{
  "transactions": [
    {
      "hash": "0x273ae06be0ce0612abcab831b5c430cc3c48bf0738eb538768bf555a7777b16c",
      "transactionType": "CALL",
      "contractName": null,
      "contractAddress": "0x3b1930860a0a109a3e66276332991081d9f3bc40",
      "function": "mint(uint256)",
      "arguments": [
        "6"
      ],
      "transaction": {
        "from": "0x8f088eca0009ad61fb94a6d7e9a5d7a087c08564",
        "to": "0x3b1930860a0a109a3e66276332991081d9f3bc40",
        "gas": "0x2419c",
        "value": "0x0",
        "input": "0xa0712d680000000000000000000000000000000000000000000000000000000000000006",
        "nonce": "0xa68",
        "chainId": "0x14a34"
      },
      "additionalContracts": [],
      "isFixedGasLimit": false
    },
    {
      "hash": "0xd669cbab910f8cde3f7991aa33af598c1169d44e2ca2d779f728be9282241582",
      "transactionType": "CALL",
      "contractName": null,
      "contractAddress": "0x3b1930860a0a109a3e66276332991081d9f3bc40",
      "function": "mint(uint256)",
      "arguments": [
        "6"
      ],
      "transaction": {
        "from": "0x8f088eca0009ad61fb94a6d7e9a5d7a087c08564",
        "to": "0x3b1930860a0a109a3e66276332991081d9f3bc40",
        "gas": "0x2419c",
        "value": "0x0",
        "input": "0xa0712d680000000000000000000000000000000000000000000000000000000000000006",
        "nonce": "0xa69",
        "chainId": "0x14a34"
      },
      "additionalContracts": [],
      "isFixedGasLimit": false
    },
    {
      "hash": "0xed8c90b1c203ee921c1e964d174c1862429e355f787b5b76e3387e850ae715ad",
      "transactionType": "CALL",
      "contractName": null,
      "contractAddress": "0x3b1930860a0a109a3e66276332991081d9f3bc40",
      "function": "mint(uint256)",
      "arguments": [
        "6"
      ],
      "transaction": {
        "from": "0x8f088eca0009ad61fb94a6d7e9a5d7a087c08564",
        "to": "0x3b1930860a0a109a3e66276332991081d9f3bc40",
        "gas": "0x2419c",
        "value": "0x0",
        "input": "0xa0712d680000000000000000000000000000000000000000000000000000000000000006",
        "nonce": "0xa6a",
        "chainId": "0x14a34"
      },
      "additionalContracts": [],
      "isFixedGasLimit": false
    },
    {
      "hash": "0x5af731303afbff2d6bc1c57d310bb5de368387c0bfa6245cb7c3949f7d7cc3fa",
      "transactionType": "CALL",
      "contractName": null,
      "contractAddress": "0x3b1930860a0a109a3e66276332991081d9f3bc40",
      "function": "mint(uint256)",
      "arguments": [
        "6"
      ],
      "transaction": {
        "from": "0x8f088eca0009ad61fb94a6d7e9a5d7a087c08564",
        "to": "0x3b1930860a0a109a3e66276332991081d9f3bc40",
        "gas": "0x2419c",
        "value": "0x0",
        "input": "0xa0712d680000000000000000000000000000000000000000000000000000000000000006",
        "nonce": "0xa6b",
        "chainId": "0x14a34"
      },
      "additionalContracts": [],
      "isFixedGasLimit": false
    },
    {
      "hash": "0xbe1f48f8856fcb97c6f5dd466acd95c383444ea2ca658386dc3b456c2379e0a2",
      "transactionType": "CALL",
      "contractName": null,
      "contractAddress": "0x3b1930860a0a109a3e66276332991081d9f3bc40",
      "function": "mint(uint256)",
      "arguments": [
        "6"
      ],
      "transaction": {
        "from": "0x8f088eca0009ad61fb94a6d7e9a5d7a087c08564",
        "to": "0x3b1930860a0a109a3e66276332991081d9f3bc40",
        "gas": "0x2419c",
        "value": "0x0",
        "input": "0xa0712d680000000000000000000000000000000000000000000000000000000000000006",
        "nonce": "0xa6c",
        "chainId": "0x14a34"
      },
      "additionalContracts": [],
      "isFixedGasLimit": false
    },
    {
      "hash": "0xa2df923889dd3c1fab09174e6a44a0ea787cc32076f72ca1ad4c880a038f2aff",
      "transactionType": "CALL",
      "contractName": null,
      "contractAddress": "0x3b1930860a0a109a3e66276332991081d9f3bc40",
      "function": "mint(uint256)",
      "arguments": [
        "6"
      ],
      "transaction": {
        "from": "0x8f088eca0009ad61fb94a6d7e9a5d7a087c08564",
        "to": "0x3b1930860a0a109a3e66276332991081d9f3bc40",
        "gas": "0x2419c",
        "value": "0x0",
        "input": "0xa0712d680000000000000000000000000000000000000000000000000000000000000006",
        "nonce": "0xa6d",
        "chainId": "0x14a34"
      },
      "additionalContracts": [],
      "isFixedGasLimit": false
    },
    {
      "hash": "0x0c8a188cc8d7f1dfe2567734e6f93d69a3d64b5cc6b16a287ce50c8b2e8b5be9",
      "transactionType": "CALL",
      "contractName": null,
      "contractAddress": "0x3b1930860a0a109a3e66276332991081d9f3bc40",
      "function": "mint(uint256)",
      "arguments": [
        "6"
      ],
      "transaction": {
        "from": "0x8f088eca0009ad61fb94a6d7e9a5d7a087c08564",
        "to": "0x3b1930860a0a109a3e66276332991081d9f3bc40",
        "gas": "0x2419c",
        "value": "0x0",
        "input": "0xa0712d680000000000000000000000000000000000000000000000000000000000000006",
        "nonce": "0xa6e",
        "chainId": "0x14a34"
      },
      "additionalContracts": [],
      "isFixedGasLimit": false
    },
    {
      "hash": "0xef2a5931f5e7afe3597c532d7541d860819ed3d699cf6fe2a622505210eb3833",
      "transactionType": "CALL",
      "contractName": null,
      "contractAddress": "0x3b1930860a0a109a3e66276332991081d9f3bc40",
      "function": "mint(uint256)",
      "arguments": [
        "6"
      ],
      "transaction": {
        "from": "0x8f088eca0009ad61fb94a6d7e9a5d7a087c08564",
        "to": "0x3b1930860a0a109a3e66276332991081d9f3bc40",
        "gas": "0x2419c",
        "value": "0x0",
        "input": "0xa0712d680000000000000000000000000000000000000000000000000000000000000006",
        "nonce": "0xa6f",
        "chainId": "0x14a34"
      },
      "additionalContracts": [],
      "isFixedGasLimit": false
    },
    {
      "hash": "0x1553464b3f4a8fcc3a75a098529b0088f2a068b041a570fc5be37041e153cdae",
      "transactionType": "CALL",
      "contractName": null,
      "contractAddress": "0x3b1930860a0a109a3e66276332991081d9f3bc40",
      "function": "mint(uint256)",
      "arguments": [
        "6"
      ],
      "transaction": {
        "from": "0x8f088eca0009ad61fb94a6d7e9a5d7a087c08564",
        "to": "0x3b1930860a0a109a3e66276332991081d9f3bc40",
        "gas": "0x2419c",
        "value": "0x0",
        "input": "0xa0712d680000000000000000000000000000000000000000000000000000000000000006",
        "nonce": "0xa70",
        "chainId": "0x14a34"
      },
      "additionalContracts": [],
      "isFixedGasLimit": false
    },
    {
      "hash": "0xeeaed89aff51758a8ace0fcfa70aab53f25f423ed5c848d1c173c04c62ab71b4",
      "transactionType": "CALL",
      "contractName": null,
      "contractAddress": "0x3b1930860a0a109a3e66276332991081d9f3bc40",
      "function": "mint(uint256)",
      "arguments": [
        "6"
      ],
      "transaction": {
        "from": "0x8f088eca0009ad61fb94a6d7e9a5d7a087c08564",
        "to": "0x3b1930860a0a109a3e66276332991081d9f3bc40",
        "gas": "0x2419c",
        "value": "0x0",
        "input": "0xa0712d680000000000000000000000000000000000000000000000000000000000000006",
        "nonce": "0xa71",
        "chainId": "0x14a34"
      },
      "additionalContracts": [],
      "isFixedGasLimit": false
    }
  ],
  "receipts": [
    {
      "status": "0x1",
      "cumulativeGasUsed": "0x679e9",
      "logs": [
        {
          "address": "0x3b1930860a0a109a3e66276332991081d9f3bc40",
          "topics": [
            "0xddf252ad1be2c89b69c2b068fc378daa952ba7f163c4a11628f55a4df523b3ef",
            "0x0000000000000000000000000000000000000000000000000000000000000000",
            "0x0000000000000000000000008f088eca0009ad61fb94a6d7e9a5d7a087c08564",
            "0x00000000000000000000000000000000000000000000000000000000005b8e0d"
          ],
          "data": "0x",
          "blockHash": "0xd4d5c01186e80b732712830225836c24114f7805b3dac8d918f4afc2c264bfc0",
          "blockNumber": "0x932602",
          "transactionHash": "0x273ae06be0ce0612abcab831b5c430cc3c48bf0738eb538768bf555a7777b16c",
          "transactionIndex": "0x7",
          "logIndex": "0x4",
          "removed": false
        }
      ],
      "logsBloom": "0x00000000000000000000000000000000000000000000000000000000000000000000000000100000000001000000000000000000000000000000000000000200000000000000000000000008000080000000000000000002000000000000000080000000020400000000000000000800000000000000000000000010000000000000000000000000000000000000000000000000000000000000000000000000000000000000000080000000000000000000000000000000000000400000000000000002000000000000000000000000000000000000000000000000000020000000000000000000000000000000000000000000000000000000000000000000",
      "type": "0x2",
      "transactionHash": "0x273ae06be0ce0612abcab831b5c430cc3c48bf0738eb538768bf555a7777b16c",
      "transactionIndex": "0x7",
      "blockHash": "0xd4d5c01186e80b732712830225836c24114f7805b3dac8d918f4afc2c264bfc0",
      "blockNumber": "0x932602",
      "gasUsed": "0x18af3",
      "effectiveGasPrice": "0xf4d35",
      "from": "0x8f088eca0009ad61fb94a6d7e9a5d7a087c08564",
      "to": "0x3b1930860a0a109a3e66276332991081d9f3bc40",
      "contractAddress": null,
      "l1Fee": "0x683ec6da305d",
      "l1GasPrice": "0x2d4cb5dcf",
      "l1GasUsed": "0x7dc"
    },
    {
      "status": "0x1",
      "cumulativeGasUsed": "0x804dc",
      "logs": [
        {
          "address": "0x3b1930860a0a109a3e66276332991081d9f3bc40",
          "topics": [
            "0xddf252ad1be2c89b69c2b068fc378daa952ba7f163c4a11628f55a4df523b3ef",
            "0x0000000000000000000000000000000000000000000000000000000000000000",
            "0x0000000000000000000000008f088eca0009ad61fb94a6d7e9a5d7a087c08564",
            "0x00000000000000000000000000000000000000000000000000000000005b8e0e"
          ],
          "data": "0x",
          "blockHash": "0xd4d5c01186e80b732712830225836c24114f7805b3dac8d918f4afc2c264bfc0",
          "blockNumber": "0x932602",
          "transactionHash": "0xd669cbab910f8cde3f7991aa33af598c1169d44e2ca2d779f728be9282241582",
          "transactionIndex": "0x8",
          "logIndex": "0x5",
          "removed": false
        }
      ],
      "logsBloom": "0x00000000000000200000000000000000000000000000000000000000000002000000000000100000000001000000000000000000000000000010000000000200000000000000000000000008000080000000000000000000000000000000000080000000020000000000000000000800000000000000000000000010000000000000000000000000000000000000000000000000000000000000000000000000000000000000000000000000000000000000000000000000000000400000000000000002000000000000000000000000000000000000000000000000000020000000000000000000000000000000000000000000000000000000000000000000",
      "type": "0x2",
      "transactionHash": "0xd669cbab910f8cde3f7991aa33af598c1169d44e2ca2d779f728be9282241582",
      "transactionIndex": "0x8",
      "blockHash": "0xd4d5c01186e80b732712830225836c24114f7805b3dac8d918f4afc2c264bfc0",
      "blockNumber": "0x932602",
      "gasUsed": "0x18af3",
      "effectiveGasPrice": "0xf4d35",
      "from": "0x8f088eca0009ad61fb94a6d7e9a5d7a087c08564",
      "to": "0x3b1930860a0a109a3e66276332991081d9f3bc40",
      "contractAddress": null,
      "l1Fee": "0x683ec6da305d",
      "l1GasPrice": "0x2d4cb5dcf",
      "l1GasUsed": "0x7dc"
    },
    {
      "status": "0x1",
      "cumulativeGasUsed": "0x98fcf",
      "logs": [
        {
          "address": "0x3b1930860a0a109a3e66276332991081d9f3bc40",
          "topics": [
            "0xddf252ad1be2c89b69c2b068fc378daa952ba7f163c4a11628f55a4df523b3ef",
            "0x0000000000000000000000000000000000000000000000000000000000000000",
            "0x0000000000000000000000008f088eca0009ad61fb94a6d7e9a5d7a087c08564",
            "0x00000000000000000000000000000000000000000000000000000000005b8e0f"
          ],
          "data": "0x",
          "blockHash": "0xd4d5c01186e80b732712830225836c24114f7805b3dac8d918f4afc2c264bfc0",
          "blockNumber": "0x932602",
          "transactionHash": "0xed8c90b1c203ee921c1e964d174c1862429e355f787b5b76e3387e850ae715ad",
          "transactionIndex": "0x9",
          "logIndex": "0x6",
          "removed": false
        }
      ],
      "logsBloom": "0x00000000000000000000000000000000040000000000000000000000000000000000000000100000000001000000000000000000000000000000000000000200000000000000000000000008000080000000000000000000000000000000001080000000020000000000000000000800000000000000000000000010000000000000000000000000000000000000000000000000000000000000000000000000000000000000000000000000000000000000000000000000000000400000000000002002000000000000000000000000000000000000000000000000000020000000000000000000000000000000000000000000000000000000000000000000",
      "type": "0x2",
      "transactionHash": "0xed8c90b1c203ee921c1e964d174c1862429e355f787b5b76e3387e850ae715ad",
      "transactionIndex": "0x9",
      "blockHash": "0xd4d5c01186e80b732712830225836c24114f7805b3dac8d918f4afc2c264bfc0",
      "blockNumber": "0x932602",
      "gasUsed": "0x18af3",
      "effectiveGasPrice": "0xf4d35",
      "from": "0x8f088eca0009ad61fb94a6d7e9a5d7a087c08564",
      "to": "0x3b1930860a0a109a3e66276332991081d9f3bc40",
      "contractAddress": null,
      "l1Fee": "0x683ec6da305d",
      "l1GasPrice": "0x2d4cb5dcf",
      "l1GasUsed": "0x7dc"
    },
    {
      "status": "0x1",
      "cumulativeGasUsed": "0xb1ac2",
      "logs": [
        {
          "address": "0x3b1930860a0a109a3e66276332991081d9f3bc40",
          "topics": [
            "0xddf252ad1be2c89b69c2b068fc378daa952ba7f163c4a11628f55a4df523b3ef",
            "0x0000000000000000000000000000000000000000000000000000000000000000",
            "0x0000000000000000000000008f088eca0009ad61fb94a6d7e9a5d7a087c08564",
            "0x00000000000000000000000000000000000000000000000000000000005b8e10"
          ],
          "data": "0x",
          "blockHash": "0xd4d5c01186e80b732712830225836c24114f7805b3dac8d918f4afc2c264bfc0",
          "blockNumber": "0x932602",
          "transactionHash": "0x5af731303afbff2d6bc1c57d310bb5de368387c0bfa6245cb7c3949f7d7cc3fa",
          "transactionIndex": "0xa",
          "logIndex": "0x7",
          "removed": false
        }
      ],
      "logsBloom": "0x00000000000000000000000000000000000000000000000000000000000000000000000000100000000001000000000000000000000000000000000000000200000000000000000000000008000080000000000000000000000000000000000080000000020000000000000000000800000000000000000000000010000000000000000000000000000000000000000000000000000000000000000000000000000000000000000000000000000000000000000000000000000000400000000000000002000000000000000000000000000030000000000000000000000020000000000000000000000000020000000000000000000000000000000000000000",
      "type": "0x2",
      "transactionHash": "0x5af731303afbff2d6bc1c57d310bb5de368387c0bfa6245cb7c3949f7d7cc3fa",
      "transactionIndex": "0xa",
      "blockHash": "0xd4d5c01186e80b732712830225836c24114f7805b3dac8d918f4afc2c264bfc0",
      "blockNumber": "0x932602",
      "gasUsed": "0x18af3",
      "effectiveGasPrice": "0xf4d35",
      "from": "0x8f088eca0009ad61fb94a6d7e9a5d7a087c08564",
      "to": "0x3b1930860a0a109a3e66276332991081d9f3bc40",
      "contractAddress": null,
      "l1Fee": "0x683ec6da305d",
      "l1GasPrice": "0x2d4cb5dcf",
      "l1GasUsed": "0x7dc"
    },
    {
      "status": "0x1",
      "cumulativeGasUsed": "0xca5b5",
      "logs": [
        {
          "address": "0x3b1930860a0a109a3e66276332991081d9f3bc40",
          "topics": [
            "0xddf252ad1be2c89b69c2b068fc378daa952ba7f163c4a11628f55a4df523b3ef",
            "0x0000000000000000000000000000000000000000000000000000000000000000",
            "0x0000000000000000000000008f088eca0009ad61fb94a6d7e9a5d7a087c08564",
            "0x00000000000000000000000000000000000000000000000000000000005b8e11"
          ],
          "data": "0x",
          "blockHash": "0xd4d5c01186e80b732712830225836c24114f7805b3dac8d918f4afc2c264bfc0",
          "blockNumber": "0x932602",
          "transactionHash": "0xbe1f48f8856fcb97c6f5dd466acd95c383444ea2ca658386dc3b456c2379e0a2",
          "transactionIndex": "0xb",
          "logIndex": "0x8",
          "removed": false
        }
      ],
      "logsBloom": "0x00000000000000000000000000000000000000000000000000100000000000000000000000100000000001000000000000000000000000000000000000000200000002000000000000000008000080000000000000000000000000000000000080000000020000000000000000000800000000000000000000000010000000000000000000000000000000000000000000000000000000000000000000000000000000000000000000000000000000000000000000000000000000400000000000000002000000000000000000000000000000000000000000000000000020000000000000000000000000000000000000000000000000000000000000000002",
      "type": "0x2",
      "transactionHash": "0xbe1f48f8856fcb97c6f5dd466acd95c383444ea2ca658386dc3b456c2379e0a2",
      "transactionIndex": "0xb",
      "blockHash": "0xd4d5c01186e80b732712830225836c24114f7805b3dac8d918f4afc2c264bfc0",
      "blockNumber": "0x932602",
      "gasUsed": "0x18af3",
      "effectiveGasPrice": "0xf4d35",
      "from": "0x8f088eca0009ad61fb94a6d7e9a5d7a087c08564",
      "to": "0x3b1930860a0a109a3e66276332991081d9f3bc40",
      "contractAddress": null,
      "l1Fee": "0x683ec6da305d",
      "l1GasPrice": "0x2d4cb5dcf",
      "l1GasUsed": "0x7dc"
    },
    {
      "status": "0x1",
      "cumulativeGasUsed": "0xe30a8",
      "logs": [
        {
          "address": "0x3b1930860a0a109a3e66276332991081d9f3bc40",
          "topics": [
            "0xddf252ad1be2c89b69c2b068fc378daa952ba7f163c4a11628f55a4df523b3ef",
            "0x0000000000000000000000000000000000000000000000000000000000000000",
            "0x0000000000000000000000008f088eca0009ad61fb94a6d7e9a5d7a087c08564",
            "0x00000000000000000000000000000000000000000000000000000000005b8e12"
          ],
          "data": "0x",
          "blockHash": "0xd4d5c01186e80b732712830225836c24114f7805b3dac8d918f4afc2c264bfc0",
          "blockNumber": "0x932602",
          "transactionHash": "0xa2df923889dd3c1fab09174e6a44a0ea787cc32076f72ca1ad4c880a038f2aff",
          "transactionIndex": "0xc",
          "logIndex": "0x9",
          "removed": false
        }
      ],
      "logsBloom": "0x00000000000000000000000000000000000000000000000000000000000000000000000000100000020001000000000000000000000000000000000000000200000000000000000000000008000080000000000000000100000000000000000080000000020000000000000000000800000000000000000000000010000000000000000000000000000000000000000000000000000000000000000000000000000000000000000000000000000000000000000000000000000000400000000000000002000000000000000000000000000000000000000000000000000020004000000000000000000000000000000000000000000000000000000000000000",
      "type": "0x2",
      "transactionHash": "0xa2df923889dd3c1fab09174e6a44a0ea787cc32076f72ca1ad4c880a038f2aff",
      "transactionIndex": "0xc",
      "blockHash": "0xd4d5c01186e80b732712830225836c24114f7805b3dac8d918f4afc2c264bfc0",
      "blockNumber": "0x932602",
      "gasUsed": "0x18af3",
      "effectiveGasPrice": "0xf4d35",
      "from": "0x8f088eca0009ad61fb94a6d7e9a5d7a087c08564",
      "to": "0x3b1930860a0a109a3e66276332991081d9f3bc40",
      "contractAddress": null,
      "l1Fee": "0x683ec6da305d",
      "l1GasPrice": "0x2d4cb5dcf",
      "l1GasUsed": "0x7dc"
    },
    {
      "status": "0x1",
      "cumulativeGasUsed": "0xfbb9b",
      "logs": [
        {
          "address": "0x3b1930860a0a109a3e66276332991081d9f3bc40",
          "topics": [
            "0xddf252ad1be2c89b69c2b068fc378daa952ba7f163c4a11628f55a4df523b3ef",
            "0x0000000000000000000000000000000000000000000000000000000000000000",
            "0x0000000000000000000000008f088eca0009ad61fb94a6d7e9a5d7a087c08564",
            "0x00000000000000000000000000000000000000000000000000000000005b8e13"
          ],
          "data": "0x",
          "blockHash": "0xd4d5c01186e80b732712830225836c24114f7805b3dac8d918f4afc2c264bfc0",
          "blockNumber": "0x932602",
          "transactionHash": "0x0c8a188cc8d7f1dfe2567734e6f93d69a3d64b5cc6b16a287ce50c8b2e8b5be9",
          "transactionIndex": "0xd",
          "logIndex": "0xa",
          "removed": false
        }
      ],
      "logsBloom": "0x00000000000000000000000000000000000000000000000000000000000008000000000000100000000001000000000000000000000000000000000000000204000000000000000000000008000080000000000000000000000000000000000080000000020000000000000000000800000000000000000000000010000000000000000000000000000000000000000000000000000000000000000000000000000000000000000000000000000000000000000000000000000000400000000000000002000000000000000000000000000010000000000000000000000020000000000000000000000000000000000000000000000000000000000000000000",
      "type": "0x2",
      "transactionHash": "0x0c8a188cc8d7f1dfe2567734e6f93d69a3d64b5cc6b16a287ce50c8b2e8b5be9",
      "transactionIndex": "0xd",
      "blockHash": "0xd4d5c01186e80b732712830225836c24114f7805b3dac8d918f4afc2c264bfc0",
      "blockNumber": "0x932602",
      "gasUsed": "0x18af3",
      "effectiveGasPrice": "0xf4d35",
      "from": "0x8f088eca0009ad61fb94a6d7e9a5d7a087c08564",
      "to": "0x3b1930860a0a109a3e66276332991081d9f3bc40",
      "contractAddress": null,
      "l1Fee": "0x683ec6da305d",
      "l1GasPrice": "0x2d4cb5dcf",
      "l1GasUsed": "0x7dc"
    },
    {
      "status": "0x1",
      "cumulativeGasUsed": "0x11468e",
      "logs": [
        {
          "address": "0x3b1930860a0a109a3e66276332991081d9f3bc40",
          "topics": [
            "0xddf252ad1be2c89b69c2b068fc378daa952ba7f163c4a11628f55a4df523b3ef",
            "0x0000000000000000000000000000000000000000000000000000000000000000",
            "0x0000000000000000000000008f088eca0009ad61fb94a6d7e9a5d7a087c08564",
            "0x00000000000000000000000000000000000000000000000000000000005b8e14"
          ],
          "data": "0x",
          "blockHash": "0xd4d5c01186e80b732712830225836c24114f7805b3dac8d918f4afc2c264bfc0",
          "blockNumber": "0x932602",
          "transactionHash": "0xef2a5931f5e7afe3597c532d7541d860819ed3d699cf6fe2a622505210eb3833",
          "transactionIndex": "0xe",
          "logIndex": "0xb",
          "removed": false
        }
      ],
      "logsBloom": "0x00000000000000000000000000000000000000000000000000000000000000000000000000100000000001000000000001000000000000000000000000000200000000000000000000000008000080000004000000000000000000000000000080000000020000000000000000000800000000000000000000000010000000000000000000000000000000000000200000000000000000000000000000000000000000000000000000000000000000000000000000000000000000400000000000000002000000000000000000000000000000000000000000000000000020000000000000000000000000000000000000000000000000000000000000000000",
      "type": "0x2",
      "transactionHash": "0xef2a5931f5e7afe3597c532d7541d860819ed3d699cf6fe2a622505210eb3833",
      "transactionIndex": "0xe",
      "blockHash": "0xd4d5c01186e80b732712830225836c24114f7805b3dac8d918f4afc2c264bfc0",
      "blockNumber": "0x932602",
      "gasUsed": "0x18af3",
      "effectiveGasPrice": "0xf4d35",
      "from": "0x8f088eca0009ad61fb94a6d7e9a5d7a087c08564",
      "to": "0x3b1930860a0a109a3e66276332991081d9f3bc40",
      "contractAddress": null,
      "l1Fee": "0x683ec6da305d",
      "l1GasPrice": "0x2d4cb5dcf",
      "l1GasUsed": "0x7dc"
    },
    {
      "status": "0x1",
      "cumulativeGasUsed": "0x12d181",
      "logs": [
        {
          "address": "0x3b1930860a0a109a3e66276332991081d9f3bc40",
          "topics": [
            "0xddf252ad1be2c89b69c2b068fc378daa952ba7f163c4a11628f55a4df523b3ef",
            "0x0000000000000000000000000000000000000000000000000000000000000000",
            "0x0000000000000000000000008f088eca0009ad61fb94a6d7e9a5d7a087c08564",
            "0x00000000000000000000000000000000000000000000000000000000005b8e15"
          ],
          "data": "0x",
          "blockHash": "0xd4d5c01186e80b732712830225836c24114f7805b3dac8d918f4afc2c264bfc0",
          "blockNumber": "0x932602",
          "transactionHash": "0x1553464b3f4a8fcc3a75a098529b0088f2a068b041a570fc5be37041e153cdae",
          "transactionIndex": "0xf",
          "logIndex": "0xc",
          "removed": false
        }
      ],
      "logsBloom": "0x00000000000000000000000000000000000000000000000000000000000000000000000000100000000001000000000000000000000000000000000000000200000000000000000000000008000080000000000000000000000000100000000080000000020000000000000000000800000000000000000000000010000000000000000000000000000000000000000000000010000000000000000000000000000000000000000000000000000000000000000000000000000000400000000000000002000000000000000000000000000000000000000000000000000020000000000000002000000000000000000000000000000000000000000000000000",
      "type": "0x2",
      "transactionHash": "0x1553464b3f4a8fcc3a75a098529b0088f2a068b041a570fc5be37041e153cdae",
      "transactionIndex": "0xf",
      "blockHash": "0xd4d5c01186e80b732712830225836c24114f7805b3dac8d918f4afc2c264bfc0",
      "blockNumber": "0x932602",
      "gasUsed": "0x18af3",
      "effectiveGasPrice": "0xf4d35",
      "from": "0x8f088eca0009ad61fb94a6d7e9a5d7a087c08564",
      "to": "0x3b1930860a0a109a3e66276332991081d9f3bc40",
      "contractAddress": null,
      "l1Fee": "0x683ec6da305d",
      "l1GasPrice": "0x2d4cb5dcf",
      "l1GasUsed": "0x7dc"
    },
    {
      "status": "0x1",
      "cumulativeGasUsed": "0x145c74",
      "logs": [
        {
          "address": "0x3b1930860a0a109a3e66276332991081d9f3bc40",
          "topics": [
            "0xddf252ad1be2c89b69c2b068fc378daa952ba7f163c4a11628f55a4df523b3ef",
            "0x0000000000000000000000000000000000000000000000000000000000000000",
            "0x0000000000000000000000008f088eca0009ad61fb94a6d7e9a5d7a087c08564",
            "0x00000000000000000000000000000000000000000000000000000000005b8e16"
          ],
          "data": "0x",
          "blockHash": "0xd4d5c01186e80b732712830225836c24114f7805b3dac8d918f4afc2c264bfc0",
          "blockNumber": "0x932602",
          "transactionHash": "0xeeaed89aff51758a8ace0fcfa70aab53f25f423ed5c848d1c173c04c62ab71b4",
          "transactionIndex": "0x10",
          "logIndex": "0xd",
          "removed": false
        }
      ],
      "logsBloom": "0x00000000000000000000000000000000000000000000000000000000000000000000000000100000000001000000000000000000000000000000000000000200000000000000000000000008000080000000000000000000000000000000000080000000020000000000000000000800000000000000000000000010000000000000000000000000010000000000000000000000000004000000000000000000000000000000000000000000000000000000000000000000000000400000000000000002000000000000000000000000000000000000000000000000000020000000000000000000000000000000000000000000000000001000000000000000",
      "type": "0x2",
      "transactionHash": "0xeeaed89aff51758a8ace0fcfa70aab53f25f423ed5c848d1c173c04c62ab71b4",
      "transactionIndex": "0x10",
      "blockHash": "0xd4d5c01186e80b732712830225836c24114f7805b3dac8d918f4afc2c264bfc0",
      "blockNumber": "0x932602",
      "gasUsed": "0x18af3",
      "effectiveGasPrice": "0xf4d35",
      "from": "0x8f088eca0009ad61fb94a6d7e9a5d7a087c08564",
      "to": "0x3b1930860a0a109a3e66276332991081d9f3bc40",
      "contractAddress": null,
      "l1Fee": "0x679f9c711003",
      "l1GasPrice": "0x2d4cb5dcf",
      "l1GasUsed": "0x7d0"
    }
  ],
  "libraries": [],
  "pending": [],
  "returns": {},
  "timestamp": 1715055162,
  "chain": 84532,
  "commit": "3e641a5"
}