{
  "transactions": [
    {
      "hash": "0x06333f58e99cc61cf5c553a9c7fde612f388bced736accb3295bd8cdc7c1d580",
      "transactionType": "CALL",
      "contractName": null,
      "contractAddress": "0xe2b6353511c5374b77aa67a1b1a9f2ede7dc1ea7",
      "function": "mint(uint256)",
      "arguments": [
        "4"
      ],
      "transaction": {
        "from": "0x8f088eca0009ad61fb94a6d7e9a5d7a087c08564",
        "to": "0xe2b6353511c5374b77aa67a1b1a9f2ede7dc1ea7",
        "gas": "0x22195",
        "value": "0x0",
        "input": "0xa0712d680000000000000000000000000000000000000000000000000000000000000004",
        "nonce": "0xc99",
        "chainId": "0x14a34"
      },
      "additionalContracts": [],
      "isFixedGasLimit": false
    },
    {
      "hash": "0x0bdf123cf4dbc57dcdab4ee013763101c71ab97d092d67bf751e0f5f48b601ed",
      "transactionType": "CALL",
      "contractName": null,
      "contractAddress": "0xe2b6353511c5374b77aa67a1b1a9f2ede7dc1ea7",
      "function": "mint(uint256)",
      "arguments": [
        "4"
      ],
      "transaction": {
        "from": "0x8f088eca0009ad61fb94a6d7e9a5d7a087c08564",
        "to": "0xe2b6353511c5374b77aa67a1b1a9f2ede7dc1ea7",
        "gas": "0x22195",
        "value": "0x0",
        "input": "0xa0712d680000000000000000000000000000000000000000000000000000000000000004",
        "nonce": "0xc9a",
        "chainId": "0x14a34"
      },
      "additionalContracts": [],
      "isFixedGasLimit": false
    },
    {
      "hash": "0x5e8579d747a7a00c373bdece69c8dee5b10d8bb30dfabff93e4a3c4f7eca03e6",
      "transactionType": "CALL",
      "contractName": null,
      "contractAddress": "0xe2b6353511c5374b77aa67a1b1a9f2ede7dc1ea7",
      "function": "mint(uint256)",
      "arguments": [
        "4"
      ],
      "transaction": {
        "from": "0x8f088eca0009ad61fb94a6d7e9a5d7a087c08564",
        "to": "0xe2b6353511c5374b77aa67a1b1a9f2ede7dc1ea7",
        "gas": "0x22195",
        "value": "0x0",
        "input": "0xa0712d680000000000000000000000000000000000000000000000000000000000000004",
        "nonce": "0xc9b",
        "chainId": "0x14a34"
      },
      "additionalContracts": [],
      "isFixedGasLimit": false
    },
    {
      "hash": "0x98239c00285e93183cc752aa9ca353e3f3cbec2a1737694f40897b5e1696d883",
      "transactionType": "CALL",
      "contractName": null,
      "contractAddress": "0xe2b6353511c5374b77aa67a1b1a9f2ede7dc1ea7",
      "function": "mint(uint256)",
      "arguments": [
        "4"
      ],
      "transaction": {
        "from": "0x8f088eca0009ad61fb94a6d7e9a5d7a087c08564",
        "to": "0xe2b6353511c5374b77aa67a1b1a9f2ede7dc1ea7",
        "gas": "0x22195",
        "value": "0x0",
        "input": "0xa0712d680000000000000000000000000000000000000000000000000000000000000004",
        "nonce": "0xc9c",
        "chainId": "0x14a34"
      },
      "additionalContracts": [],
      "isFixedGasLimit": false
    },
    {
      "hash": "0x96cbfe8122f6fc4b19c0e9ac96a1edfbc58c43472440be9b7408de374a35f5fb",
      "transactionType": "CALL",
      "contractName": null,
      "contractAddress": "0xe2b6353511c5374b77aa67a1b1a9f2ede7dc1ea7",
      "function": "mint(uint256)",
      "arguments": [
        "4"
      ],
      "transaction": {
        "from": "0x8f088eca0009ad61fb94a6d7e9a5d7a087c08564",
        "to": "0xe2b6353511c5374b77aa67a1b1a9f2ede7dc1ea7",
        "gas": "0x22195",
        "value": "0x0",
        "input": "0xa0712d680000000000000000000000000000000000000000000000000000000000000004",
        "nonce": "0xc9d",
        "chainId": "0x14a34"
      },
      "additionalContracts": [],
      "isFixedGasLimit": false
    },
    {
      "hash": "0xb2a0b5f0f27c9330fbcc222a23e859459797c4aef67aab4841deeac1854d1c66",
      "transactionType": "CALL",
      "contractName": null,
      "contractAddress": "0xe2b6353511c5374b77aa67a1b1a9f2ede7dc1ea7",
      "function": "mint(uint256)",
      "arguments": [
        "4"
      ],
      "transaction": {
        "from": "0x8f088eca0009ad61fb94a6d7e9a5d7a087c08564",
        "to": "0xe2b6353511c5374b77aa67a1b1a9f2ede7dc1ea7",
        "gas": "0x22195",
        "value": "0x0",
        "input": "0xa0712d680000000000000000000000000000000000000000000000000000000000000004",
        "nonce": "0xc9e",
        "chainId": "0x14a34"
      },
      "additionalContracts": [],
      "isFixedGasLimit": false
    },
    {
      "hash": "0x944d5653e36413a60934757b386d00f0072aecab2a0a6faad5b5bacd3279c456",
      "transactionType": "CALL",
      "contractName": null,
      "contractAddress": "0xe2b6353511c5374b77aa67a1b1a9f2ede7dc1ea7",
      "function": "mint(uint256)",
      "arguments": [
        "4"
      ],
      "transaction": {
        "from": "0x8f088eca0009ad61fb94a6d7e9a5d7a087c08564",
        "to": "0xe2b6353511c5374b77aa67a1b1a9f2ede7dc1ea7",
        "gas": "0x22195",
        "value": "0x0",
        "input": "0xa0712d680000000000000000000000000000000000000000000000000000000000000004",
        "nonce": "0xc9f",
        "chainId": "0x14a34"
      },
      "additionalContracts": [],
      "isFixedGasLimit": false
    },
    {
      "hash": "0x9023746c7e796e138cd11c94a3e2f9a4616285e2ed03cff4eef0f1af4d06e37c",
      "transactionType": "CALL",
      "contractName": null,
      "contractAddress": "0xe2b6353511c5374b77aa67a1b1a9f2ede7dc1ea7",
      "function": "mint(uint256)",
      "arguments": [
        "4"
      ],
      "transaction": {
        "from": "0x8f088eca0009ad61fb94a6d7e9a5d7a087c08564",
        "to": "0xe2b6353511c5374b77aa67a1b1a9f2ede7dc1ea7",
        "gas": "0x22195",
        "value": "0x0",
        "input": "0xa0712d680000000000000000000000000000000000000000000000000000000000000004",
        "nonce": "0xca0",
        "chainId": "0x14a34"
      },
      "additionalContracts": [],
      "isFixedGasLimit": false
    },
    {
      "hash": "0x4f3ed86991fbbe5340e91ae90cae454940f591bf6bcdc223adf985d5bf4694c5",
      "transactionType": "CALL",
      "contractName": null,
      "contractAddress": "0xe2b6353511c5374b77aa67a1b1a9f2ede7dc1ea7",
      "function": "mint(uint256)",
      "arguments": [
        "4"
      ],
      "transaction": {
        "from": "0x8f088eca0009ad61fb94a6d7e9a5d7a087c08564",
        "to": "0xe2b6353511c5374b77aa67a1b1a9f2ede7dc1ea7",
        "gas": "0x22195",
        "value": "0x0",
        "input": "0xa0712d680000000000000000000000000000000000000000000000000000000000000004",
        "nonce": "0xca1",
        "chainId": "0x14a34"
      },
      "additionalContracts": [],
      "isFixedGasLimit": false
    },
    {
      "hash": "0xf005edbfc2eae616725cc9577adaea99c7fb3d8de2a1bcdf363ef6e13d9029b6",
      "transactionType": "CALL",
      "contractName": null,
      "contractAddress": "0xe2b6353511c5374b77aa67a1b1a9f2ede7dc1ea7",
      "function": "mint(uint256)",
      "arguments": [
        "4"
      ],
      "transaction": {
        "from": "0x8f088eca0009ad61fb94a6d7e9a5d7a087c08564",
        "to": "0xe2b6353511c5374b77aa67a1b1a9f2ede7dc1ea7",
        "gas": "0x22195",
        "value": "0x0",
        "input": "0xa0712d680000000000000000000000000000000000000000000000000000000000000004",
        "nonce": "0xca2",
        "chainId": "0x14a34"
      },
      "additionalContracts": [],
      "isFixedGasLimit": false
    },
    {
      "hash": "0x1793ab08817de6d31092999660b7fd1261b71e2db2dc7f06385d1661199858bc",
      "transactionType": "CALL",
      "contractName": null,
      "contractAddress": "0xe2b6353511c5374b77aa67a1b1a9f2ede7dc1ea7",
      "function": "mint(uint256)",
      "arguments": [
        "4"
      ],
      "transaction": {
        "from": "0x8f088eca0009ad61fb94a6d7e9a5d7a087c08564",
        "to": "0xe2b6353511c5374b77aa67a1b1a9f2ede7dc1ea7",
        "gas": "0x22195",
        "value": "0x0",
        "input": "0xa0712d680000000000000000000000000000000000000000000000000000000000000004",
        "nonce": "0xca3",
        "chainId": "0x14a34"
      },
      "additionalContracts": [],
      "isFixedGasLimit": false
    },
    {
      "hash": "0x9a1f67e3a4c79fd9c389823bec407aef31e16d1e2247d20305c44eb603bba3f0",
      "transactionType": "CALL",
      "contractName": null,
      "contractAddress": "0xe2b6353511c5374b77aa67a1b1a9f2ede7dc1ea7",
      "function": "mint(uint256)",
      "arguments": [
        "4"
      ],
      "transaction": {
        "from": "0x8f088eca0009ad61fb94a6d7e9a5d7a087c08564",
        "to": "0xe2b6353511c5374b77aa67a1b1a9f2ede7dc1ea7",
        "gas": "0x22195",
        "value": "0x0",
        "input": "0xa0712d680000000000000000000000000000000000000000000000000000000000000004",
        "nonce": "0xca4",
        "chainId": "0x14a34"
      },
      "additionalContracts": [],
      "isFixedGasLimit": false
    },
    {
      "hash": "0xa86723a5ae09d2c4489012d2533f50e64398e823b3f9ad9c5e7bb69192c25307",
      "transactionType": "CALL",
      "contractName": null,
      "contractAddress": "0xe2b6353511c5374b77aa67a1b1a9f2ede7dc1ea7",
      "function": "mint(uint256)",
      "arguments": [
        "4"
      ],
      "transaction": {
        "from": "0x8f088eca0009ad61fb94a6d7e9a5d7a087c08564",
        "to": "0xe2b6353511c5374b77aa67a1b1a9f2ede7dc1ea7",
        "gas": "0x22195",
        "value": "0x0",
        "input": "0xa0712d680000000000000000000000000000000000000000000000000000000000000004",
        "nonce": "0xca5",
        "chainId": "0x14a34"
      },
      "additionalContracts": [],
      "isFixedGasLimit": false
    },
    {
      "hash": "0xab4a916010bbb910ef72997db5b174527128944db486428ac568a350326a1472",
      "transactionType": "CALL",
      "contractName": null,
      "contractAddress": "0xe2b6353511c5374b77aa67a1b1a9f2ede7dc1ea7",
      "function": "mint(uint256)",
      "arguments": [
        "4"
      ],
      "transaction": {
        "from": "0x8f088eca0009ad61fb94a6d7e9a5d7a087c08564",
        "to": "0xe2b6353511c5374b77aa67a1b1a9f2ede7dc1ea7",
        "gas": "0x22195",
        "value": "0x0",
        "input": "0xa0712d680000000000000000000000000000000000000000000000000000000000000004",
        "nonce": "0xca6",
        "chainId": "0x14a34"
      },
      "additionalContracts": [],
      "isFixedGasLimit": false
    },
    {
      "hash": "0x6530d3c0a44db336068262b5c10a54d9061b6d3abc69334d9062c3ae70fd4052",
      "transactionType": "CALL",
      "contractName": null,
      "contractAddress": "0xe2b6353511c5374b77aa67a1b1a9f2ede7dc1ea7",
      "function": "mint(uint256)",
      "arguments": [
        "4"
      ],
      "transaction": {
        "from": "0x8f088eca0009ad61fb94a6d7e9a5d7a087c08564",
        "to": "0xe2b6353511c5374b77aa67a1b1a9f2ede7dc1ea7",
        "gas": "0x22195",
        "value": "0x0",
        "input": "0xa0712d680000000000000000000000000000000000000000000000000000000000000004",
        "nonce": "0xca7",
        "chainId": "0x14a34"
      },
      "additionalContracts": [],
      "isFixedGasLimit": false
    },
    {
      "hash": "0x25cc756f40a1ba17bf4ca736383a36a7faaf38733fbe56fd432996202c593873",
      "transactionType": "CALL",
      "contractName": null,
      "contractAddress": "0xe2b6353511c5374b77aa67a1b1a9f2ede7dc1ea7",
      "function": "mint(uint256)",
      "arguments": [
        "4"
      ],
      "transaction": {
        "from": "0x8f088eca0009ad61fb94a6d7e9a5d7a087c08564",
        "to": "0xe2b6353511c5374b77aa67a1b1a9f2ede7dc1ea7",
        "gas": "0x22195",
        "value": "0x0",
        "input": "0xa0712d680000000000000000000000000000000000000000000000000000000000000004",
        "nonce": "0xca8",
        "chainId": "0x14a34"
      },
      "additionalContracts": [],
      "isFixedGasLimit": false
    },
    {
      "hash": "0x5b1205f4ed57927df0a7bc45778d384144f89690e488fd31bec25eef8d1ce475",
      "transactionType": "CALL",
      "contractName": null,
      "contractAddress": "0xe2b6353511c5374b77aa67a1b1a9f2ede7dc1ea7",
      "function": "mint(uint256)",
      "arguments": [
        "4"
      ],
      "transaction": {
        "from": "0x8f088eca0009ad61fb94a6d7e9a5d7a087c08564",
        "to": "0xe2b6353511c5374b77aa67a1b1a9f2ede7dc1ea7",
        "gas": "0x22195",
        "value": "0x0",
        "input": "0xa0712d680000000000000000000000000000000000000000000000000000000000000004",
        "nonce": "0xca9",
        "chainId": "0x14a34"
      },
      "additionalContracts": [],
      "isFixedGasLimit": false
    },
    {
      "hash": "0x956001f1426bb65bbdc29d28850b4cabf2607e012481246b2cbf3df33fd55d4e",
      "transactionType": "CALL",
      "contractName": null,
      "contractAddress": "0xe2b6353511c5374b77aa67a1b1a9f2ede7dc1ea7",
      "function": "mint(uint256)",
      "arguments": [
        "4"
      ],
      "transaction": {
        "from": "0x8f088eca0009ad61fb94a6d7e9a5d7a087c08564",
        "to": "0xe2b6353511c5374b77aa67a1b1a9f2ede7dc1ea7",
        "gas": "0x22195",
        "value": "0x0",
        "input": "0xa0712d680000000000000000000000000000000000000000000000000000000000000004",
        "nonce": "0xcaa",
        "chainId": "0x14a34"
      },
      "additionalContracts": [],
      "isFixedGasLimit": false
    },
    {
      "hash": "0x29ca5ac579c146d1e1367701ce933927963eaea812d6a2a7202ab14556d0f050",
      "transactionType": "CALL",
      "contractName": null,
      "contractAddress": "0xe2b6353511c5374b77aa67a1b1a9f2ede7dc1ea7",
      "function": "mint(uint256)",
      "arguments": [
        "4"
      ],
      "transaction": {
        "from": "0x8f088eca0009ad61fb94a6d7e9a5d7a087c08564",
        "to": "0xe2b6353511c5374b77aa67a1b1a9f2ede7dc1ea7",
        "gas": "0x22195",
        "value": "0x0",
        "input": "0xa0712d680000000000000000000000000000000000000000000000000000000000000004",
        "nonce": "0xcab",
        "chainId": "0x14a34"
      },
      "additionalContracts": [],
      "isFixedGasLimit": false
    },
    {
      "hash": "0xf47add22afca9f72cccc4f55364831a3ffdac0a0ee02d53f4337744e1968b2ac",
      "transactionType": "CALL",
      "contractName": null,
      "contractAddress": "0xe2b6353511c5374b77aa67a1b1a9f2ede7dc1ea7",
      "function": "mint(uint256)",
      "arguments": [
        "4"
      ],
      "transaction": {
        "from": "0x8f088eca0009ad61fb94a6d7e9a5d7a087c08564",
        "to": "0xe2b6353511c5374b77aa67a1b1a9f2ede7dc1ea7",
        "gas": "0x22195",
        "value": "0x0",
        "input": "0xa0712d680000000000000000000000000000000000000000000000000000000000000004",
        "nonce": "0xcac",
        "chainId": "0x14a34"
      },
      "additionalContracts": [],
      "isFixedGasLimit": false
    }
  ],
  "receipts": [
    {
      "status": "0x1",
      "cumulativeGasUsed": "0xa3d8d",
      "logs": [
        {
          "address": "0xe2b6353511c5374b77aa67a1b1a9f2ede7dc1ea7",
          "topics": [
            "0xddf252ad1be2c89b69c2b068fc378daa952ba7f163c4a11628f55a4df523b3ef",
            "0x0000000000000000000000000000000000000000000000000000000000000000",
            "0x0000000000000000000000008f088eca0009ad61fb94a6d7e9a5d7a087c08564",
            "0x00000000000000000000000000000000000000000000000000000000003d091e"
          ],
          "data": "0x",
          "blockHash": "0x9ccf8a260e0a546408c090d2c025432e08892924644172c6b21591bec22e4190",
          "blockNumber": "0xa1596c",
          "transactionHash": "0x06333f58e99cc61cf5c553a9c7fde612f388bced736accb3295bd8cdc7c1d580",
          "transactionIndex": "0x4",
          "logIndex": "0x4",
          "removed": false
        }
      ],
      "logsBloom": "0x00000000000000000000000000002000000000000000000000000000000000000000000000100000000001000000000000000000000000000000020000000200000000000000000000000008000000000000000000000000000000000000000000000000020000000000000000000800000000008000000000000010000000000000000000100000000000000000000001000000000000000000000000000000000000000000000010000000000000000000000000000000000000000000000000000002000000000000000000000000000000000000000000000000000020000000000000000000000000000000000000000000000000000000000000000000",
      "type": "0x2",
      "transactionHash": "0x06333f58e99cc61cf5c553a9c7fde612f388bced736accb3295bd8cdc7c1d580",
      "transactionIndex": "0x4",
      "blockHash": "0x9ccf8a260e0a546408c090d2c025432e08892924644172c6b21591bec22e4190",
      "blockNumber": "0xa1596c",
      "gasUsed": "0x18aff",
      "effectiveGasPrice": "0x187bf",
      "from": "0x8f088eca0009ad61fb94a6d7e9a5d7a087c08564",
      "to": "0xe2b6353511c5374b77aa67a1b1a9f2ede7dc1ea7",
      "contractAddress": null,
      "l1BaseFeeScalar": "0x44d",
      "l1BlobBaseFee": "0x55e6d0c9fa8",
      "l1BlobBaseFeeScalar": "0xa118b",
      "l1Fee": "0x1bad95bdc6dde",
      "l1GasPrice": "0x22fbe6bf4",
      "l1GasUsed": "0x7d0"
    },
    {
      "status": "0x1",
      "cumulativeGasUsed": "0xfb893",
      "logs": [
        {
          "address": "0xe2b6353511c5374b77aa67a1b1a9f2ede7dc1ea7",
          "topics": [
            "0xddf252ad1be2c89b69c2b068fc378daa952ba7f163c4a11628f55a4df523b3ef",
            "0x0000000000000000000000000000000000000000000000000000000000000000",
            "0x0000000000000000000000008f088eca0009ad61fb94a6d7e9a5d7a087c08564",
            "0x00000000000000000000000000000000000000000000000000000000003d091f"
          ],
          "data": "0x",
          "blockHash": "0x9ccf8a260e0a546408c090d2c025432e08892924644172c6b21591bec22e4190",
          "blockNumber": "0xa1596c",
          "transactionHash": "0x0bdf123cf4dbc57dcdab4ee013763101c71ab97d092d67bf751e0f5f48b601ed",
          "transactionIndex": "0x6",
          "logIndex": "0x7",
          "removed": false
        }
      ],
      "logsBloom": "0x00000000000000000000000000000000000000000000000000000000000000000000000000100000000001000400000000000000000000000000020000000200000000000000000000000008100000000000000000000000000000000000000000000000020000000000000000000800000000008000000000000010000000000000000000000000000000000000000000000000000000000000000000000000000000000000000010000000000000000000000000000000000000000000000000000002000000000000000000000000000000000000000000000000000020000000000000100000000000000000000000000000000000000000000000000000",
      "type": "0x2",
      "transactionHash": "0x0bdf123cf4dbc57dcdab4ee013763101c71ab97d092d67bf751e0f5f48b601ed",
      "transactionIndex": "0x6",
      "blockHash": "0x9ccf8a260e0a546408c090d2c025432e08892924644172c6b21591bec22e4190",
      "blockNumber": "0xa1596c",
      "gasUsed": "0x18aff",
      "effectiveGasPrice": "0x187bf",
      "from": "0x8f088eca0009ad61fb94a6d7e9a5d7a087c08564",
      "to": "0xe2b6353511c5374b77aa67a1b1a9f2ede7dc1ea7",
      "contractAddress": null,
      "l1BaseFeeScalar": "0x44d",
      "l1BlobBaseFee": "0x55e6d0c9fa8",
      "l1BlobBaseFeeScalar": "0xa118b",
      "l1Fee": "0x1bad95bdc6dde",
      "l1GasPrice": "0x22fbe6bf4",
      "l1GasUsed": "0x7d0"
    },
    {
      "status": "0x1",
      "cumulativeGasUsed": "0x114392",
      "logs": [
        {
          "address": "0xe2b6353511c5374b77aa67a1b1a9f2ede7dc1ea7",
          "topics": [
            "0xddf252ad1be2c89b69c2b068fc378daa952ba7f163c4a11628f55a4df523b3ef",
            "0x0000000000000000000000000000000000000000000000000000000000000000",
            "0x0000000000000000000000008f088eca0009ad61fb94a6d7e9a5d7a087c08564",
            "0x00000000000000000000000000000000000000000000000000000000003d0920"
          ],
          "data": "0x",
          "blockHash": "0x9ccf8a260e0a546408c090d2c025432e08892924644172c6b21591bec22e4190",
          "blockNumber": "0xa1596c",
          "transactionHash": "0x5e8579d747a7a00c373bdece69c8dee5b10d8bb30dfabff93e4a3c4f7eca03e6",
          "transactionIndex": "0x7",
          "logIndex": "0x8",
          "removed": false
        }
      ],
      "logsBloom": "0x00000000000000800000000000000000000000000000000000000000000000000000000000100000000001000000000000000000000000000000020000000200000000000000000000000008000000000000000000000000000000000000000000000000020000000000000000000800000000008000000000000010000080000000000000000000000000000000000000000000000000000000000000000000000000000000000010000010000000000000000000000000000000000000000000000002000000000000000000000000000000000000000000000000000020000000000000000000000000000000000000000000000000000000000000000000",
      "type": "0x2",
      "transactionHash": "0x5e8579d747a7a00c373bdece69c8dee5b10d8bb30dfabff93e4a3c4f7eca03e6",
      "transactionIndex": "0x7",
      "blockHash": "0x9ccf8a260e0a546408c090d2c025432e08892924644172c6b21591bec22e4190",
      "blockNumber": "0xa1596c",
      "gasUsed": "0x18aff",
      "effectiveGasPrice": "0x187bf",
      "from": "0x8f088eca0009ad61fb94a6d7e9a5d7a087c08564",
      "to": "0xe2b6353511c5374b77aa67a1b1a9f2ede7dc1ea7",
      "contractAddress": null,
      "l1BaseFeeScalar": "0x44d",
      "l1BlobBaseFee": "0x55e6d0c9fa8",
      "l1BlobBaseFeeScalar": "0xa118b",
      "l1Fee": "0x1bad95bdc6dde",
      "l1GasPrice": "0x22fbe6bf4",
      "l1GasUsed": "0x7d0"
    },
    {
      "status": "0x1",
      "cumulativeGasUsed": "0x12ce91",
      "logs": [
        {
          "address": "0xe2b6353511c5374b77aa67a1b1a9f2ede7dc1ea7",
          "topics": [
            "0xddf252ad1be2c89b69c2b068fc378daa952ba7f163c4a11628f55a4df523b3ef",
            "0x0000000000000000000000000000000000000000000000000000000000000000",
            "0x0000000000000000000000008f088eca0009ad61fb94a6d7e9a5d7a087c08564",
            "0x00000000000000000000000000000000000000000000000000000000003d0921"
          ],
          "data": "0x",
          "blockHash": "0x9ccf8a260e0a546408c090d2c025432e08892924644172c6b21591bec22e4190",
          "blockNumber": "0xa1596c",
          "transactionHash": "0x98239c00285e93183cc752aa9ca353e3f3cbec2a1737694f40897b5e1696d883",
          "transactionIndex": "0x8",
          "logIndex": "0x9",
          "removed": false
        }
      ],
      "logsBloom": "0x00000000000000000000000000000000000000000000000000000000000000000000000000100000000001000000000000000000000000000000020000001200000000000000000000000008000000000004000000000000000000000000000000000000020000000000000000000800000000008000000000000010000000000000000000000000000000000000000000000000000000000000000000000000000000000000000010000000000000000000000000000000000000000000000000000002000000000000000000000000000000020000000000000000000020000000000000000000000000000000000000000000000000000000000000000000",
      "type": "0x2",
      "transactionHash": "0x98239c00285e93183cc752aa9ca353e3f3cbec2a1737694f40897b5e1696d883",
      "transactionIndex": "0x8",
      "blockHash": "0x9ccf8a260e0a546408c090d2c025432e08892924644172c6b21591bec22e4190",
      "blockNumber": "0xa1596c",
      "gasUsed": "0x18aff",
      "effectiveGasPrice": "0x187bf",
      "from": "0x8f088eca0009ad61fb94a6d7e9a5d7a087c08564",
      "to": "0xe2b6353511c5374b77aa67a1b1a9f2ede7dc1ea7",
      "contractAddress": null,
      "l1BaseFeeScalar": "0x44d",
      "l1BlobBaseFee": "0x55e6d0c9fa8",
      "l1BlobBaseFeeScalar": "0xa118b",
      "l1Fee": "0x1bd8193323b53",
      "l1GasPrice": "0x22fbe6bf4",
      "l1GasUsed": "0x7dc"
    },
    {
      "status": "0x1",
      "cumulativeGasUsed": "0x145990",
      "logs": [
        {
          "address": "0xe2b6353511c5374b77aa67a1b1a9f2ede7dc1ea7",
          "topics": [
            "0xddf252ad1be2c89b69c2b068fc378daa952ba7f163c4a11628f55a4df523b3ef",
            "0x0000000000000000000000000000000000000000000000000000000000000000",
            "0x0000000000000000000000008f088eca0009ad61fb94a6d7e9a5d7a087c08564",
            "0x00000000000000000000000000000000000000000000000000000000003d0922"
          ],
          "data": "0x",
          "blockHash": "0x9ccf8a260e0a546408c090d2c025432e08892924644172c6b21591bec22e4190",
          "blockNumber": "0xa1596c",
          "transactionHash": "0x96cbfe8122f6fc4b19c0e9ac96a1edfbc58c43472440be9b7408de374a35f5fb",
          "transactionIndex": "0x9",
          "logIndex": "0xa",
          "removed": false
        }
      ],
      "logsBloom": "0x00000000000000001000000000000000000000000000000000000000000000000000000000100000000001000000000000000000000000000000020000000200000000000000000000000008000000000000000000000000000000000000000000000000020000000000000000000800000000008000000000000010000008000000000000000000000000000000000000000000000000000000000000000000000000000000000010000000000000000000000000000000000000000000000000000002000000000000000000000000000000000000000000000000000020000000000000000000000000000000000000010000000000000000000000000000",
      "type": "0x2",
      "transactionHash": "0x96cbfe8122f6fc4b19c0e9ac96a1edfbc58c43472440be9b7408de374a35f5fb",
      "transactionIndex": "0x9",
      "blockHash": "0x9ccf8a260e0a546408c090d2c025432e08892924644172c6b21591bec22e4190",
      "blockNumber": "0xa1596c",
      "gasUsed": "0x18aff",
      "effectiveGasPrice": "0x187bf",
      "from": "0x8f088eca0009ad61fb94a6d7e9a5d7a087c08564",
      "to": "0xe2b6353511c5374b77aa67a1b1a9f2ede7dc1ea7",
      "contractAddress": null,
      "l1BaseFeeScalar": "0x44d",
      "l1BlobBaseFee": "0x55e6d0c9fa8",
      "l1BlobBaseFeeScalar": "0xa118b",
      "l1Fee": "0x1bd8193323b53",
      "l1GasPrice": "0x22fbe6bf4",
      "l1GasUsed": "0x7dc"
    },
    {
      "status": "0x1",
      "cumulativeGasUsed": "0x1ba7ad",
      "logs": [
        {
          "address": "0xe2b6353511c5374b77aa67a1b1a9f2ede7dc1ea7",
          "topics": [
            "0xddf252ad1be2c89b69c2b068fc378daa952ba7f163c4a11628f55a4df523b3ef",
            "0x0000000000000000000000000000000000000000000000000000000000000000",
            "0x0000000000000000000000008f088eca0009ad61fb94a6d7e9a5d7a087c08564",
            "0x00000000000000000000000000000000000000000000000000000000003d0923"
          ],
          "data": "0x",
          "blockHash": "0x9ccf8a260e0a546408c090d2c025432e08892924644172c6b21591bec22e4190",
          "blockNumber": "0xa1596c",
          "transactionHash": "0xb2a0b5f0f27c9330fbcc222a23e859459797c4aef67aab4841deeac1854d1c66",
          "transactionIndex": "0xb",
          "logIndex": "0x14",
          "removed": false
        }
      ],
      "logsBloom": "0x00000000000000000000000000000000000000000000000000000000000080000000000000100000000001000000000000000000000000000000020000000200000000000000000000000008000000000000000000000000000000000000000000000000020000000000000000000800000000008000000000000010000000000000000000000000000040000000000000000000000000000000000000000000000000000000000010000000000000000000000000000000000000000000000000000002000000000000000000000000000000000000000000000000000020000000000000000000000000000000000000000001000000000000000000000000",
      "type": "0x2",
      "transactionHash": "0xb2a0b5f0f27c9330fbcc222a23e859459797c4aef67aab4841deeac1854d1c66",
      "transactionIndex": "0xb",
      "blockHash": "0x9ccf8a260e0a546408c090d2c025432e08892924644172c6b21591bec22e4190",
      "blockNumber": "0xa1596c",
      "gasUsed": "0x18aff",
      "effectiveGasPrice": "0x187bf",
      "from": "0x8f088eca0009ad61fb94a6d7e9a5d7a087c08564",
      "to": "0xe2b6353511c5374b77aa67a1b1a9f2ede7dc1ea7",
      "contractAddress": null,
      "l1BaseFeeScalar": "0x44d",
      "l1BlobBaseFee": "0x55e6d0c9fa8",
      "l1BlobBaseFeeScalar": "0xa118b",
      "l1Fee": "0x1bd8193323b53",
      "l1GasPrice": "0x22fbe6bf4",
      "l1GasUsed": "0x7dc"
    },
    {
      "status": "0x1",
      "cumulativeGasUsed": "0x1d32ac",
      "logs": [
        {
          "address": "0xe2b6353511c5374b77aa67a1b1a9f2ede7dc1ea7",
          "topics": [
            "0xddf252ad1be2c89b69c2b068fc378daa952ba7f163c4a11628f55a4df523b3ef",
            "0x0000000000000000000000000000000000000000000000000000000000000000",
            "0x0000000000000000000000008f088eca0009ad61fb94a6d7e9a5d7a087c08564",
            "0x00000000000000000000000000000000000000000000000000000000003d0924"
          ],
          "data": "0x",
          "blockHash": "0x9ccf8a260e0a546408c090d2c025432e08892924644172c6b21591bec22e4190",
          "blockNumber": "0xa1596c",
          "transactionHash": "0x944d5653e36413a60934757b386d00f0072aecab2a0a6faad5b5bacd3279c456",
          "transactionIndex": "0xc",
          "logIndex": "0x15",
          "removed": false
        }
      ],
      "logsBloom": "0x00000000000000000000000000000000000000000040000000000000000000000000000000100000000001000000000000000000000000000000020000000200000000000000000000000008000000000000000000000000000000000000000000000000020000000000000000000800000000008000000000000010000000000000000000000000000000000000000000000000000000000000000000000000000000000000000010000000000000000000800000000000000000000000000000000002000000000000000000000000000000000000020000000000000020000000000000000000000000000000000000000000000000000000000000000000",
      "type": "0x2",
      "transactionHash": "0x944d5653e36413a60934757b386d00f0072aecab2a0a6faad5b5bacd3279c456",
      "transactionIndex": "0xc",
      "blockHash": "0x9ccf8a260e0a546408c090d2c025432e08892924644172c6b21591bec22e4190",
      "blockNumber": "0xa1596c",
      "gasUsed": "0x18aff",
      "effectiveGasPrice": "0x187bf",
      "from": "0x8f088eca0009ad61fb94a6d7e9a5d7a087c08564",
      "to": "0xe2b6353511c5374b77aa67a1b1a9f2ede7dc1ea7",
      "contractAddress": null,
      "l1BaseFeeScalar": "0x44d",
      "l1BlobBaseFee": "0x55e6d0c9fa8",
      "l1BlobBaseFeeScalar": "0xa118b",
      "l1Fee": "0x1b74e676a0696",
      "l1GasPrice": "0x22fbe6bf4",
      "l1GasUsed": "0x7c0"
    },
    {
      "status": "0x1",
      "cumulativeGasUsed": "0x1ebdab",
      "logs": [
        {
          "address": "0xe2b6353511c5374b77aa67a1b1a9f2ede7dc1ea7",
          "topics": [
            "0xddf252ad1be2c89b69c2b068fc378daa952ba7f163c4a11628f55a4df523b3ef",
            "0x0000000000000000000000000000000000000000000000000000000000000000",
            "0x0000000000000000000000008f088eca0009ad61fb94a6d7e9a5d7a087c08564",
            "0x00000000000000000000000000000000000000000000000000000000003d0925"
          ],
          "data": "0x",
          "blockHash": "0x9ccf8a260e0a546408c090d2c025432e08892924644172c6b21591bec22e4190",
          "blockNumber": "0xa1596c",
          "transactionHash": "0x9023746c7e796e138cd11c94a3e2f9a4616285e2ed03cff4eef0f1af4d06e37c",
          "transactionIndex": "0xd",
          "logIndex": "0x16",
          "removed": false
        }
      ],
      "logsBloom": "0x00000000000000000000000000000000000000000000000000000000000000002000000000100000000001000000000000000000000000000000020000000200000000000000000000000008000000000000000000000000000000000000000000000000020000000000000000000800000000008000000000000010000000000000000000000000000000000000000000000000000000000000000000000000000000000000000010000000000000000400000000000000000000000000000000000002000000000000000000000000000000000000000000000000000020000000000000000000000000000000000000002000000000000000000000000000",
      "type": "0x2",
      "transactionHash": "0x9023746c7e796e138cd11c94a3e2f9a4616285e2ed03cff4eef0f1af4d06e37c",
      "transactionIndex": "0xd",
      "blockHash": "0x9ccf8a260e0a546408c090d2c025432e08892924644172c6b21591bec22e4190",
      "blockNumber": "0xa1596c",
      "gasUsed": "0x18aff",
      "effectiveGasPrice": "0x187bf",
      "from": "0x8f088eca0009ad61fb94a6d7e9a5d7a087c08564",
      "to": "0xe2b6353511c5374b77aa67a1b1a9f2ede7dc1ea7",
      "contractAddress": null,
      "l1BaseFeeScalar": "0x44d",
      "l1BlobBaseFee": "0x55e6d0c9fa8",
      "l1BlobBaseFeeScalar": "0xa118b",
      "l1Fee": "0x1bd8193323b53",
      "l1GasPrice": "0x22fbe6bf4",
      "l1GasUsed": "0x7dc"
    },
    {
      "status": "0x1",
      "cumulativeGasUsed": "0x2048aa",
      "logs": [
        {
          "address": "0xe2b6353511c5374b77aa67a1b1a9f2ede7dc1ea7",
          "topics": [
            "0xddf252ad1be2c89b69c2b068fc378daa952ba7f163c4a11628f55a4df523b3ef",
            "0x0000000000000000000000000000000000000000000000000000000000000000",
            "0x0000000000000000000000008f088eca0009ad61fb94a6d7e9a5d7a087c08564",
            "0x00000000000000000000000000000000000000000000000000000000003d0926"
          ],
          "data": "0x",
          "blockHash": "0x9ccf8a260e0a546408c090d2c025432e08892924644172c6b21591bec22e4190",
          "blockNumber": "0xa1596c",
          "transactionHash": "0x4f3ed86991fbbe5340e91ae90cae454940f591bf6bcdc223adf985d5bf4694c5",
          "transactionIndex": "0xe",
          "logIndex": "0x17",
          "removed": false
        }
      ],
      "logsBloom": "0x00000000000000000000000000000000000000000000000000000000000000000000000000100000000001000000000000000000000000000000020000000200000000000000000000000008000000000000000000000000000000000000000000000800020000000000000000000800010000008000000000000010000000000000000000000000000000000000000000000000000000000000000000000000000000000000000010000000000000000000000000000000000001000000000000000002000000000000000000000000000000000000000000000000000020000000000000000000000000000000000000000000000000000000000000000000",
      "type": "0x2",
      "transactionHash": "0x4f3ed86991fbbe5340e91ae90cae454940f591bf6bcdc223adf985d5bf4694c5",
      "transactionIndex": "0xe",
      "blockHash": "0x9ccf8a260e0a546408c090d2c025432e08892924644172c6b21591bec22e4190",
      "blockNumber": "0xa1596c",
      "gasUsed": "0x18aff",
      "effectiveGasPrice": "0x187bf",
      "from": "0x8f088eca0009ad61fb94a6d7e9a5d7a087c08564",
      "to": "0xe2b6353511c5374b77aa67a1b1a9f2ede7dc1ea7",
      "contractAddress": null,
      "l1BaseFeeScalar": "0x44d",
      "l1BlobBaseFee": "0x55e6d0c9fa8",
      "l1BlobBaseFeeScalar": "0xa118b",
      "l1Fee": "0x1bd8193323b53",
      "l1GasPrice": "0x22fbe6bf4",
      "l1GasUsed": "0x7dc"
    },
    {
      "status": "0x1",
      "cumulativeGasUsed": "0x21d3a9",
      "logs": [
        {
          "address": "0xe2b6353511c5374b77aa67a1b1a9f2ede7dc1ea7",
          "topics": [
            "0xddf252ad1be2c89b69c2b068fc378daa952ba7f163c4a11628f55a4df523b3ef",
            "0x0000000000000000000000000000000000000000000000000000000000000000",
            "0x0000000000000000000000008f088eca0009ad61fb94a6d7e9a5d7a087c08564",
            "0x00000000000000000000000000000000000000000000000000000000003d0927"
          ],
          "data": "0x",
          "blockHash": "0x9ccf8a260e0a546408c090d2c025432e08892924644172c6b21591bec22e4190",
          "blockNumber": "0xa1596c",
          "transactionHash": "0xf005edbfc2eae616725cc9577adaea99c7fb3d8de2a1bcdf363ef6e13d9029b6",
          "transactionIndex": "0xf",
          "logIndex": "0x18",
          "removed": false
        }
      ],
      "logsBloom": "0x00000000000100000000000000000000000000000000000000000000000000000000000000100000000001000000000000000000000000000000020000000200000000000000000001000008000000000000000000000000000000000000000000000000020000000000000000000800000000028000000000000010000000000000000000000000000000000000000000000000000000000000000000000000000000000000000010000000000000000000000000000000000000000000000000000002000000000000000000000000000000000000000000000000000020000000000000000000000000000000000000000000000000000000000000000000",
      "type": "0x2",
      "transactionHash": "0xf005edbfc2eae616725cc9577adaea99c7fb3d8de2a1bcdf363ef6e13d9029b6",
      "transactionIndex": "0xf",
      "blockHash": "0x9ccf8a260e0a546408c090d2c025432e08892924644172c6b21591bec22e4190",
      "blockNumber": "0xa1596c",
      "gasUsed": "0x18aff",
      "effectiveGasPrice": "0x187bf",
      "from": "0x8f088eca0009ad61fb94a6d7e9a5d7a087c08564",
      "to": "0xe2b6353511c5374b77aa67a1b1a9f2ede7dc1ea7",
      "contractAddress": null,
      "l1BaseFeeScalar": "0x44d",
      "l1BlobBaseFee": "0x55e6d0c9fa8",
      "l1BlobBaseFeeScalar": "0xa118b",
      "l1Fee": "0x1bd8193323b53",
      "l1GasPrice": "0x22fbe6bf4",
      "l1GasUsed": "0x7dc"
    },
    {
      "status": "0x1",
      "cumulativeGasUsed": "0x235ea8",
      "logs": [
        {
          "address": "0xe2b6353511c5374b77aa67a1b1a9f2ede7dc1ea7",
          "topics": [
            "0xddf252ad1be2c89b69c2b068fc378daa952ba7f163c4a11628f55a4df523b3ef",
            "0x0000000000000000000000000000000000000000000000000000000000000000",
            "0x0000000000000000000000008f088eca0009ad61fb94a6d7e9a5d7a087c08564",
            "0x00000000000000000000000000000000000000000000000000000000003d0928"
          ],
          "data": "0x",
          "blockHash": "0x9ccf8a260e0a546408c090d2c025432e08892924644172c6b21591bec22e4190",
          "blockNumber": "0xa1596c",
          "transactionHash": "0x1793ab08817de6d31092999660b7fd1261b71e2db2dc7f06385d1661199858bc",
          "transactionIndex": "0x10",
          "logIndex": "0x19",
          "removed": false
        }
      ],
      "logsBloom": "0x00000000000000000000000000000000000000000000000000000000000000000000000000100000000001000000000000000000000000000000020000000200000000000000000000000008000000000000000000000000000000000000000000000000020000000000000000000800000000008000000000000010000000000000000000000000000000000000000000000000000000000000000000000000000000000000000010000000000000000000000000000000000000000000000000000022000000000000020000000000000000000000000004000000000020000000000000000000000000000000000000000000000000000000000000000000",
      "type": "0x2",
      "transactionHash": "0x1793ab08817de6d31092999660b7fd1261b71e2db2dc7f06385d1661199858bc",
      "transactionIndex": "0x10",
      "blockHash": "0x9ccf8a260e0a546408c090d2c025432e08892924644172c6b21591bec22e4190",
      "blockNumber": "0xa1596c",
      "gasUsed": "0x18aff",
      "effectiveGasPrice": "0x187bf",
      "from": "0x8f088eca0009ad61fb94a6d7e9a5d7a087c08564",
      "to": "0xe2b6353511c5374b77aa67a1b1a9f2ede7dc1ea7",
      "contractAddress": null,
      "l1BaseFeeScalar": "0x44d",
      "l1BlobBaseFee": "0x55e6d0c9fa8",
      "l1BlobBaseFeeScalar": "0xa118b",
      "l1Fee": "0x1bd8193323b53",
      "l1GasPrice": "0x22fbe6bf4",
      "l1GasUsed": "0x7dc"
    },
    {
      "status": "0x1",
      "cumulativeGasUsed": "0x24e9a7",
      "logs": [
        {
          "address": "0xe2b6353511c5374b77aa67a1b1a9f2ede7dc1ea7",
          "topics": [
            "0xddf252ad1be2c89b69c2b068fc378daa952ba7f163c4a11628f55a4df523b3ef",
            "0x0000000000000000000000000000000000000000000000000000000000000000",
            "0x0000000000000000000000008f088eca0009ad61fb94a6d7e9a5d7a087c08564",
            "0x00000000000000000000000000000000000000000000000000000000003d0929"
          ],
          "data": "0x",
          "blockHash": "0x9ccf8a260e0a546408c090d2c025432e08892924644172c6b21591bec22e4190",
          "blockNumber": "0xa1596c",
          "transactionHash": "0x9a1f67e3a4c79fd9c389823bec407aef31e16d1e2247d20305c44eb603bba3f0",
          "transactionIndex": "0x11",
          "logIndex": "0x1a",
          "removed": false
        }
      ],
      "logsBloom": "0x00000000000000000000000000000000000000000000000000000000000000000000000000100000000001000000000000000000000000000000020000000200000000000000000000000008000000000000000000000000000000000000000000000000020000000000000000000800000000008000000000000010000000000000000000000002000400000000000000000000000000000000000000000000000000000000000010000080000000000000000000000000000000000000000000000002000000000000000000000000000000000000000000000000000020000000000000000000000000000000000000000000000000000000000000000000",
      "type": "0x2",
      "transactionHash": "0x9a1f67e3a4c79fd9c389823bec407aef31e16d1e2247d20305c44eb603bba3f0",
      "transactionIndex": "0x11",
      "blockHash": "0x9ccf8a260e0a546408c090d2c025432e08892924644172c6b21591bec22e4190",
      "blockNumber": "0xa1596c",
      "gasUsed": "0x18aff",
      "effectiveGasPrice": "0x187bf",
      "from": "0x8f088eca0009ad61fb94a6d7e9a5d7a087c08564",
      "to": "0xe2b6353511c5374b77aa67a1b1a9f2ede7dc1ea7",
      "contractAddress": null,
      "l1BaseFeeScalar": "0x44d",
      "l1BlobBaseFee": "0x55e6d0c9fa8",
      "l1BlobBaseFeeScalar": "0xa118b",
      "l1Fee": "0x1bd8193323b53",
      "l1GasPrice": "0x22fbe6bf4",
      "l1GasUsed": "0x7dc"
    },
    {
      "status": "0x1",
      "cumulativeGasUsed": "0x2674a6",
      "logs": [
        {
          "address": "0xe2b6353511c5374b77aa67a1b1a9f2ede7dc1ea7",
          "topics": [
            "0xddf252ad1be2c89b69c2b068fc378daa952ba7f163c4a11628f55a4df523b3ef",
            "0x0000000000000000000000000000000000000000000000000000000000000000",
            "0x0000000000000000000000008f088eca0009ad61fb94a6d7e9a5d7a087c08564",
            "0x00000000000000000000000000000000000000000000000000000000003d092a"
          ],
          "data": "0x",
          "blockHash": "0x9ccf8a260e0a546408c090d2c025432e08892924644172c6b21591bec22e4190",
          "blockNumber": "0xa1596c",
          "transactionHash": "0xa86723a5ae09d2c4489012d2533f50e64398e823b3f9ad9c5e7bb69192c25307",
          "transactionIndex": "0x12",
          "logIndex": "0x1b",
          "removed": false
        }
      ],
      "logsBloom": "0x00000000000000000000000000000000100000000000000000000000000000000000000000100000000001000000000000000000000000000000020000000200000000000000000000000808000000000000000000000000000000000000000000000000020000000000010000000800000000008000000000000010000000000000000000000000000000000000000000000000000000000000000000000000000000000000000010000000000000000000000000000000000000000000000000000002000000000000000000000000000000000000000000000000000020000000000000000000000000000000000000000000000000000000000000000000",
      "type": "0x2",
      "transactionHash": "0xa86723a5ae09d2c4489012d2533f50e64398e823b3f9ad9c5e7bb69192c25307",
      "transactionIndex": "0x12",
      "blockHash": "0x9ccf8a260e0a546408c090d2c025432e08892924644172c6b21591bec22e4190",
      "blockNumber": "0xa1596c",
      "gasUsed": "0x18aff",
      "effectiveGasPrice": "0x187bf",
      "from": "0x8f088eca0009ad61fb94a6d7e9a5d7a087c08564",
      "to": "0xe2b6353511c5374b77aa67a1b1a9f2ede7dc1ea7",
      "contractAddress": null,
      "l1BaseFeeScalar": "0x44d",
      "l1BlobBaseFee": "0x55e6d0c9fa8",
      "l1BlobBaseFeeScalar": "0xa118b",
      "l1Fee": "0x1bd8193323b53",
      "l1GasPrice": "0x22fbe6bf4",
      "l1GasUsed": "0x7dc"
    },
    {
      "status": "0x1",
      "cumulativeGasUsed": "0x27ffa5",
      "logs": [
        {
          "address": "0xe2b6353511c5374b77aa67a1b1a9f2ede7dc1ea7",
          "topics": [
            "0xddf252ad1be2c89b69c2b068fc378daa952ba7f163c4a11628f55a4df523b3ef",
            "0x0000000000000000000000000000000000000000000000000000000000000000",
            "0x0000000000000000000000008f088eca0009ad61fb94a6d7e9a5d7a087c08564",
            "0x00000000000000000000000000000000000000000000000000000000003d092b"
          ],
          "data": "0x",
          "blockHash": "0x9ccf8a260e0a546408c090d2c025432e08892924644172c6b21591bec22e4190",
          "blockNumber": "0xa1596c",
          "transactionHash": "0xab4a916010bbb910ef72997db5b174527128944db486428ac568a350326a1472",
          "transactionIndex": "0x13",
          "logIndex": "0x1c",
          "removed": false
        }
      ],
      "logsBloom": "0x00000000000000000000000000000000000000000000000000000000000000000000000400100000000001000000000000000000000000000000020000000200000000000000000000000008000000000000000000000000000000000000000000000000020000000000000000000800000000008000000000000010000000000000000000000000000000000000000000000000000000000000000000000000000000000000001010000000000000000000000000000000000000000000000000000002000000000004000000000000000000000000000000000000000020000000000000000000000000000000000000000000000000000000000000000000",
      "type": "0x2",
      "transactionHash": "0xab4a916010bbb910ef72997db5b174527128944db486428ac568a350326a1472",
      "transactionIndex": "0x13",
      "blockHash": "0x9ccf8a260e0a546408c090d2c025432e08892924644172c6b21591bec22e4190",
      "blockNumber": "0xa1596c",
      "gasUsed": "0x18aff",
      "effectiveGasPrice": "0x187bf",
      "from": "0x8f088eca0009ad61fb94a6d7e9a5d7a087c08564",
      "to": "0xe2b6353511c5374b77aa67a1b1a9f2ede7dc1ea7",
      "contractAddress": null,
      "l1BaseFeeScalar": "0x44d",
      "l1BlobBaseFee": "0x55e6d0c9fa8",
      "l1BlobBaseFeeScalar": "0xa118b",
      "l1Fee": "0x1bd8193323b53",
      "l1GasPrice": "0x22fbe6bf4",
      "l1GasUsed": "0x7dc"
    },
    {
      "status": "0x1",
      "cumulativeGasUsed": "0x298aa4",
      "logs": [
        {
          "address": "0xe2b6353511c5374b77aa67a1b1a9f2ede7dc1ea7",
          "topics": [
            "0xddf252ad1be2c89b69c2b068fc378daa952ba7f163c4a11628f55a4df523b3ef",
            "0x0000000000000000000000000000000000000000000000000000000000000000",
            "0x0000000000000000000000008f088eca0009ad61fb94a6d7e9a5d7a087c08564",
            "0x00000000000000000000000000000000000000000000000000000000003d092c"
          ],
          "data": "0x",
          "blockHash": "0x9ccf8a260e0a546408c090d2c025432e08892924644172c6b21591bec22e4190",
          "blockNumber": "0xa1596c",
          "transactionHash": "0x6530d3c0a44db336068262b5c10a54d9061b6d3abc69334d9062c3ae70fd4052",
          "transactionIndex": "0x14",
          "logIndex": "0x1d",
          "removed": false
        }
      ],
      "logsBloom": "0x00000000000000000000000000000000000000000000000040000000000000000000000000100000000001000000000000000000000000000000020000000200000000000000000000000008000000000000000000000000000000000000000000000000020000000000000000000800000000008000000000000010000000000000020000000000000000000000000000000000000000000000000001000000000000000000000010000000000000000000000000000000000000000000000000000002000000000000000000000000000000000000000000000000000020000000000000000000000000000000000000000000000000000000000000000000",
      "type": "0x2",
      "transactionHash": "0x6530d3c0a44db336068262b5c10a54d9061b6d3abc69334d9062c3ae70fd4052",
      "transactionIndex": "0x14",
      "blockHash": "0x9ccf8a260e0a546408c090d2c025432e08892924644172c6b21591bec22e4190",
      "blockNumber": "0xa1596c",
      "gasUsed": "0x18aff",
      "effectiveGasPrice": "0x187bf",
      "from": "0x8f088eca0009ad61fb94a6d7e9a5d7a087c08564",
      "to": "0xe2b6353511c5374b77aa67a1b1a9f2ede7dc1ea7",
      "contractAddress": null,
      "l1BaseFeeScalar": "0x44d",
      "l1BlobBaseFee": "0x55e6d0c9fa8",
      "l1BlobBaseFeeScalar": "0xa118b",
      "l1Fee": "0x1b8312486a068",
      "l1GasPrice": "0x22fbe6bf4",
      "l1GasUsed": "0x7c4"
    },
    {
      "status": "0x1",
      "cumulativeGasUsed": "0x2b15a3",
      "logs": [
        {
          "address": "0xe2b6353511c5374b77aa67a1b1a9f2ede7dc1ea7",
          "topics": [
            "0xddf252ad1be2c89b69c2b068fc378daa952ba7f163c4a11628f55a4df523b3ef",
            "0x0000000000000000000000000000000000000000000000000000000000000000",
            "0x0000000000000000000000008f088eca0009ad61fb94a6d7e9a5d7a087c08564",
            "0x00000000000000000000000000000000000000000000000000000000003d092d"
          ],
          "data": "0x",
          "blockHash": "0x9ccf8a260e0a546408c090d2c025432e08892924644172c6b21591bec22e4190",
          "blockNumber": "0xa1596c",
          "transactionHash": "0x25cc756f40a1ba17bf4ca736383a36a7faaf38733fbe56fd432996202c593873",
          "transactionIndex": "0x15",
          "logIndex": "0x1e",
          "removed": false
        }
      ],
      "logsBloom": "0x00000000000000000000000000000000000000000000000000000000000000000000008000100000000041000000000000000000000000000000020000000200000000000000000000000008000000000000000000000000000000000000000000000000020000000000000000000800000000008000000000000010000000000000000000000000000000000000000000000000000200000000000000000000000000000000000010000000000000000000000000000000000000000000000000000002000000000000000000000000000000000000000000000000000020000000000000000000000000000000000000000000000000000000000000000000",
      "type": "0x2",
      "transactionHash": "0x25cc756f40a1ba17bf4ca736383a36a7faaf38733fbe56fd432996202c593873",
      "transactionIndex": "0x15",
      "blockHash": "0x9ccf8a260e0a546408c090d2c025432e08892924644172c6b21591bec22e4190",
      "blockNumber": "0xa1596c",
      "gasUsed": "0x18aff",
      "effectiveGasPrice": "0x187bf",
      "from": "0x8f088eca0009ad61fb94a6d7e9a5d7a087c08564",
      "to": "0xe2b6353511c5374b77aa67a1b1a9f2ede7dc1ea7",
      "contractAddress": null,
      "l1BaseFeeScalar": "0x44d",
      "l1BlobBaseFee": "0x55e6d0c9fa8",
      "l1BlobBaseFeeScalar": "0xa118b",
      "l1Fee": "0x1bd8193323b53",
      "l1GasPrice": "0x22fbe6bf4",
      "l1GasUsed": "0x7dc"
    },
    {
      "status": "0x1",
      "cumulativeGasUsed": "0x2ca0a2",
      "logs": [
        {
          "address": "0xe2b6353511c5374b77aa67a1b1a9f2ede7dc1ea7",
          "topics": [
            "0xddf252ad1be2c89b69c2b068fc378daa952ba7f163c4a11628f55a4df523b3ef",
            "0x0000000000000000000000000000000000000000000000000000000000000000",
            "0x0000000000000000000000008f088eca0009ad61fb94a6d7e9a5d7a087c08564",
            "0x00000000000000000000000000000000000000000000000000000000003d092e"
          ],
          "data": "0x",
          "blockHash": "0x9ccf8a260e0a546408c090d2c025432e08892924644172c6b21591bec22e4190",
          "blockNumber": "0xa1596c",
          "transactionHash": "0x5b1205f4ed57927df0a7bc45778d384144f89690e488fd31bec25eef8d1ce475",
          "transactionIndex": "0x16",
          "logIndex": "0x1f",
          "removed": false
        }
      ],
      "logsBloom": "0x00000000000000000000000000000000000000000000000000000000000000000000000000100000000001000000000000000000000000000000020000000200000000000000000000000008000000000000020000000000000000000000000000000020020000000000000000000800000000008000000000000010000000000000000040000000000000000000000000000000000000000000000000000000000000000000000010000000000000000000000000000000000000000000000000000002000000000000000000000000000000000000000000000000000020000000000000000000000000000000000000000000000000000000000000000000",
      "type": "0x2",
      "transactionHash": "0x5b1205f4ed57927df0a7bc45778d384144f89690e488fd31bec25eef8d1ce475",
      "transactionIndex": "0x16",
      "blockHash": "0x9ccf8a260e0a546408c090d2c025432e08892924644172c6b21591bec22e4190",
      "blockNumber": "0xa1596c",
      "gasUsed": "0x18aff",
      "effectiveGasPrice": "0x187bf",
      "from": "0x8f088eca0009ad61fb94a6d7e9a5d7a087c08564",
      "to": "0xe2b6353511c5374b77aa67a1b1a9f2ede7dc1ea7",
      "contractAddress": null,
      "l1BaseFeeScalar": "0x44d",
      "l1BlobBaseFee": "0x55e6d0c9fa8",
      "l1BlobBaseFeeScalar": "0xa118b",
      "l1Fee": "0x1bd8193323b53",
      "l1GasPrice": "0x22fbe6bf4",
      "l1GasUsed": "0x7dc"
    },
    {
      "status": "0x1",
      "cumulativeGasUsed": "0x2e2ba1",
      "logs": [
        {
          "address": "0xe2b6353511c5374b77aa67a1b1a9f2ede7dc1ea7",
          "topics": [
            "0xddf252ad1be2c89b69c2b068fc378daa952ba7f163c4a11628f55a4df523b3ef",
            "0x0000000000000000000000000000000000000000000000000000000000000000",
            "0x0000000000000000000000008f088eca0009ad61fb94a6d7e9a5d7a087c08564",
            "0x00000000000000000000000000000000000000000000000000000000003d092f"
          ],
          "data": "0x",
          "blockHash": "0x9ccf8a260e0a546408c090d2c025432e08892924644172c6b21591bec22e4190",
          "blockNumber": "0xa1596c",
          "transactionHash": "0x956001f1426bb65bbdc29d28850b4cabf2607e012481246b2cbf3df33fd55d4e",
          "transactionIndex": "0x17",
          "logIndex": "0x20",
          "removed": false
        }
      ],
      "logsBloom": "0x00000000000000000000000000000000000000000000000000000200000000000000000000100000000001000000000000000000000000000000020000000200000000000000000000000008000000000000000000000000000000000000000000000000020000000000000000000800000000008000000000000010000000040000000000000000000000000000000000000000000000000000000000000000000000000000000010000000000000000000000000000000000000000000000000000002000000000000000000000000000000000000000000000000000020000000080000000000000000000000000000000000000000000000000000000000",
      "type": "0x2",
      "transactionHash": "0x956001f1426bb65bbdc29d28850b4cabf2607e012481246b2cbf3df33fd55d4e",
      "transactionIndex": "0x17",
      "blockHash": "0x9ccf8a260e0a546408c090d2c025432e08892924644172c6b21591bec22e4190",
      "blockNumber": "0xa1596c",
      "gasUsed": "0x18aff",
      "effectiveGasPrice": "0x187bf",
      "from": "0x8f088eca0009ad61fb94a6d7e9a5d7a087c08564",
      "to": "0xe2b6353511c5374b77aa67a1b1a9f2ede7dc1ea7",
      "contractAddress": null,
      "l1BaseFeeScalar": "0x44d",
      "l1BlobBaseFee": "0x55e6d0c9fa8",
      "l1BlobBaseFeeScalar": "0xa118b",
      "l1Fee": "0x1bd8193323b53",
      "l1GasPrice": "0x22fbe6bf4",
      "l1GasUsed": "0x7dc"
    },
    {
      "status": "0x1",
      "cumulativeGasUsed": "0x2fb6a0",
      "logs": [
        {
          "address": "0xe2b6353511c5374b77aa67a1b1a9f2ede7dc1ea7",
          "topics": [
            "0xddf252ad1be2c89b69c2b068fc378daa952ba7f163c4a11628f55a4df523b3ef",
            "0x0000000000000000000000000000000000000000000000000000000000000000",
            "0x0000000000000000000000008f088eca0009ad61fb94a6d7e9a5d7a087c08564",
            "0x00000000000000000000000000000000000000000000000000000000003d0930"
          ],
          "data": "0x",
          "blockHash": "0x9ccf8a260e0a546408c090d2c025432e08892924644172c6b21591bec22e4190",
          "blockNumber": "0xa1596c",
          "transactionHash": "0x29ca5ac579c146d1e1367701ce933927963eaea812d6a2a7202ab14556d0f050",
          "transactionIndex": "0x18",
          "logIndex": "0x21",
          "removed": false
        }
      ],
      "logsBloom": "0x00000000000000000000000000000000000000000000000000000000000000000000000000100000000001000000000000000000000000000000020000000200000000000000000000000008000000000000000000000000000000000000000000000000020000000000000000000800000000008000000000000010000000000000000000000000000000000000000000000000000000000000000000000000000000000000040010000000000000000400000000000000000000000000000000000002000000000000000000000000000000000000000000000000002020000000000000000000000000000000000000000000000000000000000000000000",
      "type": "0x2",
      "transactionHash": "0x29ca5ac579c146d1e1367701ce933927963eaea812d6a2a7202ab14556d0f050",
      "transactionIndex": "0x18",
      "blockHash": "0x9ccf8a260e0a546408c090d2c025432e08892924644172c6b21591bec22e4190",
      "blockNumber": "0xa1596c",
      "gasUsed": "0x18aff",
      "effectiveGasPrice": "0x187bf",
      "from": "0x8f088eca0009ad61fb94a6d7e9a5d7a087c08564",
      "to": "0xe2b6353511c5374b77aa67a1b1a9f2ede7dc1ea7",
      "contractAddress": null,
      "l1BaseFeeScalar": "0x44d",
      "l1BlobBaseFee": "0x55e6d0c9fa8",
      "l1BlobBaseFeeScalar": "0xa118b",
      "l1Fee": "0x1bd8193323b53",
      "l1GasPrice": "0x22fbe6bf4",
      "l1GasUsed": "0x7dc"
    },
    {
      "status": "0x1",
      "cumulativeGasUsed": "0x31419f",
      "logs": [
        {
          "address": "0xe2b6353511c5374b77aa67a1b1a9f2ede7dc1ea7",
          "topics": [
            "0xddf252ad1be2c89b69c2b068fc378daa952ba7f163c4a11628f55a4df523b3ef",
            "0x0000000000000000000000000000000000000000000000000000000000000000",
            "0x0000000000000000000000008f088eca0009ad61fb94a6d7e9a5d7a087c08564",
            "0x00000000000000000000000000000000000000000000000000000000003d0931"
          ],
          "data": "0x",
          "blockHash": "0x9ccf8a260e0a546408c090d2c025432e08892924644172c6b21591bec22e4190",
          "blockNumber": "0xa1596c",
          "transactionHash": "0xf47add22afca9f72cccc4f55364831a3ffdac0a0ee02d53f4337744e1968b2ac",
          "transactionIndex": "0x19",
          "logIndex": "0x22",
          "removed": false
        }
      ],
      "logsBloom": "0x00000000000000000000000000000000000000000000000000000000000000000000000000100000000001000000000000000000000040000000120000000200000000000000000000000008000000000000000000000008000000000000000000000000020000000000000000000800000000008000000000000010000000000000000000000000000000000000000000000000000000000000000000000000000000000000000010000000000000000000000000000000000000000000000000000002000000000000000000000000000000000000000000000000000020000000000000000000000000000000000000000000000000000000000000000000",
      "type": "0x2",
      "transactionHash": "0xf47add22afca9f72cccc4f55364831a3ffdac0a0ee02d53f4337744e1968b2ac",
      "transactionIndex": "0x19",
      "blockHash": "0x9ccf8a260e0a546408c090d2c025432e08892924644172c6b21591bec22e4190",
      "blockNumber": "0xa1596c",
      "gasUsed": "0x18aff",
      "effectiveGasPrice": "0x187bf",
      "from": "0x8f088eca0009ad61fb94a6d7e9a5d7a087c08564",
      "to": "0xe2b6353511c5374b77aa67a1b1a9f2ede7dc1ea7",
      "contractAddress": null,
      "l1BaseFeeScalar": "0x44d",
      "l1BlobBaseFee": "0x55e6d0c9fa8",
      "l1BlobBaseFeeScalar": "0xa118b",
      "l1Fee": "0x1b74e676a0696",
      "l1GasPrice": "0x22fbe6bf4",
      "l1GasUsed": "0x7c0"
    }
  ],
  "libraries": [],
  "pending": [],
  "returns": {},
  "timestamp": 1716916473,
  "chain": 84532,
  "commit": "3e641a5"
}