{
  "transactions": [
    {
      "hash": "0x05bb6ab3a25b532cda867ee474b790e12c50c8d9b647ec2b36f7f4e42c89f3f0",
      "transactionType": "CALL",
      "contractName": null,
      "contractAddress": "0xb88d359a7a53458487b300dba46f7da1cf22ec5f",
      "function": "mint(uint256)",
      "arguments": [
        "3"
      ],
      "transaction": {
        "from": "0x8f088eca0009ad61fb94a6d7e9a5d7a087c08564",
        "to": "0xb88d359a7a53458487b300dba46f7da1cf22ec5f",
        "gas": "0x2ab87",
        "value": "0x0",
        "input": "0xa0712d680000000000000000000000000000000000000000000000000000000000000003",
        "nonce": "0xd40",
        "chainId": "0x14a34"
      },
      "additionalContracts": [],
      "isFixedGasLimit": false
    },
    {
      "hash": "0xa8d387883b51c6a3948d54ed99c0ac81f7b5ca46942a2b20aef22cb1b746bf2e",
      "transactionType": "CALL",
      "contractName": null,
      "contractAddress": "0xb88d359a7a53458487b300dba46f7da1cf22ec5f",
      "function": "mint(uint256)",
      "arguments": [
        "3"
      ],
      "transaction": {
        "from": "0x8f088eca0009ad61fb94a6d7e9a5d7a087c08564",
        "to": "0xb88d359a7a53458487b300dba46f7da1cf22ec5f",
        "gas": "0x2720d",
        "value": "0x0",
        "input": "0xa0712d680000000000000000000000000000000000000000000000000000000000000003",
        "nonce": "0xd41",
        "chainId": "0x14a34"
      },
      "additionalContracts": [],
      "isFixedGasLimit": false
    },
    {
      "hash": "0xbd2349e45d1f3bdea79addf7e1c14ac15fb264eff70a306fb6304e441cb94916",
      "transactionType": "CALL",
      "contractName": null,
      "contractAddress": "0xb88d359a7a53458487b300dba46f7da1cf22ec5f",
      "function": "mint(uint256)",
      "arguments": [
        "3"
      ],
      "transaction": {
        "from": "0x8f088eca0009ad61fb94a6d7e9a5d7a087c08564",
        "to": "0xb88d359a7a53458487b300dba46f7da1cf22ec5f",
        "gas": "0x2720d",
        "value": "0x0",
        "input": "0xa0712d680000000000000000000000000000000000000000000000000000000000000003",
        "nonce": "0xd42",
        "chainId": "0x14a34"
      },
      "additionalContracts": [],
      "isFixedGasLimit": false
    },
    {
      "hash": "0xc418b56ca30bc59685acc282b169e332afc1abc03c6bfdb9e631e1703cab603f",
      "transactionType": "CALL",
      "contractName": null,
      "contractAddress": "0xb88d359a7a53458487b300dba46f7da1cf22ec5f",
      "function": "mint(uint256)",
      "arguments": [
        "3"
      ],
      "transaction": {
        "from": "0x8f088eca0009ad61fb94a6d7e9a5d7a087c08564",
        "to": "0xb88d359a7a53458487b300dba46f7da1cf22ec5f",
        "gas": "0x2720d",
        "value": "0x0",
        "input": "0xa0712d680000000000000000000000000000000000000000000000000000000000000003",
        "nonce": "0xd43",
        "chainId": "0x14a34"
      },
      "additionalContracts": [],
      "isFixedGasLimit": false
    },
    {
      "hash": "0xb2be0cc48d55d4b6e08ef1a807901725d9acb83564a8e67e718115a41063270a",
      "transactionType": "CALL",
      "contractName": null,
      "contractAddress": "0xb88d359a7a53458487b300dba46f7da1cf22ec5f",
      "function": "mint(uint256)",
      "arguments": [
        "3"
      ],
      "transaction": {
        "from": "0x8f088eca0009ad61fb94a6d7e9a5d7a087c08564",
        "to": "0xb88d359a7a53458487b300dba46f7da1cf22ec5f",
        "gas": "0x2720d",
        "value": "0x0",
        "input": "0xa0712d680000000000000000000000000000000000000000000000000000000000000003",
        "nonce": "0xd44",
        "chainId": "0x14a34"
      },
      "additionalContracts": [],
      "isFixedGasLimit": false
    },
    {
      "hash": "0x6b77c4a75763e72f208678e866e010d699d79a8430b3370c60ce057187467a7a",
      "transactionType": "CALL",
      "contractName": null,
      "contractAddress": "0xb88d359a7a53458487b300dba46f7da1cf22ec5f",
      "function": "mint(uint256)",
      "arguments": [
        "3"
      ],
      "transaction": {
        "from": "0x8f088eca0009ad61fb94a6d7e9a5d7a087c08564",
        "to": "0xb88d359a7a53458487b300dba46f7da1cf22ec5f",
        "gas": "0x2720d",
        "value": "0x0",
        "input": "0xa0712d680000000000000000000000000000000000000000000000000000000000000003",
        "nonce": "0xd45",
        "chainId": "0x14a34"
      },
      "additionalContracts": [],
      "isFixedGasLimit": false
    },
    {
      "hash": "0xc70fdaee8ea4017fc1aacf83231d5e16961e7419857757d106a6adcacefca96a",
      "transactionType": "CALL",
      "contractName": null,
      "contractAddress": "0xb88d359a7a53458487b300dba46f7da1cf22ec5f",
      "function": "mint(uint256)",
      "arguments": [
        "3"
      ],
      "transaction": {
        "from": "0x8f088eca0009ad61fb94a6d7e9a5d7a087c08564",
        "to": "0xb88d359a7a53458487b300dba46f7da1cf22ec5f",
        "gas": "0x2720d",
        "value": "0x0",
        "input": "0xa0712d680000000000000000000000000000000000000000000000000000000000000003",
        "nonce": "0xd46",
        "chainId": "0x14a34"
      },
      "additionalContracts": [],
      "isFixedGasLimit": false
    },
    {
      "hash": "0x142e8f136c026d8479dc427fcfad2d4d8fbe581d3bb6ec0597a0b56ae03b6a0e",
      "transactionType": "CALL",
      "contractName": null,
      "contractAddress": "0xb88d359a7a53458487b300dba46f7da1cf22ec5f",
      "function": "mint(uint256)",
      "arguments": [
        "3"
      ],
      "transaction": {
        "from": "0x8f088eca0009ad61fb94a6d7e9a5d7a087c08564",
        "to": "0xb88d359a7a53458487b300dba46f7da1cf22ec5f",
        "gas": "0x2720d",
        "value": "0x0",
        "input": "0xa0712d680000000000000000000000000000000000000000000000000000000000000003",
        "nonce": "0xd47",
        "chainId": "0x14a34"
      },
      "additionalContracts": [],
      "isFixedGasLimit": false
    },
    {
      "hash": "0xde5b847e62d0d916fd3f7a1a0e0799882178adf564e9accbddf88185e0f27581",
      "transactionType": "CALL",
      "contractName": null,
      "contractAddress": "0xb88d359a7a53458487b300dba46f7da1cf22ec5f",
      "function": "mint(uint256)",
      "arguments": [
        "3"
      ],
      "transaction": {
        "from": "0x8f088eca0009ad61fb94a6d7e9a5d7a087c08564",
        "to": "0xb88d359a7a53458487b300dba46f7da1cf22ec5f",
        "gas": "0x2720d",
        "value": "0x0",
        "input": "0xa0712d680000000000000000000000000000000000000000000000000000000000000003",
        "nonce": "0xd48",
        "chainId": "0x14a34"
      },
      "additionalContracts": [],
      "isFixedGasLimit": false
    },
    {
      "hash": "0x2ea7d69b281f657c15dbf84818268cad4739f000911cfe37e1ae0da25564a9e2",
      "transactionType": "CALL",
      "contractName": null,
      "contractAddress": "0xb88d359a7a53458487b300dba46f7da1cf22ec5f",
      "function": "mint(uint256)",
      "arguments": [
        "3"
      ],
      "transaction": {
        "from": "0x8f088eca0009ad61fb94a6d7e9a5d7a087c08564",
        "to": "0xb88d359a7a53458487b300dba46f7da1cf22ec5f",
        "gas": "0x2720d",
        "value": "0x0",
        "input": "0xa0712d680000000000000000000000000000000000000000000000000000000000000003",
        "nonce": "0xd49",
        "chainId": "0x14a34"
      },
      "additionalContracts": [],
      "isFixedGasLimit": false
    }
  ],
  "receipts": [
    {
      "status": "0x1",
      "cumulativeGasUsed": "0x5b9710",
      "logs": [
        {
          "address": "0xb88d359a7a53458487b300dba46f7da1cf22ec5f",
          "topics": [
            "0xddf252ad1be2c89b69c2b068fc378daa952ba7f163c4a11628f55a4df523b3ef",
            "0x0000000000000000000000000000000000000000000000000000000000000000",
            "0x0000000000000000000000008f088eca0009ad61fb94a6d7e9a5d7a087c08564",
            "0x00000000000000000000000000000000000000000000000000000000002dc6c1"
          ],
          "data": "0x",
          "blockHash": "0xcb99c07afcbe1164e59997f44c9dfd105440f112f49c08d20112194f30dba0d8",
          "blockNumber": "0xad58f9",
          "transactionHash": "0x05bb6ab3a25b532cda867ee474b790e12c50c8d9b647ec2b36f7f4e42c89f3f0",
          "transactionIndex": "0x8",
          "logIndex": "0xa",
          "removed": false
        }
      ],
      "logsBloom": "0x00000000000000000000000000000000000000000000000000000000000000000000000000100000000001000000000000000000000000000000000000000200000000000000000000000008000000000000000000000000000000000000000000000000020000000400000000000800000000000000000000000010000000000000000000000000000000000000000000000000008000000000000000000000000000000000000000000000000000000000000000000000000000000000000008000002004000000000000000000000000000000000000000000000000020000000000000000000800000000000000000000000000000000000040000000000",
      "type": "0x2",
      "transactionHash": "0x05bb6ab3a25b532cda867ee474b790e12c50c8d9b647ec2b36f7f4e42c89f3f0",
      "transactionIndex": "0x8",
      "blockHash": "0xcb99c07afcbe1164e59997f44c9dfd105440f112f49c08d20112194f30dba0d8",
      "blockNumber": "0xad58f9",
      "gasUsed": "0x1eede",
      "effectiveGasPrice": "0xf4346",
      "from": "0x8f088eca0009ad61fb94a6d7e9a5d7a087c08564",
      "to": "0xb88d359a7a53458487b300dba46f7da1cf22ec5f",
      "contractAddress": null,
      "l1BaseFeeScalar": "0x44d",
      "l1BlobBaseFee": "0x142c50",
      "l1BlobBaseFeeScalar": "0xa118b",
      "l1Fee": "0x5331fc4",
      "l1GasPrice": "0xd",
      "l1GasUsed": "0x640"
    },
    {
      "status": "0x1",
      "cumulativeGasUsed": "0x5d4322",
      "logs": [
        {
          "address": "0xb88d359a7a53458487b300dba46f7da1cf22ec5f",
          "topics": [
            "0xddf252ad1be2c89b69c2b068fc378daa952ba7f163c4a11628f55a4df523b3ef",
            "0x0000000000000000000000000000000000000000000000000000000000000000",
            "0x0000000000000000000000008f088eca0009ad61fb94a6d7e9a5d7a087c08564",
            "0x00000000000000000000000000000000000000000000000000000000002dc6c2"
          ],
          "data": "0x",
          "blockHash": "0xcb99c07afcbe1164e59997f44c9dfd105440f112f49c08d20112194f30dba0d8",
          "blockNumber": "0xad58f9",
          "transactionHash": "0xa8d387883b51c6a3948d54ed99c0ac81f7b5ca46942a2b20aef22cb1b746bf2e",
          "transactionIndex": "0x9",
          "logIndex": "0xb",
          "removed": false
        }
      ],
      "logsBloom": "0x00000000000000000000000000000000000000000000000000000000000000000000000000100000000001000000000000000000000000000000000001000200000000000000000000000008000000000000000000000000000000000000000000000000020000000400000000000800000000000000000000000010000000000000000001000000000000000000000000000000000000000000000000000000000000010000000000000000000000000000000000000000000000000000000008000002004000000000000000000000000000000000000000000000000020000000000000000000000000000000000000000000000000000000000000000000",
      "type": "0x2",
      "transactionHash": "0xa8d387883b51c6a3948d54ed99c0ac81f7b5ca46942a2b20aef22cb1b746bf2e",
      "transactionIndex": "0x9",
      "blockHash": "0xcb99c07afcbe1164e59997f44c9dfd105440f112f49c08d20112194f30dba0d8",
      "blockNumber": "0xad58f9",
      "gasUsed": "0x1ac12",
      "effectiveGasPrice": "0xf4346",
      "from": "0x8f088eca0009ad61fb94a6d7e9a5d7a087c08564",
      "to": "0xb88d359a7a53458487b300dba46f7da1cf22ec5f",
      "contractAddress": null,
      "l1BaseFeeScalar": "0x44d",
      "l1BlobBaseFee": "0x142c50",
      "l1BlobBaseFeeScalar": "0xa118b",
      "l1Fee": "0x5331fc4",
      "l1GasPrice": "0xd",
      "l1GasUsed": "0x640"
    },
    {
      "status": "0x1",
      "cumulativeGasUsed": "0x5a51c",
      "logs": [
        {
          "address": "0xb88d359a7a53458487b300dba46f7da1cf22ec5f",
          "topics": [
            "0xddf252ad1be2c89b69c2b068fc378daa952ba7f163c4a11628f55a4df523b3ef",
            "0x0000000000000000000000000000000000000000000000000000000000000000",
            "0x0000000000000000000000008f088eca0009ad61fb94a6d7e9a5d7a087c08564",
            "0x00000000000000000000000000000000000000000000000000000000002dc6c3"
          ],
          "data": "0x",
          "blockHash": "0x06622c098fc8ee98962e5e5fcae57a9da5f1fec2b2b05faed7c73bd5f03c8eaa",
          "blockNumber": "0xad58fa",
          "transactionHash": "0xbd2349e45d1f3bdea79addf7e1c14ac15fb264eff70a306fb6304e441cb94916",
          "transactionIndex": "0x3",
          "logIndex": "0x3",
          "removed": false
        }
      ],
      "logsBloom": "0x00000000000000000000000000000000000000000000000000000000000000000000000000100000000001000000000080000000000000000000000000000200000000000000000000000008000000000000000000000000000000000000000000000000020000000400000000000800000010000000000000000010000000000000000000000000000000000000000000000000000000000000000020000000000000000000000000000000000000000000000000000000000000000000000008000002004000000000000000000000000000000000000000000000000020000000000000000000000000000000000000000000000000000000000000000000",
      "type": "0x2",
      "transactionHash": "0xbd2349e45d1f3bdea79addf7e1c14ac15fb264eff70a306fb6304e441cb94916",
      "transactionIndex": "0x3",
      "blockHash": "0x06622c098fc8ee98962e5e5fcae57a9da5f1fec2b2b05faed7c73bd5f03c8eaa",
      "blockNumber": "0xad58fa",
      "gasUsed": "0x1ac12",
      "effectiveGasPrice": "0xf4347",
      "from": "0x8f088eca0009ad61fb94a6d7e9a5d7a087c08564",
      "to": "0xb88d359a7a53458487b300dba46f7da1cf22ec5f",
      "contractAddress": null,
      "l1BaseFeeScalar": "0x44d",
      "l1BlobBaseFee": "0x11ee80",
      "l1BlobBaseFeeScalar": "0xa118b",
      "l1Fee": "0x49f38b0",
      "l1GasPrice": "0xd",
      "l1GasUsed": "0x640"
    },
    {
      "status": "0x1",
      "cumulativeGasUsed": "0x7512e",
      "logs": [
        {
          "address": "0xb88d359a7a53458487b300dba46f7da1cf22ec5f",
          "topics": [
            "0xddf252ad1be2c89b69c2b068fc378daa952ba7f163c4a11628f55a4df523b3ef",
            "0x0000000000000000000000000000000000000000000000000000000000000000",
            "0x0000000000000000000000008f088eca0009ad61fb94a6d7e9a5d7a087c08564",
            "0x00000000000000000000000000000000000000000000000000000000002dc6c4"
          ],
          "data": "0x",
          "blockHash": "0x06622c098fc8ee98962e5e5fcae57a9da5f1fec2b2b05faed7c73bd5f03c8eaa",
          "blockNumber": "0xad58fa",
          "transactionHash": "0xc418b56ca30bc59685acc282b169e332afc1abc03c6bfdb9e631e1703cab603f",
          "transactionIndex": "0x4",
          "logIndex": "0x4",
          "removed": false
        }
      ],
      "logsBloom": "0x00000000000000000000000000000000000000000000000000000000000000000000000000100000000001000000000400000000000000000000000000000200000000000000000000000008000000000000000000000000000000000000000000000000020000000400000000000800000000000000000000000010000000000000000000000000000000000000000000000000000000000000000000000000000000000000000000000000000000000000000000000000000000000000000008000002004200000000000000000000000000000000000000000000000020000000000000000000000000400000000000000000000000000000000000000000",
      "type": "0x2",
      "transactionHash": "0xc418b56ca30bc59685acc282b169e332afc1abc03c6bfdb9e631e1703cab603f",
      "transactionIndex": "0x4",
      "blockHash": "0x06622c098fc8ee98962e5e5fcae57a9da5f1fec2b2b05faed7c73bd5f03c8eaa",
      "blockNumber": "0xad58fa",
      "gasUsed": "0x1ac12",
      "effectiveGasPrice": "0xf4347",
      "from": "0x8f088eca0009ad61fb94a6d7e9a5d7a087c08564",
      "to": "0xb88d359a7a53458487b300dba46f7da1cf22ec5f",
      "contractAddress": null,
      "l1BaseFeeScalar": "0x44d",
      "l1BlobBaseFee": "0x11ee80",
      "l1BlobBaseFeeScalar": "0xa118b",
      "l1Fee": "0x49f38b0",
      "l1GasPrice": "0xd",
      "l1GasUsed": "0x640"
    },
    {
      "status": "0x1",
      "cumulativeGasUsed": "0x8fd40",
      "logs": [
        {
          "address": "0xb88d359a7a53458487b300dba46f7da1cf22ec5f",
          "topics": [
            "0xddf252ad1be2c89b69c2b068fc378daa952ba7f163c4a11628f55a4df523b3ef",
            "0x0000000000000000000000000000000000000000000000000000000000000000",
            "0x0000000000000000000000008f088eca0009ad61fb94a6d7e9a5d7a087c08564",
            "0x00000000000000000000000000000000000000000000000000000000002dc6c5"
          ],
          "data": "0x",
          "blockHash": "0x06622c098fc8ee98962e5e5fcae57a9da5f1fec2b2b05faed7c73bd5f03c8eaa",
          "blockNumber": "0xad58fa",
          "transactionHash": "0xb2be0cc48d55d4b6e08ef1a807901725d9acb83564a8e67e718115a41063270a",
          "transactionIndex": "0x5",
          "logIndex": "0x5",
          "removed": false
        }
      ],
      "logsBloom": "0x00000000000000000000000000000000000000000000000000000000000000000000000000100000000001000000000000000000000000000000000000000200000000000000000000000008000000000000000000000000000000000000000000000000020000000400000000000800000000000000000000000010000000000000000000000000000000000000000001000000000000000000000000000000000000000000000000000000000000000002000000000000000000000000000008000002004000000000000000000000000020000000000000000000000020000000000000000000000000000000000000000000000000000000000000000000",
      "type": "0x2",
      "transactionHash": "0xb2be0cc48d55d4b6e08ef1a807901725d9acb83564a8e67e718115a41063270a",
      "transactionIndex": "0x5",
      "blockHash": "0x06622c098fc8ee98962e5e5fcae57a9da5f1fec2b2b05faed7c73bd5f03c8eaa",
      "blockNumber": "0xad58fa",
      "gasUsed": "0x1ac12",
      "effectiveGasPrice": "0xf4347",
      "from": "0x8f088eca0009ad61fb94a6d7e9a5d7a087c08564",
      "to": "0xb88d359a7a53458487b300dba46f7da1cf22ec5f",
      "contractAddress": null,
      "l1BaseFeeScalar": "0x44d",
      "l1BlobBaseFee": "0x11ee80",
      "l1BlobBaseFeeScalar": "0xa118b",
      "l1Fee": "0x49f38b0",
      "l1GasPrice": "0xd",
      "l1GasUsed": "0x640"
    },
    {
      "status": "0x1",
      "cumulativeGasUsed": "0xaa952",
      "logs": [
        {
          "address": "0xb88d359a7a53458487b300dba46f7da1cf22ec5f",
          "topics": [
            "0xddf252ad1be2c89b69c2b068fc378daa952ba7f163c4a11628f55a4df523b3ef",
            "0x0000000000000000000000000000000000000000000000000000000000000000",
            "0x0000000000000000000000008f088eca0009ad61fb94a6d7e9a5d7a087c08564",
            "0x00000000000000000000000000000000000000000000000000000000002dc6c6"
          ],
          "data": "0x",
          "blockHash": "0x06622c098fc8ee98962e5e5fcae57a9da5f1fec2b2b05faed7c73bd5f03c8eaa",
          "blockNumber": "0xad58fa",
          "transactionHash": "0x6b77c4a75763e72f208678e866e010d699d79a8430b3370c60ce057187467a7a",
          "transactionIndex": "0x6",
          "logIndex": "0x6",
          "removed": false
        }
      ],
      "logsBloom": "0x00000000000000000000000000000000000000000000000000000000000000000000000000100000000001000000000000000000000000000000000000000200000000000000000000000008040000000000000000040000000000000000000002000000020000000400000000000800000000000000000000000010000000000000000000000000000000000000000000000000000000000000000000000000000000000000000000000000000000000000000000000000000000000000000008000002004000000000000000000000000000000000000000000000000020000000000000000000000000000000000000000000000000000000000000000000",
      "type": "0x2",
      "transactionHash": "0x6b77c4a75763e72f208678e866e010d699d79a8430b3370c60ce057187467a7a",
      "transactionIndex": "0x6",
      "blockHash": "0x06622c098fc8ee98962e5e5fcae57a9da5f1fec2b2b05faed7c73bd5f03c8eaa",
      "blockNumber": "0xad58fa",
      "gasUsed": "0x1ac12",
      "effectiveGasPrice": "0xf4347",
      "from": "0x8f088eca0009ad61fb94a6d7e9a5d7a087c08564",
      "to": "0xb88d359a7a53458487b300dba46f7da1cf22ec5f",
      "contractAddress": null,
      "l1BaseFeeScalar": "0x44d",
      "l1BlobBaseFee": "0x11ee80",
      "l1BlobBaseFeeScalar": "0xa118b",
      "l1Fee": "0x49f38b0",
      "l1GasPrice": "0xd",
      "l1GasUsed": "0x640"
    },
    {
      "status": "0x1",
      "cumulativeGasUsed": "0xc5564",
      "logs": [
        {
          "address": "0xb88d359a7a53458487b300dba46f7da1cf22ec5f",
          "topics": [
            "0xddf252ad1be2c89b69c2b068fc378daa952ba7f163c4a11628f55a4df523b3ef",
            "0x0000000000000000000000000000000000000000000000000000000000000000",
            "0x0000000000000000000000008f088eca0009ad61fb94a6d7e9a5d7a087c08564",
            "0x00000000000000000000000000000000000000000000000000000000002dc6c7"
          ],
          "data": "0x",
          "blockHash": "0x06622c098fc8ee98962e5e5fcae57a9da5f1fec2b2b05faed7c73bd5f03c8eaa",
          "blockNumber": "0xad58fa",
          "transactionHash": "0xc70fdaee8ea4017fc1aacf83231d5e16961e7419857757d106a6adcacefca96a",
          "transactionIndex": "0x7",
          "logIndex": "0x7",
          "removed": false
        }
      ],
      "logsBloom": "0x00000000000000000000000000000000000000000000000000000000000000000000000000100000000001000000000000000000000000000000000000000200000000000000000000000008000000000000800000000000000000000000000000000000020000000400000000000800000000000000000000000010000000000000000000000000000000010000000000000000000000000000000000000000000000000000000000000000040000000000000000000000000000000000000008000002004000000000000000000000000000000000000000000000000020000000000000000000000000000000000000000000000000000000000000000000",
      "type": "0x2",
      "transactionHash": "0xc70fdaee8ea4017fc1aacf83231d5e16961e7419857757d106a6adcacefca96a",
      "transactionIndex": "0x7",
      "blockHash": "0x06622c098fc8ee98962e5e5fcae57a9da5f1fec2b2b05faed7c73bd5f03c8eaa",
      "blockNumber": "0xad58fa",
      "gasUsed": "0x1ac12",
      "effectiveGasPrice": "0xf4347",
      "from": "0x8f088eca0009ad61fb94a6d7e9a5d7a087c08564",
      "to": "0xb88d359a7a53458487b300dba46f7da1cf22ec5f",
      "contractAddress": null,
      "l1BaseFeeScalar": "0x44d",
      "l1BlobBaseFee": "0x11ee80",
      "l1BlobBaseFeeScalar": "0xa118b",
      "l1Fee": "0x49f38b0",
      "l1GasPrice": "0xd",
      "l1GasUsed": "0x640"
    },
    {
      "status": "0x1",
      "cumulativeGasUsed": "0xe0176",
      "logs": [
        {
          "address": "0xb88d359a7a53458487b300dba46f7da1cf22ec5f",
          "topics": [
            "0xddf252ad1be2c89b69c2b068fc378daa952ba7f163c4a11628f55a4df523b3ef",
            "0x0000000000000000000000000000000000000000000000000000000000000000",
            "0x0000000000000000000000008f088eca0009ad61fb94a6d7e9a5d7a087c08564",
            "0x00000000000000000000000000000000000000000000000000000000002dc6c8"
          ],
          "data": "0x",
          "blockHash": "0x06622c098fc8ee98962e5e5fcae57a9da5f1fec2b2b05faed7c73bd5f03c8eaa",
          "blockNumber": "0xad58fa",
          "transactionHash": "0x142e8f136c026d8479dc427fcfad2d4d8fbe581d3bb6ec0597a0b56ae03b6a0e",
          "transactionIndex": "0x8",
          "logIndex": "0x8",
          "removed": false
        }
      ],
      "logsBloom": "0x00000000000000000000000000000000001000000000000000000000000000000000000000100000000001000000000000000000000000000000000000000200000000000000000000000008000000000000000000000000000000000000000000000000020008000400000000000800000000000000000000000010000000000000000000000000000000000000000000000004000000000000000000000000000000000000000000000000000000000000000000000000000000000000000008000002004000000000000000000000000000000000000000000000000020000000000000000000000000000000000000000000000000000000000000000000",
      "type": "0x2",
      "transactionHash": "0x142e8f136c026d8479dc427fcfad2d4d8fbe581d3bb6ec0597a0b56ae03b6a0e",
      "transactionIndex": "0x8",
      "blockHash": "0x06622c098fc8ee98962e5e5fcae57a9da5f1fec2b2b05faed7c73bd5f03c8eaa",
      "blockNumber": "0xad58fa",
      "gasUsed": "0x1ac12",
      "effectiveGasPrice": "0xf4347",
      "from": "0x8f088eca0009ad61fb94a6d7e9a5d7a087c08564",
      "to": "0xb88d359a7a53458487b300dba46f7da1cf22ec5f",
      "contractAddress": null,
      "l1BaseFeeScalar": "0x44d",
      "l1BlobBaseFee": "0x11ee80",
      "l1BlobBaseFeeScalar": "0xa118b",
      "l1Fee": "0x49f38b0",
      "l1GasPrice": "0xd",
      "l1GasUsed": "0x640"
    },
    {
      "status": "0x1",
      "cumulativeGasUsed": "0xfad88",
      "logs": [
        {
          "address": "0xb88d359a7a53458487b300dba46f7da1cf22ec5f",
          "topics": [
            "0xddf252ad1be2c89b69c2b068fc378daa952ba7f163c4a11628f55a4df523b3ef",
            "0x0000000000000000000000000000000000000000000000000000000000000000",
            "0x0000000000000000000000008f088eca0009ad61fb94a6d7e9a5d7a087c08564",
            "0x00000000000000000000000000000000000000000000000000000000002dc6c9"
          ],
          "data": "0x",
          "blockHash": "0x06622c098fc8ee98962e5e5fcae57a9da5f1fec2b2b05faed7c73bd5f03c8eaa",
          "blockNumber": "0xad58fa",
          "transactionHash": "0xde5b847e62d0d916fd3f7a1a0e0799882178adf564e9accbddf88185e0f27581",
          "transactionIndex": "0x9",
          "logIndex": "0x9",
          "removed": false
        }
      ],
      "logsBloom": "0x00000000000000000000000000000000000000000000400000000000000000000000000000100000000001000000000000000000000000000000000000000200000000000000000000000008000000000000000000000000000000000000000000000000020000000400000000000800000000000000000000000010000000000000000000000000000000000000000000000000000000000000000000000000000000000000000000000000000000000000000000000000000000000000000018000002004000000000000000000000000000000000000000000000000020000000000000000000000000000040000000000000000000000000000000000000",
      "type": "0x2",
      "transactionHash": "0xde5b847e62d0d916fd3f7a1a0e0799882178adf564e9accbddf88185e0f27581",
      "transactionIndex": "0x9",
      "blockHash": "0x06622c098fc8ee98962e5e5fcae57a9da5f1fec2b2b05faed7c73bd5f03c8eaa",
      "blockNumber": "0xad58fa",
      "gasUsed": "0x1ac12",
      "effectiveGasPrice": "0xf4347",
      "from": "0x8f088eca0009ad61fb94a6d7e9a5d7a087c08564",
      "to": "0xb88d359a7a53458487b300dba46f7da1cf22ec5f",
      "contractAddress": null,
      "l1BaseFeeScalar": "0x44d",
      "l1BlobBaseFee": "0x11ee80",
      "l1BlobBaseFeeScalar": "0xa118b",
      "l1Fee": "0x49f38b0",
      "l1GasPrice": "0xd",
      "l1GasUsed": "0x640"
    },
    {
      "status": "0x1",
      "cumulativeGasUsed": "0x11599a",
      "logs": [
        {
          "address": "0xb88d359a7a53458487b300dba46f7da1cf22ec5f",
          "topics": [
            "0xddf252ad1be2c89b69c2b068fc378daa952ba7f163c4a11628f55a4df523b3ef",
            "0x0000000000000000000000000000000000000000000000000000000000000000",
            "0x0000000000000000000000008f088eca0009ad61fb94a6d7e9a5d7a087c08564",
            "0x00000000000000000000000000000000000000000000000000000000002dc6ca"
          ],
          "data": "0x",
          "blockHash": "0x06622c098fc8ee98962e5e5fcae57a9da5f1fec2b2b05faed7c73bd5f03c8eaa",
          "blockNumber": "0xad58fa",
          "transactionHash": "0x2ea7d69b281f657c15dbf84818268cad4739f000911cfe37e1ae0da25564a9e2",
          "transactionIndex": "0xa",
          "logIndex": "0xa",
          "removed": false
        }
      ],
      "logsBloom": "0x00000000000000000000000800000000000000000000000000000000000000000000000000100000000001000000000000000000000000000000000000000200000000000000000000000008000000000000000000000000000000000000000000000000020000000400000000000800000000000000000000000010000000000000000000000000000000001000000000000000000000000000000000000000000000000000000000000000000000000000000000000000000000000000000008000002004000000000000000000000000000000000000000000000000020000000000000000000000000000000000000000000000000400000000000000000",
      "type": "0x2",
      "transactionHash": "0x2ea7d69b281f657c15dbf84818268cad4739f000911cfe37e1ae0da25564a9e2",
      "transactionIndex": "0xa",
      "blockHash": "0x06622c098fc8ee98962e5e5fcae57a9da5f1fec2b2b05faed7c73bd5f03c8eaa",
      "blockNumber": "0xad58fa",
      "gasUsed": "0x1ac12",
      "effectiveGasPrice": "0xf4347",
      "from": "0x8f088eca0009ad61fb94a6d7e9a5d7a087c08564",
      "to": "0xb88d359a7a53458487b300dba46f7da1cf22ec5f",
      "contractAddress": null,
      "l1BaseFeeScalar": "0x44d",
      "l1BlobBaseFee": "0x11ee80",
      "l1BlobBaseFeeScalar": "0xa118b",
      "l1Fee": "0x49f38b0",
      "l1GasPrice": "0xd",
      "l1GasUsed": "0x640"
    }
  ],
  "libraries": [],
  "pending": [],
  "returns": {},
  "timestamp": 1718489305,
  "chain": 84532,
  "commit": "3e641a5"
}