{
  "transactions": [
    {
      "hash": "0x4c641997d9bcd22d47ad5ead54cc5339a031e35fdbc1ec5c88dd08aaf2b156c3",
      "transactionType": "CALL",
      "contractName": null,
      "contractAddress": "0xe2b6353511c5374b77aa67a1b1a9f2ede7dc1ea7",
      "function": "mint(uint256)",
      "arguments": [
        "4"
      ],
      "transaction": {
        "from": "0x8f088eca0009ad61fb94a6d7e9a5d7a087c08564",
        "to": "0xe2b6353511c5374b77aa67a1b1a9f2ede7dc1ea7",
        "gas": "0x22195",
        "value": "0x0",
        "input": "0xa0712d680000000000000000000000000000000000000000000000000000000000000004",
        "nonce": "0xcad",
        "chainId": "0x14a34"
      },
      "additionalContracts": [],
      "isFixedGasLimit": false
    },
    {
      "hash": "0x13c9c4a7561d3f920ae706fe5bf1e0d9c8062e0e00bdee8987c6c3447a627963",
      "transactionType": "CALL",
      "contractName": null,
      "contractAddress": "0xe2b6353511c5374b77aa67a1b1a9f2ede7dc1ea7",
      "function": "mint(uint256)",
      "arguments": [
        "4"
      ],
      "transaction": {
        "from": "0x8f088eca0009ad61fb94a6d7e9a5d7a087c08564",
        "to": "0xe2b6353511c5374b77aa67a1b1a9f2ede7dc1ea7",
        "gas": "0x22195",
        "value": "0x0",
        "input": "0xa0712d680000000000000000000000000000000000000000000000000000000000000004",
        "nonce": "0xcae",
        "chainId": "0x14a34"
      },
      "additionalContracts": [],
      "isFixedGasLimit": false
    },
    {
      "hash": "0x8e028526f275b3f7202e368db5a9f29e3d5eaca166cbf6d06a0263588d37ca76",
      "transactionType": "CALL",
      "contractName": null,
      "contractAddress": "0xe2b6353511c5374b77aa67a1b1a9f2ede7dc1ea7",
      "function": "mint(uint256)",
      "arguments": [
        "4"
      ],
      "transaction": {
        "from": "0x8f088eca0009ad61fb94a6d7e9a5d7a087c08564",
        "to": "0xe2b6353511c5374b77aa67a1b1a9f2ede7dc1ea7",
        "gas": "0x22195",
        "value": "0x0",
        "input": "0xa0712d680000000000000000000000000000000000000000000000000000000000000004",
        "nonce": "0xcaf",
        "chainId": "0x14a34"
      },
      "additionalContracts": [],
      "isFixedGasLimit": false
    },
    {
      "hash": "0xe0a0bb633d44f060f06018caef6c54309930b418e93adacfe278fd64f34f2552",
      "transactionType": "CALL",
      "contractName": null,
      "contractAddress": "0xe2b6353511c5374b77aa67a1b1a9f2ede7dc1ea7",
      "function": "mint(uint256)",
      "arguments": [
        "4"
      ],
      "transaction": {
        "from": "0x8f088eca0009ad61fb94a6d7e9a5d7a087c08564",
        "to": "0xe2b6353511c5374b77aa67a1b1a9f2ede7dc1ea7",
        "gas": "0x22195",
        "value": "0x0",
        "input": "0xa0712d680000000000000000000000000000000000000000000000000000000000000004",
        "nonce": "0xcb0",
        "chainId": "0x14a34"
      },
      "additionalContracts": [],
      "isFixedGasLimit": false
    },
    {
      "hash": "0x24a47b446c4a3606cac9bc5e6b308c76cb149416a4a97988d6b404b77fa8b895",
      "transactionType": "CALL",
      "contractName": null,
      "contractAddress": "0xe2b6353511c5374b77aa67a1b1a9f2ede7dc1ea7",
      "function": "mint(uint256)",
      "arguments": [
        "4"
      ],
      "transaction": {
        "from": "0x8f088eca0009ad61fb94a6d7e9a5d7a087c08564",
        "to": "0xe2b6353511c5374b77aa67a1b1a9f2ede7dc1ea7",
        "gas": "0x22195",
        "value": "0x0",
        "input": "0xa0712d680000000000000000000000000000000000000000000000000000000000000004",
        "nonce": "0xcb1",
        "chainId": "0x14a34"
      },
      "additionalContracts": [],
      "isFixedGasLimit": false
    },
    {
      "hash": "0x4377ba4b853819fed4fc8fdc27912be7834bdc7a4d6c988f531f643974fec7af",
      "transactionType": "CALL",
      "contractName": null,
      "contractAddress": "0xe2b6353511c5374b77aa67a1b1a9f2ede7dc1ea7",
      "function": "mint(uint256)",
      "arguments": [
        "4"
      ],
      "transaction": {
        "from": "0x8f088eca0009ad61fb94a6d7e9a5d7a087c08564",
        "to": "0xe2b6353511c5374b77aa67a1b1a9f2ede7dc1ea7",
        "gas": "0x22195",
        "value": "0x0",
        "input": "0xa0712d680000000000000000000000000000000000000000000000000000000000000004",
        "nonce": "0xcb2",
        "chainId": "0x14a34"
      },
      "additionalContracts": [],
      "isFixedGasLimit": false
    },
    {
      "hash": "0xb2a7cc282ca20487a08c4944c1aa7e6a3295fc5e28f49c3cba86c0e514a293d0",
      "transactionType": "CALL",
      "contractName": null,
      "contractAddress": "0xe2b6353511c5374b77aa67a1b1a9f2ede7dc1ea7",
      "function": "mint(uint256)",
      "arguments": [
        "4"
      ],
      "transaction": {
        "from": "0x8f088eca0009ad61fb94a6d7e9a5d7a087c08564",
        "to": "0xe2b6353511c5374b77aa67a1b1a9f2ede7dc1ea7",
        "gas": "0x22195",
        "value": "0x0",
        "input": "0xa0712d680000000000000000000000000000000000000000000000000000000000000004",
        "nonce": "0xcb3",
        "chainId": "0x14a34"
      },
      "additionalContracts": [],
      "isFixedGasLimit": false
    },
    {
      "hash": "0xd819a87347d8c1b5c8123e680713892b86088bbd7ab71f78ad465e1141c23c77",
      "transactionType": "CALL",
      "contractName": null,
      "contractAddress": "0xe2b6353511c5374b77aa67a1b1a9f2ede7dc1ea7",
      "function": "mint(uint256)",
      "arguments": [
        "4"
      ],
      "transaction": {
        "from": "0x8f088eca0009ad61fb94a6d7e9a5d7a087c08564",
        "to": "0xe2b6353511c5374b77aa67a1b1a9f2ede7dc1ea7",
        "gas": "0x22195",
        "value": "0x0",
        "input": "0xa0712d680000000000000000000000000000000000000000000000000000000000000004",
        "nonce": "0xcb4",
        "chainId": "0x14a34"
      },
      "additionalContracts": [],
      "isFixedGasLimit": false
    },
    {
      "hash": "0x576e45919a912323345c9e2d994d3efedfcc275eeb3999833f0b1decede3ab66",
      "transactionType": "CALL",
      "contractName": null,
      "contractAddress": "0xe2b6353511c5374b77aa67a1b1a9f2ede7dc1ea7",
      "function": "mint(uint256)",
      "arguments": [
        "4"
      ],
      "transaction": {
        "from": "0x8f088eca0009ad61fb94a6d7e9a5d7a087c08564",
        "to": "0xe2b6353511c5374b77aa67a1b1a9f2ede7dc1ea7",
        "gas": "0x22195",
        "value": "0x0",
        "input": "0xa0712d680000000000000000000000000000000000000000000000000000000000000004",
        "nonce": "0xcb5",
        "chainId": "0x14a34"
      },
      "additionalContracts": [],
      "isFixedGasLimit": false
    },
    {
      "hash": "0x81ab81b141b208e809cc17c3d5665edbd04691435b650da3673d394058ad9ecf",
      "transactionType": "CALL",
      "contractName": null,
      "contractAddress": "0xe2b6353511c5374b77aa67a1b1a9f2ede7dc1ea7",
      "function": "mint(uint256)",
      "arguments": [
        "4"
      ],
      "transaction": {
        "from": "0x8f088eca0009ad61fb94a6d7e9a5d7a087c08564",
        "to": "0xe2b6353511c5374b77aa67a1b1a9f2ede7dc1ea7",
        "gas": "0x22195",
        "value": "0x0",
        "input": "0xa0712d680000000000000000000000000000000000000000000000000000000000000004",
        "nonce": "0xcb6",
        "chainId": "0x14a34"
      },
      "additionalContracts": [],
      "isFixedGasLimit": false
    },
    {
      "hash": "0xbb60e3c97499d8d850d81b0d2698146784a7f7d53da442082bfdb42c4c50236a",
      "transactionType": "CALL",
      "contractName": null,
      "contractAddress": "0xe2b6353511c5374b77aa67a1b1a9f2ede7dc1ea7",
      "function": "mint(uint256)",
      "arguments": [
        "4"
      ],
      "transaction": {
        "from": "0x8f088eca0009ad61fb94a6d7e9a5d7a087c08564",
        "to": "0xe2b6353511c5374b77aa67a1b1a9f2ede7dc1ea7",
        "gas": "0x22195",
        "value": "0x0",
        "input": "0xa0712d680000000000000000000000000000000000000000000000000000000000000004",
        "nonce": "0xcb7",
        "chainId": "0x14a34"
      },
      "additionalContracts": [],
      "isFixedGasLimit": false
    },
    {
      "hash": "0x34ae37e3e2bb4268af4f2b996d6c2fbf9e1eac42bae26e7ec17dc8b08d641fe5",
      "transactionType": "CALL",
      "contractName": null,
      "contractAddress": "0xe2b6353511c5374b77aa67a1b1a9f2ede7dc1ea7",
      "function": "mint(uint256)",
      "arguments": [
        "4"
      ],
      "transaction": {
        "from": "0x8f088eca0009ad61fb94a6d7e9a5d7a087c08564",
        "to": "0xe2b6353511c5374b77aa67a1b1a9f2ede7dc1ea7",
        "gas": "0x22195",
        "value": "0x0",
        "input": "0xa0712d680000000000000000000000000000000000000000000000000000000000000004",
        "nonce": "0xcb8",
        "chainId": "0x14a34"
      },
      "additionalContracts": [],
      "isFixedGasLimit": false
    },
    {
      "hash": "0x4cffb2e412a90f87e9e2633896b498f0f25b0d8726f50c13427f3e420aa40a14",
      "transactionType": "CALL",
      "contractName": null,
      "contractAddress": "0xe2b6353511c5374b77aa67a1b1a9f2ede7dc1ea7",
      "function": "mint(uint256)",
      "arguments": [
        "4"
      ],
      "transaction": {
        "from": "0x8f088eca0009ad61fb94a6d7e9a5d7a087c08564",
        "to": "0xe2b6353511c5374b77aa67a1b1a9f2ede7dc1ea7",
        "gas": "0x22195",
        "value": "0x0",
        "input": "0xa0712d680000000000000000000000000000000000000000000000000000000000000004",
        "nonce": "0xcb9",
        "chainId": "0x14a34"
      },
      "additionalContracts": [],
      "isFixedGasLimit": false
    },
    {
      "hash": "0x3a128d3c20ff122dc4ec7aab599920539b27f792b9f039298b069e3f76f858d6",
      "transactionType": "CALL",
      "contractName": null,
      "contractAddress": "0xe2b6353511c5374b77aa67a1b1a9f2ede7dc1ea7",
      "function": "mint(uint256)",
      "arguments": [
        "4"
      ],
      "transaction": {
        "from": "0x8f088eca0009ad61fb94a6d7e9a5d7a087c08564",
        "to": "0xe2b6353511c5374b77aa67a1b1a9f2ede7dc1ea7",
        "gas": "0x22195",
        "value": "0x0",
        "input": "0xa0712d680000000000000000000000000000000000000000000000000000000000000004",
        "nonce": "0xcba",
        "chainId": "0x14a34"
      },
      "additionalContracts": [],
      "isFixedGasLimit": false
    },
    {
      "hash": "0x1ac97fb2c54a8809f56551c8802a0b3288a0fd377beba5cf99413f9457fa6859",
      "transactionType": "CALL",
      "contractName": null,
      "contractAddress": "0xe2b6353511c5374b77aa67a1b1a9f2ede7dc1ea7",
      "function": "mint(uint256)",
      "arguments": [
        "4"
      ],
      "transaction": {
        "from": "0x8f088eca0009ad61fb94a6d7e9a5d7a087c08564",
        "to": "0xe2b6353511c5374b77aa67a1b1a9f2ede7dc1ea7",
        "gas": "0x22195",
        "value": "0x0",
        "input": "0xa0712d680000000000000000000000000000000000000000000000000000000000000004",
        "nonce": "0xcbb",
        "chainId": "0x14a34"
      },
      "additionalContracts": [],
      "isFixedGasLimit": false
    },
    {
      "hash": "0xe558cede7bcaa9f5dcb2b9c38e05e50aaed17c7e316da59cb7ceefb5ffe6c8fc",
      "transactionType": "CALL",
      "contractName": null,
      "contractAddress": "0xe2b6353511c5374b77aa67a1b1a9f2ede7dc1ea7",
      "function": "mint(uint256)",
      "arguments": [
        "4"
      ],
      "transaction": {
        "from": "0x8f088eca0009ad61fb94a6d7e9a5d7a087c08564",
        "to": "0xe2b6353511c5374b77aa67a1b1a9f2ede7dc1ea7",
        "gas": "0x22195",
        "value": "0x0",
        "input": "0xa0712d680000000000000000000000000000000000000000000000000000000000000004",
        "nonce": "0xcbc",
        "chainId": "0x14a34"
      },
      "additionalContracts": [],
      "isFixedGasLimit": false
    },
    {
      "hash": "0x7aa7d6c4cb10e62a78a73965ae8ffb5fc796b518a4458cbc0fccf8829b79d1e5",
      "transactionType": "CALL",
      "contractName": null,
      "contractAddress": "0xe2b6353511c5374b77aa67a1b1a9f2ede7dc1ea7",
      "function": "mint(uint256)",
      "arguments": [
        "4"
      ],
      "transaction": {
        "from": "0x8f088eca0009ad61fb94a6d7e9a5d7a087c08564",
        "to": "0xe2b6353511c5374b77aa67a1b1a9f2ede7dc1ea7",
        "gas": "0x22195",
        "value": "0x0",
        "input": "0xa0712d680000000000000000000000000000000000000000000000000000000000000004",
        "nonce": "0xcbd",
        "chainId": "0x14a34"
      },
      "additionalContracts": [],
      "isFixedGasLimit": false
    },
    {
      "hash": "0x10218b850ac96b0971a4b8e4102a3019746d436fc7edac945ccca176b82bb06a",
      "transactionType": "CALL",
      "contractName": null,
      "contractAddress": "0xe2b6353511c5374b77aa67a1b1a9f2ede7dc1ea7",
      "function": "mint(uint256)",
      "arguments": [
        "4"
      ],
      "transaction": {
        "from": "0x8f088eca0009ad61fb94a6d7e9a5d7a087c08564",
        "to": "0xe2b6353511c5374b77aa67a1b1a9f2ede7dc1ea7",
        "gas": "0x22195",
        "value": "0x0",
        "input": "0xa0712d680000000000000000000000000000000000000000000000000000000000000004",
        "nonce": "0xcbe",
        "chainId": "0x14a34"
      },
      "additionalContracts": [],
      "isFixedGasLimit": false
    },
    {
      "hash": "0x3cbf10ae4c7efe9d0a9344b42496cb1ae5dd55c366d70ac4f06883da10119c59",
      "transactionType": "CALL",
      "contractName": null,
      "contractAddress": "0xe2b6353511c5374b77aa67a1b1a9f2ede7dc1ea7",
      "function": "mint(uint256)",
      "arguments": [
        "4"
      ],
      "transaction": {
        "from": "0x8f088eca0009ad61fb94a6d7e9a5d7a087c08564",
        "to": "0xe2b6353511c5374b77aa67a1b1a9f2ede7dc1ea7",
        "gas": "0x22195",
        "value": "0x0",
        "input": "0xa0712d680000000000000000000000000000000000000000000000000000000000000004",
        "nonce": "0xcbf",
        "chainId": "0x14a34"
      },
      "additionalContracts": [],
      "isFixedGasLimit": false
    },
    {
      "hash": "0x69a56714633bf32a402d3b4a3d23444abfa261117bd121a33061018a99bf9d4d",
      "transactionType": "CALL",
      "contractName": null,
      "contractAddress": "0xe2b6353511c5374b77aa67a1b1a9f2ede7dc1ea7",
      "function": "mint(uint256)",
      "arguments": [
        "4"
      ],
      "transaction": {
        "from": "0x8f088eca0009ad61fb94a6d7e9a5d7a087c08564",
        "to": "0xe2b6353511c5374b77aa67a1b1a9f2ede7dc1ea7",
        "gas": "0x22195",
        "value": "0x0",
        "input": "0xa0712d680000000000000000000000000000000000000000000000000000000000000004",
        "nonce": "0xcc0",
        "chainId": "0x14a34"
      },
      "additionalContracts": [],
      "isFixedGasLimit": false
    }
  ],
  "receipts": [
    {
      "status": "0x1",
      "cumulativeGasUsed": "0x6ae52",
      "logs": [
        {
          "address": "0xe2b6353511c5374b77aa67a1b1a9f2ede7dc1ea7",
          "topics": [
            "0xddf252ad1be2c89b69c2b068fc378daa952ba7f163c4a11628f55a4df523b3ef",
            "0x0000000000000000000000000000000000000000000000000000000000000000",
            "0x0000000000000000000000008f088eca0009ad61fb94a6d7e9a5d7a087c08564",
            "0x00000000000000000000000000000000000000000000000000000000003d0932"
          ],
          "data": "0x",
          "blockHash": "0x8e1cfd175af7d037acfb8a69e17a4b61326bac4fa902cc6080084c92e0c6adb1",
          "blockNumber": "0xa15a58",
          "transactionHash": "0x4c641997d9bcd22d47ad5ead54cc5339a031e35fdbc1ec5c88dd08aaf2b156c3",
          "transactionIndex": "0x5",
          "logIndex": "0x4",
          "removed": false
        }
      ],
      "logsBloom": "0x00000000000000000000000000000000000000000000000000000000000000000000000000100000000001000000000000000000000000000000020000000200000000000020004000000008000000000000000000000000000000000000000000000000020000000000000000000800000000008000000000000010000000000000000000000000000000000000000000000000000000000000000000000000000000000000000010000000000000000000000040000000000000000000000000000002000000000000000000000000000000000000000000000000000020000000000000000000000000000000000000000000000000000000000000000000",
      "type": "0x2",
      "transactionHash": "0x4c641997d9bcd22d47ad5ead54cc5339a031e35fdbc1ec5c88dd08aaf2b156c3",
      "transactionIndex": "0x5",
      "blockHash": "0x8e1cfd175af7d037acfb8a69e17a4b61326bac4fa902cc6080084c92e0c6adb1",
      "blockNumber": "0xa15a58",
      "gasUsed": "0x18aff",
      "effectiveGasPrice": "0x187a2",
      "from": "0x8f088eca0009ad61fb94a6d7e9a5d7a087c08564",
      "to": "0xe2b6353511c5374b77aa67a1b1a9f2ede7dc1ea7",
      "contractAddress": null,
      "l1BaseFeeScalar": "0x44d",
      "l1BlobBaseFee": "0x7a4f249ab07",
      "l1BlobBaseFeeScalar": "0xa118b",
      "l1Fee": "0x27a51b3fd1ea4",
      "l1GasPrice": "0x28734f91f",
      "l1GasUsed": "0x7dc"
    },
    {
      "status": "0x1",
      "cumulativeGasUsed": "0x83951",
      "logs": [
        {
          "address": "0xe2b6353511c5374b77aa67a1b1a9f2ede7dc1ea7",
          "topics": [
            "0xddf252ad1be2c89b69c2b068fc378daa952ba7f163c4a11628f55a4df523b3ef",
            "0x0000000000000000000000000000000000000000000000000000000000000000",
            "0x0000000000000000000000008f088eca0009ad61fb94a6d7e9a5d7a087c08564",
            "0x00000000000000000000000000000000000000000000000000000000003d0933"
          ],
          "data": "0x",
          "blockHash": "0x8e1cfd175af7d037acfb8a69e17a4b61326bac4fa902cc6080084c92e0c6adb1",
          "blockNumber": "0xa15a58",
          "transactionHash": "0x13c9c4a7561d3f920ae706fe5bf1e0d9c8062e0e00bdee8987c6c3447a627963",
          "transactionIndex": "0x6",
          "logIndex": "0x5",
          "removed": false
        }
      ],
      "logsBloom": "0x00000000000000000000000000000000000000000000000000000000000000000000000000100000000001000000000000000000000000000000020000000200000000000000000000000008000000000000000000000000000000000000000000000000020000000000000000000800000000008000000000000010000000000000000000000000000000000000000000000000000000000000000000000000000000000000000010000000000000000000000000000000000000000000000000000002000000000000000000000000000000000000000000000000000020000000000800000000000000000200000000000000000000000000004000000000",
      "type": "0x2",
      "transactionHash": "0x13c9c4a7561d3f920ae706fe5bf1e0d9c8062e0e00bdee8987c6c3447a627963",
      "transactionIndex": "0x6",
      "blockHash": "0x8e1cfd175af7d037acfb8a69e17a4b61326bac4fa902cc6080084c92e0c6adb1",
      "blockNumber": "0xa15a58",
      "gasUsed": "0x18aff",
      "effectiveGasPrice": "0x187a2",
      "from": "0x8f088eca0009ad61fb94a6d7e9a5d7a087c08564",
      "to": "0xe2b6353511c5374b77aa67a1b1a9f2ede7dc1ea7",
      "contractAddress": null,
      "l1BaseFeeScalar": "0x44d",
      "l1BlobBaseFee": "0x7a4f249ab07",
      "l1BlobBaseFeeScalar": "0xa118b",
      "l1Fee": "0x27a51b3fd1ea4",
      "l1GasPrice": "0x28734f91f",
      "l1GasUsed": "0x7dc"
    },
    {
      "status": "0x1",
      "cumulativeGasUsed": "0x9c450",
      "logs": [
        {
          "address": "0xe2b6353511c5374b77aa67a1b1a9f2ede7dc1ea7",
          "topics": [
            "0xddf252ad1be2c89b69c2b068fc378daa952ba7f163c4a11628f55a4df523b3ef",
            "0x0000000000000000000000000000000000000000000000000000000000000000",
            "0x0000000000000000000000008f088eca0009ad61fb94a6d7e9a5d7a087c08564",
            "0x00000000000000000000000000000000000000000000000000000000003d0934"
          ],
          "data": "0x",
          "blockHash": "0x8e1cfd175af7d037acfb8a69e17a4b61326bac4fa902cc6080084c92e0c6adb1",
          "blockNumber": "0xa15a58",
          "transactionHash": "0x8e028526f275b3f7202e368db5a9f29e3d5eaca166cbf6d06a0263588d37ca76",
          "transactionIndex": "0x7",
          "logIndex": "0x6",
          "removed": false
        }
      ],
      "logsBloom": "0x00000000000000000000000000000000000000000000000000000000000000000000000000100000000001000000000000000000000000000000020000000200000000000000000000000008000000000000000000000000000000000000000000000000020000000000000000000800000000108000000000000010000000000000000000000000000000000000000000000000000000000000000000000000000000000200000010000000400000000000000000000000000000000000000000000002000000000000000000000000000000000000000000000000000020000000000000000000000000000000000000000000000000000000000000000000",
      "type": "0x2",
      "transactionHash": "0x8e028526f275b3f7202e368db5a9f29e3d5eaca166cbf6d06a0263588d37ca76",
      "transactionIndex": "0x7",
      "blockHash": "0x8e1cfd175af7d037acfb8a69e17a4b61326bac4fa902cc6080084c92e0c6adb1",
      "blockNumber": "0xa15a58",
      "gasUsed": "0x18aff",
      "effectiveGasPrice": "0x187a2",
      "from": "0x8f088eca0009ad61fb94a6d7e9a5d7a087c08564",
      "to": "0xe2b6353511c5374b77aa67a1b1a9f2ede7dc1ea7",
      "contractAddress": null,
      "l1BaseFeeScalar": "0x44d",
      "l1BlobBaseFee": "0x7a4f249ab07",
      "l1BlobBaseFeeScalar": "0xa118b",
      "l1Fee": "0x27a51b3fd1ea4",
      "l1GasPrice": "0x28734f91f",
      "l1GasUsed": "0x7dc"
    },
    {
      "status": "0x1",
      "cumulativeGasUsed": "0xb4f4f",
      "logs": [
        {
          "address": "0xe2b6353511c5374b77aa67a1b1a9f2ede7dc1ea7",
          "topics": [
            "0xddf252ad1be2c89b69c2b068fc378daa952ba7f163c4a11628f55a4df523b3ef",
            "0x0000000000000000000000000000000000000000000000000000000000000000",
            "0x0000000000000000000000008f088eca0009ad61fb94a6d7e9a5d7a087c08564",
            "0x00000000000000000000000000000000000000000000000000000000003d0935"
          ],
          "data": "0x",
          "blockHash": "0x8e1cfd175af7d037acfb8a69e17a4b61326bac4fa902cc6080084c92e0c6adb1",
          "blockNumber": "0xa15a58",
          "transactionHash": "0xe0a0bb633d44f060f06018caef6c54309930b418e93adacfe278fd64f34f2552",
          "transactionIndex": "0x8",
          "logIndex": "0x7",
          "removed": false
        }
      ],
      "logsBloom": "0x00000000000000000000000000000000000000000000000000000000000000000000000000100000000001000000000000000000000000000000020000000200000000000000000000000008000000000000000000000000000000000000000000000000020000000000000000000800000000008000000000000010000000000000020000000000000000000000000000000000000000000000000000000000000000000000000010000000000000000000000000000000000000000000000000000002000000000000000000000000000000000000000000000001000020000000000000000000000000000000000000000000000000000000000000000000",
      "type": "0x2",
      "transactionHash": "0xe0a0bb633d44f060f06018caef6c54309930b418e93adacfe278fd64f34f2552",
      "transactionIndex": "0x8",
      "blockHash": "0x8e1cfd175af7d037acfb8a69e17a4b61326bac4fa902cc6080084c92e0c6adb1",
      "blockNumber": "0xa15a58",
      "gasUsed": "0x18aff",
      "effectiveGasPrice": "0x187a2",
      "from": "0x8f088eca0009ad61fb94a6d7e9a5d7a087c08564",
      "to": "0xe2b6353511c5374b77aa67a1b1a9f2ede7dc1ea7",
      "contractAddress": null,
      "l1BaseFeeScalar": "0x44d",
      "l1BlobBaseFee": "0x7a4f249ab07",
      "l1BlobBaseFeeScalar": "0xa118b",
      "l1Fee": "0x27a51b3fd1ea4",
      "l1GasPrice": "0x28734f91f",
      "l1GasUsed": "0x7dc"
    },
    {
      "status": "0x1",
      "cumulativeGasUsed": "0xcda4e",
      "logs": [
        {
          "address": "0xe2b6353511c5374b77aa67a1b1a9f2ede7dc1ea7",
          "topics": [
            "0xddf252ad1be2c89b69c2b068fc378daa952ba7f163c4a11628f55a4df523b3ef",
            "0x0000000000000000000000000000000000000000000000000000000000000000",
            "0x0000000000000000000000008f088eca0009ad61fb94a6d7e9a5d7a087c08564",
            "0x00000000000000000000000000000000000000000000000000000000003d0936"
          ],
          "data": "0x",
          "blockHash": "0x8e1cfd175af7d037acfb8a69e17a4b61326bac4fa902cc6080084c92e0c6adb1",
          "blockNumber": "0xa15a58",
          "transactionHash": "0x24a47b446c4a3606cac9bc5e6b308c76cb149416a4a97988d6b404b77fa8b895",
          "transactionIndex": "0x9",
          "logIndex": "0x8",
          "removed": false
        }
      ],
      "logsBloom": "0x00000000000000000000000000000000000000000000000000000000000000000000000000100000000001000000000000000000000000000000020000000200000000000000000000000018000000000000000000000000000000000000000000000000020000000000000000000800000000008000000000000010000000000000000000000000000000000000000000000000000000000000000000000000000000000000000010000000000001000000000000000000000000000000000000000002000000000000000000000000000000000080000000000000000020000000000000000000000000000000000000000000000000000000000000000000",
      "type": "0x2",
      "transactionHash": "0x24a47b446c4a3606cac9bc5e6b308c76cb149416a4a97988d6b404b77fa8b895",
      "transactionIndex": "0x9",
      "blockHash": "0x8e1cfd175af7d037acfb8a69e17a4b61326bac4fa902cc6080084c92e0c6adb1",
      "blockNumber": "0xa15a58",
      "gasUsed": "0x18aff",
      "effectiveGasPrice": "0x187a2",
      "from": "0x8f088eca0009ad61fb94a6d7e9a5d7a087c08564",
      "to": "0xe2b6353511c5374b77aa67a1b1a9f2ede7dc1ea7",
      "contractAddress": null,
      "l1BaseFeeScalar": "0x44d",
      "l1BlobBaseFee": "0x7a4f249ab07",
      "l1BlobBaseFeeScalar": "0xa118b",
      "l1Fee": "0x27a51b3fd1ea4",
      "l1GasPrice": "0x28734f91f",
      "l1GasUsed": "0x7dc"
    },
    {
      "status": "0x1",
      "cumulativeGasUsed": "0xe654d",
      "logs": [
        {
          "address": "0xe2b6353511c5374b77aa67a1b1a9f2ede7dc1ea7",
          "topics": [
            "0xddf252ad1be2c89b69c2b068fc378daa952ba7f163c4a11628f55a4df523b3ef",
            "0x0000000000000000000000000000000000000000000000000000000000000000",
            "0x0000000000000000000000008f088eca0009ad61fb94a6d7e9a5d7a087c08564",
            "0x00000000000000000000000000000000000000000000000000000000003d0937"
          ],
          "data": "0x",
          "blockHash": "0x8e1cfd175af7d037acfb8a69e17a4b61326bac4fa902cc6080084c92e0c6adb1",
          "blockNumber": "0xa15a58",
          "transactionHash": "0x4377ba4b853819fed4fc8fdc27912be7834bdc7a4d6c988f531f643974fec7af",
          "transactionIndex": "0xa",
          "logIndex": "0x9",
          "removed": false
        }
      ],
      "logsBloom": "0x00000000000000000000000000000000000000000000000000000000000000000000000000100000000001000000000000000000000000000000020000000200000000000000000000000008000000000000000000000000000000000000000000000000020000000000000000000800000000008000000000040010000000000000000000000000000000000000000000000000000000000000000000000000000000000000000010000000000000000000000000000000000000000000000000000002000000000000000000000000000000000000000000000000000020000000000000000000100000000080000000000000000000000000000000000000",
      "type": "0x2",
      "transactionHash": "0x4377ba4b853819fed4fc8fdc27912be7834bdc7a4d6c988f531f643974fec7af",
      "transactionIndex": "0xa",
      "blockHash": "0x8e1cfd175af7d037acfb8a69e17a4b61326bac4fa902cc6080084c92e0c6adb1",
      "blockNumber": "0xa15a58",
      "gasUsed": "0x18aff",
      "effectiveGasPrice": "0x187a2",
      "from": "0x8f088eca0009ad61fb94a6d7e9a5d7a087c08564",
      "to": "0xe2b6353511c5374b77aa67a1b1a9f2ede7dc1ea7",
      "contractAddress": null,
      "l1BaseFeeScalar": "0x44d",
      "l1BlobBaseFee": "0x7a4f249ab07",
      "l1BlobBaseFeeScalar": "0xa118b",
      "l1Fee": "0x27a51b3fd1ea4",
      "l1GasPrice": "0x28734f91f",
      "l1GasUsed": "0x7dc"
    },
    {
      "status": "0x1",
      "cumulativeGasUsed": "0xff04c",
      "logs": [
        {
          "address": "0xe2b6353511c5374b77aa67a1b1a9f2ede7dc1ea7",
          "topics": [
            "0xddf252ad1be2c89b69c2b068fc378daa952ba7f163c4a11628f55a4df523b3ef",
            "0x0000000000000000000000000000000000000000000000000000000000000000",
            "0x0000000000000000000000008f088eca0009ad61fb94a6d7e9a5d7a087c08564",
            "0x00000000000000000000000000000000000000000000000000000000003d0938"
          ],
          "data": "0x",
          "blockHash": "0x8e1cfd175af7d037acfb8a69e17a4b61326bac4fa902cc6080084c92e0c6adb1",
          "blockNumber": "0xa15a58",
          "transactionHash": "0xb2a7cc282ca20487a08c4944c1aa7e6a3295fc5e28f49c3cba86c0e514a293d0",
          "transactionIndex": "0xb",
          "logIndex": "0xa",
          "removed": false
        }
      ],
      "logsBloom": "0x00000000020000000000000001000000000000000000000000000100000000000000000000100000000001000000000000000000000000000000020000000200000000000000000000000008000000000000000000000000000000000000000000000000020000000000000000000800000000008000000000000010000000000000000000000000000000000000000000000000000000000000000000000000000000000000000010000000000000000000000000000000000000000000000000000002000000000000000000000000000000000000000000000000000020000000000000000000000000000000000000000000000000000000000000000000",
      "type": "0x2",
      "transactionHash": "0xb2a7cc282ca20487a08c4944c1aa7e6a3295fc5e28f49c3cba86c0e514a293d0",
      "transactionIndex": "0xb",
      "blockHash": "0x8e1cfd175af7d037acfb8a69e17a4b61326bac4fa902cc6080084c92e0c6adb1",
      "blockNumber": "0xa15a58",
      "gasUsed": "0x18aff",
      "effectiveGasPrice": "0x187a2",
      "from": "0x8f088eca0009ad61fb94a6d7e9a5d7a087c08564",
      "to": "0xe2b6353511c5374b77aa67a1b1a9f2ede7dc1ea7",
      "contractAddress": null,
      "l1BaseFeeScalar": "0x44d",
      "l1BlobBaseFee": "0x7a4f249ab07",
      "l1BlobBaseFeeScalar": "0xa118b",
      "l1Fee": "0x27a51b3fd1ea4",
      "l1GasPrice": "0x28734f91f",
      "l1GasUsed": "0x7dc"
    },
    {
      "status": "0x1",
      "cumulativeGasUsed": "0x117b4b",
      "logs": [
        {
          "address": "0xe2b6353511c5374b77aa67a1b1a9f2ede7dc1ea7",
          "topics": [
            "0xddf252ad1be2c89b69c2b068fc378daa952ba7f163c4a11628f55a4df523b3ef",
            "0x0000000000000000000000000000000000000000000000000000000000000000",
            "0x0000000000000000000000008f088eca0009ad61fb94a6d7e9a5d7a087c08564",
            "0x00000000000000000000000000000000000000000000000000000000003d0939"
          ],
          "data": "0x",
          "blockHash": "0x8e1cfd175af7d037acfb8a69e17a4b61326bac4fa902cc6080084c92e0c6adb1",
          "blockNumber": "0xa15a58",
          "transactionHash": "0xd819a87347d8c1b5c8123e680713892b86088bbd7ab71f78ad465e1141c23c77",
          "transactionIndex": "0xc",
          "logIndex": "0xb",
          "removed": false
        }
      ],
      "logsBloom": "0x00000000000000000000000000000000000000000001000000000000000000000000000000100000000001000000000000000000000000000000020000000200000000000000000000000008000000000000000000000000000000000000000000000000020000000000000000000800000000008000000000000010000000000000000000000000000000000000020000000000000000000000000000000000000000000000000010000000000000000000000000000000000000000000000000000002000000000000000000000000000000000000000000000000001020000000000000000000000000000000000000000000000000000000000000000000",
      "type": "0x2",
      "transactionHash": "0xd819a87347d8c1b5c8123e680713892b86088bbd7ab71f78ad465e1141c23c77",
      "transactionIndex": "0xc",
      "blockHash": "0x8e1cfd175af7d037acfb8a69e17a4b61326bac4fa902cc6080084c92e0c6adb1",
      "blockNumber": "0xa15a58",
      "gasUsed": "0x18aff",
      "effectiveGasPrice": "0x187a2",
      "from": "0x8f088eca0009ad61fb94a6d7e9a5d7a087c08564",
      "to": "0xe2b6353511c5374b77aa67a1b1a9f2ede7dc1ea7",
      "contractAddress": null,
      "l1BaseFeeScalar": "0x44d",
      "l1BlobBaseFee": "0x7a4f249ab07",
      "l1BlobBaseFeeScalar": "0xa118b",
      "l1Fee": "0x27a51b3fd1ea4",
      "l1GasPrice": "0x28734f91f",
      "l1GasUsed": "0x7dc"
    },
    {
      "status": "0x1",
      "cumulativeGasUsed": "0x13064a",
      "logs": [
        {
          "address": "0xe2b6353511c5374b77aa67a1b1a9f2ede7dc1ea7",
          "topics": [
            "0xddf252ad1be2c89b69c2b068fc378daa952ba7f163c4a11628f55a4df523b3ef",
            "0x0000000000000000000000000000000000000000000000000000000000000000",
            "0x0000000000000000000000008f088eca0009ad61fb94a6d7e9a5d7a087c08564",
            "0x00000000000000000000000000000000000000000000000000000000003d093a"
          ],
          "data": "0x",
          "blockHash": "0x8e1cfd175af7d037acfb8a69e17a4b61326bac4fa902cc6080084c92e0c6adb1",
          "blockNumber": "0xa15a58",
          "transactionHash": "0x576e45919a912323345c9e2d994d3efedfcc275eeb3999833f0b1decede3ab66",
          "transactionIndex": "0xd",
          "logIndex": "0xc",
          "removed": false
        }
      ],
      "logsBloom": "0x00000000000000000000000000000000000000000000000000000000000000000000000000100000000001000000000000000000000000000000020000000200000000000000000000000008000000000200000000000000000000000000000000000000020000000000000000000800000000008000000000000010000000000000000000000000000000000000000000000000000000000000000000000000000000080000000010000000000000000000000000000000000000000000000000000002000000000000000000000000000000000000000000000000040020000000000000000000000000000000000000000000000000000000000000000000",
      "type": "0x2",
      "transactionHash": "0x576e45919a912323345c9e2d994d3efedfcc275eeb3999833f0b1decede3ab66",
      "transactionIndex": "0xd",
      "blockHash": "0x8e1cfd175af7d037acfb8a69e17a4b61326bac4fa902cc6080084c92e0c6adb1",
      "blockNumber": "0xa15a58",
      "gasUsed": "0x18aff",
      "effectiveGasPrice": "0x187a2",
      "from": "0x8f088eca0009ad61fb94a6d7e9a5d7a087c08564",
      "to": "0xe2b6353511c5374b77aa67a1b1a9f2ede7dc1ea7",
      "contractAddress": null,
      "l1BaseFeeScalar": "0x44d",
      "l1BlobBaseFee": "0x7a4f249ab07",
      "l1BlobBaseFeeScalar": "0xa118b",
      "l1Fee": "0x275465d903a64",
      "l1GasPrice": "0x28734f91f",
      "l1GasUsed": "0x7cc"
    },
    {
      "status": "0x1",
      "cumulativeGasUsed": "0x149149",
      "logs": [
        {
          "address": "0xe2b6353511c5374b77aa67a1b1a9f2ede7dc1ea7",
          "topics": [
            "0xddf252ad1be2c89b69c2b068fc378daa952ba7f163c4a11628f55a4df523b3ef",
            "0x0000000000000000000000000000000000000000000000000000000000000000",
            "0x0000000000000000000000008f088eca0009ad61fb94a6d7e9a5d7a087c08564",
            "0x00000000000000000000000000000000000000000000000000000000003d093b"
          ],
          "data": "0x",
          "blockHash": "0x8e1cfd175af7d037acfb8a69e17a4b61326bac4fa902cc6080084c92e0c6adb1",
          "blockNumber": "0xa15a58",
          "transactionHash": "0x81ab81b141b208e809cc17c3d5665edbd04691435b650da3673d394058ad9ecf",
          "transactionIndex": "0xe",
          "logIndex": "0xd",
          "removed": false
        }
      ],
      "logsBloom": "0x00000000000000000000000000000000000000000000000000000000000000000000000000100000000001000000000000000000000000000000020000000200000000000000000000000008000000000000000000000000000000000000000000000000020000000000000000000800000000008000000000000010000000000000000000000000000000000000000000000000000000000004000000000000000000000000000010000000000000000004000000000000000000000000000000000002000000000000000000000000002000000000000000000000000020000000000000000000000000000000000000000000000000000000000000000000",
      "type": "0x2",
      "transactionHash": "0x81ab81b141b208e809cc17c3d5665edbd04691435b650da3673d394058ad9ecf",
      "transactionIndex": "0xe",
      "blockHash": "0x8e1cfd175af7d037acfb8a69e17a4b61326bac4fa902cc6080084c92e0c6adb1",
      "blockNumber": "0xa15a58",
      "gasUsed": "0x18aff",
      "effectiveGasPrice": "0x187a2",
      "from": "0x8f088eca0009ad61fb94a6d7e9a5d7a087c08564",
      "to": "0xe2b6353511c5374b77aa67a1b1a9f2ede7dc1ea7",
      "contractAddress": null,
      "l1BaseFeeScalar": "0x44d",
      "l1BlobBaseFee": "0x7a4f249ab07",
      "l1BlobBaseFeeScalar": "0xa118b",
      "l1Fee": "0x272c0b259c844",
      "l1GasPrice": "0x28734f91f",
      "l1GasUsed": "0x7c4"
    },
    {
      "status": "0x1",
      "cumulativeGasUsed": "0x161c48",
      "logs": [
        {
          "address": "0xe2b6353511c5374b77aa67a1b1a9f2ede7dc1ea7",
          "topics": [
            "0xddf252ad1be2c89b69c2b068fc378daa952ba7f163c4a11628f55a4df523b3ef",
            "0x0000000000000000000000000000000000000000000000000000000000000000",
            "0x0000000000000000000000008f088eca0009ad61fb94a6d7e9a5d7a087c08564",
            "0x00000000000000000000000000000000000000000000000000000000003d093c"
          ],
          "data": "0x",
          "blockHash": "0x8e1cfd175af7d037acfb8a69e17a4b61326bac4fa902cc6080084c92e0c6adb1",
          "blockNumber": "0xa15a58",
          "transactionHash": "0xbb60e3c97499d8d850d81b0d2698146784a7f7d53da442082bfdb42c4c50236a",
          "transactionIndex": "0xf",
          "logIndex": "0xe",
          "removed": false
        }
      ],
      "logsBloom": "0x00000000000000000000000000800000000000000000000000000000000000000000000000100000000001000000000000000000000000000000020000000200000000000000000000000008000000000000000000000000000000000000000000000000020000000000000000000800000000008000000000000010000000000000000000000000000000000000000000000000000000000000000000000000000000000000000010000000000000000000000000000000000000000000000000400002000000000000000000000000000000000000000000000000000020000000000000000000000002000000000000000000000000000000000000000000",
      "type": "0x2",
      "transactionHash": "0xbb60e3c97499d8d850d81b0d2698146784a7f7d53da442082bfdb42c4c50236a",
      "transactionIndex": "0xf",
      "blockHash": "0x8e1cfd175af7d037acfb8a69e17a4b61326bac4fa902cc6080084c92e0c6adb1",
      "blockNumber": "0xa15a58",
      "gasUsed": "0x18aff",
      "effectiveGasPrice": "0x187a2",
      "from": "0x8f088eca0009ad61fb94a6d7e9a5d7a087c08564",
      "to": "0xe2b6353511c5374b77aa67a1b1a9f2ede7dc1ea7",
      "contractAddress": null,
      "l1BaseFeeScalar": "0x44d",
      "l1BlobBaseFee": "0x7a4f249ab07",
      "l1BlobBaseFeeScalar": "0xa118b",
      "l1Fee": "0x27a51b3fd1ea4",
      "l1GasPrice": "0x28734f91f",
      "l1GasUsed": "0x7dc"
    },
    {
      "status": "0x1",
      "cumulativeGasUsed": "0x17a747",
      "logs": [
        {
          "address": "0xe2b6353511c5374b77aa67a1b1a9f2ede7dc1ea7",
          "topics": [
            "0xddf252ad1be2c89b69c2b068fc378daa952ba7f163c4a11628f55a4df523b3ef",
            "0x0000000000000000000000000000000000000000000000000000000000000000",
            "0x0000000000000000000000008f088eca0009ad61fb94a6d7e9a5d7a087c08564",
            "0x00000000000000000000000000000000000000000000000000000000003d093d"
          ],
          "data": "0x",
          "blockHash": "0x8e1cfd175af7d037acfb8a69e17a4b61326bac4fa902cc6080084c92e0c6adb1",
          "blockNumber": "0xa15a58",
          "transactionHash": "0x34ae37e3e2bb4268af4f2b996d6c2fbf9e1eac42bae26e7ec17dc8b08d641fe5",
          "transactionIndex": "0x10",
          "logIndex": "0xf",
          "removed": false
        }
      ],
      "logsBloom": "0x00008000000000000000000000000000000000000000000000000000000000000000000000100000000001000000000000000000000000000000020000000200000000000000000000000008000000000000000000000000000000000000000000000000020000000000000000000800000000008000000000000010000000000000000000000000000000000000000000000000000000000000000000000010000000000000000010000000000000200000000000000000000000000000000000000002000000000000000000000000000000000000000000000000000020000000000000000000000000000000000000000000000000000000000000000000",
      "type": "0x2",
      "transactionHash": "0x34ae37e3e2bb4268af4f2b996d6c2fbf9e1eac42bae26e7ec17dc8b08d641fe5",
      "transactionIndex": "0x10",
      "blockHash": "0x8e1cfd175af7d037acfb8a69e17a4b61326bac4fa902cc6080084c92e0c6adb1",
      "blockNumber": "0xa15a58",
      "gasUsed": "0x18aff",
      "effectiveGasPrice": "0x187a2",
      "from": "0x8f088eca0009ad61fb94a6d7e9a5d7a087c08564",
      "to": "0xe2b6353511c5374b77aa67a1b1a9f2ede7dc1ea7",
      "contractAddress": null,
      "l1BaseFeeScalar": "0x44d",
      "l1BlobBaseFee": "0x7a4f249ab07",
      "l1BlobBaseFeeScalar": "0xa118b",
      "l1Fee": "0x27a51b3fd1ea4",
      "l1GasPrice": "0x28734f91f",
      "l1GasUsed": "0x7dc"
    },
    {
      "status": "0x1",
      "cumulativeGasUsed": "0x193246",
      "logs": [
        {
          "address": "0xe2b6353511c5374b77aa67a1b1a9f2ede7dc1ea7",
          "topics": [
            "0xddf252ad1be2c89b69c2b068fc378daa952ba7f163c4a11628f55a4df523b3ef",
            "0x0000000000000000000000000000000000000000000000000000000000000000",
            "0x0000000000000000000000008f088eca0009ad61fb94a6d7e9a5d7a087c08564",
            "0x00000000000000000000000000000000000000000000000000000000003d093e"
          ],
          "data": "0x",
          "blockHash": "0x8e1cfd175af7d037acfb8a69e17a4b61326bac4fa902cc6080084c92e0c6adb1",
          "blockNumber": "0xa15a58",
          "transactionHash": "0x4cffb2e412a90f87e9e2633896b498f0f25b0d8726f50c13427f3e420aa40a14",
          "transactionIndex": "0x11",
          "logIndex": "0x10",
          "removed": false
        }
      ],
      "logsBloom": "0x00000000000000000000000000000000000000000000000000000000000000000000000000100000000003000000000000000000000000000000020000000200000000000000000000000008000000000000000000000000000000000000000000000000020000000000000000000800000000008000000000000010000000000000000000000040000000000000000000000000000000000000000000000000000000000000000010000000008000000000000000000000000000000000000000000002000000000000000000000000000000000000000000000000000020000000000000000000000000000000000000000000000000000000000000000000",
      "type": "0x2",
      "transactionHash": "0x4cffb2e412a90f87e9e2633896b498f0f25b0d8726f50c13427f3e420aa40a14",
      "transactionIndex": "0x11",
      "blockHash": "0x8e1cfd175af7d037acfb8a69e17a4b61326bac4fa902cc6080084c92e0c6adb1",
      "blockNumber": "0xa15a58",
      "gasUsed": "0x18aff",
      "effectiveGasPrice": "0x187a2",
      "from": "0x8f088eca0009ad61fb94a6d7e9a5d7a087c08564",
      "to": "0xe2b6353511c5374b77aa67a1b1a9f2ede7dc1ea7",
      "contractAddress": null,
      "l1BaseFeeScalar": "0x44d",
      "l1BlobBaseFee": "0x7a4f249ab07",
      "l1BlobBaseFeeScalar": "0xa118b",
      "l1Fee": "0x27a51b3fd1ea4",
      "l1GasPrice": "0x28734f91f",
      "l1GasUsed": "0x7dc"
    },
    {
      "status": "0x1",
      "cumulativeGasUsed": "0x1abd45",
      "logs": [
        {
          "address": "0xe2b6353511c5374b77aa67a1b1a9f2ede7dc1ea7",
          "topics": [
            "0xddf252ad1be2c89b69c2b068fc378daa952ba7f163c4a11628f55a4df523b3ef",
            "0x0000000000000000000000000000000000000000000000000000000000000000",
            "0x0000000000000000000000008f088eca0009ad61fb94a6d7e9a5d7a087c08564",
            "0x00000000000000000000000000000000000000000000000000000000003d093f"
          ],
          "data": "0x",
          "blockHash": "0x8e1cfd175af7d037acfb8a69e17a4b61326bac4fa902cc6080084c92e0c6adb1",
          "blockNumber": "0xa15a58",
          "transactionHash": "0x3a128d3c20ff122dc4ec7aab599920539b27f792b9f039298b069e3f76f858d6",
          "transactionIndex": "0x12",
          "logIndex": "0x11",
          "removed": false
        }
      ],
      "logsBloom": "0x00000000000000000000000000000000000000000000000000000000000000000000000000100000000001000000000000000000000000000000020000000200040000000000000000000008000000000000000000000000000000000000000000000000020000000000000000000800000000008000000000000010000000000000000000000000000000000000000000000000000000000000000010000000000000000000000010000000000000000000000000000000000000000000000000000002000000800000000000000000000000000000000000000000000020000000000000000000000000000000000000000000000000000000000000000000",
      "type": "0x2",
      "transactionHash": "0x3a128d3c20ff122dc4ec7aab599920539b27f792b9f039298b069e3f76f858d6",
      "transactionIndex": "0x12",
      "blockHash": "0x8e1cfd175af7d037acfb8a69e17a4b61326bac4fa902cc6080084c92e0c6adb1",
      "blockNumber": "0xa15a58",
      "gasUsed": "0x18aff",
      "effectiveGasPrice": "0x187a2",
      "from": "0x8f088eca0009ad61fb94a6d7e9a5d7a087c08564",
      "to": "0xe2b6353511c5374b77aa67a1b1a9f2ede7dc1ea7",
      "contractAddress": null,
      "l1BaseFeeScalar": "0x44d",
      "l1BlobBaseFee": "0x7a4f249ab07",
      "l1BlobBaseFeeScalar": "0xa118b",
      "l1Fee": "0x272c0b259c844",
      "l1GasPrice": "0x28734f91f",
      "l1GasUsed": "0x7c4"
    },
    {
      "status": "0x1",
      "cumulativeGasUsed": "0x1c4844",
      "logs": [
        {
          "address": "0xe2b6353511c5374b77aa67a1b1a9f2ede7dc1ea7",
          "topics": [
            "0xddf252ad1be2c89b69c2b068fc378daa952ba7f163c4a11628f55a4df523b3ef",
            "0x0000000000000000000000000000000000000000000000000000000000000000",
            "0x0000000000000000000000008f088eca0009ad61fb94a6d7e9a5d7a087c08564",
            "0x00000000000000000000000000000000000000000000000000000000003d0940"
          ],
          "data": "0x",
          "blockHash": "0x8e1cfd175af7d037acfb8a69e17a4b61326bac4fa902cc6080084c92e0c6adb1",
          "blockNumber": "0xa15a58",
          "transactionHash": "0x1ac97fb2c54a8809f56551c8802a0b3288a0fd377beba5cf99413f9457fa6859",
          "transactionIndex": "0x13",
          "logIndex": "0x12",
          "removed": false
        }
      ],
      "logsBloom": "0x00000000000000000000000000000000000000000000000000000000000000000000000000100000000001000000000000000000000008000000020000000200000000000000000000000008000000000000000000000000000000000000000000000000020000000000000000000800000000008000000000000010000000000000000000000000000000000000000000000000000000000000000000000000000000000000000010000000000000000000000000000000000000000000000100000002000000000000000000000000000000000000000000000000000020000000000001000000000000000000000000000000000000000000000000000000",
      "type": "0x2",
      "transactionHash": "0x1ac97fb2c54a8809f56551c8802a0b3288a0fd377beba5cf99413f9457fa6859",
      "transactionIndex": "0x13",
      "blockHash": "0x8e1cfd175af7d037acfb8a69e17a4b61326bac4fa902cc6080084c92e0c6adb1",
      "blockNumber": "0xa15a58",
      "gasUsed": "0x18aff",
      "effectiveGasPrice": "0x187a2",
      "from": "0x8f088eca0009ad61fb94a6d7e9a5d7a087c08564",
      "to": "0xe2b6353511c5374b77aa67a1b1a9f2ede7dc1ea7",
      "contractAddress": null,
      "l1BaseFeeScalar": "0x44d",
      "l1BlobBaseFee": "0x7a4f249ab07",
      "l1BlobBaseFeeScalar": "0xa118b",
      "l1Fee": "0x27a51b3fd1ea4",
      "l1GasPrice": "0x28734f91f",
      "l1GasUsed": "0x7dc"
    },
    {
      "status": "0x1",
      "cumulativeGasUsed": "0x1dd343",
      "logs": [
        {
          "address": "0xe2b6353511c5374b77aa67a1b1a9f2ede7dc1ea7",
          "topics": [
            "0xddf252ad1be2c89b69c2b068fc378daa952ba7f163c4a11628f55a4df523b3ef",
            "0x0000000000000000000000000000000000000000000000000000000000000000",
            "0x0000000000000000000000008f088eca0009ad61fb94a6d7e9a5d7a087c08564",
            "0x00000000000000000000000000000000000000000000000000000000003d0941"
          ],
          "data": "0x",
          "blockHash": "0x8e1cfd175af7d037acfb8a69e17a4b61326bac4fa902cc6080084c92e0c6adb1",
          "blockNumber": "0xa15a58",
          "transactionHash": "0xe558cede7bcaa9f5dcb2b9c38e05e50aaed17c7e316da59cb7ceefb5ffe6c8fc",
          "transactionIndex": "0x14",
          "logIndex": "0x13",
          "removed": false
        }
      ],
      "logsBloom": "0x00000000000000000000000000000000000000000000000000000000000000000000000000100000000001000000000000000000000000000000020000000200000000000000000000000008000000000000000000000000000000000000000000000000020000000000200000000800000000008000000000000010000000000000000000000000000000000000000000000000000000000000000000000000000000008000000010000000000000000000000000000000000000000000000000000002000000000000000000000000000000000000000000000000000020000000000000000000000000000000000000020000000000000000000000000000",
      "type": "0x2",
      "transactionHash": "0xe558cede7bcaa9f5dcb2b9c38e05e50aaed17c7e316da59cb7ceefb5ffe6c8fc",
      "transactionIndex": "0x14",
      "blockHash": "0x8e1cfd175af7d037acfb8a69e17a4b61326bac4fa902cc6080084c92e0c6adb1",
      "blockNumber": "0xa15a58",
      "gasUsed": "0x18aff",
      "effectiveGasPrice": "0x187a2",
      "from": "0x8f088eca0009ad61fb94a6d7e9a5d7a087c08564",
      "to": "0xe2b6353511c5374b77aa67a1b1a9f2ede7dc1ea7",
      "contractAddress": null,
      "l1BaseFeeScalar": "0x44d",
      "l1BlobBaseFee": "0x7a4f249ab07",
      "l1BlobBaseFeeScalar": "0xa118b",
      "l1Fee": "0x27a51b3fd1ea4",
      "l1GasPrice": "0x28734f91f",
      "l1GasUsed": "0x7dc"
    },
    {
      "status": "0x1",
      "cumulativeGasUsed": "0x1f5e42",
      "logs": [
        {
          "address": "0xe2b6353511c5374b77aa67a1b1a9f2ede7dc1ea7",
          "topics": [
            "0xddf252ad1be2c89b69c2b068fc378daa952ba7f163c4a11628f55a4df523b3ef",
            "0x0000000000000000000000000000000000000000000000000000000000000000",
            "0x0000000000000000000000008f088eca0009ad61fb94a6d7e9a5d7a087c08564",
            "0x00000000000000000000000000000000000000000000000000000000003d0942"
          ],
          "data": "0x",
          "blockHash": "0x8e1cfd175af7d037acfb8a69e17a4b61326bac4fa902cc6080084c92e0c6adb1",
          "blockNumber": "0xa15a58",
          "transactionHash": "0x7aa7d6c4cb10e62a78a73965ae8ffb5fc796b518a4458cbc0fccf8829b79d1e5",
          "transactionIndex": "0x15",
          "logIndex": "0x14",
          "removed": false
        }
      ],
      "logsBloom": "0x00000000000000000000000000000000002000000000000000000000000000000000000000100000000001000000000000000000000000000000020000000200000000000000000000000008000000000800000000000000000000000000000000000000020000000000000000000800000000008000000000000010000001000000000000000000000000000000000000000000000000000000000000000000000000000000000010000000000000000000000000000000000000000000000000000002000000000000000000000000000000000000000000000000000020000000000000000000000000000000000000000000000000000000000000000000",
      "type": "0x2",
      "transactionHash": "0x7aa7d6c4cb10e62a78a73965ae8ffb5fc796b518a4458cbc0fccf8829b79d1e5",
      "transactionIndex": "0x15",
      "blockHash": "0x8e1cfd175af7d037acfb8a69e17a4b61326bac4fa902cc6080084c92e0c6adb1",
      "blockNumber": "0xa15a58",
      "gasUsed": "0x18aff",
      "effectiveGasPrice": "0x187a2",
      "from": "0x8f088eca0009ad61fb94a6d7e9a5d7a087c08564",
      "to": "0xe2b6353511c5374b77aa67a1b1a9f2ede7dc1ea7",
      "contractAddress": null,
      "l1BaseFeeScalar": "0x44d",
      "l1BlobBaseFee": "0x7a4f249ab07",
      "l1BlobBaseFeeScalar": "0xa118b",
      "l1Fee": "0x27a51b3fd1ea4",
      "l1GasPrice": "0x28734f91f",
      "l1GasUsed": "0x7dc"
    },
    {
      "status": "0x1",
      "cumulativeGasUsed": "0x20e941",
      "logs": [
        {
          "address": "0xe2b6353511c5374b77aa67a1b1a9f2ede7dc1ea7",
          "topics": [
            "0xddf252ad1be2c89b69c2b068fc378daa952ba7f163c4a11628f55a4df523b3ef",
            "0x0000000000000000000000000000000000000000000000000000000000000000",
            "0x0000000000000000000000008f088eca0009ad61fb94a6d7e9a5d7a087c08564",
            "0x00000000000000000000000000000000000000000000000000000000003d0943"
          ],
          "data": "0x",
          "blockHash": "0x8e1cfd175af7d037acfb8a69e17a4b61326bac4fa902cc6080084c92e0c6adb1",
          "blockNumber": "0xa15a58",
          "transactionHash": "0x10218b850ac96b0971a4b8e4102a3019746d436fc7edac945ccca176b82bb06a",
          "transactionIndex": "0x16",
          "logIndex": "0x15",
          "removed": false
        }
      ],
      "logsBloom": "0x00000000000000000000000000000000000000000000000000000000000000000000000000100000000001000000000000000000000000000000020004000200000000000000000000000008000000000000000000000000000000000000000000000000020000000000000000000800000000008000000000000010000000000000000000000000000000000000000000000000000000000000000000000000000000000000000010000000000000000000000000000000000000000000000000000002000000000010000000000000000000000000000000000000000020000000000000000000000800000000000000000000000000000000000000000000",
      "type": "0x2",
      "transactionHash": "0x10218b850ac96b0971a4b8e4102a3019746d436fc7edac945ccca176b82bb06a",
      "transactionIndex": "0x16",
      "blockHash": "0x8e1cfd175af7d037acfb8a69e17a4b61326bac4fa902cc6080084c92e0c6adb1",
      "blockNumber": "0xa15a58",
      "gasUsed": "0x18aff",
      "effectiveGasPrice": "0x187a2",
      "from": "0x8f088eca0009ad61fb94a6d7e9a5d7a087c08564",
      "to": "0xe2b6353511c5374b77aa67a1b1a9f2ede7dc1ea7",
      "contractAddress": null,
      "l1BaseFeeScalar": "0x44d",
      "l1BlobBaseFee": "0x7a4f249ab07",
      "l1BlobBaseFeeScalar": "0xa118b",
      "l1Fee": "0x27a51b3fd1ea4",
      "l1GasPrice": "0x28734f91f",
      "l1GasUsed": "0x7dc"
    },
    {
      "status": "0x1",
      "cumulativeGasUsed": "0x227440",
      "logs": [
        {
          "address": "0xe2b6353511c5374b77aa67a1b1a9f2ede7dc1ea7",
          "topics": [
            "0xddf252ad1be2c89b69c2b068fc378daa952ba7f163c4a11628f55a4df523b3ef",
            "0x0000000000000000000000000000000000000000000000000000000000000000",
            "0x0000000000000000000000008f088eca0009ad61fb94a6d7e9a5d7a087c08564",
            "0x00000000000000000000000000000000000000000000000000000000003d0944"
          ],
          "data": "0x",
          "blockHash": "0x8e1cfd175af7d037acfb8a69e17a4b61326bac4fa902cc6080084c92e0c6adb1",
          "blockNumber": "0xa15a58",
          "transactionHash": "0x3cbf10ae4c7efe9d0a9344b42496cb1ae5dd55c366d70ac4f06883da10119c59",
          "transactionIndex": "0x17",
          "logIndex": "0x16",
          "removed": false
        }
      ],
      "logsBloom": "0x00000000000000000000000000000000000000000000000000000000000000000000000000100000000001000000000000000000000000001000020000000200010000000000000000800008000000000000000000000000000000000000000000000000020000000000000000000800000000008000000000000010000000000000000000000000000000000000000000000000000000000000000000000000000000000000000010000000000000000000000000000000000000000000000000000002000000000000000000000000000000000000000000000000000020000000000000000000000000000000000000000000000000000000000000000000",
      "type": "0x2",
      "transactionHash": "0x3cbf10ae4c7efe9d0a9344b42496cb1ae5dd55c366d70ac4f06883da10119c59",
      "transactionIndex": "0x17",
      "blockHash": "0x8e1cfd175af7d037acfb8a69e17a4b61326bac4fa902cc6080084c92e0c6adb1",
      "blockNumber": "0xa15a58",
      "gasUsed": "0x18aff",
      "effectiveGasPrice": "0x187a2",
      "from": "0x8f088eca0009ad61fb94a6d7e9a5d7a087c08564",
      "to": "0xe2b6353511c5374b77aa67a1b1a9f2ede7dc1ea7",
      "contractAddress": null,
      "l1BaseFeeScalar": "0x44d",
      "l1BlobBaseFee": "0x7a4f249ab07",
      "l1BlobBaseFeeScalar": "0xa118b",
      "l1Fee": "0x27689332b7374",
      "l1GasPrice": "0x28734f91f",
      "l1GasUsed": "0x7d0"
    },
    {
      "status": "0x1",
      "cumulativeGasUsed": "0x23ff3f",
      "logs": [
        {
          "address": "0xe2b6353511c5374b77aa67a1b1a9f2ede7dc1ea7",
          "topics": [
            "0xddf252ad1be2c89b69c2b068fc378daa952ba7f163c4a11628f55a4df523b3ef",
            "0x0000000000000000000000000000000000000000000000000000000000000000",
            "0x0000000000000000000000008f088eca0009ad61fb94a6d7e9a5d7a087c08564",
            "0x00000000000000000000000000000000000000000000000000000000003d0945"
          ],
          "data": "0x",
          "blockHash": "0x8e1cfd175af7d037acfb8a69e17a4b61326bac4fa902cc6080084c92e0c6adb1",
          "blockNumber": "0xa15a58",
          "transactionHash": "0x69a56714633bf32a402d3b4a3d23444abfa261117bd121a33061018a99bf9d4d",
          "transactionIndex": "0x18",
          "logIndex": "0x17",
          "removed": false
        }
      ],
      "logsBloom": "0x00000000000000000000000000000000000000000000000000000000000000000000000000100000000001000000000000000000000000000000020000000200000000000000000000000008000000000000000000000000000000000000000000000000020000000000000000000800000000008000000000000010000000000000000000000000000000000000000000000000000000000000000000000000000000000000000010000000000000000000000000000000000000000000000000000002000000000080000000000000000000000008000000000000000020000080000000000000000000000000000000000000000000000000000000000000",
      "type": "0x2",
      "transactionHash": "0x69a56714633bf32a402d3b4a3d23444abfa261117bd121a33061018a99bf9d4d",
      "transactionIndex": "0x18",
      "blockHash": "0x8e1cfd175af7d037acfb8a69e17a4b61326bac4fa902cc6080084c92e0c6adb1",
      "blockNumber": "0xa15a58",
      "gasUsed": "0x18aff",
      "effectiveGasPrice": "0x187a2",
      "from": "0x8f088eca0009ad61fb94a6d7e9a5d7a087c08564",
      "to": "0xe2b6353511c5374b77aa67a1b1a9f2ede7dc1ea7",
      "contractAddress": null,
      "l1BaseFeeScalar": "0x44d",
      "l1BlobBaseFee": "0x7a4f249ab07",
      "l1BlobBaseFeeScalar": "0xa118b",
      "l1Fee": "0x27689332b7374",
      "l1GasPrice": "0x28734f91f",
      "l1GasUsed": "0x7d0"
    }
  ],
  "libraries": [],
  "pending": [],
  "returns": {},
  "timestamp": 1716916945,
  "chain": 84532,
  "commit": "3e641a5"
}