{
  "transactions": [
    {
      "hash": "0xe00f439134476c293bf203d7688de88c4bd6fea97efbc2718ac2b83ef282462b",
      "transactionType": "CALL",
      "contractName": null,
      "contractAddress": "0xb88d359a7a53458487b300dba46f7da1cf22ec5f",
      "function": "mint(uint256)",
      "arguments": [
        "5"
      ],
      "transaction": {
        "from": "0x8f088eca0009ad61fb94a6d7e9a5d7a087c08564",
        "to": "0xb88d359a7a53458487b300dba46f7da1cf22ec5f",
        "gas": "0x29747",
        "value": "0x0",
        "input": "0xa0712d680000000000000000000000000000000000000000000000000000000000000005",
        "nonce": "0xd5c",
        "chainId": "0x14a34"
      },
      "additionalContracts": [],
      "isFixedGasLimit": false
    },
    {
      "hash": "0xc988f6ef7ef20982e2f145a223a8203d4c7b79c428f258161739de2b5ad5e44d",
      "transactionType": "CALL",
      "contractName": null,
      "contractAddress": "0xb88d359a7a53458487b300dba46f7da1cf22ec5f",
      "function": "mint(uint256)",
      "arguments": [
        "5"
      ],
      "transaction": {
        "from": "0x8f088eca0009ad61fb94a6d7e9a5d7a087c08564",
        "to": "0xb88d359a7a53458487b300dba46f7da1cf22ec5f",
        "gas": "0x23b03",
        "value": "0x0",
        "input": "0xa0712d680000000000000000000000000000000000000000000000000000000000000005",
        "nonce": "0xd5d",
        "chainId": "0x14a34"
      },
      "additionalContracts": [],
      "isFixedGasLimit": false
    },
    {
      "hash": "0x0276d963b6fa7a98bb797befdaa049e43c0dae0fafbba51ba8a4c6acc43e9771",
      "transactionType": "CALL",
      "contractName": null,
      "contractAddress": "0xb88d359a7a53458487b300dba46f7da1cf22ec5f",
      "function": "mint(uint256)",
      "arguments": [
        "5"
      ],
      "transaction": {
        "from": "0x8f088eca0009ad61fb94a6d7e9a5d7a087c08564",
        "to": "0xb88d359a7a53458487b300dba46f7da1cf22ec5f",
        "gas": "0x23b03",
        "value": "0x0",
        "input": "0xa0712d680000000000000000000000000000000000000000000000000000000000000005",
        "nonce": "0xd5e",
        "chainId": "0x14a34"
      },
      "additionalContracts": [],
      "isFixedGasLimit": false
    },
    {
      "hash": "0x073efb4452e0e87acf94ee73f235b440c9c7e8854a458421b827711ffbb0d71a",
      "transactionType": "CALL",
      "contractName": null,
      "contractAddress": "0xb88d359a7a53458487b300dba46f7da1cf22ec5f",
      "function": "mint(uint256)",
      "arguments": [
        "5"
      ],
      "transaction": {
        "from": "0x8f088eca0009ad61fb94a6d7e9a5d7a087c08564",
        "to": "0xb88d359a7a53458487b300dba46f7da1cf22ec5f",
        "gas": "0x23b03",
        "value": "0x0",
        "input": "0xa0712d680000000000000000000000000000000000000000000000000000000000000005",
        "nonce": "0xd5f",
        "chainId": "0x14a34"
      },
      "additionalContracts": [],
      "isFixedGasLimit": false
    },
    {
      "hash": "0xe4ffc2f664de027be0c9d9707c7b7b4bbadaaa285dabbff9f9eb47cac14b0e43",
      "transactionType": "CALL",
      "contractName": null,
      "contractAddress": "0xb88d359a7a53458487b300dba46f7da1cf22ec5f",
      "function": "mint(uint256)",
      "arguments": [
        "5"
      ],
      "transaction": {
        "from": "0x8f088eca0009ad61fb94a6d7e9a5d7a087c08564",
        "to": "0xb88d359a7a53458487b300dba46f7da1cf22ec5f",
        "gas": "0x23b03",
        "value": "0x0",
        "input": "0xa0712d680000000000000000000000000000000000000000000000000000000000000005",
        "nonce": "0xd60",
        "chainId": "0x14a34"
      },
      "additionalContracts": [],
      "isFixedGasLimit": false
    }
  ],
  "receipts": [
    {
      "status": "0x1",
      "cumulativeGasUsed": "0xc8eb5",
      "logs": [
        {
          "address": "0xb88d359a7a53458487b300dba46f7da1cf22ec5f",
          "topics": [
            "0xddf252ad1be2c89b69c2b068fc378daa952ba7f163c4a11628f55a4df523b3ef",
            "0x0000000000000000000000000000000000000000000000000000000000000000",
            "0x0000000000000000000000008f088eca0009ad61fb94a6d7e9a5d7a087c08564",
            "0x00000000000000000000000000000000000000000000000000000000004c4b41"
          ],
          "data": "0x",
          "blockHash": "0xcce8fea05b9056581d27311c36aa4709b0aca13d5f1bff5b62db9505c09ec9d7",
          "blockNumber": "0xad5c2b",
          "transactionHash": "0xe00f439134476c293bf203d7688de88c4bd6fea97efbc2718ac2b83ef282462b",
          "transactionIndex": "0x8",
          "logIndex": "0x7",
          "removed": false
        }
      ],
      "logsBloom": "0x00000000000000000000000000000000000000000000000000000000000000000000000000100000000001000000000000000000000000000000000000000200000000000000000000000008000000000000000000000000000000000000000000000000020000000400000010000800000000000000000000000010000000000000000000000000000000000000000000000000000000000000000000000000000000000000000000000000000000000000000000000000000001000000000008000002004000000000000000000000000000000000000000000000000020000000000000000000080000000000000000000000000000000000000000000000",
      "type": "0x2",
      "transactionHash": "0xe00f439134476c293bf203d7688de88c4bd6fea97efbc2718ac2b83ef282462b",
      "transactionIndex": "0x8",
      "blockHash": "0xcce8fea05b9056581d27311c36aa4709b0aca13d5f1bff5b62db9505c09ec9d7",
      "blockNumber": "0xad5c2b",
      "gasUsed": "0x1e034",
      "effectiveGasPrice": "0xf434a",
      "from": "0x8f088eca0009ad61fb94a6d7e9a5d7a087c08564",
      "to": "0xb88d359a7a53458487b300dba46f7da1cf22ec5f",
      "contractAddress": null,
      "l1BaseFeeScalar": "0x44d",
      "l1BlobBaseFee": "0x7e800aac",
      "l1BlobBaseFeeScalar": "0xa118b",
      "l1Fee": "0x209b203abb",
      "l1GasPrice": "0xb",
      "l1GasUsed": "0x640"
    },
    {
      "status": "0x1",
      "cumulativeGasUsed": "0xe2c1d",
      "logs": [
        {
          "address": "0xb88d359a7a53458487b300dba46f7da1cf22ec5f",
          "topics": [
            "0xddf252ad1be2c89b69c2b068fc378daa952ba7f163c4a11628f55a4df523b3ef",
            "0x0000000000000000000000000000000000000000000000000000000000000000",
            "0x0000000000000000000000008f088eca0009ad61fb94a6d7e9a5d7a087c08564",
            "0x00000000000000000000000000000000000000000000000000000000004c4b42"
          ],
          "data": "0x",
          "blockHash": "0xcce8fea05b9056581d27311c36aa4709b0aca13d5f1bff5b62db9505c09ec9d7",
          "blockNumber": "0xad5c2b",
          "transactionHash": "0xc988f6ef7ef20982e2f145a223a8203d4c7b79c428f258161739de2b5ad5e44d",
          "transactionIndex": "0x9",
          "logIndex": "0x8",
          "removed": false
        }
      ],
      "logsBloom": "0x00000000000000000000000000000000000000000000000000000000000000000000000000100000000001000000000000000000000000000100000000000200000000000000000000000008000000000000000000000000000000000000000000000000020000000400000000000800000000000000000000000010000000000000000000000000000000000000000000000000000000000000000000000000000000000000000000000000080000000000000002000000000000000000000008000002004000000000000000000000000000000000000000000000000020000000000000000000000000000000000000000000000000000000000000000000",
      "type": "0x2",
      "transactionHash": "0xc988f6ef7ef20982e2f145a223a8203d4c7b79c428f258161739de2b5ad5e44d",
      "transactionIndex": "0x9",
      "blockHash": "0xcce8fea05b9056581d27311c36aa4709b0aca13d5f1bff5b62db9505c09ec9d7",
      "blockNumber": "0xad5c2b",
      "gasUsed": "0x19d68",
      "effectiveGasPrice": "0xf434a",
      "from": "0x8f088eca0009ad61fb94a6d7e9a5d7a087c08564",
      "to": "0xb88d359a7a53458487b300dba46f7da1cf22ec5f",
      "contractAddress": null,
      "l1BaseFeeScalar": "0x44d",
      "l1BlobBaseFee": "0x7e800aac",
      "l1BlobBaseFeeScalar": "0xa118b",
      "l1Fee": "0x209b203abb",
      "l1GasPrice": "0xb",
      "l1GasUsed": "0x640"
    },
    {
      "status": "0x1",
      "cumulativeGasUsed": "0xfc985",
      "logs": [
        {
          "address": "0xb88d359a7a53458487b300dba46f7da1cf22ec5f",
          "topics": [
            "0xddf252ad1be2c89b69c2b068fc378daa952ba7f163c4a11628f55a4df523b3ef",
            "0x0000000000000000000000000000000000000000000000000000000000000000",
            "0x0000000000000000000000008f088eca0009ad61fb94a6d7e9a5d7a087c08564",
            "0x00000000000000000000000000000000000000000000000000000000004c4b43"
          ],
          "data": "0x",
          "blockHash": "0xcce8fea05b9056581d27311c36aa4709b0aca13d5f1bff5b62db9505c09ec9d7",
          "blockNumber": "0xad5c2b",
          "transactionHash": "0x0276d963b6fa7a98bb797befdaa049e43c0dae0fafbba51ba8a4c6acc43e9771",
          "transactionIndex": "0xa",
          "logIndex": "0x9",
          "removed": false
        }
      ],
      "logsBloom": "0x00000000000000000000000000000000000400000000000000000000000000002000000000100000000001000000000000000000000000000000000000000200000000000000000000000008000000000000000000000000000000000000000000000000020000000400000000000800000000000000000000000010000000000000000000000000000000000000000000000000000000000000000000000000000000000000000000000000000000000000000000000000000800000000000008000002004000000000000000000000000000000000000000000000000020000000000000000000000000000000000000000000000000000000000000000000",
      "type": "0x2",
      "transactionHash": "0x0276d963b6fa7a98bb797befdaa049e43c0dae0fafbba51ba8a4c6acc43e9771",
      "transactionIndex": "0xa",
      "blockHash": "0xcce8fea05b9056581d27311c36aa4709b0aca13d5f1bff5b62db9505c09ec9d7",
      "blockNumber": "0xad5c2b",
      "gasUsed": "0x19d68",
      "effectiveGasPrice": "0xf434a",
      "from": "0x8f088eca0009ad61fb94a6d7e9a5d7a087c08564",
      "to": "0xb88d359a7a53458487b300dba46f7da1cf22ec5f",
      "contractAddress": null,
      "l1BaseFeeScalar": "0x44d",
      "l1BlobBaseFee": "0x7e800aac",
      "l1BlobBaseFeeScalar": "0xa118b",
      "l1Fee": "0x209b203abb",
      "l1GasPrice": "0xb",
      "l1GasUsed": "0x640"
    },
    {
      "status": "0x1",
      "cumulativeGasUsed": "0x1166ed",
      "logs": [
        {
          "address": "0xb88d359a7a53458487b300dba46f7da1cf22ec5f",
          "topics": [
            "0xddf252ad1be2c89b69c2b068fc378daa952ba7f163c4a11628f55a4df523b3ef",
            "0x0000000000000000000000000000000000000000000000000000000000000000",
            "0x0000000000000000000000008f088eca0009ad61fb94a6d7e9a5d7a087c08564",
            "0x00000000000000000000000000000000000000000000000000000000004c4b44"
          ],
          "data": "0x",
          "blockHash": "0xcce8fea05b9056581d27311c36aa4709b0aca13d5f1bff5b62db9505c09ec9d7",
          "blockNumber": "0xad5c2b",
          "transactionHash": "0x073efb4452e0e87acf94ee73f235b440c9c7e8854a458421b827711ffbb0d71a",
          "transactionIndex": "0xb",
          "logIndex": "0xa",
          "removed": false
        }
      ],
      "logsBloom": "0x00000000000000000000000000000000000000020000000000000000000000000000000000100000000001000000000000000000000000000000000000000200000000000000000000000008000000000000000000000008000000000000000000000000020000000400000000000800000000000000000000000010000000000000000000000000000000000000000000000000000000000000000000000000000000000000000000000000000000000000000000000000000000000000000008000002004000000000000000000000000000000000000000000000000020000000000000000000040000000000000000000000000000000000000000000000",
      "type": "0x2",
      "transactionHash": "0x073efb4452e0e87acf94ee73f235b440c9c7e8854a458421b827711ffbb0d71a",
      "transactionIndex": "0xb",
      "blockHash": "0xcce8fea05b9056581d27311c36aa4709b0aca13d5f1bff5b62db9505c09ec9d7",
      "blockNumber": "0xad5c2b",
      "gasUsed": "0x19d68",
      "effectiveGasPrice": "0xf434a",
      "from": "0x8f088eca0009ad61fb94a6d7e9a5d7a087c08564",
      "to": "0xb88d359a7a53458487b300dba46f7da1cf22ec5f",
      "contractAddress": null,
      "l1BaseFeeScalar": "0x44d",
      "l1BlobBaseFee": "0x7e800aac",
      "l1BlobBaseFeeScalar": "0xa118b",
      "l1Fee": "0x209b203abb",
      "l1GasPrice": "0xb",
      "l1GasUsed": "0x640"
    },
    {
      "status": "0x1",
      "cumulativeGasUsed": "0x130455",
      "logs": [
        {
          "address": "0xb88d359a7a53458487b300dba46f7da1cf22ec5f",
          "topics": [
            "0xddf252ad1be2c89b69c2b068fc378daa952ba7f163c4a11628f55a4df523b3ef",
            "0x0000000000000000000000000000000000000000000000000000000000000000",
            "0x0000000000000000000000008f088eca0009ad61fb94a6d7e9a5d7a087c08564",
            "0x00000000000000000000000000000000000000000000000000000000004c4b45"
          ],
          "data": "0x",
          "blockHash": "0xcce8fea05b9056581d27311c36aa4709b0aca13d5f1bff5b62db9505c09ec9d7",
          "blockNumber": "0xad5c2b",
          "transactionHash": "0xe4ffc2f664de027be0c9d9707c7b7b4bbadaaa285dabbff9f9eb47cac14b0e43",
          "transactionIndex": "0xc",
          "logIndex": "0xb",
          "removed": false
        }
      ],
      "logsBloom": "0x00000000000000000000000000000000000000000000000000000000000000000000000000100000000001000000000000001000000000000000000000000200000000000000000000004008000000000000000000000000000000000000000000000000020000000400000000000800000000000000000000000010000000000000000000000000000000000000000000000000000000000000000000000000000000000000000000000000000000000000000000000000000000000000000008000002004000000000000000000000000000000000000000000000000020000000000000000000000000000000000000200000000000000000000000000000",
      "type": "0x2",
      "transactionHash": "0xe4ffc2f664de027be0c9d9707c7b7b4bbadaaa285dabbff9f9eb47cac14b0e43",
      "transactionIndex": "0xc",
      "blockHash": "0xcce8fea05b9056581d27311c36aa4709b0aca13d5f1bff5b62db9505c09ec9d7",
      "blockNumber": "0xad5c2b",
      "gasUsed": "0x19d68",
      "effectiveGasPrice": "0xf434a",
      "from": "0x8f088eca0009ad61fb94a6d7e9a5d7a087c08564",
      "to": "0xb88d359a7a53458487b300dba46f7da1cf22ec5f",
      "contractAddress": null,
      "l1BaseFeeScalar": "0x44d",
      "l1BlobBaseFee": "0x7e800aac",
      "l1BlobBaseFeeScalar": "0xa118b",
      "l1Fee": "0x209b203abb",
      "l1GasPrice": "0xb",
      "l1GasUsed": "0x640"
    }
  ],
  "libraries": [],
  "pending": [],
  "returns": {},
  "timestamp": 1718490939,
  "chain": 84532,
  "commit": "3e641a5"
}