{
  "transactions": [
    {
      "hash": "0x41d2949814c9905fb931ef9b1e33454b1e046b4a18186cab2cd864f031bac55b",
      "transactionType": "CALL",
      "contractName": null,
      "contractAddress": "0xb88d359a7a53458487b300dba46f7da1cf22ec5f",
      "function": "mint(uint256)",
      "arguments": [
        "2"
      ],
      "transaction": {
        "from": "0x8f088eca0009ad61fb94a6d7e9a5d7a087c08564",
        "to": "0xb88d359a7a53458487b300dba46f7da1cf22ec5f",
        "gas": "0x2b726",
        "value": "0x0",
        "input": "0xa0712d680000000000000000000000000000000000000000000000000000000000000002",
        "nonce": "0xd2a",
        "chainId": "0x14a34"
      },
      "additionalContracts": [],
      "isFixedGasLimit": false
    },
    {
      "hash": "0x63c9273d210bbd3616e26abcaf9edd4c69bbbb98098aa2da19cc50d9edc7f1d0",
      "transactionType": "CALL",
      "contractName": null,
      "contractAddress": "0xb88d359a7a53458487b300dba46f7da1cf22ec5f",
      "function": "mint(uint256)",
      "arguments": [
        "2"
      ],
      "transaction": {
        "from": "0x8f088eca0009ad61fb94a6d7e9a5d7a087c08564",
        "to": "0xb88d359a7a53458487b300dba46f7da1cf22ec5f",
        "gas": "0x27e59",
        "value": "0x0",
        "input": "0xa0712d680000000000000000000000000000000000000000000000000000000000000002",
        "nonce": "0xd2b",
        "chainId": "0x14a34"
      },
      "additionalContracts": [],
      "isFixedGasLimit": false
    },
    {
      "hash": "0xab857390839dfb8ec02c1413061814ec1e0c10d1c4fdd854bdb632358debca36",
      "transactionType": "CALL",
      "contractName": null,
      "contractAddress": "0xb88d359a7a53458487b300dba46f7da1cf22ec5f",
      "function": "mint(uint256)",
      "arguments": [
        "2"
      ],
      "transaction": {
        "from": "0x8f088eca0009ad61fb94a6d7e9a5d7a087c08564",
        "to": "0xb88d359a7a53458487b300dba46f7da1cf22ec5f",
        "gas": "0x27e59",
        "value": "0x0",
        "input": "0xa0712d680000000000000000000000000000000000000000000000000000000000000002",
        "nonce": "0xd2c",
        "chainId": "0x14a34"
      },
      "additionalContracts": [],
      "isFixedGasLimit": false
    },
    {
      "hash": "0x9c3931e0c2c6cd7cb8189ebd5994b95d6a9925b326b817ab532e9e4ab04880be",
      "transactionType": "CALL",
      "contractName": null,
      "contractAddress": "0xb88d359a7a53458487b300dba46f7da1cf22ec5f",
      "function": "mint(uint256)",
      "arguments": [
        "2"
      ],
      "transaction": {
        "from": "0x8f088eca0009ad61fb94a6d7e9a5d7a087c08564",
        "to": "0xb88d359a7a53458487b300dba46f7da1cf22ec5f",
        "gas": "0x27e59",
        "value": "0x0",
        "input": "0xa0712d680000000000000000000000000000000000000000000000000000000000000002",
        "nonce": "0xd2d",
        "chainId": "0x14a34"
      },
      "additionalContracts": [],
      "isFixedGasLimit": false
    },
    {
      "hash": "0x6baa8107eba2ca23230c86fd14dc7da782a757cf10dd572dc58478077404e2a8",
      "transactionType": "CALL",
      "contractName": null,
      "contractAddress": "0xb88d359a7a53458487b300dba46f7da1cf22ec5f",
      "function": "mint(uint256)",
      "arguments": [
        "2"
      ],
      "transaction": {
        "from": "0x8f088eca0009ad61fb94a6d7e9a5d7a087c08564",
        "to": "0xb88d359a7a53458487b300dba46f7da1cf22ec5f",
        "gas": "0x27e59",
        "value": "0x0",
        "input": "0xa0712d680000000000000000000000000000000000000000000000000000000000000002",
        "nonce": "0xd2e",
        "chainId": "0x14a34"
      },
      "additionalContracts": [],
      "isFixedGasLimit": false
    },
    {
      "hash": "0x980a7189c0a1fe5477f49e50e8d461467ceb8809a2c9f8ae8009fb7fde8e3f51",
      "transactionType": "CALL",
      "contractName": null,
      "contractAddress": "0xb88d359a7a53458487b300dba46f7da1cf22ec5f",
      "function": "mint(uint256)",
      "arguments": [
        "2"
      ],
      "transaction": {
        "from": "0x8f088eca0009ad61fb94a6d7e9a5d7a087c08564",
        "to": "0xb88d359a7a53458487b300dba46f7da1cf22ec5f",
        "gas": "0x27e59",
        "value": "0x0",
        "input": "0xa0712d680000000000000000000000000000000000000000000000000000000000000002",
        "nonce": "0xd2f",
        "chainId": "0x14a34"
      },
      "additionalContracts": [],
      "isFixedGasLimit": false
    },
    {
      "hash": "0x86873cbc6ca732ac6e1b6485fe4a670911a3ff5e57b6cd56cf2b66f5a6aca8c4",
      "transactionType": "CALL",
      "contractName": null,
      "contractAddress": "0xb88d359a7a53458487b300dba46f7da1cf22ec5f",
      "function": "mint(uint256)",
      "arguments": [
        "2"
      ],
      "transaction": {
        "from": "0x8f088eca0009ad61fb94a6d7e9a5d7a087c08564",
        "to": "0xb88d359a7a53458487b300dba46f7da1cf22ec5f",
        "gas": "0x27e59",
        "value": "0x0",
        "input": "0xa0712d680000000000000000000000000000000000000000000000000000000000000002",
        "nonce": "0xd30",
        "chainId": "0x14a34"
      },
      "additionalContracts": [],
      "isFixedGasLimit": false
    },
    {
      "hash": "0x0ed38b8d93dae108fc767438f3e35d545fd8ef5156d4ae0ea416d47e41d76344",
      "transactionType": "CALL",
      "contractName": null,
      "contractAddress": "0xb88d359a7a53458487b300dba46f7da1cf22ec5f",
      "function": "mint(uint256)",
      "arguments": [
        "2"
      ],
      "transaction": {
        "from": "0x8f088eca0009ad61fb94a6d7e9a5d7a087c08564",
        "to": "0xb88d359a7a53458487b300dba46f7da1cf22ec5f",
        "gas": "0x27e59",
        "value": "0x0",
        "input": "0xa0712d680000000000000000000000000000000000000000000000000000000000000002",
        "nonce": "0xd31",
        "chainId": "0x14a34"
      },
      "additionalContracts": [],
      "isFixedGasLimit": false
    },
    {
      "hash": "0x75762a66cb3ecc50e8579257937cf240af0922219e4ca4cc98a0fce838f0396b",
      "transactionType": "CALL",
      "contractName": null,
      "contractAddress": "0xb88d359a7a53458487b300dba46f7da1cf22ec5f",
      "function": "mint(uint256)",
      "arguments": [
        "2"
      ],
      "transaction": {
        "from": "0x8f088eca0009ad61fb94a6d7e9a5d7a087c08564",
        "to": "0xb88d359a7a53458487b300dba46f7da1cf22ec5f",
        "gas": "0x27e59",
        "value": "0x0",
        "input": "0xa0712d680000000000000000000000000000000000000000000000000000000000000002",
        "nonce": "0xd32",
        "chainId": "0x14a34"
      },
      "additionalContracts": [],
      "isFixedGasLimit": false
    },
    {
      "hash": "0xcf3e4bc469a15ac7c0768f5bfab64834fdc688b5998f838fd415bbb9e6a7ffc6",
      "transactionType": "CALL",
      "contractName": null,
      "contractAddress": "0xb88d359a7a53458487b300dba46f7da1cf22ec5f",
      "function": "mint(uint256)",
      "arguments": [
        "2"
      ],
      "transaction": {
        "from": "0x8f088eca0009ad61fb94a6d7e9a5d7a087c08564",
        "to": "0xb88d359a7a53458487b300dba46f7da1cf22ec5f",
        "gas": "0x27e59",
        "value": "0x0",
        "input": "0xa0712d680000000000000000000000000000000000000000000000000000000000000002",
        "nonce": "0xd33",
        "chainId": "0x14a34"
      },
      "additionalContracts": [],
      "isFixedGasLimit": false
    }
  ],
  "receipts": [
    {
      "status": "0x1",
      "cumulativeGasUsed": "0x193963",
      "logs": [
        {
          "address": "0xb88d359a7a53458487b300dba46f7da1cf22ec5f",
          "topics": [
            "0xddf252ad1be2c89b69c2b068fc378daa952ba7f163c4a11628f55a4df523b3ef",
            "0x0000000000000000000000000000000000000000000000000000000000000000",
            "0x0000000000000000000000008f088eca0009ad61fb94a6d7e9a5d7a087c08564",
            "0x00000000000000000000000000000000000000000000000000000000001e8481"
          ],
          "data": "0x",
          "blockHash": "0xc3f20b45436bda3cc580e97c1dd6bed3b8f399d05d9d737c9b8f946b402c621e",
          "blockNumber": "0xad4bf9",
          "transactionHash": "0x41d2949814c9905fb931ef9b1e33454b1e046b4a18186cab2cd864f031bac55b",
          "transactionIndex": "0x1c",
          "logIndex": "0x3",
          "removed": false
        }
      ],
      "logsBloom": "0x00000000000000000000000000000000000000000000000000000000000000000000000000100000000001000000000000000000000000000000000000000200000000000000000000000008000000000000000000000000000000000000000000000020020010000400000000000800000000000002000000000010000000000000000000000000000000000000000000000000000000000000000000000000000000000000000000000000000000000000000000000000000000000000000008000002004000000000000000000000000000000000000000000000000020000000000000000000000000000000000000000000000000000000000000000000",
      "type": "0x2",
      "transactionHash": "0x41d2949814c9905fb931ef9b1e33454b1e046b4a18186cab2cd864f031bac55b",
      "transactionIndex": "0x1c",
      "blockHash": "0xc3f20b45436bda3cc580e97c1dd6bed3b8f399d05d9d737c9b8f946b402c621e",
      "blockNumber": "0xad4bf9",
      "gasUsed": "0x1f747",
      "effectiveGasPrice": "0xece12",
      "from": "0x8f088eca0009ad61fb94a6d7e9a5d7a087c08564",
      "to": "0xb88d359a7a53458487b300dba46f7da1cf22ec5f",
      "contractAddress": null,
      "l1BaseFeeScalar": "0x44d",
      "l1BlobBaseFee": "0x1",
      "l1BlobBaseFeeScalar": "0xa118b",
      "l1Fee": "0x66",
      "l1GasPrice": "0x15",
      "l1GasUsed": "0x640"
    },
    {
      "status": "0x1",
      "cumulativeGasUsed": "0x1aedde",
      "logs": [
        {
          "address": "0xb88d359a7a53458487b300dba46f7da1cf22ec5f",
          "topics": [
            "0xddf252ad1be2c89b69c2b068fc378daa952ba7f163c4a11628f55a4df523b3ef",
            "0x0000000000000000000000000000000000000000000000000000000000000000",
            "0x0000000000000000000000008f088eca0009ad61fb94a6d7e9a5d7a087c08564",
            "0x00000000000000000000000000000000000000000000000000000000001e8482"
          ],
          "data": "0x",
          "blockHash": "0xc3f20b45436bda3cc580e97c1dd6bed3b8f399d05d9d737c9b8f946b402c621e",
          "blockNumber": "0xad4bf9",
          "transactionHash": "0x63c9273d210bbd3616e26abcaf9edd4c69bbbb98098aa2da19cc50d9edc7f1d0",
          "transactionIndex": "0x1d",
          "logIndex": "0x4",
          "removed": false
        }
      ],
      "logsBloom": "0x00000000000000000000000000000010000000000000000000000000000000000000000000100000000001000000000000000000000000000000000000000200000000000000000000000008000000000000001000000000000000000000000000000000020000000400000000000800000000000000000000000010000000000000000000000000000000000000000000000000000000000000000000000000000000000000000000000000000000000000000000000000000000000000000008000002004000000000000000000000000000000000000000000000000020000000000000000400000000000000000000000000000000000000000000000000",
      "type": "0x2",
      "transactionHash": "0x63c9273d210bbd3616e26abcaf9edd4c69bbbb98098aa2da19cc50d9edc7f1d0",
      "transactionIndex": "0x1d",
      "blockHash": "0xc3f20b45436bda3cc580e97c1dd6bed3b8f399d05d9d737c9b8f946b402c621e",
      "blockNumber": "0xad4bf9",
      "gasUsed": "0x1b47b",
      "effectiveGasPrice": "0xece12",
      "from": "0x8f088eca0009ad61fb94a6d7e9a5d7a087c08564",
      "to": "0xb88d359a7a53458487b300dba46f7da1cf22ec5f",
      "contractAddress": null,
      "l1BaseFeeScalar": "0x44d",
      "l1BlobBaseFee": "0x1",
      "l1BlobBaseFeeScalar": "0xa118b",
      "l1Fee": "0x66",
      "l1GasPrice": "0x15",
      "l1GasUsed": "0x640"
    },
    {
      "status": "0x1",
      "cumulativeGasUsed": "0x1ca259",
      "logs": [
        {
          "address": "0xb88d359a7a53458487b300dba46f7da1cf22ec5f",
          "topics": [
            "0xddf252ad1be2c89b69c2b068fc378daa952ba7f163c4a11628f55a4df523b3ef",
            "0x0000000000000000000000000000000000000000000000000000000000000000",
            "0x0000000000000000000000008f088eca0009ad61fb94a6d7e9a5d7a087c08564",
            "0x00000000000000000000000000000000000000000000000000000000001e8483"
          ],
          "data": "0x",
          "blockHash": "0xc3f20b45436bda3cc580e97c1dd6bed3b8f399d05d9d737c9b8f946b402c621e",
          "blockNumber": "0xad4bf9",
          "transactionHash": "0xab857390839dfb8ec02c1413061814ec1e0c10d1c4fdd854bdb632358debca36",
          "transactionIndex": "0x1e",
          "logIndex": "0x5",
          "removed": false
        }
      ],
      "logsBloom": "0x00000000000000000000000000000000000000000000000000000000000000000000000000100000000001000000000000000000000000000000000000008200000000000000000000000008000000000000000000000000000000000000000000000100020000000400000000000800000000000000000000000010000000000000000000000000000000000000000000000000000000000000000000000000000000000000000000000000000000000000000000000000000000000000000008000002004000000000000000000000000000000000000080000000000020000000000000000000000000000000000000000000000000000000000000000000",
      "type": "0x2",
      "transactionHash": "0xab857390839dfb8ec02c1413061814ec1e0c10d1c4fdd854bdb632358debca36",
      "transactionIndex": "0x1e",
      "blockHash": "0xc3f20b45436bda3cc580e97c1dd6bed3b8f399d05d9d737c9b8f946b402c621e",
      "blockNumber": "0xad4bf9",
      "gasUsed": "0x1b47b",
      "effectiveGasPrice": "0xece12",
      "from": "0x8f088eca0009ad61fb94a6d7e9a5d7a087c08564",
      "to": "0xb88d359a7a53458487b300dba46f7da1cf22ec5f",
      "contractAddress": null,
      "l1BaseFeeScalar": "0x44d",
      "l1BlobBaseFee": "0x1",
      "l1BlobBaseFeeScalar": "0xa118b",
      "l1Fee": "0x66",
      "l1GasPrice": "0x15",
      "l1GasUsed": "0x640"
    },
    {
      "status": "0x1",
      "cumulativeGasUsed": "0x1e56d4",
      "logs": [
        {
          "address": "0xb88d359a7a53458487b300dba46f7da1cf22ec5f",
          "topics": [
            "0xddf252ad1be2c89b69c2b068fc378daa952ba7f163c4a11628f55a4df523b3ef",
            "0x0000000000000000000000000000000000000000000000000000000000000000",
            "0x0000000000000000000000008f088eca0009ad61fb94a6d7e9a5d7a087c08564",
            "0x00000000000000000000000000000000000000000000000000000000001e8484"
          ],
          "data": "0x",
          "blockHash": "0xc3f20b45436bda3cc580e97c1dd6bed3b8f399d05d9d737c9b8f946b402c621e",
          "blockNumber": "0xad4bf9",
          "transactionHash": "0x9c3931e0c2c6cd7cb8189ebd5994b95d6a9925b326b817ab532e9e4ab04880be",
          "transactionIndex": "0x1f",
          "logIndex": "0x6",
          "removed": false
        }
      ],
      "logsBloom": "0x00000000000000000000000000000000000000000000000000000000000000000000000000100000000001000000000000000000000000000000000000000200000000000000000000000008000000000000000000000000000000000000000000000000020000000400000000000800000000000000000000000010000000000000000000000000000000000000000000000000000000000000000000000000000000000000004000000000000000000000000000000000000000000000000008000002004000000000000000000001000400000000000000000000000020000000000000000000000000000000000000000000000000000000000000000000",
      "type": "0x2",
      "transactionHash": "0x9c3931e0c2c6cd7cb8189ebd5994b95d6a9925b326b817ab532e9e4ab04880be",
      "transactionIndex": "0x1f",
      "blockHash": "0xc3f20b45436bda3cc580e97c1dd6bed3b8f399d05d9d737c9b8f946b402c621e",
      "blockNumber": "0xad4bf9",
      "gasUsed": "0x1b47b",
      "effectiveGasPrice": "0xece12",
      "from": "0x8f088eca0009ad61fb94a6d7e9a5d7a087c08564",
      "to": "0xb88d359a7a53458487b300dba46f7da1cf22ec5f",
      "contractAddress": null,
      "l1BaseFeeScalar": "0x44d",
      "l1BlobBaseFee": "0x1",
      "l1BlobBaseFeeScalar": "0xa118b",
      "l1Fee": "0x66",
      "l1GasPrice": "0x15",
      "l1GasUsed": "0x640"
    },
    {
      "status": "0x1",
      "cumulativeGasUsed": "0x200b4f",
      "logs": [
        {
          "address": "0xb88d359a7a53458487b300dba46f7da1cf22ec5f",
          "topics": [
            "0xddf252ad1be2c89b69c2b068fc378daa952ba7f163c4a11628f55a4df523b3ef",
            "0x0000000000000000000000000000000000000000000000000000000000000000",
            "0x0000000000000000000000008f088eca0009ad61fb94a6d7e9a5d7a087c08564",
            "0x00000000000000000000000000000000000000000000000000000000001e8485"
          ],
          "data": "0x",
          "blockHash": "0xc3f20b45436bda3cc580e97c1dd6bed3b8f399d05d9d737c9b8f946b402c621e",
          "blockNumber": "0xad4bf9",
          "transactionHash": "0x6baa8107eba2ca23230c86fd14dc7da782a757cf10dd572dc58478077404e2a8",
          "transactionIndex": "0x20",
          "logIndex": "0x7",
          "removed": false
        }
      ],
      "logsBloom": "0x00000000000000000000000000000000000000000000000000000000000000000000000000100000000001000000000000000000000000000000000200000200000000000000000000000008000000000000000000000000000000000000000000000000020000000400000000000800000000000000000000000010000000000000000000000000000000000000000000000000000000000000000000000000000000000000000000000000000000000000000000000000000000000000000008000002004000000000000000000000000000000000800000000000000020000000000000000000000000000000000000100000000000000000000000000000",
      "type": "0x2",
      "transactionHash": "0x6baa8107eba2ca23230c86fd14dc7da782a757cf10dd572dc58478077404e2a8",
      "transactionIndex": "0x20",
      "blockHash": "0xc3f20b45436bda3cc580e97c1dd6bed3b8f399d05d9d737c9b8f946b402c621e",
      "blockNumber": "0xad4bf9",
      "gasUsed": "0x1b47b",
      "effectiveGasPrice": "0xece12",
      "from": "0x8f088eca0009ad61fb94a6d7e9a5d7a087c08564",
      "to": "0xb88d359a7a53458487b300dba46f7da1cf22ec5f",
      "contractAddress": null,
      "l1BaseFeeScalar": "0x44d",
      "l1BlobBaseFee": "0x1",
      "l1BlobBaseFeeScalar": "0xa118b",
      "l1Fee": "0x66",
      "l1GasPrice": "0x15",
      "l1GasUsed": "0x640"
    },
    {
      "status": "0x1",
      "cumulativeGasUsed": "0x21bfca",
      "logs": [
        {
          "address": "0xb88d359a7a53458487b300dba46f7da1cf22ec5f",
          "topics": [
            "0xddf252ad1be2c89b69c2b068fc378daa952ba7f163c4a11628f55a4df523b3ef",
            "0x0000000000000000000000000000000000000000000000000000000000000000",
            "0x0000000000000000000000008f088eca0009ad61fb94a6d7e9a5d7a087c08564",
            "0x00000000000000000000000000000000000000000000000000000000001e8486"
          ],
          "data": "0x",
          "blockHash": "0xc3f20b45436bda3cc580e97c1dd6bed3b8f399d05d9d737c9b8f946b402c621e",
          "blockNumber": "0xad4bf9",
          "transactionHash": "0x980a7189c0a1fe5477f49e50e8d461467ceb8809a2c9f8ae8009fb7fde8e3f51",
          "transactionIndex": "0x21",
          "logIndex": "0x8",
          "removed": false
        }
      ],
      "logsBloom": "0x00000000000000000000000000000000000000000000000000000000000000000000000000100000000001000000000000000000000000000000000000000200000000000000000000000008000000000000000000010000000000000000000000000000020000000400000000000800000000000000000000000010000000000000000000000000000000000000000000000000000000000000000000000000000000000000000000000000000000000000000000000000000000000000000008000002004000000000000000000000000000000000000000000000010020000000001000000000000000000000000000000000000000000000000000000000",
      "type": "0x2",
      "transactionHash": "0x980a7189c0a1fe5477f49e50e8d461467ceb8809a2c9f8ae8009fb7fde8e3f51",
      "transactionIndex": "0x21",
      "blockHash": "0xc3f20b45436bda3cc580e97c1dd6bed3b8f399d05d9d737c9b8f946b402c621e",
      "blockNumber": "0xad4bf9",
      "gasUsed": "0x1b47b",
      "effectiveGasPrice": "0xece12",
      "from": "0x8f088eca0009ad61fb94a6d7e9a5d7a087c08564",
      "to": "0xb88d359a7a53458487b300dba46f7da1cf22ec5f",
      "contractAddress": null,
      "l1BaseFeeScalar": "0x44d",
      "l1BlobBaseFee": "0x1",
      "l1BlobBaseFeeScalar": "0xa118b",
      "l1Fee": "0x66",
      "l1GasPrice": "0x15",
      "l1GasUsed": "0x640"
    },
    {
      "status": "0x1",
      "cumulativeGasUsed": "0x237445",
      "logs": [
        {
          "address": "0xb88d359a7a53458487b300dba46f7da1cf22ec5f",
          "topics": [
            "0xddf252ad1be2c89b69c2b068fc378daa952ba7f163c4a11628f55a4df523b3ef",
            "0x0000000000000000000000000000000000000000000000000000000000000000",
            "0x0000000000000000000000008f088eca0009ad61fb94a6d7e9a5d7a087c08564",
            "0x00000000000000000000000000000000000000000000000000000000001e8487"
          ],
          "data": "0x",
          "blockHash": "0xc3f20b45436bda3cc580e97c1dd6bed3b8f399d05d9d737c9b8f946b402c621e",
          "blockNumber": "0xad4bf9",
          "transactionHash": "0x86873cbc6ca732ac6e1b6485fe4a670911a3ff5e57b6cd56cf2b66f5a6aca8c4",
          "transactionIndex": "0x22",
          "logIndex": "0x9",
          "removed": false
        }
      ],
      "logsBloom": "0x00000000000000000000000000000000000000000000000000000000000000000000000000100000000001000000000000000000000000000000000000000200000000000000000000000008000000000000000000000000000000000000000000000000020000000400000000000800200000000000000000010010000000000000000000000000000000000000000000000000000000000000000400000000000000000000000000000000000000000000000000000000000000000000000008000002004000000000000000000000000000000000000000000000000020000000000000000000000000000000000000000000000000000000000000000000",
      "type": "0x2",
      "transactionHash": "0x86873cbc6ca732ac6e1b6485fe4a670911a3ff5e57b6cd56cf2b66f5a6aca8c4",
      "transactionIndex": "0x22",
      "blockHash": "0xc3f20b45436bda3cc580e97c1dd6bed3b8f399d05d9d737c9b8f946b402c621e",
      "blockNumber": "0xad4bf9",
      "gasUsed": "0x1b47b",
      "effectiveGasPrice": "0xece12",
      "from": "0x8f088eca0009ad61fb94a6d7e9a5d7a087c08564",
      "to": "0xb88d359a7a53458487b300dba46f7da1cf22ec5f",
      "contractAddress": null,
      "l1BaseFeeScalar": "0x44d",
      "l1BlobBaseFee": "0x1",
      "l1BlobBaseFeeScalar": "0xa118b",
      "l1Fee": "0x66",
      "l1GasPrice": "0x15",
      "l1GasUsed": "0x640"
    },
    {
      "status": "0x1",
      "cumulativeGasUsed": "0x2528c0",
      "logs": [
        {
          "address": "0xb88d359a7a53458487b300dba46f7da1cf22ec5f",
          "topics": [
            "0xddf252ad1be2c89b69c2b068fc378daa952ba7f163c4a11628f55a4df523b3ef",
            "0x0000000000000000000000000000000000000000000000000000000000000000",
            "0x0000000000000000000000008f088eca0009ad61fb94a6d7e9a5d7a087c08564",
            "0x00000000000000000000000000000000000000000000000000000000001e8488"
          ],
          "data": "0x",
          "blockHash": "0xc3f20b45436bda3cc580e97c1dd6bed3b8f399d05d9d737c9b8f946b402c621e",
          "blockNumber": "0xad4bf9",
          "transactionHash": "0x0ed38b8d93dae108fc767438f3e35d545fd8ef5156d4ae0ea416d47e41d76344",
          "transactionIndex": "0x23",
          "logIndex": "0xa",
          "removed": false
        }
      ],
      "logsBloom": "0x00000000000000000000000000000000000000000000000000000000000000000000000000100000000001000000000000800000000000000000000000000200000000000000000000000008000000000000000000000000000000000000000000000000020000000400000040000800000000000000000000000010000000000000000000000000000000000000000000000000000000000000000000000000000004000000000000000000000000000000000000000000000000000000000008000002004000000000000000000000000000000000000000000000000020000000000000000000000000000000000000000000000000000000000000000000",
      "type": "0x2",
      "transactionHash": "0x0ed38b8d93dae108fc767438f3e35d545fd8ef5156d4ae0ea416d47e41d76344",
      "transactionIndex": "0x23",
      "blockHash": "0xc3f20b45436bda3cc580e97c1dd6bed3b8f399d05d9d737c9b8f946b402c621e",
      "blockNumber": "0xad4bf9",
      "gasUsed": "0x1b47b",
      "effectiveGasPrice": "0xece12",
      "from": "0x8f088eca0009ad61fb94a6d7e9a5d7a087c08564",
      "to": "0xb88d359a7a53458487b300dba46f7da1cf22ec5f",
      "contractAddress": null,
      "l1BaseFeeScalar": "0x44d",
      "l1BlobBaseFee": "0x1",
      "l1BlobBaseFeeScalar": "0xa118b",
      "l1Fee": "0x66",
      "l1GasPrice": "0x15",
      "l1GasUsed": "0x640"
    },
    {
      "status": "0x1",
      "cumulativeGasUsed": "0x26dd3b",
      "logs": [
        {
          "address": "0xb88d359a7a53458487b300dba46f7da1cf22ec5f",
          "topics": [
            "0xddf252ad1be2c89b69c2b068fc378daa952ba7f163c4a11628f55a4df523b3ef",
            "0x0000000000000000000000000000000000000000000000000000000000000000",
            "0x0000000000000000000000008f088eca0009ad61fb94a6d7e9a5d7a087c08564",
            "0x00000000000000000000000000000000000000000000000000000000001e8489"
          ],
          "data": "0x",
          "blockHash": "0xc3f20b45436bda3cc580e97c1dd6bed3b8f399d05d9d737c9b8f946b402c621e",
          "blockNumber": "0xad4bf9",
          "transactionHash": "0x75762a66cb3ecc50e8579257937cf240af0922219e4ca4cc98a0fce838f0396b",
          "transactionIndex": "0x24",
          "logIndex": "0xb",
          "removed": false
        }
      ],
      "logsBloom": "0x00000000000000000000000000000000000000000000000000000000000000000000000000100000000001000000000000000000000100000000000000000200000000000000000000000008000000000000000000000000000000000000000000000000020000000400000000000800000000000000000000000010000000020000000000000000000000000000000000000000000000000000000000000000000000000000000000000000000000000000000000000000000000000000000008000002004000000000000000000000000000000000000000000000000020000000000000000000040000000000000000000000000000000000000000000000",
      "type": "0x2",
      "transactionHash": "0x75762a66cb3ecc50e8579257937cf240af0922219e4ca4cc98a0fce838f0396b",
      "transactionIndex": "0x24",
      "blockHash": "0xc3f20b45436bda3cc580e97c1dd6bed3b8f399d05d9d737c9b8f946b402c621e",
      "blockNumber": "0xad4bf9",
      "gasUsed": "0x1b47b",
      "effectiveGasPrice": "0xece12",
      "from": "0x8f088eca0009ad61fb94a6d7e9a5d7a087c08564",
      "to": "0xb88d359a7a53458487b300dba46f7da1cf22ec5f",
      "contractAddress": null,
      "l1BaseFeeScalar": "0x44d",
      "l1BlobBaseFee": "0x1",
      "l1BlobBaseFeeScalar": "0xa118b",
      "l1Fee": "0x66",
      "l1GasPrice": "0x15",
      "l1GasUsed": "0x640"
    },
    {
      "status": "0x1",
      "cumulativeGasUsed": "0x2891b6",
      "logs": [
        {
          "address": "0xb88d359a7a53458487b300dba46f7da1cf22ec5f",
          "topics": [
            "0xddf252ad1be2c89b69c2b068fc378daa952ba7f163c4a11628f55a4df523b3ef",
            "0x0000000000000000000000000000000000000000000000000000000000000000",
            "0x0000000000000000000000008f088eca0009ad61fb94a6d7e9a5d7a087c08564",
            "0x00000000000000000000000000000000000000000000000000000000001e848a"
          ],
          "data": "0x",
          "blockHash": "0xc3f20b45436bda3cc580e97c1dd6bed3b8f399d05d9d737c9b8f946b402c621e",
          "blockNumber": "0xad4bf9",
          "transactionHash": "0xcf3e4bc469a15ac7c0768f5bfab64834fdc688b5998f838fd415bbb9e6a7ffc6",
          "transactionIndex": "0x25",
          "logIndex": "0xc",
          "removed": false
        }
      ],
      "logsBloom": "0x00000400000000000000000000000000000000000000000000000100000000000000000000100000000001000000000000000000000000000000000000000200000000000000000000000008000000000000000000000000000000000000000000000000020000000400000000000800000000000000000000000010000000000000000000000000000000000000000000000000000000000400000000000000000000000000000000000000000000000000000000000000000000000000000008000002004000000000000000000000000000000000000000000000000020000000000000000000000000000000000000000000000000000000000000000000",
      "type": "0x2",
      "transactionHash": "0xcf3e4bc469a15ac7c0768f5bfab64834fdc688b5998f838fd415bbb9e6a7ffc6",
      "transactionIndex": "0x25",
      "blockHash": "0xc3f20b45436bda3cc580e97c1dd6bed3b8f399d05d9d737c9b8f946b402c621e",
      "blockNumber": "0xad4bf9",
      "gasUsed": "0x1b47b",
      "effectiveGasPrice": "0xece12",
      "from": "0x8f088eca0009ad61fb94a6d7e9a5d7a087c08564",
      "to": "0xb88d359a7a53458487b300dba46f7da1cf22ec5f",
      "contractAddress": null,
      "l1BaseFeeScalar": "0x44d",
      "l1BlobBaseFee": "0x1",
      "l1BlobBaseFeeScalar": "0xa118b",
      "l1Fee": "0x66",
      "l1GasPrice": "0x15",
      "l1GasUsed": "0x640"
    }
  ],
  "libraries": [],
  "pending": [],
  "returns": {},
  "timestamp": 1718482647,
  "chain": 84532,
  "commit": "3e641a5"
}