{
  "transactions": [
    {
      "hash": "0x20ea22c3eae7b09a16b537482a3555e798017e9daebbddf5e46955cee3a75495",
      "transactionType": "CALL",
      "contractName": null,
      "contractAddress": "0x0bd94fda87d78d4da8c5068f677975f9cecdffe0",
      "function": "mint(uint256)",
      "arguments": [
        "3"
      ],
      "transaction": {
        "from": "0x8f088eca0009ad61fb94a6d7e9a5d7a087c08564",
        "to": "0x0bd94fda87d78d4da8c5068f677975f9cecdffe0",
        "gas": "0x29747",
        "value": "0x0",
        "input": "0xa0712d680000000000000000000000000000000000000000000000000000000000000003",
        "nonce": "0xd8e",
        "chainId": "0x14a34"
      },
      "additionalContracts": [],
      "isFixedGasLimit": false
    },
    {
      "hash": "0x6f3d9101acf76ce1d0bcdff8f33e34d48a89eddca30d2aa94c011f49c5cf74ff",
      "transactionType": "CALL",
      "contractName": null,
      "contractAddress": "0x0bd94fda87d78d4da8c5068f677975f9cecdffe0",
      "function": "mint(uint256)",
      "arguments": [
        "3"
      ],
      "transaction": {
        "from": "0x8f088eca0009ad61fb94a6d7e9a5d7a087c08564",
        "to": "0x0bd94fda87d78d4da8c5068f677975f9cecdffe0",
        "gas": "0x23b03",
        "value": "0x0",
        "input": "0xa0712d680000000000000000000000000000000000000000000000000000000000000003",
        "nonce": "0xd8f",
        "chainId": "0x14a34"
      },
      "additionalContracts": [],
      "isFixedGasLimit": false
    },
    {
      "hash": "0x33dc69499a1e9495ba2ec3f42481710146debcc7768dc3e390f9535d69657406",
      "transactionType": "CALL",
      "contractName": null,
      "contractAddress": "0x0bd94fda87d78d4da8c5068f677975f9cecdffe0",
      "function": "mint(uint256)",
      "arguments": [
        "3"
      ],
      "transaction": {
        "from": "0x8f088eca0009ad61fb94a6d7e9a5d7a087c08564",
        "to": "0x0bd94fda87d78d4da8c5068f677975f9cecdffe0",
        "gas": "0x23b03",
        "value": "0x0",
        "input": "0xa0712d680000000000000000000000000000000000000000000000000000000000000003",
        "nonce": "0xd90",
        "chainId": "0x14a34"
      },
      "additionalContracts": [],
      "isFixedGasLimit": false
    },
    {
      "hash": "0xfa9adbc048979cd84e59e9843078376c1540c562d52e906a4d311ed0c93518af",
      "transactionType": "CALL",
      "contractName": null,
      "contractAddress": "0x0bd94fda87d78d4da8c5068f677975f9cecdffe0",
      "function": "mint(uint256)",
      "arguments": [
        "3"
      ],
      "transaction": {
        "from": "0x8f088eca0009ad61fb94a6d7e9a5d7a087c08564",
        "to": "0x0bd94fda87d78d4da8c5068f677975f9cecdffe0",
        "gas": "0x23b03",
        "value": "0x0",
        "input": "0xa0712d680000000000000000000000000000000000000000000000000000000000000003",
        "nonce": "0xd91",
        "chainId": "0x14a34"
      },
      "additionalContracts": [],
      "isFixedGasLimit": false
    },
    {
      "hash": "0xe8d318fc39f1562b4abc229669c5280cf8a46c8cd9dac1c821a28656aa73e7e4",
      "transactionType": "CALL",
      "contractName": null,
      "contractAddress": "0x0bd94fda87d78d4da8c5068f677975f9cecdffe0",
      "function": "mint(uint256)",
      "arguments": [
        "3"
      ],
      "transaction": {
        "from": "0x8f088eca0009ad61fb94a6d7e9a5d7a087c08564",
        "to": "0x0bd94fda87d78d4da8c5068f677975f9cecdffe0",
        "gas": "0x23b03",
        "value": "0x0",
        "input": "0xa0712d680000000000000000000000000000000000000000000000000000000000000003",
        "nonce": "0xd92",
        "chainId": "0x14a34"
      },
      "additionalContracts": [],
      "isFixedGasLimit": false
    }
  ],
  "receipts": [
    {
      "status": "0x1",
      "cumulativeGasUsed": "0x8ea7a",
      "logs": [
        {
          "address": "0x0bd94fda87d78d4da8c5068f677975f9cecdffe0",
          "topics": [
            "0xddf252ad1be2c89b69c2b068fc378daa952ba7f163c4a11628f55a4df523b3ef",
            "0x0000000000000000000000000000000000000000000000000000000000000000",
            "0x0000000000000000000000008f088eca0009ad61fb94a6d7e9a5d7a087c08564",
            "0x00000000000000000000000000000000000000000000000000000000002dc6c1"
          ],
          "data": "0x",
          "blockHash": "0xf90b13ff61138779ceb07f6c4da7c630c59c1aea8a676d7926fe44a9f1af9040",
          "blockNumber": "0xad7ad8",
          "transactionHash": "0x20ea22c3eae7b09a16b537482a3555e798017e9daebbddf5e46955cee3a75495",
          "transactionIndex": "0x5",
          "logIndex": "0x6",
          "removed": false
        }
      ],
      "logsBloom": "0x00000000000000000000000000000000000000000000000000000000000000000000000000100000000001000000000000000000000000000000000000000200000000000000000000000008000000000000000000000000000000000000000020000000020000008000000000000800000000000000000000000010000000000000000000000000000000000000000000000000008000000000000000000000000000000000000000000000000000000000000000000000000000000000000000000002000000000000000000000000000000000000000000000000000020400000000000000000800000000000000000000000000000000000040000000000",
      "type": "0x2",
      "transactionHash": "0x20ea22c3eae7b09a16b537482a3555e798017e9daebbddf5e46955cee3a75495",
      "transactionIndex": "0x5",
      "blockHash": "0xf90b13ff61138779ceb07f6c4da7c630c59c1aea8a676d7926fe44a9f1af9040",
      "blockNumber": "0xad7ad8",
      "gasUsed": "0x1e034",
      "effectiveGasPrice": "0x187a6",
      "from": "0x8f088eca0009ad61fb94a6d7e9a5d7a087c08564",
      "to": "0x0bd94fda87d78d4da8c5068f677975f9cecdffe0",
      "contractAddress": null,
      "l1BaseFeeScalar": "0x44d",
      "l1BlobBaseFee": "0x1",
      "l1BlobBaseFeeScalar": "0xa118b",
      "l1Fee": "0x65",
      "l1GasPrice": "0x14",
      "l1GasUsed": "0x640"
    },
    {
      "status": "0x1",
      "cumulativeGasUsed": "0xa87e2",
      "logs": [
        {
          "address": "0x0bd94fda87d78d4da8c5068f677975f9cecdffe0",
          "topics": [
            "0xddf252ad1be2c89b69c2b068fc378daa952ba7f163c4a11628f55a4df523b3ef",
            "0x0000000000000000000000000000000000000000000000000000000000000000",
            "0x0000000000000000000000008f088eca0009ad61fb94a6d7e9a5d7a087c08564",
            "0x00000000000000000000000000000000000000000000000000000000002dc6c2"
          ],
          "data": "0x",
          "blockHash": "0xf90b13ff61138779ceb07f6c4da7c630c59c1aea8a676d7926fe44a9f1af9040",
          "blockNumber": "0xad7ad8",
          "transactionHash": "0x6f3d9101acf76ce1d0bcdff8f33e34d48a89eddca30d2aa94c011f49c5cf74ff",
          "transactionIndex": "0x6",
          "logIndex": "0x7",
          "removed": false
        }
      ],
      "logsBloom": "0x00000000000000000000000000000000000000000000000000000000000000000000000000100000000001000000000000000000000000000000000001000200000000000000000000000008000000000000000000000000000000000000000020000000020000008000000000000800000000000000000000000010000000000000000001000000000000000000000000000000000000000000000000000000000000010000000000000000000000000000000000000000000000000000000000000002000000000000000000000000000000000000000000000000000020400000000000000000000000000000000000000000000000000000000000000000",
      "type": "0x2",
      "transactionHash": "0x6f3d9101acf76ce1d0bcdff8f33e34d48a89eddca30d2aa94c011f49c5cf74ff",
      "transactionIndex": "0x6",
      "blockHash": "0xf90b13ff61138779ceb07f6c4da7c630c59c1aea8a676d7926fe44a9f1af9040",
      "blockNumber": "0xad7ad8",
      "gasUsed": "0x19d68",
      "effectiveGasPrice": "0x187a6",
      "from": "0x8f088eca0009ad61fb94a6d7e9a5d7a087c08564",
      "to": "0x0bd94fda87d78d4da8c5068f677975f9cecdffe0",
      "contractAddress": null,
      "l1BaseFeeScalar": "0x44d",
      "l1BlobBaseFee": "0x1",
      "l1BlobBaseFeeScalar": "0xa118b",
      "l1Fee": "0x65",
      "l1GasPrice": "0x14",
      "l1GasUsed": "0x640"
    },
    {
      "status": "0x1",
      "cumulativeGasUsed": "0x1ca7ba",
      "logs": [
        {
          "address": "0x0bd94fda87d78d4da8c5068f677975f9cecdffe0",
          "topics": [
            "0xddf252ad1be2c89b69c2b068fc378daa952ba7f163c4a11628f55a4df523b3ef",
            "0x0000000000000000000000000000000000000000000000000000000000000000",
            "0x0000000000000000000000008f088eca0009ad61fb94a6d7e9a5d7a087c08564",
            "0x00000000000000000000000000000000000000000000000000000000002dc6c3"
          ],
          "data": "0x",
          "blockHash": "0x3dbd8f429529f856e13c4ac56721b8c20bb66ba8535532faa97911f46f57caf6",
          "blockNumber": "0xad7ad9",
          "transactionHash": "0x33dc69499a1e9495ba2ec3f42481710146debcc7768dc3e390f9535d69657406",
          "transactionIndex": "0x6",
          "logIndex": "0xc",
          "removed": false
        }
      ],
      "logsBloom": "0x00000000000000000000000000000000000000000000000000000000000000000000000000100000000001000000000080000000000000000000000000000200000000000000000000000008000000000000000000000000000000000000000020000000020000008000000000000800000010000000000000000010000000000000000000000000000000000000000000000000000000000000000020000000000000000000000000000000000000000000000000000000000000000000000000000002000000000000000000000000000000000000000000000000000020400000000000000000000000000000000000000000000000000000000000000000",
      "type": "0x2",
      "transactionHash": "0x33dc69499a1e9495ba2ec3f42481710146debcc7768dc3e390f9535d69657406",
      "transactionIndex": "0x6",
      "blockHash": "0x3dbd8f429529f856e13c4ac56721b8c20bb66ba8535532faa97911f46f57caf6",
      "blockNumber": "0xad7ad9",
      "gasUsed": "0x19d68",
      "effectiveGasPrice": "0x187a6",
      "from": "0x8f088eca0009ad61fb94a6d7e9a5d7a087c08564",
      "to": "0x0bd94fda87d78d4da8c5068f677975f9cecdffe0",
      "contractAddress": null,
      "l1BaseFeeScalar": "0x44d",
      "l1BlobBaseFee": "0x1",
      "l1BlobBaseFeeScalar": "0xa118b",
      "l1Fee": "0x65",
      "l1GasPrice": "0x14",
      "l1GasUsed": "0x640"
    },
    {
      "status": "0x1",
      "cumulativeGasUsed": "0x1e4522",
      "logs": [
        {
          "address": "0x0bd94fda87d78d4da8c5068f677975f9cecdffe0",
          "topics": [
            "0xddf252ad1be2c89b69c2b068fc378daa952ba7f163c4a11628f55a4df523b3ef",
            "0x0000000000000000000000000000000000000000000000000000000000000000",
            "0x0000000000000000000000008f088eca0009ad61fb94a6d7e9a5d7a087c08564",
            "0x00000000000000000000000000000000000000000000000000000000002dc6c4"
          ],
          "data": "0x",
          "blockHash": "0x3dbd8f429529f856e13c4ac56721b8c20bb66ba8535532faa97911f46f57caf6",
          "blockNumber": "0xad7ad9",
          "transactionHash": "0xfa9adbc048979cd84e59e9843078376c1540c562d52e906a4d311ed0c93518af",
          "transactionIndex": "0x7",
          "logIndex": "0xd",
          "removed": false
        }
      ],
      "logsBloom": "0x00000000000000000000000000000000000000000000000000000000000000000000000000100000000001000000000400000000000000000000000000000200000000000000000000000008000000000000000000000000000000000000000020000000020000008000000000000800000000000000000000000010000000000000000000000000000000000000000000000000000000000000000000000000000000000000000000000000000000000000000000000000000000000000000000000002000200000000000000000000000000000000000000000000000020400000000000000000000000400000000000000000000000000000000000000000",
      "type": "0x2",
      "transactionHash": "0xfa9adbc048979cd84e59e9843078376c1540c562d52e906a4d311ed0c93518af",
      "transactionIndex": "0x7",
      "blockHash": "0x3dbd8f429529f856e13c4ac56721b8c20bb66ba8535532faa97911f46f57caf6",
      "blockNumber": "0xad7ad9",
      "gasUsed": "0x19d68",
      "effectiveGasPrice": "0x187a6",
      "from": "0x8f088eca0009ad61fb94a6d7e9a5d7a087c08564",
      "to": "0x0bd94fda87d78d4da8c5068f677975f9cecdffe0",
      "contractAddress": null,
      "l1BaseFeeScalar": "0x44d",
      "l1BlobBaseFee": "0x1",
      "l1BlobBaseFeeScalar": "0xa118b",
      "l1Fee": "0x65",
      "l1GasPrice": "0x14",
      "l1GasUsed": "0x640"
    },
    {
      "status": "0x1",
      "cumulativeGasUsed": "0x1fe28a",
      "logs": [
        {
          "address": "0x0bd94fda87d78d4da8c5068f677975f9cecdffe0",
          "topics": [
            "0xddf252ad1be2c89b69c2b068fc378daa952ba7f163c4a11628f55a4df523b3ef",
            "0x0000000000000000000000000000000000000000000000000000000000000000",
            "0x0000000000000000000000008f088eca0009ad61fb94a6d7e9a5d7a087c08564",
            "0x00000000000000000000000000000000000000000000000000000000002dc6c5"
          ],
          "data": "0x",
          "blockHash": "0x3dbd8f429529f856e13c4ac56721b8c20bb66ba8535532faa97911f46f57caf6",
          "blockNumber": "0xad7ad9",
          "transactionHash": "0xe8d318fc39f1562b4abc229669c5280cf8a46c8cd9dac1c821a28656aa73e7e4",
          "transactionIndex": "0x8",
          "logIndex": "0xe",
          "removed": false
        }
      ],
      "logsBloom": "0x00000000000000000000000000000000000000000000000000000000000000000000000000100000000001000000000000000000000000000000000000000200000000000000000000000008000000000000000000000000000000000000000020000000020000008000000000000800000000000000000000000010000000000000000000000000000000000000000001000000000000000000000000000000000000000000000000000000000000000002000000000000000000000000000000000002000000000000000000000000000020000000000000000000000020400000000000000000000000000000000000000000000000000000000000000000",
      "type": "0x2",
      "transactionHash": "0xe8d318fc39f1562b4abc229669c5280cf8a46c8cd9dac1c821a28656aa73e7e4",
      "transactionIndex": "0x8",
      "blockHash": "0x3dbd8f429529f856e13c4ac56721b8c20bb66ba8535532faa97911f46f57caf6",
      "blockNumber": "0xad7ad9",
      "gasUsed": "0x19d68",
      "effectiveGasPrice": "0x187a6",
      "from": "0x8f088eca0009ad61fb94a6d7e9a5d7a087c08564",
      "to": "0x0bd94fda87d78d4da8c5068f677975f9cecdffe0",
      "contractAddress": null,
      "l1BaseFeeScalar": "0x44d",
      "l1BlobBaseFee": "0x1",
      "l1BlobBaseFeeScalar": "0xa118b",
      "l1Fee": "0x65",
      "l1GasPrice": "0x14",
      "l1GasUsed": "0x640"
    }
  ],
  "libraries": [],
  "pending": [],
  "returns": {},
  "timestamp": 1718506647,
  "chain": 84532,
  "commit": "3e641a5"
}