{
  "transactions": [
    {
      "hash": "0x7c68b402e69d7fee369d98738fa05648e4590a4bb09358b92fe8973e8db69716",
      "transactionType": "CALL",
      "contractName": null,
      "contractAddress": "0xb88d359a7a53458487b300dba46f7da1cf22ec5f",
      "function": "setSignatureId(uint256,uint256)",
      "arguments": [
        "3",
        "1000006"
      ],
      "transaction": {
        "from": "0x8f088eca0009ad61fb94a6d7e9a5d7a087c08564",
        "to": "0xb88d359a7a53458487b300dba46f7da1cf22ec5f",
        "gas": "0xf883",
        "value": "0x0",
        "input": "0xd728fcc5000000000000000000000000000000000000000000000000000000000000000300000000000000000000000000000000000000000000000000000000000f4246",
        "nonce": "0xd4a",
        "chainId": "0x14a34"
      },
      "additionalContracts": [],
      "isFixedGasLimit": false
    }
  ],
  "receipts": [
    {
      "status": "0x1",
      "cumulativeGasUsed": "0xe228b",
      "logs": [],
      "logsBloom": "0x00000000000000000000000000000000000000000000000000000000000000000000000000000000000000000000000000000000000000000000000000000000000000000000000000000000000000000000000000000000000000000000000000000000000000000000000000000000000000000000000000000000000000000000000000000000000000000000000000000000000000000000000000000000000000000000000000000000000000000000000000000000000000000000000000000000000000000000000000000000000000000000000000000000000000000000000000000000000000000000000000000000000000000000000000000000",
      "type": "0x2",
      "transactionHash": "0x7c68b402e69d7fee369d98738fa05648e4590a4bb09358b92fe8973e8db69716",
      "transactionIndex": "0x7",
      "blockHash": "0x880d3c8a2c651d8371934557a94cf891eeac57360e0bd4835a3bf86610b16d37",
      "blockNumber": "0xad5956",
      "gasUsed": "0xb3ec",
      "effectiveGasPrice": "0x90c4d",
      "from": "0x8f088eca0009ad61fb94a6d7e9a5d7a087c08564",
      "to": "0xb88d359a7a53458487b300dba46f7da1cf22ec5f",
      "contractAddress": null,
      "l1BaseFeeScalar": "0x44d",
      "l1BlobBaseFee": "0x275276",
      "l1BlobBaseFeeScalar": "0xa118b",
      "l1Fee": "0xa22ac83",
      "l1GasPrice": "0xc",
      "l1GasUsed": "0x640"
    }
  ],
  "libraries": [],
  "pending": [],
  "returns": {},
  "timestamp": 1718489489,
  "chain": 84532,
  "commit": "3e641a5"
}