{
  "transactions": [
    {
      "hash": "0xf89e732fd6b5c06d5b70c7d9c766afb6f0179f6a7dfe59f080bd43fc6fff3349",
      "transactionType": "CALL",
      "contractName": null,
      "contractAddress": "0x0bd94fda87d78d4da8c5068f677975f9cecdffe0",
      "function": "setRoyaltyInfo(uint256,uint256)",
      "arguments": [
        "2",
        "500"
      ],
      "transaction": {
        "from": "0x8f088eca0009ad61fb94a6d7e9a5d7a087c08564",
        "to": "0x0bd94fda87d78d4da8c5068f677975f9cecdffe0",
        "gas": "0xf8db",
        "value": "0x0",
        "input": "0xf19f1f00000000000000000000000000000000000000000000000000000000000000000200000000000000000000000000000000000000000000000000000000000001f4",
        "nonce": "0xd9e",
        "chainId": "0x14a34"
      },
      "additionalContracts": [],
      "isFixedGasLimit": false
    }
  ],
  "receipts": [
    {
      "status": "0x1",
      "cumulativeGasUsed": "0x13833b",
      "logs": [],
      "logsBloom": "0x00000000000000000000000000000000000000000000000000000000000000000000000000000000000000000000000000000000000000000000000000000000000000000000000000000000000000000000000000000000000000000000000000000000000000000000000000000000000000000000000000000000000000000000000000000000000000000000000000000000000000000000000000000000000000000000000000000000000000000000000000000000000000000000000000000000000000000000000000000000000000000000000000000000000000000000000000000000000000000000000000000000000000000000000000000000",
      "type": "0x2",
      "transactionHash": "0xf89e732fd6b5c06d5b70c7d9c766afb6f0179f6a7dfe59f080bd43fc6fff3349",
      "transactionIndex": "0x6",
      "blockHash": "0x3e748cd2d4a40aab47de8102787f2588fa3c427e09214c4c6607d177cc26acf4",
      "blockNumber": "0xad7ce2",
      "gasUsed": "0xb42c",
      "effectiveGasPrice": "0x8e860",
      "from": "0x8f088eca0009ad61fb94a6d7e9a5d7a087c08564",
      "to": "0x0bd94fda87d78d4da8c5068f677975f9cecdffe0",
      "contractAddress": null,
      "l1BaseFeeScalar": "0x44d",
      "l1BlobBaseFee": "0x1",
      "l1BlobBaseFeeScalar": "0xa118b",
      "l1Fee": "0x6c",
      "l1GasPrice": "0x18",
      "l1GasUsed": "0x640"
    }
  ],
  "libraries": [],
  "pending": [],
  "returns": {},
  "timestamp": 1718507689,
  "chain": 84532,
  "commit": "3e641a5"
}