{
  "transactions": [
    {
      "hash": "0x7a19f97271726b6008bbee895b857d57c1d47182af42b189582859105e77ce0a",
      "transactionType": "CALL",
      "contractName": null,
      "contractAddress": "0xb88d359a7a53458487b300dba46f7da1cf22ec5f",
      "function": "setRoyaltyInfo(uint256,uint256)",
      "arguments": [
        "1",
        "500"
      ],
      "transaction": {
        "from": "0x8f088eca0009ad61fb94a6d7e9a5d7a087c08564",
        "to": "0xb88d359a7a53458487b300dba46f7da1cf22ec5f",
        "gas": "0xf8db",
        "value": "0x0",
        "input": "0xf19f1f00000000000000000000000000000000000000000000000000000000000000000100000000000000000000000000000000000000000000000000000000000001f4",
        "nonce": "0xd35",
        "chainId": "0x14a34"
      },
      "additionalContracts": [],
      "isFixedGasLimit": false
    }
  ],
  "receipts": [
    {
      "status": "0x1",
      "cumulativeGasUsed": "0xb56a1",
      "logs": [],
      "logsBloom": "0x00000000000000000000000000000000000000000000000000000000000000000000000000000000000000000000000000000000000000000000000000000000000000000000000000000000000000000000000000000000000000000000000000000000000000000000000000000000000000000000000000000000000000000000000000000000000000000000000000000000000000000000000000000000000000000000000000000000000000000000000000000000000000000000000000000000000000000000000000000000000000000000000000000000000000000000000000000000000000000000000000000000000000000000000000000000",
      "type": "0x2",
      "transactionHash": "0x7a19f97271726b6008bbee895b857d57c1d47182af42b189582859105e77ce0a",
      "transactionIndex": "0x6",
      "blockHash": "0xfb4ce15391ca94a7b9391482b934edd42952383138cb4cc019068cc635054ffb",
      "blockNumber": "0xad4f0e",
      "gasUsed": "0xb42c",
      "effectiveGasPrice": "0xf4344",
      "from": "0x8f088eca0009ad61fb94a6d7e9a5d7a087c08564",
      "to": "0xb88d359a7a53458487b300dba46f7da1cf22ec5f",
      "contractAddress": null,
      "l1BaseFeeScalar": "0x44d",
      "l1BlobBaseFee": "0x8",
      "l1BlobBaseFeeScalar": "0xa118b",
      "l1Fee": "0x22f",
      "l1GasPrice": "0x12",
      "l1GasUsed": "0x640"
    }
  ],
  "libraries": [],
  "pending": [],
  "returns": {},
  "timestamp": 1718484226,
  "chain": 84532,
  "commit": "3e641a5"
}